{
  "contractName": "Broker",
  "abi": [
    {
      "constant": true,
      "inputs": [
        {
          "name": "",
          "type": "address"
        }
      ],
      "name": "m_preferences",
      "outputs": [
        {
          "name": "reward",
          "type": "uint256"
        },
        {
          "name": "maxgasprice",
          "type": "uint256"
        }
      ],
      "payable": false,
      "stateMutability": "view",
      "type": "function"
    },
    {
      "constant": true,
      "inputs": [
        {
          "name": "",
          "type": "address"
        }
      ],
      "name": "m_balance",
      "outputs": [
        {
          "name": "",
          "type": "uint256"
        }
      ],
      "payable": false,
      "stateMutability": "view",
      "type": "function"
    },
    {
      "constant": true,
      "inputs": [],
      "name": "iexecclerk",
      "outputs": [
        {
          "name": "",
          "type": "address"
        }
      ],
      "payable": false,
      "stateMutability": "view",
      "type": "function"
    },
    {
      "inputs": [
        {
          "name": "_iexecclerk",
          "type": "address"
        }
      ],
      "payable": false,
      "stateMutability": "nonpayable",
      "type": "constructor"
    },
    {
      "payable": true,
      "stateMutability": "payable",
      "type": "fallback"
    },
    {
      "constant": false,
      "inputs": [],
      "name": "deposit",
      "outputs": [],
      "payable": true,
      "stateMutability": "payable",
      "type": "function"
    },
    {
      "constant": false,
      "inputs": [
        {
          "name": "_account",
          "type": "address"
        }
      ],
      "name": "depositFor",
      "outputs": [],
      "payable": true,
      "stateMutability": "payable",
      "type": "function"
    },
    {
      "constant": false,
      "inputs": [
        {
          "name": "_amount",
          "type": "uint256"
        }
      ],
      "name": "withdraw",
      "outputs": [],
      "payable": false,
      "stateMutability": "nonpayable",
      "type": "function"
    },
    {
      "constant": false,
      "inputs": [
        {
          "name": "_reward",
          "type": "uint256"
        },
        {
          "name": "_maxgasprice",
          "type": "uint256"
        }
      ],
      "name": "setPreferences",
      "outputs": [],
      "payable": false,
      "stateMutability": "nonpayable",
      "type": "function"
    },
    {
      "constant": false,
      "inputs": [
        {
          "components": [
            {
              "name": "app",
              "type": "address"
            },
            {
              "name": "appprice",
              "type": "uint256"
            },
            {
              "name": "volume",
              "type": "uint256"
            },
            {
              "name": "tag",
              "type": "uint256"
            },
            {
              "name": "datasetrestrict",
              "type": "address"
            },
            {
              "name": "workerpoolrestrict",
              "type": "address"
            },
            {
              "name": "requesterrestrict",
              "type": "address"
            },
            {
              "name": "salt",
              "type": "bytes32"
            },
            {
              "components": [
                {
                  "name": "v",
                  "type": "uint8"
                },
                {
                  "name": "r",
                  "type": "bytes32"
                },
                {
                  "name": "s",
                  "type": "bytes32"
                }
              ],
              "name": "sign",
              "type": "tuple"
            }
          ],
          "name": "_apporder",
          "type": "tuple"
        },
        {
          "components": [
            {
              "name": "dataset",
              "type": "address"
            },
            {
              "name": "datasetprice",
              "type": "uint256"
            },
            {
              "name": "volume",
              "type": "uint256"
            },
            {
              "name": "tag",
              "type": "uint256"
            },
            {
              "name": "apprestrict",
              "type": "address"
            },
            {
              "name": "workerpoolrestrict",
              "type": "address"
            },
            {
              "name": "requesterrestrict",
              "type": "address"
            },
            {
              "name": "salt",
              "type": "bytes32"
            },
            {
              "components": [
                {
                  "name": "v",
                  "type": "uint8"
                },
                {
                  "name": "r",
                  "type": "bytes32"
                },
                {
                  "name": "s",
                  "type": "bytes32"
                }
              ],
              "name": "sign",
              "type": "tuple"
            }
          ],
          "name": "_datasetorder",
          "type": "tuple"
        },
        {
          "components": [
            {
              "name": "workerpool",
              "type": "address"
            },
            {
              "name": "workerpoolprice",
              "type": "uint256"
            },
            {
              "name": "volume",
              "type": "uint256"
            },
            {
              "name": "tag",
              "type": "uint256"
            },
            {
              "name": "category",
              "type": "uint256"
            },
            {
              "name": "trust",
              "type": "uint256"
            },
            {
              "name": "apprestrict",
              "type": "address"
            },
            {
              "name": "datasetrestrict",
              "type": "address"
            },
            {
              "name": "requesterrestrict",
              "type": "address"
            },
            {
              "name": "salt",
              "type": "bytes32"
            },
            {
              "components": [
                {
                  "name": "v",
                  "type": "uint8"
                },
                {
                  "name": "r",
                  "type": "bytes32"
                },
                {
                  "name": "s",
                  "type": "bytes32"
                }
              ],
              "name": "sign",
              "type": "tuple"
            }
          ],
          "name": "_workerpoolorder",
          "type": "tuple"
        },
        {
          "components": [
            {
              "name": "app",
              "type": "address"
            },
            {
              "name": "appmaxprice",
              "type": "uint256"
            },
            {
              "name": "dataset",
              "type": "address"
            },
            {
              "name": "datasetmaxprice",
              "type": "uint256"
            },
            {
              "name": "workerpool",
              "type": "address"
            },
            {
              "name": "workerpoolmaxprice",
              "type": "uint256"
            },
            {
              "name": "requester",
              "type": "address"
            },
            {
              "name": "volume",
              "type": "uint256"
            },
            {
              "name": "tag",
              "type": "uint256"
            },
            {
              "name": "category",
              "type": "uint256"
            },
            {
              "name": "trust",
              "type": "uint256"
            },
            {
              "name": "beneficiary",
              "type": "address"
            },
            {
              "name": "callback",
              "type": "address"
            },
            {
              "name": "params",
              "type": "string"
            },
            {
              "name": "salt",
              "type": "bytes32"
            },
            {
              "components": [
                {
                  "name": "v",
                  "type": "uint8"
                },
                {
                  "name": "r",
                  "type": "bytes32"
                },
                {
                  "name": "s",
                  "type": "bytes32"
                }
              ],
              "name": "sign",
              "type": "tuple"
            }
          ],
          "name": "_requestorder",
          "type": "tuple"
        }
      ],
      "name": "matchOrdersForPool",
      "outputs": [
        {
          "name": "",
          "type": "bytes32"
        }
      ],
      "payable": false,
      "stateMutability": "nonpayable",
      "type": "function"
    },
    {
      "constant": false,
      "inputs": [
        {
          "components": [
            {
              "name": "app",
              "type": "address"
            },
            {
              "name": "appprice",
              "type": "uint256"
            },
            {
              "name": "volume",
              "type": "uint256"
            },
            {
              "name": "tag",
              "type": "uint256"
            },
            {
              "name": "datasetrestrict",
              "type": "address"
            },
            {
              "name": "workerpoolrestrict",
              "type": "address"
            },
            {
              "name": "requesterrestrict",
              "type": "address"
            },
            {
              "name": "salt",
              "type": "bytes32"
            },
            {
              "components": [
                {
                  "name": "v",
                  "type": "uint8"
                },
                {
                  "name": "r",
                  "type": "bytes32"
                },
                {
                  "name": "s",
                  "type": "bytes32"
                }
              ],
              "name": "sign",
              "type": "tuple"
            }
          ],
          "name": "_apporder",
          "type": "tuple"
        },
        {
          "components": [
            {
              "name": "dataset",
              "type": "address"
            },
            {
              "name": "datasetprice",
              "type": "uint256"
            },
            {
              "name": "volume",
              "type": "uint256"
            },
            {
              "name": "tag",
              "type": "uint256"
            },
            {
              "name": "apprestrict",
              "type": "address"
            },
            {
              "name": "workerpoolrestrict",
              "type": "address"
            },
            {
              "name": "requesterrestrict",
              "type": "address"
            },
            {
              "name": "salt",
              "type": "bytes32"
            },
            {
              "components": [
                {
                  "name": "v",
                  "type": "uint8"
                },
                {
                  "name": "r",
                  "type": "bytes32"
                },
                {
                  "name": "s",
                  "type": "bytes32"
                }
              ],
              "name": "sign",
              "type": "tuple"
            }
          ],
          "name": "_datasetorder",
          "type": "tuple"
        },
        {
          "components": [
            {
              "name": "workerpool",
              "type": "address"
            },
            {
              "name": "workerpoolprice",
              "type": "uint256"
            },
            {
              "name": "volume",
              "type": "uint256"
            },
            {
              "name": "tag",
              "type": "uint256"
            },
            {
              "name": "category",
              "type": "uint256"
            },
            {
              "name": "trust",
              "type": "uint256"
            },
            {
              "name": "apprestrict",
              "type": "address"
            },
            {
              "name": "datasetrestrict",
              "type": "address"
            },
            {
              "name": "requesterrestrict",
              "type": "address"
            },
            {
              "name": "salt",
              "type": "bytes32"
            },
            {
              "components": [
                {
                  "name": "v",
                  "type": "uint8"
                },
                {
                  "name": "r",
                  "type": "bytes32"
                },
                {
                  "name": "s",
                  "type": "bytes32"
                }
              ],
              "name": "sign",
              "type": "tuple"
            }
          ],
          "name": "_workerpoolorder",
          "type": "tuple"
        },
        {
          "components": [
            {
              "name": "app",
              "type": "address"
            },
            {
              "name": "appmaxprice",
              "type": "uint256"
            },
            {
              "name": "dataset",
              "type": "address"
            },
            {
              "name": "datasetmaxprice",
              "type": "uint256"
            },
            {
              "name": "workerpool",
              "type": "address"
            },
            {
              "name": "workerpoolmaxprice",
              "type": "uint256"
            },
            {
              "name": "requester",
              "type": "address"
            },
            {
              "name": "volume",
              "type": "uint256"
            },
            {
              "name": "tag",
              "type": "uint256"
            },
            {
              "name": "category",
              "type": "uint256"
            },
            {
              "name": "trust",
              "type": "uint256"
            },
            {
              "name": "beneficiary",
              "type": "address"
            },
            {
              "name": "callback",
              "type": "address"
            },
            {
              "name": "params",
              "type": "string"
            },
            {
              "name": "salt",
              "type": "bytes32"
            },
            {
              "components": [
                {
                  "name": "v",
                  "type": "uint8"
                },
                {
                  "name": "r",
                  "type": "bytes32"
                },
                {
                  "name": "s",
                  "type": "bytes32"
                }
              ],
              "name": "sign",
              "type": "tuple"
            }
          ],
          "name": "_requestorder",
          "type": "tuple"
        }
      ],
      "name": "matchOrdersForRequester",
      "outputs": [
        {
          "name": "",
          "type": "bytes32"
        }
      ],
      "payable": false,
      "stateMutability": "nonpayable",
      "type": "function"
    }
  ],
  "bytecode": "0x608060405234801561001057600080fd5b5060405160208061117b833981018060405261002f9190810190610067565b60008054600160a060020a031916600160a060020a03929092169190911790556100aa565b60006100608251610099565b9392505050565b60006020828403121561007957600080fd5b60006100858484610054565b949350505050565b600160a060020a031690565b60006100a48261008d565b92915050565b6110c2806100b96000396000f3fe6080604052600436106100985763ffffffff7c01000000000000000000000000000000000000000000000000000000006000350416632e1a7d4d81146100ca57806336bfedd1146100ec578063693751b514610122578063a8d3b3d114610150578063a95e1b3614610170578063aa67c91914610190578063b01c6846146101a3578063d0e30db0146101c5578063f22e4bf6146101cd575b336000908152600160205260409020546100b8903463ffffffff6101ed16565b33600090815260016020526040902055005b3480156100d657600080fd5b506100ea6100e5366004610b7f565b610205565b005b3480156100f857600080fd5b5061010c610107366004610b02565b610267565b6040516101199190610f42565b60405180910390f35b34801561012e57600080fd5b5061014261013d366004610aa0565b6103e4565b604051610119929190610fa6565b34801561015c57600080fd5b5061010c61016b366004610aa0565b6103fd565b34801561017c57600080fd5b506100ea61018b366004610b9d565b61040f565b6100ea61019e366004610aa0565b610429565b3480156101af57600080fd5b506101b861046e565b6040516101199190610f50565b6100ea61047d565b3480156101d957600080fd5b5061010c6101e8366004610b02565b6104af565b6000828201838110156101fc57fe5b90505b92915050565b33600090815260016020526040902054610225908263ffffffff61062a16565b33600081815260016020526040808220939093559151909183156108fc02918491818181858888f19350505050158015610263573d6000803e3d6000fd5b5050565b6000805a600080546040517ff19f5d850000000000000000000000000000000000000000000000000000000081529293509091600160a060020a039091169063f19f5d85906102c0908a908a908a908a90600401610f5e565b602060405180830381600087803b1580156102da57600080fd5b505af11580156102ee573d6000803e3d6000fd5b505050506040513d601f19601f820116820180604052506103129190810190610ae4565b60c085015190915060005a600160a060020a038316600090815260026020526040902060010154908503620153d80190610353903a9063ffffffff61063c16565b600160a060020a0384166000908152600260209081526040808320546001909252909120549290910201915061038f908263ffffffff61062a16565b600160a060020a038316600090815260016020526040808220929092559051339183156108fc02918491818181858888f193505050501580156103d6573d6000803e3d6000fd5b509198975050505050505050565b6002602052600090815260409020805460019091015482565b60016020526000908152604090205481565b336000908152600260205260409020918255600190910155565b600160a060020a038116600090815260016020526040902054610452903463ffffffff6101ed16565b600160a060020a03909116600090815260016020526040902055565b600054600160a060020a031681565b3360009081526001602052604090205461049d903463ffffffff6101ed16565b33600090815260016020526040902055565b6000805a600080546040517ff19f5d850000000000000000000000000000000000000000000000000000000081529293509091600160a060020a039091169063f19f5d8590610508908a908a908a908a90600401610f5e565b602060405180830381600087803b15801561052257600080fd5b505af1158015610536573d6000803e3d6000fd5b505050506040513d601f19601f8201168201806040525061055a9190810190610ae4565b905060008560000151600160a060020a031663deff41c16040518163ffffffff167c010000000000000000000000000000000000000000000000000000000002815260040160206040518083038186803b1580156105b757600080fd5b505afa1580156105cb573d6000803e3d6000fd5b505050506040513d601f19601f820116820180604052506105ef9190810190610ac6565b905060005a600160a060020a038316600090815260026020526040902060010154908503620153d80190610353903a9063ffffffff61063c16565b60008282111561063657fe5b50900390565b600081831061064b57816101fc565b5090919050565b60006101fc823561101b565b60006101fc825161101b565b60006101fc8235611026565b60006101fc8251611026565b6000601f8201831361069357600080fd5b81356106a66106a182610fef565b610fc8565b915080825260208301602083018583830111156106c257600080fd5b6106cd838284611046565b50505092915050565b600061016082840312156106e957600080fd5b6106f4610120610fc8565b905060006107028484610652565b82525060206107138484830161066a565b60208301525060406107278482850161066a565b604083015250606061073b8482850161066a565b606083015250608061074f84828501610652565b60808301525060a061076384828501610652565b60a08301525060c061077784828501610652565b60c08301525060e061078b8482850161066a565b60e0830152506101006107a084828501610a39565b6101008301525092915050565b600061024082840312156107c057600080fd5b6107cb610200610fc8565b905060006107d98484610652565b82525060206107ea8484830161066a565b60208301525060406107fe84828501610652565b60408301525060606108128482850161066a565b606083015250608061082684828501610652565b60808301525060a061083a8482850161066a565b60a08301525060c061084e84828501610652565b60c08301525060e06108628482850161066a565b60e0830152506101006108778482850161066a565b6101008301525061012061088d8482850161066a565b610120830152506101406108a38482850161066a565b610140830152506101606108b984828501610652565b610160830152506101806108cf84828501610652565b610180830152506101a082013567ffffffffffffffff8111156108f157600080fd5b6108fd84828501610682565b6101a0830152506101c06109138482850161066a565b6101c0830152506101e061092984828501610a39565b6101e08301525092915050565b60006101a0828403121561094957600080fd5b610954610160610fc8565b905060006109628484610652565b82525060206109738484830161066a565b60208301525060406109878482850161066a565b604083015250606061099b8482850161066a565b60608301525060806109af8482850161066a565b60808301525060a06109c38482850161066a565b60a08301525060c06109d784828501610652565b60c08301525060e06109eb84828501610652565b60e083015250610100610a0084828501610652565b61010083015250610120610a168482850161066a565b61012083015250610140610a2c84828501610a39565b6101408301525092915050565b600060608284031215610a4b57600080fd5b610a556060610fc8565b90506000610a638484610a94565b8252506020610a748484830161066a565b6020830152506040610a888482850161066a565b60408301525092915050565b60006101fc8235611035565b600060208284031215610ab257600080fd5b6000610abe8484610652565b949350505050565b600060208284031215610ad857600080fd5b6000610abe848461065e565b600060208284031215610af657600080fd5b6000610abe8484610676565b6000806000806104808587031215610b1957600080fd5b6000610b2587876106d6565b945050610160610b37878288016106d6565b9350506102c0610b4987828801610936565b92505061046085013567ffffffffffffffff811115610b6757600080fd5b610b73878288016107ad565b91505092959194509250565b600060208284031215610b9157600080fd5b6000610abe848461066a565b60008060408385031215610bb057600080fd5b6000610bbc858561066a565b9250506020610bcd8582860161066a565b9150509250929050565b610be08161101b565b82525050565b610be081611026565b610be08161103b565b6000610c0382611017565b808452610c17816020860160208601611052565b610c208161107e565b9093016020019392505050565b8051610160830190610c3f8482610bd7565b506020820151610c526020850182610be6565b506040820151610c656040850182610be6565b506060820151610c786060850182610be6565b506080820151610c8b6080850182610bd7565b5060a0820151610c9e60a0850182610bd7565b5060c0820151610cb160c0850182610bd7565b5060e0820151610cc460e0850182610be6565b50610100820151610cd9610100850182610f02565b50505050565b8051600090610240840190610cf48582610bd7565b506020830151610d076020860182610be6565b506040830151610d1a6040860182610bd7565b506060830151610d2d6060860182610be6565b506080830151610d406080860182610bd7565b5060a0830151610d5360a0860182610be6565b5060c0830151610d6660c0860182610bd7565b5060e0830151610d7960e0860182610be6565b50610100830151610d8e610100860182610be6565b50610120830151610da3610120860182610be6565b50610140830151610db8610140860182610be6565b50610160830151610dcd610160860182610bd7565b50610180830151610de2610180860182610bd7565b506101a08301518482036101a0860152610dfc8282610bf8565b9150506101c0830151610e136101c0860182610be6565b506101e0830151610e286101e0860182610f02565b509392505050565b80516101a0830190610e428482610bd7565b506020820151610e556020850182610be6565b506040820151610e686040850182610be6565b506060820151610e7b6060850182610be6565b506080820151610e8e6080850182610be6565b5060a0820151610ea160a0850182610be6565b5060c0820151610eb460c0850182610bd7565b5060e0820151610ec760e0850182610bd7565b50610100820151610edc610100850182610bd7565b50610120820151610ef1610120850182610be6565b50610140820151610cd96101408501825b80516060830190610f138482610f39565b506020820151610f266020850182610be6565b506040820151610cd96040850182610be6565b610be081611035565b602081016101ff8284610be6565b602081016101ff8284610bef565b6104808101610f6d8287610c2d565b610f7b610160830186610c2d565b610f896102c0830185610e30565b818103610460830152610f9c8184610cdf565b9695505050505050565b60408101610fb48285610be6565b610fc16020830184610be6565b9392505050565b60405181810167ffffffffffffffff81118282101715610fe757600080fd5b604052919050565b600067ffffffffffffffff82111561100657600080fd5b506020601f91909101601f19160190565b5190565b60006101ff82611029565b90565b600160a060020a031690565b60ff1690565b60006101ff8261101b565b82818337506000910152565b60005b8381101561106d578181015183820152602001611055565b83811115610cd95750506000910152565b601f01601f19169056fea265627a7a72305820e6a4127e16cb73f556e2298a8d139cab0dbe426d71818c09a37d3563cda09bf96c6578706572696d656e74616cf50037",
  "source": "pragma solidity ^0.5.0;\npragma experimental ABIEncoderV2;\n\nimport \"./libs/IexecODBLibOrders.sol\";\nimport \"./libs/SafeMathOZ.sol\";\n\nimport \"./IexecClerk.sol\";\n\ncontract Broker\n{\n\tusing SafeMathOZ for uint256;\n\n\tstruct Preferences\n\t{\n\t\tuint reward;\n\t\tuint maxgasprice;\n\t}\n\n\tIexecClerk                      public iexecclerk;\n\tmapping(address => uint256    ) public m_balance;\n\tmapping(address => Preferences) public m_preferences;\n\n\tconstructor(address _iexecclerk)\n\tpublic\n\t{\n\t\tiexecclerk = IexecClerk(_iexecclerk);\n\t}\n\n\tfunction ()\n\texternal payable\n\t{\n\t\tm_balance[msg.sender] = m_balance[msg.sender].add(msg.value);\n\t}\n\n\tfunction deposit()\n\texternal payable\n\t{\n\t\tm_balance[msg.sender] = m_balance[msg.sender].add(msg.value);\n\t}\n\n\tfunction depositFor(address _account)\n\texternal payable\n\t{\n\t\tm_balance[_account] = m_balance[_account].add(msg.value);\n\t}\n\n\tfunction withdraw(uint256 _amount)\n\texternal\n\t{\n\t\tm_balance[msg.sender] = m_balance[msg.sender].sub(_amount);\n\t\tmsg.sender.transfer(_amount);\n\t}\n\n\tfunction setPreferences(uint256 _reward, uint256 _maxgasprice)\n\texternal\n\t{\n\t\tm_preferences[msg.sender].reward      = _reward;\n\t\tm_preferences[msg.sender].maxgasprice = _maxgasprice;\n\t}\n\n\tfunction matchOrdersForPool(\n\t\tIexecODBLibOrders.AppOrder        memory _apporder,\n\t\tIexecODBLibOrders.DatasetOrder    memory _datasetorder,\n\t\tIexecODBLibOrders.WorkerpoolOrder memory _workerpoolorder,\n\t\tIexecODBLibOrders.RequestOrder    memory _requestorder)\n\tpublic returns (bytes32)\n\t{\n\t\tuint256 gasBefore = gasleft();\n\n\t\tbytes32 dealid = iexecclerk.matchOrders(\n\t\t\t_apporder,\n\t\t\t_datasetorder,\n\t\t\t_workerpoolorder,\n\t\t\t_requestorder);\n\n\t\taddress payer = Workerpool(_workerpoolorder.workerpool).m_owner();\n\t\tuint256 price = m_preferences[payer].reward + tx.gasprice.min(m_preferences[payer].maxgasprice) * (87000 + gasBefore - gasleft());\n\t\tm_balance[payer] = m_balance[payer].sub(price);\n\t\tmsg.sender.transfer(price);\n\n\t\treturn dealid;\n\t}\n\n\tfunction matchOrdersForRequester(\n\t\tIexecODBLibOrders.AppOrder        memory _apporder,\n\t\tIexecODBLibOrders.DatasetOrder    memory _datasetorder,\n\t\tIexecODBLibOrders.WorkerpoolOrder memory _workerpoolorder,\n\t\tIexecODBLibOrders.RequestOrder    memory _requestorder)\n\tpublic returns (bytes32)\n\t{\n\t\tuint256 gasBefore = gasleft();\n\n\t\tbytes32 dealid = iexecclerk.matchOrders(\n\t\t\t_apporder,\n\t\t\t_datasetorder,\n\t\t\t_workerpoolorder,\n\t\t\t_requestorder);\n\n\t\taddress payer = _requestorder.requester;\n\t\tuint256 price = m_preferences[payer].reward + tx.gasprice.min(m_preferences[payer].maxgasprice) * (87000 + gasBefore - gasleft());\n\t\tm_balance[payer] = m_balance[payer].sub(price);\n\t\tmsg.sender.transfer(price);\n\n\t\treturn dealid;\n\t}\n\n\n}\n",
  "sourcePath": "/home/amxx/Work/iExec/code/PoCo-dev/contracts/Broker.sol",
  "compiler": {
    "name": "solc",
    "version": "0.5.0+commit.1d4f565a.Emscripten.clang"
  },
  "schemaVersion": "3.0.0-beta.2",
  "updatedAt": "2018-12-03T12:55:32.429Z",
  "devdoc": {
    "methods": {}
  },
  "userdoc": {
    "methods": {}
  }
}