{
  "contractName": "CategoryManager",
  "abi": [
    {
      "constant": true,
      "inputs": [],
      "name": "m_owner",
      "outputs": [
        {
          "name": "",
          "type": "address"
        }
      ],
      "payable": false,
      "stateMutability": "view",
      "type": "function"
    },
    {
      "constant": false,
      "inputs": [
        {
          "name": "_newOwner",
          "type": "address"
        }
      ],
      "name": "transferOwnership",
      "outputs": [],
      "payable": false,
      "stateMutability": "nonpayable",
      "type": "function"
    },
    {
      "inputs": [],
      "payable": false,
      "stateMutability": "nonpayable",
      "type": "constructor"
    },
    {
      "anonymous": false,
      "inputs": [
        {
          "indexed": false,
          "name": "catid",
          "type": "uint256"
        },
        {
          "indexed": false,
          "name": "name",
          "type": "string"
        },
        {
          "indexed": false,
          "name": "description",
          "type": "string"
        },
        {
          "indexed": false,
          "name": "workClockTimeRef",
          "type": "uint256"
        }
      ],
      "name": "CreateCategory",
      "type": "event"
    },
    {
      "anonymous": false,
      "inputs": [
        {
          "indexed": false,
          "name": "previousOwner",
          "type": "address"
        },
        {
          "indexed": false,
          "name": "newOwner",
          "type": "address"
        }
      ],
      "name": "OwnershipTransferred",
      "type": "event"
    },
    {
      "constant": true,
      "inputs": [
        {
          "name": "_catid",
          "type": "uint256"
        }
      ],
      "name": "viewCategory",
      "outputs": [
        {
          "components": [
            {
              "name": "name",
              "type": "string"
            },
            {
              "name": "description",
              "type": "string"
            },
            {
              "name": "workClockTimeRef",
              "type": "uint256"
            }
          ],
          "name": "category",
          "type": "tuple"
        }
      ],
      "payable": false,
      "stateMutability": "view",
      "type": "function"
    },
    {
      "constant": true,
      "inputs": [],
      "name": "countCategory",
      "outputs": [
        {
          "name": "count",
          "type": "uint256"
        }
      ],
      "payable": false,
      "stateMutability": "view",
      "type": "function"
    },
    {
      "constant": false,
      "inputs": [
        {
          "name": "name",
          "type": "string"
        },
        {
          "name": "description",
          "type": "string"
        },
        {
          "name": "workClockTimeRef",
          "type": "uint256"
        }
      ],
      "name": "createCategory",
      "outputs": [
        {
          "name": "",
          "type": "uint256"
        }
      ],
      "payable": false,
      "stateMutability": "nonpayable",
      "type": "function"
    }
  ],
  "bytecode": "0x608060405234801561001057600080fd5b5060008054600160a060020a0319163317905561087b806100326000396000f3fe60806040526004361061006c5763ffffffff7c0100000000000000000000000000000000000000000000000000000000600035041663298503d981146100715780634f5f44ec146100a7578063c140996f146100d4578063deff41c1146100e9578063f2fde38b1461010b575b600080fd5b34801561007d57600080fd5b5061009161008c3660046105df565b61012d565b60405161009e9190610788565b60405180910390f35b3480156100b357600080fd5b506100c76100c2366004610665565b61026a565b60405161009e9190610777565b3480156100e057600080fd5b506100916103df565b3480156100f557600080fd5b506100fe6103e6565b60405161009e9190610748565b34801561011757600080fd5b5061012b6101263660046105b9565b6103f5565b005b60008054600160a060020a0316331461014557600080fd5b6040805160806020601f89018190040282018101909252606081018781526000926001929182918b908b9081908501838280828437600092019190915250505090825250604080516020601f8a01819004810282018101909252888152918101919089908990819084018382808284376000920182905250938552505050602091820187905283546001810180865594825290829020835180516003909302909101926101f792849290910190610497565b5060208281015180516102109260018501920190610497565b5060408201518160020155505090507f62bf08360c9d561749c54eaf4f8bf8cb6c8b6f4f40607bcec39a8172e714d25c81888888888860405161025896959493929190610796565b60405180910390a19695505050505050565b610272610515565b600180548390811061028057fe5b600091825260209182902060408051600393909302909101805460026001821615610100026000190190911604601f81018590049094028301608090810190925260608301848152929390928492909184918401828280156103235780601f106102f857610100808354040283529160200191610323565b820191906000526020600020905b81548152906001019060200180831161030657829003601f168201915b50505050508152602001600182018054600181600116156101000203166002900480601f0160208091040260200160405190810160405280929190818152602001828054600181600116156101000203166002900480156103c55780601f1061039a576101008083540402835291602001916103c5565b820191906000526020600020905b8154815290600101906020018083116103a857829003601f168201915b505050505081526020016002820154815250509050919050565b6001545b90565b600054600160a060020a031681565b600054600160a060020a0316331461040c57600080fd5b600160a060020a038116151561042157600080fd5b6000546040517f8be0079c531659141344cd1fd0a4f28419497f9722a3daafe3b4186f6b6457e09161046091600160a060020a0390911690849061075c565b60405180910390a16000805473ffffffffffffffffffffffffffffffffffffffff1916600160a060020a0392909216919091179055565b828054600181600116156101000203166002900490600052602060002090601f016020900481019282601f106104d857805160ff1916838001178555610505565b82800160010185558215610505579182015b828111156105055782518255916020019190600101906104ea565b50610511929150610537565b5090565b6060604051908101604052806060815260200160608152602001600081525090565b6103e391905b80821115610511576000815560010161053d565b600061055d82356107ea565b9392505050565b600080601f8301841361057657600080fd5b50813567ffffffffffffffff81111561058e57600080fd5b6020830191508360018202830111156105a657600080fd5b9250929050565b600061055d82356103e3565b6000602082840312156105cb57600080fd5b60006105d78484610551565b949350505050565b6000806000806000606086880312156105f757600080fd5b853567ffffffffffffffff81111561060e57600080fd5b61061a88828901610564565b9550955050602086013567ffffffffffffffff81111561063957600080fd5b61064588828901610564565b93509350506040610658888289016105ad565b9150509295509295909350565b60006020828403121561067757600080fd5b60006105d784846105ad565b61068c816107ea565b82525050565b60008284526020840193506106a88385846107fb565b6106b183610837565b9093019392505050565b60006106c6826107e6565b8084526106da816020860160208601610807565b6106e381610837565b9093016020019392505050565b805160608084526000919084019061070882826106bb565b9150506020830151848203602086015261072282826106bb565b9150506040830151610737604086018261073f565b509392505050565b61068c816103e3565b602081016107568284610683565b92915050565b6040810161076a8285610683565b61055d6020830184610683565b6020808252810161055d81846106f0565b60208101610756828461073f565b608081016107a4828961073f565b81810360208301526107b7818789610692565b905081810360408301526107cc818587610692565b90506107db606083018461073f565b979650505050505050565b5190565b6000600160a060020a038216610756565b82818337506000910152565b60005b8381101561082257818101518382015260200161080a565b83811115610831576000848401525b50505050565b601f01601f19169056fea265627a7a72305820d75b6bb3798361a1e7b16065d203d7ea6892d3219482e826a54afd843562b3386c6578706572696d656e74616cf50037",
  "source": "pragma solidity ^0.5.0;\npragma experimental ABIEncoderV2;\n\nimport \"./libs/IexecODBLibCore.sol\";\nimport \"./tools/Ownable.sol\";\n\ncontract CategoryManager is OwnableMutable\n{\n\t/**\n\t * Content\n\t */\n\tIexecODBLibCore.Category[] m_categories;\n\n\t/**\n\t * Event\n\t */\n\tevent CreateCategory(\n\t\tuint256 catid,\n\t\tstring  name,\n\t\tstring  description,\n\t\tuint256 workClockTimeRef);\n\n\t/**\n\t * Constructor\n\t */\n\tconstructor()\n\tpublic\n\t{\n\t}\n\n\t/**\n\t * Accessors\n\t */\n\tfunction viewCategory(uint256 _catid)\n\tpublic view returns (IexecODBLibCore.Category memory category)\n\t{\n\t\treturn m_categories[_catid];\n\t}\n\n\tfunction countCategory()\n\tpublic view returns (uint256 count)\n\t{\n\t\treturn m_categories.length;\n\t}\n\n\t/**\n\t * Methods\n\t */\n\tfunction createCategory(\n\t\tstring  calldata name,\n\t\tstring  calldata description,\n\t\tuint256          workClockTimeRef)\n\texternal onlyOwner returns (uint256)\n\t{\n\t\tuint256 catid = m_categories.push(IexecODBLibCore.Category(\n\t\t\tname,\n\t\t\tdescription,\n\t\t\tworkClockTimeRef\n\t\t));\n\t\temit CreateCategory(\n\t\t\tcatid,\n\t\t\tname,\n\t\t\tdescription,\n\t\t\tworkClockTimeRef\n\t\t);\n\t\treturn catid;\n\t}\n\t/**\n\t * TODO: move to struct based initialization ?\n\t *\n\tfunction createCategory(IexecODBLib.Category _category)\n\tpublic onlyOwner returns (uint256)\n\t{\n\t\tuint256 catid = m_categories.push(_category);\n\t\temit CreateCategory(\n\t\t\tcatid,\n\t\t\t_category.name,\n\t\t\t_category.description,\n\t\t\t_category.workClockTimeRef\n\t\t);\n\t\treturn catid;\n\t}\n\t*/\n\n}\n",
  "sourcePath": "/home/amxx/Work/iExec/code/PoCo-dev/contracts/CategoryManager.sol",
  "compiler": {
    "name": "solc",
    "version": "0.5.0+commit.1d4f565a.Emscripten.clang"
  },
  "schemaVersion": "3.0.0-beta.2",
  "updatedAt": "2018-12-03T12:54:15.735Z",
  "devdoc": {
    "methods": {
      "transferOwnership(address)": {
        "details": "Allows the current owner to transfer control of the contract to a newOwner.",
        "params": {
          "_newOwner": "The address to transfer ownership to."
        }
      }
    }
  },
  "userdoc": {
    "methods": {
      "constructor": "Constructor",
      "createCategory(string,string,uint256)": {
        "notice": "Methods"
      },
      "viewCategory(uint256)": {
        "notice": "Accessors"
      }
    }
  }
}