{
  "contractName": "Escrow",
  "abi": [
    {
      "constant": true,
      "inputs": [],
      "name": "token",
      "outputs": [
        {
          "name": "",
          "type": "address"
        }
      ],
      "payable": false,
      "stateMutability": "view",
      "type": "function"
    },
    {
      "inputs": [
        {
          "name": "_token",
          "type": "address"
        }
      ],
      "payable": false,
      "stateMutability": "nonpayable",
      "type": "constructor"
    },
    {
      "anonymous": false,
      "inputs": [
        {
          "indexed": false,
          "name": "owner",
          "type": "address"
        },
        {
          "indexed": false,
          "name": "amount",
          "type": "uint256"
        }
      ],
      "name": "Deposit",
      "type": "event"
    },
    {
      "anonymous": false,
      "inputs": [
        {
          "indexed": false,
          "name": "owner",
          "type": "address"
        },
        {
          "indexed": false,
          "name": "amount",
          "type": "uint256"
        },
        {
          "indexed": false,
          "name": "target",
          "type": "address"
        }
      ],
      "name": "DepositFor",
      "type": "event"
    },
    {
      "anonymous": false,
      "inputs": [
        {
          "indexed": false,
          "name": "owner",
          "type": "address"
        },
        {
          "indexed": false,
          "name": "amount",
          "type": "uint256"
        }
      ],
      "name": "Withdraw",
      "type": "event"
    },
    {
      "anonymous": false,
      "inputs": [
        {
          "indexed": false,
          "name": "user",
          "type": "address"
        },
        {
          "indexed": false,
          "name": "amount",
          "type": "uint256"
        }
      ],
      "name": "Reward",
      "type": "event"
    },
    {
      "anonymous": false,
      "inputs": [
        {
          "indexed": false,
          "name": "user",
          "type": "address"
        },
        {
          "indexed": false,
          "name": "amount",
          "type": "uint256"
        }
      ],
      "name": "Seize",
      "type": "event"
    },
    {
      "constant": true,
      "inputs": [
        {
          "name": "_user",
          "type": "address"
        }
      ],
      "name": "viewAccount",
      "outputs": [
        {
          "components": [
            {
              "name": "stake",
              "type": "uint256"
            },
            {
              "name": "locked",
              "type": "uint256"
            }
          ],
          "name": "account",
          "type": "tuple"
        }
      ],
      "payable": false,
      "stateMutability": "view",
      "type": "function"
    },
    {
      "constant": false,
      "inputs": [
        {
          "name": "_amount",
          "type": "uint256"
        }
      ],
      "name": "deposit",
      "outputs": [
        {
          "name": "",
          "type": "bool"
        }
      ],
      "payable": false,
      "stateMutability": "nonpayable",
      "type": "function"
    },
    {
      "constant": false,
      "inputs": [
        {
          "name": "_amount",
          "type": "uint256"
        },
        {
          "name": "_target",
          "type": "address"
        }
      ],
      "name": "depositFor",
      "outputs": [
        {
          "name": "",
          "type": "bool"
        }
      ],
      "payable": false,
      "stateMutability": "nonpayable",
      "type": "function"
    },
    {
      "constant": false,
      "inputs": [
        {
          "name": "_amount",
          "type": "uint256"
        }
      ],
      "name": "withdraw",
      "outputs": [
        {
          "name": "",
          "type": "bool"
        }
      ],
      "payable": false,
      "stateMutability": "nonpayable",
      "type": "function"
    }
  ],
  "bytecode": "0x608060405234801561001057600080fd5b50604051602080610808833981018060405261002f9190810190610067565b60008054600160a060020a031916600160a060020a03929092169190911790556100aa565b60006100608251610099565b9392505050565b60006020828403121561007957600080fd5b60006100858484610054565b949350505050565b600160a060020a031690565b60006100a48261008d565b92915050565b61074f806100b96000396000f3fe60806040526004361061006c5763ffffffff7c01000000000000000000000000000000000000000000000000000000006000350416632e1a7d4d811461007157806336efd16f146100a75780636b55f4a5146100c7578063b6b55f25146100f4578063fc0c546a14610114575b600080fd5b34801561007d57600080fd5b5061009161008c36600461059a565b610136565b60405161009e91906106ba565b60405180910390f35b3480156100b357600080fd5b506100916100c23660046105b8565b61024e565b3480156100d357600080fd5b506100e76100e2366004610556565b61039a565b60405161009e91906106d6565b34801561010057600080fd5b5061009161010f36600461059a565b6103d5565b34801561012057600080fd5b506101296104e4565b60405161009e91906106c8565b33600090815260016020526040812054610156908363ffffffff6104f316565b33600081815260016020526040808220939093555491517fa9059cbb000000000000000000000000000000000000000000000000000000008152600160a060020a039092169163a9059cbb916101b0918690600401610677565b602060405180830381600087803b1580156101ca57600080fd5b505af11580156101de573d6000803e3d6000fd5b505050506040513d601f19601f82011682018060405250610202919081019061057c565b151561020d57600080fd5b7f884edad9ce6fa2440d8a54cc123490eb96d2768479d49ff9c7366125a9424364338360405161023e929190610677565b60405180910390a1506001919050565b6000600160a060020a038216151561026557600080fd5b6000546040517f23b872dd000000000000000000000000000000000000000000000000000000008152600160a060020a03909116906323b872dd906102b29033903090889060040161064f565b602060405180830381600087803b1580156102cc57600080fd5b505af11580156102e0573d6000803e3d6000fd5b505050506040513d601f19601f82011682018060405250610304919081019061057c565b151561030f57600080fd5b600160a060020a038216600090815260016020526040902054610338908463ffffffff61050516565b600160a060020a0383166000908152600160205260409081902091909155517fcce62bfcdb09eddbe4e5ff5ec3bafdbabc25a52e1cf34f014a0a7a0864f9634c9061038890339086908690610692565b60405180910390a15060015b92915050565b6103a261051b565b50600160a060020a0316600090815260016020818152604092839020835180850190945280548452909101549082015290565b600080546040517f23b872dd000000000000000000000000000000000000000000000000000000008152600160a060020a03909116906323b872dd906104239033903090879060040161064f565b602060405180830381600087803b15801561043d57600080fd5b505af1158015610451573d6000803e3d6000fd5b505050506040513d601f19601f82011682018060405250610475919081019061057c565b151561048057600080fd5b336000908152600160205260409020546104a0908363ffffffff61050516565b33600081815260016020526040908190209290925590517fe1fffcc4923d04b559f4d29a8bfc6cda04eb5b0d3c460751c2402c5c5cc9109c9161023e918590610677565b600054600160a060020a031681565b6000828211156104ff57fe5b50900390565b60008282018381101561051457fe5b9392505050565b604080518082019091526000808252602082015290565b600061051482356106e4565b600061051482516106ef565b60006105148235610700565b60006020828403121561056857600080fd5b60006105748484610532565b949350505050565b60006020828403121561058e57600080fd5b6000610574848461053e565b6000602082840312156105ac57600080fd5b6000610574848461054a565b600080604083850312156105cb57600080fd5b60006105d7858561054a565b92505060206105e885828601610532565b9150509250929050565b6105fb81610703565b82525050565b6105fb816106e4565b6105fb816106ef565b6105fb8161070a565b8051604083019061062d8482610646565b5060208201516106406020850182610646565b50505050565b6105fb81610700565b6060810161065d82866105f2565b61066a6020830185610601565b6105746040830184610646565b6040810161068582856105f2565b6105146020830184610646565b606081016106a082866105f2565b6106ad6020830185610646565b6105746040830184610601565b60208101610394828461060a565b602081016103948284610613565b60408101610394828461061c565b6000610394826106f4565b151590565b600160a060020a031690565b90565b6000610394825b6000610394826106e456fea265627a7a72305820f7aa7807a39a83899d3e1c36ba9880bf692fd2b936020c2894dac7f5544e8cc06c6578706572696d656e74616cf50037",
  "source": "pragma solidity ^0.5.0;\npragma experimental ABIEncoderV2;\n\n// required for deployment\nimport \"../node_modules/rlc-faucet-contract/contracts/RLC.sol\";\n\nimport \"./interfaces/ERC20.sol\";\nimport \"./libs/IexecODBLibCore.sol\";\nimport \"./libs/SafeMathOZ.sol\";\n\ncontract Escrow\n{\n\tusing SafeMathOZ for uint256;\n\n\t/**\n\t* token contract for transfers.\n\t*/\n\tIERC20 public token;\n\n\t/**\n\t * Escrow content\n\t */\n\tmapping(address => IexecODBLibCore.Account) m_accounts;\n\n\t/**\n\t * Events\n\t */\n\tevent Deposit   (address owner, uint256 amount);\n\tevent DepositFor(address owner, uint256 amount, address target);\n\tevent Withdraw  (address owner, uint256 amount);\n\tevent Reward    (address user,  uint256 amount);\n\tevent Seize     (address user,  uint256 amount);\n\n\t/**\n\t * Constructor\n\t */\n\tconstructor(address _token)\n\tpublic\n\t{\n\t\ttoken = IERC20(_token);\n\t}\n\n\t/**\n\t * Accessor\n\t */\n\tfunction viewAccount(address _user)\n\tpublic view returns (IexecODBLibCore.Account memory account)\n\t{\n\t\treturn m_accounts[_user];\n\t}\n\n\t/**\n\t * Wallet methods: public\n\t */\n\tfunction deposit(uint256 _amount) external returns (bool)\n\t{\n\t\trequire(token.transferFrom(msg.sender, address(this), _amount));\n\t\tm_accounts[msg.sender].stake = m_accounts[msg.sender].stake.add(_amount);\n\t\temit Deposit(msg.sender, _amount);\n\t\treturn true;\n\t}\n\tfunction depositFor(uint256 _amount, address _target) external returns (bool)\n\t{\n\t\trequire(_target != address(0));\n\n\t\trequire(token.transferFrom(msg.sender, address(this), _amount));\n\t\tm_accounts[_target].stake = m_accounts[_target].stake.add(_amount);\n\t\temit DepositFor(msg.sender, _amount, _target);\n\t\treturn true;\n\t}\n\tfunction withdraw(uint256 _amount) external returns (bool)\n\t{\n\t\tm_accounts[msg.sender].stake = m_accounts[msg.sender].stake.sub(_amount);\n\t\trequire(token.transfer(msg.sender, _amount));\n\t\temit Withdraw(msg.sender, _amount);\n\t\treturn true;\n\t}\n\t/**\n\t * Wallet methods: Internal\n\t */\n\tfunction reward(address _user, uint256 _amount) internal /* returns (bool) */\n\t{\n\t\tm_accounts[_user].stake = m_accounts[_user].stake.add(_amount);\n\t\temit Reward(_user, _amount);\n\t\t/* return true; */\n\t}\n\tfunction seize(address _user, uint256 _amount) internal /* returns (bool) */\n\t{\n\t\tm_accounts[_user].locked = m_accounts[_user].locked.sub(_amount);\n\t\temit Seize(_user, _amount);\n\t\t/* return true; */\n\t}\n\tfunction lock(address _user, uint256 _amount) internal /* returns (bool) */\n\t{\n\t\tm_accounts[_user].stake  = m_accounts[_user].stake.sub(_amount);\n\t\tm_accounts[_user].locked = m_accounts[_user].locked.add(_amount);\n\t\t/* return true; */\n\t}\n\tfunction unlock(address _user, uint256 _amount) internal /* returns (bool) */\n\t{\n\t\tm_accounts[_user].locked = m_accounts[_user].locked.sub(_amount);\n\t\tm_accounts[_user].stake  = m_accounts[_user].stake.add(_amount);\n\t\t/* return true; */\n\t}\n}\n",
  "sourcePath": "/home/amxx/Work/iExec/code/PoCo-dev/contracts/Escrow.sol",
  "compiler": {
    "name": "solc",
    "version": "0.5.0+commit.1d4f565a.Emscripten.clang"
  },
  "schemaVersion": "3.0.0-beta.2",
  "updatedAt": "2018-12-03T12:54:15.735Z",
  "devdoc": {
    "methods": {}
  },
  "userdoc": {
    "methods": {
      "constructor": "Constructor",
      "deposit(uint256)": {
        "notice": "Wallet methods: public"
      },
      "viewAccount(address)": {
        "notice": "Accessor"
      }
    }
  }
}