{
  "contractName": "IexecHubAccessor",
  "abi": [
    {
      "constant": true,
      "inputs": [],
      "name": "iexechub",
      "outputs": [
        {
          "name": "",
          "type": "address"
        }
      ],
      "payable": false,
      "stateMutability": "view",
      "type": "function"
    },
    {
      "inputs": [
        {
          "name": "_iexechub",
          "type": "address"
        }
      ],
      "payable": false,
      "stateMutability": "nonpayable",
      "type": "constructor"
    }
  ],
  "bytecode": "0x608060405234801561001057600080fd5b506040516020806101d3833981018060405261002f919081019061007c565b600160a060020a038116151561004457600080fd5b60008054600160a060020a031916600160a060020a03929092169190911790556100bf565b600061007582516100ae565b9392505050565b60006020828403121561008e57600080fd5b600061009a8484610069565b949350505050565b600160a060020a031690565b60006100b9826100a2565b92915050565b610105806100ce6000396000f3fe608060405260043610603e5763ffffffff7c01000000000000000000000000000000000000000000000000000000006000350416638d52e41381146043575b600080fd5b348015604e57600080fd5b5060556069565b604051606091906092565b60405180910390f35b60005473ffffffffffffffffffffffffffffffffffffffff1681565b608c8160bd565b82525050565b60208101609e82846085565b92915050565b73ffffffffffffffffffffffffffffffffffffffff1690565b6000609e826000609e8260a456fea265627a7a72305820bc5a137389c6ffa09beaa1ab7b92f27ba509252dabe7c6ccf3ec5ffee71b7a556c6578706572696d656e74616cf50037",
  "source": "pragma solidity ^0.5.0;\npragma experimental ABIEncoderV2;\n\nimport \"./IexecHubInterface.sol\";\n\ncontract IexecHubAccessor\n{\n\tIexecHubInterface public iexechub;\n\n\tmodifier onlyIexecHub()\n\t{\n\t\trequire(msg.sender == address(iexechub));\n\t\t_;\n\t}\n\n\tconstructor(address _iexechub)\n\tpublic\n\t{\n\t\trequire(_iexechub != address(0));\n\t\tiexechub = IexecHubInterface(_iexechub);\n\t}\n\n}\n",
  "sourcePath": "/home/amxx/Work/iExec/code/PoCo-dev/contracts/IexecHubAccessor.sol",
  "compiler": {
    "name": "solc",
    "version": "0.5.0+commit.1d4f565a.Emscripten.clang"
  },
  "schemaVersion": "3.0.0-beta.2",
  "updatedAt": "2018-12-03T12:54:15.752Z",
  "devdoc": {
    "methods": {}
  },
  "userdoc": {
    "methods": {}
  }
}