{
  "contractName": "IexecHub",
  "abi": [
    {
      "constant": false,
      "inputs": [
        {
          "name": "name",
          "type": "string"
        },
        {
          "name": "description",
          "type": "string"
        },
        {
          "name": "workClockTimeRef",
          "type": "uint256"
        }
      ],
      "name": "createCategory",
      "outputs": [
        {
          "name": "",
          "type": "uint256"
        }
      ],
      "payable": false,
      "stateMutability": "nonpayable",
      "type": "function"
    },
    {
      "constant": true,
      "inputs": [],
      "name": "appregistry",
      "outputs": [
        {
          "name": "",
          "type": "address"
        }
      ],
      "payable": false,
      "stateMutability": "view",
      "type": "function"
    },
    {
      "constant": true,
      "inputs": [],
      "name": "CONSENSUS_DURATION_RATIO",
      "outputs": [
        {
          "name": "",
          "type": "uint256"
        }
      ],
      "payable": false,
      "stateMutability": "view",
      "type": "function"
    },
    {
      "constant": true,
      "inputs": [
        {
          "name": "_catid",
          "type": "uint256"
        }
      ],
      "name": "viewCategory",
      "outputs": [
        {
          "components": [
            {
              "name": "name",
              "type": "string"
            },
            {
              "name": "description",
              "type": "string"
            },
            {
              "name": "workClockTimeRef",
              "type": "uint256"
            }
          ],
          "name": "category",
          "type": "tuple"
        }
      ],
      "payable": false,
      "stateMutability": "view",
      "type": "function"
    },
    {
      "constant": true,
      "inputs": [],
      "name": "workerpoolregistry",
      "outputs": [
        {
          "name": "",
          "type": "address"
        }
      ],
      "payable": false,
      "stateMutability": "view",
      "type": "function"
    },
    {
      "constant": true,
      "inputs": [],
      "name": "iexecclerk",
      "outputs": [
        {
          "name": "",
          "type": "address"
        }
      ],
      "payable": false,
      "stateMutability": "view",
      "type": "function"
    },
    {
      "constant": true,
      "inputs": [],
      "name": "datasetregistry",
      "outputs": [
        {
          "name": "",
          "type": "address"
        }
      ],
      "payable": false,
      "stateMutability": "view",
      "type": "function"
    },
    {
      "constant": true,
      "inputs": [],
      "name": "countCategory",
      "outputs": [
        {
          "name": "count",
          "type": "uint256"
        }
      ],
      "payable": false,
      "stateMutability": "view",
      "type": "function"
    },
    {
      "constant": true,
      "inputs": [],
      "name": "m_owner",
      "outputs": [
        {
          "name": "",
          "type": "address"
        }
      ],
      "payable": false,
      "stateMutability": "view",
      "type": "function"
    },
    {
      "constant": true,
      "inputs": [],
      "name": "REVEAL_DURATION_RATIO",
      "outputs": [
        {
          "name": "",
          "type": "uint256"
        }
      ],
      "payable": false,
      "stateMutability": "view",
      "type": "function"
    },
    {
      "constant": false,
      "inputs": [
        {
          "name": "_newOwner",
          "type": "address"
        }
      ],
      "name": "transferOwnership",
      "outputs": [],
      "payable": false,
      "stateMutability": "nonpayable",
      "type": "function"
    },
    {
      "inputs": [],
      "payable": false,
      "stateMutability": "nonpayable",
      "type": "constructor"
    },
    {
      "anonymous": false,
      "inputs": [
        {
          "indexed": true,
          "name": "taskid",
          "type": "bytes32"
        },
        {
          "indexed": true,
          "name": "workerpool",
          "type": "address"
        }
      ],
      "name": "TaskInitialize",
      "type": "event"
    },
    {
      "anonymous": false,
      "inputs": [
        {
          "indexed": true,
          "name": "taskid",
          "type": "bytes32"
        },
        {
          "indexed": true,
          "name": "worker",
          "type": "address"
        },
        {
          "indexed": false,
          "name": "hash",
          "type": "bytes32"
        }
      ],
      "name": "TaskContribute",
      "type": "event"
    },
    {
      "anonymous": false,
      "inputs": [
        {
          "indexed": true,
          "name": "taskid",
          "type": "bytes32"
        },
        {
          "indexed": false,
          "name": "consensus",
          "type": "bytes32"
        }
      ],
      "name": "TaskConsensus",
      "type": "event"
    },
    {
      "anonymous": false,
      "inputs": [
        {
          "indexed": true,
          "name": "taskid",
          "type": "bytes32"
        },
        {
          "indexed": true,
          "name": "worker",
          "type": "address"
        },
        {
          "indexed": false,
          "name": "digest",
          "type": "bytes32"
        }
      ],
      "name": "TaskReveal",
      "type": "event"
    },
    {
      "anonymous": false,
      "inputs": [
        {
          "indexed": true,
          "name": "taskid",
          "type": "bytes32"
        }
      ],
      "name": "TaskReopen",
      "type": "event"
    },
    {
      "anonymous": false,
      "inputs": [
        {
          "indexed": true,
          "name": "taskid",
          "type": "bytes32"
        },
        {
          "indexed": false,
          "name": "results",
          "type": "bytes"
        }
      ],
      "name": "TaskFinalize",
      "type": "event"
    },
    {
      "anonymous": false,
      "inputs": [
        {
          "indexed": true,
          "name": "taskid",
          "type": "bytes32"
        }
      ],
      "name": "TaskClaimed",
      "type": "event"
    },
    {
      "anonymous": false,
      "inputs": [
        {
          "indexed": true,
          "name": "worker",
          "type": "address"
        },
        {
          "indexed": true,
          "name": "taskid",
          "type": "bytes32"
        }
      ],
      "name": "AccurateContribution",
      "type": "event"
    },
    {
      "anonymous": false,
      "inputs": [
        {
          "indexed": true,
          "name": "worker",
          "type": "address"
        },
        {
          "indexed": true,
          "name": "taskid",
          "type": "bytes32"
        }
      ],
      "name": "FaultyContribution",
      "type": "event"
    },
    {
      "anonymous": false,
      "inputs": [
        {
          "indexed": false,
          "name": "catid",
          "type": "uint256"
        },
        {
          "indexed": false,
          "name": "name",
          "type": "string"
        },
        {
          "indexed": false,
          "name": "description",
          "type": "string"
        },
        {
          "indexed": false,
          "name": "workClockTimeRef",
          "type": "uint256"
        }
      ],
      "name": "CreateCategory",
      "type": "event"
    },
    {
      "anonymous": false,
      "inputs": [
        {
          "indexed": false,
          "name": "previousOwner",
          "type": "address"
        },
        {
          "indexed": false,
          "name": "newOwner",
          "type": "address"
        }
      ],
      "name": "OwnershipTransferred",
      "type": "event"
    },
    {
      "constant": false,
      "inputs": [
        {
          "name": "_iexecclerkAddress",
          "type": "address"
        },
        {
          "name": "_appregistryAddress",
          "type": "address"
        },
        {
          "name": "_datasetregistryAddress",
          "type": "address"
        },
        {
          "name": "_workerpoolregistryAddress",
          "type": "address"
        }
      ],
      "name": "attachContracts",
      "outputs": [],
      "payable": false,
      "stateMutability": "nonpayable",
      "type": "function"
    },
    {
      "constant": true,
      "inputs": [
        {
          "name": "_taskid",
          "type": "bytes32"
        }
      ],
      "name": "viewTask",
      "outputs": [
        {
          "components": [
            {
              "name": "status",
              "type": "uint8"
            },
            {
              "name": "dealid",
              "type": "bytes32"
            },
            {
              "name": "idx",
              "type": "uint256"
            },
            {
              "name": "consensusDeadline",
              "type": "uint256"
            },
            {
              "name": "consensusValue",
              "type": "bytes32"
            },
            {
              "name": "revealDeadline",
              "type": "uint256"
            },
            {
              "name": "revealCounter",
              "type": "uint256"
            },
            {
              "name": "winnerCounter",
              "type": "uint256"
            },
            {
              "name": "contributors",
              "type": "address[]"
            },
            {
              "name": "results",
              "type": "bytes"
            }
          ],
          "name": "",
          "type": "tuple"
        }
      ],
      "payable": false,
      "stateMutability": "view",
      "type": "function"
    },
    {
      "constant": true,
      "inputs": [
        {
          "name": "_taskid",
          "type": "bytes32"
        },
        {
          "name": "_worker",
          "type": "address"
        }
      ],
      "name": "viewContribution",
      "outputs": [
        {
          "components": [
            {
              "name": "status",
              "type": "uint8"
            },
            {
              "name": "resultHash",
              "type": "bytes32"
            },
            {
              "name": "resultSeal",
              "type": "bytes32"
            },
            {
              "name": "enclaveChallenge",
              "type": "address"
            }
          ],
          "name": "",
          "type": "tuple"
        }
      ],
      "payable": false,
      "stateMutability": "view",
      "type": "function"
    },
    {
      "constant": true,
      "inputs": [
        {
          "name": "_worker",
          "type": "address"
        }
      ],
      "name": "viewScore",
      "outputs": [
        {
          "name": "",
          "type": "uint256"
        }
      ],
      "payable": false,
      "stateMutability": "view",
      "type": "function"
    },
    {
      "constant": true,
      "inputs": [
        {
          "name": "app",
          "type": "address"
        },
        {
          "name": "dataset",
          "type": "address"
        },
        {
          "name": "workerpool",
          "type": "address"
        }
      ],
      "name": "checkResources",
      "outputs": [
        {
          "name": "",
          "type": "bool"
        }
      ],
      "payable": false,
      "stateMutability": "view",
      "type": "function"
    },
    {
      "constant": true,
      "inputs": [
        {
          "name": "id",
          "type": "bytes32"
        }
      ],
      "name": "resultFor",
      "outputs": [
        {
          "name": "",
          "type": "bytes"
        }
      ],
      "payable": false,
      "stateMutability": "view",
      "type": "function"
    },
    {
      "constant": false,
      "inputs": [
        {
          "name": "_dealid",
          "type": "bytes32"
        },
        {
          "name": "idx",
          "type": "uint256"
        }
      ],
      "name": "initialize",
      "outputs": [
        {
          "name": "",
          "type": "bytes32"
        }
      ],
      "payable": false,
      "stateMutability": "nonpayable",
      "type": "function"
    },
    {
      "constant": false,
      "inputs": [
        {
          "name": "_taskid",
          "type": "bytes32"
        },
        {
          "name": "_resultHash",
          "type": "bytes32"
        },
        {
          "name": "_resultSeal",
          "type": "bytes32"
        },
        {
          "name": "_enclaveChallenge",
          "type": "address"
        },
        {
          "components": [
            {
              "name": "v",
              "type": "uint8"
            },
            {
              "name": "r",
              "type": "bytes32"
            },
            {
              "name": "s",
              "type": "bytes32"
            }
          ],
          "name": "_enclaveSign",
          "type": "tuple"
        },
        {
          "components": [
            {
              "name": "v",
              "type": "uint8"
            },
            {
              "name": "r",
              "type": "bytes32"
            },
            {
              "name": "s",
              "type": "bytes32"
            }
          ],
          "name": "_workerpoolSign",
          "type": "tuple"
        }
      ],
      "name": "contribute",
      "outputs": [],
      "payable": false,
      "stateMutability": "nonpayable",
      "type": "function"
    },
    {
      "constant": false,
      "inputs": [
        {
          "name": "_taskid",
          "type": "bytes32"
        },
        {
          "name": "_resultDigest",
          "type": "bytes32"
        }
      ],
      "name": "reveal",
      "outputs": [],
      "payable": false,
      "stateMutability": "nonpayable",
      "type": "function"
    },
    {
      "constant": false,
      "inputs": [
        {
          "name": "_taskid",
          "type": "bytes32"
        }
      ],
      "name": "reopen",
      "outputs": [],
      "payable": false,
      "stateMutability": "nonpayable",
      "type": "function"
    },
    {
      "constant": false,
      "inputs": [
        {
          "name": "_taskid",
          "type": "bytes32"
        },
        {
          "name": "_results",
          "type": "bytes"
        }
      ],
      "name": "finalize",
      "outputs": [],
      "payable": false,
      "stateMutability": "nonpayable",
      "type": "function"
    },
    {
      "constant": false,
      "inputs": [
        {
          "name": "_taskid",
          "type": "bytes32"
        }
      ],
      "name": "claim",
      "outputs": [],
      "payable": false,
      "stateMutability": "nonpayable",
      "type": "function"
    },
    {
      "constant": false,
      "inputs": [
        {
          "name": "_dealid",
          "type": "bytes32[]"
        },
        {
          "name": "_idx",
          "type": "uint256[]"
        }
      ],
      "name": "initializeArray",
      "outputs": [
        {
          "name": "",
          "type": "bool"
        }
      ],
      "payable": false,
      "stateMutability": "nonpayable",
      "type": "function"
    },
    {
      "constant": false,
      "inputs": [
        {
          "name": "_taskid",
          "type": "bytes32[]"
        }
      ],
      "name": "claimArray",
      "outputs": [
        {
          "name": "",
          "type": "bool"
        }
      ],
      "payable": false,
      "stateMutability": "nonpayable",
      "type": "function"
    }
  ],
  "bytecode": "0x608060405234801561001057600080fd5b5060008054600160a060020a03191633179055613996806100326000396000f3fe6080604052600436106101485763ffffffff7c0100000000000000000000000000000000000000000000000000000000600035041663097d630d811461014d57806325a5753414610183578063298503d9146101a557806345b637a9146101d257806345b99d28146101f45780634704511d146102095780634f5f44ec146102295780635b36c66b1461025657806390a0f54614610276578063adccf0d51461028b578063b01c6846146102b8578063b1b11d2c146102cd578063b504681d146102e2578063bd66528a14610302578063c037f13e14610322578063c140996f14610342578063d09cc57e14610357578063db230b5214610384578063deff41c1146103a4578063e741363b146103c6578063e9ebbaf8146103f3578063f2fde38b14610408578063f6c68e1014610428578063fa055d7e14610448578063fc334e8c14610468575b600080fd5b34801561015957600080fd5b5061016d6101683660046130ad565b610488565b60405161017a9190613705565b60405180910390f35b34801561018f57600080fd5b506101a361019e3660046132b3565b610690565b005b3480156101b157600080fd5b506101c56101c0366004613391565b610c2f565b60405161017a9190613713565b3480156101de57600080fd5b506101e7610d6c565b60405161017a91906137d1565b34801561020057600080fd5b506101c5610d7b565b34801561021557600080fd5b506101a36102243660046130fa565b610d80565b34801561023557600080fd5b5061024961024436600461322b565b610e0a565b60405161017a91906137df565b34801561026257600080fd5b506101c5610271366004613283565b610f7f565b34801561028257600080fd5b506101e76111e6565b34801561029757600080fd5b506102ab6102a636600461322b565b6111f5565b60405161017a91906137fe565b3480156102c457600080fd5b506101e761137b565b3480156102d957600080fd5b506101e761138a565b3480156102ee57600080fd5b5061016d6102fd36600461319d565b611399565b34801561030e57600080fd5b506101a361031d36600461322b565b6113f9565b34801561032e57600080fd5b506101a361033d36600461333b565b6115cb565b34801561034e57600080fd5b506101c5611993565b34801561036357600080fd5b5061037761037236600461322b565b61199a565b60405161017a91906137c0565b34801561039057600080fd5b506101c561039f36600461308f565b611a5c565b3480156103b057600080fd5b506103b9611a77565b60405161017a91906136dc565b3480156103d257600080fd5b506103e66103e1366004613249565b611a86565b60405161017a91906137f0565b3480156103ff57600080fd5b506101c5611b0a565b34801561041457600080fd5b506101a361042336600461308f565b611b0f565b34801561043457600080fd5b506101a361044336600461322b565b611bb1565b34801561045457600080fd5b5061016d61046336600461315b565b611e0a565b34801561047457600080fd5b506101a3610483366004613283565b611e39565b6003546040517fc3c5a547000000000000000000000000000000000000000000000000000000008152600091600160a060020a03169063c3c5a547906104d29087906004016136dc565b60206040518083038186803b1580156104ea57600080fd5b505afa1580156104fe573d6000803e3d6000fd5b505050506040513d601f19601f82011682018060405250610522919081019061320d565b151561052d57600080fd5b600160a060020a03831615806105d65750600480546040517fc3c5a547000000000000000000000000000000000000000000000000000000008152600160a060020a039091169163c3c5a54791610586918791016136dc565b60206040518083038186803b15801561059e57600080fd5b505afa1580156105b2573d6000803e3d6000fd5b505050506040513d601f19601f820116820180604052506105d6919081019061320d565b15156105e157600080fd5b6005546040517fc3c5a547000000000000000000000000000000000000000000000000000000008152600160a060020a039091169063c3c5a5479061062a9085906004016136dc565b60206040518083038186803b15801561064257600080fd5b505afa158015610656573d6000803e3d6000fd5b505050506040513d601f19601f8201168201806040525061067a919081019061320d565b151561068557600080fd5b5060015b9392505050565b6000868152600660209081526040808320600783528184203385529092529091206106b9612ab7565b600254600184015460405160e160020a635ba430d9028152600160a060020a039092169163b74861b2916106ef91600401613713565b60006040518083038186803b15801561070757600080fd5b505afa15801561071b573d6000803e3d6000fd5b505050506040513d6000823e601f3d908101601f191682016040526107439190810190613435565b90506001835460ff16600481111561075757fe5b1461076157600080fd5b6003830154421061077157600080fd5b6000825460ff16600381111561078357fe5b1461078d57600080fd5b604080516c01000000000000000000000000338102602080840191909152603483018d9052600160a060020a038a169091026054830152825160488184030181526068830184528051908201207f19457468657265756d205369676e6564204d6573736167653a0a333200000000608884015260a4808401919091528351808403909101815260c483018085528151918301919091208851898401518a870151600090945260e486018088529290925260ff166101048501526101248401526101448301529151600192610164808401939192601f1981019281900390910190855afa158015610881573d6000803e3d6000fd5b50505060206040510351600160a060020a0316816040015160200151600160a060020a03161415156108b257600080fd5b600160a060020a0386161515806108ce57506080810151600116155b15156108d957600080fd5b600160a060020a038616156109de576040805160208082018b90528183018a90528251808303840181526060830184528051908201207f19457468657265756d205369676e6564204d6573736167653a0a3332000000006080840152609c808401919091528351808403909101815260bc830180855281519183019190912089518a8401518b870151600090945260dc86018088529290925260ff1660fc85015261011c84015261013c830152915160019261015c808401939192601f1981019281900390910190855afa1580156109b5573d6000803e3d6000fd5b50505060206040510351600160a060020a031686600160a060020a03161415156109de57600080fd5b815460ff191660019081178355808301899055600280840189905560038401805473ffffffffffffffffffffffffffffffffffffffff19908116600160a060020a038b811691909117909255600887018054808601825560009182526020909120018054339216821790559154928601546040517fe798491a000000000000000000000000000000000000000000000000000000008152939091169263e798491a92610a8d929160040161372f565b600060405180830381600087803b158015610aa757600080fd5b505af1158015610abb573d6000803e3d6000fd5b5050505033600160a060020a0316897f3fdb8d7797562d49a81078dbf7fa1771958ea452f8b13d1148383bd9506aecfb8a604051610af99190613713565b60405180910390a333600090815260086020526040812054610b4790600190610b3b90600390610b2f908263ffffffff611fb116565b9063ffffffff611fc816565b9063ffffffff611fdf16565b60008b8152600a602090815260408083208d8452909152812054919250610b8982610b3b85610b7d83600163ffffffff611fc816565b9063ffffffff611ff116565b9050610b9483612019565b60008d81526009602090815260408083203384528252808320939093558e8252600a81528282208e835290522054610bd2908263ffffffff61221c16565b60008d8152600a602090815260408083208f84528252808320939093558e8252600b90522054610c08908263ffffffff61221c16565b60008d8152600b6020526040902055610c218c8c61222b565b505050505050505050505050565b60008054600160a060020a03163314610c4757600080fd5b6040805160806020601f89018190040282018101909252606081018781526000926001929182918b908b9081908501838280828437600092019190915250505090825250604080516020601f8a0181900481028201810190925288815291810191908990899081908401838280828437600092018290525093855250505060209182018790528354600181018086559482529082902083518051600390930290910192610cf992849290910190612b31565b506020828101518051610d129260018501920190612b31565b5060408201518160020155505090507f62bf08360c9d561749c54eaf4f8bf8cb6c8b6f4f40607bcec39a8172e714d25c818888888888604051610d5a9695949392919061380f565b60405180910390a19695505050505050565b600354600160a060020a031681565b600a81565b600054600160a060020a03163314610d9757600080fd5b600254600160a060020a031615610dad57600080fd5b60028054600160a060020a0395861673ffffffffffffffffffffffffffffffffffffffff19918216179091556003805494861694821694909417909355600480549285169284169290921790915560058054919093169116179055565b610e12612baf565b6001805483908110610e2057fe5b600091825260209182902060408051600393909302909101805460026001821615610100026000190190911604601f8101859004909402830160809081019092526060830184815292939092849290918491840182828015610ec35780601f10610e9857610100808354040283529160200191610ec3565b820191906000526020600020905b815481529060010190602001808311610ea657829003601f168201915b50505050508152602001600182018054600181600116156101000203166002900480601f016020809104026020016040519081016040528092919081815260200182805460018160011615610100020316600290048015610f655780601f10610f3a57610100808354040283529160200191610f65565b820191906000526020600020905b815481529060010190602001808311610f4857829003601f168201915b505050505081526020016002820154815250509050919050565b6000610f89612bd1565b6002546040517fc8d96729000000000000000000000000000000000000000000000000000000008152600160a060020a039091169063c8d9672990610fd2908790600401613713565b60c06040518083038186803b158015610fea57600080fd5b505afa158015610ffe573d6000803e3d6000fd5b505050506040513d601f19601f820116820180604052506110229190810190613417565b604081015190915083101561103657600080fd5b6060810151604082015161104f9163ffffffff61221c16565b831061105a57600080fd5b604080516020808201879052818301869052825180830384018152606090920183528151918101919091206000818152600690925291812090815460ff1660048111156110a357fe5b146110ad57600080fd5b805460ff191660019081178255810186905560028101859055602083015183516110fe91906110f290600a906110e290610e0a565b604001519063ffffffff611ff116565b9063ffffffff61221c16565b60038201556000828152600b60205260409081902060019055600254905160e160020a635ba430d9028152600160a060020a039091169063b74861b290611149908990600401613713565b60006040518083038186803b15801561116157600080fd5b505afa158015611175573d6000803e3d6000fd5b505050506040513d6000823e601f3d908101601f1916820160405261119d9190810190613435565b6040015160000151600160a060020a0316827f252992fb0468d68d6a5784ec03214f0d0a362083f2d7ebd157af43b017a22e0660405160405180910390a3509150505b92915050565b600554600160a060020a031681565b6111fd612c08565b60008281526006602052604090819020815161014081019092528054829060ff16600481111561122957fe5b600481111561123457fe5b815260200160018201548152602001600282015481526020016003820154815260200160048201548152602001600582015481526020016006820154815260200160078201548152602001600882018054806020026020016040519081016040528092919081815260200182805480156112d757602002820191906000526020600020905b8154600160a060020a031681526001909101906020018083116112b9575b505050918352505060098201805460408051602060026001851615610100026000190190941693909304601f810184900484028201840190925281815293820193929183018282801561136b5780601f106113405761010080835404028352916020019161136b565b820191906000526020600020905b81548152906001019060200180831161134e57829003601f168201915b5050505050815250509050919050565b600254600160a060020a031681565b600454600160a060020a031681565b60008382146113a757600080fd5b60005b848110156113eb576113e28686838181106113c157fe5b9050602002013585858481811015156113d657fe5b90506020020135610f7f565b506001016113aa565b50600190505b949350505050565b60008181526006602052604090206001815460ff16600481111561141957fe5b148061143457506002815460ff16600481111561143257fe5b145b151561143f57600080fd5b600381015442101561145057600080fd5b805460ff19166004908117825560025460018301546040517f5d0c812f000000000000000000000000000000000000000000000000000000008152600160a060020a0390921692635d0c812f926114a8929101613713565b600060405180830381600087803b1580156114c257600080fd5b505af11580156114d6573d6000803e3d6000fd5b506000925050505b600882015481101561159b57600082600801828154811015156114fd57fe5b60009182526020909120015460025460018501546040517f6eb528b5000000000000000000000000000000000000000000000000000000008152600160a060020a0393841694509290911691636eb528b59161155d918590600401613721565b600060405180830381600087803b15801561157757600080fd5b505af115801561158b573d6000803e3d6000fd5b50505050508060010190506114de565b5060405182907fcbc308b5f91040d2659a5201858344b0b583cd2f9e18e8470c2fa052c5b21ff890600090a25050565b6002546000848152600660205260409081902060010154905160e160020a635ba430d90281528592600160a060020a03169163b74861b2916116109190600401613713565b60006040518083038186803b15801561162857600080fd5b505afa15801561163c573d6000803e3d6000fd5b505050506040513d6000823e601f3d908101601f191682016040526116649190810190613435565b6040015160200151600160a060020a0316331461168057600080fd5b60008481526006602052604090206002815460ff1660048111156116a057fe5b146116aa57600080fd5b600381015442106116ba57600080fd5b8060070154816006015414806116e35750600081600601541180156116e3575042816005015411155b15156116ee57600080fd5b805460ff19166003178155611707600982018585612c62565b5060025460018201546040517f88044a7d000000000000000000000000000000000000000000000000000000008152600160a060020a03909216916388044a7d9161175491600401613713565b600060405180830381600087803b15801561176e57600080fd5b505af1158015611782573d6000803e3d6000fd5b5050505061178f85612506565b847f78ce8a8bc0fcb704e8ba3b3dbb36aa88002df8038128b4af2f27ef65db66504485856040516117c19291906137ae565b60405180910390a2600254600182015460405160e160020a635ba430d9028152600092600160a060020a03169163b74861b2916118019190600401613713565b60006040518083038186803b15801561181957600080fd5b505afa15801561182d573d6000803e3d6000fd5b505050506040513d6000823e601f3d908101601f191682016040526118559190810190613435565b60e001519050600160a060020a0381161561198b57620186a05a1161187957600080fd5b80600160a060020a0316620186a087878760405160240161189c93929190613772565b60408051601f198184030181529181526020820180517bffffffffffffffffffffffffffffffffffffffffffffffffffffffff167f5dd808550000000000000000000000000000000000000000000000000000000017815290518251909182918083835b6020831061191f5780518252601f199092019160209182019101611900565b6001836020036101000a03801982511681845116808217855250505050505090500191505060006040518083038160008787f1925050503d8060008114611982576040519150601f19603f3d011682016040523d82523d6000602084013e611987565b606091505b5050505b505050505050565b6001545b90565b60008181526006602052604090206060906003815460ff1660048111156119bd57fe5b146119c757600080fd5b60098101805460408051602060026001851615610100026000190190941693909304601f81018490048402820184019092528181529291830182828015611a4f5780601f10611a2457610100808354040283529160200191611a4f565b820191906000526020600020905b815481529060010190602001808311611a3257829003601f168201915b5050505050915050919050565b600160a060020a031660009081526008602052604090205490565b600054600160a060020a031681565b611a8e612cd0565b6000838152600760209081526040808320600160a060020a0386168452909152908190208151608081019092528054829060ff166003811115611acd57fe5b6003811115611ad857fe5b81526001820154602082015260028201546040820152600390910154600160a060020a03166060909101529392505050565b600281565b600054600160a060020a03163314611b2657600080fd5b600160a060020a0381161515611b3b57600080fd5b6000546040517f8be0079c531659141344cd1fd0a4f28419497f9722a3daafe3b4186f6b6457e091611b7a91600160a060020a039091169084906136ea565b60405180910390a16000805473ffffffffffffffffffffffffffffffffffffffff1916600160a060020a0392909216919091179055565b6002546000828152600660205260409081902060010154905160e160020a635ba430d90281528392600160a060020a03169163b74861b291611bf69190600401613713565b60006040518083038186803b158015611c0e57600080fd5b505afa158015611c22573d6000803e3d6000fd5b505050506040513d6000823e601f3d908101601f19168201604052611c4a9190810190613435565b6040015160200151600160a060020a03163314611c6657600080fd5b60008281526006602052604090206002815460ff166004811115611c8657fe5b14611c9057600080fd5b60038101544210611ca057600080fd5b42816005015411158015611cb657506006810154155b1515611cc157600080fd5b60005b6008820154811015611d5c5760008260080182815481101515611ce357fe5b60009182526020808320909101546004860154888452600783526040808520600160a060020a039093168086529290935291909220600101549192501415611d53576000858152600760209081526040808320600160a060020a03851684529091529020805460ff191660031790555b50600101611cc4565b506000838152600a6020908152604080832060048501548452825280832054868452600b90925290912054611d969163ffffffff611fdf16565b6000848152600b6020908152604080832093909355600a815282822060048501805484529152828220829055835460ff191660011784558190556005830181905560078301819055905184917f3afe0f24796ce653c6ab1f3e7aba5ce564eece5e82aee724aff28253e829f07b91a2505050565b6000805b8281101561068557611e31848483818110611e2557fe5b905060200201356113f9565b600101611e0e565b6000828152600660209081526040808320600783528184203385529092529091206002825460ff166004811115611e6c57fe5b14611e7657600080fd5b60038201544210611e8657600080fd5b60058201544210611e9657600080fd5b6001815460ff166003811115611ea857fe5b14611eb257600080fd5b6004820154600182015414611ec657600080fd5b60408051602080820187905281830186905282518083038401815260609092019092528051910120600182015414611efd57600080fd5b604080516c0100000000000000000000000033026020808301919091526034820187905260548083018790528351808403909101815260749092019092528051910120600282015414611f4f57600080fd5b805460ff191660021781556006820154611f6a90600161221c565b6006830155604051339085907f4b1763d473ac8fa80b4432ba90047e1b92444d8fabc55e6a002d9b1a316d795990611fa3908790613713565b60405180910390a350505050565b6000808284811515611fbf57fe5b04949350505050565b600081831015611fd85781610689565b5090919050565b600082821115611feb57fe5b50900390565b6000821515612002575060006111e0565b82820282848281151561201157fe5b041461068957fe5b604080517ff8f9cbfae6cc78fbefe7cdc3a1793dfcf4f0e8bbd8cec470b6a28a7a5a3e1efd81527ff5ecf1b3e9debc68e1d9cfabc5997135bfb7a7a3938b7b606b5b4b3f2f1f0ffe60208201527ff6e4ed9ff2d6b458eadcdf97bd91692de2d4da8fd2d0ac50c6ae9a8272523616818301527fc8c0b887b0a8a4489c948c7f847c6125746c645c544c444038302820181008ff60608201527ff7cae577eec2a03cf3bad76fb589591debb2dd67e0aa9834bea6925f6a4a2e0e60808201527fe39ed557db96902cd38ed14fad815115c786af479b7e8324736353433727170760a08201527fc976c13bb96e881cb166a933a55e490d9d56952b8d4e801485467d236242260660c08201527f753a6d1b65325d0c552a4d1345224105391a310b29122104190a11030902010060e08201526101008082019092527f0100000000000000000000000000000000000000000000000000000000000000600170010000000000000000000000000000000068010000000000000000640100000000620100006010600460026000198c019081041790810417908104178881041790810417908104179081041790810417017e818283848586878898a8b8c8d8e8f929395969799a9b9d9e9faaeb6bedeeff0281900460ff0390910151047f8000000000000000000000000000000000000000000000000000000000000000909211020190565b60008282018381101561068957fe5b60025460008381526006602052604080822060010154905160e160020a635ba430d90281529192600160a060020a03169163b74861b29161226e91600401613713565b60006040518083038186803b15801561228657600080fd5b505afa15801561229a573d6000803e3d6000fd5b505050506040513d6000823e601f3d908101601f191682016040526122c29190810190613435565b6060015190506122f76122dc82600163ffffffff611fdf16565b6000858152600b60205260409020549063ffffffff611ff116565b6000848152600a60209081526040808320868452909152902054612321908363ffffffff611ff116565b1061250157600083815260066020526040812090805b60088301548110156123eb576000836008018281548110151561235657fe5b6000918252602080832090910154898352600782526040808420600160a060020a0390921680855291909252912060010154909150861480156123c9575060016000888152600760209081526040808320600160a060020a038616845290915290205460ff1660038111156123c757fe5b145b156123e2576123df83600163ffffffff61221c16565b92505b50600101612337565b50815460ff1916600290811783556004808401869055815460018501546040517fc8d967290000000000000000000000000000000000000000000000000000000081526124b19442946110f29491936110e293600160a060020a039093169263c8d967299261245b929101613713565b60c06040518083038186803b15801561247357600080fd5b505afa158015612487573d6000803e3d6000fd5b505050506040513d601f19601f820116820180604052506124ab9190810190613417565b51610e0a565b6005830155600060068301556007820181905560405185907ff6d49bf3e05d33a4bc497d3c793fb5756388bb96b947cf51bb60aaecb0e022e3906124f6908790613713565b60405180910390a250505b505050565b600081815260066020526040902061251c612bd1565b60025460018301546040517fc8d96729000000000000000000000000000000000000000000000000000000008152600160a060020a039092169163c8d967299161256891600401613713565b60c06040518083038186803b15801561258057600080fd5b505afa158015612594573d6000803e3d6000fd5b505050506040513d601f19601f820116820180604052506125b89190810190613417565b600254600184015460405160e160020a635ba430d9028152929350600092839283928392600160a060020a039092169163b74861b2916125fa91600401613713565b60006040518083038186803b15801561261257600080fd5b505afa158015612626573d6000803e3d6000fd5b505050506040513d6000823e601f3d908101601f1916820160405261264e9190810190613435565b60400151604001519050600093505b6008860154841015612728576008860180548590811061267957fe5b600091825260209091200154600160a060020a0316925060026000888152600760209081526040808320600160a060020a038816845290915290205460ff1660038111156126c357fe5b1415612704576000878152600960209081526040808320600160a060020a03871684529091529020546126fd90839063ffffffff61221c16565b915061271d565b608085015161271a90829063ffffffff61221c16565b90505b83600101935061265d565b6000821161273557600080fd5b600061275f6127528760a001516064611fdf90919063ffffffff16565b839063ffffffff612a9816565b9050600094505b6008870154851015612a1c576008870180548690811061278257fe5b600091825260209091200154600160a060020a0316935060026000898152600760209081526040808320600160a060020a038916845290915290205460ff1660038111156127cc57fe5b1415612920576000888152600960209081526040808320600160a060020a03881684529091528120546128079083908663ffffffff612aa216565b9050612819838263ffffffff611fdf16565b60025460018a01546040517f83729251000000000000000000000000000000000000000000000000000000008152929550600160a060020a039091169163837292519161286c918990869060040161374a565b600060405180830381600087803b15801561288657600080fd5b505af115801561289a573d6000803e3d6000fd5b5050505060088801546001101561291a57600160a060020a0385166000908152600860205260409020546128d590600163ffffffff61221c16565b600160a060020a0386166000818152600860205260408082209390935591518b927f9703f4589802246c80b822e63697180da799e363cd1b6fd9465a5e5574d5349291a35b50612a11565b60025460018801546040517f0d0c233c000000000000000000000000000000000000000000000000000000008152600160a060020a0390921691630d0c233c9161296e918890600401613721565b600060405180830381600087803b15801561298857600080fd5b505af115801561299c573d6000803e3d6000fd5b505050600160a060020a0385166000908152600860205260409020546129cc91506002600363ffffffff612aa216565b600160a060020a0385166000818152600860205260408082209390935591518a927ff868788948d55240774fdbad06555105ef20bbc70d1b7eccda982b65e11e79bb91a35b846001019450612766565b60025460018801546040517f4a8e362e000000000000000000000000000000000000000000000000000000008152600160a060020a0390921691634a8e362e91612a6a918690600401613793565b600060405180830381600087803b158015612a8457600080fd5b505af1158015610c21573d6000803e3d6000fd5b6000610689838360645b60006113f1612ab18585611ff1565b83611fb1565b6101e060405190810160405280612acc612cf9565b8152602001612ad9612cf9565b8152602001612ae6612cf9565b815260200160008152602001600081526020016000600160a060020a031681526020016000600160a060020a031681526020016000600160a060020a03168152602001606081525090565b828054600181600116156101000203166002900490600052602060002090601f016020900481019282601f10612b7257805160ff1916838001178555612b9f565b82800160010185558215612b9f579182015b82811115612b9f578251825591602001919060010190612b84565b50612bab929150612d19565b5090565b6060604051908101604052806060815260200160608152602001600081525090565b60c0604051908101604052806000815260200160008152602001600081526020016000815260200160008152602001600081525090565b60408051610140810190915280600081526020016000801916815260200160008152602001600081526020016000801916815260200160008152602001600081526020016000815260200160608152602001606081525090565b828054600181600116156101000203166002900490600052602060002090601f016020900481019282601f10612ca35782800160ff19823516178555612b9f565b82800160010185558215612b9f579182015b82811115612b9f578235825591602001919060010190612cb5565b604080516080810190915280600081526000602082018190526040820181905260609091015290565b604080516060810182526000808252602082018190529181019190915290565b61199791905b80821115612bab5760008155600101612d1f565b600061068982356138b8565b600061068982516138b8565b600080601f83018413612d5d57600080fd5b50813567ffffffffffffffff811115612d7557600080fd5b602083019150836020820283011115612d8d57600080fd5b9250929050565b600061068982516138c3565b60006106898235611997565b600080601f83018413612dbe57600080fd5b50813567ffffffffffffffff811115612dd657600080fd5b602083019150836001820283011115612d8d57600080fd5b6000601f82018313612dff57600080fd5b8151612e12612e0d82613886565b61385f565b91508082526020830160208301858383011115612e2e57600080fd5b612e39838284613926565b50505092915050565b600060c08284031215612e5457600080fd5b612e5e60c061385f565b90506000612e6c8484613077565b8252506020612e7d84848301613077565b6020830152506040612e9184828501613077565b6040830152506060612ea584828501613077565b6060830152506080612eb984828501613077565b60808301525060a0612ecd84828501613077565b60a08301525092915050565b60006101e08284031215612eec57600080fd5b612ef761012061385f565b90506000612f058484612fcd565b8252506060612f1684848301612fcd565b60208301525060c0612f2a84828501612fcd565b604083015250610120612f3f84828501613077565b606083015250610140612f5484828501613077565b608083015250610160612f6984828501612d3f565b60a083015250610180612f7e84828501612d3f565b60c0830152506101a0612f9384828501612d3f565b60e0830152506101c082015167ffffffffffffffff811115612fb457600080fd5b612fc084828501612dee565b6101008301525092915050565b600060608284031215612fdf57600080fd5b612fe9606061385f565b90506000612ff78484612d3f565b825250602061300884848301612d3f565b602083015250604061301c84828501613077565b60408301525092915050565b60006060828403121561303a57600080fd5b613044606061385f565b905060006130528484613083565b825250602061306384848301612da0565b602083015250604061301c84828501612da0565b60006106898251611997565b600061068982356138ec565b6000602082840312156130a157600080fd5b60006113f18484612d33565b6000806000606084860312156130c257600080fd5b60006130ce8686612d33565b93505060206130df86828701612d33565b92505060406130f086828701612d33565b9150509250925092565b6000806000806080858703121561311057600080fd5b600061311c8787612d33565b945050602061312d87828801612d33565b935050604061313e87828801612d33565b925050606061314f87828801612d33565b91505092959194509250565b6000806020838503121561316e57600080fd5b823567ffffffffffffffff81111561318557600080fd5b61319185828601612d4b565b92509250509250929050565b600080600080604085870312156131b357600080fd5b843567ffffffffffffffff8111156131ca57600080fd5b6131d687828801612d4b565b9450945050602085013567ffffffffffffffff8111156131f557600080fd5b61320187828801612d4b565b95989497509550505050565b60006020828403121561321f57600080fd5b60006113f18484612d94565b60006020828403121561323d57600080fd5b60006113f18484612da0565b6000806040838503121561325c57600080fd5b60006132688585612da0565b925050602061327985828601612d33565b9150509250929050565b6000806040838503121561329657600080fd5b60006132a28585612da0565b925050602061327985828601612da0565b60008060008060008061014087890312156132cd57600080fd5b60006132d98989612da0565b96505060206132ea89828a01612da0565b95505060406132fb89828a01612da0565b945050606061330c89828a01612d33565b935050608061331d89828a01613028565b92505060e061332e89828a01613028565b9150509295509295509295565b60008060006040848603121561335057600080fd5b600061335c8686612da0565b935050602084013567ffffffffffffffff81111561337957600080fd5b61338586828701612dac565b92509250509250925092565b6000806000806000606086880312156133a957600080fd5b853567ffffffffffffffff8111156133c057600080fd5b6133cc88828901612dac565b9550955050602086013567ffffffffffffffff8111156133eb57600080fd5b6133f788828901612dac565b9350935050604061340a88828901612da0565b9150509295509295909350565b600060c0828403121561342957600080fd5b60006113f18484612e42565b60006020828403121561344757600080fd5b815167ffffffffffffffff81111561345e57600080fd5b6113f184828501612ed9565b613473816138f2565b82525050565b613473816138b8565b600061348d826138b4565b80845260208401935061349f836138ae565b60005b828110156134cf576134b5868351613479565b6134be826138ae565b6020969096019591506001016134a2565b5093949350505050565b613473816138c3565b61347381611997565b600082845260208401935061350183858461391a565b61350a83613952565b9093019392505050565b600061351f826138b4565b808452613533816020860160208601613926565b61353c81613952565b9093016020019392505050565b613473816138f9565b61347381613904565b6134738161390f565b805160608084526000919084019061357c8282613514565b915050602083015184820360208601526135968282613514565b91505060408301516135ab60408601826134e2565b509392505050565b805160808301906135c48482613552565b5060208201516135d760208501826134e2565b5060408201516135ea60408501826134e2565b5060608201516135fd6060850182613479565b50505050565b8051600090610140840190613618858261355b565b50602083015161362b60208601826134e2565b50604083015161363e60408601826134e2565b50606083015161365160608601826134e2565b50608083015161366460808601826134e2565b5060a083015161367760a08601826134e2565b5060c083015161368a60c08601826134e2565b5060e083015161369d60e08601826134e2565b506101008301518482036101008601526136b78282613482565b9150506101208301518482036101208601526136d38282613514565b95945050505050565b602081016111e08284613479565b604081016136f88285613479565b6106896020830184613479565b602081016111e082846134d9565b602081016111e082846134e2565b604081016136f882856134e2565b6040810161373d82856134e2565b610689602083018461346a565b6060810161375882866134e2565b6137656020830185613479565b6113f160408301846134e2565b6040810161378082866134e2565b81810360208301526136d38184866134eb565b604081016137a182856134e2565b61068960208301846134e2565b602080825281016113f18184866134eb565b602080825281016106898184613514565b602081016111e08284613549565b602080825281016106898184613564565b608081016111e082846135b3565b602080825281016106898184613603565b6080810161381d82896134e2565b81810360208301526138308187896134eb565b905081810360408301526138458185876134eb565b905061385460608301846134e2565b979650505050505050565b60405181810167ffffffffffffffff8111828210171561387e57600080fd5b604052919050565b600067ffffffffffffffff82111561389d57600080fd5b506020601f91909101601f19160190565b60200190565b5190565b60006111e0826138e0565b151590565b600060048210612bab57fe5b600060058210612bab57fe5b600160a060020a031690565b60ff1690565b60006111e0825b60006111e0826138b8565b60006111e0826138c8565b60006111e0826138d4565b82818337506000910152565b60005b83811015613941578181015183820152602001613929565b838111156135fd5750506000910152565b601f01601f19169056fea265627a7a723058201e0f633a54621759c1c55f5e40cc5dc8be1562bd49cf6e7778656534a444d6616c6578706572696d656e74616cf50037",
  "source": "pragma solidity ^0.5.0;\npragma experimental ABIEncoderV2;\n\nimport \"./interfaces/EIP1154.sol\";\nimport \"./libs/IexecODBLibCore.sol\";\nimport \"./libs/IexecODBLibOrders.sol\";\nimport \"./libs/SafeMathOZ.sol\";\nimport \"./registries/RegistryBase.sol\";\n\nimport \"./CategoryManager.sol\";\nimport \"./IexecClerk.sol\";\n\ncontract IexecHub is CategoryManager, Oracle\n{\n\tusing SafeMathOZ for uint256;\n\n\t/***************************************************************************\n\t *                                Constants                                *\n\t ***************************************************************************/\n\tuint256 public constant CONSENSUS_DURATION_RATIO = 10;\n\tuint256 public constant REVEAL_DURATION_RATIO    = 2;\n\n\t/***************************************************************************\n\t *                             Other contracts                             *\n\t ***************************************************************************/\n\tIexecClerk   public iexecclerk;\n\tRegistryBase public appregistry;\n\tRegistryBase public datasetregistry;\n\tRegistryBase public workerpoolregistry;\n\n\t/***************************************************************************\n\t *                          Consensuses & Workers                          *\n\t ***************************************************************************/\n\tmapping(bytes32 =>                    IexecODBLibCore.Task         ) m_tasks;\n\tmapping(bytes32 => mapping(address => IexecODBLibCore.Contribution)) m_contributions;\n\tmapping(address =>                    uint256                      ) m_workerScores;\n\n\tmapping(bytes32 => mapping(address => uint256                     )) m_logweight;\n\tmapping(bytes32 => mapping(bytes32 => uint256                     )) m_groupweight;\n\tmapping(bytes32 =>                    uint256                      ) m_totalweight;\n\n\t/***************************************************************************\n\t *                                 Events                                  *\n\t ***************************************************************************/\n\tevent TaskInitialize(bytes32 indexed taskid, address indexed workerpool);\n\tevent TaskContribute(bytes32 indexed taskid, address indexed worker, bytes32 hash);\n\tevent TaskConsensus (bytes32 indexed taskid, bytes32 consensus);\n\tevent TaskReveal    (bytes32 indexed taskid, address indexed worker, bytes32 digest);\n\tevent TaskReopen    (bytes32 indexed taskid);\n\tevent TaskFinalize  (bytes32 indexed taskid, bytes results);\n\tevent TaskClaimed   (bytes32 indexed taskid);\n\n\tevent AccurateContribution(address indexed worker, bytes32 indexed taskid);\n\tevent FaultyContribution  (address indexed worker, bytes32 indexed taskid);\n\n\t/***************************************************************************\n\t *                                Modifiers                                *\n\t ***************************************************************************/\n\tmodifier onlyScheduler(bytes32 _taskid)\n\t{\n\t\trequire(msg.sender == iexecclerk.viewDeal(m_tasks[_taskid].dealid).workerpool.owner);\n\t\t_;\n\t}\n\n\t/***************************************************************************\n\t *                               Constructor                               *\n\t ***************************************************************************/\n\tconstructor()\n\tpublic\n\t{\n\t}\n\n\tfunction attachContracts(\n\t\taddress _iexecclerkAddress,\n\t\taddress _appregistryAddress,\n\t\taddress _datasetregistryAddress,\n\t\taddress _workerpoolregistryAddress)\n\tpublic onlyOwner\n\t{\n\t\trequire(address(iexecclerk) == address(0));\n\t\tiexecclerk         = IexecClerk  (_iexecclerkAddress  );\n\t\tappregistry        = RegistryBase(_appregistryAddress);\n\t\tdatasetregistry    = RegistryBase(_datasetregistryAddress);\n\t\tworkerpoolregistry = RegistryBase(_workerpoolregistryAddress);\n\t}\n\n\t/***************************************************************************\n\t *                                Accessors                                *\n\t ***************************************************************************/\n\tfunction viewTask(bytes32 _taskid)\n\tpublic view returns (IexecODBLibCore.Task memory)\n\t{\n\t\treturn m_tasks[_taskid];\n\t}\n\n\tfunction viewContribution(bytes32 _taskid, address _worker)\n\tpublic view returns (IexecODBLibCore.Contribution memory)\n\t{\n\t\treturn m_contributions[_taskid][_worker];\n\t}\n\n\tfunction viewScore(address _worker)\n\tpublic view returns (uint256)\n\t{\n\t\treturn m_workerScores[_worker];\n\t}\n\n\tfunction checkResources(address app, address dataset, address workerpool)\n\texternal view returns (bool)\n\t{\n\t\trequire(                         appregistry.isRegistered(app));\n\t\trequire(dataset == address(0) || datasetregistry.isRegistered(dataset));\n\t\trequire(                         workerpoolregistry.isRegistered(workerpool));\n\t\treturn true;\n\t}\n\n\t/***************************************************************************\n\t *                         EIP 1154 PULL INTERFACE                         *\n\t ***************************************************************************/\n\tfunction resultFor(bytes32 id)\n\texternal view returns (bytes memory)\n\t{\n\t\tIexecODBLibCore.Task storage task = m_tasks[id];\n\t\trequire(task.status == IexecODBLibCore.TaskStatusEnum.COMPLETED);\n\t\treturn task.results;\n\t}\n\n\t/***************************************************************************\n\t *                            Consensus methods                            *\n\t ***************************************************************************/\n\tfunction initialize(bytes32 _dealid, uint256 idx)\n\tpublic returns (bytes32)\n\t{\n\t\tIexecODBLibCore.Config memory config = iexecclerk.viewConfig(_dealid);\n\n\t\trequire(idx >= config.botFirst                    );\n\t\trequire(idx <  config.botFirst.add(config.botSize));\n\n\t\tbytes32 taskid = keccak256(abi.encodePacked(_dealid, idx));\n\n\t\tIexecODBLibCore.Task storage task = m_tasks[taskid];\n\t\trequire(task.status == IexecODBLibCore.TaskStatusEnum.UNSET);\n\t\ttask.status            = IexecODBLibCore.TaskStatusEnum.ACTIVE;\n\t\ttask.dealid            = _dealid;\n\t\ttask.idx               = idx;\n\t\ttask.consensusDeadline = viewCategory(config.category).workClockTimeRef\n\t\t                         .mul(CONSENSUS_DURATION_RATIO)\n\t\t                         .add(config.startTime);\n\n\t\t// setup denominator\n\t\tm_totalweight[taskid] = 1;\n\n\t\temit TaskInitialize(taskid, iexecclerk.viewDeal(_dealid).workerpool.pointer);\n\n\t\treturn taskid;\n\t}\n\n\tfunction contribute(\n\t\tbytes32                            _taskid,\n\t\tbytes32                            _resultHash,\n\t\tbytes32                            _resultSeal,\n\t\taddress                            _enclaveChallenge,\n\t\tIexecODBLibOrders.signature memory _enclaveSign,\n\t\tIexecODBLibOrders.signature memory _workerpoolSign)\n\tpublic\n\t{\n\t\tIexecODBLibCore.Task         storage task         = m_tasks[_taskid];\n\t\tIexecODBLibCore.Contribution storage contribution = m_contributions[_taskid][msg.sender];\n\t\tIexecODBLibCore.Deal         memory  deal         = iexecclerk.viewDeal(task.dealid);\n\n\t\trequire(task.status            == IexecODBLibCore.TaskStatusEnum.ACTIVE       );\n\t\trequire(task.consensusDeadline >  now                                         );\n\t\trequire(contribution.status    == IexecODBLibCore.ContributionStatusEnum.UNSET);\n\n\t\t// Check that the worker + taskid + enclave combo is authorized to contribute (scheduler signature)\n\t\trequire(deal.workerpool.owner == ecrecover(\n\t\t\tkeccak256(abi.encodePacked(\n\t\t\t\t\"\\x19Ethereum Signed Message:\\n32\",\n\t\t\t\tkeccak256(abi.encodePacked(\n\t\t\t\t\tmsg.sender,\n\t\t\t\t\t_taskid,\n\t\t\t\t\t_enclaveChallenge\n\t\t\t\t))\n\t\t\t)),\n\t\t\t_workerpoolSign.v,\n\t\t\t_workerpoolSign.r,\n\t\t\t_workerpoolSign.s)\n\t\t);\n\n\t\t// need enclave challenge if tag is set\n\t\trequire(_enclaveChallenge != address(0) || deal.tag & 0x1 == 0);\n\n\t\t// Check enclave signature\n\t\tif (_enclaveChallenge != address(0))\n\t\t{\n\t\t\trequire(_enclaveChallenge == ecrecover(\n\t\t\t\tkeccak256(abi.encodePacked(\n\t\t\t\t\t\"\\x19Ethereum Signed Message:\\n32\",\n\t\t\t\t\tkeccak256(abi.encodePacked(\n\t\t\t\t\t_resultHash,\n\t\t\t\t\t_resultSeal\n\t\t\t\t\t))\n\t\t\t\t)),\n\t\t\t\t_enclaveSign.v,\n\t\t\t\t_enclaveSign.r,\n\t\t\t\t_enclaveSign.s)\n\t\t\t);\n\t\t}\n\n\t\t// Update contribution entry\n\t\tcontribution.status           = IexecODBLibCore.ContributionStatusEnum.CONTRIBUTED;\n\t\tcontribution.resultHash       = _resultHash;\n\t\tcontribution.resultSeal       = _resultSeal;\n\t\tcontribution.enclaveChallenge = _enclaveChallenge;\n\t\ttask.contributors.push(msg.sender);\n\n\t\tiexecclerk.lockContribution(task.dealid, msg.sender);\n\n\t\temit TaskContribute(_taskid, msg.sender, _resultHash);\n\n\t\t// Contribution done  updating and checking concensus\n\n\t\t/*************************************************************************\n\t\t *                           SCORE POLICY 1/3                            *\n\t\t *                                                                       *\n\t\t *                          see documentation!                           *\n\t\t *************************************************************************/\n\t\t// k = 3\n\t\tuint256 weight = m_workerScores[msg.sender].div(3).max(3).sub(1);\n\t\tuint256 group  = m_groupweight[_taskid][_resultHash];\n\t\tuint256 delta  = group.max(1).mul(weight).sub(group);\n\n\t\tm_logweight  [_taskid][msg.sender ] = weight.log();\n\t\tm_groupweight[_taskid][_resultHash] = m_groupweight[_taskid][_resultHash].add(delta);\n\t\tm_totalweight[_taskid]              = m_totalweight[_taskid].add(delta);\n\n\t\t// Check consensus\n\t\tcheckConsensus(_taskid, _resultHash);\n\t}\n\tfunction checkConsensus(\n\t\tbytes32 _taskid,\n\t\tbytes32 _consensus)\n\tinternal\n\t{\n\t\tuint256 trust = iexecclerk.viewDeal(m_tasks[_taskid].dealid).trust;\n\t\tif (m_groupweight[_taskid][_consensus].mul(trust) >= m_totalweight[_taskid].mul(trust.sub(1)))\n\t\t{\n\t\t\t// Preliminary checks done in \"contribute()\"\n\n\t\t\tIexecODBLibCore.Task storage task = m_tasks[_taskid];\n\t\t\tuint256 winnerCounter = 0;\n\t\t\tfor (uint256 i = 0; i < task.contributors.length; ++i)\n\t\t\t{\n\t\t\t\taddress w = task.contributors[i];\n\t\t\t\tif\n\t\t\t\t(\n\t\t\t\t\tm_contributions[_taskid][w].resultHash == _consensus\n\t\t\t\t\t&&\n\t\t\t\t\tm_contributions[_taskid][w].status == IexecODBLibCore.ContributionStatusEnum.CONTRIBUTED // REJECTED contribution must not be count\n\t\t\t\t)\n\t\t\t\t{\n\t\t\t\t\twinnerCounter = winnerCounter.add(1);\n\t\t\t\t}\n\t\t\t}\n\t\t\t// msg.sender is a contributor: no need to check\n\t\t\t// require(winnerCounter > 0);\n\n\t\t\ttask.status         = IexecODBLibCore.TaskStatusEnum.REVEALING;\n\t\t\ttask.consensusValue = _consensus;\n\t\t\ttask.revealDeadline = viewCategory(iexecclerk.viewConfig(task.dealid).category).workClockTimeRef\n\t\t\t\t.mul(REVEAL_DURATION_RATIO)\n\t\t\t\t.add(now);\n\t\t\ttask.revealCounter  = 0;\n\t\t\ttask.winnerCounter  = winnerCounter;\n\n\t\t\temit TaskConsensus(_taskid, _consensus);\n\t\t}\n\t}\n\n\tfunction reveal(\n\t\tbytes32 _taskid,\n\t\tbytes32 _resultDigest)\n\tpublic // worker\n\t{\n\t\tIexecODBLibCore.Task         storage task         = m_tasks[_taskid];\n\t\tIexecODBLibCore.Contribution storage contribution = m_contributions[_taskid][msg.sender];\n\t\trequire(task.status             == IexecODBLibCore.TaskStatusEnum.REVEALING                       );\n\t\trequire(task.consensusDeadline  >  now                                                            );\n\t\trequire(task.revealDeadline     >  now                                                            );\n\t\trequire(contribution.status     == IexecODBLibCore.ContributionStatusEnum.CONTRIBUTED             );\n\t\trequire(contribution.resultHash == task.consensusValue                                            );\n\t\trequire(contribution.resultHash == keccak256(abi.encodePacked(            _taskid, _resultDigest)));\n\t\trequire(contribution.resultSeal == keccak256(abi.encodePacked(msg.sender, _taskid, _resultDigest)));\n\n\t\tcontribution.status = IexecODBLibCore.ContributionStatusEnum.PROVED;\n\t\ttask.revealCounter  = task.revealCounter.add(1);\n\n\t\temit TaskReveal(_taskid, msg.sender, _resultDigest);\n\t}\n\n\tfunction reopen(\n\t\tbytes32 _taskid)\n\tpublic onlyScheduler(_taskid)\n\t{\n\t\tIexecODBLibCore.Task storage task = m_tasks[_taskid];\n\t\trequire(task.status            == IexecODBLibCore.TaskStatusEnum.REVEALING);\n\t\trequire(task.consensusDeadline >  now                                     );\n\t\trequire(task.revealDeadline    <= now\n\t\t     && task.revealCounter     == 0                                       );\n\n\t\tfor (uint256 i = 0; i < task.contributors.length; ++i)\n\t\t{\n\t\t\taddress worker = task.contributors[i];\n\t\t\tif (m_contributions[_taskid][worker].resultHash == task.consensusValue)\n\t\t\t{\n\t\t\t\tm_contributions[_taskid][worker].status = IexecODBLibCore.ContributionStatusEnum.REJECTED;\n\t\t\t}\n\t\t}\n\n\t\tm_totalweight[_taskid]                      = m_totalweight[_taskid].sub(m_groupweight[_taskid][task.consensusValue]);\n\t\tm_groupweight[_taskid][task.consensusValue] = 0;\n\n\t\ttask.status         = IexecODBLibCore.TaskStatusEnum.ACTIVE;\n\t\ttask.consensusValue = 0x0;\n\t\ttask.revealDeadline = 0;\n\t\ttask.winnerCounter  = 0;\n\n\t\temit TaskReopen(_taskid);\n\t}\n\n\tfunction finalize(\n\t\tbytes32          _taskid,\n\t\tbytes   calldata _results)\n\texternal onlyScheduler(_taskid)\n\t{\n\t\tIexecODBLibCore.Task storage task = m_tasks[_taskid];\n\t\trequire(task.status            == IexecODBLibCore.TaskStatusEnum.REVEALING);\n\t\trequire(task.consensusDeadline >  now                                     );\n\t\trequire(task.revealCounter     == task.winnerCounter\n\t\t    || (task.revealCounter     >  0  && task.revealDeadline <= now)       );\n\n\t\ttask.status  = IexecODBLibCore.TaskStatusEnum.COMPLETED;\n\t\ttask.results = _results;\n\n\t\t/**\n\t\t * Stake and reward management\n\t\t */\n\t\tiexecclerk.successWork(task.dealid);\n\t\t__distributeRewards(_taskid);\n\n\t\t/**\n\t\t * Event\n\t\t */\n\t\temit TaskFinalize(_taskid, _results);\n\n\t\t/**\n\t\t * Callback for smartcontracts using EIP1154\n\t\t */\n\t\taddress callbackTarget = iexecclerk.viewDeal(task.dealid).callback;\n\t\tif (callbackTarget != address(0))\n\t\t{\n\t\t\t/**\n\t\t\t * Call does not revert if the target smart contract is incompatible or reverts\n\t\t\t *\n\t\t\t * ATTENTION!\n\t\t\t * This call is dangerous and target smart contract can charge the stack.\n\t\t\t * Assume invalid state after the call.\n\t\t\t * See: https://solidity.readthedocs.io/en/develop/types.html#members-of-addresses\n\t\t\t *\n\t\t\t * TODO: gas provided?\n\t\t\t */\n\t\t\trequire(gasleft() > 100000);\n\t\t\tcallbackTarget.call.gas(100000)(abi.encodeWithSignature(\n\t\t\t\t\"receiveResult(bytes32,bytes)\",\n\t\t\t\t_taskid,\n\t\t\t\t_results\n\t\t\t));\n\t\t}\n\t}\n\n\tfunction claim(\n\t\tbytes32 _taskid)\n\tpublic\n\t{\n\t\tIexecODBLibCore.Task storage task = m_tasks[_taskid];\n\t\trequire(task.status == IexecODBLibCore.TaskStatusEnum.ACTIVE\n\t\t     || task.status == IexecODBLibCore.TaskStatusEnum.REVEALING);\n\t\trequire(task.consensusDeadline <= now                          );\n\n\t\ttask.status = IexecODBLibCore.TaskStatusEnum.FAILLED;\n\n\t\t/**\n\t\t * Stake management\n\t\t */\n\t\tiexecclerk.failedWork(task.dealid);\n\t\tfor (uint256 i = 0; i < task.contributors.length; ++i)\n\t\t{\n\t\t\taddress worker = task.contributors[i];\n\t\t\tiexecclerk.unlockContribution(task.dealid, worker);\n\t\t}\n\n\t\temit TaskClaimed(_taskid);\n\t}\n\n\tfunction __distributeRewards(bytes32 _taskid)\n\tprivate\n\t{\n\t\tIexecODBLibCore.Task   storage task   = m_tasks[_taskid];\n\t\tIexecODBLibCore.Config memory  config = iexecclerk.viewConfig(task.dealid);\n\n\t\tuint256 i;\n\t\taddress worker;\n\n\t\tuint256 totalLogWeight = 0;\n\t\tuint256 totalReward = iexecclerk.viewDeal(task.dealid).workerpool.price;\n\n\t\tfor (i = 0; i < task.contributors.length; ++i)\n\t\t{\n\t\t\tworker = task.contributors[i];\n\t\t\tif (m_contributions[_taskid][worker].status == IexecODBLibCore.ContributionStatusEnum.PROVED)\n\t\t\t{\n\t\t\t\ttotalLogWeight = totalLogWeight.add(m_logweight[_taskid][worker]);\n\t\t\t}\n\t\t\telse // ContributionStatusEnum.REJECT or ContributionStatusEnum.CONTRIBUTED (not revealed)\n\t\t\t{\n\t\t\t\ttotalReward = totalReward.add(config.workerStake);\n\t\t\t}\n\t\t}\n\t\trequire(totalLogWeight > 0);\n\n\t\t// compute how much is going to the workers\n\t\tuint256 workersReward = totalReward.percentage(uint256(100).sub(config.schedulerRewardRatio));\n\n\t\tfor (i = 0; i < task.contributors.length; ++i)\n\t\t{\n\t\t\tworker = task.contributors[i];\n\t\t\tif (m_contributions[_taskid][worker].status == IexecODBLibCore.ContributionStatusEnum.PROVED)\n\t\t\t{\n\t\t\t\tuint256 workerReward = workersReward.mulByFraction(m_logweight[_taskid][worker], totalLogWeight);\n\t\t\t\ttotalReward          = totalReward.sub(workerReward);\n\n\t\t\t\tiexecclerk.unlockAndRewardForContribution(task.dealid, worker, workerReward);\n\n\t\t\t\t// Only reward if replication happened\n\t\t\t\tif (task.contributors.length > 1)\n\t\t\t\t{\n\t\t\t\t\t/*******************************************************************\n\t\t\t\t\t *                        SCORE POLICY 2/3                         *\n\t\t\t\t\t *                                                                 *\n\t\t\t\t\t *                       see documentation!                        *\n\t\t\t\t\t *******************************************************************/\n\t\t\t\t\tm_workerScores[worker] = m_workerScores[worker].add(1);\n\t\t\t\t\temit AccurateContribution(worker, _taskid);\n\t\t\t\t}\n\t\t\t}\n\t\t\telse // WorkStatusEnum.POCO_REJECT or ContributionStatusEnum.CONTRIBUTED (not revealed)\n\t\t\t{\n\t\t\t\t// No Reward\n\t\t\t\tiexecclerk.seizeContribution(task.dealid, worker);\n\n\t\t\t\t// Always punish bad contributors\n\t\t\t\t{\n\t\t\t\t\t/*******************************************************************\n\t\t\t\t\t *                        SCORE POLICY 3/3                         *\n\t\t\t\t\t *                                                                 *\n\t\t\t\t\t *                       see documentation!                        *\n\t\t\t\t\t *******************************************************************/\n\t\t\t\t\t// k = 3\n\t\t\t\t\tm_workerScores[worker] = m_workerScores[worker].mulByFraction(2,3);\n\t\t\t\t\temit FaultyContribution(worker, _taskid);\n\t\t\t\t}\n\t\t\t}\n\t\t}\n\t\t// totalReward now contains the scheduler share\n\t\tiexecclerk.rewardForScheduling(task.dealid, totalReward);\n\t}\n\n\tfunction initializeArray(\n\t\tbytes32[] calldata _dealid,\n\t\tuint256[] calldata _idx)\n\texternal returns (bool)\n\t{\n\t\trequire(_dealid.length == _idx.length);\n\t\tfor (uint i = 0; i < _dealid.length; ++i)\n\t\t{\n\t\t\tinitialize(_dealid[i], _idx[i]);\n\t\t}\n\t\treturn true;\n\t}\n\n\tfunction claimArray(\n\t\tbytes32[] calldata _taskid)\n\texternal returns (bool)\n\t{\n\t\tfor (uint i = 0; i < _taskid.length; ++i)\n\t\t{\n\t\t\tclaim(_taskid[i]);\n\t\t}\n\t\treturn true;\n\t}\n}\n",
  "sourcePath": "/home/amxx/Work/iExec/code/PoCo-dev/contracts/IexecHub.sol",
  "compiler": {
    "name": "solc",
    "version": "0.5.0+commit.1d4f565a.Emscripten.clang"
  },
  "schemaVersion": "3.0.0-beta.2",
  "updatedAt": "2018-12-03T12:55:32.494Z",
  "devdoc": {
    "methods": {
      "transferOwnership(address)": {
        "details": "Allows the current owner to transfer control of the contract to a newOwner.",
        "params": {
          "_newOwner": "The address to transfer ownership to."
        }
      }
    }
  },
  "userdoc": {
    "methods": {
      "constructor": "*************************************************************************                              Constructor                               ***************************************************************************",
      "createCategory(string,string,uint256)": {
        "notice": "Methods"
      },
      "initialize(bytes32,uint256)": {
        "notice": "*************************************************************************                           Consensus methods                            ***************************************************************************"
      },
      "resultFor(bytes32)": {
        "notice": "*************************************************************************                        EIP 1154 PULL INTERFACE                         ***************************************************************************"
      },
      "viewCategory(uint256)": {
        "notice": "Accessors"
      },
      "viewTask(bytes32)": {
        "notice": "*************************************************************************                               Accessors                                ***************************************************************************"
      }
    }
  }
}