{
  "contractName": "TestClient",
  "abi": [
    {
      "constant": true,
      "inputs": [
        {
          "name": "",
          "type": "bytes32"
        }
      ],
      "name": "store",
      "outputs": [
        {
          "name": "",
          "type": "bytes"
        }
      ],
      "payable": false,
      "stateMutability": "view",
      "type": "function"
    },
    {
      "inputs": [],
      "payable": false,
      "stateMutability": "nonpayable",
      "type": "constructor"
    },
    {
      "anonymous": false,
      "inputs": [
        {
          "indexed": true,
          "name": "id",
          "type": "bytes32"
        },
        {
          "indexed": false,
          "name": "result",
          "type": "bytes"
        }
      ],
      "name": "GotResult",
      "type": "event"
    },
    {
      "constant": false,
      "inputs": [
        {
          "name": "id",
          "type": "bytes32"
        },
        {
          "name": "result",
          "type": "bytes"
        }
      ],
      "name": "receiveResult",
      "outputs": [],
      "payable": false,
      "stateMutability": "nonpayable",
      "type": "function"
    }
  ],
  "bytecode": "0x608060405234801561001057600080fd5b50610356806100206000396000f3fe60806040526004361061004b5763ffffffff7c01000000000000000000000000000000000000000000000000000000006000350416635dd808558114610050578063654cf88c146100d6575b600080fd5b34801561005c57600080fd5b506100d46004803603604081101561007357600080fd5b8135919081019060408101602082013564010000000081111561009557600080fd5b8201836020820111156100a757600080fd5b803590602001918460018302840111640100000000831117156100c957600080fd5b509092509050610175565b005b3480156100e257600080fd5b50610100600480360360208110156100f957600080fd5b50356101f5565b6040805160208082528351818301528351919283929083019185019080838360005b8381101561013a578181015183820152602001610122565b50505050905090810190601f1680156101675780820380516001836020036101000a031916815260200191505b509250505060405180910390f35b600083815260208190526040902061018e90838361028f565b50827fccc426763ac02171b240f5f93cd8963dad9700205747a4a23f9c9854f9e9cf3a838360405180806020018281038252848482818152602001925080828437600083820152604051601f909101601f19169092018290039550909350505050a2505050565b600060208181529181526040908190208054825160026001831615610100026000190190921691909104601f8101859004850282018501909352828152929091908301828280156102875780601f1061025c57610100808354040283529160200191610287565b820191906000526020600020905b81548152906001019060200180831161026a57829003601f168201915b505050505081565b828054600181600116156101000203166002900490600052602060002090601f016020900481019282601f106102d05782800160ff198235161785556102fd565b828001600101855582156102fd579182015b828111156102fd5782358255916020019190600101906102e2565b5061030992915061030d565b5090565b61032791905b808211156103095760008155600101610313565b9056fea165627a7a72305820196aae5e5d7469f1a6b384afbc50fdd76b4e7a7ede00a874e4049670a13aaeff0029",
  "source": "pragma solidity ^0.5.0;\n\nimport \"./interfaces/EIP1154.sol\";\n\ncontract TestClient //is OracleConsumer\n{\n\tevent GotResult(bytes32 indexed id, bytes result);\n\n\tmapping(bytes32 => bytes) public store;\n\n\tconstructor()\n\tpublic\n\t{\n\t}\n\n\tfunction receiveResult(bytes32 id, bytes calldata result) external\n\t{\n\t\tstore[id] = result;\n\t\temit GotResult(id, result);\n\t}\n\n}\n",
  "sourcePath": "/home/amxx/Work/iExec/code/PoCo-dev/contracts/TestClient.sol",
  "compiler": {
    "name": "solc",
    "version": "0.5.0+commit.1d4f565a.Emscripten.clang"
  },
  "schemaVersion": "3.0.0-beta.2",
  "updatedAt": "2018-12-03T12:54:15.752Z",
  "devdoc": {
    "methods": {}
  },
  "userdoc": {
    "methods": {}
  }
}