{
  "contractName": "WorkerpoolRegistry",
  "abi": [
    {
      "constant": true,
      "inputs": [
        {
          "name": "_owner",
          "type": "address"
        },
        {
          "name": "_index",
          "type": "uint256"
        }
      ],
      "name": "viewEntry",
      "outputs": [
        {
          "name": "",
          "type": "address"
        }
      ],
      "payable": false,
      "stateMutability": "view",
      "type": "function"
    },
    {
      "constant": true,
      "inputs": [
        {
          "name": "_owner",
          "type": "address"
        }
      ],
      "name": "viewCount",
      "outputs": [
        {
          "name": "",
          "type": "uint256"
        }
      ],
      "payable": false,
      "stateMutability": "view",
      "type": "function"
    },
    {
      "constant": true,
      "inputs": [
        {
          "name": "_entry",
          "type": "address"
        }
      ],
      "name": "isRegistered",
      "outputs": [
        {
          "name": "",
          "type": "bool"
        }
      ],
      "payable": false,
      "stateMutability": "view",
      "type": "function"
    },
    {
      "inputs": [],
      "payable": false,
      "stateMutability": "nonpayable",
      "type": "constructor"
    },
    {
      "anonymous": false,
      "inputs": [
        {
          "indexed": true,
          "name": "workerpoolOwner",
          "type": "address"
        },
        {
          "indexed": true,
          "name": "workerpool",
          "type": "address"
        },
        {
          "indexed": false,
          "name": "workerpoolDescription",
          "type": "string"
        }
      ],
      "name": "CreateWorkerpool",
      "type": "event"
    },
    {
      "constant": false,
      "inputs": [
        {
          "name": "_workerpoolOwner",
          "type": "address"
        },
        {
          "name": "_workerpoolDescription",
          "type": "string"
        }
      ],
      "name": "createWorkerpool",
      "outputs": [
        {
          "name": "",
          "type": "address"
        }
      ],
      "payable": false,
      "stateMutability": "nonpayable",
      "type": "function"
    }
  ],
  "bytecode": "0x608060405234801561001057600080fd5b50610b9e806100206000396000f3fe6080604052600436106100615763ffffffff7c010000000000000000000000000000000000000000000000000000000060003504166365a2c1048114610066578063c0a8cae21461009c578063c3c5a547146100c9578063e40238f4146100f6575b600080fd5b34801561007257600080fd5b506100866100813660046103c7565b610123565b6040516100939190610454565b60405180910390f35b3480156100a857600080fd5b506100bc6100b736600461034b565b610150565b60405161009391906104ba565b3480156100d557600080fd5b506100e96100e436600461034b565b61016b565b604051610093919061048c565b34801561010257600080fd5b50610116610111366004610371565b610189565b604051610093919061049a565b600160a060020a038083166000908152600160209081526040808320858452909152902054165b92915050565b600160a060020a031660009081526002602052604090205490565b600160a060020a031660009081526020819052604090205460ff1690565b6000808484846101976102da565b6101a393929190610462565b604051809103906000f0801580156101bf573d6000803e3d6000fd5b5090506101cc818661022c565b15156101d757600080fd5b80600160a060020a031685600160a060020a03167fc1bcdd8228d0d7750d2a9fea671d1fe9eb0b751661857d93dee400659670e52c868660405161021c9291906104a8565b60405180910390a3949350505050565b600160a060020a038116600090815260026020526040812054819061025890600163ffffffff6102c416565b600160a060020a03808516600090815260026020908152604080832085905560018083528184209584529482528083208054948a1673ffffffffffffffffffffffffffffffffffffffff199095168517905592825281905220805460ff19168217905591505092915050565b6000828201838110156102d357fe5b9392505050565b60405161065c8061050983390190565b60006102d382356104c8565b600080601f8301841361030857600080fd5b50813567ffffffffffffffff81111561032057600080fd5b60208301915083600182028301111561033857600080fd5b9250929050565b60006102d382356104e4565b60006020828403121561035d57600080fd5b600061036984846102ea565b949350505050565b60008060006040848603121561038657600080fd5b600061039286866102ea565b935050602084013567ffffffffffffffff8111156103af57600080fd5b6103bb868287016102f6565b92509250509250925092565b600080604083850312156103da57600080fd5b60006103e685856102ea565b92505060206103f78582860161033f565b9150509250929050565b61040a816104c8565b82525050565b61040a816104d3565b61040a816104e7565b60008284526020840193506104388385846104f2565b610441836104fe565b9093019392505050565b61040a816104e4565b6020810161014a8284610401565b604081016104708286610401565b8181036020830152610483818486610422565b95945050505050565b6020810161014a8284610410565b6020810161014a8284610419565b60208082528101610369818486610422565b6020810161014a828461044b565b600061014a826104d8565b151590565b600160a060020a031690565b90565b600061014a826104c8565b82818337506000910152565b601f01601f19169056fe608060405234801561001057600080fd5b5060405161065c38038061065c83398101806040526100329190810190610174565b60008054600160a060020a031916600160a060020a0384161790558051610060906001906020840190610072565b5050601e60025550600160035561025f565b828054600181600116156101000203166002900490600052602060002090601f016020900481019282601f106100b357805160ff19168380011785556100e0565b828001600101855582156100e0579182015b828111156100e05782518255916020019190600101906100c5565b506100ec9291506100f0565b5090565b61010a91905b808211156100ec57600081556001016100f6565b90565b6000610119825161021e565b9392505050565b6000601f8201831361013157600080fd5b815161014461013f826101eb565b6101c5565b9150808252602083016020830185838301111561016057600080fd5b61016b83828461022f565b50505092915050565b6000806040838503121561018757600080fd5b6000610193858561010d565b92505060208301516001604060020a038111156101af57600080fd5b6101bb85828601610120565b9150509250929050565b6040518181016001604060020a03811182821017156101e357600080fd5b604052919050565b60006001604060020a0382111561020157600080fd5b506020601f91909101601f19160190565b600160a060020a031690565b600061022982610212565b92915050565b60005b8381101561024a578181015183820152602001610232565b83811115610259576000848401525b50505050565b6103ee8061026e6000396000f3fe60806040526004361061006c5763ffffffff7c0100000000000000000000000000000000000000000000000000000000600035041663584feb3a811461007157806387639c681461009c578063b55e75af146100be578063deff41c1146100d3578063f199413c146100f5575b600080fd5b34801561007d57600080fd5b50610086610117565b60405161009391906102f8565b60405180910390f35b3480156100a857600080fd5b506100b16101a4565b6040516100939190610309565b3480156100ca57600080fd5b506100b16101aa565b3480156100df57600080fd5b506100e86101b0565b60405161009391906102e4565b34801561010157600080fd5b5061011561011036600461025d565b6101cc565b005b60018054604080516020600284861615610100026000190190941693909304601f8101849004840282018401909252818152929183018282801561019c5780601f106101715761010080835404028352916020019161019c565b820191906000526020600020905b81548152906001019060200180831161017f57829003601f168201915b505050505081565b60035481565b60025481565b60005473ffffffffffffffffffffffffffffffffffffffff1681565b60005473ffffffffffffffffffffffffffffffffffffffff1633146101f057600080fd5b60648111156101fe57600080fd5b7f61f37ef3a6d587ce2d6be79492e1fac570f2745787015db7ed95ad4397b05c1e60025483600354846040516102379493929190610317565b60405180910390a1600291909155600355565b60006102568235610377565b9392505050565b6000806040838503121561027057600080fd5b600061027c858561024a565b925050602061028d8582860161024a565b9150509250929050565b6102a081610359565b82525050565b60006102b182610355565b8084526102c581602086016020860161037a565b6102ce816103aa565b9093016020019392505050565b6102a081610377565b602081016102f28284610297565b92915050565b6020808252810161025681846102a6565b602081016102f282846102db565b6080810161032582876102db565b61033260208301866102db565b61033f60408301856102db565b61034c60608301846102db565b95945050505050565b5190565b600073ffffffffffffffffffffffffffffffffffffffff82166102f2565b90565b60005b8381101561039557818101518382015260200161037d565b838111156103a4576000848401525b50505050565b601f01601f19169056fea265627a7a72305820287a48d7eb42903a863a04e5b4648dae7c57dbd304f84726b62b746200401e3c6c6578706572696d656e74616cf50037a265627a7a723058201512aa57286913a3d8e636fdd0ccbcfa35bc641efa87b4b7a91373956f9d6c256c6578706572696d656e74616cf50037",
  "source": "pragma solidity ^0.5.0;\npragma experimental ABIEncoderV2;\n\nimport './Workerpool.sol';\nimport './RegistryBase.sol';\n\ncontract WorkerpoolRegistry is RegistryBase //, OwnableMutable // is Owned by IexecHub\n{\n\tevent CreateWorkerpool(address indexed workerpoolOwner, address indexed workerpool, string workerpoolDescription);\n\n\t/**\n\t * Constructor\n\t */\n\tconstructor()\n\tpublic\n\t{\n\t}\n\n\t/**\n\t * Pool creation\n\t */\n\tfunction createWorkerpool(\n\t\taddress          _workerpoolOwner,\n\t\tstring  calldata _workerpoolDescription)\n\texternal /* onlyOwner /*owner == IexecHub*/ returns (Workerpool)\n\t{\n\t\tWorkerpool newWorkerpool = new Workerpool(\n\t\t\t_workerpoolOwner,\n\t\t\t_workerpoolDescription\n\t\t);\n\t\trequire(insert(address(newWorkerpool), _workerpoolOwner));\n\t\temit CreateWorkerpool(_workerpoolOwner, address(newWorkerpool), _workerpoolDescription);\n\t\treturn newWorkerpool;\n\t}\n}\n",
  "sourcePath": "/home/amxx/Work/iExec/code/PoCo-dev/contracts/registries/WorkerpoolRegistry.sol",
  "compiler": {
    "name": "solc",
    "version": "0.5.0+commit.1d4f565a.Emscripten.clang"
  },
  "schemaVersion": "3.0.0-beta.2",
  "updatedAt": "2018-12-03T12:54:15.757Z",
  "devdoc": {
    "methods": {}
  },
  "userdoc": {
    "methods": {
      "constructor": "Constructor",
      "createWorkerpool(address,string)": {
        "notice": "Pool creation"
      },
      "isRegistered(address)": {
        "notice": "Accessors"
      }
    }
  }
}