{
  "contractName": "App",
  "abi": [
    {
      "constant": true,
      "inputs": [],
      "name": "m_appName",
      "outputs": [
        {
          "name": "",
          "type": "string"
        }
      ],
      "payable": false,
      "stateMutability": "view",
      "type": "function"
    },
    {
      "constant": true,
      "inputs": [],
      "name": "m_appMultiaddr",
      "outputs": [
        {
          "name": "",
          "type": "bytes"
        }
      ],
      "payable": false,
      "stateMutability": "view",
      "type": "function"
    },
    {
      "constant": true,
      "inputs": [],
      "name": "m_owner",
      "outputs": [
        {
          "name": "",
          "type": "address"
        }
      ],
      "payable": false,
      "stateMutability": "view",
      "type": "function"
    },
    {
      "constant": true,
      "inputs": [],
      "name": "m_appMREnclave",
      "outputs": [
        {
          "name": "",
          "type": "bytes"
        }
      ],
      "payable": false,
      "stateMutability": "view",
      "type": "function"
    },
    {
      "inputs": [
        {
          "name": "_appOwner",
          "type": "address"
        },
        {
          "name": "_appName",
          "type": "string"
        },
        {
          "name": "_appMultiaddr",
          "type": "bytes"
        },
        {
          "name": "_appMREnclave",
          "type": "bytes"
        }
      ],
      "payable": false,
      "stateMutability": "nonpayable",
      "type": "constructor"
    }
  ],
  "bytecode": "0x608060405234801561001057600080fd5b5060405161062238038061062283398101806040526100329190810190610194565b60008054600160a060020a031916600160a060020a0386161790558251610060906001906020860190610092565b508151610074906002906020850190610092565b508051610088906003906020840190610092565b50505050506102d4565b828054600181600116156101000203166002900490600052602060002090601f016020900481019282601f106100d357805160ff1916838001178555610100565b82800160010185558215610100579182015b828111156101005782518255916020019190600101906100e5565b5061010c929150610110565b5090565b61012a91905b8082111561010c5760008155600101610116565b90565b60006101398251610293565b9392505050565b6000601f8201831361015157600080fd5b815161016461015f82610260565b61023a565b9150808252602083016020830185838301111561018057600080fd5b61018b8382846102a4565b50505092915050565b600080600080608085870312156101aa57600080fd5b60006101b6878761012d565b94505060208501516001604060020a038111156101d257600080fd5b6101de87828801610140565b93505060408501516001604060020a038111156101fa57600080fd5b61020687828801610140565b92505060608501516001604060020a0381111561022257600080fd5b61022e87828801610140565b91505092959194509250565b6040518181016001604060020a038111828210171561025857600080fd5b604052919050565b60006001604060020a0382111561027657600080fd5b506020601f91909101601f19160190565b600160a060020a031690565b600061029e82610287565b92915050565b60005b838110156102bf5781810151838201526020016102a7565b838111156102ce576000848401525b50505050565b61033f806102e36000396000f3fe6080604052600436106100615763ffffffff7c0100000000000000000000000000000000000000000000000000000000600035041663358982a3811461006657806339e75d4514610091578063deff41c1146100a6578063e30d26a8146100c8575b600080fd5b34801561007257600080fd5b5061007b6100dd565b6040516100889190610291565b60405180910390f35b34801561009d57600080fd5b5061007b61016a565b3480156100b257600080fd5b506100bb6101c2565b604051610088919061027d565b3480156100d457600080fd5b5061007b6101de565b60018054604080516020600284861615610100026000190190941693909304601f810184900484028201840190925281815292918301828280156101625780601f1061013757610100808354040283529160200191610162565b820191906000526020600020905b81548152906001019060200180831161014557829003601f168201915b505050505081565b6002805460408051602060018416156101000260001901909316849004601f810184900484028201840190925281815292918301828280156101625780601f1061013757610100808354040283529160200191610162565b60005473ffffffffffffffffffffffffffffffffffffffff1681565b6003805460408051602060026001851615610100026000190190941693909304601f810184900484028201840190925281815292918301828280156101625780601f1061013757610100808354040283529160200191610162565b610242816102ad565b82525050565b6000610253826102a9565b8084526102678160208601602086016102cb565b610270816102fb565b9093016020019392505050565b6020810161028b8284610239565b92915050565b602080825281016102a28184610248565b9392505050565b5190565b600073ffffffffffffffffffffffffffffffffffffffff821661028b565b60005b838110156102e65781810151838201526020016102ce565b838111156102f5576000848401525b50505050565b601f01601f19169056fea265627a7a72305820e7a4c18b3bb1bf3af8c6ca402e583d51b1d1a5903421dd8ef0bd6e6803c2f34e6c6578706572696d656e74616cf50037",
  "source": "pragma solidity ^0.5.0;\npragma experimental ABIEncoderV2;\n\nimport '../tools/Ownable.sol';\n\ncontract App is OwnableImmutable\n{\n\t/**\n\t * Members\n\t */\n\tstring  public m_appName;\n\tbytes   public m_appMultiaddr;\n\tbytes   public m_appMREnclave;\n\n\t/**\n\t * Constructor\n\t */\n\tconstructor(\n\t\taddress        _appOwner,\n\t\tstring  memory _appName,\n\t\tbytes   memory _appMultiaddr,\n\t\tbytes   memory _appMREnclave)\n\tpublic\n\tOwnableImmutable(_appOwner)\n\t{\n\t\tm_appName      = _appName;\n\t\tm_appMultiaddr = _appMultiaddr;\n\t\tm_appMREnclave = _appMREnclave;\n\t}\n\n}\n",
  "sourcePath": "/home/amxx/Work/iExec/code/PoCo-dev/contracts/registries/App.sol",
  "compiler": {
    "name": "solc",
    "version": "0.5.0+commit.1d4f565a.Emscripten.clang"
  },
  "schemaVersion": "3.0.1",
  "updatedAt": "2019-01-08T09:30:29.460Z",
  "devdoc": {
    "methods": {}
  },
  "userdoc": {
    "methods": {
      "constructor": "Constructor"
    }
  }
}