{
  "contractName": "AppRegistry",
  "abi": [
    {
      "constant": true,
      "inputs": [
        {
          "name": "_owner",
          "type": "address"
        },
        {
          "name": "_index",
          "type": "uint256"
        }
      ],
      "name": "viewEntry",
      "outputs": [
        {
          "name": "",
          "type": "address"
        }
      ],
      "payable": false,
      "stateMutability": "view",
      "type": "function"
    },
    {
      "constant": true,
      "inputs": [
        {
          "name": "_owner",
          "type": "address"
        }
      ],
      "name": "viewCount",
      "outputs": [
        {
          "name": "",
          "type": "uint256"
        }
      ],
      "payable": false,
      "stateMutability": "view",
      "type": "function"
    },
    {
      "constant": true,
      "inputs": [
        {
          "name": "_entry",
          "type": "address"
        }
      ],
      "name": "isRegistered",
      "outputs": [
        {
          "name": "",
          "type": "bool"
        }
      ],
      "payable": false,
      "stateMutability": "view",
      "type": "function"
    },
    {
      "inputs": [],
      "payable": false,
      "stateMutability": "nonpayable",
      "type": "constructor"
    },
    {
      "anonymous": false,
      "inputs": [
        {
          "indexed": true,
          "name": "appOwner",
          "type": "address"
        },
        {
          "indexed": false,
          "name": "app",
          "type": "address"
        },
        {
          "indexed": false,
          "name": "appName",
          "type": "string"
        },
        {
          "indexed": false,
          "name": "appParams",
          "type": "string"
        },
        {
          "indexed": false,
          "name": "appHash",
          "type": "bytes32"
        }
      ],
      "name": "CreateApp",
      "type": "event"
    },
    {
      "constant": false,
      "inputs": [
        {
          "name": "_appOwner",
          "type": "address"
        },
        {
          "name": "_appName",
          "type": "string"
        },
        {
          "name": "_appParams",
          "type": "string"
        },
        {
          "name": "_appHash",
          "type": "bytes32"
        }
      ],
      "name": "createApp",
      "outputs": [
        {
          "name": "",
          "type": "address"
        }
      ],
      "payable": false,
      "stateMutability": "nonpayable",
      "type": "function"
    }
  ],
  "bytecode": "0x608060405234801561001057600080fd5b50610be7806100206000396000f3fe608060405260043610620000665763ffffffff7c010000000000000000000000000000000000000000000000000000000060003504166365a2c10481146200006b578063acf69faf14620000a8578063c0a8cae214620000dc578063c3c5a5471462000110575b600080fd5b3480156200007857600080fd5b50620000906200008a36600462000455565b62000144565b6040516200009f9190620004f3565b60405180910390f35b348015620000b557600080fd5b50620000cd620000c7366004620003b1565b62000171565b6040516200009f91906200056b565b348015620000e957600080fd5b5062000101620000fb36600462000388565b62000225565b6040516200009f91906200057b565b3480156200011d57600080fd5b50620001356200012f36600462000388565b62000240565b6040516200009f91906200055b565b600160a060020a038083166000908152600160209081526040808320858452909152902054165b92915050565b600080878787878787620001846200030f565b620001959695949392919062000503565b604051809103906000f080158015620001b2573d6000803e3d6000fd5b509050620001c181896200025e565b1515620001cd57600080fd5b87600160a060020a03167fea72c58eecde94b2c27b2f646b23e8ce68f148e89b0b8d0ca40406787d9566f7828989898989604051620002129695949392919062000503565b60405180910390a2979650505050505050565b600160a060020a031660009081526002602052604090205490565b600160a060020a031660009081526020819052604090205460ff1690565b600160a060020a03811660009081526002602052604081205481906200028c90600163ffffffff620002f816565b600160a060020a03808516600090815260026020908152604080832085905560018083528184209584529482528083208054948a1673ffffffffffffffffffffffffffffffffffffffff199095168517905592825281905220805460ff19168217905591505092915050565b6000828201838110156200030857fe5b9392505050565b6040516105de80620005d083390190565b60006200030882356200058b565b60006200030882356200059d565b600080601f830184136200034f57600080fd5b50813567ffffffffffffffff8111156200036857600080fd5b6020830191508360018202830111156200038157600080fd5b9250929050565b6000602082840312156200039b57600080fd5b6000620003a9848462000320565b949350505050565b60008060008060008060808789031215620003cb57600080fd5b6000620003d9898962000320565b965050602087013567ffffffffffffffff811115620003f757600080fd5b6200040589828a016200033c565b9550955050604087013567ffffffffffffffff8111156200042557600080fd5b6200043389828a016200033c565b935093505060606200044889828a016200032e565b9150509295509295509295565b600080604083850312156200046957600080fd5b600062000477858562000320565b92505060206200048a858286016200032e565b9150509250929050565b6200049f816200058b565b82525050565b6200049f8162000598565b6200049f816200059d565b6200049f81620005ac565b6000828452602084019350620004de838584620005b9565b620004e983620005c5565b9093019392505050565b602081016200016b828462000494565b6080810162000513828962000494565b818103602083015262000528818789620004c6565b905081810360408301526200053f818587620004c6565b9050620005506060830184620004b0565b979650505050505050565b602081016200016b8284620004a5565b602081016200016b8284620004bb565b602081016200016b8284620004b0565b60006200016b82620005a0565b151590565b90565b600160a060020a031690565b60006200016b826200058b565b82818337506000910152565b601f01601f19169056fe608060405234801561001057600080fd5b506040516105de3803806105de8339810180604052610032919081019061018f565b60008054600160a060020a031916600160a060020a0386161790558251610060906001906020860190610081565b508151610074906002906020850190610081565b50600355506102b8915050565b828054600181600116156101000203166002900490600052602060002090601f016020900481019282601f106100c257805160ff19168380011785556100ef565b828001600101855582156100ef579182015b828111156100ef5782518255916020019190600101906100d4565b506100fb9291506100ff565b5090565b61011991905b808211156100fb5760008155600101610105565b90565b60006101288251610277565b9392505050565b60006101288251610119565b6000601f8201831361014c57600080fd5b815161015f61015a82610244565b61021e565b9150808252602083016020830185838301111561017b57600080fd5b610186838284610288565b50505092915050565b600080600080608085870312156101a557600080fd5b60006101b1878761011c565b94505060208501516001604060020a038111156101cd57600080fd5b6101d98782880161013b565b93505060408501516001604060020a038111156101f557600080fd5b6102018782880161013b565b92505060606102128782880161012f565b91505092959194509250565b6040518181016001604060020a038111828210171561023c57600080fd5b604052919050565b60006001604060020a0382111561025a57600080fd5b506020601f91909101601f19160190565b600160a060020a031690565b60006102828261026b565b92915050565b60005b838110156102a357818101518382015260200161028b565b838111156102b2576000848401525b50505050565b610317806102c76000396000f3fe6080604052600436106100615763ffffffff7c0100000000000000000000000000000000000000000000000000000000600035041663358982a3811461006657806388fc56c0146100915780638a7423cc146100a6578063deff41c1146100c8575b600080fd5b34801561007257600080fd5b5061007b6100ea565b6040516100889190610260565b60405180910390f35b34801561009d57600080fd5b5061007b610177565b3480156100b257600080fd5b506100bb6101cf565b6040516100889190610252565b3480156100d457600080fd5b506100dd6101d5565b604051610088919061023e565b60018054604080516020600284861615610100026000190190941693909304601f8101849004840282018401909252818152929183018282801561016f5780601f106101445761010080835404028352916020019161016f565b820191906000526020600020905b81548152906001019060200180831161015257829003601f168201915b505050505081565b6002805460408051602060018416156101000260001901909316849004601f8101849004840282018401909252818152929183018282801561016f5780601f106101445761010080835404028352916020019161016f565b60035481565b60005473ffffffffffffffffffffffffffffffffffffffff1681565b6101fa8161027c565b82525050565b6101fa81610287565b600061021482610278565b8084526102288160208601602086016102a3565b610231816102d3565b9093016020019392505050565b6020810161024c82846101f1565b92915050565b6020810161024c8284610200565b602080825281016102718184610209565b9392505050565b5190565b600061024c8261028a565b90565b73ffffffffffffffffffffffffffffffffffffffff1690565b60005b838110156102be5781810151838201526020016102a6565b838111156102cd576000848401525b50505050565b601f01601f19169056fea265627a7a72305820bb12064d179e2d5857a9f0667858aa8d03e08bc5dc1a041cf2659bcddadfb4dc6c6578706572696d656e74616cf50037a265627a7a723058200c3c0c72b4d8eae6e77d58531b7b36b86501a7e7a43e23f8702940aa4716a8d06c6578706572696d656e74616cf50037",
  "source": "pragma solidity ^0.5.0;\npragma experimental ABIEncoderV2;\n\nimport './App.sol';\nimport './RegistryBase.sol';\n\ncontract AppRegistry is RegistryBase //, OwnableMutable // is Owned by IexecHub\n{\n\tevent CreateApp(\n\t\taddress indexed appOwner,\n\t\taddress         app,\n\t\tstring          appName,\n\t\tstring          appParams,\n\t\tbytes32         appHash);\n\n\t/**\n\t * Constructor\n\t */\n\tconstructor()\n\tpublic\n\t{\n\t}\n\n\t/**\n\t * App creation\n\t */\n\tfunction createApp(\n\t\taddress          _appOwner,\n\t\tstring  calldata _appName,\n\t\tstring  calldata _appParams,\n\t\tbytes32          _appHash)\n\texternal /* onlyOwner /*owner == IexecHub*/ returns (App)\n\t{\n\t\tApp newApp = new App(_appOwner, _appName, _appParams, _appHash);\n\t\trequire(insert(address(newApp), _appOwner));\n\t\temit CreateApp(_appOwner, address(newApp), _appName, _appParams, _appHash);\n\t\treturn newApp;\n\t}\n\n}\n",
  "sourcePath": "/home/amxx/Work/iExec/code/PoCo-dev/contracts/registries/AppRegistry.sol",
  "compiler": {
    "name": "solc",
    "version": "0.5.0+commit.1d4f565a.Emscripten.clang"
  },
  "schemaVersion": "3.0.0-beta.2",
  "updatedAt": "2018-12-03T12:54:15.756Z",
  "devdoc": {
    "methods": {}
  },
  "userdoc": {
    "methods": {
      "constructor": "Constructor",
      "createApp(address,string,string,bytes32)": {
        "notice": "App creation"
      },
      "isRegistered(address)": {
        "notice": "Accessors"
      }
    }
  }
}