{
  "contractName": "AppRegistry",
  "abi": [
    {
      "constant": true,
      "inputs": [
        {
          "name": "_owner",
          "type": "address"
        },
        {
          "name": "_index",
          "type": "uint256"
        }
      ],
      "name": "viewEntry",
      "outputs": [
        {
          "name": "",
          "type": "address"
        }
      ],
      "payable": false,
      "stateMutability": "view",
      "type": "function",
      "signature": "0x65a2c104"
    },
    {
      "constant": true,
      "inputs": [
        {
          "name": "_owner",
          "type": "address"
        }
      ],
      "name": "viewCount",
      "outputs": [
        {
          "name": "",
          "type": "uint256"
        }
      ],
      "payable": false,
      "stateMutability": "view",
      "type": "function",
      "signature": "0xc0a8cae2"
    },
    {
      "constant": true,
      "inputs": [
        {
          "name": "_entry",
          "type": "address"
        }
      ],
      "name": "isRegistered",
      "outputs": [
        {
          "name": "",
          "type": "bool"
        }
      ],
      "payable": false,
      "stateMutability": "view",
      "type": "function",
      "signature": "0xc3c5a547"
    },
    {
      "inputs": [],
      "payable": false,
      "stateMutability": "nonpayable",
      "type": "constructor",
      "signature": "constructor"
    },
    {
      "anonymous": false,
      "inputs": [
        {
          "indexed": true,
          "name": "appOwner",
          "type": "address"
        },
        {
          "indexed": false,
          "name": "app",
          "type": "address"
        }
      ],
      "name": "CreateApp",
      "type": "event",
      "signature": "0x5ba7d57c324ec2334af956c7950558163a5c6871ef98815cd971f14607e97d50"
    },
    {
      "constant": false,
      "inputs": [
        {
          "name": "_appOwner",
          "type": "address"
        },
        {
          "name": "_appName",
          "type": "string"
        },
        {
          "name": "_appMultiaddr",
          "type": "bytes"
        },
        {
          "name": "_appMREnclave",
          "type": "bytes"
        }
      ],
      "name": "createApp",
      "outputs": [
        {
          "name": "",
          "type": "address"
        }
      ],
      "payable": false,
      "stateMutability": "nonpayable",
      "type": "function",
      "signature": "0x44732101"
    }
  ],
  "bytecode": "0x608060405234801561001057600080fd5b50610c4e806100206000396000f3fe608060405260043610620000665763ffffffff7c01000000000000000000000000000000000000000000000000000000006000350416634473210181146200006b57806365a2c10414620000a8578063c0a8cae214620000dc578063c3c5a5471462000110575b600080fd5b3480156200007857600080fd5b50620000906200008a366004620003ad565b62000144565b6040516200009f91906200058e565b60405180910390f35b348015620000b557600080fd5b50620000cd620000c736600462000470565b620001f1565b6040516200009f91906200050e565b348015620000e957600080fd5b5062000101620000fb36600462000384565b6200021e565b6040516200009f91906200059e565b3480156200011d57600080fd5b50620001356200012f36600462000384565b62000239565b6040516200009f91906200057e565b60008088888888888888620001586200030b565b6200016a97969594939291906200051e565b604051809103906000f08015801562000187573d6000803e3d6000fd5b50905062000196818a62000257565b1515620001a257600080fd5b88600160a060020a03167f5ba7d57c324ec2334af956c7950558163a5c6871ef98815cd971f14607e97d5082604051620001dd91906200050e565b60405180910390a298975050505050505050565b600160a060020a038083166000908152600160209081526040808320858452909152902054165b92915050565b600160a060020a031660009081526002602052604090205490565b600160a060020a031660009081526020819052604090205460ff1690565b600160a060020a03811660009081526002602052604081205481906200028590600163ffffffff620002f116565b600160a060020a03808516600090815260026020908152604080832085905560018083528184209584529482528083208054948a1673ffffffffffffffffffffffffffffffffffffffff199095168517905592825281905220805460ff19168217905591505092915050565b6000828201838110156200030457600080fd5b9392505050565b60405161062280620005f383390190565b6000620003048235620005ae565b600080601f830184136200033d57600080fd5b50813567ffffffffffffffff8111156200035657600080fd5b6020830191508360018202830111156200036f57600080fd5b9250929050565b6000620003048235620005cc565b6000602082840312156200039757600080fd5b6000620003a584846200031c565b949350505050565b60008060008060008060006080888a031215620003c957600080fd5b6000620003d78a8a6200031c565b975050602088013567ffffffffffffffff811115620003f557600080fd5b620004038a828b016200032a565b9650965050604088013567ffffffffffffffff8111156200042357600080fd5b620004318a828b016200032a565b9450945050606088013567ffffffffffffffff8111156200045157600080fd5b6200045f8a828b016200032a565b925092505092959891949750929550565b600080604083850312156200048457600080fd5b60006200049285856200031c565b9250506020620004a58582860162000376565b9150509250929050565b620004ba81620005ae565b82525050565b620004ba81620005bb565b6000828452602084019350620004e3838584620005dc565b620004ee83620005e8565b9093019392505050565b620004ba81620005cf565b620004ba81620005cc565b60208101620002188284620004af565b608081016200052e828a620004af565b81810360208301526200054381888a620004cb565b905081810360408301526200055a818688620004cb565b9050818103606083015262000571818486620004cb565b9998505050505050505050565b60208101620002188284620004c0565b60208101620002188284620004f8565b6020810162000218828462000503565b60006200021882620005c0565b151590565b600160a060020a031690565b90565b60006200021882620005ae565b82818337506000910152565b601f01601f19169056fe608060405234801561001057600080fd5b5060405161062238038061062283398101806040526100329190810190610194565b60008054600160a060020a031916600160a060020a0386161790558251610060906001906020860190610092565b508151610074906002906020850190610092565b508051610088906003906020840190610092565b50505050506102d4565b828054600181600116156101000203166002900490600052602060002090601f016020900481019282601f106100d357805160ff1916838001178555610100565b82800160010185558215610100579182015b828111156101005782518255916020019190600101906100e5565b5061010c929150610110565b5090565b61012a91905b8082111561010c5760008155600101610116565b90565b60006101398251610293565b9392505050565b6000601f8201831361015157600080fd5b815161016461015f82610260565b61023a565b9150808252602083016020830185838301111561018057600080fd5b61018b8382846102a4565b50505092915050565b600080600080608085870312156101aa57600080fd5b60006101b6878761012d565b94505060208501516001604060020a038111156101d257600080fd5b6101de87828801610140565b93505060408501516001604060020a038111156101fa57600080fd5b61020687828801610140565b92505060608501516001604060020a0381111561022257600080fd5b61022e87828801610140565b91505092959194509250565b6040518181016001604060020a038111828210171561025857600080fd5b604052919050565b60006001604060020a0382111561027657600080fd5b506020601f91909101601f19160190565b600160a060020a031690565b600061029e82610287565b92915050565b60005b838110156102bf5781810151838201526020016102a7565b838111156102ce576000848401525b50505050565b61033f806102e36000396000f3fe6080604052600436106100615763ffffffff7c0100000000000000000000000000000000000000000000000000000000600035041663358982a3811461006657806339e75d4514610091578063deff41c1146100a6578063e30d26a8146100c8575b600080fd5b34801561007257600080fd5b5061007b6100dd565b6040516100889190610291565b60405180910390f35b34801561009d57600080fd5b5061007b61016a565b3480156100b257600080fd5b506100bb6101c2565b604051610088919061027d565b3480156100d457600080fd5b5061007b6101de565b60018054604080516020600284861615610100026000190190941693909304601f810184900484028201840190925281815292918301828280156101625780601f1061013757610100808354040283529160200191610162565b820191906000526020600020905b81548152906001019060200180831161014557829003601f168201915b505050505081565b6002805460408051602060018416156101000260001901909316849004601f810184900484028201840190925281815292918301828280156101625780601f1061013757610100808354040283529160200191610162565b60005473ffffffffffffffffffffffffffffffffffffffff1681565b6003805460408051602060026001851615610100026000190190941693909304601f810184900484028201840190925281815292918301828280156101625780601f1061013757610100808354040283529160200191610162565b610242816102ad565b82525050565b6000610253826102a9565b8084526102678160208601602086016102cb565b610270816102fb565b9093016020019392505050565b6020810161028b8284610239565b92915050565b602080825281016102a28184610248565b9392505050565b5190565b600073ffffffffffffffffffffffffffffffffffffffff821661028b565b60005b838110156102e65781810151838201526020016102ce565b838111156102f5576000848401525b50505050565b601f01601f19169056fea265627a7a72305820b088ca8b741237adb72772027f5adb03a0ee87f54536e540fe78ee3785bf39056c6578706572696d656e74616cf50037a265627a7a723058204f8a89519c38b56d39ac354f53b8fd1b812fc7bbb19f670bada4e3c1538fe61e6c6578706572696d656e74616cf50037",
  "source": "pragma solidity ^0.5.0;\npragma experimental ABIEncoderV2;\n\nimport './App.sol';\nimport './RegistryBase.sol';\n\ncontract AppRegistry is RegistryBase //, OwnableMutable // is Owned by IexecHub\n{\n\tevent CreateApp(address indexed appOwner, address app);\n\n\t/**\n\t * Constructor\n\t */\n\tconstructor()\n\tpublic\n\t{\n\t}\n\n\t/**\n\t * App creation\n\t */\n\tfunction createApp(\n\t\taddress          _appOwner,\n\t\tstring  calldata _appName,\n\t\tbytes   calldata _appMultiaddr,\n\t\tbytes   calldata _appMREnclave)\n\texternal /* onlyOwner /*owner == IexecHub*/ returns (App)\n\t{\n\t\tApp newApp = new App(_appOwner, _appName, _appMultiaddr, _appMREnclave);\n\t\trequire(insert(address(newApp), _appOwner));\n\t\temit CreateApp(_appOwner, address(newApp));\n\t\treturn newApp;\n\t}\n\n}\n",
  "sourcePath": "/home/amxx/Work/iExec/code/PoCo/contracts/registries/AppRegistry.sol",
  "compiler": {
    "name": "solc",
    "version": "0.5.0+commit.1d4f565a.Emscripten.clang"
  },
  "schemaVersion": "3.0.1",
  "updatedAt": "2019-01-25T13:16:50.084Z",
  "devdoc": {
    "methods": {}
  },
  "userdoc": {
    "methods": {
      "constructor": "Constructor",
      "createApp(address,string,bytes,bytes)": {
        "notice": "App creation"
      },
      "isRegistered(address)": {
        "notice": "Accessors"
      }
    }
  }
}