{
  "contractName": "Broker",
  "abi": [
    {
      "constant": true,
      "inputs": [
        {
          "name": "",
          "type": "address"
        }
      ],
      "name": "m_preferences",
      "outputs": [
        {
          "name": "reward",
          "type": "uint256"
        },
        {
          "name": "maxgasprice",
          "type": "uint256"
        }
      ],
      "payable": false,
      "stateMutability": "view",
      "type": "function"
    },
    {
      "constant": true,
      "inputs": [
        {
          "name": "",
          "type": "address"
        }
      ],
      "name": "m_balance",
      "outputs": [
        {
          "name": "",
          "type": "uint256"
        }
      ],
      "payable": false,
      "stateMutability": "view",
      "type": "function"
    },
    {
      "constant": true,
      "inputs": [],
      "name": "iexecclerk",
      "outputs": [
        {
          "name": "",
          "type": "address"
        }
      ],
      "payable": false,
      "stateMutability": "view",
      "type": "function"
    },
    {
      "inputs": [
        {
          "name": "_iexecclerk",
          "type": "address"
        }
      ],
      "payable": false,
      "stateMutability": "nonpayable",
      "type": "constructor"
    },
    {
      "payable": true,
      "stateMutability": "payable",
      "type": "fallback"
    },
    {
      "constant": false,
      "inputs": [],
      "name": "deposit",
      "outputs": [],
      "payable": true,
      "stateMutability": "payable",
      "type": "function"
    },
    {
      "constant": false,
      "inputs": [
        {
          "name": "_account",
          "type": "address"
        }
      ],
      "name": "depositFor",
      "outputs": [],
      "payable": true,
      "stateMutability": "payable",
      "type": "function"
    },
    {
      "constant": false,
      "inputs": [
        {
          "name": "_amount",
          "type": "uint256"
        }
      ],
      "name": "withdraw",
      "outputs": [],
      "payable": false,
      "stateMutability": "nonpayable",
      "type": "function"
    },
    {
      "constant": false,
      "inputs": [
        {
          "name": "_reward",
          "type": "uint256"
        },
        {
          "name": "_maxgasprice",
          "type": "uint256"
        }
      ],
      "name": "setPreferences",
      "outputs": [],
      "payable": false,
      "stateMutability": "nonpayable",
      "type": "function"
    },
    {
      "constant": false,
      "inputs": [
        {
          "components": [
            {
              "name": "dapp",
              "type": "address"
            },
            {
              "name": "dappprice",
              "type": "uint256"
            },
            {
              "name": "volume",
              "type": "uint256"
            },
            {
              "name": "tag",
              "type": "uint256"
            },
            {
              "name": "datarestrict",
              "type": "address"
            },
            {
              "name": "poolrestrict",
              "type": "address"
            },
            {
              "name": "userrestrict",
              "type": "address"
            },
            {
              "name": "salt",
              "type": "bytes32"
            },
            {
              "components": [
                {
                  "name": "v",
                  "type": "uint8"
                },
                {
                  "name": "r",
                  "type": "bytes32"
                },
                {
                  "name": "s",
                  "type": "bytes32"
                }
              ],
              "name": "sign",
              "type": "tuple"
            }
          ],
          "name": "_dapporder",
          "type": "tuple"
        },
        {
          "components": [
            {
              "name": "data",
              "type": "address"
            },
            {
              "name": "dataprice",
              "type": "uint256"
            },
            {
              "name": "volume",
              "type": "uint256"
            },
            {
              "name": "tag",
              "type": "uint256"
            },
            {
              "name": "dapprestrict",
              "type": "address"
            },
            {
              "name": "poolrestrict",
              "type": "address"
            },
            {
              "name": "userrestrict",
              "type": "address"
            },
            {
              "name": "salt",
              "type": "bytes32"
            },
            {
              "components": [
                {
                  "name": "v",
                  "type": "uint8"
                },
                {
                  "name": "r",
                  "type": "bytes32"
                },
                {
                  "name": "s",
                  "type": "bytes32"
                }
              ],
              "name": "sign",
              "type": "tuple"
            }
          ],
          "name": "_dataorder",
          "type": "tuple"
        },
        {
          "components": [
            {
              "name": "pool",
              "type": "address"
            },
            {
              "name": "poolprice",
              "type": "uint256"
            },
            {
              "name": "volume",
              "type": "uint256"
            },
            {
              "name": "tag",
              "type": "uint256"
            },
            {
              "name": "category",
              "type": "uint256"
            },
            {
              "name": "trust",
              "type": "uint256"
            },
            {
              "name": "dapprestrict",
              "type": "address"
            },
            {
              "name": "datarestrict",
              "type": "address"
            },
            {
              "name": "userrestrict",
              "type": "address"
            },
            {
              "name": "salt",
              "type": "bytes32"
            },
            {
              "components": [
                {
                  "name": "v",
                  "type": "uint8"
                },
                {
                  "name": "r",
                  "type": "bytes32"
                },
                {
                  "name": "s",
                  "type": "bytes32"
                }
              ],
              "name": "sign",
              "type": "tuple"
            }
          ],
          "name": "_poolorder",
          "type": "tuple"
        },
        {
          "components": [
            {
              "name": "dapp",
              "type": "address"
            },
            {
              "name": "dappmaxprice",
              "type": "uint256"
            },
            {
              "name": "data",
              "type": "address"
            },
            {
              "name": "datamaxprice",
              "type": "uint256"
            },
            {
              "name": "pool",
              "type": "address"
            },
            {
              "name": "poolmaxprice",
              "type": "uint256"
            },
            {
              "name": "requester",
              "type": "address"
            },
            {
              "name": "volume",
              "type": "uint256"
            },
            {
              "name": "tag",
              "type": "uint256"
            },
            {
              "name": "category",
              "type": "uint256"
            },
            {
              "name": "trust",
              "type": "uint256"
            },
            {
              "name": "beneficiary",
              "type": "address"
            },
            {
              "name": "callback",
              "type": "address"
            },
            {
              "name": "params",
              "type": "string"
            },
            {
              "name": "salt",
              "type": "bytes32"
            },
            {
              "components": [
                {
                  "name": "v",
                  "type": "uint8"
                },
                {
                  "name": "r",
                  "type": "bytes32"
                },
                {
                  "name": "s",
                  "type": "bytes32"
                }
              ],
              "name": "sign",
              "type": "tuple"
            }
          ],
          "name": "_userorder",
          "type": "tuple"
        }
      ],
      "name": "matchOrdersForPool",
      "outputs": [
        {
          "name": "",
          "type": "bytes32"
        }
      ],
      "payable": false,
      "stateMutability": "nonpayable",
      "type": "function"
    },
    {
      "constant": false,
      "inputs": [
        {
          "components": [
            {
              "name": "dapp",
              "type": "address"
            },
            {
              "name": "dappprice",
              "type": "uint256"
            },
            {
              "name": "volume",
              "type": "uint256"
            },
            {
              "name": "tag",
              "type": "uint256"
            },
            {
              "name": "datarestrict",
              "type": "address"
            },
            {
              "name": "poolrestrict",
              "type": "address"
            },
            {
              "name": "userrestrict",
              "type": "address"
            },
            {
              "name": "salt",
              "type": "bytes32"
            },
            {
              "components": [
                {
                  "name": "v",
                  "type": "uint8"
                },
                {
                  "name": "r",
                  "type": "bytes32"
                },
                {
                  "name": "s",
                  "type": "bytes32"
                }
              ],
              "name": "sign",
              "type": "tuple"
            }
          ],
          "name": "_dapporder",
          "type": "tuple"
        },
        {
          "components": [
            {
              "name": "data",
              "type": "address"
            },
            {
              "name": "dataprice",
              "type": "uint256"
            },
            {
              "name": "volume",
              "type": "uint256"
            },
            {
              "name": "tag",
              "type": "uint256"
            },
            {
              "name": "dapprestrict",
              "type": "address"
            },
            {
              "name": "poolrestrict",
              "type": "address"
            },
            {
              "name": "userrestrict",
              "type": "address"
            },
            {
              "name": "salt",
              "type": "bytes32"
            },
            {
              "components": [
                {
                  "name": "v",
                  "type": "uint8"
                },
                {
                  "name": "r",
                  "type": "bytes32"
                },
                {
                  "name": "s",
                  "type": "bytes32"
                }
              ],
              "name": "sign",
              "type": "tuple"
            }
          ],
          "name": "_dataorder",
          "type": "tuple"
        },
        {
          "components": [
            {
              "name": "pool",
              "type": "address"
            },
            {
              "name": "poolprice",
              "type": "uint256"
            },
            {
              "name": "volume",
              "type": "uint256"
            },
            {
              "name": "tag",
              "type": "uint256"
            },
            {
              "name": "category",
              "type": "uint256"
            },
            {
              "name": "trust",
              "type": "uint256"
            },
            {
              "name": "dapprestrict",
              "type": "address"
            },
            {
              "name": "datarestrict",
              "type": "address"
            },
            {
              "name": "userrestrict",
              "type": "address"
            },
            {
              "name": "salt",
              "type": "bytes32"
            },
            {
              "components": [
                {
                  "name": "v",
                  "type": "uint8"
                },
                {
                  "name": "r",
                  "type": "bytes32"
                },
                {
                  "name": "s",
                  "type": "bytes32"
                }
              ],
              "name": "sign",
              "type": "tuple"
            }
          ],
          "name": "_poolorder",
          "type": "tuple"
        },
        {
          "components": [
            {
              "name": "dapp",
              "type": "address"
            },
            {
              "name": "dappmaxprice",
              "type": "uint256"
            },
            {
              "name": "data",
              "type": "address"
            },
            {
              "name": "datamaxprice",
              "type": "uint256"
            },
            {
              "name": "pool",
              "type": "address"
            },
            {
              "name": "poolmaxprice",
              "type": "uint256"
            },
            {
              "name": "requester",
              "type": "address"
            },
            {
              "name": "volume",
              "type": "uint256"
            },
            {
              "name": "tag",
              "type": "uint256"
            },
            {
              "name": "category",
              "type": "uint256"
            },
            {
              "name": "trust",
              "type": "uint256"
            },
            {
              "name": "beneficiary",
              "type": "address"
            },
            {
              "name": "callback",
              "type": "address"
            },
            {
              "name": "params",
              "type": "string"
            },
            {
              "name": "salt",
              "type": "bytes32"
            },
            {
              "components": [
                {
                  "name": "v",
                  "type": "uint8"
                },
                {
                  "name": "r",
                  "type": "bytes32"
                },
                {
                  "name": "s",
                  "type": "bytes32"
                }
              ],
              "name": "sign",
              "type": "tuple"
            }
          ],
          "name": "_userorder",
          "type": "tuple"
        }
      ],
      "name": "matchOrdersForUser",
      "outputs": [
        {
          "name": "",
          "type": "bytes32"
        }
      ],
      "payable": false,
      "stateMutability": "nonpayable",
      "type": "function"
    }
  ],
  "bytecode": "0x608060405234801561001057600080fd5b5060405160208061115c833981018060405261002f9190810190610067565b60008054600160a060020a031916600160a060020a0392909216919091179055610099565b6000610060825161008d565b9392505050565b60006020828403121561007957600080fd5b60006100858484610054565b949350505050565b600160a060020a031690565b6110b4806100a86000396000f3006080604052600436106100985763ffffffff7c01000000000000000000000000000000000000000000000000000000006000350416632e1a7d4d81146100ca578063693751b5146100ec578063a8d3b3d114610123578063a95e1b3614610150578063aa67c91914610170578063b01c684614610183578063bc11ff73146101a5578063d0e30db0146101c5578063f22e4bf6146101cd575b336000908152600160205260409020546100b8903463ffffffff6101ed16565b33600090815260016020526040902055005b3480156100d657600080fd5b506100ea6100e5366004610b7f565b610203565b005b3480156100f857600080fd5b5061010c610107366004610aa0565b610265565b60405161011a929190610faa565b60405180910390f35b34801561012f57600080fd5b5061014361013e366004610aa0565b61027e565b60405161011a9190610f46565b34801561015c57600080fd5b506100ea61016b366004610b9d565b610290565b6100ea61017e366004610aa0565b6102aa565b34801561018f57600080fd5b506101986102ef565b60405161011a9190610f54565b3480156101b157600080fd5b506101436101c0366004610b02565b6102fe565b6100ea61047a565b3480156101d957600080fd5b506101436101e8366004610b02565b6104ac565b6000828201838110156101fc57fe5b9392505050565b33600090815260016020526040902054610223908263ffffffff61062516565b33600081815260016020526040808220939093559151909183156108fc02918491818181858888f19350505050158015610261573d6000803e3d6000fd5b5050565b6002602052600090815260409020805460019091015482565b60016020526000908152604090205481565b336000908152600260205260409020918255600190910155565b600160a060020a0381166000908152600160205260409020546102d3903463ffffffff6101ed16565b600160a060020a03909116600090815260016020526040902055565b600054600160a060020a031681565b60008060008060005a6000546040517ff19f5d85000000000000000000000000000000000000000000000000000000008152919550600160a060020a03169063f19f5d8590610357908c908c908c908c90600401610f62565b602060405180830381600087803b15801561037157600080fd5b505af1158015610385573d6000803e3d6000fd5b505050506040513d601f19601f820116820180604052506103a99190810190610ae4565b92508560c0015191505a600160a060020a038316600090815260026020526040902060010154908503620153d801906103e9903a9063ffffffff61063c16565b600160a060020a03841660009081526002602090815260408083205460019092529091205492909102019150610425908263ffffffff61062516565b600160a060020a038316600090815260016020526040808220929092559051339183156108fc02918491818181858888f1935050505015801561046c573d6000803e3d6000fd5b509198975050505050505050565b3360009081526001602052604090205461049a903463ffffffff6101ed16565b33600090815260016020526040902055565b60008060008060005a6000546040517ff19f5d85000000000000000000000000000000000000000000000000000000008152919550600160a060020a03169063f19f5d8590610505908c908c908c908c90600401610f62565b602060405180830381600087803b15801561051f57600080fd5b505af1158015610533573d6000803e3d6000fd5b505050506040513d601f19601f820116820180604052506105579190810190610ae4565b92508660000151600160a060020a031663deff41c16040518163ffffffff167c0100000000000000000000000000000000000000000000000000000000028152600401602060405180830381600087803b1580156105b457600080fd5b505af11580156105c8573d6000803e3d6000fd5b505050506040513d601f19601f820116820180604052506105ec9190810190610ac6565b91505a600160a060020a038316600090815260026020526040902060010154908503620153d801906103e9903a9063ffffffff61063c16565b60008282111561063157fe5b508082035b92915050565b600081831061064b57816101fc565b5090919050565b60006101fc8235611018565b60006101fc8251611018565b60006101fc8235611024565b60006101fc8251611024565b6000601f8201831361069357600080fd5b81356106a66106a182610fec565b610fc5565b915080825260208301602083018583830111156106c257600080fd5b6106cd838284611038565b50505092915050565b600061016082840312156106e957600080fd5b6106f4610120610fc5565b905060006107028484610652565b82525060206107138484830161066a565b60208301525060406107278482850161066a565b604083015250606061073b8482850161066a565b606083015250608061074f84828501610652565b60808301525060a061076384828501610652565b60a08301525060c061077784828501610652565b60c08301525060e061078b8482850161066a565b60e0830152506101006107a084828501610a39565b6101008301525092915050565b60006101a082840312156107c057600080fd5b6107cb610160610fc5565b905060006107d98484610652565b82525060206107ea8484830161066a565b60208301525060406107fe8482850161066a565b60408301525060606108128482850161066a565b60608301525060806108268482850161066a565b60808301525060a061083a8482850161066a565b60a08301525060c061084e84828501610652565b60c08301525060e061086284828501610652565b60e08301525061010061087784828501610652565b6101008301525061012061088d8482850161066a565b610120830152506101406108a384828501610a39565b6101408301525092915050565b600061024082840312156108c357600080fd5b6108ce610200610fc5565b905060006108dc8484610652565b82525060206108ed8484830161066a565b602083015250604061090184828501610652565b60408301525060606109158482850161066a565b606083015250608061092984828501610652565b60808301525060a061093d8482850161066a565b60a08301525060c061095184828501610652565b60c08301525060e06109658482850161066a565b60e08301525061010061097a8482850161066a565b610100830152506101206109908482850161066a565b610120830152506101406109a68482850161066a565b610140830152506101606109bc84828501610652565b610160830152506101806109d284828501610652565b610180830152506101a082013567ffffffffffffffff8111156109f457600080fd5b610a0084828501610682565b6101a0830152506101c0610a168482850161066a565b6101c0830152506101e0610a2c84828501610a39565b6101e08301525092915050565b600060608284031215610a4b57600080fd5b610a556060610fc5565b90506000610a638484610a94565b8252506020610a748484830161066a565b6020830152506040610a888482850161066a565b60408301525092915050565b60006101fc8235611027565b600060208284031215610ab257600080fd5b6000610abe8484610652565b949350505050565b600060208284031215610ad857600080fd5b6000610abe848461065e565b600060208284031215610af657600080fd5b6000610abe8484610676565b6000806000806104808587031215610b1957600080fd5b6000610b2587876106d6565b945050610160610b37878288016106d6565b9350506102c0610b49878288016107ad565b92505061046085013567ffffffffffffffff811115610b6757600080fd5b610b73878288016108b0565b91505092959194509250565b600060208284031215610b9157600080fd5b6000610abe848461066a565b60008060408385031215610bb057600080fd5b6000610bbc858561066a565b9250506020610bcd8582860161066a565b9150509250929050565b610be081611018565b82525050565b610be081611024565b610be08161102d565b6000610c0382611014565b808452610c17816020860160208601611044565b610c2081611070565b9093016020019392505050565b8051610160830190610c3f8482610bd7565b506020820151610c526020850182610be6565b506040820151610c656040850182610be6565b506060820151610c786060850182610be6565b506080820151610c8b6080850182610bd7565b5060a0820151610c9e60a0850182610bd7565b5060c0820151610cb160c0850182610bd7565b5060e0820151610cc460e0850182610be6565b50610100820151610cd9610100850182610f06565b50505050565b80516101a0830190610cf18482610bd7565b506020820151610d046020850182610be6565b506040820151610d176040850182610be6565b506060820151610d2a6060850182610be6565b506080820151610d3d6080850182610be6565b5060a0820151610d5060a0850182610be6565b5060c0820151610d6360c0850182610bd7565b5060e0820151610d7660e0850182610bd7565b50610100820151610d8b610100850182610bd7565b50610120820151610da0610120850182610be6565b50610140820151610cd9610140850182610f06565b8051600090610240840190610dca8582610bd7565b506020830151610ddd6020860182610be6565b506040830151610df06040860182610bd7565b506060830151610e036060860182610be6565b506080830151610e166080860182610bd7565b5060a0830151610e2960a0860182610be6565b5060c0830151610e3c60c0860182610bd7565b5060e0830151610e4f60e0860182610be6565b50610100830151610e64610100860182610be6565b50610120830151610e79610120860182610be6565b50610140830151610e8e610140860182610be6565b50610160830151610ea3610160860182610bd7565b50610180830151610eb8610180860182610bd7565b506101a08301518482036101a0860152610ed28282610bf8565b9150506101c0830151610ee96101c0860182610be6565b506101e0830151610efe6101e0860182610f06565b509392505050565b80516060830190610f178482610f3d565b506020820151610f2a6020850182610be6565b506040820151610cd96040850182610be6565b610be081611027565b602081016106368284610be6565b602081016106368284610bef565b6104808101610f718287610c2d565b610f7f610160830186610c2d565b610f8d6102c0830185610cdf565b818103610460830152610fa08184610db5565b9695505050505050565b60408101610fb88285610be6565b6101fc6020830184610be6565b60405181810167ffffffffffffffff81118282101715610fe457600080fd5b604052919050565b600067ffffffffffffffff82111561100357600080fd5b506020601f91909101601f19160190565b5190565b600160a060020a031690565b90565b60ff1690565b600061063682611018565b82818337506000910152565b60005b8381101561105f578181015183820152602001611047565b83811115610cd95750506000910152565b601f01601f1916905600a265627a7a723058200d1681020bffbf74629f9290aeb398c625f615c6d2c2d9eb6ca2b5154b02563d6c6578706572696d656e74616cf50037",
  "source": "pragma solidity ^0.4.25;\npragma experimental ABIEncoderV2;\n\nimport \"./libs/IexecODBLibOrders.sol\";\nimport \"./libs/SafeMathOZ.sol\";\n\nimport \"./IexecClerk.sol\";\n\ncontract Broker\n{\n\tusing SafeMathOZ for uint256;\n\n\tstruct Preferences\n\t{\n\t\tuint reward;\n\t\tuint maxgasprice;\n\t}\n\n\tIexecClerk                      public iexecclerk;\n\tmapping(address => uint256    ) public m_balance;\n\tmapping(address => Preferences) public m_preferences;\n\n\tconstructor(address _iexecclerk)\n\tpublic\n\t{\n\t\tiexecclerk = IexecClerk(_iexecclerk);\n\t}\n\n\tfunction ()\n\tpublic payable\n\t{\n\t\tm_balance[msg.sender] = m_balance[msg.sender].add(msg.value);\n\t}\n\n\tfunction deposit()\n\tpublic payable\n\t{\n\t\tm_balance[msg.sender] = m_balance[msg.sender].add(msg.value);\n\t}\n\n\tfunction depositFor(address _account)\n\tpublic payable\n\t{\n\t\tm_balance[_account] = m_balance[_account].add(msg.value);\n\t}\n\n\tfunction withdraw(uint256 _amount)\n\tpublic\n\t{\n\t\tm_balance[msg.sender] = m_balance[msg.sender].sub(_amount);\n\t\tmsg.sender.transfer(_amount);\n\t}\n\n\tfunction setPreferences(uint256 _reward, uint256 _maxgasprice)\n\tpublic\n\t{\n\t\tm_preferences[msg.sender].reward      = _reward;\n\t\tm_preferences[msg.sender].maxgasprice = _maxgasprice;\n\t}\n\n\tfunction matchOrdersForPool(\n\t\tIexecODBLibOrders.DappOrder _dapporder,\n\t\tIexecODBLibOrders.DataOrder _dataorder,\n\t\tIexecODBLibOrders.PoolOrder _poolorder,\n\t\tIexecODBLibOrders.UserOrder _userorder)\n\tpublic returns (bytes32)\n\t{\n\t\tuint256 gasBefore = gasleft();\n\n\t\tbytes32 dealid = iexecclerk.matchOrders(\n\t\t\t_dapporder,\n\t\t\t_dataorder,\n\t\t\t_poolorder,\n\t\t\t_userorder);\n\n\t\taddress payer = Pool(_poolorder.pool).m_owner();\n\t\tuint256 price = m_preferences[payer].reward + tx.gasprice.min(m_preferences[payer].maxgasprice) * (87000 + gasBefore - gasleft());\n\t\tm_balance[payer] = m_balance[payer].sub(price);\n\t\tmsg.sender.transfer(price);\n\n\t\treturn dealid;\n\t}\n\n\tfunction matchOrdersForUser(\n\t\tIexecODBLibOrders.DappOrder _dapporder,\n\t\tIexecODBLibOrders.DataOrder _dataorder,\n\t\tIexecODBLibOrders.PoolOrder _poolorder,\n\t\tIexecODBLibOrders.UserOrder _userorder)\n\tpublic returns (bytes32)\n\t{\n\t\tuint256 gasBefore = gasleft();\n\n\t\tbytes32 dealid = iexecclerk.matchOrders(\n\t\t\t_dapporder,\n\t\t\t_dataorder,\n\t\t\t_poolorder,\n\t\t\t_userorder);\n\n\t\taddress payer = _userorder.requester;\n\t\tuint256 price = m_preferences[payer].reward + tx.gasprice.min(m_preferences[payer].maxgasprice) * (87000 + gasBefore - gasleft());\n\t\tm_balance[payer] = m_balance[payer].sub(price);\n\t\tmsg.sender.transfer(price);\n\n\t\treturn dealid;\n\t}\n\n\n}\n",
  "sourcePath": "/home/amxx/Work/iExec/code/PoCo-dev/contracts/Broker.sol",
  "compiler": {
    "name": "solc",
    "version": "0.4.25+commit.59dbf8f1.Emscripten.clang"
  },
  "schemaVersion": "3.0.0-beta.1",
  "updatedAt": "2018-11-16T10:57:53.946Z"
}