{
  "contractName": "Broker",
  "abi": [
    {
      "constant": true,
      "inputs": [
        {
          "name": "",
          "type": "address"
        }
      ],
      "name": "m_preferences",
      "outputs": [
        {
          "name": "reward",
          "type": "uint256"
        },
        {
          "name": "maxgasprice",
          "type": "uint256"
        }
      ],
      "payable": false,
      "stateMutability": "view",
      "type": "function",
      "signature": "0x693751b5"
    },
    {
      "constant": true,
      "inputs": [
        {
          "name": "",
          "type": "address"
        }
      ],
      "name": "m_balance",
      "outputs": [
        {
          "name": "",
          "type": "uint256"
        }
      ],
      "payable": false,
      "stateMutability": "view",
      "type": "function",
      "signature": "0xa8d3b3d1"
    },
    {
      "constant": true,
      "inputs": [],
      "name": "iexecclerk",
      "outputs": [
        {
          "name": "",
          "type": "address"
        }
      ],
      "payable": false,
      "stateMutability": "view",
      "type": "function",
      "signature": "0xb01c6846"
    },
    {
      "inputs": [
        {
          "name": "_iexecclerk",
          "type": "address"
        }
      ],
      "payable": false,
      "stateMutability": "nonpayable",
      "type": "constructor",
      "signature": "constructor"
    },
    {
      "payable": true,
      "stateMutability": "payable",
      "type": "fallback"
    },
    {
      "constant": false,
      "inputs": [],
      "name": "deposit",
      "outputs": [],
      "payable": true,
      "stateMutability": "payable",
      "type": "function",
      "signature": "0xd0e30db0"
    },
    {
      "constant": false,
      "inputs": [
        {
          "name": "_account",
          "type": "address"
        }
      ],
      "name": "depositFor",
      "outputs": [],
      "payable": true,
      "stateMutability": "payable",
      "type": "function",
      "signature": "0xaa67c919"
    },
    {
      "constant": false,
      "inputs": [
        {
          "name": "_amount",
          "type": "uint256"
        }
      ],
      "name": "withdraw",
      "outputs": [],
      "payable": false,
      "stateMutability": "nonpayable",
      "type": "function",
      "signature": "0x2e1a7d4d"
    },
    {
      "constant": false,
      "inputs": [
        {
          "name": "_reward",
          "type": "uint256"
        },
        {
          "name": "_maxgasprice",
          "type": "uint256"
        }
      ],
      "name": "setPreferences",
      "outputs": [],
      "payable": false,
      "stateMutability": "nonpayable",
      "type": "function",
      "signature": "0xa95e1b36"
    },
    {
      "constant": false,
      "inputs": [
        {
          "components": [
            {
              "name": "app",
              "type": "address"
            },
            {
              "name": "appprice",
              "type": "uint256"
            },
            {
              "name": "volume",
              "type": "uint256"
            },
            {
              "name": "tag",
              "type": "bytes32"
            },
            {
              "name": "datasetrestrict",
              "type": "address"
            },
            {
              "name": "workerpoolrestrict",
              "type": "address"
            },
            {
              "name": "requesterrestrict",
              "type": "address"
            },
            {
              "name": "salt",
              "type": "bytes32"
            },
            {
              "components": [
                {
                  "name": "v",
                  "type": "uint8"
                },
                {
                  "name": "r",
                  "type": "bytes32"
                },
                {
                  "name": "s",
                  "type": "bytes32"
                }
              ],
              "name": "sign",
              "type": "tuple"
            }
          ],
          "name": "_apporder",
          "type": "tuple"
        },
        {
          "components": [
            {
              "name": "dataset",
              "type": "address"
            },
            {
              "name": "datasetprice",
              "type": "uint256"
            },
            {
              "name": "volume",
              "type": "uint256"
            },
            {
              "name": "tag",
              "type": "bytes32"
            },
            {
              "name": "apprestrict",
              "type": "address"
            },
            {
              "name": "workerpoolrestrict",
              "type": "address"
            },
            {
              "name": "requesterrestrict",
              "type": "address"
            },
            {
              "name": "salt",
              "type": "bytes32"
            },
            {
              "components": [
                {
                  "name": "v",
                  "type": "uint8"
                },
                {
                  "name": "r",
                  "type": "bytes32"
                },
                {
                  "name": "s",
                  "type": "bytes32"
                }
              ],
              "name": "sign",
              "type": "tuple"
            }
          ],
          "name": "_datasetorder",
          "type": "tuple"
        },
        {
          "components": [
            {
              "name": "workerpool",
              "type": "address"
            },
            {
              "name": "workerpoolprice",
              "type": "uint256"
            },
            {
              "name": "volume",
              "type": "uint256"
            },
            {
              "name": "tag",
              "type": "bytes32"
            },
            {
              "name": "category",
              "type": "uint256"
            },
            {
              "name": "trust",
              "type": "uint256"
            },
            {
              "name": "apprestrict",
              "type": "address"
            },
            {
              "name": "datasetrestrict",
              "type": "address"
            },
            {
              "name": "requesterrestrict",
              "type": "address"
            },
            {
              "name": "salt",
              "type": "bytes32"
            },
            {
              "components": [
                {
                  "name": "v",
                  "type": "uint8"
                },
                {
                  "name": "r",
                  "type": "bytes32"
                },
                {
                  "name": "s",
                  "type": "bytes32"
                }
              ],
              "name": "sign",
              "type": "tuple"
            }
          ],
          "name": "_workerpoolorder",
          "type": "tuple"
        },
        {
          "components": [
            {
              "name": "app",
              "type": "address"
            },
            {
              "name": "appmaxprice",
              "type": "uint256"
            },
            {
              "name": "dataset",
              "type": "address"
            },
            {
              "name": "datasetmaxprice",
              "type": "uint256"
            },
            {
              "name": "workerpool",
              "type": "address"
            },
            {
              "name": "workerpoolmaxprice",
              "type": "uint256"
            },
            {
              "name": "requester",
              "type": "address"
            },
            {
              "name": "volume",
              "type": "uint256"
            },
            {
              "name": "tag",
              "type": "bytes32"
            },
            {
              "name": "category",
              "type": "uint256"
            },
            {
              "name": "trust",
              "type": "uint256"
            },
            {
              "name": "beneficiary",
              "type": "address"
            },
            {
              "name": "callback",
              "type": "address"
            },
            {
              "name": "params",
              "type": "string"
            },
            {
              "name": "salt",
              "type": "bytes32"
            },
            {
              "components": [
                {
                  "name": "v",
                  "type": "uint8"
                },
                {
                  "name": "r",
                  "type": "bytes32"
                },
                {
                  "name": "s",
                  "type": "bytes32"
                }
              ],
              "name": "sign",
              "type": "tuple"
            }
          ],
          "name": "_requestorder",
          "type": "tuple"
        }
      ],
      "name": "matchOrdersForPool",
      "outputs": [
        {
          "name": "",
          "type": "bytes32"
        }
      ],
      "payable": false,
      "stateMutability": "nonpayable",
      "type": "function",
      "signature": "0xec651aad"
    },
    {
      "constant": false,
      "inputs": [
        {
          "components": [
            {
              "name": "app",
              "type": "address"
            },
            {
              "name": "appprice",
              "type": "uint256"
            },
            {
              "name": "volume",
              "type": "uint256"
            },
            {
              "name": "tag",
              "type": "bytes32"
            },
            {
              "name": "datasetrestrict",
              "type": "address"
            },
            {
              "name": "workerpoolrestrict",
              "type": "address"
            },
            {
              "name": "requesterrestrict",
              "type": "address"
            },
            {
              "name": "salt",
              "type": "bytes32"
            },
            {
              "components": [
                {
                  "name": "v",
                  "type": "uint8"
                },
                {
                  "name": "r",
                  "type": "bytes32"
                },
                {
                  "name": "s",
                  "type": "bytes32"
                }
              ],
              "name": "sign",
              "type": "tuple"
            }
          ],
          "name": "_apporder",
          "type": "tuple"
        },
        {
          "components": [
            {
              "name": "dataset",
              "type": "address"
            },
            {
              "name": "datasetprice",
              "type": "uint256"
            },
            {
              "name": "volume",
              "type": "uint256"
            },
            {
              "name": "tag",
              "type": "bytes32"
            },
            {
              "name": "apprestrict",
              "type": "address"
            },
            {
              "name": "workerpoolrestrict",
              "type": "address"
            },
            {
              "name": "requesterrestrict",
              "type": "address"
            },
            {
              "name": "salt",
              "type": "bytes32"
            },
            {
              "components": [
                {
                  "name": "v",
                  "type": "uint8"
                },
                {
                  "name": "r",
                  "type": "bytes32"
                },
                {
                  "name": "s",
                  "type": "bytes32"
                }
              ],
              "name": "sign",
              "type": "tuple"
            }
          ],
          "name": "_datasetorder",
          "type": "tuple"
        },
        {
          "components": [
            {
              "name": "workerpool",
              "type": "address"
            },
            {
              "name": "workerpoolprice",
              "type": "uint256"
            },
            {
              "name": "volume",
              "type": "uint256"
            },
            {
              "name": "tag",
              "type": "bytes32"
            },
            {
              "name": "category",
              "type": "uint256"
            },
            {
              "name": "trust",
              "type": "uint256"
            },
            {
              "name": "apprestrict",
              "type": "address"
            },
            {
              "name": "datasetrestrict",
              "type": "address"
            },
            {
              "name": "requesterrestrict",
              "type": "address"
            },
            {
              "name": "salt",
              "type": "bytes32"
            },
            {
              "components": [
                {
                  "name": "v",
                  "type": "uint8"
                },
                {
                  "name": "r",
                  "type": "bytes32"
                },
                {
                  "name": "s",
                  "type": "bytes32"
                }
              ],
              "name": "sign",
              "type": "tuple"
            }
          ],
          "name": "_workerpoolorder",
          "type": "tuple"
        },
        {
          "components": [
            {
              "name": "app",
              "type": "address"
            },
            {
              "name": "appmaxprice",
              "type": "uint256"
            },
            {
              "name": "dataset",
              "type": "address"
            },
            {
              "name": "datasetmaxprice",
              "type": "uint256"
            },
            {
              "name": "workerpool",
              "type": "address"
            },
            {
              "name": "workerpoolmaxprice",
              "type": "uint256"
            },
            {
              "name": "requester",
              "type": "address"
            },
            {
              "name": "volume",
              "type": "uint256"
            },
            {
              "name": "tag",
              "type": "bytes32"
            },
            {
              "name": "category",
              "type": "uint256"
            },
            {
              "name": "trust",
              "type": "uint256"
            },
            {
              "name": "beneficiary",
              "type": "address"
            },
            {
              "name": "callback",
              "type": "address"
            },
            {
              "name": "params",
              "type": "string"
            },
            {
              "name": "salt",
              "type": "bytes32"
            },
            {
              "components": [
                {
                  "name": "v",
                  "type": "uint8"
                },
                {
                  "name": "r",
                  "type": "bytes32"
                },
                {
                  "name": "s",
                  "type": "bytes32"
                }
              ],
              "name": "sign",
              "type": "tuple"
            }
          ],
          "name": "_requestorder",
          "type": "tuple"
        }
      ],
      "name": "matchOrdersForRequester",
      "outputs": [
        {
          "name": "",
          "type": "bytes32"
        }
      ],
      "payable": false,
      "stateMutability": "nonpayable",
      "type": "function",
      "signature": "0x9c5d5dba"
    }
  ],
  "bytecode": "0x608060405234801561001057600080fd5b50604051602080611181833981018060405261002f9190810190610067565b60008054600160a060020a031916600160a060020a03929092169190911790556100aa565b60006100608251610099565b9392505050565b60006020828403121561007957600080fd5b60006100858484610054565b949350505050565b600160a060020a031690565b60006100a48261008d565b92915050565b6110c8806100b96000396000f3fe6080604052600436106100985763ffffffff7c01000000000000000000000000000000000000000000000000000000006000350416632e1a7d4d81146100ca578063693751b5146100ec5780639c5d5dba14610123578063a8d3b3d114610150578063a95e1b3614610170578063aa67c91914610190578063b01c6846146101a3578063d0e30db0146101c5578063ec651aad146101cd575b336000908152600160205260409020546100b8903463ffffffff6101ed16565b33600090815260016020526040902055005b3480156100d657600080fd5b506100ea6100e5366004610b85565b610208565b005b3480156100f857600080fd5b5061010c610107366004610aa6565b61026a565b60405161011a929190610fac565b60405180910390f35b34801561012f57600080fd5b5061014361013e366004610b08565b610283565b60405161011a9190610f48565b34801561015c57600080fd5b5061014361016b366004610aa6565b610400565b34801561017c57600080fd5b506100ea61018b366004610ba3565b610412565b6100ea61019e366004610aa6565b61042c565b3480156101af57600080fd5b506101b8610471565b60405161011a9190610f56565b6100ea610480565b3480156101d957600080fd5b506101436101e8366004610b08565b6104b2565b6000828201838110156101ff57600080fd5b90505b92915050565b33600090815260016020526040902054610228908263ffffffff61062d16565b33600081815260016020526040808220939093559151909183156108fc02918491818181858888f19350505050158015610266573d6000803e3d6000fd5b5050565b6002602052600090815260409020805460019091015482565b6000805a600080546040517fbafbf19c0000000000000000000000000000000000000000000000000000000081529293509091600160a060020a039091169063bafbf19c906102dc908a908a908a908a90600401610f64565b602060405180830381600087803b1580156102f657600080fd5b505af115801561030a573d6000803e3d6000fd5b505050506040513d601f19601f8201168201806040525061032e9190810190610aea565b60c085015190915060005a600160a060020a038316600090815260026020526040902060010154908503620153d8019061036f903a9063ffffffff61064216565b600160a060020a038416600090815260026020908152604080832054600190925290912054929091020191506103ab908263ffffffff61062d16565b600160a060020a038316600090815260016020526040808220929092559051339183156108fc02918491818181858888f193505050501580156103f2573d6000803e3d6000fd5b509198975050505050505050565b60016020526000908152604090205481565b336000908152600260205260409020918255600190910155565b600160a060020a038116600090815260016020526040902054610455903463ffffffff6101ed16565b600160a060020a03909116600090815260016020526040902055565b600054600160a060020a031681565b336000908152600160205260409020546104a0903463ffffffff6101ed16565b33600090815260016020526040902055565b6000805a600080546040517fbafbf19c0000000000000000000000000000000000000000000000000000000081529293509091600160a060020a039091169063bafbf19c9061050b908a908a908a908a90600401610f64565b602060405180830381600087803b15801561052557600080fd5b505af1158015610539573d6000803e3d6000fd5b505050506040513d601f19601f8201168201806040525061055d9190810190610aea565b905060008560000151600160a060020a031663deff41c16040518163ffffffff167c010000000000000000000000000000000000000000000000000000000002815260040160206040518083038186803b1580156105ba57600080fd5b505afa1580156105ce573d6000803e3d6000fd5b505050506040513d601f19601f820116820180604052506105f29190810190610acc565b905060005a600160a060020a038316600090815260026020526040902060010154908503620153d8019061036f903a9063ffffffff61064216565b60008282111561063c57600080fd5b50900390565b600081831061065157816101ff565b5090919050565b60006101ff8235611021565b60006101ff8251611021565b60006101ff823561102c565b60006101ff825161102c565b6000601f8201831361069957600080fd5b81356106ac6106a782610ff5565b610fce565b915080825260208301602083018583830111156106c857600080fd5b6106d383828461104c565b50505092915050565b600061016082840312156106ef57600080fd5b6106fa610120610fce565b905060006107088484610658565b825250602061071984848301610670565b602083015250604061072d84828501610670565b604083015250606061074184828501610670565b606083015250608061075584828501610658565b60808301525060a061076984828501610658565b60a08301525060c061077d84828501610658565b60c08301525060e061079184828501610670565b60e0830152506101006107a684828501610a3f565b6101008301525092915050565b600061024082840312156107c657600080fd5b6107d1610200610fce565b905060006107df8484610658565b82525060206107f084848301610670565b602083015250604061080484828501610658565b604083015250606061081884828501610670565b606083015250608061082c84828501610658565b60808301525060a061084084828501610670565b60a08301525060c061085484828501610658565b60c08301525060e061086884828501610670565b60e08301525061010061087d84828501610670565b6101008301525061012061089384828501610670565b610120830152506101406108a984828501610670565b610140830152506101606108bf84828501610658565b610160830152506101806108d584828501610658565b610180830152506101a082013567ffffffffffffffff8111156108f757600080fd5b61090384828501610688565b6101a0830152506101c061091984828501610670565b6101c0830152506101e061092f84828501610a3f565b6101e08301525092915050565b60006101a0828403121561094f57600080fd5b61095a610160610fce565b905060006109688484610658565b825250602061097984848301610670565b602083015250604061098d84828501610670565b60408301525060606109a184828501610670565b60608301525060806109b584828501610670565b60808301525060a06109c984828501610670565b60a08301525060c06109dd84828501610658565b60c08301525060e06109f184828501610658565b60e083015250610100610a0684828501610658565b61010083015250610120610a1c84828501610670565b61012083015250610140610a3284828501610a3f565b6101408301525092915050565b600060608284031215610a5157600080fd5b610a5b6060610fce565b90506000610a698484610a9a565b8252506020610a7a84848301610670565b6020830152506040610a8e84828501610670565b60408301525092915050565b60006101ff823561103b565b600060208284031215610ab857600080fd5b6000610ac48484610658565b949350505050565b600060208284031215610ade57600080fd5b6000610ac48484610664565b600060208284031215610afc57600080fd5b6000610ac4848461067c565b6000806000806104808587031215610b1f57600080fd5b6000610b2b87876106dc565b945050610160610b3d878288016106dc565b9350506102c0610b4f8782880161093c565b92505061046085013567ffffffffffffffff811115610b6d57600080fd5b610b79878288016107b3565b91505092959194509250565b600060208284031215610b9757600080fd5b6000610ac48484610670565b60008060408385031215610bb657600080fd5b6000610bc28585610670565b9250506020610bd385828601610670565b9150509250929050565b610be681611021565b82525050565b610be68161102c565b610be681611041565b6000610c098261101d565b808452610c1d816020860160208601611058565b610c2681611084565b9093016020019392505050565b8051610160830190610c458482610bdd565b506020820151610c586020850182610bec565b506040820151610c6b6040850182610bec565b506060820151610c7e6060850182610bec565b506080820151610c916080850182610bdd565b5060a0820151610ca460a0850182610bdd565b5060c0820151610cb760c0850182610bdd565b5060e0820151610cca60e0850182610bec565b50610100820151610cdf610100850182610f08565b50505050565b8051600090610240840190610cfa8582610bdd565b506020830151610d0d6020860182610bec565b506040830151610d206040860182610bdd565b506060830151610d336060860182610bec565b506080830151610d466080860182610bdd565b5060a0830151610d5960a0860182610bec565b5060c0830151610d6c60c0860182610bdd565b5060e0830151610d7f60e0860182610bec565b50610100830151610d94610100860182610bec565b50610120830151610da9610120860182610bec565b50610140830151610dbe610140860182610bec565b50610160830151610dd3610160860182610bdd565b50610180830151610de8610180860182610bdd565b506101a08301518482036101a0860152610e028282610bfe565b9150506101c0830151610e196101c0860182610bec565b506101e0830151610e2e6101e0860182610f08565b509392505050565b80516101a0830190610e488482610bdd565b506020820151610e5b6020850182610bec565b506040820151610e6e6040850182610bec565b506060820151610e816060850182610bec565b506080820151610e946080850182610bec565b5060a0820151610ea760a0850182610bec565b5060c0820151610eba60c0850182610bdd565b5060e0820151610ecd60e0850182610bdd565b50610100820151610ee2610100850182610bdd565b50610120820151610ef7610120850182610bec565b50610140820151610cdf6101408501825b80516060830190610f198482610f3f565b506020820151610f2c6020850182610bec565b506040820151610cdf6040850182610bec565b610be68161103b565b602081016102028284610bec565b602081016102028284610bf5565b6104808101610f738287610c33565b610f81610160830186610c33565b610f8f6102c0830185610e36565b818103610460830152610fa28184610ce5565b9695505050505050565b60408101610fba8285610bec565b610fc76020830184610bec565b9392505050565b60405181810167ffffffffffffffff81118282101715610fed57600080fd5b604052919050565b600067ffffffffffffffff82111561100c57600080fd5b506020601f91909101601f19160190565b5190565b60006102028261102f565b90565b600160a060020a031690565b60ff1690565b600061020282611021565b82818337506000910152565b60005b8381101561107357818101518382015260200161105b565b83811115610cdf5750506000910152565b601f01601f19169056fea265627a7a7230582076ef1a22daba9cb60d5c930c4812c1e18623e87835c0191c2f691ab0feab35806c6578706572696d656e74616cf50037",
  "source": "pragma solidity ^0.5.0;\npragma experimental ABIEncoderV2;\n\nimport \"../node_modules/iexec-solidity/contracts/Libs/SafeMath.sol\";\n\nimport \"./libs/IexecODBLibOrders.sol\";\nimport \"./IexecClerk.sol\";\n\ncontract Broker\n{\n\tusing SafeMath for uint256;\n\n\tstruct Preferences\n\t{\n\t\tuint reward;\n\t\tuint maxgasprice;\n\t}\n\n\tIexecClerk                      public iexecclerk;\n\tmapping(address => uint256    ) public m_balance;\n\tmapping(address => Preferences) public m_preferences;\n\n\tconstructor(address _iexecclerk)\n\tpublic\n\t{\n\t\tiexecclerk = IexecClerk(_iexecclerk);\n\t}\n\n\tfunction ()\n\texternal payable\n\t{\n\t\tm_balance[msg.sender] = m_balance[msg.sender].add(msg.value);\n\t}\n\n\tfunction deposit()\n\texternal payable\n\t{\n\t\tm_balance[msg.sender] = m_balance[msg.sender].add(msg.value);\n\t}\n\n\tfunction depositFor(address _account)\n\texternal payable\n\t{\n\t\tm_balance[_account] = m_balance[_account].add(msg.value);\n\t}\n\n\tfunction withdraw(uint256 _amount)\n\texternal\n\t{\n\t\tm_balance[msg.sender] = m_balance[msg.sender].sub(_amount);\n\t\tmsg.sender.transfer(_amount);\n\t}\n\n\tfunction setPreferences(uint256 _reward, uint256 _maxgasprice)\n\texternal\n\t{\n\t\tm_preferences[msg.sender].reward      = _reward;\n\t\tm_preferences[msg.sender].maxgasprice = _maxgasprice;\n\t}\n\n\tfunction matchOrdersForPool(\n\t\tIexecODBLibOrders.AppOrder        memory _apporder,\n\t\tIexecODBLibOrders.DatasetOrder    memory _datasetorder,\n\t\tIexecODBLibOrders.WorkerpoolOrder memory _workerpoolorder,\n\t\tIexecODBLibOrders.RequestOrder    memory _requestorder)\n\tpublic returns (bytes32)\n\t{\n\t\tuint256 gasBefore = gasleft();\n\n\t\tbytes32 dealid = iexecclerk.matchOrders(\n\t\t\t_apporder,\n\t\t\t_datasetorder,\n\t\t\t_workerpoolorder,\n\t\t\t_requestorder);\n\n\t\taddress payer = Workerpool(_workerpoolorder.workerpool).m_owner();\n\t\tuint256 price = m_preferences[payer].reward + tx.gasprice.min(m_preferences[payer].maxgasprice) * (87000 + gasBefore - gasleft());\n\t\tm_balance[payer] = m_balance[payer].sub(price);\n\t\tmsg.sender.transfer(price);\n\n\t\treturn dealid;\n\t}\n\n\tfunction matchOrdersForRequester(\n\t\tIexecODBLibOrders.AppOrder        memory _apporder,\n\t\tIexecODBLibOrders.DatasetOrder    memory _datasetorder,\n\t\tIexecODBLibOrders.WorkerpoolOrder memory _workerpoolorder,\n\t\tIexecODBLibOrders.RequestOrder    memory _requestorder)\n\tpublic returns (bytes32)\n\t{\n\t\tuint256 gasBefore = gasleft();\n\n\t\tbytes32 dealid = iexecclerk.matchOrders(\n\t\t\t_apporder,\n\t\t\t_datasetorder,\n\t\t\t_workerpoolorder,\n\t\t\t_requestorder);\n\n\t\taddress payer = _requestorder.requester;\n\t\tuint256 price = m_preferences[payer].reward + tx.gasprice.min(m_preferences[payer].maxgasprice) * (87000 + gasBefore - gasleft());\n\t\tm_balance[payer] = m_balance[payer].sub(price);\n\t\tmsg.sender.transfer(price);\n\n\t\treturn dealid;\n\t}\n\n\n}\n",
  "sourcePath": "/home/amxx/Work/iExec/code/PoCo/contracts/Broker.sol",
  "compiler": {
    "name": "solc",
    "version": "0.5.0+commit.1d4f565a.Emscripten.clang"
  },
  "schemaVersion": "3.0.1",
  "updatedAt": "2019-01-25T13:16:50.114Z",
  "devdoc": {
    "methods": {}
  },
  "userdoc": {
    "methods": {}
  }
}