{
  "contractName": "CategoryManager",
  "abi": [
    {
      "constant": true,
      "inputs": [],
      "name": "m_owner",
      "outputs": [
        {
          "name": "",
          "type": "address"
        }
      ],
      "payable": false,
      "stateMutability": "view",
      "type": "function"
    },
    {
      "constant": false,
      "inputs": [
        {
          "name": "_newOwner",
          "type": "address"
        }
      ],
      "name": "transferOwnership",
      "outputs": [],
      "payable": false,
      "stateMutability": "nonpayable",
      "type": "function"
    },
    {
      "inputs": [],
      "payable": false,
      "stateMutability": "nonpayable",
      "type": "constructor"
    },
    {
      "anonymous": false,
      "inputs": [
        {
          "indexed": false,
          "name": "catid",
          "type": "uint256"
        },
        {
          "indexed": false,
          "name": "name",
          "type": "string"
        },
        {
          "indexed": false,
          "name": "description",
          "type": "string"
        },
        {
          "indexed": false,
          "name": "workClockTimeRef",
          "type": "uint256"
        }
      ],
      "name": "CreateCategory",
      "type": "event"
    },
    {
      "anonymous": false,
      "inputs": [
        {
          "indexed": true,
          "name": "previousOwner",
          "type": "address"
        },
        {
          "indexed": true,
          "name": "newOwner",
          "type": "address"
        }
      ],
      "name": "OwnershipTransferred",
      "type": "event"
    },
    {
      "constant": true,
      "inputs": [
        {
          "name": "_catid",
          "type": "uint256"
        }
      ],
      "name": "viewCategory",
      "outputs": [
        {
          "components": [
            {
              "name": "name",
              "type": "string"
            },
            {
              "name": "description",
              "type": "string"
            },
            {
              "name": "workClockTimeRef",
              "type": "uint256"
            }
          ],
          "name": "",
          "type": "tuple"
        }
      ],
      "payable": false,
      "stateMutability": "view",
      "type": "function"
    },
    {
      "constant": true,
      "inputs": [],
      "name": "countCategory",
      "outputs": [
        {
          "name": "",
          "type": "uint256"
        }
      ],
      "payable": false,
      "stateMutability": "view",
      "type": "function"
    },
    {
      "constant": false,
      "inputs": [
        {
          "name": "name",
          "type": "string"
        },
        {
          "name": "description",
          "type": "string"
        },
        {
          "name": "workClockTimeRef",
          "type": "uint256"
        }
      ],
      "name": "createCategory",
      "outputs": [
        {
          "name": "",
          "type": "uint256"
        }
      ],
      "payable": false,
      "stateMutability": "nonpayable",
      "type": "function"
    }
  ],
  "bytecode": "0x608060405234801561001057600080fd5b5060008054600160a060020a03191633179055610820806100326000396000f30060806040526004361061006c5763ffffffff7c0100000000000000000000000000000000000000000000000000000000600035041663298503d981146100715780634f5f44ec146100a7578063c140996f146100d4578063deff41c1146100e9578063f2fde38b1461010b575b600080fd5b34801561007d57600080fd5b5061009161008c36600461058c565b61012d565b60405161009e91906106e7565b60405180910390f35b3480156100b357600080fd5b506100c76100c2366004610608565b61021a565b60405161009e91906106d6565b3480156100e057600080fd5b5061009161038f565b3480156100f557600080fd5b506100fe610396565b60405161009e91906106c2565b34801561011757600080fd5b5061012b610126366004610566565b6103a5565b005b600080548190600160a060020a0316331461014757600080fd5b6040805160608101825286815260208082018790529181018590526001805480820180835560009290925282518051929460039092027fb10e2d527612073b26eecdfd717e6a320cf44b4afac2b0732d9fcbe2b7fa0cf601926101ad9284920190610439565b5060208281015180516101c69260018501920190610439565b5060408201518160020155505090507f62bf08360c9d561749c54eaf4f8bf8cb6c8b6f4f40607bcec39a8172e714d25c8186868660405161020a94939291906106f5565b60405180910390a1949350505050565b6102226104b7565b600180548390811061023057fe5b600091825260209182902060408051600393909302909101805460026001821615610100026000190190911604601f81018590049094028301608090810190925260608301848152929390928492909184918401828280156102d35780601f106102a8576101008083540402835291602001916102d3565b820191906000526020600020905b8154815290600101906020018083116102b657829003601f168201915b50505050508152602001600182018054600181600116156101000203166002900480601f0160208091040260200160405190810160405280929190818152602001828054600181600116156101000203166002900480156103755780601f1061034a57610100808354040283529160200191610375565b820191906000526020600020905b81548152906001019060200180831161035857829003601f168201915b505050505081526020016002820154815250509050919050565b6001545b90565b600054600160a060020a031681565b600054600160a060020a031633146103bc57600080fd5b600160a060020a03811615156103d157600080fd5b60008054604051600160a060020a03808516939216917f8be0079c531659141344cd1fd0a4f28419497f9722a3daafe3b4186f6b6457e091a36000805473ffffffffffffffffffffffffffffffffffffffff1916600160a060020a0392909216919091179055565b828054600181600116156101000203166002900490600052602060002090601f016020900481019282601f1061047a57805160ff19168380011785556104a7565b828001600101855582156104a7579182015b828111156104a757825182559160200191906001019061048c565b506104b39291506104d9565b5090565b6060604051908101604052806060815260200160608152602001600081525090565b61039391905b808211156104b357600081556001016104df565b60006104ff8235610794565b9392505050565b6000601f8201831361051757600080fd5b813561052a61052582610768565b610741565b9150808252602083016020830185838301111561054657600080fd5b6105518382846107a0565b50505092915050565b60006104ff8235610393565b60006020828403121561057857600080fd5b600061058484846104f3565b949350505050565b6000806000606084860312156105a157600080fd5b833567ffffffffffffffff8111156105b857600080fd5b6105c486828701610506565b935050602084013567ffffffffffffffff8111156105e157600080fd5b6105ed86828701610506565b92505060406105fe8682870161055a565b9150509250925092565b60006020828403121561061a57600080fd5b6000610584848461055a565b61062f81610794565b82525050565b600061064082610790565b8084526106548160208601602086016107ac565b61065d816107dc565b9093016020019392505050565b80516060808452600091908401906106828282610635565b9150506020830151848203602086015261069c8282610635565b91505060408301516106b160408601826106b9565b509392505050565b61062f81610393565b602081016106d08284610626565b92915050565b602080825281016104ff818461066a565b602081016106d082846106b9565b6080810161070382876106b9565b81810360208301526107158186610635565b905081810360408301526107298185610635565b905061073860608301846106b9565b95945050505050565b60405181810167ffffffffffffffff8111828210171561076057600080fd5b604052919050565b600067ffffffffffffffff82111561077f57600080fd5b506020601f91909101601f19160190565b5190565b600160a060020a031690565b82818337506000910152565b60005b838110156107c75781810151838201526020016107af565b838111156107d6576000848401525b50505050565b601f01601f1916905600a265627a7a723058205ab3808358f2949d01f9744046d3ccf67988b0fa86cacc3362b22b398bf1d0886c6578706572696d656e74616cf50037",
  "source": "pragma solidity ^0.4.25;\npragma experimental ABIEncoderV2;\n\nimport \"./libs/IexecODBLibCore.sol\";\nimport \"./tools/Ownable.sol\";\n\ncontract CategoryManager is OwnableMutable\n{\n\t/**\n\t * Content\n\t */\n\tIexecODBLibCore.Category[] m_categories;\n\n\t/**\n\t * Event\n\t */\n\tevent CreateCategory(\n\t\tuint256 catid,\n\t\tstring  name,\n\t\tstring  description,\n\t\tuint256 workClockTimeRef);\n\n\t/**\n\t * Constructor\n\t */\n\tconstructor()\n\tpublic\n\t{\n\t}\n\n\t/**\n\t * Accessors\n\t */\n\tfunction viewCategory(uint256 _catid)\n\tpublic view returns (IexecODBLibCore.Category)\n\t{\n\t\treturn m_categories[_catid];\n\t}\n\n\tfunction countCategory()\n\tpublic view returns (uint256)\n\t{\n\t\treturn m_categories.length;\n\t}\n\n\t/**\n\t * Methods\n\t */\n\tfunction createCategory(\n\t\tstring  name,\n\t\tstring  description,\n\t\tuint256 workClockTimeRef)\n\tpublic onlyOwner returns (uint256)\n\t{\n\t\tuint256 catid = m_categories.push(IexecODBLibCore.Category(\n\t\t\tname,\n\t\t\tdescription,\n\t\t\tworkClockTimeRef\n\t\t));\n\t\temit CreateCategory(\n\t\t\tcatid,\n\t\t\tname,\n\t\t\tdescription,\n\t\t\tworkClockTimeRef\n\t\t);\n\t\treturn catid;\n\t}\n\t/**\n\t * TODO: move to struct based initialization ?\n\t *\n\tfunction createCategory(IexecODBLib.Category _category)\n\tpublic onlyOwner returns (uint256)\n\t{\n\t\tuint256 catid = m_categories.push(_category);\n\t\temit CreateCategory(\n\t\t\tcatid,\n\t\t\t_category.name,\n\t\t\t_category.description,\n\t\t\t_category.workClockTimeRef\n\t\t);\n\t\treturn catid;\n\t}\n\t*/\n\n}\n",
  "sourcePath": "/home/amxx/Work/iExec/code/PoCo-dev/contracts/CategoryManager.sol",
  "compiler": {
    "name": "solc",
    "version": "0.4.25+commit.59dbf8f1.Emscripten.clang"
  },
  "schemaVersion": "3.0.0-beta.1",
  "updatedAt": "2018-11-16T10:52:08.632Z"
}