{
  "contractName": "DataRegistry",
  "abi": [
    {
      "constant": true,
      "inputs": [
        {
          "name": "_owner",
          "type": "address"
        },
        {
          "name": "_index",
          "type": "uint256"
        }
      ],
      "name": "viewEntry",
      "outputs": [
        {
          "name": "",
          "type": "address"
        }
      ],
      "payable": false,
      "stateMutability": "view",
      "type": "function",
      "signature": "0x65a2c104"
    },
    {
      "constant": true,
      "inputs": [
        {
          "name": "_owner",
          "type": "address"
        }
      ],
      "name": "viewCount",
      "outputs": [
        {
          "name": "",
          "type": "uint256"
        }
      ],
      "payable": false,
      "stateMutability": "view",
      "type": "function",
      "signature": "0xc0a8cae2"
    },
    {
      "constant": true,
      "inputs": [
        {
          "name": "_entry",
          "type": "address"
        }
      ],
      "name": "isRegistered",
      "outputs": [
        {
          "name": "",
          "type": "bool"
        }
      ],
      "payable": false,
      "stateMutability": "view",
      "type": "function",
      "signature": "0xc3c5a547"
    },
    {
      "inputs": [],
      "payable": false,
      "stateMutability": "nonpayable",
      "type": "constructor",
      "signature": "constructor"
    },
    {
      "anonymous": false,
      "inputs": [
        {
          "indexed": true,
          "name": "dataOwner",
          "type": "address"
        },
        {
          "indexed": false,
          "name": "data",
          "type": "address"
        },
        {
          "indexed": false,
          "name": "dataName",
          "type": "string"
        },
        {
          "indexed": false,
          "name": "dataParams",
          "type": "string"
        },
        {
          "indexed": false,
          "name": "dataHash",
          "type": "bytes32"
        }
      ],
      "name": "CreateData",
      "type": "event",
      "signature": "0xb238ef76b102bfdab5ff9cb467e257b415bf5233a88176bb543b98133fe37485"
    },
    {
      "constant": false,
      "inputs": [
        {
          "name": "_dataOwner",
          "type": "address"
        },
        {
          "name": "_dataName",
          "type": "string"
        },
        {
          "name": "_dataParams",
          "type": "string"
        },
        {
          "name": "_dataHash",
          "type": "bytes32"
        }
      ],
      "name": "createData",
      "outputs": [
        {
          "name": "",
          "type": "address"
        }
      ],
      "payable": false,
      "stateMutability": "nonpayable",
      "type": "function",
      "signature": "0x29da66f4"
    }
  ],
  "bytecode": "0x608060405234801561001057600080fd5b50610c60806100206000396000f300608060405260043610620000665763ffffffff7c010000000000000000000000000000000000000000000000000000000060003504166329da66f481146200006b57806365a2c10414620000a8578063c0a8cae214620000dc578063c3c5a5471462000110575b600080fd5b3480156200007857600080fd5b50620000906200008a366004620003b9565b62000144565b6040516200009f919062000575565b60405180910390f35b348015620000b557600080fd5b50620000cd620000c736600462000455565b620001ee565b6040516200009f919062000501565b348015620000e957600080fd5b5062000101620000fb36600462000390565b6200021b565b6040516200009f919062000595565b3480156200011d57600080fd5b50620001356200012f36600462000390565b62000236565b6040516200009f919062000565565b600080858585856200015562000307565b62000164949392919062000511565b604051809103906000f08015801562000181573d6000803e3d6000fd5b50905062000190818762000254565b15156200019c57600080fd5b85600160a060020a03167fb238ef76b102bfdab5ff9cb467e257b415bf5233a88176bb543b98133fe3748582878787604051620001dd949392919062000585565b60405180910390a295945050505050565b600160a060020a038083166000908152600160209081526040808320858452909152902054165b92915050565b600160a060020a031660009081526002602052604090205490565b600160a060020a031660009081526020819052604090205460ff1690565b600160a060020a03811660009081526002602052604081205481906200028290600163ffffffff620002f016565b600160a060020a0393841660009081526002602090815260408083208490556001808352818420948452938252808320805473ffffffffffffffffffffffffffffffffffffffff1916989097169788179096559581529485905292909320805460ff19168317905550919050565b6000828201838110156200030057fe5b9392505050565b6040516105c2806200066583390190565b6000620003008235620005fa565b60006200030082356200060b565b6000601f820183136200034657600080fd5b81356200035d6200035782620005cd565b620005a5565b915080825260208301602083018583830111156200037a57600080fd5b620003878382846200061b565b50505092915050565b600060208284031215620003a357600080fd5b6000620003b1848462000318565b949350505050565b60008060008060808587031215620003d057600080fd5b6000620003de878762000318565b945050602085013567ffffffffffffffff811115620003fc57600080fd5b6200040a8782880162000334565b935050604085013567ffffffffffffffff8111156200042857600080fd5b620004368782880162000334565b9250506060620004498782880162000326565b91505092959194509250565b600080604083850312156200046957600080fd5b600062000477858562000318565b92505060206200048a8582860162000326565b9150509250929050565b6200049f81620005fa565b82525050565b6200049f8162000606565b6200049f816200060b565b6200049f816200060e565b6000620004d382620005f6565b808452620004e981602086016020860162000627565b620004f4816200065a565b9093016020019392505050565b6020810162000215828462000494565b6080810162000521828762000494565b8181036020830152620005358186620004c6565b905081810360408301526200054b8185620004c6565b90506200055c6060830184620004b0565b95945050505050565b60208101620002158284620004a5565b60208101620002158284620004bb565b60808101620005218287620004bb565b60208101620002158284620004b0565b60405181810167ffffffffffffffff81118282101715620005c557600080fd5b604052919050565b600067ffffffffffffffff821115620005e557600080fd5b506020601f91909101601f19160190565b5190565b600160a060020a031690565b151590565b90565b60006200021582620005fa565b82818337506000910152565b60005b83811015620006445781810151838201526020016200062a565b8381111562000654576000848401525b50505050565b601f01601f1916905600608060405234801561001057600080fd5b506040516105c23803806105c28339810180604052610032919081019061018f565b60008054600160a060020a031916600160a060020a0386161790558251610060906001906020860190610081565b508151610074906002906020850190610081565b50600355506102a7915050565b828054600181600116156101000203166002900490600052602060002090601f016020900481019282601f106100c257805160ff19168380011785556100ef565b828001600101855582156100ef579182015b828111156100ef5782518255916020019190600101906100d4565b506100fb9291506100ff565b5090565b61011991905b808211156100fb5760008155600101610105565b90565b6000610128825161026b565b9392505050565b60006101288251610119565b6000601f8201831361014c57600080fd5b815161015f61015a82610244565b61021e565b9150808252602083016020830185838301111561017b57600080fd5b610186838284610277565b50505092915050565b600080600080608085870312156101a557600080fd5b60006101b1878761011c565b94505060208501516001604060020a038111156101cd57600080fd5b6101d98782880161013b565b93505060408501516001604060020a038111156101f557600080fd5b6102018782880161013b565b92505060606102128782880161012f565b91505092959194509250565b6040518181016001604060020a038111828210171561023c57600080fd5b604052919050565b60006001604060020a0382111561025a57600080fd5b506020601f91909101601f19160190565b600160a060020a031690565b60005b8381101561029257818101518382015260200161027a565b838111156102a1576000848401525b50505050565b61030c806102b66000396000f3006080604052600436106100615763ffffffff7c01000000000000000000000000000000000000000000000000000000006000350416635c6381d181146100665780637430e1d914610091578063deff41c1146100a6578063e3708186146100c8575b600080fd5b34801561007257600080fd5b5061007b6100ea565b6040516100889190610260565b60405180910390f35b34801561009d57600080fd5b5061007b610177565b3480156100b257600080fd5b506100bb6101cf565b604051610088919061023e565b3480156100d457600080fd5b506100dd6101eb565b6040516100889190610252565b60018054604080516020600284861615610100026000190190941693909304601f8101849004840282018401909252818152929183018282801561016f5780601f106101445761010080835404028352916020019161016f565b820191906000526020600020905b81548152906001019060200180831161015257829003601f168201915b505050505081565b6002805460408051602060018416156101000260001901909316849004601f8101849004840282018401909252818152929183018282801561016f5780601f106101445761010080835404028352916020019161016f565b60005473ffffffffffffffffffffffffffffffffffffffff1681565b60035481565b6101fa8161027c565b82525050565b6101fa81610295565b600061021482610278565b808452610228816020860160208601610298565b610231816102c8565b9093016020019392505050565b6020810161024c82846101f1565b92915050565b6020810161024c8284610200565b602080825281016102718184610209565b9392505050565b5190565b73ffffffffffffffffffffffffffffffffffffffff1690565b90565b60005b838110156102b357818101518382015260200161029b565b838111156102c2576000848401525b50505050565b601f01601f1916905600a265627a7a72305820ae551685291495a605bca1ecaf69a24ee1499745e6aad2843176718401c113dc6c6578706572696d656e74616cf50037a265627a7a72305820aad00717c52883d36676f85375de7d7c6314cdc99a7120259cd0a70f91f2f51f6c6578706572696d656e74616cf50037",
  "source": "pragma solidity ^0.4.25;\npragma experimental ABIEncoderV2;\n\nimport './Data.sol';\nimport './RegistryBase.sol';\n\ncontract DataRegistry is RegistryBase //, OwnableMutable // is Owned by IexecHub\n{\n\tevent CreateData(\n\t\taddress indexed dataOwner,\n\t\taddress data,\n\t\tstring  dataName,\n\t\tstring  dataParams,\n\t\tbytes32 dataHash);\n\n\t/**\n\t * Constructor\n\t */\n\tconstructor()\n\tpublic\n\t{\n\t}\n\n\t/**\n\t * Data creation\n\t */\n\tfunction createData(\n\t\taddress _dataOwner,\n\t\tstring  _dataName,\n\t\tstring  _dataParams,\n\t\tbytes32 _dataHash)\n\tpublic /* onlyOwner /*owner == IexecHub*/ returns (Data)\n\t{\n\t\tData newData = new Data(_dataOwner, _dataName, _dataParams, _dataHash);\n\t\trequire(insert(newData, _dataOwner));\n\t\temit CreateData(_dataOwner, newData, _dataName, _dataParams, _dataHash);\n\t\treturn newData;\n\t}\n}\n",
  "sourcePath": "/home/amxx/Work/iExec/code/PoCo-dev/contracts/registries/DataRegistry.sol",
  "compiler": {
    "name": "solc",
    "version": "0.4.25+commit.59dbf8f1.Emscripten.clang"
  },
  "schemaVersion": "3.0.0-beta.1",
  "updatedAt": "2018-11-16T10:55:58.081Z"
}