{
  "contractName": "ERC1538QueryDelegate",
  "abi": [
    {
      "constant": true,
      "inputs": [],
      "name": "m_owner",
      "outputs": [
        {
          "name": "",
          "type": "address"
        }
      ],
      "payable": false,
      "stateMutability": "view",
      "type": "function",
      "signature": "0xdeff41c1"
    },
    {
      "constant": false,
      "inputs": [
        {
          "name": "_newOwner",
          "type": "address"
        }
      ],
      "name": "transferOwnership",
      "outputs": [],
      "payable": false,
      "stateMutability": "nonpayable",
      "type": "function",
      "signature": "0xf2fde38b"
    },
    {
      "anonymous": false,
      "inputs": [
        {
          "indexed": false,
          "name": "previousOwner",
          "type": "address"
        },
        {
          "indexed": false,
          "name": "newOwner",
          "type": "address"
        }
      ],
      "name": "OwnershipTransferred",
      "type": "event",
      "signature": "0x8be0079c531659141344cd1fd0a4f28419497f9722a3daafe3b4186f6b6457e0"
    },
    {
      "constant": true,
      "inputs": [],
      "name": "totalFunctions",
      "outputs": [
        {
          "name": "",
          "type": "uint256"
        }
      ],
      "payable": false,
      "stateMutability": "view",
      "type": "function",
      "signature": "0xa08e8b36"
    },
    {
      "constant": true,
      "inputs": [
        {
          "name": "_index",
          "type": "uint256"
        }
      ],
      "name": "functionByIndex",
      "outputs": [
        {
          "name": "signature",
          "type": "string"
        },
        {
          "name": "id",
          "type": "bytes4"
        },
        {
          "name": "delegate",
          "type": "address"
        }
      ],
      "payable": false,
      "stateMutability": "view",
      "type": "function",
      "signature": "0x0164ee96"
    },
    {
      "constant": true,
      "inputs": [
        {
          "name": "_id",
          "type": "bytes4"
        }
      ],
      "name": "functionById",
      "outputs": [
        {
          "name": "signature",
          "type": "string"
        },
        {
          "name": "id",
          "type": "bytes4"
        },
        {
          "name": "delegate",
          "type": "address"
        }
      ],
      "payable": false,
      "stateMutability": "view",
      "type": "function",
      "signature": "0xa3f01e59"
    },
    {
      "constant": true,
      "inputs": [
        {
          "name": "_signature",
          "type": "string"
        }
      ],
      "name": "functionExists",
      "outputs": [
        {
          "name": "",
          "type": "bool"
        }
      ],
      "payable": false,
      "stateMutability": "view",
      "type": "function",
      "signature": "0x5bfc7f77"
    },
    {
      "constant": true,
      "inputs": [],
      "name": "functionSignatures",
      "outputs": [
        {
          "name": "",
          "type": "string"
        }
      ],
      "payable": false,
      "stateMutability": "view",
      "type": "function",
      "signature": "0x49d0cd85"
    },
    {
      "constant": true,
      "inputs": [
        {
          "name": "_delegate",
          "type": "address"
        }
      ],
      "name": "delegateFunctionSignatures",
      "outputs": [
        {
          "name": "",
          "type": "string"
        }
      ],
      "payable": false,
      "stateMutability": "view",
      "type": "function",
      "signature": "0x51fc00ed"
    },
    {
      "constant": true,
      "inputs": [
        {
          "name": "_signature",
          "type": "string"
        }
      ],
      "name": "delegateAddress",
      "outputs": [
        {
          "name": "",
          "type": "address"
        }
      ],
      "payable": false,
      "stateMutability": "view",
      "type": "function",
      "signature": "0x0f0132b8"
    },
    {
      "constant": true,
      "inputs": [],
      "name": "delegateAddresses",
      "outputs": [
        {
          "name": "",
          "type": "address[]"
        }
      ],
      "payable": false,
      "stateMutability": "view",
      "type": "function",
      "signature": "0x8006a5d3"
    }
  ],
  "bytecode": "0x608060405260008054600160a060020a03191633179055611240806100256000396000f3fe6080604052600436106100a35763ffffffff7c01000000000000000000000000000000000000000000000000000000006000350416630164ee9681146100a85780630f0132b8146100e057806349d0cd851461010d57806351fc00ed1461012f5780635bfc7f771461014f5780638006a5d31461017c578063a08e8b361461019e578063a3f01e59146101c0578063deff41c1146101e0578063f2fde38b146101f5575b600080fd5b3480156100b457600080fd5b506100c86100c3366004610ee2565b610217565b6040516100d79392919061111b565b60405180910390f35b3480156100ec57600080fd5b506101006100fb366004610ea0565b6103a9565b6040516100d791906110c2565b34801561011957600080fd5b50610122610441565b6040516100d7919061110a565b34801561013b57600080fd5b5061012261014a366004610e5c565b6106af565b34801561015b57600080fd5b5061016f61016a366004610ea0565b610902565b6040516100d791906110fc565b34801561018857600080fd5b50610191610935565b6040516100d791906110eb565b3480156101aa57600080fd5b506101b3610b49565b6040516100d79190611188565b3480156101cc57600080fd5b506100c86101db366004610e82565b610b4f565b3480156101ec57600080fd5b50610100610d21565b34801561020157600080fd5b50610215610210366004610e5c565b610d30565b005b6002546060906000908190841061024c5760405160e560020a62461bcd02815260040161024390611178565b60405180910390fd5b600280548590811061025a57fe5b9060005260206000200160405180828054600181600116156101000203166002900480156102bf5780601f1061029d5761010080835404028352918201916102bf565b820191906000526020600020905b8154815290600101906020018083116102ab575b5050915050604051809103902091506002848154811015156102dd57fe5b60009182526020808320600160e060020a0319861684526001808352604094859020549390910180548551600261010094831615949094026000190190911692909204601f8101849004840283018401909552848252938693600160a060020a0316928591908301828280156103945780601f1061036957610100808354040283529160200191610394565b820191906000526020600020905b81548152906001019060200180831161037757829003601f168201915b505050505092509250925092505b9193909250565b600060038383604051808383808284379190910194855250506040519283900360200190922054151591506103f590505760405160e560020a62461bcd02815260040161024390611168565b6001600084846040518083838082843760408051919093018190039020600160e060020a03191686525060208501959095525050500160002054600160a060020a031690505b92915050565b606060006060806000806000600280549050905060608160405190808252806020026020018201604052801561048b57816020015b60608152602001906001900390816104765790505b5090505b818410156105675760028054859081106104a557fe5b600091825260209182902001805460408051601f60026000196101006001871615020190941693909304928301859004850281018501909152818152928301828280156105335780601f1061050857610100808354040283529160200191610533565b820191906000526020600020905b81548152906001019060200180831161051657829003601f168201915b5050505050945084516001018701965084818581518110151561055257fe5b6020908102909101015260019093019261048f565b866040519080825280601f01601f191660200182016040528015610592576020820181803883390190505b509550600093505b818410156106a35780848151811015156105b057fe5b60209081029091010151945060005b85518110156106335785818151811015156105d657fe5b90602001015160f860020a900460f860020a0287858151811015156105f757fe5b9060200101907effffffffffffffffffffffffffffffffffffffffffffffffffffffffffffff1916908160001a905350600193840193016105bf565b5085517f3b000000000000000000000000000000000000000000000000000000000000009087908590811061066457fe5b9060200101907effffffffffffffffffffffffffffffffffffffffffffffffffffffffffffff1916908160001a9053506001938401939092019161059a565b50939550505050505090565b6002546040805182815260208084028201019091526060919082908280156106eb57816020015b60608152602001906001900390816106d65790505b5090506000806060806000805b8782101561080c57600280548390811061070e57fe5b600091825260209182902001805460408051601f600260001961010060018716150201909416939093049283018590048502810185019091528181529283018282801561079c5780601f106107715761010080835404028352916020019161079c565b820191906000526020600020905b81548152906001019060200180831161077f57829003601f168201915b50508351602080860191909120600160e060020a031916600090815260019091526040902054939650505050600160a060020a038b811691161415610801578251850194508287878151811015156107f057fe5b602090810290910101526001909501945b8160010191506106f8565b846040519080825280601f01601f191660200182016040528015610837576020820181803883390190505b509350600091505b86518210156108f457868281518110151561085657fe5b906020019060200201519250825160001415610871576108f4565b60005b83518110156108e857838181518110151561088b57fe5b90602001015160f860020a900460f860020a0285838151811015156108ac57fe5b9060200101907effffffffffffffffffffffffffffffffffffffffffffffffffffffffffffff1916908160001a90535060019182019101610874565b5081600101915061083f565b509198975050505050505050565b60006003838360405180838380828437919091019485525050604051928390036020019092205415159250505092915050565b600254604080518281526020808402820101909152606091908290828015610967578160200160208202803883390190505b5090506000806000805b85831015610aba576001600060028581548110151561098c57fe5b9060005260206000200160405180828054600181600116156101000203166002900480156109f15780601f106109cf5761010080835404028352918201916109f1565b820191906000526020600020905b8154815290600101906020018083116109dd575b50506040805191829003909120600160e060020a03191684526020840194909452505001600090812054600160a060020a031691505b84811015610a71578581815181101515610a3d57fe5b90602001906020020151600160a060020a031682600160a060020a03161415610a695760019250610a71565b600101610a27565b50811515610aaa57808585815181101515610a8857fe5b600160a060020a03909216602092830290910190910152600190930192610aaf565b600091505b826001019250610971565b606084604051908082528060200260200182016040528015610ae6578160200160208202803883390190505b509050600093505b84841015610b3e578584815181101515610b0457fe5b906020019060200201518185815181101515610b1c57fe5b600160a060020a03909216602092830290910190910152600190930192610aee565b965050505050505090565b60025490565b6060600080805b600254811015610d05576002805482908110610b6e57fe5b906000526020600020016040518082805460018160011615610100020316600290048015610bd35780601f10610bb1576101008083540402835291820191610bd3565b820191906000526020600020905b815481529060010190602001808311610bbf575b505091505060405180910390207bffffffffffffffffffffffffffffffffffffffffffffffffffffffff1916857bffffffffffffffffffffffffffffffffffffffffffffffffffffffff19161415610cfd576002805482908110610c3357fe5b60009182526020808320600160e060020a0319891684526001808352604094859020549390910180548551600261010094831615949094026000190190911692909204601f8101849004840283018401909552848252938993600160a060020a031692859190830182828015610cea5780601f10610cbf57610100808354040283529160200191610cea565b820191906000526020600020905b815481529060010190602001808311610ccd57829003601f168201915b50505050509250935093509350506103a2565b600101610b56565b5060405160e560020a62461bcd02815260040161024390611158565b600054600160a060020a031681565b600054600160a060020a03163314610d4757600080fd5b600160a060020a0381161515610d725760405160e560020a62461bcd02815260040161024390611148565b6000546040517f8be0079c531659141344cd1fd0a4f28419497f9722a3daafe3b4186f6b6457e091610db191600160a060020a039091169084906110d0565b60405180910390a16000805473ffffffffffffffffffffffffffffffffffffffff1916600160a060020a0392909216919091179055565b6000610df482356111a0565b9392505050565b6000610df482356111b0565b600080601f83018413610e1957600080fd5b50813567ffffffffffffffff811115610e3157600080fd5b602083019150836001820283011115610e4957600080fd5b9250929050565b6000610df482356111c9565b600060208284031215610e6e57600080fd5b6000610e7a8484610de8565b949350505050565b600060208284031215610e9457600080fd5b6000610e7a8484610dfb565b60008060208385031215610eb357600080fd5b823567ffffffffffffffff811115610eca57600080fd5b610ed685828601610e07565b92509250509250929050565b600060208284031215610ef457600080fd5b6000610e7a8484610e50565b610f09816111a0565b82525050565b6000610f1a8261119c565b808452602084019350610f2c83611196565b60005b82811015610f5c57610f42868351610f00565b610f4b82611196565b602096909601959150600101610f2f565b5093949350505050565b610f09816111ab565b610f09816111b0565b6000610f838261119c565b808452610f978160208601602086016111cc565b610fa0816111fc565b9093016020019392505050565b602681527f63616e2774207472616e73666572206f776e65727368697020746f206164647260208201527f6573732830290000000000000000000000000000000000000000000000000000604082015260600190565b601481527f66756e6374696f6e4964206e6f7420666f756e64000000000000000000000000602082015260400190565b601d81527f46756e6374696f6e207369676e6174757265206e6f7420666f756e642e000000602082015260400190565b602881527f66756e6374696f6e5369676e61747572657320696e64657820646f6573206e6f60208201527f742065786973742e000000000000000000000000000000000000000000000000604082015260600190565b610f09816111c9565b6020810161043b8284610f00565b604081016110de8285610f00565b610df46020830184610f00565b60208082528101610df48184610f0f565b6020810161043b8284610f66565b60208082528101610df48184610f78565b6060808252810161112c8186610f78565b905061113b6020830185610f6f565b610e7a6040830184610f00565b6020808252810161043b81610fad565b6020808252810161043b81611003565b6020808252810161043b81611033565b6020808252810161043b81611063565b6020810161043b82846110b9565b60200190565b5190565b600061043b826111bd565b151590565b600160e060020a03191690565b600160a060020a031690565b90565b60005b838110156111e75781810151838201526020016111cf565b838111156111f6576000848401525b50505050565b601f01601f19169056fea265627a7a7230582067697161e899d72d0e7bbe50b2b1daa3dd60c76c15faa6537e090378dbb22ca06c6578706572696d656e74616cf50037",
  "source": "pragma solidity ^0.5.0;\npragma experimental ABIEncoderV2;\n\nimport \"./ERC1538UpgradeableStorage.sol\";\n\ninterface ERC1538Query\n{\n\tfunction totalFunctions            (                           ) external view returns(uint256);\n\tfunction functionByIndex           (uint256          _index    ) external view returns(string memory, bytes4, address);\n\tfunction functionById              (bytes4           _id       ) external view returns(string memory, bytes4, address);\n\tfunction functionExists            (string  calldata _signature) external view returns(bool);\n\tfunction functionSignatures        (                           ) external view returns(string memory);\n\tfunction delegateFunctionSignatures(address          _delegate ) external view returns(string memory);\n\tfunction delegateAddress           (string  calldata _signature) external view returns(address);\n\tfunction delegateAddresses         (                           ) external view returns(address[] memory);\n}\n\n// Function signatures\n// \"totalFunctions()functionByIndex(uint256)functionById(bytes4)functionExists(string)functionSignatures()delegateFunctionSignatures(address)delegateAddress(string)delegateAddresses()\"\n\ncontract ERC1538QueryDelegate is ERC1538Query, ERC1538UpgradeableStorage\n{\n\tfunction totalFunctions()\n\texternal view returns(uint256)\n\t{\n\t\treturn m_funcSignatures.length;\n\t}\n\n\tfunction functionByIndex(uint256 _index)\n\texternal view returns(string memory signature, bytes4 id, address delegate)\n\t{\n\t\trequire(_index < m_funcSignatures.length, \"functionSignatures index does not exist.\");\n\t\tid = bytes4(keccak256(m_funcSignatures[_index]));\n\t\treturn (string(m_funcSignatures[_index]), id, m_delegates[id]);\n\t}\n\n\tfunction functionById(bytes4 _id)\n\texternal view returns(string memory signature, bytes4 id, address delegate)\n\t{\n\t\tfor (uint256 index = 0; index < m_funcSignatures.length; ++index)\n\t\t{\n\t\t\tif (_id == bytes4(keccak256(m_funcSignatures[index])))\n\t\t\t{\n\t\t\t\treturn (string(m_funcSignatures[index]), _id, m_delegates[_id]);\n\t\t\t}\n\t\t}\n\t\trevert(\"functionId not found\");\n\t}\n\n\tfunction functionExists(string calldata _signature)\n\texternal view returns(bool)\n\t{\n\t\treturn m_funcSignatureToIndex[bytes(_signature)] != 0;\n\t}\n\n\tfunction functionSignatures()\n\texternal view returns(string memory)\n\t{\n\t\tuint256 signaturesLength;\n\t\tbytes memory signatures;\n\t\tbytes memory signature;\n\t\tuint256 functionIndex;\n\t\tuint256 charPos;\n\t\tuint256 funcSignaturesNum = m_funcSignatures.length;\n\t\tbytes[] memory memoryFuncSignatures = new bytes[](funcSignaturesNum);\n\t\tfor (; functionIndex < funcSignaturesNum; ++functionIndex)\n\t\t{\n\t\t\tsignature = m_funcSignatures[functionIndex];\n\t\t\tsignaturesLength += signature.length + 1; // EDIT\n\t\t\tmemoryFuncSignatures[functionIndex] = signature;\n\t\t}\n\t\tsignatures = new bytes(signaturesLength);\n\t\tfunctionIndex = 0;\n\t\tfor (; functionIndex < funcSignaturesNum; ++functionIndex)\n\t\t{\n\t\t\tsignature = memoryFuncSignatures[functionIndex];\n\t\t\tfor (uint256 i = 0; i < signature.length; ++i)\n\t\t\t{\n\t\t\t\tsignatures[charPos] = signature[i];\n\t\t\t\tcharPos++;\n\t\t\t}\n\t\t\tsignatures[charPos] = 0x3B; // EDIT: extra ';'\n\t\t\tcharPos++; // EDIT\n\t\t}\n\t\treturn string(signatures);\n\t}\n\n\tfunction delegateFunctionSignatures(address _delegate)\n\texternal view returns(string memory)\n\t{\n\t\tuint256 funcSignaturesNum = m_funcSignatures.length;\n\t\tbytes[] memory delegateSignatures = new bytes[](funcSignaturesNum);\n\t\tuint256 delegateSignaturesPos;\n\t\tuint256 signaturesLength;\n\t\tbytes memory signatures;\n\t\tbytes memory signature;\n\t\tuint256 functionIndex;\n\t\tuint256 charPos;\n\t\tfor (; functionIndex < funcSignaturesNum; ++functionIndex)\n\t\t{\n\t\t\tsignature = m_funcSignatures[functionIndex];\n\t\t\tif (_delegate == m_delegates[bytes4(keccak256(signature))])\n\t\t\t{\n\t\t\t\tsignaturesLength += signature.length;\n\t\t\t\tdelegateSignatures[delegateSignaturesPos] = signature;\n\t\t\t\t++delegateSignaturesPos;\n\t\t\t}\n\t\t}\n\t\tsignatures = new bytes(signaturesLength);\n\t\tfunctionIndex = 0;\n\t\tfor (; functionIndex < delegateSignatures.length; ++functionIndex)\n\t\t{\n\t\t\tsignature = delegateSignatures[functionIndex];\n\t\t\tif (signature.length == 0)\n\t\t\t{\n\t\t\t\tbreak;\n\t\t\t}\n\t\t\tfor (uint256 i = 0; i < signature.length; ++i)\n\t\t\t{\n\t\t\t\tsignatures[charPos] = signature[i];\n\t\t\t\t++charPos;\n\t\t\t}\n\t\t}\n\t\treturn string(signatures);\n\t}\n\n\tfunction delegateAddress(string calldata _signature)\n\texternal view returns(address)\n\t{\n\t\trequire(m_funcSignatureToIndex[bytes(_signature)] != 0, \"Function signature not found.\");\n\t\treturn m_delegates[bytes4(keccak256(bytes(_signature)))];\n\t}\n\n\tfunction delegateAddresses()\n\texternal view returns(address[] memory)\n\t{\n\t\tuint256 funcSignaturesNum = m_funcSignatures.length;\n\t\taddress[] memory delegatesBucket = new address[](funcSignaturesNum);\n\t\tuint256 numDelegates;\n\t\tuint256 functionIndex;\n\t\tbool foundDelegate;\n\t\taddress delegate;\n\t\tfor (; functionIndex < funcSignaturesNum; ++functionIndex)\n\t\t{\n\t\t\tdelegate = m_delegates[bytes4(keccak256(m_funcSignatures[functionIndex]))];\n\t\t\tfor (uint256 i = 0; i < numDelegates; ++i)\n\t\t\t{\n\t\t\t\tif (delegate == delegatesBucket[i])\n\t\t\t\t{\n\t\t\t\t\tfoundDelegate = true;\n\t\t\t\t\tbreak;\n\t\t\t\t}\n\t\t\t}\n\t\t\tif (foundDelegate == false)\n\t\t\t{\n\t\t\t\tdelegatesBucket[numDelegates] = delegate;\n\t\t\t\t++numDelegates;\n\t\t\t}\n\t\t\telse\n\t\t\t{\n\t\t\t\tfoundDelegate = false;\n\t\t\t}\n\t\t}\n\t\taddress[] memory delegates_ = new address[](numDelegates);\n\t\tfunctionIndex = 0;\n\t\tfor (; functionIndex < numDelegates; ++functionIndex)\n\t\t{\n\t\t\tdelegates_[functionIndex] = delegatesBucket[functionIndex];\n\t\t}\n\t\treturn delegates_;\n\t}\n}\n",
  "sourcePath": "/home/amxx/Work/iExec/code/PoCo-dev/contracts/ERC1538/ERC1538Query.sol",
  "compiler": {
    "name": "solc",
    "version": "0.5.0+commit.1d4f565a.Emscripten.clang"
  },
  "schemaVersion": "3.0.1",
  "updatedAt": "2019-01-08T09:34:24.458Z",
  "devdoc": {
    "methods": {
      "transferOwnership(address)": {
        "details": "Allows the current owner to transfer control of the contract to a newOwner.",
        "params": {
          "_newOwner": "The address to transfer ownership to."
        }
      }
    }
  },
  "userdoc": {
    "methods": {}
  }
}