{
  "contractName": "ERC1538Delegate",
  "abi": [
    {
      "constant": true,
      "inputs": [],
      "name": "m_owner",
      "outputs": [
        {
          "name": "",
          "type": "address"
        }
      ],
      "payable": false,
      "stateMutability": "view",
      "type": "function",
      "signature": "0xdeff41c1"
    },
    {
      "constant": false,
      "inputs": [
        {
          "name": "_newOwner",
          "type": "address"
        }
      ],
      "name": "transferOwnership",
      "outputs": [],
      "payable": false,
      "stateMutability": "nonpayable",
      "type": "function",
      "signature": "0xf2fde38b"
    },
    {
      "anonymous": false,
      "inputs": [
        {
          "indexed": false,
          "name": "previousOwner",
          "type": "address"
        },
        {
          "indexed": false,
          "name": "newOwner",
          "type": "address"
        }
      ],
      "name": "OwnershipTransferred",
      "type": "event",
      "signature": "0x8be0079c531659141344cd1fd0a4f28419497f9722a3daafe3b4186f6b6457e0"
    },
    {
      "anonymous": false,
      "inputs": [
        {
          "indexed": false,
          "name": "message",
          "type": "string"
        }
      ],
      "name": "CommitMessage",
      "type": "event",
      "signature": "0xaa1c0a0a78cec2470f9652e5d29540752e7a64d70f926933cebf13afaeda45de"
    },
    {
      "anonymous": false,
      "inputs": [
        {
          "indexed": true,
          "name": "functionId",
          "type": "bytes4"
        },
        {
          "indexed": true,
          "name": "oldDelegate",
          "type": "address"
        },
        {
          "indexed": true,
          "name": "newDelegate",
          "type": "address"
        },
        {
          "indexed": false,
          "name": "functionSignature",
          "type": "string"
        }
      ],
      "name": "FunctionUpdate",
      "type": "event",
      "signature": "0x3234040ce3bd4564874e44810f198910133a1b24c4e84aac87edbf6b458f5353"
    },
    {
      "constant": false,
      "inputs": [
        {
          "name": "_delegate",
          "type": "address"
        },
        {
          "name": "_functionSignatures",
          "type": "string"
        },
        {
          "name": "_commitMessage",
          "type": "string"
        }
      ],
      "name": "updateContract",
      "outputs": [],
      "payable": false,
      "stateMutability": "nonpayable",
      "type": "function",
      "signature": "0x61455567"
    }
  ],
  "bytecode": "0x608060405260008054600160a060020a03191633179055610d9a806100256000396000f3fe6080604052600436106100565763ffffffff7c010000000000000000000000000000000000000000000000000000000060003504166361455567811461005b578063deff41c11461007d578063f2fde38b146100a8575b600080fd5b34801561006757600080fd5b5061007b610076366004610a27565b6100c8565b005b34801561008957600080fd5b5061009261073b565b60405161009f9190610c73565b60405180910390f35b3480156100b457600080fd5b5061007b6100c3366004610a01565b61074a565b600054600160a060020a031633146100df57600080fd5b606084848080601f0160208091040260200160405190810160405280939291908181526020018383808284376000920182905250939450839250829150819050600160a060020a038a161561015d5750883b6000811161015d5760405160e560020a62461bcd02815260040161015490610ce5565b60405180910390fd5b6020850193508451840191508392505b818310156106f657825160001a603b8114156106ea578484038087526020808801829020600160e060020a031981166000908152600190925260409091205491935090600160a060020a03908116908d1615156104315760006003896040518082805190602001908083835b602083106101f85780518252601f1990920191602091820191016101d9565b51815160209384036101000a60001901801990921691161790529201948552506040519384900301909220549250505080151561024a5760405160e560020a62461bcd02815260040161015490610cd5565b600254600019918201910180821461033c57600280548290811061026a57fe5b9060005260206000200160028381548110151561028357fe5b9060005260206000200190805460018160011615610100020316600290046102ac929190610802565b508160010160036002838154811015156102c257fe5b9060005260206000200160405180828054600181600116156101000203166002900480156103275780601f10610305576101008083540402835291820191610327565b820191906000526020600020905b815481529060010190602001808311610313575b50509283525050604051908190036020019020555b600280549061034f906000198301610887565b5060038a6040518082805190602001908083835b602083106103825780518252601f199092019160209182019101610363565b51815160209384036101000a6000190180199092169116179052920194855250604080519485900382018520600090819055600160e060020a03198a168082526001909352908120805473ffffffffffffffffffffffffffffffffffffffff1916905593600160a060020a03881693509091507f3234040ce3bd4564874e44810f198910133a1b24c4e84aac87edbf6b458f535390610422908f90610cb4565b60405180910390a450506106d8565b6003886040518082805190602001908083835b602083106104635780518252601f199092019160209182019101610444565b51815160209384036101000a600019018019909216911617905292019485525060405193849003019092205415159150610609905057600160a060020a038116156104c35760405160e560020a62461bcd02815260040161015490610cf5565b8c6001600084600160e060020a031916600160e060020a031916815260200190815260200160002060006101000a815481600160a060020a030219169083600160a060020a03160217905550600288908060018154018082558091505090600182039060005260206000200160009091929091909150908051906020019061054c9291906108b0565b505060025460405189516003918b91819060208401908083835b602083106105855780518252601f199092019160209182019101610566565b51815160209384036101000a6000190180199092169116179052920194855250604051938490030183209390935550600160a060020a038f169150600090600160e060020a03198516907f3234040ce3bd4564874e44810f198910133a1b24c4e84aac87edbf6b458f5353906105fc908d90610cb4565b60405180910390a46106d8565b600160e060020a03198216600090815260016020526040902054600160a060020a038e81169116146106d8578c6001600084600160e060020a031916600160e060020a031916815260200190815260200160002060006101000a815481600160a060020a030219169083600160a060020a031602179055508c600160a060020a031681600160a060020a031683600160e060020a0319167f3234040ce3bd4564874e44810f198910133a1b24c4e84aac87edbf6b458f53538b6040516106cf9190610cb4565b60405180910390a45b50509481016001908101959301935083925b5082600101925061016d565b7faa1c0a0a78cec2470f9652e5d29540752e7a64d70f926933cebf13afaeda45de8787604051610727929190610ca2565b60405180910390a150505050505050505050565b600054600160a060020a031681565b600054600160a060020a0316331461076157600080fd5b600160a060020a038116151561078c5760405160e560020a62461bcd02815260040161015490610cc5565b6000546040517f8be0079c531659141344cd1fd0a4f28419497f9722a3daafe3b4186f6b6457e0916107cb91600160a060020a03909116908490610c87565b60405180910390a16000805473ffffffffffffffffffffffffffffffffffffffff1916600160a060020a0392909216919091179055565b828054600181600116156101000203166002900490600052602060002090601f016020900481019282601f1061083b5780548555610877565b8280016001018555821561087757600052602060002091601f016020900482015b8281111561087757825482559160010191906001019061085c565b5061088392915061091e565b5090565b8154818355818111156108ab576000838152602090206108ab91810190830161093b565b505050565b828054600181600116156101000203166002900490600052602060002090601f016020900481019282601f106108f157805160ff1916838001178555610877565b82800160010185558215610877579182015b82811115610877578251825591602001919060010190610903565b61093891905b808211156108835760008155600101610924565b90565b61093891905b80821115610883576000610955828261095e565b50600101610941565b50805460018160011615610100020316600290046000825580601f1061098457506109a2565b601f0160209004906000526020600020908101906109a2919061091e565b50565b60006109b18235610d09565b9392505050565b600080601f830184136109ca57600080fd5b50813567ffffffffffffffff8111156109e257600080fd5b6020830191508360018202830111156109fa57600080fd5b9250929050565b600060208284031215610a1357600080fd5b6000610a1f84846109a5565b949350505050565b600080600080600060608688031215610a3f57600080fd5b6000610a4b88886109a5565b955050602086013567ffffffffffffffff811115610a6857600080fd5b610a74888289016109b8565b9450945050604086013567ffffffffffffffff811115610a9357600080fd5b610a9f888289016109b8565b92509250509295509295909350565b610ab781610d09565b82525050565b6000828452602084019350610ad3838584610d1a565b610adc83610d56565b9093019392505050565b6000610af182610d05565b808452610b05816020860160208601610d26565b610b0e81610d56565b9093016020019392505050565b602681527f63616e2774207472616e73666572206f776e65727368697020746f206164647260208201527f6573732830290000000000000000000000000000000000000000000000000000604082015260600190565b602281527f5b455243313533385d2066756e6374696f6e20646f6573206e6f74206578697360208201527f742e000000000000000000000000000000000000000000000000000000000000604082015260600190565b604381527f5b455243313533385d205f64656c65676174652061646472657373206973206e60208201527f6f74206120636f6e747261637420616e64206973206e6f74206164647265737360408201527f2830290000000000000000000000000000000000000000000000000000000000606082015260800190565b601781527f5b455243313533385d2066756e63496420636c6173682e000000000000000000602082015260400190565b60208101610c818284610aae565b92915050565b60408101610c958285610aae565b6109b16020830184610aae565b60208082528101610a1f818486610abd565b602080825281016109b18184610ae6565b60208082528101610c8181610b1b565b60208082528101610c8181610b71565b60208082528101610c8181610bc7565b60208082528101610c8181610c43565b5190565b6000600160a060020a038216610c81565b82818337506000910152565b60005b83811015610d41578181015183820152602001610d29565b83811115610d50576000848401525b50505050565b601f01601f19169056fea265627a7a723058206e38d3d78fc1118cfe72783f9ef2b172b7668a7fbd49bb0e2efb8af37bfa22d06c6578706572696d656e74616cf50037",
  "source": "pragma solidity ^0.5.0;\npragma experimental ABIEncoderV2;\n\nimport \"./ERC1538UpgradeableStorage.sol\";\n\ninterface ERC1538\n{\n\tevent CommitMessage(string message);\n\tevent FunctionUpdate(bytes4 indexed functionId, address indexed oldDelegate, address indexed newDelegate, string functionSignature);\n\tfunction updateContract(address _delegate, string calldata _functionSignatures, string calldata commitMessage) external;\n}\n\n// Function signatures\n// \"updateContract(address,strig,strig)\"\n\ncontract ERC1538Delegate is ERC1538, ERC1538UpgradeableStorage\n{\n\tfunction updateContract(\n\t\taddress         _delegate,\n\t\tstring calldata _functionSignatures,\n\t\tstring calldata _commitMessage\n\t)\n\texternal onlyOwner\n\t{\n\t\tbytes memory signatures = bytes(_functionSignatures);\n\t\tuint256 start;\n\t\tuint256 pos;\n\t\tuint256 end;\n\t\tuint256 size;\n\t\tif(_delegate != address(0))\n\t\t{\n\t\t\tassembly { size := extcodesize(_delegate) }\n\t\t\trequire(size > 0, \"[ERC1538] _delegate address is not a contract and is not address(0)\");\n\t\t}\n\t\tassembly\n\t\t{\n\t\t\tstart := add(signatures,32)\n\t\t\tend   := add(start, mload(signatures))\n\t\t}\n\t\tfor (pos = start; pos < end; ++pos)\n\t\t{\n\t\t\tuint256 char;\n\t\t\tassembly { char := byte(0, mload(pos)) }\n\t\t\tif (char == 0x3B)\n\t\t\t{\n\t\t\t\tsize = (pos - start);\n\t\t\t\tassembly { mstore(signatures, size) }\n\t\t\t\tbytes4  funcId      = bytes4(keccak256(signatures));\n\t\t\t\taddress oldDelegate = m_delegates[funcId];\n\t\t\t\tif (_delegate == address(0))\n\t\t\t\t{\n\t\t\t\t\tuint256 index = m_funcSignatureToIndex[signatures];\n\t\t\t\t\trequire(index != 0, \"[ERC1538] function does not exist.\");\n\t\t\t\t\tindex--;\n\t\t\t\t\tuint256 lastIndex = m_funcSignatures.length - 1;\n\t\t\t\t\tif (index != lastIndex)\n\t\t\t\t\t{\n\t\t\t\t\t\tm_funcSignatures[index] = m_funcSignatures[lastIndex];\n\t\t\t\t\t\tm_funcSignatureToIndex[m_funcSignatures[lastIndex]] = index + 1;\n\t\t\t\t\t}\n\t\t\t\t\tm_funcSignatures.length--;\n\t\t\t\t\tdelete m_funcSignatureToIndex[signatures];\n\t\t\t\t\tdelete m_delegates[funcId];\n\t\t\t\t\temit FunctionUpdate(funcId, oldDelegate, address(0), string(signatures));\n\t\t\t\t}\n\t\t\t\telse if (m_funcSignatureToIndex[signatures] == 0)\n\t\t\t\t{\n\t\t\t\t\trequire(oldDelegate == address(0), \"[ERC1538] funcId clash.\");\n\t\t\t\t\tm_delegates[funcId] = _delegate;\n\t\t\t\t\tm_funcSignatures.push(signatures);\n\t\t\t\t\tm_funcSignatureToIndex[signatures] = m_funcSignatures.length;\n\t\t\t\t\temit FunctionUpdate(funcId, address(0), _delegate, string(signatures));\n\t\t\t\t}\n\t\t\t\telse if (m_delegates[funcId] != _delegate)\n\t\t\t\t{\n\t\t\t\t\tm_delegates[funcId] = _delegate;\n\t\t\t\t\temit FunctionUpdate(funcId, oldDelegate, _delegate, string(signatures));\n\t\t\t\t}\n\t\t\t\tassembly { signatures := add(signatures, add(size, 1)) }\n\t\t\t\tstart = ++pos;\n\t\t\t}\n\t\t}\n\t\temit CommitMessage(_commitMessage);\n\t}\n}\n",
  "sourcePath": "/home/amxx/Work/iExec/code/PoCo-dev/contracts/ERC1538/ERC1538.sol",
  "compiler": {
    "name": "solc",
    "version": "0.5.0+commit.1d4f565a.Emscripten.clang"
  },
  "schemaVersion": "3.0.1",
  "updatedAt": "2019-01-08T09:34:24.437Z",
  "devdoc": {
    "methods": {
      "transferOwnership(address)": {
        "details": "Allows the current owner to transfer control of the contract to a newOwner.",
        "params": {
          "_newOwner": "The address to transfer ownership to."
        }
      }
    }
  },
  "userdoc": {
    "methods": {}
  }
}