{
  "contractName": "Escrow",
  "abi": [
    {
      "constant": true,
      "inputs": [],
      "name": "rlc",
      "outputs": [
        {
          "name": "",
          "type": "address"
        }
      ],
      "payable": false,
      "stateMutability": "view",
      "type": "function"
    },
    {
      "inputs": [
        {
          "name": "_rlctoken",
          "type": "address"
        }
      ],
      "payable": false,
      "stateMutability": "nonpayable",
      "type": "constructor"
    },
    {
      "anonymous": false,
      "inputs": [
        {
          "indexed": false,
          "name": "owner",
          "type": "address"
        },
        {
          "indexed": false,
          "name": "amount",
          "type": "uint256"
        }
      ],
      "name": "Deposit",
      "type": "event"
    },
    {
      "anonymous": false,
      "inputs": [
        {
          "indexed": false,
          "name": "owner",
          "type": "address"
        },
        {
          "indexed": false,
          "name": "amount",
          "type": "uint256"
        }
      ],
      "name": "Withdraw",
      "type": "event"
    },
    {
      "anonymous": false,
      "inputs": [
        {
          "indexed": false,
          "name": "user",
          "type": "address"
        },
        {
          "indexed": false,
          "name": "amount",
          "type": "uint256"
        }
      ],
      "name": "Reward",
      "type": "event"
    },
    {
      "anonymous": false,
      "inputs": [
        {
          "indexed": false,
          "name": "user",
          "type": "address"
        },
        {
          "indexed": false,
          "name": "amount",
          "type": "uint256"
        }
      ],
      "name": "Seize",
      "type": "event"
    },
    {
      "constant": true,
      "inputs": [
        {
          "name": "_user",
          "type": "address"
        }
      ],
      "name": "viewAccount",
      "outputs": [
        {
          "components": [
            {
              "name": "stake",
              "type": "uint256"
            },
            {
              "name": "locked",
              "type": "uint256"
            }
          ],
          "name": "",
          "type": "tuple"
        }
      ],
      "payable": false,
      "stateMutability": "view",
      "type": "function"
    },
    {
      "constant": false,
      "inputs": [
        {
          "name": "_amount",
          "type": "uint256"
        }
      ],
      "name": "deposit",
      "outputs": [
        {
          "name": "",
          "type": "bool"
        }
      ],
      "payable": false,
      "stateMutability": "nonpayable",
      "type": "function"
    },
    {
      "constant": false,
      "inputs": [
        {
          "name": "_amount",
          "type": "uint256"
        }
      ],
      "name": "withdraw",
      "outputs": [
        {
          "name": "",
          "type": "bool"
        }
      ],
      "payable": false,
      "stateMutability": "nonpayable",
      "type": "function"
    }
  ],
  "bytecode": "0x608060405234801561001057600080fd5b5060405160208061065e833981018060405261002f919081019061007c565b600160a060020a038116151561004457600080fd5b60008054600160a060020a031916600160a060020a03929092169190911790556100ae565b600061007582516100a2565b9392505050565b60006020828403121561008e57600080fd5b600061009a8484610069565b949350505050565b600160a060020a031690565b6105a1806100bd6000396000f3006080604052600436106100615763ffffffff7c01000000000000000000000000000000000000000000000000000000006000350416632e1a7d4d81146100665780636b55f4a51461009c578063b017c036146100c9578063b6b55f25146100eb575b600080fd5b34801561007257600080fd5b5061008661008136600461045c565b61010b565b6040516100939190610511565b60405180910390f35b3480156100a857600080fd5b506100bc6100b7366004610418565b610230565b604051610093919061052d565b3480156100d557600080fd5b506100de610278565b604051610093919061051f565b3480156100f757600080fd5b5061008661010636600461045c565b610294565b3360009081526001602052604081205461012b908363ffffffff6103b016565b33600081815260016020526040808220939093555491517fa9059cbb00000000000000000000000000000000000000000000000000000000815273ffffffffffffffffffffffffffffffffffffffff9092169163a9059cbb916101929186906004016104f6565b602060405180830381600087803b1580156101ac57600080fd5b505af11580156101c0573d6000803e3d6000fd5b505050506040513d601f19601f820116820180604052506101e4919081019061043e565b15156101ef57600080fd5b7f884edad9ce6fa2440d8a54cc123490eb96d2768479d49ff9c7366125a942436433836040516102209291906104f6565b60405180910390a1506001919050565b6102386103dd565b5073ffffffffffffffffffffffffffffffffffffffff16600090815260016020818152604092839020835180850190945280548452909101549082015290565b60005473ffffffffffffffffffffffffffffffffffffffff1681565b600080546040517f23b872dd00000000000000000000000000000000000000000000000000000000815273ffffffffffffffffffffffffffffffffffffffff909116906323b872dd906102ef903390309087906004016104ce565b602060405180830381600087803b15801561030957600080fd5b505af115801561031d573d6000803e3d6000fd5b505050506040513d601f19601f82011682018060405250610341919081019061043e565b151561034c57600080fd5b3360009081526001602052604090205461036c908363ffffffff6103c716565b33600081815260016020526040908190209290925590517fe1fffcc4923d04b559f4d29a8bfc6cda04eb5b0d3c460751c2402c5c5cc9109c916102209185906104f6565b6000828211156103bc57fe5b508082035b92915050565b6000828201838110156103d657fe5b9392505050565b604080518082019091526000808252602082015290565b60006103d6823561053b565b60006103d68251610554565b60006103d68235610559565b60006020828403121561042a57600080fd5b600061043684846103f4565b949350505050565b60006020828403121561045057600080fd5b60006104368484610400565b60006020828403121561046e57600080fd5b6000610436848461040c565b6104838161053b565b82525050565b61048381610554565b6104838161055c565b805160408301906104ac84826104c5565b5060208201516104bf60208501826104c5565b50505050565b61048381610559565b606081016104dc828661047a565b6104e9602083018561047a565b61043660408301846104c5565b60408101610504828561047a565b6103d660208301846104c5565b602081016103c18284610489565b602081016103c18284610492565b604081016103c1828461049b565b73ffffffffffffffffffffffffffffffffffffffff1690565b151590565b90565b60006103c18261053b5600a265627a7a723058207c640342286fc780a432d56935ed2c19fb97a863c17037407aaa704ab81bd7e26c6578706572696d656e74616cf50037",
  "source": "pragma solidity ^0.4.25;\npragma experimental ABIEncoderV2;\n\nimport \"../node_modules/rlc-faucet-contract/contracts/RLC.sol\";\n// import \"./interfaces/ERC20.sol\";\nimport \"./libs/IexecODBLibCore.sol\";\nimport \"./libs/SafeMathOZ.sol\";\n\ncontract Escrow\n{\n\tusing SafeMathOZ for uint256;\n\n\t/**\n\t* RLC contract for token transfers.\n\t*/\n\tRLC public rlc;\n\n\t/**\n\t * Escrow content\n\t */\n\tmapping(address => IexecODBLibCore.Account) m_accounts;\n\n\t/**\n\t * Events\n\t */\n\tevent Deposit (address owner, uint256 amount);\n\tevent Withdraw(address owner, uint256 amount);\n\tevent Reward  (address user,  uint256 amount);\n\tevent Seize   (address user,  uint256 amount);\n\n\t/**\n\t * Constructor\n\t */\n\tconstructor(address _rlctoken)\n\tpublic\n\t{\n\t\trequire(_rlctoken != address(0));\n\t\trlc = RLC(_rlctoken);\n\t}\n\n\t/**\n\t * Accessor\n\t */\n\tfunction viewAccount(address _user)\n\tpublic view returns (IexecODBLibCore.Account)\n\t{\n\t\treturn m_accounts[_user];\n\t}\n\n\t/**\n\t * Wallet methods: public\n\t */\n\tfunction deposit(uint256 _amount) external returns (bool)\n\t{\n\t\trequire(rlc.transferFrom(msg.sender, address(this), _amount));\n\t\tm_accounts[msg.sender].stake = m_accounts[msg.sender].stake.add(_amount);\n\t\temit Deposit(msg.sender, _amount);\n\t\treturn true;\n\t}\n\tfunction withdraw(uint256 _amount) external returns (bool)\n\t{\n\t\tm_accounts[msg.sender].stake = m_accounts[msg.sender].stake.sub(_amount);\n\t\trequire(rlc.transfer(msg.sender, _amount));\n\t\temit Withdraw(msg.sender, _amount);\n\t\treturn true;\n\t}\n\t/**\n\t * Wallet methods: Internal\n\t */\n\tfunction reward(address _user, uint256 _amount) internal /* returns (bool) */\n\t{\n\t\tm_accounts[_user].stake = m_accounts[_user].stake.add(_amount);\n\t\temit Reward(_user, _amount);\n\t\t/* return true; */\n\t}\n\tfunction seize(address _user, uint256 _amount) internal /* returns (bool) */\n\t{\n\t\tm_accounts[_user].locked = m_accounts[_user].locked.sub(_amount);\n\t\temit Seize(_user, _amount);\n\t\t/* return true; */\n\t}\n\tfunction lock(address _user, uint256 _amount) internal /* returns (bool) */\n\t{\n\t\tm_accounts[_user].stake  = m_accounts[_user].stake.sub(_amount);\n\t\tm_accounts[_user].locked = m_accounts[_user].locked.add(_amount);\n\t\t/* return true; */\n\t}\n\tfunction unlock(address _user, uint256 _amount) internal /* returns (bool) */\n\t{\n\t\tm_accounts[_user].locked = m_accounts[_user].locked.sub(_amount);\n\t\tm_accounts[_user].stake  = m_accounts[_user].stake.add(_amount);\n\t\t/* return true; */\n\t}\n}\n",
  "sourcePath": "/home/amxx/Work/iExec/code/PoCo-dev/contracts/Escrow.sol",
  "compiler": {
    "name": "solc",
    "version": "0.4.25+commit.59dbf8f1.Emscripten.clang"
  },
  "schemaVersion": "3.0.0-beta.1",
  "updatedAt": "2018-11-16T10:57:53.941Z"
}