{
  "contractName": "IexecOrderSignatureDelegate",
  "abi": [
    {
      "constant": true,
      "inputs": [],
      "name": "appregistry",
      "outputs": [
        {
          "name": "",
          "type": "address"
        }
      ],
      "payable": false,
      "stateMutability": "view",
      "type": "function",
      "signature": "0x45b637a9"
    },
    {
      "constant": true,
      "inputs": [],
      "name": "workerpoolregistry",
      "outputs": [
        {
          "name": "",
          "type": "address"
        }
      ],
      "payable": false,
      "stateMutability": "view",
      "type": "function",
      "signature": "0x90a0f546"
    },
    {
      "constant": true,
      "inputs": [],
      "name": "datasetregistry",
      "outputs": [
        {
          "name": "",
          "type": "address"
        }
      ],
      "payable": false,
      "stateMutability": "view",
      "type": "function",
      "signature": "0xb1b11d2c"
    },
    {
      "constant": true,
      "inputs": [],
      "name": "m_owner",
      "outputs": [
        {
          "name": "",
          "type": "address"
        }
      ],
      "payable": false,
      "stateMutability": "view",
      "type": "function",
      "signature": "0xdeff41c1"
    },
    {
      "constant": false,
      "inputs": [
        {
          "name": "_newOwner",
          "type": "address"
        }
      ],
      "name": "transferOwnership",
      "outputs": [],
      "payable": false,
      "stateMutability": "nonpayable",
      "type": "function",
      "signature": "0xf2fde38b"
    },
    {
      "constant": true,
      "inputs": [],
      "name": "token",
      "outputs": [
        {
          "name": "",
          "type": "address"
        }
      ],
      "payable": false,
      "stateMutability": "view",
      "type": "function",
      "signature": "0xfc0c546a"
    },
    {
      "anonymous": false,
      "inputs": [
        {
          "indexed": false,
          "name": "previousOwner",
          "type": "address"
        },
        {
          "indexed": false,
          "name": "newOwner",
          "type": "address"
        }
      ],
      "name": "OwnershipTransferred",
      "type": "event",
      "signature": "0x8be0079c531659141344cd1fd0a4f28419497f9722a3daafe3b4186f6b6457e0"
    },
    {
      "anonymous": false,
      "inputs": [
        {
          "indexed": false,
          "name": "appHash",
          "type": "bytes32"
        }
      ],
      "name": "ClosedAppOrder",
      "type": "event",
      "signature": "0x7343f75be43aba524f85326508cd975d016ef7884676377366c69a7c32e30668"
    },
    {
      "anonymous": false,
      "inputs": [
        {
          "indexed": false,
          "name": "datasetHash",
          "type": "bytes32"
        }
      ],
      "name": "ClosedDatasetOrder",
      "type": "event",
      "signature": "0xcf52e3228bc482a6656d8ab56c09888b1c5bf6aaadba0185e96a34836f2bb1d4"
    },
    {
      "anonymous": false,
      "inputs": [
        {
          "indexed": false,
          "name": "workerpoolHash",
          "type": "bytes32"
        }
      ],
      "name": "ClosedWorkerpoolOrder",
      "type": "event",
      "signature": "0x145ad51e4496173bca15e24e7eb46f9ab3a10eea0497e2801a3a6806c06113a3"
    },
    {
      "anonymous": false,
      "inputs": [
        {
          "indexed": false,
          "name": "requestHash",
          "type": "bytes32"
        }
      ],
      "name": "ClosedRequestOrder",
      "type": "event",
      "signature": "0x582f43f2a741cbe708aae3b8d38a4efc3d09d7e81919697b3ca693f4c444cc05"
    },
    {
      "constant": false,
      "inputs": [
        {
          "components": [
            {
              "name": "app",
              "type": "address"
            },
            {
              "name": "appprice",
              "type": "uint256"
            },
            {
              "name": "volume",
              "type": "uint256"
            },
            {
              "name": "tag",
              "type": "bytes32"
            },
            {
              "name": "datasetrestrict",
              "type": "address"
            },
            {
              "name": "workerpoolrestrict",
              "type": "address"
            },
            {
              "name": "requesterrestrict",
              "type": "address"
            },
            {
              "name": "salt",
              "type": "bytes32"
            },
            {
              "components": [
                {
                  "name": "v",
                  "type": "uint8"
                },
                {
                  "name": "r",
                  "type": "bytes32"
                },
                {
                  "name": "s",
                  "type": "bytes32"
                }
              ],
              "name": "sign",
              "type": "tuple"
            }
          ],
          "name": "_apporder",
          "type": "tuple"
        }
      ],
      "name": "signAppOrder",
      "outputs": [
        {
          "name": "",
          "type": "bool"
        }
      ],
      "payable": false,
      "stateMutability": "nonpayable",
      "type": "function",
      "signature": "0x8209ff3f"
    },
    {
      "constant": false,
      "inputs": [
        {
          "components": [
            {
              "name": "dataset",
              "type": "address"
            },
            {
              "name": "datasetprice",
              "type": "uint256"
            },
            {
              "name": "volume",
              "type": "uint256"
            },
            {
              "name": "tag",
              "type": "bytes32"
            },
            {
              "name": "apprestrict",
              "type": "address"
            },
            {
              "name": "workerpoolrestrict",
              "type": "address"
            },
            {
              "name": "requesterrestrict",
              "type": "address"
            },
            {
              "name": "salt",
              "type": "bytes32"
            },
            {
              "components": [
                {
                  "name": "v",
                  "type": "uint8"
                },
                {
                  "name": "r",
                  "type": "bytes32"
                },
                {
                  "name": "s",
                  "type": "bytes32"
                }
              ],
              "name": "sign",
              "type": "tuple"
            }
          ],
          "name": "_datasetorder",
          "type": "tuple"
        }
      ],
      "name": "signDatasetOrder",
      "outputs": [
        {
          "name": "",
          "type": "bool"
        }
      ],
      "payable": false,
      "stateMutability": "nonpayable",
      "type": "function",
      "signature": "0x79ea83aa"
    },
    {
      "constant": false,
      "inputs": [
        {
          "components": [
            {
              "name": "workerpool",
              "type": "address"
            },
            {
              "name": "workerpoolprice",
              "type": "uint256"
            },
            {
              "name": "volume",
              "type": "uint256"
            },
            {
              "name": "tag",
              "type": "bytes32"
            },
            {
              "name": "category",
              "type": "uint256"
            },
            {
              "name": "trust",
              "type": "uint256"
            },
            {
              "name": "apprestrict",
              "type": "address"
            },
            {
              "name": "datasetrestrict",
              "type": "address"
            },
            {
              "name": "requesterrestrict",
              "type": "address"
            },
            {
              "name": "salt",
              "type": "bytes32"
            },
            {
              "components": [
                {
                  "name": "v",
                  "type": "uint8"
                },
                {
                  "name": "r",
                  "type": "bytes32"
                },
                {
                  "name": "s",
                  "type": "bytes32"
                }
              ],
              "name": "sign",
              "type": "tuple"
            }
          ],
          "name": "_workerpoolorder",
          "type": "tuple"
        }
      ],
      "name": "signWorkerpoolOrder",
      "outputs": [
        {
          "name": "",
          "type": "bool"
        }
      ],
      "payable": false,
      "stateMutability": "nonpayable",
      "type": "function",
      "signature": "0xd8091e81"
    },
    {
      "constant": false,
      "inputs": [
        {
          "components": [
            {
              "name": "app",
              "type": "address"
            },
            {
              "name": "appmaxprice",
              "type": "uint256"
            },
            {
              "name": "dataset",
              "type": "address"
            },
            {
              "name": "datasetmaxprice",
              "type": "uint256"
            },
            {
              "name": "workerpool",
              "type": "address"
            },
            {
              "name": "workerpoolmaxprice",
              "type": "uint256"
            },
            {
              "name": "requester",
              "type": "address"
            },
            {
              "name": "volume",
              "type": "uint256"
            },
            {
              "name": "tag",
              "type": "bytes32"
            },
            {
              "name": "category",
              "type": "uint256"
            },
            {
              "name": "trust",
              "type": "uint256"
            },
            {
              "name": "beneficiary",
              "type": "address"
            },
            {
              "name": "callback",
              "type": "address"
            },
            {
              "name": "params",
              "type": "string"
            },
            {
              "name": "salt",
              "type": "bytes32"
            },
            {
              "components": [
                {
                  "name": "v",
                  "type": "uint8"
                },
                {
                  "name": "r",
                  "type": "bytes32"
                },
                {
                  "name": "s",
                  "type": "bytes32"
                }
              ],
              "name": "sign",
              "type": "tuple"
            }
          ],
          "name": "_requestorder",
          "type": "tuple"
        }
      ],
      "name": "signRequestOrder",
      "outputs": [
        {
          "name": "",
          "type": "bool"
        }
      ],
      "payable": false,
      "stateMutability": "nonpayable",
      "type": "function",
      "signature": "0xa3648c37"
    },
    {
      "constant": false,
      "inputs": [
        {
          "components": [
            {
              "name": "app",
              "type": "address"
            },
            {
              "name": "appprice",
              "type": "uint256"
            },
            {
              "name": "volume",
              "type": "uint256"
            },
            {
              "name": "tag",
              "type": "bytes32"
            },
            {
              "name": "datasetrestrict",
              "type": "address"
            },
            {
              "name": "workerpoolrestrict",
              "type": "address"
            },
            {
              "name": "requesterrestrict",
              "type": "address"
            },
            {
              "name": "salt",
              "type": "bytes32"
            },
            {
              "components": [
                {
                  "name": "v",
                  "type": "uint8"
                },
                {
                  "name": "r",
                  "type": "bytes32"
                },
                {
                  "name": "s",
                  "type": "bytes32"
                }
              ],
              "name": "sign",
              "type": "tuple"
            }
          ],
          "name": "_apporder",
          "type": "tuple"
        }
      ],
      "name": "cancelAppOrder",
      "outputs": [
        {
          "name": "",
          "type": "bool"
        }
      ],
      "payable": false,
      "stateMutability": "nonpayable",
      "type": "function",
      "signature": "0x22c8c04a"
    },
    {
      "constant": false,
      "inputs": [
        {
          "components": [
            {
              "name": "dataset",
              "type": "address"
            },
            {
              "name": "datasetprice",
              "type": "uint256"
            },
            {
              "name": "volume",
              "type": "uint256"
            },
            {
              "name": "tag",
              "type": "bytes32"
            },
            {
              "name": "apprestrict",
              "type": "address"
            },
            {
              "name": "workerpoolrestrict",
              "type": "address"
            },
            {
              "name": "requesterrestrict",
              "type": "address"
            },
            {
              "name": "salt",
              "type": "bytes32"
            },
            {
              "components": [
                {
                  "name": "v",
                  "type": "uint8"
                },
                {
                  "name": "r",
                  "type": "bytes32"
                },
                {
                  "name": "s",
                  "type": "bytes32"
                }
              ],
              "name": "sign",
              "type": "tuple"
            }
          ],
          "name": "_datasetorder",
          "type": "tuple"
        }
      ],
      "name": "cancelDatasetOrder",
      "outputs": [
        {
          "name": "",
          "type": "bool"
        }
      ],
      "payable": false,
      "stateMutability": "nonpayable",
      "type": "function",
      "signature": "0x86d94546"
    },
    {
      "constant": false,
      "inputs": [
        {
          "components": [
            {
              "name": "workerpool",
              "type": "address"
            },
            {
              "name": "workerpoolprice",
              "type": "uint256"
            },
            {
              "name": "volume",
              "type": "uint256"
            },
            {
              "name": "tag",
              "type": "bytes32"
            },
            {
              "name": "category",
              "type": "uint256"
            },
            {
              "name": "trust",
              "type": "uint256"
            },
            {
              "name": "apprestrict",
              "type": "address"
            },
            {
              "name": "datasetrestrict",
              "type": "address"
            },
            {
              "name": "requesterrestrict",
              "type": "address"
            },
            {
              "name": "salt",
              "type": "bytes32"
            },
            {
              "components": [
                {
                  "name": "v",
                  "type": "uint8"
                },
                {
                  "name": "r",
                  "type": "bytes32"
                },
                {
                  "name": "s",
                  "type": "bytes32"
                }
              ],
              "name": "sign",
              "type": "tuple"
            }
          ],
          "name": "_workerpoolorder",
          "type": "tuple"
        }
      ],
      "name": "cancelWorkerpoolOrder",
      "outputs": [
        {
          "name": "",
          "type": "bool"
        }
      ],
      "payable": false,
      "stateMutability": "nonpayable",
      "type": "function",
      "signature": "0xcd3d80a1"
    },
    {
      "constant": false,
      "inputs": [
        {
          "components": [
            {
              "name": "app",
              "type": "address"
            },
            {
              "name": "appmaxprice",
              "type": "uint256"
            },
            {
              "name": "dataset",
              "type": "address"
            },
            {
              "name": "datasetmaxprice",
              "type": "uint256"
            },
            {
              "name": "workerpool",
              "type": "address"
            },
            {
              "name": "workerpoolmaxprice",
              "type": "uint256"
            },
            {
              "name": "requester",
              "type": "address"
            },
            {
              "name": "volume",
              "type": "uint256"
            },
            {
              "name": "tag",
              "type": "bytes32"
            },
            {
              "name": "category",
              "type": "uint256"
            },
            {
              "name": "trust",
              "type": "uint256"
            },
            {
              "name": "beneficiary",
              "type": "address"
            },
            {
              "name": "callback",
              "type": "address"
            },
            {
              "name": "params",
              "type": "string"
            },
            {
              "name": "salt",
              "type": "bytes32"
            },
            {
              "components": [
                {
                  "name": "v",
                  "type": "uint8"
                },
                {
                  "name": "r",
                  "type": "bytes32"
                },
                {
                  "name": "s",
                  "type": "bytes32"
                }
              ],
              "name": "sign",
              "type": "tuple"
            }
          ],
          "name": "_requestorder",
          "type": "tuple"
        }
      ],
      "name": "cancelRequestOrder",
      "outputs": [
        {
          "name": "",
          "type": "bool"
        }
      ],
      "payable": false,
      "stateMutability": "nonpayable",
      "type": "function",
      "signature": "0x83d6aa85"
    }
  ],
  "bytecode": "0x608060405260008054600160a060020a0319163317905561173d806100256000396000f3fe6080604052600436106100b65763ffffffff60e060020a60003504166322c8c04a81146100bb57806345b637a9146100f157806379ea83aa146101135780638209ff3f1461013357806383d6aa851461015357806386d945461461017357806390a0f54614610193578063a3648c37146101a8578063b1b11d2c146101c8578063cd3d80a1146101dd578063d8091e81146101fd578063deff41c11461021d578063f2fde38b1461023f578063fc0c546a14610261575b600080fd5b3480156100c757600080fd5b506100db6100d6366004611169565b610276565b6040516100e891906115d5565b60405180910390f35b3480156100fd57600080fd5b506101066103fc565b6040516100e891906115f1565b34801561011f57600080fd5b506100db61012e366004611169565b61040b565b34801561013f57600080fd5b506100db61014e366004611169565b610569565b34801561015f57600080fd5b506100db61016e366004611188565b610650565b34801561017f57600080fd5b506100db61018e366004611169565b610758565b34801561019f57600080fd5b506101066108cd565b3480156101b457600080fd5b506100db6101c3366004611188565b6108dc565b3480156101d457600080fd5b50610106610951565b3480156101e957600080fd5b506100db6101f83660046111bd565b610960565b34801561020957600080fd5b506100db6102183660046111bd565b610ad5565b34801561022957600080fd5b50610232610bbc565b6040516100e891906115a6565b34801561024b57600080fd5b5061025f61025a366004611107565b610bcb565b005b34801561026d57600080fd5b50610106610ca3565b6040517f04951329000000000000000000000000000000000000000000000000000000008152600090819073__IexecODBLibOrders_____________________906304951329906102cb90869060040161160f565b60206040518083038186803b1580156102e357600080fd5b505af41580156102f7573d6000803e3d6000fd5b505050506040513d601f19601f8201168201806040525061031b919081019061114b565b90508260000151600160a060020a031663deff41c16040518163ffffffff1660e060020a02815260040160206040518083038186803b15801561035d57600080fd5b505afa158015610371573d6000803e3d6000fd5b505050506040513d601f19601f82011682018060405250610395919081019061112d565b600160a060020a031633146103a957600080fd5b6040808401516000838152601360205282902055517f7343f75be43aba524f85326508cd975d016ef7884676377366c69a7c32e30668906103eb9083906115e3565b60405180910390a150600192915050565b600554600160a060020a031681565b60008160000151600160a060020a031663deff41c16040518163ffffffff1660e060020a02815260040160206040518083038186803b15801561044d57600080fd5b505afa158015610461573d6000803e3d6000fd5b505050506040513d601f19601f82011682018060405250610485919081019061112d565b600160a060020a0316331461049957600080fd5b6040517f2bd4c73400000000000000000000000000000000000000000000000000000000815260019060149060009073__IexecODBLibOrders_____________________90632bd4c734906104f290889060040161160f565b60206040518083038186803b15801561050a57600080fd5b505af415801561051e573d6000803e3d6000fd5b505050506040513d601f19601f82011682018060405250610542919081019061114b565b81526020810191909152604001600020805460ff1916911515919091179055506001919050565b60008160000151600160a060020a031663deff41c16040518163ffffffff1660e060020a02815260040160206040518083038186803b1580156105ab57600080fd5b505afa1580156105bf573d6000803e3d6000fd5b505050506040513d601f19601f820116820180604052506105e3919081019061112d565b600160a060020a031633146105f757600080fd5b6040517f0495132900000000000000000000000000000000000000000000000000000000815260019060149060009073__IexecODBLibOrders_____________________906304951329906104f290889060040161160f565b6040517f0813424e000000000000000000000000000000000000000000000000000000008152600090819073__IexecODBLibOrders_____________________90630813424e906106a590869060040161161e565b60206040518083038186803b1580156106bd57600080fd5b505af41580156106d1573d6000803e3d6000fd5b505050506040513d601f19601f820116820180604052506106f5919081019061114b565b60c0840151909150600160a060020a0316331461071157600080fd5b60e08301516000828152601360205260409081902091909155517f582f43f2a741cbe708aae3b8d38a4efc3d09d7e81919697b3ca693f4c444cc05906103eb9083906115e3565b6040517f2bd4c734000000000000000000000000000000000000000000000000000000008152600090819073__IexecODBLibOrders_____________________90632bd4c734906107ad90869060040161160f565b60206040518083038186803b1580156107c557600080fd5b505af41580156107d9573d6000803e3d6000fd5b505050506040513d601f19601f820116820180604052506107fd919081019061114b565b90508260000151600160a060020a031663deff41c16040518163ffffffff1660e060020a02815260040160206040518083038186803b15801561083f57600080fd5b505afa158015610853573d6000803e3d6000fd5b505050506040513d601f19601f82011682018060405250610877919081019061112d565b600160a060020a0316331461088b57600080fd5b6040808401516000838152601360205282902055517fcf52e3228bc482a6656d8ab56c09888b1c5bf6aaadba0185e96a34836f2bb1d4906103eb9083906115e3565b600754600160a060020a031681565b60c0810151600090600160a060020a031633146108f857600080fd5b6040517f0813424e00000000000000000000000000000000000000000000000000000000815260019060149060009073__IexecODBLibOrders_____________________90630813424e906104f290889060040161161e565b600654600160a060020a031681565b6040517f58b50586000000000000000000000000000000000000000000000000000000008152600090819073__IexecODBLibOrders_____________________906358b50586906109b590869060040161162f565b60206040518083038186803b1580156109cd57600080fd5b505af41580156109e1573d6000803e3d6000fd5b505050506040513d601f19601f82011682018060405250610a05919081019061114b565b90508260000151600160a060020a031663deff41c16040518163ffffffff1660e060020a02815260040160206040518083038186803b158015610a4757600080fd5b505afa158015610a5b573d6000803e3d6000fd5b505050506040513d601f19601f82011682018060405250610a7f919081019061112d565b600160a060020a03163314610a9357600080fd5b6040808401516000838152601360205282902055517f145ad51e4496173bca15e24e7eb46f9ab3a10eea0497e2801a3a6806c06113a3906103eb9083906115e3565b60008160000151600160a060020a031663deff41c16040518163ffffffff1660e060020a02815260040160206040518083038186803b158015610b1757600080fd5b505afa158015610b2b573d6000803e3d6000fd5b505050506040513d601f19601f82011682018060405250610b4f919081019061112d565b600160a060020a03163314610b6357600080fd5b6040517f58b5058600000000000000000000000000000000000000000000000000000000815260019060149060009073__IexecODBLibOrders_____________________906358b50586906104f290889060040161162f565b600054600160a060020a031681565b600054600160a060020a03163314610be257600080fd5b600160a060020a0381161515610c2d576040517f08c379a0000000000000000000000000000000000000000000000000000000008152600401610c24906115ff565b60405180910390fd5b6000546040517f8be0079c531659141344cd1fd0a4f28419497f9722a3daafe3b4186f6b6457e091610c6c91600160a060020a039091169084906115ba565b60405180910390a16000805473ffffffffffffffffffffffffffffffffffffffff1916600160a060020a0392909216919091179055565b600454600160a060020a031681565b6000610cbe8235611691565b9392505050565b6000610cbe8251611691565b6000610cbe82356116a1565b6000610cbe82516116a1565b6000601f82018313610cfa57600080fd5b8135610d0d610d0882611665565b61163e565b91508082526020830160208301858383011115610d2957600080fd5b610d348382846116c1565b50505092915050565b60006101608284031215610d5057600080fd5b610d5b61012061163e565b90506000610d698484610cb2565b8252506020610d7a84848301610cd1565b6020830152506040610d8e84828501610cd1565b6040830152506060610da284828501610cd1565b6060830152506080610db684828501610cb2565b60808301525060a0610dca84828501610cb2565b60a08301525060c0610dde84828501610cb2565b60c08301525060e0610df284828501610cd1565b60e083015250610100610e07848285016110a0565b6101008301525092915050565b60006102408284031215610e2757600080fd5b610e3261020061163e565b90506000610e408484610cb2565b8252506020610e5184848301610cd1565b6020830152506040610e6584828501610cb2565b6040830152506060610e7984828501610cd1565b6060830152506080610e8d84828501610cb2565b60808301525060a0610ea184828501610cd1565b60a08301525060c0610eb584828501610cb2565b60c08301525060e0610ec984828501610cd1565b60e083015250610100610ede84828501610cd1565b61010083015250610120610ef484828501610cd1565b61012083015250610140610f0a84828501610cd1565b61014083015250610160610f2084828501610cb2565b61016083015250610180610f3684828501610cb2565b610180830152506101a082013567ffffffffffffffff811115610f5857600080fd5b610f6484828501610ce9565b6101a0830152506101c0610f7a84828501610cd1565b6101c0830152506101e0610f90848285016110a0565b6101e08301525092915050565b60006101a08284031215610fb057600080fd5b610fbb61016061163e565b90506000610fc98484610cb2565b8252506020610fda84848301610cd1565b6020830152506040610fee84828501610cd1565b604083015250606061100284828501610cd1565b606083015250608061101684828501610cd1565b60808301525060a061102a84828501610cd1565b60a08301525060c061103e84828501610cb2565b60c08301525060e061105284828501610cb2565b60e08301525061010061106784828501610cb2565b6101008301525061012061107d84828501610cd1565b61012083015250610140611093848285016110a0565b6101408301525092915050565b6000606082840312156110b257600080fd5b6110bc606061163e565b905060006110ca84846110fb565b82525060206110db84848301610cd1565b60208301525060406110ef84828501610cd1565b60408301525092915050565b6000610cbe82356116b0565b60006020828403121561111957600080fd5b60006111258484610cb2565b949350505050565b60006020828403121561113f57600080fd5b60006111258484610cc5565b60006020828403121561115d57600080fd5b60006111258484610cdd565b6000610160828403121561117c57600080fd5b60006111258484610d3d565b60006020828403121561119a57600080fd5b813567ffffffffffffffff8111156111b157600080fd5b61112584828501610e14565b60006101a082840312156111d057600080fd5b60006111258484610f9d565b6111e581611691565b82525050565b6111e58161169c565b6111e5816116a1565b6111e5816116b6565b60006112118261168d565b8084526112258160208601602086016116cd565b61122e816116f9565b9093016020019392505050565b602681527f63616e2774207472616e73666572206f776e65727368697020746f206164647260208201527f6573732830290000000000000000000000000000000000000000000000000000604082015260600190565b80516101608301906112a384826111dc565b5060208201516112b660208501826111f4565b5060408201516112c960408501826111f4565b5060608201516112dc60608501826111f4565b5060808201516112ef60808501826111dc565b5060a082015161130260a08501826111dc565b5060c082015161131560c08501826111dc565b5060e082015161132860e08501826111f4565b5061010082015161133d610100850182611566565b50505050565b805160009061024084019061135885826111dc565b50602083015161136b60208601826111f4565b50604083015161137e60408601826111dc565b50606083015161139160608601826111f4565b5060808301516113a460808601826111dc565b5060a08301516113b760a08601826111f4565b5060c08301516113ca60c08601826111dc565b5060e08301516113dd60e08601826111f4565b506101008301516113f26101008601826111f4565b506101208301516114076101208601826111f4565b5061014083015161141c6101408601826111f4565b506101608301516114316101608601826111dc565b506101808301516114466101808601826111dc565b506101a08301518482036101a08601526114608282611206565b9150506101c08301516114776101c08601826111f4565b506101e083015161148c6101e0860182611566565b509392505050565b80516101a08301906114a684826111dc565b5060208201516114b960208501826111f4565b5060408201516114cc60408501826111f4565b5060608201516114df60608501826111f4565b5060808201516114f260808501826111f4565b5060a082015161150560a08501826111f4565b5060c082015161151860c08501826111dc565b5060e082015161152b60e08501826111dc565b506101008201516115406101008501826111dc565b506101208201516115556101208501826111f4565b5061014082015161133d6101408501825b80516060830190611577848261159d565b50602082015161158a60208501826111f4565b50604082015161133d60408501826111f4565b6111e5816116b0565b602081016115b482846111dc565b92915050565b604081016115c882856111dc565b610cbe60208301846111dc565b602081016115b482846111eb565b602081016115b482846111f4565b602081016115b482846111fd565b602080825281016115b48161123b565b61016081016115b48284611291565b60208082528101610cbe8184611343565b6101a081016115b48284611494565b60405181810167ffffffffffffffff8111828210171561165d57600080fd5b604052919050565b600067ffffffffffffffff82111561167c57600080fd5b506020601f91909101601f19160190565b5190565b60006115b4826116a4565b151590565b90565b600160a060020a031690565b60ff1690565b60006115b482611691565b82818337506000910152565b60005b838110156116e85781810151838201526020016116d0565b8381111561133d5750506000910152565b601f01601f19169056fea265627a7a7230582066b1b2d87ab3f9d8fadb38606ec7195561dc48cb5ee9c8c34ef27d20c31cc7a26c6578706572696d656e74616cf50037",
  "source": "pragma solidity ^0.5.0;\npragma experimental ABIEncoderV2;\n\nimport \"../libs/IexecODBLibOrders.sol\";\nimport \"../registries/App.sol\";\nimport \"../registries/Dataset.sol\";\nimport \"../registries/Workerpool.sol\";\n\nimport \"../IexecStore.sol\";\n\ncontract IexecOrderSignature // make interface\n{\n\tevent ClosedAppOrder       (bytes32 appHash);\n\tevent ClosedDatasetOrder   (bytes32 datasetHash);\n\tevent ClosedWorkerpoolOrder(bytes32 workerpoolHash);\n\tevent ClosedRequestOrder   (bytes32 requestHash);\n\n\tfunction signAppOrder         (IexecODBLibOrders.AppOrder        memory _apporder       ) public returns (bool);\n\tfunction signDatasetOrder     (IexecODBLibOrders.DatasetOrder    memory _datasetorder   ) public returns (bool);\n\tfunction signWorkerpoolOrder  (IexecODBLibOrders.WorkerpoolOrder memory _workerpoolorder) public returns (bool);\n\tfunction signRequestOrder     (IexecODBLibOrders.RequestOrder    memory _requestorder   ) public returns (bool);\n\tfunction cancelAppOrder       (IexecODBLibOrders.AppOrder        memory _apporder       ) public returns (bool);\n\tfunction cancelDatasetOrder   (IexecODBLibOrders.DatasetOrder    memory _datasetorder   ) public returns (bool);\n\tfunction cancelWorkerpoolOrder(IexecODBLibOrders.WorkerpoolOrder memory _workerpoolorder) public returns (bool);\n\tfunction cancelRequestOrder   (IexecODBLibOrders.RequestOrder    memory _requestorder   ) public returns (bool);\n}\n\ncontract IexecOrderSignatureDelegate is IexecOrderSignature, IexecStore\n{\n\tusing IexecODBLibOrders for IexecODBLibOrders.AppOrder;\n\tusing IexecODBLibOrders for IexecODBLibOrders.DatasetOrder;\n\tusing IexecODBLibOrders for IexecODBLibOrders.WorkerpoolOrder;\n\tusing IexecODBLibOrders for IexecODBLibOrders.RequestOrder;\n\n\t/***************************************************************************\n\t *                            pre-signing tools                            *\n\t ***************************************************************************/\n\tfunction signAppOrder(IexecODBLibOrders.AppOrder memory _apporder)\n\tpublic returns (bool)\n\t{\n\t\trequire(msg.sender == App(_apporder.app).m_owner());\n\t\tm_presigned[_apporder.hash()] = true;\n\t\treturn true;\n\t}\n\n\tfunction signDatasetOrder(IexecODBLibOrders.DatasetOrder memory _datasetorder)\n\tpublic returns (bool)\n\t{\n\t\trequire(msg.sender == Dataset(_datasetorder.dataset).m_owner());\n\t\tm_presigned[_datasetorder.hash()] = true;\n\t\treturn true;\n\t}\n\n\tfunction signWorkerpoolOrder(IexecODBLibOrders.WorkerpoolOrder memory _workerpoolorder)\n\tpublic returns (bool)\n\t{\n\t\trequire(msg.sender == Workerpool(_workerpoolorder.workerpool).m_owner());\n\t\tm_presigned[_workerpoolorder.hash()] = true;\n\t\treturn true;\n\t}\n\n\tfunction signRequestOrder(IexecODBLibOrders.RequestOrder memory _requestorder)\n\tpublic returns (bool)\n\t{\n\t\trequire(msg.sender == _requestorder.requester);\n\t\tm_presigned[_requestorder.hash()] = true;\n\t\treturn true;\n\t}\n\n\t/***************************************************************************\n\t *                            cancelling tools                             *\n\t ***************************************************************************/\n\tfunction cancelAppOrder(IexecODBLibOrders.AppOrder memory _apporder)\n\tpublic returns (bool)\n\t{\n\t\tbytes32 dapporderHash = _apporder.hash();\n\t\trequire(msg.sender == App(_apporder.app).m_owner());\n\t\t// require(verify(msg.sender, dapporderHash, _apporder.sign));\n\t\tm_consumed[dapporderHash] = _apporder.volume;\n\t\temit ClosedAppOrder(dapporderHash);\n\t\treturn true;\n\t}\n\n\tfunction cancelDatasetOrder(IexecODBLibOrders.DatasetOrder memory _datasetorder)\n\tpublic returns (bool)\n\t{\n\t\tbytes32 dataorderHash = _datasetorder.hash();\n\t\trequire(msg.sender == Dataset(_datasetorder.dataset).m_owner());\n\t\t// require(verify(msg.sender, dataorderHash, _datasetorder.sign));\n\t\tm_consumed[dataorderHash] = _datasetorder.volume;\n\t\temit ClosedDatasetOrder(dataorderHash);\n\t\treturn true;\n\t}\n\n\tfunction cancelWorkerpoolOrder(IexecODBLibOrders.WorkerpoolOrder memory _workerpoolorder)\n\tpublic returns (bool)\n\t{\n\t\tbytes32 poolorderHash = _workerpoolorder.hash();\n\t\trequire(msg.sender == Workerpool(_workerpoolorder.workerpool).m_owner());\n\t\t// require(verify(msg.sender, poolorderHash, _workerpoolorder.sign));\n\t\tm_consumed[poolorderHash] = _workerpoolorder.volume;\n\t\temit ClosedWorkerpoolOrder(poolorderHash);\n\t\treturn true;\n\t}\n\n\tfunction cancelRequestOrder(IexecODBLibOrders.RequestOrder memory _requestorder)\n\tpublic returns (bool)\n\t{\n\t\tbytes32 requestorderHash = _requestorder.hash();\n\t\trequire(msg.sender == _requestorder.requester);\n\t\t// require(verify(msg.sender, requestorderHash, _requestorder.sign));\n\t\tm_consumed[requestorderHash] = _requestorder.volume;\n\t\temit ClosedRequestOrder(requestorderHash);\n\t\treturn true;\n\t}\n\n}\n",
  "sourcePath": "/home/amxx/Work/iExec/code/PoCo-dev/contracts/delegate/IexecOrderSignature.sol",
  "compiler": {
    "name": "solc",
    "version": "0.5.0+commit.1d4f565a.Emscripten.clang"
  },
  "schemaVersion": "3.0.1",
  "updatedAt": "2019-01-08T09:34:24.444Z",
  "devdoc": {
    "methods": {
      "transferOwnership(address)": {
        "details": "Allows the current owner to transfer control of the contract to a newOwner.",
        "params": {
          "_newOwner": "The address to transfer ownership to."
        }
      }
    }
  },
  "userdoc": {
    "methods": {
      "cancelAppOrder((address,uint256,uint256,bytes32,address,address,address,bytes32,(uint8,bytes32,bytes32)))": {
        "notice": "*************************************************************************                           cancelling tools                             ***************************************************************************"
      },
      "signAppOrder((address,uint256,uint256,bytes32,address,address,address,bytes32,(uint8,bytes32,bytes32)))": {
        "notice": "*************************************************************************                           pre-signing tools                            ***************************************************************************"
      }
    }
  }
}