{
  "contractName": "IexecODBLibOrders",
  "abi": [
    {
      "constant": true,
      "inputs": [],
      "name": "DATAORDER_TYPEHASH",
      "outputs": [
        {
          "name": "",
          "type": "bytes32"
        }
      ],
      "payable": false,
      "stateMutability": "view",
      "type": "function",
      "signature": "0x35cc7411"
    },
    {
      "constant": true,
      "inputs": [],
      "name": "USERORDER_TYPEHASH",
      "outputs": [
        {
          "name": "",
          "type": "bytes32"
        }
      ],
      "payable": false,
      "stateMutability": "view",
      "type": "function",
      "signature": "0x8010559c"
    },
    {
      "constant": true,
      "inputs": [],
      "name": "DAPPORDER_TYPEHASH",
      "outputs": [
        {
          "name": "",
          "type": "bytes32"
        }
      ],
      "payable": false,
      "stateMutability": "view",
      "type": "function",
      "signature": "0xb17ed972"
    },
    {
      "constant": true,
      "inputs": [],
      "name": "EIP712DOMAIN_TYPEHASH",
      "outputs": [
        {
          "name": "",
          "type": "bytes32"
        }
      ],
      "payable": false,
      "stateMutability": "view",
      "type": "function",
      "signature": "0xc49f91d3"
    },
    {
      "constant": true,
      "inputs": [],
      "name": "POOLORDER_TYPEHASH",
      "outputs": [
        {
          "name": "",
          "type": "bytes32"
        }
      ],
      "payable": false,
      "stateMutability": "view",
      "type": "function",
      "signature": "0xdb384f01"
    },
    {
      "constant": true,
      "inputs": [
        {
          "components": [
            {
              "name": "data",
              "type": "address"
            },
            {
              "name": "dataprice",
              "type": "uint256"
            },
            {
              "name": "volume",
              "type": "uint256"
            },
            {
              "name": "tag",
              "type": "uint256"
            },
            {
              "name": "dapprestrict",
              "type": "address"
            },
            {
              "name": "poolrestrict",
              "type": "address"
            },
            {
              "name": "userrestrict",
              "type": "address"
            },
            {
              "name": "salt",
              "type": "bytes32"
            },
            {
              "components": [
                {
                  "name": "v",
                  "type": "uint8"
                },
                {
                  "name": "r",
                  "type": "bytes32"
                },
                {
                  "name": "s",
                  "type": "bytes32"
                }
              ],
              "name": "sign",
              "type": "tuple"
            }
          ],
          "name": "_dataorder",
          "type": "tuple"
        }
      ],
      "name": "hash",
      "outputs": [
        {
          "name": "hash",
          "type": "bytes32"
        }
      ],
      "payable": false,
      "stateMutability": "pure",
      "type": "function",
      "signature": "0xcafc7a19"
    },
    {
      "constant": true,
      "inputs": [
        {
          "components": [
            {
              "name": "dapp",
              "type": "address"
            },
            {
              "name": "dappmaxprice",
              "type": "uint256"
            },
            {
              "name": "data",
              "type": "address"
            },
            {
              "name": "datamaxprice",
              "type": "uint256"
            },
            {
              "name": "pool",
              "type": "address"
            },
            {
              "name": "poolmaxprice",
              "type": "uint256"
            },
            {
              "name": "requester",
              "type": "address"
            },
            {
              "name": "volume",
              "type": "uint256"
            },
            {
              "name": "tag",
              "type": "uint256"
            },
            {
              "name": "category",
              "type": "uint256"
            },
            {
              "name": "trust",
              "type": "uint256"
            },
            {
              "name": "beneficiary",
              "type": "address"
            },
            {
              "name": "callback",
              "type": "address"
            },
            {
              "name": "params",
              "type": "string"
            },
            {
              "name": "salt",
              "type": "bytes32"
            },
            {
              "components": [
                {
                  "name": "v",
                  "type": "uint8"
                },
                {
                  "name": "r",
                  "type": "bytes32"
                },
                {
                  "name": "s",
                  "type": "bytes32"
                }
              ],
              "name": "sign",
              "type": "tuple"
            }
          ],
          "name": "_userorder",
          "type": "tuple"
        }
      ],
      "name": "hash",
      "outputs": [
        {
          "name": "hash",
          "type": "bytes32"
        }
      ],
      "payable": false,
      "stateMutability": "pure",
      "type": "function",
      "signature": "0xcafc7a19"
    },
    {
      "constant": true,
      "inputs": [
        {
          "components": [
            {
              "name": "dapp",
              "type": "address"
            },
            {
              "name": "dappprice",
              "type": "uint256"
            },
            {
              "name": "volume",
              "type": "uint256"
            },
            {
              "name": "tag",
              "type": "uint256"
            },
            {
              "name": "datarestrict",
              "type": "address"
            },
            {
              "name": "poolrestrict",
              "type": "address"
            },
            {
              "name": "userrestrict",
              "type": "address"
            },
            {
              "name": "salt",
              "type": "bytes32"
            },
            {
              "components": [
                {
                  "name": "v",
                  "type": "uint8"
                },
                {
                  "name": "r",
                  "type": "bytes32"
                },
                {
                  "name": "s",
                  "type": "bytes32"
                }
              ],
              "name": "sign",
              "type": "tuple"
            }
          ],
          "name": "_dapporder",
          "type": "tuple"
        }
      ],
      "name": "hash",
      "outputs": [
        {
          "name": "hash",
          "type": "bytes32"
        }
      ],
      "payable": false,
      "stateMutability": "pure",
      "type": "function",
      "signature": "0xcafc7a19"
    },
    {
      "constant": true,
      "inputs": [
        {
          "components": [
            {
              "name": "pool",
              "type": "address"
            },
            {
              "name": "poolprice",
              "type": "uint256"
            },
            {
              "name": "volume",
              "type": "uint256"
            },
            {
              "name": "tag",
              "type": "uint256"
            },
            {
              "name": "category",
              "type": "uint256"
            },
            {
              "name": "trust",
              "type": "uint256"
            },
            {
              "name": "dapprestrict",
              "type": "address"
            },
            {
              "name": "datarestrict",
              "type": "address"
            },
            {
              "name": "userrestrict",
              "type": "address"
            },
            {
              "name": "salt",
              "type": "bytes32"
            },
            {
              "components": [
                {
                  "name": "v",
                  "type": "uint8"
                },
                {
                  "name": "r",
                  "type": "bytes32"
                },
                {
                  "name": "s",
                  "type": "bytes32"
                }
              ],
              "name": "sign",
              "type": "tuple"
            }
          ],
          "name": "_poolorder",
          "type": "tuple"
        }
      ],
      "name": "hash",
      "outputs": [
        {
          "name": "hash",
          "type": "bytes32"
        }
      ],
      "payable": false,
      "stateMutability": "pure",
      "type": "function",
      "signature": "0xcafc7a19"
    },
    {
      "constant": true,
      "inputs": [
        {
          "components": [
            {
              "name": "name",
              "type": "string"
            },
            {
              "name": "version",
              "type": "string"
            },
            {
              "name": "chainId",
              "type": "uint256"
            },
            {
              "name": "verifyingContract",
              "type": "address"
            }
          ],
          "name": "_domain",
          "type": "tuple"
        }
      ],
      "name": "hash",
      "outputs": [
        {
          "name": "hash",
          "type": "bytes32"
        }
      ],
      "payable": false,
      "stateMutability": "pure",
      "type": "function",
      "signature": "0xcafc7a19"
    }
  ],
  "bytecode": "0x610acd610030600b82828239805160001a6073146000811461002057610022565bfe5b5030600052607381538281f30073000000000000000000000000000000000000000030146080604052600436106100ba5763ffffffff7c010000000000000000000000000000000000000000000000000000000060003504166335cc741181146100bf5780636248b217146100dd5780636dfd20e5146100f05780636f567cf9146101035780638010559c146101165780639810b3541461011e578063b17ed97214610131578063c49f91d314610139578063db384f0114610141578063eca34ccf14610149575b600080fd5b6100c761015c565b6040516100d49190610a02565b60405180910390f35b6100c76100eb366004610943565b610180565b6100c76100fe3660046109be565b6101b3565b6100c7610111366004610943565b610263565b6100c7610296565b6100c761012c36600461099f565b6102ba565b6100c76102ed565b6100c7610311565b6100c7610335565b6100c761015736600461096a565b610359565b7f25152fa69720eec3b3360dd907576b7ec55e2633342bf993e09e8f514864093081565b601f190180517f25152fa69720eec3b3360dd907576b7ec55e2633342bf993e09e8f514864093082526101208220915290565b6101a081015160405181516000927f8160ee616648fd072bd2f7da47db26c4adbeb9f3f44e6d6cad0fc6f011f2fbbf928492819060208401908083835b6020831061020f5780518252601f1990920191602091820191016101f0565b5181516020939093036101000a60001901801990911692169190911790526040519201829003909120601f19880180516101a090990180519782529182526102008120989052949094525093949350505050565b601f190180517f659fc082754b0da79509e75c6726055cbe84eb7527b278418c8a5998b1ce40c382526101208220915290565b7f8160ee616648fd072bd2f7da47db26c4adbeb9f3f44e6d6cad0fc6f011f2fbbf81565b601f190180517f03b4801c105a2678088a8300a3e19699cc783e5a43439f28f3bc75b8391552ea82526101608220915290565b7f659fc082754b0da79509e75c6726055cbe84eb7527b278418c8a5998b1ce40c381565b7f8b73c3c69bb8fe3d512ecc4cf759cc79239f7b179b0ffacaa9a75d522b39400f81565b7f03b4801c105a2678088a8300a3e19699cc783e5a43439f28f3bc75b8391552ea81565b805160405181516000927f8b73c3c69bb8fe3d512ecc4cf759cc79239f7b179b0ffacaa9a75d522b39400f92849283929190819060208401908083835b602083106103b55780518252601f199092019160209182019101610396565b51815160209384036101000a60001901801990921691161790526040519190930181900381208a840151805191985095509093508392850191508083835b602083106104125780518252601f1990920191602091820191016103f3565b51815160209384036101000a6000190180199092169116179052604051919093018190039020601f198a0180518b51948c0180519a8352988c5291885260a0812091905291909852949093525091949350505050565b60006104748235610a68565b9392505050565b60006104748235610a65565b6000601f8201831361049857600080fd5b81356104ab6104a682610a3d565b610a16565b915080825260208301602083018583830111156104c757600080fd5b6104d2838284610a87565b50505092915050565b600061016082840312156104ee57600080fd5b6104f9610120610a16565b905060006105078484610468565b82525060206105188484830161047b565b602083015250604061052c8482850161047b565b60408301525060606105408482850161047b565b606083015250608061055484828501610468565b60808301525060a061056884828501610468565b60a08301525060c061057c84828501610468565b60c08301525060e06105908482850161047b565b60e0830152506101006105a5848285016108dc565b6101008301525092915050565b6000608082840312156105c457600080fd5b6105ce6080610a16565b9050813567ffffffffffffffff8111156105e757600080fd5b6105f384828501610487565b825250602082013567ffffffffffffffff81111561061057600080fd5b61061c84828501610487565b60208301525060406106308482850161047b565b604083015250606061064484828501610468565b60608301525092915050565b60006101a0828403121561066357600080fd5b61066e610160610a16565b9050600061067c8484610468565b825250602061068d8484830161047b565b60208301525060406106a18482850161047b565b60408301525060606106b58482850161047b565b60608301525060806106c98482850161047b565b60808301525060a06106dd8482850161047b565b60a08301525060c06106f184828501610468565b60c08301525060e061070584828501610468565b60e08301525061010061071a84828501610468565b610100830152506101206107308482850161047b565b61012083015250610140610746848285016108dc565b6101408301525092915050565b6000610240828403121561076657600080fd5b610771610200610a16565b9050600061077f8484610468565b82525060206107908484830161047b565b60208301525060406107a484828501610468565b60408301525060606107b88482850161047b565b60608301525060806107cc84828501610468565b60808301525060a06107e08482850161047b565b60a08301525060c06107f484828501610468565b60c08301525060e06108088482850161047b565b60e08301525061010061081d8482850161047b565b610100830152506101206108338482850161047b565b610120830152506101406108498482850161047b565b6101408301525061016061085f84828501610468565b6101608301525061018061087584828501610468565b610180830152506101a082013567ffffffffffffffff81111561089757600080fd5b6108a384828501610487565b6101a0830152506101c06108b98482850161047b565b6101c0830152506101e06108cf848285016108dc565b6101e08301525092915050565b6000606082840312156108ee57600080fd5b6108f86060610a16565b905060006109068484610937565b82525060206109178484830161047b565b602083015250604061092b8482850161047b565b60408301525092915050565b60006104748235610a81565b6000610160828403121561095657600080fd5b600061096284846104db565b949350505050565b60006020828403121561097c57600080fd5b813567ffffffffffffffff81111561099357600080fd5b610962848285016105b2565b60006101a082840312156109b257600080fd5b60006109628484610650565b6000602082840312156109d057600080fd5b813567ffffffffffffffff8111156109e757600080fd5b61096284828501610753565b6109fc81610a65565b82525050565b60208101610a1082846109f3565b92915050565b60405181810167ffffffffffffffff81118282101715610a3557600080fd5b604052919050565b600067ffffffffffffffff821115610a5457600080fd5b506020601f91909101601f19160190565b90565b73ffffffffffffffffffffffffffffffffffffffff1690565b60ff1690565b828183375060009101525600a265627a7a72305820103c04e5c15f4c78b748874451824940cffd305e8d74ccafbacfab808002f82f6c6578706572696d656e74616cf50037",
  "source": "pragma solidity ^0.4.25;\npragma experimental ABIEncoderV2;\n\nlibrary IexecODBLibOrders\n{\n\tstruct signature\n\t{\n\t\tuint8   v;\n\t\tbytes32 r;\n\t\tbytes32 s;\n\t}\n\n\t// bytes32 public constant EIP712DOMAIN_TYPEHASH = keccak256(\"EIP712Domain(string name,string version,uint256 chainId,address verifyingContract)\");\n\t// bytes32 public constant DAPPORDER_TYPEHASH    = keccak256(\"DappOrder(address dapp,uint256 dappprice,uint256 volume,uint256 tag,address datarestrict,address poolrestrict,address userrestrict,bytes32 salt)\");\n\t// bytes32 public constant DATAORDER_TYPEHASH    = keccak256(\"DataOrder(address data,uint256 dataprice,uint256 volume,uint256 tag,address dapprestrict,address poolrestrict,address userrestrict,bytes32 salt)\");\n\t// bytes32 public constant POOLORDER_TYPEHASH    = keccak256(\"PoolOrder(address pool,uint256 poolprice,uint256 volume,uint256 tag,uint256 category,uint256 trust,address dapprestrict,address datarestrict,address userrestrict,bytes32 salt)\");\n\t// bytes32 public constant USERORDER_TYPEHASH    = keccak256(\"UserOrder(address dapp,uint256 dappmaxprice,address data,uint256 datamaxprice,address pool,uint256 poolmaxprice,address requester,uint256 volume,uint256 tag,uint256 category,uint256 trust,address beneficiary,address callback,string params,bytes32 salt)\");\n\tbytes32 public constant EIP712DOMAIN_TYPEHASH = 0x8b73c3c69bb8fe3d512ecc4cf759cc79239f7b179b0ffacaa9a75d522b39400f;\n\tbytes32 public constant DAPPORDER_TYPEHASH    = 0x659fc082754b0da79509e75c6726055cbe84eb7527b278418c8a5998b1ce40c3;\n\tbytes32 public constant DATAORDER_TYPEHASH    = 0x25152fa69720eec3b3360dd907576b7ec55e2633342bf993e09e8f5148640930;\n\tbytes32 public constant POOLORDER_TYPEHASH    = 0x03b4801c105a2678088a8300a3e19699cc783e5a43439f28f3bc75b8391552ea;\n\tbytes32 public constant USERORDER_TYPEHASH    = 0x8160ee616648fd072bd2f7da47db26c4adbeb9f3f44e6d6cad0fc6f011f2fbbf;\n\n\tstruct EIP712Domain\n\t{\n\t\tstring  name;\n\t\tstring  version;\n\t\tuint256 chainId;\n\t\taddress verifyingContract;\n\t}\n\tstruct DappOrder\n\t{\n\t\taddress dapp;\n\t\tuint256 dappprice;\n\t\tuint256 volume;\n\t\tuint256 tag;\n\t\taddress datarestrict;\n\t\taddress poolrestrict;\n\t\taddress userrestrict;\n\t\tbytes32 salt;\n\t\tsignature sign;\n\t}\n\tstruct DataOrder\n\t{\n\t\taddress data;\n\t\tuint256 dataprice;\n\t\tuint256 volume;\n\t\tuint256 tag;\n\t\taddress dapprestrict;\n\t\taddress poolrestrict;\n\t\taddress userrestrict;\n\t\tbytes32 salt;\n\t\tsignature sign;\n\t}\n\tstruct PoolOrder\n\t{\n\t\taddress pool;\n\t\tuint256 poolprice;\n\t\tuint256 volume;\n\t\tuint256 tag;\n\t\tuint256 category;\n\t\tuint256 trust;\n\t\taddress dapprestrict;\n\t\taddress datarestrict;\n\t\taddress userrestrict;\n\t\tbytes32 salt;\n\t\tsignature sign;\n\t}\n\tstruct UserOrder\n\t{\n\t\taddress dapp;\n\t\tuint256 dappmaxprice;\n\t\taddress data;\n\t\tuint256 datamaxprice;\n\t\taddress pool;\n\t\tuint256 poolmaxprice;\n\t\taddress requester;\n\t\tuint256 volume;\n\t\tuint256 tag;\n\t\tuint256 category;\n\t\tuint256 trust;\n\t\taddress beneficiary;\n\t\taddress callback;\n\t\tstring  params;\n\t\tbytes32 salt;\n\t\tsignature sign;\n\t}\n\n\tfunction hash(EIP712Domain _domain)\n\tpublic pure returns (bytes32 hash)\n\t{\n\t\t/**\n\t\t * Readeable but expensive\n\t\t */\n\t\t// return keccak256(abi.encode(\n\t\t// \tEIP712DOMAIN_TYPEHASH\n\t\t// , keccak256(bytes(_domain.name))\n\t\t// , keccak256(bytes(_domain.version))\n\t\t// , _domain.chainId\n\t\t// , _domain.verifyingContract\n\t\t// ));\n\n\t\t// Compute sub-hashes\n\t\tbytes32 typeHash    = EIP712DOMAIN_TYPEHASH;\n\t\tbytes32 nameHash    = keccak256(bytes(_domain.name));\n\t\tbytes32 versionHash = keccak256(bytes(_domain.version));\n\t\tassembly {\n\t\t\t// Back up select memory\n\t\t\tlet temp1 := mload(sub(_domain, 32))\n\t\t\tlet temp2 := mload(add(_domain,  0))\n\t\t\tlet temp3 := mload(add(_domain, 32))\n\t\t\t// Write typeHash and sub-hashes\n\t\t\tmstore(sub(_domain, 32),    typeHash)\n\t\t\tmstore(add(_domain,  0),    nameHash)\n\t\t\tmstore(add(_domain, 32), versionHash)\n\t\t\t// Compute hash\n\t\t\thash := keccak256(sub(_domain, 32), 160) // 160 = 32 + 128\n\t\t\t// Restore memory\n\t\t\tmstore(sub(_domain, 32), temp1)\n\t\t\tmstore(add(_domain,  0), temp2)\n\t\t\tmstore(add(_domain, 32), temp3)\n\t\t}\n\t}\n\tfunction hash(DappOrder _dapporder)\n\tpublic pure returns (bytes32 hash)\n\t{\n\t\t/**\n\t\t * Readeable but expensive\n\t\t */\n\t\t// return keccak256(abi.encode(\n\t\t// \tDAPPORDER_TYPEHASH\n\t\t// , _dapporder.dapp\n\t\t// , _dapporder.dappprice\n\t\t// , _dapporder.volume\n\t\t// , _dapporder.tag\n\t\t// , _dapporder.datarestrict\n\t\t// , _dapporder.poolrestrict\n\t\t// , _dapporder.userrestrict\n\t\t// , _dapporder.salt\n\t\t// ));\n\n\t\t// Compute sub-hashes\n\t\tbytes32 typeHash = DAPPORDER_TYPEHASH;\n\t\tassembly {\n\t\t\t// Back up select memory\n\t\t\tlet temp1 := mload(sub(_dapporder, 32))\n\t\t\t// Write typeHash and sub-hashes\n\t\t\tmstore(sub(_dapporder, 32), typeHash)\n\t\t\t// Compute hash\n\t\t\thash := keccak256(sub(_dapporder, 32), 288) // 288 = 32 + 256\n\t\t\t// Restore memory\n\t\t\tmstore(sub(_dapporder, 32), temp1)\n\t\t}\n\t}\n\tfunction hash(DataOrder _dataorder)\n\tpublic pure returns (bytes32 hash)\n\t{\n\t\t/**\n\t\t * Readeable but expensive\n\t\t */\n\t\t// return keccak256(abi.encode(\n\t\t// \tDATAORDER_TYPEHASH\n\t\t// , _dataorder.data\n\t\t// , _dataorder.dataprice\n\t\t// , _dataorder.volume\n\t\t// , _dataorder.tag\n\t\t// , _dataorder.dapprestrict\n\t\t// , _dataorder.poolrestrict\n\t\t// , _dataorder.userrestrict\n\t\t// , _dataorder.salt\n\t\t// ));\n\n\t\t// Compute sub-hashes\n\t\tbytes32 typeHash = DATAORDER_TYPEHASH;\n\t\tassembly {\n\t\t\t// Back up select memory\n\t\t\tlet temp1 := mload(sub(_dataorder, 32))\n\t\t\t// Write typeHash and sub-hashes\n\t\t\tmstore(sub(_dataorder, 32), typeHash)\n\t\t\t// Compute hash\n\t\t\thash := keccak256(sub(_dataorder, 32), 288) // 288 = 32 + 256\n\t\t\t// Restore memory\n\t\t\tmstore(sub(_dataorder, 32), temp1)\n\t\t}\n\t}\n\tfunction hash(PoolOrder _poolorder)\n\tpublic pure returns (bytes32 hash)\n\t{\n\t\t/**\n\t\t * Readeable but expensive\n\t\t */\n\t\t// return keccak256(abi.encode(\n\t\t// \tPOOLORDER_TYPEHASH\n\t\t// , _poolorder.pool\n\t\t// , _poolorder.poolprice\n\t\t// , _poolorder.volume\n\t\t// , _poolorder.tag\n\t\t// , _poolorder.category\n\t\t// , _poolorder.trust\n\t\t// , _poolorder.dapprestrict\n\t\t// , _poolorder.datarestrict\n\t\t// , _poolorder.userrestrict\n\t\t// , _poolorder.salt\n\t\t// ));\n\n\t\t// Compute sub-hashes\n\t\tbytes32 typeHash = POOLORDER_TYPEHASH;\n\t\tassembly {\n\t\t\t// Back up select memory\n\t\t\tlet temp1 := mload(sub(_poolorder, 32))\n\t\t\t// Write typeHash and sub-hashes\n\t\t\tmstore(sub(_poolorder, 32), typeHash)\n\t\t\t// Compute hash\n\t\t\thash := keccak256(sub(_poolorder, 32), 352) // 352 = 32 + 320\n\t\t\t// Restore memory\n\t\t\tmstore(sub(_poolorder, 32), temp1)\n\t\t}\n\t}\n\tfunction hash(UserOrder _userorder)\n\tpublic pure returns (bytes32 hash)\n\t{\n\t\t/**\n\t\t * Readeable but expensive\n\t\t */\n\t\t//return keccak256(abi.encodePacked(\n\t\t//\tabi.encode(\n\t\t//\t\tUSERORDER_TYPEHASH\n\t\t//\t, _userorder.dapp\n\t\t//\t, _userorder.dappmaxprice\n\t\t//\t, _userorder.data\n\t\t//\t, _userorder.datamaxprice\n\t\t//\t, _userorder.pool\n\t\t//\t, _userorder.poolmaxprice\n\t\t//\t, _userorder.requester\n\t\t//\t), abi.encode(\n\t\t//\t\t_userorder.volume\n\t\t//\t, _userorder.tag\n\t\t//\t, _userorder.category\n\t\t//\t, _userorder.trust\n\t\t//\t, _userorder.beneficiary\n\t\t//\t, _userorder.callback\n\t\t//\t, keccak256(bytes(_userorder.params))\n\t\t//\t, _userorder.salt\n\t\t//\t)\n\t\t//));\n\n\t\t// Compute sub-hashes\n\t\tbytes32 typeHash = USERORDER_TYPEHASH;\n\t\tbytes32 paramsHash = keccak256(bytes(_userorder.params));\n\t\tassembly {\n\t\t\t// Back up select memory\n\t\t\tlet temp1 := mload(sub(_userorder,  32))\n\t\t\tlet temp2 := mload(add(_userorder, 416))\n\t\t\t// Write typeHash and sub-hashes\n\t\t\tmstore(sub(_userorder,  32), typeHash)\n\t\t\tmstore(add(_userorder, 416), paramsHash)\n\t\t\t// Compute hash\n\t\t\thash := keccak256(sub(_userorder, 32), 512) // 512 = 32 + 480\n\t\t\t// Restore memory\n\t\t\tmstore(sub(_userorder,  32), temp1)\n\t\t\tmstore(add(_userorder, 416), temp2)\n\t\t}\n\t}\n}\n",
  "sourcePath": "/home/amxx/Work/iExec/code/PoCo-dev/contracts/libs/IexecODBLibOrders.sol",
  "compiler": {
    "name": "solc",
    "version": "0.4.25+commit.59dbf8f1.Emscripten.clang"
  },
  "schemaVersion": "3.0.0-beta.1",
  "updatedAt": "2018-11-16T10:55:58.085Z"
}