{
  "contractName": "IexecHub",
  "abi": [
    {
      "constant": false,
      "inputs": [
        {
          "name": "name",
          "type": "string"
        },
        {
          "name": "description",
          "type": "string"
        },
        {
          "name": "workClockTimeRef",
          "type": "uint256"
        }
      ],
      "name": "createCategory",
      "outputs": [
        {
          "name": "",
          "type": "uint256"
        }
      ],
      "payable": false,
      "stateMutability": "nonpayable",
      "type": "function",
      "signature": "0x298503d9"
    },
    {
      "constant": true,
      "inputs": [],
      "name": "appregistry",
      "outputs": [
        {
          "name": "",
          "type": "address"
        }
      ],
      "payable": false,
      "stateMutability": "view",
      "type": "function",
      "signature": "0x45b637a9"
    },
    {
      "constant": true,
      "inputs": [
        {
          "name": "_catid",
          "type": "uint256"
        }
      ],
      "name": "viewCategory",
      "outputs": [
        {
          "components": [
            {
              "name": "name",
              "type": "string"
            },
            {
              "name": "description",
              "type": "string"
            },
            {
              "name": "workClockTimeRef",
              "type": "uint256"
            }
          ],
          "name": "category",
          "type": "tuple"
        }
      ],
      "payable": false,
      "stateMutability": "view",
      "type": "function",
      "signature": "0x4f5f44ec"
    },
    {
      "constant": true,
      "inputs": [],
      "name": "REVEAL_DEADLINE_RATIO",
      "outputs": [
        {
          "name": "",
          "type": "uint256"
        }
      ],
      "payable": false,
      "stateMutability": "view",
      "type": "function",
      "signature": "0x5fde601d"
    },
    {
      "constant": true,
      "inputs": [],
      "name": "CONTRIBUTION_DEADLINE_RATIO",
      "outputs": [
        {
          "name": "",
          "type": "uint256"
        }
      ],
      "payable": false,
      "stateMutability": "view",
      "type": "function",
      "signature": "0x7b244832"
    },
    {
      "constant": true,
      "inputs": [],
      "name": "workerpoolregistry",
      "outputs": [
        {
          "name": "",
          "type": "address"
        }
      ],
      "payable": false,
      "stateMutability": "view",
      "type": "function",
      "signature": "0x90a0f546"
    },
    {
      "constant": true,
      "inputs": [],
      "name": "FINAL_DEADLINE_RATIO",
      "outputs": [
        {
          "name": "",
          "type": "uint256"
        }
      ],
      "payable": false,
      "stateMutability": "view",
      "type": "function",
      "signature": "0x90fc26b1"
    },
    {
      "constant": true,
      "inputs": [],
      "name": "iexecclerk",
      "outputs": [
        {
          "name": "",
          "type": "address"
        }
      ],
      "payable": false,
      "stateMutability": "view",
      "type": "function",
      "signature": "0xb01c6846"
    },
    {
      "constant": true,
      "inputs": [],
      "name": "datasetregistry",
      "outputs": [
        {
          "name": "",
          "type": "address"
        }
      ],
      "payable": false,
      "stateMutability": "view",
      "type": "function",
      "signature": "0xb1b11d2c"
    },
    {
      "constant": true,
      "inputs": [],
      "name": "countCategory",
      "outputs": [
        {
          "name": "count",
          "type": "uint256"
        }
      ],
      "payable": false,
      "stateMutability": "view",
      "type": "function",
      "signature": "0xc140996f"
    },
    {
      "constant": true,
      "inputs": [],
      "name": "m_owner",
      "outputs": [
        {
          "name": "",
          "type": "address"
        }
      ],
      "payable": false,
      "stateMutability": "view",
      "type": "function",
      "signature": "0xdeff41c1"
    },
    {
      "constant": false,
      "inputs": [
        {
          "name": "_newOwner",
          "type": "address"
        }
      ],
      "name": "transferOwnership",
      "outputs": [],
      "payable": false,
      "stateMutability": "nonpayable",
      "type": "function",
      "signature": "0xf2fde38b"
    },
    {
      "inputs": [],
      "payable": false,
      "stateMutability": "nonpayable",
      "type": "constructor",
      "signature": "constructor"
    },
    {
      "anonymous": false,
      "inputs": [
        {
          "indexed": true,
          "name": "taskid",
          "type": "bytes32"
        },
        {
          "indexed": true,
          "name": "workerpool",
          "type": "address"
        }
      ],
      "name": "TaskInitialize",
      "type": "event",
      "signature": "0x252992fb0468d68d6a5784ec03214f0d0a362083f2d7ebd157af43b017a22e06"
    },
    {
      "anonymous": false,
      "inputs": [
        {
          "indexed": true,
          "name": "taskid",
          "type": "bytes32"
        },
        {
          "indexed": true,
          "name": "worker",
          "type": "address"
        },
        {
          "indexed": false,
          "name": "hash",
          "type": "bytes32"
        }
      ],
      "name": "TaskContribute",
      "type": "event",
      "signature": "0x3fdb8d7797562d49a81078dbf7fa1771958ea452f8b13d1148383bd9506aecfb"
    },
    {
      "anonymous": false,
      "inputs": [
        {
          "indexed": true,
          "name": "taskid",
          "type": "bytes32"
        },
        {
          "indexed": false,
          "name": "consensus",
          "type": "bytes32"
        }
      ],
      "name": "TaskConsensus",
      "type": "event",
      "signature": "0xf6d49bf3e05d33a4bc497d3c793fb5756388bb96b947cf51bb60aaecb0e022e3"
    },
    {
      "anonymous": false,
      "inputs": [
        {
          "indexed": true,
          "name": "taskid",
          "type": "bytes32"
        },
        {
          "indexed": true,
          "name": "worker",
          "type": "address"
        },
        {
          "indexed": false,
          "name": "digest",
          "type": "bytes32"
        }
      ],
      "name": "TaskReveal",
      "type": "event",
      "signature": "0x4b1763d473ac8fa80b4432ba90047e1b92444d8fabc55e6a002d9b1a316d7959"
    },
    {
      "anonymous": false,
      "inputs": [
        {
          "indexed": true,
          "name": "taskid",
          "type": "bytes32"
        }
      ],
      "name": "TaskReopen",
      "type": "event",
      "signature": "0x3afe0f24796ce653c6ab1f3e7aba5ce564eece5e82aee724aff28253e829f07b"
    },
    {
      "anonymous": false,
      "inputs": [
        {
          "indexed": true,
          "name": "taskid",
          "type": "bytes32"
        },
        {
          "indexed": false,
          "name": "results",
          "type": "bytes"
        }
      ],
      "name": "TaskFinalize",
      "type": "event",
      "signature": "0x78ce8a8bc0fcb704e8ba3b3dbb36aa88002df8038128b4af2f27ef65db665044"
    },
    {
      "anonymous": false,
      "inputs": [
        {
          "indexed": true,
          "name": "taskid",
          "type": "bytes32"
        }
      ],
      "name": "TaskClaimed",
      "type": "event",
      "signature": "0xcbc308b5f91040d2659a5201858344b0b583cd2f9e18e8470c2fa052c5b21ff8"
    },
    {
      "anonymous": false,
      "inputs": [
        {
          "indexed": true,
          "name": "worker",
          "type": "address"
        },
        {
          "indexed": true,
          "name": "taskid",
          "type": "bytes32"
        }
      ],
      "name": "AccurateContribution",
      "type": "event",
      "signature": "0x9703f4589802246c80b822e63697180da799e363cd1b6fd9465a5e5574d53492"
    },
    {
      "anonymous": false,
      "inputs": [
        {
          "indexed": true,
          "name": "worker",
          "type": "address"
        },
        {
          "indexed": true,
          "name": "taskid",
          "type": "bytes32"
        }
      ],
      "name": "FaultyContribution",
      "type": "event",
      "signature": "0xf868788948d55240774fdbad06555105ef20bbc70d1b7eccda982b65e11e79bb"
    },
    {
      "anonymous": false,
      "inputs": [
        {
          "indexed": false,
          "name": "catid",
          "type": "uint256"
        },
        {
          "indexed": false,
          "name": "name",
          "type": "string"
        },
        {
          "indexed": false,
          "name": "description",
          "type": "string"
        },
        {
          "indexed": false,
          "name": "workClockTimeRef",
          "type": "uint256"
        }
      ],
      "name": "CreateCategory",
      "type": "event",
      "signature": "0x62bf08360c9d561749c54eaf4f8bf8cb6c8b6f4f40607bcec39a8172e714d25c"
    },
    {
      "anonymous": false,
      "inputs": [
        {
          "indexed": false,
          "name": "previousOwner",
          "type": "address"
        },
        {
          "indexed": false,
          "name": "newOwner",
          "type": "address"
        }
      ],
      "name": "OwnershipTransferred",
      "type": "event",
      "signature": "0x8be0079c531659141344cd1fd0a4f28419497f9722a3daafe3b4186f6b6457e0"
    },
    {
      "constant": false,
      "inputs": [
        {
          "name": "_iexecclerkAddress",
          "type": "address"
        },
        {
          "name": "_appregistryAddress",
          "type": "address"
        },
        {
          "name": "_datasetregistryAddress",
          "type": "address"
        },
        {
          "name": "_workerpoolregistryAddress",
          "type": "address"
        }
      ],
      "name": "attachContracts",
      "outputs": [],
      "payable": false,
      "stateMutability": "nonpayable",
      "type": "function",
      "signature": "0x4704511d"
    },
    {
      "constant": true,
      "inputs": [
        {
          "name": "_taskid",
          "type": "bytes32"
        }
      ],
      "name": "viewTask",
      "outputs": [
        {
          "components": [
            {
              "name": "status",
              "type": "uint8"
            },
            {
              "name": "dealid",
              "type": "bytes32"
            },
            {
              "name": "idx",
              "type": "uint256"
            },
            {
              "name": "timeref",
              "type": "uint256"
            },
            {
              "name": "contributionDeadline",
              "type": "uint256"
            },
            {
              "name": "revealDeadline",
              "type": "uint256"
            },
            {
              "name": "finalDeadline",
              "type": "uint256"
            },
            {
              "name": "consensusValue",
              "type": "bytes32"
            },
            {
              "name": "revealCounter",
              "type": "uint256"
            },
            {
              "name": "winnerCounter",
              "type": "uint256"
            },
            {
              "name": "contributors",
              "type": "address[]"
            },
            {
              "name": "results",
              "type": "bytes"
            }
          ],
          "name": "",
          "type": "tuple"
        }
      ],
      "payable": false,
      "stateMutability": "view",
      "type": "function",
      "signature": "0xadccf0d5"
    },
    {
      "constant": true,
      "inputs": [
        {
          "name": "_taskid",
          "type": "bytes32"
        },
        {
          "name": "_worker",
          "type": "address"
        }
      ],
      "name": "viewContribution",
      "outputs": [
        {
          "components": [
            {
              "name": "status",
              "type": "uint8"
            },
            {
              "name": "resultHash",
              "type": "bytes32"
            },
            {
              "name": "resultSeal",
              "type": "bytes32"
            },
            {
              "name": "enclaveChallenge",
              "type": "address"
            }
          ],
          "name": "",
          "type": "tuple"
        }
      ],
      "payable": false,
      "stateMutability": "view",
      "type": "function",
      "signature": "0xe741363b"
    },
    {
      "constant": true,
      "inputs": [
        {
          "name": "_worker",
          "type": "address"
        }
      ],
      "name": "viewScore",
      "outputs": [
        {
          "name": "",
          "type": "uint256"
        }
      ],
      "payable": false,
      "stateMutability": "view",
      "type": "function",
      "signature": "0xdb230b52"
    },
    {
      "constant": true,
      "inputs": [
        {
          "name": "app",
          "type": "address"
        },
        {
          "name": "dataset",
          "type": "address"
        },
        {
          "name": "workerpool",
          "type": "address"
        }
      ],
      "name": "checkResources",
      "outputs": [
        {
          "name": "",
          "type": "bool"
        }
      ],
      "payable": false,
      "stateMutability": "view",
      "type": "function",
      "signature": "0x097d630d"
    },
    {
      "constant": true,
      "inputs": [
        {
          "name": "id",
          "type": "bytes32"
        }
      ],
      "name": "resultFor",
      "outputs": [
        {
          "name": "",
          "type": "bytes"
        }
      ],
      "payable": false,
      "stateMutability": "view",
      "type": "function",
      "signature": "0xd09cc57e"
    },
    {
      "constant": false,
      "inputs": [
        {
          "name": "_dealid",
          "type": "bytes32"
        },
        {
          "name": "idx",
          "type": "uint256"
        }
      ],
      "name": "initialize",
      "outputs": [
        {
          "name": "",
          "type": "bytes32"
        }
      ],
      "payable": false,
      "stateMutability": "nonpayable",
      "type": "function",
      "signature": "0x5b36c66b"
    },
    {
      "constant": false,
      "inputs": [
        {
          "name": "_taskid",
          "type": "bytes32"
        },
        {
          "name": "_resultHash",
          "type": "bytes32"
        },
        {
          "name": "_resultSeal",
          "type": "bytes32"
        },
        {
          "name": "_enclaveChallenge",
          "type": "address"
        },
        {
          "components": [
            {
              "name": "v",
              "type": "uint8"
            },
            {
              "name": "r",
              "type": "bytes32"
            },
            {
              "name": "s",
              "type": "bytes32"
            }
          ],
          "name": "_enclaveSign",
          "type": "tuple"
        },
        {
          "components": [
            {
              "name": "v",
              "type": "uint8"
            },
            {
              "name": "r",
              "type": "bytes32"
            },
            {
              "name": "s",
              "type": "bytes32"
            }
          ],
          "name": "_workerpoolSign",
          "type": "tuple"
        }
      ],
      "name": "contribute",
      "outputs": [],
      "payable": false,
      "stateMutability": "nonpayable",
      "type": "function",
      "signature": "0x25a57534"
    },
    {
      "constant": false,
      "inputs": [
        {
          "name": "_taskid",
          "type": "bytes32"
        },
        {
          "name": "_resultDigest",
          "type": "bytes32"
        }
      ],
      "name": "reveal",
      "outputs": [],
      "payable": false,
      "stateMutability": "nonpayable",
      "type": "function",
      "signature": "0xfc334e8c"
    },
    {
      "constant": false,
      "inputs": [
        {
          "name": "_taskid",
          "type": "bytes32"
        }
      ],
      "name": "reopen",
      "outputs": [],
      "payable": false,
      "stateMutability": "nonpayable",
      "type": "function",
      "signature": "0xf6c68e10"
    },
    {
      "constant": false,
      "inputs": [
        {
          "name": "_taskid",
          "type": "bytes32"
        },
        {
          "name": "_results",
          "type": "bytes"
        }
      ],
      "name": "finalize",
      "outputs": [],
      "payable": false,
      "stateMutability": "nonpayable",
      "type": "function",
      "signature": "0xc037f13e"
    },
    {
      "constant": false,
      "inputs": [
        {
          "name": "_taskid",
          "type": "bytes32"
        }
      ],
      "name": "claim",
      "outputs": [],
      "payable": false,
      "stateMutability": "nonpayable",
      "type": "function",
      "signature": "0xbd66528a"
    },
    {
      "constant": false,
      "inputs": [
        {
          "name": "_dealid",
          "type": "bytes32[]"
        },
        {
          "name": "_idx",
          "type": "uint256[]"
        }
      ],
      "name": "initializeArray",
      "outputs": [
        {
          "name": "",
          "type": "bool"
        }
      ],
      "payable": false,
      "stateMutability": "nonpayable",
      "type": "function",
      "signature": "0xb504681d"
    },
    {
      "constant": false,
      "inputs": [
        {
          "name": "_taskid",
          "type": "bytes32[]"
        }
      ],
      "name": "claimArray",
      "outputs": [
        {
          "name": "",
          "type": "bool"
        }
      ],
      "payable": false,
      "stateMutability": "nonpayable",
      "type": "function",
      "signature": "0xfa055d7e"
    },
    {
      "constant": false,
      "inputs": [
        {
          "name": "_dealid",
          "type": "bytes32[]"
        },
        {
          "name": "_idx",
          "type": "uint256[]"
        }
      ],
      "name": "initializeAndClaimArray",
      "outputs": [
        {
          "name": "",
          "type": "bool"
        }
      ],
      "payable": false,
      "stateMutability": "nonpayable",
      "type": "function",
      "signature": "0xf722cb32"
    }
  ],
  "bytecode": "0x608060405234801561001057600080fd5b5060008054600160a060020a031916331790556139c8806100326000396000f3fe60806040526004361061015e5763ffffffff7c0100000000000000000000000000000000000000000000000000000000600035041663097d630d811461016357806325a5753414610199578063298503d9146101bb57806345b637a9146101e85780634704511d1461020a5780634f5f44ec1461022a5780635b36c66b146102575780635fde601d146102775780637b2448321461028c57806390a0f546146102a157806390fc26b1146102b6578063adccf0d5146102cb578063b01c6846146102f8578063b1b11d2c1461030d578063b504681d14610322578063bd66528a14610342578063c037f13e14610362578063c140996f14610382578063d09cc57e14610397578063db230b52146103c4578063deff41c1146103e4578063e741363b14610406578063f2fde38b14610433578063f6c68e1014610453578063f722cb3214610473578063fa055d7e14610493578063fc334e8c146104b3575b600080fd5b34801561016f57600080fd5b5061018361017e3660046130d3565b6104d3565b6040516101909190613737565b60405180910390f35b3480156101a557600080fd5b506101b96101b43660046132d9565b6106db565b005b3480156101c757600080fd5b506101db6101d63660046133b7565b610c9f565b6040516101909190613745565b3480156101f457600080fd5b506101fd610ddc565b6040516101909190613803565b34801561021657600080fd5b506101b9610225366004613120565b610deb565b34801561023657600080fd5b5061024a610245366004613251565b610e75565b6040516101909190613811565b34801561026357600080fd5b506101db6102723660046132a9565b610fea565b34801561028357600080fd5b506101db611270565b34801561029857600080fd5b506101db611275565b3480156102ad57600080fd5b506101fd61127a565b3480156102c257600080fd5b506101db611289565b3480156102d757600080fd5b506102eb6102e6366004613251565b61128e565b6040516101909190613830565b34801561030457600080fd5b506101fd611428565b34801561031957600080fd5b506101fd611437565b34801561032e57600080fd5b5061018361033d3660046131c3565b611446565b34801561034e57600080fd5b506101b961035d366004613251565b6114a6565b34801561036e57600080fd5b506101b961037d366004613361565b611678565b34801561038e57600080fd5b506101db611a41565b3480156103a357600080fd5b506103b76103b2366004613251565b611a48565b60405161019091906137f2565b3480156103d057600080fd5b506101db6103df3660046130b5565b611b0a565b3480156103f057600080fd5b506103f9611b25565b604051610190919061370e565b34801561041257600080fd5b5061042661042136600461326f565b611b34565b6040516101909190613822565b34801561043f57600080fd5b506101b961044e3660046130b5565b611bb8565b34801561045f57600080fd5b506101b961046e366004613251565b611c5a565b34801561047f57600080fd5b5061018361048e3660046131c3565b611eb3565b34801561049f57600080fd5b506101836104ae366004613181565b611efb565b3480156104bf57600080fd5b506101b96104ce3660046132a9565b611f2a565b6003546040517fc3c5a547000000000000000000000000000000000000000000000000000000008152600091600160a060020a03169063c3c5a5479061051d90879060040161370e565b60206040518083038186803b15801561053557600080fd5b505afa158015610549573d6000803e3d6000fd5b505050506040513d601f19601f8201168201806040525061056d9190810190613233565b151561057857600080fd5b600160a060020a03831615806106215750600480546040517fc3c5a547000000000000000000000000000000000000000000000000000000008152600160a060020a039091169163c3c5a547916105d19187910161370e565b60206040518083038186803b1580156105e957600080fd5b505afa1580156105fd573d6000803e3d6000fd5b505050506040513d601f19601f820116820180604052506106219190810190613233565b151561062c57600080fd5b6005546040517fc3c5a547000000000000000000000000000000000000000000000000000000008152600160a060020a039091169063c3c5a5479061067590859060040161370e565b60206040518083038186803b15801561068d57600080fd5b505afa1580156106a1573d6000803e3d6000fd5b505050506040513d601f19601f820116820180604052506106c59190810190613233565b15156106d057600080fd5b5060015b9392505050565b600086815260066020908152604080832060078352818420338552909252909120610704612aec565b600254600184015460405160e160020a635ba430d9028152600160a060020a039092169163b74861b29161073a91600401613745565b60006040518083038186803b15801561075257600080fd5b505afa158015610766573d6000803e3d6000fd5b505050506040513d6000823e601f3d908101601f1916820160405261078e919081019061343d565b90506001835460ff1660048111156107a257fe5b146107ac57600080fd5b600483015442106107bc57600080fd5b6000825460ff1660038111156107ce57fe5b146107d857600080fd5b604080516c01000000000000000000000000338102602080840191909152603483018d9052600160a060020a038a169091026054830152825160488184030181526068830184528051908201207f19457468657265756d205369676e6564204d6573736167653a0a333200000000608884015260a4808401919091528351808403909101815260c483018085528151918301919091208851898401518a870151600090945260e486018088529290925260ff166101048501526101248401526101448301529151600192610164808401939192601f1981019281900390910190855afa1580156108cc573d6000803e3d6000fd5b50505060206040510351600160a060020a0316816040015160200151600160a060020a03161415156108fd57600080fd5b600160a060020a03861615158061093e575060a0810151601f1a7f010000000000000000000000000000000000000000000000000000000000000090810216155b151561094957600080fd5b600160a060020a03861615610a4e576040805160208082018b90528183018a90528251808303840181526060830184528051908201207f19457468657265756d205369676e6564204d6573736167653a0a3332000000006080840152609c808401919091528351808403909101815260bc830180855281519183019190912089518a8401518b870151600090945260dc86018088529290925260ff1660fc85015261011c84015261013c830152915160019261015c808401939192601f1981019281900390910190855afa158015610a25573d6000803e3d6000fd5b50505060206040510351600160a060020a031686600160a060020a0316141515610a4e57600080fd5b815460ff191660019081178355808301899055600280840189905560038401805473ffffffffffffffffffffffffffffffffffffffff19908116600160a060020a038b811691909117909255600a87018054808601825560009182526020909120018054339216821790559154928601546040517fe798491a000000000000000000000000000000000000000000000000000000008152939091169263e798491a92610afd9291600401613761565b600060405180830381600087803b158015610b1757600080fd5b505af1158015610b2b573d6000803e3d6000fd5b5050505033600160a060020a0316897f3fdb8d7797562d49a81078dbf7fa1771958ea452f8b13d1148383bd9506aecfb8a604051610b699190613745565b60405180910390a333600090815260086020526040812054610bb790600190610bab90600390610b9f908263ffffffff61209216565b9063ffffffff6120a916565b9063ffffffff6120c016565b60008b8152600a602090815260408083208d8452909152812054919250610bf982610bab85610bed83600163ffffffff6120a916565b9063ffffffff6120d216565b9050610c04836120fa565b60008d81526009602090815260408083203384528252808320939093558e8252600a81528282208e835290522054610c42908263ffffffff6122fd16565b60008d8152600a602090815260408083208f84528252808320939093558e8252600b90522054610c78908263ffffffff6122fd16565b60008d8152600b6020526040902055610c918c8c61230c565b505050505050505050505050565b60008054600160a060020a03163314610cb757600080fd5b6040805160806020601f89018190040282018101909252606081018781526000926001929182918b908b9081908501838280828437600092019190915250505090825250604080516020601f8a0181900481028201810190925288815291810191908990899081908401838280828437600092018290525093855250505060209182018790528354600181018086559482529082902083518051600390930290910192610d6992849290910190612b93565b506020828101518051610d829260018501920190612b93565b5060408201518160020155505090507f62bf08360c9d561749c54eaf4f8bf8cb6c8b6f4f40607bcec39a8172e714d25c818888888888604051610dca96959493929190613841565b60405180910390a19695505050505050565b600354600160a060020a031681565b600054600160a060020a03163314610e0257600080fd5b600254600160a060020a031615610e1857600080fd5b60028054600160a060020a0395861673ffffffffffffffffffffffffffffffffffffffff19918216179091556003805494861694821694909417909355600480549285169284169290921790915560058054919093169116179055565b610e7d612c11565b6001805483908110610e8b57fe5b600091825260209182902060408051600393909302909101805460026001821615610100026000190190911604601f8101859004909402830160809081019092526060830184815292939092849290918491840182828015610f2e5780601f10610f0357610100808354040283529160200191610f2e565b820191906000526020600020905b815481529060010190602001808311610f1157829003601f168201915b50505050508152602001600182018054600181600116156101000203166002900480601f016020809104026020016040519081016040528092919081815260200182805460018160011615610100020316600290048015610fd05780601f10610fa557610100808354040283529160200191610fd0565b820191906000526020600020905b815481529060010190602001808311610fb357829003601f168201915b505050505081526020016002820154815250509050919050565b6000610ff4612aec565b60025460405160e160020a635ba430d9028152600160a060020a039091169063b74861b290611027908790600401613745565b60006040518083038186803b15801561103f57600080fd5b505afa158015611053573d6000803e3d6000fd5b505050506040513d6000823e601f3d908101601f1916820160405261107b919081019061343d565b61016081015190915083101561109057600080fd5b6101808101516101608201516110ab9163ffffffff6122fd16565b83106110b657600080fd5b604080516020808201879052818301869052825180830384018152606090920183528151918101919091206000818152600690925291812090815460ff1660048111156110ff57fe5b1461110957600080fd5b805460ff191660019081178255810186905560028101859055608083015161113090610e75565b60400151600382018190556101408401516111629161115690600763ffffffff6120d216565b9063ffffffff6122fd16565b60048201556101408301516003820154611188919061115690600a63ffffffff6120d216565b60068201556000828152600b60205260409081902060019055600254905160e160020a635ba430d9028152600160a060020a039091169063b74861b2906111d3908990600401613745565b60006040518083038186803b1580156111eb57600080fd5b505afa1580156111ff573d6000803e3d6000fd5b505050506040513d6000823e601f3d908101601f19168201604052611227919081019061343d565b6040015160000151600160a060020a0316827f252992fb0468d68d6a5784ec03214f0d0a362083f2d7ebd157af43b017a22e0660405160405180910390a3509150505b92915050565b600281565b600781565b600554600160a060020a031681565b600a81565b611296612c33565b60008281526006602052604090819020815161018081019092528054829060ff1660048111156112c257fe5b60048111156112cd57fe5b8152602001600182015481526020016002820154815260200160038201548152602001600482015481526020016005820154815260200160068201548152602001600782015481526020016008820154815260200160098201548152602001600a820180548060200260200160405190810160405280929190818152602001828054801561138457602002820191906000526020600020905b8154600160a060020a03168152600190910190602001808311611366575b5050509183525050600b8201805460408051602060026001851615610100026000190190941693909304601f81018490048402820184019092528181529382019392918301828280156114185780601f106113ed57610100808354040283529160200191611418565b820191906000526020600020905b8154815290600101906020018083116113fb57829003601f168201915b5050505050815250509050919050565b600254600160a060020a031681565b600454600160a060020a031681565b600083821461145457600080fd5b60005b848110156114985761148f86868381811061146e57fe5b90506020020135858584818110151561148357fe5b90506020020135610fea565b50600101611457565b50600190505b949350505050565b60008181526006602052604090206001815460ff1660048111156114c657fe5b14806114e157506002815460ff1660048111156114df57fe5b145b15156114ec57600080fd5b60068101544210156114fd57600080fd5b805460ff19166004908117825560025460018301546040517f5d0c812f000000000000000000000000000000000000000000000000000000008152600160a060020a0390921692635d0c812f92611555929101613745565b600060405180830381600087803b15801561156f57600080fd5b505af1158015611583573d6000803e3d6000fd5b506000925050505b600a82015481101561164857600082600a01828154811015156115aa57fe5b60009182526020909120015460025460018501546040517f6eb528b5000000000000000000000000000000000000000000000000000000008152600160a060020a0393841694509290911691636eb528b59161160a918590600401613753565b600060405180830381600087803b15801561162457600080fd5b505af1158015611638573d6000803e3d6000fd5b505050505080600101905061158b565b5060405182907fcbc308b5f91040d2659a5201858344b0b583cd2f9e18e8470c2fa052c5b21ff890600090a25050565b6002546000848152600660205260409081902060010154905160e160020a635ba430d90281528592600160a060020a03169163b74861b2916116bd9190600401613745565b60006040518083038186803b1580156116d557600080fd5b505afa1580156116e9573d6000803e3d6000fd5b505050506040513d6000823e601f3d908101601f19168201604052611711919081019061343d565b6040015160200151600160a060020a0316331461172d57600080fd5b60008481526006602052604090206002815460ff16600481111561174d57fe5b1461175757600080fd5b6006810154421061176757600080fd5b806009015481600801541480611790575060008160080154118015611790575042816005015411155b151561179b57600080fd5b805460ff191660031781556117b4600b82018585612c9b565b5060025460018201546040517f88044a7d000000000000000000000000000000000000000000000000000000008152600160a060020a03909216916388044a7d9161180191600401613745565b600060405180830381600087803b15801561181b57600080fd5b505af115801561182f573d6000803e3d6000fd5b5050505061183c8561254b565b847f78ce8a8bc0fcb704e8ba3b3dbb36aa88002df8038128b4af2f27ef65db665044858560405161186e9291906137e0565b60405180910390a2600254600182015460405160e160020a635ba430d9028152600092600160a060020a03169163b74861b2916118ae9190600401613745565b60006040518083038186803b1580156118c657600080fd5b505afa1580156118da573d6000803e3d6000fd5b505050506040513d6000823e601f3d908101601f19168201604052611902919081019061343d565b61010001519050600160a060020a03811615611a3957620186a05a1161192757600080fd5b80600160a060020a0316620186a087878760405160240161194a939291906137a4565b60408051601f198184030181529181526020820180517bffffffffffffffffffffffffffffffffffffffffffffffffffffffff167f5dd808550000000000000000000000000000000000000000000000000000000017815290518251909182918083835b602083106119cd5780518252601f1990920191602091820191016119ae565b6001836020036101000a03801982511681845116808217855250505050505090500191505060006040518083038160008787f1925050503d8060008114611a30576040519150601f19603f3d011682016040523d82523d6000602084013e611a35565b606091505b5050505b505050505050565b6001545b90565b60008181526006602052604090206060906003815460ff166004811115611a6b57fe5b14611a7557600080fd5b600b8101805460408051602060026001851615610100026000190190941693909304601f81018490048402820184019092528181529291830182828015611afd5780601f10611ad257610100808354040283529160200191611afd565b820191906000526020600020905b815481529060010190602001808311611ae057829003601f168201915b5050505050915050919050565b600160a060020a031660009081526008602052604090205490565b600054600160a060020a031681565b611b3c612d09565b6000838152600760209081526040808320600160a060020a0386168452909152908190208151608081019092528054829060ff166003811115611b7b57fe5b6003811115611b8657fe5b81526001820154602082015260028201546040820152600390910154600160a060020a03166060909101529392505050565b600054600160a060020a03163314611bcf57600080fd5b600160a060020a0381161515611be457600080fd5b6000546040517f8be0079c531659141344cd1fd0a4f28419497f9722a3daafe3b4186f6b6457e091611c2391600160a060020a0390911690849061371c565b60405180910390a16000805473ffffffffffffffffffffffffffffffffffffffff1916600160a060020a0392909216919091179055565b6002546000828152600660205260409081902060010154905160e160020a635ba430d90281528392600160a060020a03169163b74861b291611c9f9190600401613745565b60006040518083038186803b158015611cb757600080fd5b505afa158015611ccb573d6000803e3d6000fd5b505050506040513d6000823e601f3d908101601f19168201604052611cf3919081019061343d565b6040015160200151600160a060020a03163314611d0f57600080fd5b60008281526006602052604090206002815460ff166004811115611d2f57fe5b14611d3957600080fd5b60068101544210611d4957600080fd5b42816005015411158015611d5f57506008810154155b1515611d6a57600080fd5b60005b600a820154811015611e0557600082600a0182815481101515611d8c57fe5b60009182526020808320909101546007808701548985529083526040808520600160a060020a039093168086529290935291909220600101549192501415611dfc576000858152600760209081526040808320600160a060020a03851684529091529020805460ff191660031790555b50600101611d6d565b506000838152600a6020908152604080832060078501548452825280832054868452600b90925290912054611e3f9163ffffffff6120c016565b6000848152600b6020908152604080832093909355600a815282822060078501805484529152828220829055835460ff191660011784558190556005830181905560098301819055905184917f3afe0f24796ce653c6ab1f3e7aba5ce564eece5e82aee724aff28253e829f07b91a2505050565b6000838214611ec157600080fd5b60005b8481101561149857611ef361035d878784818110611ede57fe5b90506020020135868685818110151561148357fe5b600101611ec4565b6000805b828110156106d057611f22848483818110611f1657fe5b905060200201356114a6565b600101611eff565b6000828152600660209081526040808320600783528184203385529092529091206002825460ff166004811115611f5d57fe5b14611f6757600080fd5b60058201544210611f7757600080fd5b6001815460ff166003811115611f8957fe5b14611f9357600080fd5b6007820154600182015414611fa757600080fd5b60408051602080820187905281830186905282518083038401815260609092019092528051910120600182015414611fde57600080fd5b604080516c010000000000000000000000003302602080830191909152603482018790526054808301879052835180840390910181526074909201909252805191012060028201541461203057600080fd5b805460ff19166002178155600882015461204b9060016122fd565b6008830155604051339085907f4b1763d473ac8fa80b4432ba90047e1b92444d8fabc55e6a002d9b1a316d795990612084908790613745565b60405180910390a350505050565b60008082848115156120a057fe5b04949350505050565b6000818310156120b957816106d4565b5090919050565b6000828211156120cc57fe5b50900390565b60008215156120e35750600061126a565b8282028284828115156120f257fe5b04146106d457fe5b604080517ff8f9cbfae6cc78fbefe7cdc3a1793dfcf4f0e8bbd8cec470b6a28a7a5a3e1efd81527ff5ecf1b3e9debc68e1d9cfabc5997135bfb7a7a3938b7b606b5b4b3f2f1f0ffe60208201527ff6e4ed9ff2d6b458eadcdf97bd91692de2d4da8fd2d0ac50c6ae9a8272523616818301527fc8c0b887b0a8a4489c948c7f847c6125746c645c544c444038302820181008ff60608201527ff7cae577eec2a03cf3bad76fb589591debb2dd67e0aa9834bea6925f6a4a2e0e60808201527fe39ed557db96902cd38ed14fad815115c786af479b7e8324736353433727170760a08201527fc976c13bb96e881cb166a933a55e490d9d56952b8d4e801485467d236242260660c08201527f753a6d1b65325d0c552a4d1345224105391a310b29122104190a11030902010060e08201526101008082019092527f0100000000000000000000000000000000000000000000000000000000000000600170010000000000000000000000000000000068010000000000000000640100000000620100006010600460026000198c019081041790810417908104178881041790810417908104179081041790810417017e818283848586878898a8b8c8d8e8f929395969799a9b9d9e9faaeb6bedeeff0281900460ff0390910151047f8000000000000000000000000000000000000000000000000000000000000000909211020190565b6000828201838110156106d457fe5b60025460008381526006602052604080822060010154905160e160020a635ba430d90281529192600160a060020a03169163b74861b29161234f91600401613745565b60006040518083038186803b15801561236757600080fd5b505afa15801561237b573d6000803e3d6000fd5b505050506040513d6000823e601f3d908101601f191682016040526123a3919081019061343d565b6060015190506123d86123bd82600163ffffffff6120c016565b6000858152600b60205260409020549063ffffffff6120d216565b6000848152600a60209081526040808320868452909152902054612402908363ffffffff6120d216565b111561254657600083815260066020526040812090805b600a8301548110156124cd57600083600a018281548110151561243857fe5b6000918252602080832090910154898352600782526040808420600160a060020a0390921680855291909252912060010154909150861480156124ab575060016000888152600760209081526040808320600160a060020a038616845290915290205460ff1660038111156124a957fe5b145b156124c4576124c183600163ffffffff6122fd16565b92505b50600101612419565b50815460ff1916600290811783556007830185905560038301546124f6914291611156916120d2565b6005830155600060088301556009820181905560405185907ff6d49bf3e05d33a4bc497d3c793fb5756388bb96b947cf51bb60aaecb0e022e39061253b908790613745565b60405180910390a250505b505050565b6000818152600660205260409020612561612aec565b600254600183015460405160e160020a635ba430d9028152600160a060020a039092169163b74861b29161259791600401613745565b60006040518083038186803b1580156125af57600080fd5b505afa1580156125c3573d6000803e3d6000fd5b505050506040513d6000823e601f3d908101601f191682016040526125eb919081019061343d565b600254600184015460405160e160020a635ba430d9028152929350600092839283928392600160a060020a039092169163b74861b29161262d91600401613745565b60006040518083038186803b15801561264557600080fd5b505afa158015612659573d6000803e3d6000fd5b505050506040513d6000823e601f3d908101601f19168201604052612681919081019061343d565b60400151604001519050600093505b600a86015484101561275c57600a86018054859081106126ac57fe5b600091825260209091200154600160a060020a0316925060026000888152600760209081526040808320600160a060020a038816845290915290205460ff1660038111156126f657fe5b1415612737576000878152600960209081526040808320600160a060020a038716845290915290205461273090839063ffffffff6122fd16565b9150612751565b6101a085015161274e90829063ffffffff6122fd16565b90505b836001019350612690565b6000821161276957600080fd5b6000612794612787876101c0015160646120c090919063ffffffff16565b839063ffffffff612acd16565b9050600094505b600a870154851015612a5157600a87018054869081106127b757fe5b600091825260209091200154600160a060020a0316935060026000898152600760209081526040808320600160a060020a038916845290915290205460ff16600381111561280157fe5b1415612955576000888152600960209081526040808320600160a060020a038816845290915281205461283c9083908663ffffffff612ad716565b905061284e838263ffffffff6120c016565b60025460018a01546040517f83729251000000000000000000000000000000000000000000000000000000008152929550600160a060020a03909116916383729251916128a1918990869060040161377c565b600060405180830381600087803b1580156128bb57600080fd5b505af11580156128cf573d6000803e3d6000fd5b50505050600a8801546001101561294f57600160a060020a03851660009081526008602052604090205461290a90600163ffffffff6122fd16565b600160a060020a0386166000818152600860205260408082209390935591518b927f9703f4589802246c80b822e63697180da799e363cd1b6fd9465a5e5574d5349291a35b50612a46565b60025460018801546040517f0d0c233c000000000000000000000000000000000000000000000000000000008152600160a060020a0390921691630d0c233c916129a3918890600401613753565b600060405180830381600087803b1580156129bd57600080fd5b505af11580156129d1573d6000803e3d6000fd5b505050600160a060020a038516600090815260086020526040902054612a0191506002600363ffffffff612ad716565b600160a060020a0385166000818152600860205260408082209390935591518a927ff868788948d55240774fdbad06555105ef20bbc70d1b7eccda982b65e11e79bb91a35b84600101945061279b565b60025460018801546040517f4a8e362e000000000000000000000000000000000000000000000000000000008152600160a060020a0390921691634a8e362e91612a9f9186906004016137c5565b600060405180830381600087803b158015612ab957600080fd5b505af1158015610c91573d6000803e3d6000fd5b60006106d4838360645b600061149e612ae685856120d2565b83612092565b6102a060405190810160405280612b01612d32565b8152602001612b0e612d32565b8152602001612b1b612d32565b81526020016000815260200160008152602001600080191681526020016000600160a060020a031681526020016000600160a060020a031681526020016000600160a060020a031681526020016060815260200160008152602001600081526020016000815260200160008152602001600081525090565b828054600181600116156101000203166002900490600052602060002090601f016020900481019282601f10612bd457805160ff1916838001178555612c01565b82800160010185558215612c01579182015b82811115612c01578251825591602001919060010190612be6565b50612c0d929150612d52565b5090565b6060604051908101604052806060815260200160608152602001600081525090565b604080516101808101909152806000815260200160008019168152602001600081526020016000815260200160008152602001600081526020016000815260200160008019168152602001600081526020016000815260200160608152602001606081525090565b828054600181600116156101000203166002900490600052602060002090601f016020900481019282601f10612cdc5782800160ff19823516178555612c01565b82800160010185558215612c01579182015b82811115612c01578235825591602001919060010190612cee565b604080516080810190915280600081526000602082018190526040820181905260609091015290565b604080516060810182526000808252602082018190529181019190915290565b611a4591905b80821115612c0d5760008155600101612d58565b60006106d482356138ea565b60006106d482516138ea565b600080601f83018413612d9657600080fd5b50813567ffffffffffffffff811115612dae57600080fd5b602083019150836020820283011115612dc657600080fd5b9250929050565b60006106d482516138f5565b60006106d48235611a45565b60006106d48251611a45565b600080601f83018413612e0357600080fd5b50813567ffffffffffffffff811115612e1b57600080fd5b602083019150836001820283011115612dc657600080fd5b6000601f82018313612e4457600080fd5b8151612e57612e52826138b8565b613891565b91508082526020830160208301858383011115612e7357600080fd5b612e7e838284613958565b50505092915050565b60006102a08284031215612e9a57600080fd5b612ea56101e0613891565b90506000612eb38484612fff565b8252506060612ec484848301612fff565b60208301525060c0612ed884828501612fff565b604083015250610120612eed84828501612de5565b606083015250610140612f0284828501612de5565b608083015250610160612f1784828501612de5565b60a083015250610180612f2c84828501612d78565b60c0830152506101a0612f4184828501612d78565b60e0830152506101c0612f5684828501612d78565b610100830152506101e082015167ffffffffffffffff811115612f7857600080fd5b612f8484828501612e33565b61012083015250610200612f9a84828501612de5565b61014083015250610220612fb084828501612de5565b61016083015250610240612fc684828501612de5565b61018083015250610260612fdc84828501612de5565b6101a083015250610280612ff284828501612de5565b6101c08301525092915050565b60006060828403121561301157600080fd5b61301b6060613891565b905060006130298484612d78565b825250602061303a84848301612d78565b602083015250604061304e84828501612de5565b60408301525092915050565b60006060828403121561306c57600080fd5b6130766060613891565b9050600061308484846130a9565b825250602061309584848301612dd9565b602083015250604061304e84828501612dd9565b60006106d4823561391e565b6000602082840312156130c757600080fd5b600061149e8484612d6c565b6000806000606084860312156130e857600080fd5b60006130f48686612d6c565b935050602061310586828701612d6c565b925050604061311686828701612d6c565b9150509250925092565b6000806000806080858703121561313657600080fd5b60006131428787612d6c565b945050602061315387828801612d6c565b935050604061316487828801612d6c565b925050606061317587828801612d6c565b91505092959194509250565b6000806020838503121561319457600080fd5b823567ffffffffffffffff8111156131ab57600080fd5b6131b785828601612d84565b92509250509250929050565b600080600080604085870312156131d957600080fd5b843567ffffffffffffffff8111156131f057600080fd5b6131fc87828801612d84565b9450945050602085013567ffffffffffffffff81111561321b57600080fd5b61322787828801612d84565b95989497509550505050565b60006020828403121561324557600080fd5b600061149e8484612dcd565b60006020828403121561326357600080fd5b600061149e8484612dd9565b6000806040838503121561328257600080fd5b600061328e8585612dd9565b925050602061329f85828601612d6c565b9150509250929050565b600080604083850312156132bc57600080fd5b60006132c88585612dd9565b925050602061329f85828601612dd9565b60008060008060008061014087890312156132f357600080fd5b60006132ff8989612dd9565b965050602061331089828a01612dd9565b955050604061332189828a01612dd9565b945050606061333289828a01612d6c565b935050608061334389828a0161305a565b92505060e061335489828a0161305a565b9150509295509295509295565b60008060006040848603121561337657600080fd5b60006133828686612dd9565b935050602084013567ffffffffffffffff81111561339f57600080fd5b6133ab86828701612df1565b92509250509250925092565b6000806000806000606086880312156133cf57600080fd5b853567ffffffffffffffff8111156133e657600080fd5b6133f288828901612df1565b9550955050602086013567ffffffffffffffff81111561341157600080fd5b61341d88828901612df1565b9350935050604061343088828901612dd9565b9150509295509295909350565b60006020828403121561344f57600080fd5b815167ffffffffffffffff81111561346657600080fd5b61149e84828501612e87565b61347b81613924565b82525050565b61347b816138ea565b6000613495826138e6565b8084526020840193506134a7836138e0565b60005b828110156134d7576134bd868351613481565b6134c6826138e0565b6020969096019591506001016134aa565b5093949350505050565b61347b816138f5565b61347b81611a45565b600082845260208401935061350983858461394c565b61351283613984565b9093019392505050565b6000613527826138e6565b80845261353b816020860160208601613958565b61354481613984565b9093016020019392505050565b61347b8161392b565b61347b81613936565b61347b81613941565b8051606080845260009190840190613584828261351c565b9150506020830151848203602086015261359e828261351c565b91505060408301516135b360408601826134ea565b509392505050565b805160808301906135cc848261355a565b5060208201516135df60208501826134ea565b5060408201516135f260408501826134ea565b5060608201516136056060850182613481565b50505050565b80516000906101808401906136208582613563565b50602083015161363360208601826134ea565b50604083015161364660408601826134ea565b50606083015161365960608601826134ea565b50608083015161366c60808601826134ea565b5060a083015161367f60a08601826134ea565b5060c083015161369260c08601826134ea565b5060e08301516136a560e08601826134ea565b506101008301516136ba6101008601826134ea565b506101208301516136cf6101208601826134ea565b506101408301518482036101408601526136e9828261348a565b915050610160830151848203610160860152613705828261351c565b95945050505050565b6020810161126a8284613481565b6040810161372a8285613481565b6106d46020830184613481565b6020810161126a82846134e1565b6020810161126a82846134ea565b6040810161372a82856134ea565b6040810161376f82856134ea565b6106d46020830184613472565b6060810161378a82866134ea565b6137976020830185613481565b61149e60408301846134ea565b604081016137b282866134ea565b81810360208301526137058184866134f3565b604081016137d382856134ea565b6106d460208301846134ea565b6020808252810161149e8184866134f3565b602080825281016106d4818461351c565b6020810161126a8284613551565b602080825281016106d4818461356c565b6080810161126a82846135bb565b602080825281016106d4818461360b565b6080810161384f82896134ea565b81810360208301526138628187896134f3565b905081810360408301526138778185876134f3565b905061388660608301846134ea565b979650505050505050565b60405181810167ffffffffffffffff811182821017156138b057600080fd5b604052919050565b600067ffffffffffffffff8211156138cf57600080fd5b506020601f91909101601f19160190565b60200190565b5190565b600061126a82613912565b151590565b600060048210612c0d57fe5b600060058210612c0d57fe5b600160a060020a031690565b60ff1690565b600061126a825b600061126a826138ea565b600061126a826138fa565b600061126a82613906565b82818337506000910152565b60005b8381101561397357818101518382015260200161395b565b838111156136055750506000910152565b601f01601f19169056fea265627a7a72305820dfef77e7f271324edefb8e50233b3cc835a097b0f27e2760286a58969e86ae916c6578706572696d656e74616cf50037",
  "source": "pragma solidity ^0.5.0;\npragma experimental ABIEncoderV2;\n\nimport \"./interfaces/EIP1154.sol\";\nimport \"./libs/IexecODBLibCore.sol\";\nimport \"./libs/IexecODBLibOrders.sol\";\nimport \"./libs/SafeMathOZ.sol\";\nimport \"./registries/RegistryBase.sol\";\n\nimport \"./CategoryManager.sol\";\nimport \"./IexecClerk.sol\";\n\ncontract IexecHub is CategoryManager, IOracle\n{\n\tusing SafeMathOZ for uint256;\n\n\t/***************************************************************************\n\t *                                Constants                                *\n\t ***************************************************************************/\n\tuint256 public constant CONTRIBUTION_DEADLINE_RATIO = 7;\n\tuint256 public constant       REVEAL_DEADLINE_RATIO = 2;\n\tuint256 public constant        FINAL_DEADLINE_RATIO = 10;\n\n\t/***************************************************************************\n\t *                             Other contracts                             *\n\t ***************************************************************************/\n\tIexecClerk   public iexecclerk;\n\tRegistryBase public appregistry;\n\tRegistryBase public datasetregistry;\n\tRegistryBase public workerpoolregistry;\n\n\t/***************************************************************************\n\t *                          Consensuses & Workers                          *\n\t ***************************************************************************/\n\tmapping(bytes32 =>                    IexecODBLibCore.Task         ) m_tasks;\n\tmapping(bytes32 => mapping(address => IexecODBLibCore.Contribution)) m_contributions;\n\tmapping(address =>                    uint256                      ) m_workerScores;\n\n\tmapping(bytes32 => mapping(address => uint256                     )) m_logweight;\n\tmapping(bytes32 => mapping(bytes32 => uint256                     )) m_groupweight;\n\tmapping(bytes32 =>                    uint256                      ) m_totalweight;\n\n\t/***************************************************************************\n\t *                                 Events                                  *\n\t ***************************************************************************/\n\tevent TaskInitialize(bytes32 indexed taskid, address indexed workerpool);\n\tevent TaskContribute(bytes32 indexed taskid, address indexed worker, bytes32 hash);\n\tevent TaskConsensus (bytes32 indexed taskid, bytes32 consensus);\n\tevent TaskReveal    (bytes32 indexed taskid, address indexed worker, bytes32 digest);\n\tevent TaskReopen    (bytes32 indexed taskid);\n\tevent TaskFinalize  (bytes32 indexed taskid, bytes results);\n\tevent TaskClaimed   (bytes32 indexed taskid);\n\n\tevent AccurateContribution(address indexed worker, bytes32 indexed taskid);\n\tevent FaultyContribution  (address indexed worker, bytes32 indexed taskid);\n\n\t/***************************************************************************\n\t *                                Modifiers                                *\n\t ***************************************************************************/\n\tmodifier onlyScheduler(bytes32 _taskid)\n\t{\n\t\trequire(msg.sender == iexecclerk.viewDeal(m_tasks[_taskid].dealid).workerpool.owner);\n\t\t_;\n\t}\n\n\t/***************************************************************************\n\t *                               Constructor                               *\n\t ***************************************************************************/\n\tconstructor()\n\tpublic\n\t{\n\t}\n\n\tfunction attachContracts(\n\t\taddress _iexecclerkAddress,\n\t\taddress _appregistryAddress,\n\t\taddress _datasetregistryAddress,\n\t\taddress _workerpoolregistryAddress)\n\tpublic onlyOwner\n\t{\n\t\trequire(address(iexecclerk) == address(0));\n\t\tiexecclerk         = IexecClerk  (_iexecclerkAddress  );\n\t\tappregistry        = RegistryBase(_appregistryAddress);\n\t\tdatasetregistry    = RegistryBase(_datasetregistryAddress);\n\t\tworkerpoolregistry = RegistryBase(_workerpoolregistryAddress);\n\t}\n\n\t/***************************************************************************\n\t *                                Accessors                                *\n\t ***************************************************************************/\n\tfunction viewTask(bytes32 _taskid)\n\tpublic view returns (IexecODBLibCore.Task memory)\n\t{\n\t\treturn m_tasks[_taskid];\n\t}\n\n\tfunction viewContribution(bytes32 _taskid, address _worker)\n\tpublic view returns (IexecODBLibCore.Contribution memory)\n\t{\n\t\treturn m_contributions[_taskid][_worker];\n\t}\n\n\tfunction viewScore(address _worker)\n\tpublic view returns (uint256)\n\t{\n\t\treturn m_workerScores[_worker];\n\t}\n\n\tfunction checkResources(address app, address dataset, address workerpool)\n\texternal view returns (bool)\n\t{\n\t\trequire(                         appregistry.isRegistered(app));\n\t\trequire(dataset == address(0) || datasetregistry.isRegistered(dataset));\n\t\trequire(                         workerpoolregistry.isRegistered(workerpool));\n\t\treturn true;\n\t}\n\n\t/***************************************************************************\n\t *                         EIP 1154 PULL INTERFACE                         *\n\t ***************************************************************************/\n\tfunction resultFor(bytes32 id)\n\texternal view returns (bytes memory)\n\t{\n\t\tIexecODBLibCore.Task storage task = m_tasks[id];\n\t\trequire(task.status == IexecODBLibCore.TaskStatusEnum.COMPLETED);\n\t\treturn task.results;\n\t}\n\n\t/***************************************************************************\n\t *                            Consensus methods                            *\n\t ***************************************************************************/\n\tfunction initialize(bytes32 _dealid, uint256 idx)\n\tpublic returns (bytes32)\n\t{\n\t\tIexecODBLibCore.Deal memory deal = iexecclerk.viewDeal(_dealid);\n\n\t\trequire(idx >= deal.botFirst                  );\n\t\trequire(idx <  deal.botFirst.add(deal.botSize));\n\n\t\tbytes32 taskid  = keccak256(abi.encodePacked(_dealid, idx));\n\t\tIexecODBLibCore.Task storage task = m_tasks[taskid];\n\t\trequire(task.status == IexecODBLibCore.TaskStatusEnum.UNSET);\n\n\t\ttask.status               = IexecODBLibCore.TaskStatusEnum.ACTIVE;\n\t\ttask.dealid               = _dealid;\n\t\ttask.idx                  = idx;\n\t\ttask.timeref              = viewCategory(deal.category).workClockTimeRef;\n\t\ttask.contributionDeadline = task.timeref.mul(CONTRIBUTION_DEADLINE_RATIO).add(deal.startTime);\n\t\ttask.finalDeadline        = task.timeref.mul(       FINAL_DEADLINE_RATIO).add(deal.startTime);\n\n\t\t// setup denominator\n\t\tm_totalweight[taskid] = 1;\n\n\t\temit TaskInitialize(taskid, iexecclerk.viewDeal(_dealid).workerpool.pointer);\n\n\t\treturn taskid;\n\t}\n\n\tfunction contribute(\n\t\tbytes32                            _taskid,\n\t\tbytes32                            _resultHash,\n\t\tbytes32                            _resultSeal,\n\t\taddress                            _enclaveChallenge,\n\t\tIexecODBLibOrders.signature memory _enclaveSign,\n\t\tIexecODBLibOrders.signature memory _workerpoolSign)\n\tpublic\n\t{\n\t\tIexecODBLibCore.Task         storage task         = m_tasks[_taskid];\n\t\tIexecODBLibCore.Contribution storage contribution = m_contributions[_taskid][msg.sender];\n\t\tIexecODBLibCore.Deal         memory  deal         = iexecclerk.viewDeal(task.dealid);\n\n\t\trequire(task.status               == IexecODBLibCore.TaskStatusEnum.ACTIVE       );\n\t\trequire(task.contributionDeadline >  now                                         );\n\t\trequire(contribution.status       == IexecODBLibCore.ContributionStatusEnum.UNSET);\n\n\t\t// Check that the worker + taskid + enclave combo is authorized to contribute (scheduler signature)\n\t\trequire(deal.workerpool.owner == ecrecover(\n\t\t\tkeccak256(abi.encodePacked(\n\t\t\t\t\"\\x19Ethereum Signed Message:\\n32\",\n\t\t\t\tkeccak256(abi.encodePacked(\n\t\t\t\t\tmsg.sender,\n\t\t\t\t\t_taskid,\n\t\t\t\t\t_enclaveChallenge\n\t\t\t\t))\n\t\t\t)),\n\t\t\t_workerpoolSign.v,\n\t\t\t_workerpoolSign.r,\n\t\t\t_workerpoolSign.s)\n\t\t);\n\n\t\t// need enclave challenge if tag is set\n\t\trequire(_enclaveChallenge != address(0) || (deal.tag[31] & 0x01 == 0));\n\n\t\t// Check enclave signature\n\t\tif (_enclaveChallenge != address(0))\n\t\t{\n\t\t\trequire(_enclaveChallenge == ecrecover(\n\t\t\t\tkeccak256(abi.encodePacked(\n\t\t\t\t\t\"\\x19Ethereum Signed Message:\\n32\",\n\t\t\t\t\tkeccak256(abi.encodePacked(\n\t\t\t\t\t_resultHash,\n\t\t\t\t\t_resultSeal\n\t\t\t\t\t))\n\t\t\t\t)),\n\t\t\t\t_enclaveSign.v,\n\t\t\t\t_enclaveSign.r,\n\t\t\t\t_enclaveSign.s)\n\t\t\t);\n\t\t}\n\n\t\t// Update contribution entry\n\t\tcontribution.status           = IexecODBLibCore.ContributionStatusEnum.CONTRIBUTED;\n\t\tcontribution.resultHash       = _resultHash;\n\t\tcontribution.resultSeal       = _resultSeal;\n\t\tcontribution.enclaveChallenge = _enclaveChallenge;\n\t\ttask.contributors.push(msg.sender);\n\n\t\tiexecclerk.lockContribution(task.dealid, msg.sender);\n\n\t\temit TaskContribute(_taskid, msg.sender, _resultHash);\n\n\t\t// Contribution done  updating and checking concensus\n\n\t\t/*************************************************************************\n\t\t *                           SCORE POLICY 1/3                            *\n\t\t *                                                                       *\n\t\t *                          see documentation!                           *\n\t\t *************************************************************************/\n\t\t// k = 3\n\t\tuint256 weight = m_workerScores[msg.sender].div(3).max(3).sub(1);\n\t\tuint256 group  = m_groupweight[_taskid][_resultHash];\n\t\tuint256 delta  = group.max(1).mul(weight).sub(group);\n\n\t\tm_logweight  [_taskid][msg.sender ] = weight.log();\n\t\tm_groupweight[_taskid][_resultHash] = m_groupweight[_taskid][_resultHash].add(delta);\n\t\tm_totalweight[_taskid]              = m_totalweight[_taskid].add(delta);\n\n\t\t// Check consensus\n\t\tcheckConsensus(_taskid, _resultHash);\n\t}\n\tfunction checkConsensus(\n\t\tbytes32 _taskid,\n\t\tbytes32 _consensus)\n\tinternal\n\t{\n\t\tuint256 trust = iexecclerk.viewDeal(m_tasks[_taskid].dealid).trust;\n\t\tif (m_groupweight[_taskid][_consensus].mul(trust) > m_totalweight[_taskid].mul(trust.sub(1)))\n\t\t{\n\t\t\t// Preliminary checks done in \"contribute()\"\n\n\t\t\tIexecODBLibCore.Task storage task = m_tasks[_taskid];\n\t\t\tuint256 winnerCounter = 0;\n\t\t\tfor (uint256 i = 0; i < task.contributors.length; ++i)\n\t\t\t{\n\t\t\t\taddress w = task.contributors[i];\n\t\t\t\tif\n\t\t\t\t(\n\t\t\t\t\tm_contributions[_taskid][w].resultHash == _consensus\n\t\t\t\t\t&&\n\t\t\t\t\tm_contributions[_taskid][w].status == IexecODBLibCore.ContributionStatusEnum.CONTRIBUTED // REJECTED contribution must not be count\n\t\t\t\t)\n\t\t\t\t{\n\t\t\t\t\twinnerCounter = winnerCounter.add(1);\n\t\t\t\t}\n\t\t\t}\n\t\t\t// msg.sender is a contributor: no need to check\n\t\t\t// require(winnerCounter > 0);\n\t\t\ttask.status         = IexecODBLibCore.TaskStatusEnum.REVEALING;\n\t\t\ttask.consensusValue = _consensus;\n\t\t\ttask.revealDeadline = task.timeref.mul(REVEAL_DEADLINE_RATIO).add(now);\n\t\t\ttask.revealCounter  = 0;\n\t\t\ttask.winnerCounter  = winnerCounter;\n\n\t\t\temit TaskConsensus(_taskid, _consensus);\n\t\t}\n\t}\n\n\tfunction reveal(\n\t\tbytes32 _taskid,\n\t\tbytes32 _resultDigest)\n\tpublic // worker\n\t{\n\t\tIexecODBLibCore.Task         storage task         = m_tasks[_taskid];\n\t\tIexecODBLibCore.Contribution storage contribution = m_contributions[_taskid][msg.sender];\n\t\trequire(task.status             == IexecODBLibCore.TaskStatusEnum.REVEALING                       );\n\t\trequire(task.revealDeadline     >  now                                                            );\n\t\trequire(contribution.status     == IexecODBLibCore.ContributionStatusEnum.CONTRIBUTED             );\n\t\trequire(contribution.resultHash == task.consensusValue                                            );\n\t\trequire(contribution.resultHash == keccak256(abi.encodePacked(            _taskid, _resultDigest)));\n\t\trequire(contribution.resultSeal == keccak256(abi.encodePacked(msg.sender, _taskid, _resultDigest)));\n\n\t\tcontribution.status = IexecODBLibCore.ContributionStatusEnum.PROVED;\n\t\ttask.revealCounter  = task.revealCounter.add(1);\n\n\t\temit TaskReveal(_taskid, msg.sender, _resultDigest);\n\t}\n\n\tfunction reopen(\n\t\tbytes32 _taskid)\n\tpublic onlyScheduler(_taskid)\n\t{\n\t\tIexecODBLibCore.Task storage task = m_tasks[_taskid];\n\t\trequire(task.status         == IexecODBLibCore.TaskStatusEnum.REVEALING);\n\t\trequire(task.finalDeadline  >  now                                     );\n\t\trequire(task.revealDeadline <= now\n\t\t     && task.revealCounter  == 0                                       );\n\n\t\tfor (uint256 i = 0; i < task.contributors.length; ++i)\n\t\t{\n\t\t\taddress worker = task.contributors[i];\n\t\t\tif (m_contributions[_taskid][worker].resultHash == task.consensusValue)\n\t\t\t{\n\t\t\t\tm_contributions[_taskid][worker].status = IexecODBLibCore.ContributionStatusEnum.REJECTED;\n\t\t\t}\n\t\t}\n\n\t\tm_totalweight[_taskid]                      = m_totalweight[_taskid].sub(m_groupweight[_taskid][task.consensusValue]);\n\t\tm_groupweight[_taskid][task.consensusValue] = 0;\n\n\t\ttask.status         = IexecODBLibCore.TaskStatusEnum.ACTIVE;\n\t\ttask.consensusValue = 0x0;\n\t\ttask.revealDeadline = 0;\n\t\ttask.winnerCounter  = 0;\n\n\t\temit TaskReopen(_taskid);\n\t}\n\n\tfunction finalize(\n\t\tbytes32          _taskid,\n\t\tbytes   calldata _results)\n\texternal onlyScheduler(_taskid)\n\t{\n\t\tIexecODBLibCore.Task storage task = m_tasks[_taskid];\n\t\trequire(task.status        == IexecODBLibCore.TaskStatusEnum.REVEALING);\n\t\trequire(task.finalDeadline >  now                                     );\n\t\trequire(task.revealCounter == task.winnerCounter\n\t\t    || (task.revealCounter >  0  && task.revealDeadline <= now)       );\n\n\t\ttask.status  = IexecODBLibCore.TaskStatusEnum.COMPLETED;\n\t\ttask.results = _results;\n\n\t\t/**\n\t\t * Stake and reward management\n\t\t */\n\t\tiexecclerk.successWork(task.dealid);\n\t\t__distributeRewards(_taskid);\n\n\t\t/**\n\t\t * Event\n\t\t */\n\t\temit TaskFinalize(_taskid, _results);\n\n\t\t/**\n\t\t * Callback for smartcontracts using EIP1154\n\t\t */\n\t\taddress callbackTarget = iexecclerk.viewDeal(task.dealid).callback;\n\t\tif (callbackTarget != address(0))\n\t\t{\n\t\t\t/**\n\t\t\t * Call does not revert if the target smart contract is incompatible or reverts\n\t\t\t *\n\t\t\t * ATTENTION!\n\t\t\t * This call is dangerous and target smart contract can charge the stack.\n\t\t\t * Assume invalid state after the call.\n\t\t\t * See: https://solidity.readthedocs.io/en/develop/types.html#members-of-addresses\n\t\t\t *\n\t\t\t * TODO: gas provided?\n\t\t\t */\n\t\t\trequire(gasleft() > 100000);\n\t\t\tcallbackTarget.call.gas(100000)(abi.encodeWithSignature(\n\t\t\t\t\"receiveResult(bytes32,bytes)\",\n\t\t\t\t_taskid,\n\t\t\t\t_results\n\t\t\t));\n\t\t}\n\t}\n\n\tfunction claim(\n\t\tbytes32 _taskid)\n\tpublic\n\t{\n\t\tIexecODBLibCore.Task storage task = m_tasks[_taskid];\n\t\trequire(task.status == IexecODBLibCore.TaskStatusEnum.ACTIVE\n\t\t     || task.status == IexecODBLibCore.TaskStatusEnum.REVEALING);\n\t\trequire(task.finalDeadline <= now);\n\n\t\ttask.status = IexecODBLibCore.TaskStatusEnum.FAILLED;\n\n\t\t/**\n\t\t * Stake management\n\t\t */\n\t\tiexecclerk.failedWork(task.dealid);\n\t\tfor (uint256 i = 0; i < task.contributors.length; ++i)\n\t\t{\n\t\t\taddress worker = task.contributors[i];\n\t\t\tiexecclerk.unlockContribution(task.dealid, worker);\n\t\t}\n\n\t\temit TaskClaimed(_taskid);\n\t}\n\n\tfunction __distributeRewards(bytes32 _taskid)\n\tprivate\n\t{\n\t\tIexecODBLibCore.Task storage task = m_tasks[_taskid];\n\t\tIexecODBLibCore.Deal memory  deal = iexecclerk.viewDeal(task.dealid);\n\n\t\tuint256 i;\n\t\taddress worker;\n\n\t\tuint256 totalLogWeight = 0;\n\t\tuint256 totalReward = iexecclerk.viewDeal(task.dealid).workerpool.price;\n\n\t\tfor (i = 0; i < task.contributors.length; ++i)\n\t\t{\n\t\t\tworker = task.contributors[i];\n\t\t\tif (m_contributions[_taskid][worker].status == IexecODBLibCore.ContributionStatusEnum.PROVED)\n\t\t\t{\n\t\t\t\ttotalLogWeight = totalLogWeight.add(m_logweight[_taskid][worker]);\n\t\t\t}\n\t\t\telse // ContributionStatusEnum.REJECT or ContributionStatusEnum.CONTRIBUTED (not revealed)\n\t\t\t{\n\t\t\t\ttotalReward = totalReward.add(deal.workerStake);\n\t\t\t}\n\t\t}\n\t\trequire(totalLogWeight > 0);\n\n\t\t// compute how much is going to the workers\n\t\tuint256 workersReward = totalReward.percentage(uint256(100).sub(deal.schedulerRewardRatio));\n\n\t\tfor (i = 0; i < task.contributors.length; ++i)\n\t\t{\n\t\t\tworker = task.contributors[i];\n\t\t\tif (m_contributions[_taskid][worker].status == IexecODBLibCore.ContributionStatusEnum.PROVED)\n\t\t\t{\n\t\t\t\tuint256 workerReward = workersReward.mulByFraction(m_logweight[_taskid][worker], totalLogWeight);\n\t\t\t\ttotalReward          = totalReward.sub(workerReward);\n\n\t\t\t\tiexecclerk.unlockAndRewardForContribution(task.dealid, worker, workerReward);\n\n\t\t\t\t// Only reward if replication happened\n\t\t\t\tif (task.contributors.length > 1)\n\t\t\t\t{\n\t\t\t\t\t/*******************************************************************\n\t\t\t\t\t *                        SCORE POLICY 2/3                         *\n\t\t\t\t\t *                                                                 *\n\t\t\t\t\t *                       see documentation!                        *\n\t\t\t\t\t *******************************************************************/\n\t\t\t\t\tm_workerScores[worker] = m_workerScores[worker].add(1);\n\t\t\t\t\temit AccurateContribution(worker, _taskid);\n\t\t\t\t}\n\t\t\t}\n\t\t\telse // WorkStatusEnum.POCO_REJECT or ContributionStatusEnum.CONTRIBUTED (not revealed)\n\t\t\t{\n\t\t\t\t// No Reward\n\t\t\t\tiexecclerk.seizeContribution(task.dealid, worker);\n\n\t\t\t\t// Always punish bad contributors\n\t\t\t\t{\n\t\t\t\t\t/*******************************************************************\n\t\t\t\t\t *                        SCORE POLICY 3/3                         *\n\t\t\t\t\t *                                                                 *\n\t\t\t\t\t *                       see documentation!                        *\n\t\t\t\t\t *******************************************************************/\n\t\t\t\t\t// k = 3\n\t\t\t\t\tm_workerScores[worker] = m_workerScores[worker].mulByFraction(2,3);\n\t\t\t\t\temit FaultyContribution(worker, _taskid);\n\t\t\t\t}\n\t\t\t}\n\t\t}\n\t\t// totalReward now contains the scheduler share\n\t\tiexecclerk.rewardForScheduling(task.dealid, totalReward);\n\t}\n\n\tfunction initializeArray(\n\t\tbytes32[] calldata _dealid,\n\t\tuint256[] calldata _idx)\n\texternal returns (bool)\n\t{\n\t\trequire(_dealid.length == _idx.length);\n\t\tfor (uint i = 0; i < _dealid.length; ++i)\n\t\t{\n\t\t\tinitialize(_dealid[i], _idx[i]);\n\t\t}\n\t\treturn true;\n\t}\n\n\tfunction claimArray(\n\t\tbytes32[] calldata _taskid)\n\texternal returns (bool)\n\t{\n\t\tfor (uint i = 0; i < _taskid.length; ++i)\n\t\t{\n\t\t\tclaim(_taskid[i]);\n\t\t}\n\t\treturn true;\n\t}\n\n\tfunction initializeAndClaimArray(\n\t\tbytes32[] calldata _dealid,\n\t\tuint256[] calldata _idx)\n\texternal returns (bool)\n\t{\n\t\trequire(_dealid.length == _idx.length);\n\t\tfor (uint i = 0; i < _dealid.length; ++i)\n\t\t{\n\t\t\tclaim(initialize(_dealid[i], _idx[i]));\n\t\t}\n\t\treturn true;\n\t}\n}\n",
  "sourcePath": "/home/amxx/Work/iExec/code/PoCo-dev/contracts/IexecHub.sol",
  "compiler": {
    "name": "solc",
    "version": "0.5.0+commit.1d4f565a.Emscripten.clang"
  },
  "schemaVersion": "3.0.0",
  "updatedAt": "2019-01-04T10:58:29.766Z",
  "devdoc": {
    "methods": {
      "transferOwnership(address)": {
        "details": "Allows the current owner to transfer control of the contract to a newOwner.",
        "params": {
          "_newOwner": "The address to transfer ownership to."
        }
      }
    }
  },
  "userdoc": {
    "methods": {
      "constructor": "*************************************************************************                              Constructor                               ***************************************************************************",
      "createCategory(string,string,uint256)": {
        "notice": "Methods"
      },
      "initialize(bytes32,uint256)": {
        "notice": "*************************************************************************                           Consensus methods                            ***************************************************************************"
      },
      "resultFor(bytes32)": {
        "notice": "*************************************************************************                        EIP 1154 PULL INTERFACE                         ***************************************************************************"
      },
      "viewCategory(uint256)": {
        "notice": "Accessors"
      },
      "viewTask(bytes32)": {
        "notice": "*************************************************************************                               Accessors                                ***************************************************************************"
      }
    }
  }
}