{
  "contractName": "IexecStore",
  "abi": [
    {
      "constant": true,
      "inputs": [],
      "name": "appregistry",
      "outputs": [
        {
          "name": "",
          "type": "address"
        }
      ],
      "payable": false,
      "stateMutability": "view",
      "type": "function"
    },
    {
      "constant": true,
      "inputs": [],
      "name": "workerpoolregistry",
      "outputs": [
        {
          "name": "",
          "type": "address"
        }
      ],
      "payable": false,
      "stateMutability": "view",
      "type": "function"
    },
    {
      "constant": true,
      "inputs": [],
      "name": "datasetregistry",
      "outputs": [
        {
          "name": "",
          "type": "address"
        }
      ],
      "payable": false,
      "stateMutability": "view",
      "type": "function"
    },
    {
      "constant": true,
      "inputs": [],
      "name": "m_owner",
      "outputs": [
        {
          "name": "",
          "type": "address"
        }
      ],
      "payable": false,
      "stateMutability": "view",
      "type": "function"
    },
    {
      "constant": false,
      "inputs": [
        {
          "name": "_newOwner",
          "type": "address"
        }
      ],
      "name": "transferOwnership",
      "outputs": [],
      "payable": false,
      "stateMutability": "nonpayable",
      "type": "function"
    },
    {
      "constant": true,
      "inputs": [],
      "name": "token",
      "outputs": [
        {
          "name": "",
          "type": "address"
        }
      ],
      "payable": false,
      "stateMutability": "view",
      "type": "function"
    },
    {
      "anonymous": false,
      "inputs": [
        {
          "indexed": false,
          "name": "previousOwner",
          "type": "address"
        },
        {
          "indexed": false,
          "name": "newOwner",
          "type": "address"
        }
      ],
      "name": "OwnershipTransferred",
      "type": "event"
    }
  ],
  "bytecode": "0x608060405260008054600160a060020a03191633179055610397806100256000396000f3fe6080604052600436106100775763ffffffff7c010000000000000000000000000000000000000000000000000000000060003504166345b637a9811461007c57806390a0f546146100a7578063b1b11d2c146100bc578063deff41c1146100d1578063f2fde38b146100f3578063fc0c546a14610115575b600080fd5b34801561008857600080fd5b5061009161012a565b60405161009e9190610323565b60405180910390f35b3480156100b357600080fd5b50610091610139565b3480156100c857600080fd5b50610091610148565b3480156100dd57600080fd5b506100e6610157565b60405161009e91906102f4565b3480156100ff57600080fd5b5061011361010e366004610260565b610166565b005b34801561012157600080fd5b5061009161023e565b600554600160a060020a031681565b600754600160a060020a031681565b600654600160a060020a031681565b600054600160a060020a031681565b600054600160a060020a0316331461017d57600080fd5b600160a060020a03811615156101c8576040517f08c379a00000000000000000000000000000000000000000000000000000000081526004016101bf90610331565b60405180910390fd5b6000546040517f8be0079c531659141344cd1fd0a4f28419497f9722a3daafe3b4186f6b6457e09161020791600160a060020a03909116908490610308565b60405180910390a16000805473ffffffffffffffffffffffffffffffffffffffff1916600160a060020a0392909216919091179055565b600454600160a060020a031681565b60006102598235610341565b9392505050565b60006020828403121561027257600080fd5b600061027e848461024d565b949350505050565b61028f81610341565b82525050565b61028f81610352565b602681527f63616e2774207472616e73666572206f776e65727368697020746f206164647260208201527f6573732830290000000000000000000000000000000000000000000000000000604082015260600190565b602081016103028284610286565b92915050565b604081016103168285610286565b6102596020830184610286565b602081016103028284610295565b602080825281016103028161029e565b6000600160a060020a038216610302565b60006103028261034156fea265627a7a7230582013389b7b259615cbc654b98778319b40105f446861bdedb3cc88921266970c746c6578706572696d656e74616cf50037",
  "source": "pragma solidity ^0.5.0;\npragma experimental ABIEncoderV2;\n\nimport \"../node_modules/rlc-faucet-contract/contracts/RLC.sol\";\n\nimport \"./ERC1538/ERC1538UpgradeableStorage.sol\";\n\nimport \"./interfaces/ERC20.sol\";\nimport \"./libs/IexecODBLibCore.sol\";\nimport \"./libs/IexecODBLibOrders.sol\";\nimport \"./registries/RegistryBase.sol\";\n\ncontract IexecStore is ERC1538UpgradeableStorage\n{\n\t// External contracts\n\tIERC20       public token;\n\tRegistryBase public appregistry;\n\tRegistryBase public datasetregistry;\n\tRegistryBase public workerpoolregistry;\n\n\t// Escrow\n\tmapping(address => IexecODBLibCore.Account) internal m_accounts;\n\n\t// CategoryManager\n\tIexecODBLibCore.Category[] internal m_categories;\n\n\t// Hub\n\tbytes32 internal EIP712DOMAIN_SEPARATOR;\n\tbytes32 internal constant    EIP712DOMAIN_TYPEHASH    = 0x8b73c3c69bb8fe3d512ecc4cf759cc79239f7b179b0ffacaa9a75d522b39400f;\n\tbytes32 internal constant        APPORDER_TYPEHASH    = 0x60815a0eeec47dddf1615fe53b31d016c31444e01b9d796db365443a6445d008;\n\tbytes32 internal constant    DATASETORDER_TYPEHASH    = 0x6cfc932a5a3d22c4359295b9f433edff52b60703fa47690a04a83e40933dd47c;\n\tbytes32 internal constant WORKERPOOLORDER_TYPEHASH    = 0xaa3429fb281b34691803133d3d978a75bb77c617ed6bc9aa162b9b30920022bb;\n\tbytes32 internal constant    REQUESTORDER_TYPEHASH    = 0xf24e853034a3a450aba845a82914fbb564ad85accca6cf62be112a154520fae0;\n\tuint256 internal constant WORKERPOOL_STAKE_RATIO      = 30;\n\tuint256 internal constant KITTY_RATIO                 = 10;\n\tuint256 internal constant KITTY_MIN                   = 1000000000; // TODO: 1RLC ?\n\tuint256 internal constant DEADLINE_RATIO_CONTRIBUTION = 7;\n\tuint256 internal constant DEADLINE_RATIO_REVEAL       = 2;\n\tuint256 internal constant DEADLINE_RATIO_FINAL        = 10;\n\n\tmapping(bytes32 =>                    IexecODBLibCore.Task         ) internal m_tasks;\n\tmapping(bytes32 => mapping(address => IexecODBLibCore.Contribution)) internal m_contributions;\n\tmapping(address =>                    uint256                      ) internal m_workerScores;\n\tmapping(bytes32 => mapping(address => uint256                     )) internal m_logweight;\n\tmapping(bytes32 => mapping(bytes32 => uint256                     )) internal m_groupweight;\n\tmapping(bytes32 =>                    uint256                      ) internal m_totalweight;\n\tmapping(bytes32 =>                    bytes32[]                    ) internal m_requestdeals;\n\tmapping(bytes32 =>                    IexecODBLibCore.Deal         ) internal m_deals;\n\tmapping(bytes32 =>                    uint256                      ) internal m_consumed;\n\tmapping(bytes32 =>                    bool                         ) internal m_presigned;\n\n\tmodifier onlyScheduler(bytes32 _taskid)\n\t{\n\t\trequire(msg.sender == m_deals[m_tasks[_taskid].dealid].workerpool.owner);\n\t\t_;\n\t}\n}\n",
  "sourcePath": "/home/amxx/Work/iExec/code/PoCo-dev/contracts/IexecStore.sol",
  "compiler": {
    "name": "solc",
    "version": "0.5.0+commit.1d4f565a.Emscripten.clang"
  },
  "schemaVersion": "3.0.1",
  "updatedAt": "2019-01-08T09:30:29.477Z",
  "devdoc": {
    "methods": {
      "transferOwnership(address)": {
        "details": "Allows the current owner to transfer control of the contract to a newOwner.",
        "params": {
          "_newOwner": "The address to transfer ownership to."
        }
      }
    }
  },
  "userdoc": {
    "methods": {}
  }
}