{
  "contractName": "IexecHub",
  "abi": [
    {
      "constant": false,
      "inputs": [
        {
          "name": "name",
          "type": "string"
        },
        {
          "name": "description",
          "type": "string"
        },
        {
          "name": "workClockTimeRef",
          "type": "uint256"
        }
      ],
      "name": "createCategory",
      "outputs": [
        {
          "name": "",
          "type": "uint256"
        }
      ],
      "payable": false,
      "stateMutability": "nonpayable",
      "type": "function",
      "signature": "0x298503d9"
    },
    {
      "constant": true,
      "inputs": [],
      "name": "appregistry",
      "outputs": [
        {
          "name": "",
          "type": "address"
        }
      ],
      "payable": false,
      "stateMutability": "view",
      "type": "function",
      "signature": "0x45b637a9"
    },
    {
      "constant": true,
      "inputs": [],
      "name": "CONSENSUS_DURATION_RATIO",
      "outputs": [
        {
          "name": "",
          "type": "uint256"
        }
      ],
      "payable": false,
      "stateMutability": "view",
      "type": "function",
      "signature": "0x45b99d28"
    },
    {
      "constant": true,
      "inputs": [
        {
          "name": "_catid",
          "type": "uint256"
        }
      ],
      "name": "viewCategory",
      "outputs": [
        {
          "components": [
            {
              "name": "name",
              "type": "string"
            },
            {
              "name": "description",
              "type": "string"
            },
            {
              "name": "workClockTimeRef",
              "type": "uint256"
            }
          ],
          "name": "category",
          "type": "tuple"
        }
      ],
      "payable": false,
      "stateMutability": "view",
      "type": "function",
      "signature": "0x4f5f44ec"
    },
    {
      "constant": true,
      "inputs": [],
      "name": "REVEAL_DEADLINE_RATIO",
      "outputs": [
        {
          "name": "",
          "type": "uint256"
        }
      ],
      "payable": false,
      "stateMutability": "view",
      "type": "function",
      "signature": "0x5fde601d"
    },
    {
      "constant": true,
      "inputs": [],
      "name": "CONTRIBUTION_DEADLINE_RATIO",
      "outputs": [
        {
          "name": "",
          "type": "uint256"
        }
      ],
      "payable": false,
      "stateMutability": "view",
      "type": "function",
      "signature": "0x7b244832"
    },
    {
      "constant": true,
      "inputs": [],
      "name": "workerpoolregistry",
      "outputs": [
        {
          "name": "",
          "type": "address"
        }
      ],
      "payable": false,
      "stateMutability": "view",
      "type": "function",
      "signature": "0x90a0f546"
    },
    {
      "constant": true,
      "inputs": [],
      "name": "FINAL_DEADLINE_RATIO",
      "outputs": [
        {
          "name": "",
          "type": "uint256"
        }
      ],
      "payable": false,
      "stateMutability": "view",
      "type": "function",
      "signature": "0x90fc26b1"
    },
    {
      "constant": true,
      "inputs": [],
      "name": "iexecclerk",
      "outputs": [
        {
          "name": "",
          "type": "address"
        }
      ],
      "payable": false,
      "stateMutability": "view",
      "type": "function",
      "signature": "0xb01c6846"
    },
    {
      "constant": true,
      "inputs": [],
      "name": "datasetregistry",
      "outputs": [
        {
          "name": "",
          "type": "address"
        }
      ],
      "payable": false,
      "stateMutability": "view",
      "type": "function",
      "signature": "0xb1b11d2c"
    },
    {
      "constant": true,
      "inputs": [],
      "name": "countCategory",
      "outputs": [
        {
          "name": "count",
          "type": "uint256"
        }
      ],
      "payable": false,
      "stateMutability": "view",
      "type": "function",
      "signature": "0xc140996f"
    },
    {
      "constant": true,
      "inputs": [],
      "name": "m_owner",
      "outputs": [
        {
          "name": "",
          "type": "address"
        }
      ],
      "payable": false,
      "stateMutability": "view",
      "type": "function",
      "signature": "0xdeff41c1"
    },
    {
      "constant": true,
      "inputs": [],
      "name": "REVEAL_DURATION_RATIO",
      "outputs": [
        {
          "name": "",
          "type": "uint256"
        }
      ],
      "payable": false,
      "stateMutability": "view",
      "type": "function",
      "signature": "0xe9ebbaf8"
    },
    {
      "constant": false,
      "inputs": [
        {
          "name": "_newOwner",
          "type": "address"
        }
      ],
      "name": "transferOwnership",
      "outputs": [],
      "payable": false,
      "stateMutability": "nonpayable",
      "type": "function",
      "signature": "0xf2fde38b"
    },
    {
      "inputs": [],
      "payable": false,
      "stateMutability": "nonpayable",
      "type": "constructor",
      "signature": "constructor"
    },
    {
      "anonymous": false,
      "inputs": [
        {
          "indexed": true,
          "name": "taskid",
          "type": "bytes32"
        },
        {
          "indexed": true,
          "name": "workerpool",
          "type": "address"
        }
      ],
      "name": "TaskInitialize",
      "type": "event",
      "signature": "0x252992fb0468d68d6a5784ec03214f0d0a362083f2d7ebd157af43b017a22e06"
    },
    {
      "anonymous": false,
      "inputs": [
        {
          "indexed": true,
          "name": "taskid",
          "type": "bytes32"
        },
        {
          "indexed": true,
          "name": "worker",
          "type": "address"
        },
        {
          "indexed": false,
          "name": "hash",
          "type": "bytes32"
        }
      ],
      "name": "TaskContribute",
      "type": "event",
      "signature": "0x3fdb8d7797562d49a81078dbf7fa1771958ea452f8b13d1148383bd9506aecfb"
    },
    {
      "anonymous": false,
      "inputs": [
        {
          "indexed": true,
          "name": "taskid",
          "type": "bytes32"
        },
        {
          "indexed": false,
          "name": "consensus",
          "type": "bytes32"
        }
      ],
      "name": "TaskConsensus",
      "type": "event",
      "signature": "0xf6d49bf3e05d33a4bc497d3c793fb5756388bb96b947cf51bb60aaecb0e022e3"
    },
    {
      "anonymous": false,
      "inputs": [
        {
          "indexed": true,
          "name": "taskid",
          "type": "bytes32"
        },
        {
          "indexed": true,
          "name": "worker",
          "type": "address"
        },
        {
          "indexed": false,
          "name": "digest",
          "type": "bytes32"
        }
      ],
      "name": "TaskReveal",
      "type": "event",
      "signature": "0x4b1763d473ac8fa80b4432ba90047e1b92444d8fabc55e6a002d9b1a316d7959"
    },
    {
      "anonymous": false,
      "inputs": [
        {
          "indexed": true,
          "name": "taskid",
          "type": "bytes32"
        }
      ],
      "name": "TaskReopen",
      "type": "event",
      "signature": "0x3afe0f24796ce653c6ab1f3e7aba5ce564eece5e82aee724aff28253e829f07b"
    },
    {
      "anonymous": false,
      "inputs": [
        {
          "indexed": true,
          "name": "taskid",
          "type": "bytes32"
        },
        {
          "indexed": false,
          "name": "results",
          "type": "bytes"
        }
      ],
      "name": "TaskFinalize",
      "type": "event",
      "signature": "0x78ce8a8bc0fcb704e8ba3b3dbb36aa88002df8038128b4af2f27ef65db665044"
    },
    {
      "anonymous": false,
      "inputs": [
        {
          "indexed": true,
          "name": "taskid",
          "type": "bytes32"
        }
      ],
      "name": "TaskClaimed",
      "type": "event",
      "signature": "0xcbc308b5f91040d2659a5201858344b0b583cd2f9e18e8470c2fa052c5b21ff8"
    },
    {
      "anonymous": false,
      "inputs": [
        {
          "indexed": true,
          "name": "worker",
          "type": "address"
        },
        {
          "indexed": true,
          "name": "taskid",
          "type": "bytes32"
        }
      ],
      "name": "AccurateContribution",
      "type": "event",
      "signature": "0x9703f4589802246c80b822e63697180da799e363cd1b6fd9465a5e5574d53492"
    },
    {
      "anonymous": false,
      "inputs": [
        {
          "indexed": true,
          "name": "worker",
          "type": "address"
        },
        {
          "indexed": true,
          "name": "taskid",
          "type": "bytes32"
        }
      ],
      "name": "FaultyContribution",
      "type": "event",
      "signature": "0xf868788948d55240774fdbad06555105ef20bbc70d1b7eccda982b65e11e79bb"
    },
    {
      "anonymous": false,
      "inputs": [
        {
          "indexed": false,
          "name": "catid",
          "type": "uint256"
        },
        {
          "indexed": false,
          "name": "name",
          "type": "string"
        },
        {
          "indexed": false,
          "name": "description",
          "type": "string"
        },
        {
          "indexed": false,
          "name": "workClockTimeRef",
          "type": "uint256"
        }
      ],
      "name": "CreateCategory",
      "type": "event",
      "signature": "0x62bf08360c9d561749c54eaf4f8bf8cb6c8b6f4f40607bcec39a8172e714d25c"
    },
    {
      "anonymous": false,
      "inputs": [
        {
          "indexed": false,
          "name": "previousOwner",
          "type": "address"
        },
        {
          "indexed": false,
          "name": "newOwner",
          "type": "address"
        }
      ],
      "name": "OwnershipTransferred",
      "type": "event",
      "signature": "0x8be0079c531659141344cd1fd0a4f28419497f9722a3daafe3b4186f6b6457e0"
    },
    {
      "constant": false,
      "inputs": [
        {
          "name": "_iexecclerkAddress",
          "type": "address"
        },
        {
          "name": "_appregistryAddress",
          "type": "address"
        },
        {
          "name": "_datasetregistryAddress",
          "type": "address"
        },
        {
          "name": "_workerpoolregistryAddress",
          "type": "address"
        }
      ],
      "name": "attachContracts",
      "outputs": [],
      "payable": false,
      "stateMutability": "nonpayable",
      "type": "function",
      "signature": "0x4704511d"
    },
    {
      "constant": true,
      "inputs": [
        {
          "name": "_taskid",
          "type": "bytes32"
        }
      ],
      "name": "viewTask",
      "outputs": [
        {
          "components": [
            {
              "name": "status",
              "type": "uint8"
            },
            {
              "name": "dealid",
              "type": "bytes32"
            },
            {
              "name": "idx",
              "type": "uint256"
            },
            {
              "name": "timeref",
              "type": "uint256"
            },
            {
              "name": "contributionDeadline",
              "type": "uint256"
            },
            {
              "name": "revealDeadline",
              "type": "uint256"
            },
            {
              "name": "finalDeadline",
              "type": "uint256"
            },
            {
              "name": "consensusValue",
              "type": "bytes32"
            },
            {
              "name": "revealCounter",
              "type": "uint256"
            },
            {
              "name": "winnerCounter",
              "type": "uint256"
            },
            {
              "name": "contributors",
              "type": "address[]"
            },
            {
              "name": "results",
              "type": "bytes"
            }
          ],
          "name": "",
          "type": "tuple"
        }
      ],
      "payable": false,
      "stateMutability": "view",
      "type": "function",
      "signature": "0xadccf0d5"
    },
    {
      "constant": true,
      "inputs": [
        {
          "name": "_taskid",
          "type": "bytes32"
        },
        {
          "name": "_worker",
          "type": "address"
        }
      ],
      "name": "viewContribution",
      "outputs": [
        {
          "components": [
            {
              "name": "status",
              "type": "uint8"
            },
            {
              "name": "resultHash",
              "type": "bytes32"
            },
            {
              "name": "resultSeal",
              "type": "bytes32"
            },
            {
              "name": "enclaveChallenge",
              "type": "address"
            }
          ],
          "name": "",
          "type": "tuple"
        }
      ],
      "payable": false,
      "stateMutability": "view",
      "type": "function",
      "signature": "0xe741363b"
    },
    {
      "constant": true,
      "inputs": [
        {
          "name": "_worker",
          "type": "address"
        }
      ],
      "name": "viewScore",
      "outputs": [
        {
          "name": "",
          "type": "uint256"
        }
      ],
      "payable": false,
      "stateMutability": "view",
      "type": "function",
      "signature": "0xdb230b52"
    },
    {
      "constant": true,
      "inputs": [
        {
          "name": "app",
          "type": "address"
        },
        {
          "name": "dataset",
          "type": "address"
        },
        {
          "name": "workerpool",
          "type": "address"
        }
      ],
      "name": "checkResources",
      "outputs": [
        {
          "name": "",
          "type": "bool"
        }
      ],
      "payable": false,
      "stateMutability": "view",
      "type": "function",
      "signature": "0x097d630d"
    },
    {
      "constant": true,
      "inputs": [
        {
          "name": "id",
          "type": "bytes32"
        }
      ],
      "name": "resultFor",
      "outputs": [
        {
          "name": "",
          "type": "bytes"
        }
      ],
      "payable": false,
      "stateMutability": "view",
      "type": "function",
      "signature": "0xd09cc57e"
    },
    {
      "constant": false,
      "inputs": [
        {
          "name": "_dealid",
          "type": "bytes32"
        },
        {
          "name": "idx",
          "type": "uint256"
        }
      ],
      "name": "initialize",
      "outputs": [
        {
          "name": "",
          "type": "bytes32"
        }
      ],
      "payable": false,
      "stateMutability": "nonpayable",
      "type": "function",
      "signature": "0x5b36c66b"
    },
    {
      "constant": false,
      "inputs": [
        {
          "name": "_taskid",
          "type": "bytes32"
        },
        {
          "name": "_resultHash",
          "type": "bytes32"
        },
        {
          "name": "_resultSeal",
          "type": "bytes32"
        },
        {
          "name": "_enclaveChallenge",
          "type": "address"
        },
        {
          "components": [
            {
              "name": "v",
              "type": "uint8"
            },
            {
              "name": "r",
              "type": "bytes32"
            },
            {
              "name": "s",
              "type": "bytes32"
            }
          ],
          "name": "_enclaveSign",
          "type": "tuple"
        },
        {
          "components": [
            {
              "name": "v",
              "type": "uint8"
            },
            {
              "name": "r",
              "type": "bytes32"
            },
            {
              "name": "s",
              "type": "bytes32"
            }
          ],
          "name": "_workerpoolSign",
          "type": "tuple"
        }
      ],
      "name": "contribute",
      "outputs": [],
      "payable": false,
      "stateMutability": "nonpayable",
      "type": "function",
      "signature": "0x25a57534"
    },
    {
      "constant": false,
      "inputs": [
        {
          "name": "_taskid",
          "type": "bytes32"
        },
        {
          "name": "_resultDigest",
          "type": "bytes32"
        }
      ],
      "name": "reveal",
      "outputs": [],
      "payable": false,
      "stateMutability": "nonpayable",
      "type": "function",
      "signature": "0xfc334e8c"
    },
    {
      "constant": false,
      "inputs": [
        {
          "name": "_taskid",
          "type": "bytes32"
        }
      ],
      "name": "reopen",
      "outputs": [],
      "payable": false,
      "stateMutability": "nonpayable",
      "type": "function",
      "signature": "0xf6c68e10"
    },
    {
      "constant": false,
      "inputs": [
        {
          "name": "_taskid",
          "type": "bytes32"
        },
        {
          "name": "_results",
          "type": "bytes"
        }
      ],
      "name": "finalize",
      "outputs": [],
      "payable": false,
      "stateMutability": "nonpayable",
      "type": "function",
      "signature": "0xc037f13e"
    },
    {
      "constant": false,
      "inputs": [
        {
          "name": "_taskid",
          "type": "bytes32"
        }
      ],
      "name": "claim",
      "outputs": [],
      "payable": false,
      "stateMutability": "nonpayable",
      "type": "function",
      "signature": "0xbd66528a"
    },
    {
      "constant": false,
      "inputs": [
        {
          "name": "_dealid",
          "type": "bytes32[]"
        },
        {
          "name": "_idx",
          "type": "uint256[]"
        }
      ],
      "name": "initializeArray",
      "outputs": [
        {
          "name": "",
          "type": "bool"
        }
      ],
      "payable": false,
      "stateMutability": "nonpayable",
      "type": "function",
      "signature": "0xb504681d"
    },
    {
      "constant": false,
      "inputs": [
        {
          "name": "_taskid",
          "type": "bytes32[]"
        }
      ],
      "name": "claimArray",
      "outputs": [
        {
          "name": "",
          "type": "bool"
        }
      ],
      "payable": false,
      "stateMutability": "nonpayable",
      "type": "function",
      "signature": "0xfa055d7e"
    },
    {
      "constant": false,
      "inputs": [
        {
          "name": "_dealid",
          "type": "bytes32[]"
        },
        {
          "name": "_idx",
          "type": "uint256[]"
        }
      ],
      "name": "initializeAndClaimArray",
      "outputs": [
        {
          "name": "",
          "type": "bool"
        }
      ],
      "payable": false,
      "stateMutability": "nonpayable",
      "type": "function",
      "signature": "0xf722cb32"
    },
    {
      "constant": true,
      "inputs": [
        {
          "name": "_taskid",
          "type": "bytes32"
        }
      ],
      "name": "viewTaskABILegacy",
      "outputs": [
        {
          "name": "",
          "type": "uint8"
        },
        {
          "name": "",
          "type": "bytes32"
        },
        {
          "name": "",
          "type": "uint256"
        },
        {
          "name": "",
          "type": "uint256"
        },
        {
          "name": "",
          "type": "uint256"
        },
        {
          "name": "",
          "type": "uint256"
        },
        {
          "name": "",
          "type": "uint256"
        },
        {
          "name": "",
          "type": "bytes32"
        },
        {
          "name": "",
          "type": "uint256"
        },
        {
          "name": "",
          "type": "uint256"
        },
        {
          "name": "",
          "type": "address[]"
        },
        {
          "name": "",
          "type": "bytes"
        }
      ],
      "payable": false,
      "stateMutability": "view",
      "type": "function",
      "signature": "0x248ad6a0"
    },
    {
      "constant": true,
      "inputs": [
        {
          "name": "_taskid",
          "type": "bytes32"
        },
        {
          "name": "_worker",
          "type": "address"
        }
      ],
      "name": "viewContributionABILegacy",
      "outputs": [
        {
          "name": "",
          "type": "uint8"
        },
        {
          "name": "",
          "type": "bytes32"
        },
        {
          "name": "",
          "type": "bytes32"
        },
        {
          "name": "",
          "type": "address"
        }
      ],
      "payable": false,
      "stateMutability": "view",
      "type": "function",
      "signature": "0x11e35aba"
    },
    {
      "constant": false,
      "inputs": [
        {
          "name": "_taskid",
          "type": "bytes32"
        },
        {
          "name": "_resultHash",
          "type": "bytes32"
        },
        {
          "name": "_resultSeal",
          "type": "bytes32"
        },
        {
          "name": "_enclaveChallenge",
          "type": "address"
        },
        {
          "name": "_enclaveSign_v",
          "type": "uint8"
        },
        {
          "name": "_enclaveSign_r",
          "type": "bytes32"
        },
        {
          "name": "_enclaveSign_s",
          "type": "bytes32"
        },
        {
          "name": "_poolSign_v",
          "type": "uint8"
        },
        {
          "name": "_poolSign_r",
          "type": "bytes32"
        },
        {
          "name": "_poolSign_s",
          "type": "bytes32"
        }
      ],
      "name": "contributeABILegacy",
      "outputs": [],
      "payable": false,
      "stateMutability": "nonpayable",
      "type": "function",
      "signature": "0xf90cc6d8"
    },
    {
      "constant": true,
      "inputs": [
        {
          "name": "_catid",
          "type": "uint256"
        }
      ],
      "name": "viewCategoryABILegacy",
      "outputs": [
        {
          "name": "",
          "type": "string"
        },
        {
          "name": "",
          "type": "string"
        },
        {
          "name": "",
          "type": "uint256"
        }
      ],
      "payable": false,
      "stateMutability": "view",
      "type": "function",
      "signature": "0xf9353b8d"
    }
  ],
  "bytecode": "0x608060405234801561001057600080fd5b5060008054600160a060020a03191633179055614264806100326000396000f3fe6080604052600436106101a05763ffffffff7c0100000000000000000000000000000000000000000000000000000000600035041663097d630d81146101a557806311e35aba146101db578063248ad6a01461020b57806325a5753414610243578063298503d91461026557806345b637a91461029257806345b99d28146102b45780634704511d146102c95780634f5f44ec146102e95780635b36c66b146103165780635fde601d146103365780637b2448321461034b57806390a0f5461461036057806390fc26b1146102b4578063adccf0d514610375578063b01c6846146103a2578063b1b11d2c146103b7578063b504681d146103cc578063bd66528a146103ec578063c037f13e1461040c578063c140996f1461042c578063d09cc57e14610441578063db230b521461046e578063deff41c11461048e578063e741363b146104b0578063e9ebbaf814610336578063f2fde38b146104dd578063f6c68e10146104fd578063f722cb321461051d578063f90cc6d81461053d578063f9353b8d1461055d578063fa055d7e1461058c578063fc334e8c146105ac575b600080fd5b3480156101b157600080fd5b506101c56101c0366004613729565b6105cc565b6040516101d29190613eaa565b60405180910390f35b3480156101e757600080fd5b506101fb6101f63660046138c5565b6107d5565b6040516101d29493929190613f84565b34801561021757600080fd5b5061022b6102263660046138a7565b610881565b6040516101d29c9b9a99989796959493929190613fb9565b34801561024f57600080fd5b5061026361025e36600461392f565b610a96565b005b34801561027157600080fd5b50610285610280366004613ae6565b610f11565b6040516101d29190613eb8565b34801561029e57600080fd5b506102a7611057565b6040516101d29190613f76565b3480156102c057600080fd5b50610285611066565b3480156102d557600080fd5b506102636102e4366004613776565b61106b565b3480156102f557600080fd5b506103096103043660046138a7565b6110f5565b6040516101d291906140ad565b34801561032257600080fd5b506102856103313660046138ff565b61126a565b34801561034257600080fd5b506102856114fe565b34801561035757600080fd5b50610285611503565b34801561036c57600080fd5b506102a7611508565b34801561038157600080fd5b506103956103903660046138a7565b611517565b6040516101d291906140cc565b3480156103ae57600080fd5b506102a76116b1565b3480156103c357600080fd5b506102a76116c0565b3480156103d857600080fd5b506101c56103e7366004613819565b6116cf565b3480156103f857600080fd5b506102636104073660046138a7565b61172f565b34801561041857600080fd5b50610263610427366004613a90565b611901565b34801561043857600080fd5b50610285611cca565b34801561044d57600080fd5b5061046161045c3660046138a7565b611cd1565b6040516101d29190613f65565b34801561047a57600080fd5b5061028561048936600461370b565b611d93565b34801561049a57600080fd5b506104a3611dae565b6040516101d29190613e81565b3480156104bc57600080fd5b506104d06104cb3660046138c5565b611dbd565b6040516101d291906140be565b3480156104e957600080fd5b506102636104f836600461370b565b611e41565b34801561050957600080fd5b506102636105183660046138a7565b611ee3565b34801561052957600080fd5b506101c5610538366004613819565b61213c565b34801561054957600080fd5b506102636105583660046139b7565b612184565b34801561056957600080fd5b5061057d6105783660046138a7565b6121da565b6040516101d293929190614079565b34801561059857600080fd5b506101c56105a73660046137d7565b612368565b3480156105b857600080fd5b506102636105c73660046138ff565b612397565b6007546040517fc3c5a547000000000000000000000000000000000000000000000000000000008152600091600160a060020a03169063c3c5a54790610616908790600401613e81565b60206040518083038186803b15801561062e57600080fd5b505afa158015610642573d6000803e3d6000fd5b505050506040513d601f19601f820116820180604052506106669190810190613889565b151561067157600080fd5b600160a060020a038316158061071b57506008546040517fc3c5a547000000000000000000000000000000000000000000000000000000008152600160a060020a039091169063c3c5a547906106cb908690600401613e81565b60206040518083038186803b1580156106e357600080fd5b505afa1580156106f7573d6000803e3d6000fd5b505050506040513d601f19601f8201168201806040525061071b9190810190613889565b151561072657600080fd5b6009546040517fc3c5a547000000000000000000000000000000000000000000000000000000008152600160a060020a039091169063c3c5a5479061076f908590600401613e81565b60206040518083038186803b15801561078757600080fd5b505afa15801561079b573d6000803e3d6000fd5b505050506040513d601f19601f820116820180604052506107bf9190810190613889565b15156107ca57600080fd5b5060015b9392505050565b6000806000806107e3613142565b6000878152600b60209081526040808320600160a060020a038a168452909152908190208151608081019092528054829060ff16600381111561082257fe5b600381111561082d57fe5b815260018201546020808301919091526002830154604080840191909152600390930154600160a060020a0316606092830152835190840151928401519390910151909a9199509197509095509350505050565b60008060008060008060008060008060608061089b61316b565b60008e8152600a602052604090819020815161018081019092528054829060ff1660048111156108c757fe5b60048111156108d257fe5b8152602001600182015481526020016002820154815260200160038201548152602001600482015481526020016005820154815260200160068201548152602001600782015481526020016008820154815260200160098201548152602001600a820180548060200260200160405190810160405280929190818152602001828054801561098957602002820191906000526020600020905b8154600160a060020a0316815260019091019060200180831161096b575b5050509183525050600b8201805460408051602060026001851615610100026000190190941693909304601f8101849004840282018401909252818152938201939291830182828015610a1d5780601f106109f257610100808354040283529160200191610a1d565b820191906000526020600020905b815481529060010190602001808311610a0057829003601f168201915b5050505050815250509050806000015181602001518260400151836060015184608001518560a001518660c001518760e001518861010001518961012001518a61014001518b61016001518191508090509c509c509c509c509c509c509c509c509c509c509c509c505091939597999b5091939597999b565b6000868152600a60209081526040808320600b8352818420338552909252909120610abf6131d3565b600654600184015460405160e160020a635ba430d9028152600160a060020a039092169163b74861b291610af591600401613eb8565b60006040518083038186803b158015610b0d57600080fd5b505afa158015610b21573d6000803e3d6000fd5b505050506040513d6000823e601f3d908101601f19168201604052610b499190810190613b6c565b90506001835460ff166004811115610b5d57fe5b14610b6757600080fd5b60048301544210610b7757600080fd5b6000825460ff166003811115610b8957fe5b14610b9357600080fd5b60408082015160209081015182516c0100000000000000000000000033810282850152603482018e9052600160a060020a038b1602605482015283516048818303018152606890910190935282519290910191909120610c089190610c0190610bfb906124ff565b87612550565b60046125f5565b1515610c1357600080fd5b600160a060020a038616151580610c54575060a0810151601f1a7f010000000000000000000000000000000000000000000000000000000000000090810216155b1515610c5f57600080fd5b600160a060020a0386161580610cb45750610cb486610c01610cae8b8b6040516020018083815260200182815260200192505050604051602081830303815290604052805190602001206124ff565b88612550565b1515610cbf57600080fd5b815460ff1916600190811783558083018990556002830188905560038301805473ffffffffffffffffffffffffffffffffffffffff19908116600160a060020a038a811691909117909255600a8601805480850182556000918252602090912001805433921682179055600654928601546040517fe798491a000000000000000000000000000000000000000000000000000000008152939092169263e798491a92610d6f929091600401613ed4565b600060405180830381600087803b158015610d8957600080fd5b505af1158015610d9d573d6000803e3d6000fd5b5050505033600160a060020a0316897f3fdb8d7797562d49a81078dbf7fa1771958ea452f8b13d1148383bd9506aecfb8a604051610ddb9190613eb8565b60405180910390a3336000908152600c6020526040812054610e2990600190610e1d90600390610e11908263ffffffff6126d216565b9063ffffffff6126f616565b9063ffffffff61270d16565b60008b8152600e602090815260408083208d8452909152812054919250610e6b82610e1d85610e5f83600163ffffffff6126f616565b9063ffffffff61272216565b9050610e768361274d565b60008d8152600d602090815260408083203384528252808320939093558e8252600e81528282208e835290522054610eb4908263ffffffff61295016565b60008d8152600e602090815260408083208f84528252808320939093558e8252600f90522054610eea908263ffffffff61295016565b60008d8152600f6020526040902055610f038c8c612962565b505050505050505050505050565b60008054600160a060020a03163314610f2957600080fd5b60006001806060604051908101604052808a8a8080601f016020809104026020016040519081016040528093929190818152602001838380828437600092019190915250505090825250604080516020601f8b0181900481028201810190925289815291810191908a908a9081908401838280828437600092018290525093855250505060209182018890528354600181018086559482529082902083518051600390930290910192610fe19284929091019061327a565b506020828101518051610ffa926001850192019061327a565b506040820151816002015550500390507f62bf08360c9d561749c54eaf4f8bf8cb6c8b6f4f40607bcec39a8172e714d25c818888888888604051611043969594939291906140dd565b60405180910390a190505b95945050505050565b600754600160a060020a031681565b600a81565b600054600160a060020a0316331461108257600080fd5b600654600160a060020a03161561109857600080fd5b60068054600160a060020a0395861673ffffffffffffffffffffffffffffffffffffffff19918216179091556007805494861694821694909417909355600880549285169284169290921790915560098054919093169116179055565b6110fd6132f8565b600180548390811061110b57fe5b600091825260209182902060408051600393909302909101805460026001821615610100026000190190911604601f81018590049094028301608090810190925260608301848152929390928492909184918401828280156111ae5780601f10611183576101008083540402835291602001916111ae565b820191906000526020600020905b81548152906001019060200180831161119157829003601f168201915b50505050508152602001600182018054600181600116156101000203166002900480601f0160208091040260200160405190810160405280929190818152602001828054600181600116156101000203166002900480156112505780601f1061122557610100808354040283529160200191611250565b820191906000526020600020905b81548152906001019060200180831161123357829003601f168201915b505050505081526020016002820154815250509050919050565b60006112746131d3565b60065460405160e160020a635ba430d9028152600160a060020a039091169063b74861b2906112a7908790600401613eb8565b60006040518083038186803b1580156112bf57600080fd5b505afa1580156112d3573d6000803e3d6000fd5b505050506040513d6000823e601f3d908101601f191682016040526112fb9190810190613b6c565b61016081015190915083101561131057600080fd5b61018081015161016082015161132b9163ffffffff61295016565b831061133657600080fd5b604080516020808201879052818301869052825180830384018152606090920183528151918101919091206000818152600a90925291812090815460ff16600481111561137f57fe5b1461138957600080fd5b805460ff191660019081178255808201879055600282018690556080840151815481106113b257fe5b60009182526020909120600391820201600201549082018190556101408401516113ed916113e1906007612722565b9063ffffffff61295016565b6004820155610140830151600382015461141391906113e190600a63ffffffff61272216565b6006808301919091556000838152600f602052604090819020600190559054905160e160020a635ba430d9028152600160a060020a039091169063b74861b290611461908990600401613eb8565b60006040518083038186803b15801561147957600080fd5b505afa15801561148d573d6000803e3d6000fd5b505050506040513d6000823e601f3d908101601f191682016040526114b59190810190613b6c565b6040015160000151600160a060020a0316827f252992fb0468d68d6a5784ec03214f0d0a362083f2d7ebd157af43b017a22e0660405160405180910390a3509150505b92915050565b600281565b600781565b600954600160a060020a031681565b61151f61316b565b6000828152600a602052604090819020815161018081019092528054829060ff16600481111561154b57fe5b600481111561155657fe5b8152602001600182015481526020016002820154815260200160038201548152602001600482015481526020016005820154815260200160068201548152602001600782015481526020016008820154815260200160098201548152602001600a820180548060200260200160405190810160405280929190818152602001828054801561160d57602002820191906000526020600020905b8154600160a060020a031681526001909101906020018083116115ef575b5050509183525050600b8201805460408051602060026001851615610100026000190190941693909304601f81018490048402820184019092528181529382019392918301828280156116a15780601f10611676576101008083540402835291602001916116a1565b820191906000526020600020905b81548152906001019060200180831161168457829003601f168201915b5050505050815250509050919050565b600654600160a060020a031681565b600854600160a060020a031681565b60008382146116dd57600080fd5b60005b84811015611721576117188686838181106116f757fe5b90506020020135858584818110151561170c57fe5b9050602002013561126a565b506001016116e0565b50600190505b949350505050565b6000818152600a602052604090206001815460ff16600481111561174f57fe5b148061176a57506002815460ff16600481111561176857fe5b145b151561177557600080fd5b600681015442101561178657600080fd5b805460ff19166004908117825560065460018301546040517f5d0c812f000000000000000000000000000000000000000000000000000000008152600160a060020a0390921692635d0c812f926117de929101613eb8565b600060405180830381600087803b1580156117f857600080fd5b505af115801561180c573d6000803e3d6000fd5b506000925050505b600a8201548110156118d157600082600a018281548110151561183357fe5b60009182526020909120015460065460018501546040517f6eb528b5000000000000000000000000000000000000000000000000000000008152600160a060020a0393841694509290911691636eb528b591611893918590600401613ec6565b600060405180830381600087803b1580156118ad57600080fd5b505af11580156118c1573d6000803e3d6000fd5b5050505050806001019050611814565b5060405182907fcbc308b5f91040d2659a5201858344b0b583cd2f9e18e8470c2fa052c5b21ff890600090a25050565b6006546000848152600a60205260409081902060010154905160e160020a635ba430d90281528592600160a060020a03169163b74861b2916119469190600401613eb8565b60006040518083038186803b15801561195e57600080fd5b505afa158015611972573d6000803e3d6000fd5b505050506040513d6000823e601f3d908101601f1916820160405261199a9190810190613b6c565b6040015160200151600160a060020a031633146119b657600080fd5b6000848152600a602052604090206002815460ff1660048111156119d657fe5b146119e057600080fd5b600681015442106119f057600080fd5b806009015481600801541480611a19575060008160080154118015611a19575042816005015411155b1515611a2457600080fd5b805460ff19166003178155611a3d600b8201858561331a565b5060065460018201546040517f88044a7d000000000000000000000000000000000000000000000000000000008152600160a060020a03909216916388044a7d91611a8a91600401613eb8565b600060405180830381600087803b158015611aa457600080fd5b505af1158015611ab8573d6000803e3d6000fd5b50505050611ac585612ba1565b847f78ce8a8bc0fcb704e8ba3b3dbb36aa88002df8038128b4af2f27ef65db6650448585604051611af7929190613f53565b60405180910390a2600654600182015460405160e160020a635ba430d9028152600092600160a060020a03169163b74861b291611b379190600401613eb8565b60006040518083038186803b158015611b4f57600080fd5b505afa158015611b63573d6000803e3d6000fd5b505050506040513d6000823e601f3d908101601f19168201604052611b8b9190810190613b6c565b61010001519050600160a060020a03811615611cc257620186a05a11611bb057600080fd5b80600160a060020a0316620186a0878787604051602401611bd393929190613f17565b60408051601f198184030181529181526020820180517bffffffffffffffffffffffffffffffffffffffffffffffffffffffff167f5dd808550000000000000000000000000000000000000000000000000000000017815290518251909182918083835b60208310611c565780518252601f199092019160209182019101611c37565b6001836020036101000a03801982511681845116808217855250505050505090500191505060006040518083038160008787f1925050503d8060008114611cb9576040519150601f19603f3d011682016040523d82523d6000602084013e611cbe565b606091505b5050505b505050505050565b6001545b90565b6000818152600a602052604090206060906003815460ff166004811115611cf457fe5b14611cfe57600080fd5b600b8101805460408051602060026001851615610100026000190190941693909304601f81018490048402820184019092528181529291830182828015611d865780601f10611d5b57610100808354040283529160200191611d86565b820191906000526020600020905b815481529060010190602001808311611d6957829003601f168201915b5050505050915050919050565b600160a060020a03166000908152600c602052604090205490565b600054600160a060020a031681565b611dc5613142565b6000838152600b60209081526040808320600160a060020a0386168452909152908190208151608081019092528054829060ff166003811115611e0457fe5b6003811115611e0f57fe5b81526001820154602082015260028201546040820152600390910154600160a060020a03166060909101529392505050565b600054600160a060020a03163314611e5857600080fd5b600160a060020a0381161515611e6d57600080fd5b6000546040517f8be0079c531659141344cd1fd0a4f28419497f9722a3daafe3b4186f6b6457e091611eac91600160a060020a03909116908490613e8f565b60405180910390a16000805473ffffffffffffffffffffffffffffffffffffffff1916600160a060020a0392909216919091179055565b6006546000828152600a60205260409081902060010154905160e160020a635ba430d90281528392600160a060020a03169163b74861b291611f289190600401613eb8565b60006040518083038186803b158015611f4057600080fd5b505afa158015611f54573d6000803e3d6000fd5b505050506040513d6000823e601f3d908101601f19168201604052611f7c9190810190613b6c565b6040015160200151600160a060020a03163314611f9857600080fd5b6000828152600a602052604090206002815460ff166004811115611fb857fe5b14611fc257600080fd5b60068101544210611fd257600080fd5b42816005015411158015611fe857506008810154155b1515611ff357600080fd5b60005b600a82015481101561208e57600082600a018281548110151561201557fe5b60009182526020808320909101546007860154888452600b83526040808520600160a060020a039093168086529290935291909220600101549192501415612085576000858152600b60209081526040808320600160a060020a03851684529091529020805460ff191660031790555b50600101611ff6565b506000838152600e6020908152604080832060078501548452825280832054868452600f909252909120546120c89163ffffffff61270d16565b6000848152600f6020908152604080832093909355600e815282822060078501805484529152828220829055835460ff191660011784558190556005830181905560098301819055905184917f3afe0f24796ce653c6ab1f3e7aba5ce564eece5e82aee724aff28253e829f07b91a2505050565b600083821461214a57600080fd5b60005b848110156117215761217c61040787878481811061216757fe5b90506020020135868685818110151561170c57fe5b60010161214d565b6121ce8a8a8a8a6060604051908101604052808c60ff1681526020018b81526020018a8152506060604051908101604052808a60ff16815260200189815260200188815250610a96565b50505050505050505050565b60608060006121e76132f8565b60018054869081106121f557fe5b600091825260209182902060408051600393909302909101805460026001821615610100026000190190911604601f81018590049094028301608090810190925260608301848152929390928492909184918401828280156122985780601f1061226d57610100808354040283529160200191612298565b820191906000526020600020905b81548152906001019060200180831161227b57829003601f168201915b50505050508152602001600182018054600181600116156101000203166002900480601f01602080910402602001604051908101604052809291908181526020018280546001816001161561010002031660029004801561233a5780601f1061230f5761010080835404028352916020019161233a565b820191906000526020600020905b81548152906001019060200180831161231d57829003601f168201915b5050509183525050600291909101546020918201528151908201516040909201519097919650945092505050565b6000805b828110156107ca5761238f84848381811061238357fe5b9050602002013561172f565b60010161236c565b6000828152600a60209081526040808320600b83528184203385529092529091206002825460ff1660048111156123ca57fe5b146123d457600080fd5b600582015442106123e457600080fd5b6001815460ff1660038111156123f657fe5b1461240057600080fd5b600782015460018201541461241457600080fd5b6040805160208082018790528183018690528251808303840181526060909201909252805191012060018201541461244b57600080fd5b604080516c010000000000000000000000003302602080830191909152603482018790526054808301879052835180840390910181526074909201909252805191012060028201541461249d57600080fd5b805460ff1916600217815560088201546124b8906001612950565b6008830155604051339085907f4b1763d473ac8fa80b4432ba90047e1b92444d8fabc55e6a002d9b1a316d7959906124f1908790613eb8565b60405180910390a350505050565b604080517f19457468657265756d205369676e6564204d6573736167653a0a333200000000602080830191909152603c8083019490945282518083039094018452605c909101909152815191012090565b6000816000015160ff16601b148061256f5750816000015160ff16601c145b151561257a57600080fd5b60018383600001518460200151856040015160405160008152602001604052604051808581526020018460ff1660ff1681526020018381526020018281526020019450505050506020604051602081039080840390855afa1580156125e3573d6000803e3d6000fd5b5050604051601f190151949350505050565b600082600160a060020a031684600160a060020a03161480611727575083600160a060020a031663d202158d846040516020016126329190613e81565b60405160208183030381529060405280519060200120846040518363ffffffff167c0100000000000000000000000000000000000000000000000000000000028152600401612682929190613f38565b60206040518083038186803b15801561269a57600080fd5b505afa1580156126ae573d6000803e3d6000fd5b505050506040513d601f19601f820116820180604052506117279190810190613889565b60008082116126e057600080fd5b600082848115156126ed57fe5b04949350505050565b60008183101561270657816107ce565b5090919050565b60008282111561271c57600080fd5b50900390565b6000821515612733575060006114f8565b82820282848281151561274257fe5b04146107ce57600080fd5b604080517ff8f9cbfae6cc78fbefe7cdc3a1793dfcf4f0e8bbd8cec470b6a28a7a5a3e1efd81527ff5ecf1b3e9debc68e1d9cfabc5997135bfb7a7a3938b7b606b5b4b3f2f1f0ffe60208201527ff6e4ed9ff2d6b458eadcdf97bd91692de2d4da8fd2d0ac50c6ae9a8272523616818301527fc8c0b887b0a8a4489c948c7f847c6125746c645c544c444038302820181008ff60608201527ff7cae577eec2a03cf3bad76fb589591debb2dd67e0aa9834bea6925f6a4a2e0e60808201527fe39ed557db96902cd38ed14fad815115c786af479b7e8324736353433727170760a08201527fc976c13bb96e881cb166a933a55e490d9d56952b8d4e801485467d236242260660c08201527f753a6d1b65325d0c552a4d1345224105391a310b29122104190a11030902010060e08201526101008082019092527f0100000000000000000000000000000000000000000000000000000000000000600170010000000000000000000000000000000068010000000000000000640100000000620100006010600460026000198c019081041790810417908104178881041790810417908104179081041790810417017e818283848586878898a8b8c8d8e8f929395969799a9b9d9e9faaeb6bedeeff0281900460ff0390910151047f8000000000000000000000000000000000000000000000000000000000000000909211020190565b6000828201838110156107ce57600080fd5b6006546000838152600a602052604080822060010154905160e160020a635ba430d90281529192600160a060020a03169163b74861b2916129a591600401613eb8565b60006040518083038186803b1580156129bd57600080fd5b505afa1580156129d1573d6000803e3d6000fd5b505050506040513d6000823e601f3d908101601f191682016040526129f99190810190613b6c565b606001519050612a2e612a1382600163ffffffff61270d16565b6000858152600f60205260409020549063ffffffff61272216565b6000848152600e60209081526040808320868452909152902054612a58908363ffffffff61272216565b1115612b9c576000838152600a6020526040812090805b600a830154811015612b2357600083600a0182815481101515612a8e57fe5b6000918252602080832090910154898352600b82526040808420600160a060020a039092168085529190925291206001015490915086148015612b01575060016000888152600b60209081526040808320600160a060020a038616845290915290205460ff166003811115612aff57fe5b145b15612b1a57612b1783600163ffffffff61295016565b92505b50600101612a6f565b50815460ff191660029081178355600783018590556003830154612b4c9142916113e191612722565b6005830155600060088301556009820181905560405185907ff6d49bf3e05d33a4bc497d3c793fb5756388bb96b947cf51bb60aaecb0e022e390612b91908790613eb8565b60405180910390a250505b505050565b6000818152600a60205260409020612bb76131d3565b600654600183015460405160e160020a635ba430d9028152600160a060020a039092169163b74861b291612bed91600401613eb8565b60006040518083038186803b158015612c0557600080fd5b505afa158015612c19573d6000803e3d6000fd5b505050506040513d6000823e601f3d908101601f19168201604052612c419190810190613b6c565b600654600184015460405160e160020a635ba430d9028152929350600092839283928392600160a060020a039092169163b74861b291612c8391600401613eb8565b60006040518083038186803b158015612c9b57600080fd5b505afa158015612caf573d6000803e3d6000fd5b505050506040513d6000823e601f3d908101601f19168201604052612cd79190810190613b6c565b60400151604001519050600093505b600a860154841015612db257600a8601805485908110612d0257fe5b600091825260209091200154600160a060020a0316925060026000888152600b60209081526040808320600160a060020a038816845290915290205460ff166003811115612d4c57fe5b1415612d8d576000878152600d60209081526040808320600160a060020a0387168452909152902054612d8690839063ffffffff61295016565b9150612da7565b6101a0850151612da490829063ffffffff61295016565b90505b836001019350612ce6565b60008211612dbf57600080fd5b6000612dea612ddd876101c00151606461270d90919063ffffffff16565b839063ffffffff61312316565b9050600094505b600a8701548510156130a757600a8701805486908110612e0d57fe5b600091825260209091200154600160a060020a0316935060026000898152600b60209081526040808320600160a060020a038916845290915290205460ff166003811115612e5757fe5b1415612fab576000888152600d60209081526040808320600160a060020a0388168452909152812054612e929083908663ffffffff61312d16565b9050612ea4838263ffffffff61270d16565b60065460018a01546040517f83729251000000000000000000000000000000000000000000000000000000008152929550600160a060020a0390911691638372925191612ef79189908690600401613eef565b600060405180830381600087803b158015612f1157600080fd5b505af1158015612f25573d6000803e3d6000fd5b50505050600a88015460011015612fa557600160a060020a0385166000908152600c6020526040902054612f6090600163ffffffff61295016565b600160a060020a0386166000818152600c60205260408082209390935591518b927f9703f4589802246c80b822e63697180da799e363cd1b6fd9465a5e5574d5349291a35b5061309c565b60065460018801546040517f0d0c233c000000000000000000000000000000000000000000000000000000008152600160a060020a0390921691630d0c233c91612ff9918890600401613ec6565b600060405180830381600087803b15801561301357600080fd5b505af1158015613027573d6000803e3d6000fd5b505050600160a060020a0385166000908152600c602052604090205461305791506002600363ffffffff61312d16565b600160a060020a0385166000818152600c60205260408082209390935591518a927ff868788948d55240774fdbad06555105ef20bbc70d1b7eccda982b65e11e79bb91a35b846001019450612df1565b60065460018801546040517f4a8e362e000000000000000000000000000000000000000000000000000000008152600160a060020a0390921691634a8e362e916130f5918690600401613f38565b600060405180830381600087803b15801561310f57600080fd5b505af1158015610f03573d6000803e3d6000fd5b60006107ce838360645b600061172761313c8585612722565b836126d2565b604080516080810190915280600081526000602082018190526040820181905260609091015290565b604080516101808101909152806000815260200160008019168152602001600081526020016000815260200160008152602001600081526020016000815260200160008019168152602001600081526020016000815260200160608152602001606081525090565b6102a0604051908101604052806131e8613388565b81526020016131f5613388565b8152602001613202613388565b81526020016000815260200160008152602001600080191681526020016000600160a060020a031681526020016000600160a060020a031681526020016000600160a060020a031681526020016060815260200160008152602001600081526020016000815260200160008152602001600081525090565b828054600181600116156101000203166002900490600052602060002090601f016020900481019282601f106132bb57805160ff19168380011785556132e8565b828001600101855582156132e8579182015b828111156132e85782518255916020019190600101906132cd565b506132f49291506133a8565b5090565b6060604051908101604052806060815260200160608152602001600081525090565b828054600181600116156101000203166002900490600052602060002090601f016020900481019282601f1061335b5782800160ff198235161785556132e8565b828001600101855582156132e8579182015b828111156132e857823582559160200191906001019061336d565b604080516060810182526000808252602082018190529181019190915290565b611cce91905b808211156132f457600081556001016133ae565b60006107ce8235614186565b60006107ce8251614186565b600080601f830184136133ec57600080fd5b50813567ffffffffffffffff81111561340457600080fd5b60208301915083602082028301111561341c57600080fd5b9250929050565b60006107ce8251614191565b60006107ce8235611cce565b60006107ce8251611cce565b600080601f8301841361345957600080fd5b50813567ffffffffffffffff81111561347157600080fd5b60208301915083600182028301111561341c57600080fd5b6000601f8201831361349a57600080fd5b81516134ad6134a882614154565b61412d565b915080825260208301602083018583830111156134c957600080fd5b6134d48382846141f4565b50505092915050565b60006102a082840312156134f057600080fd5b6134fb6101e061412d565b905060006135098484613655565b825250606061351a84848301613655565b60208301525060c061352e84828501613655565b6040830152506101206135438482850161343b565b6060830152506101406135588482850161343b565b60808301525061016061356d8482850161343b565b60a083015250610180613582848285016133ce565b60c0830152506101a0613597848285016133ce565b60e0830152506101c06135ac848285016133ce565b610100830152506101e082015167ffffffffffffffff8111156135ce57600080fd5b6135da84828501613489565b610120830152506102006135f08482850161343b565b610140830152506102206136068482850161343b565b6101608301525061024061361c8482850161343b565b610180830152506102606136328482850161343b565b6101a0830152506102806136488482850161343b565b6101c08301525092915050565b60006060828403121561366757600080fd5b613671606061412d565b9050600061367f84846133ce565b8252506020613690848483016133ce565b60208301525060406136a48482850161343b565b60408301525092915050565b6000606082840312156136c257600080fd5b6136cc606061412d565b905060006136da84846136ff565b82525060206136eb8484830161342f565b60208301525060406136a48482850161342f565b60006107ce82356141ba565b60006020828403121561371d57600080fd5b600061172784846133c2565b60008060006060848603121561373e57600080fd5b600061374a86866133c2565b935050602061375b868287016133c2565b925050604061376c868287016133c2565b9150509250925092565b6000806000806080858703121561378c57600080fd5b600061379887876133c2565b94505060206137a9878288016133c2565b93505060406137ba878288016133c2565b92505060606137cb878288016133c2565b91505092959194509250565b600080602083850312156137ea57600080fd5b823567ffffffffffffffff81111561380157600080fd5b61380d858286016133da565b92509250509250929050565b6000806000806040858703121561382f57600080fd5b843567ffffffffffffffff81111561384657600080fd5b613852878288016133da565b9450945050602085013567ffffffffffffffff81111561387157600080fd5b61387d878288016133da565b95989497509550505050565b60006020828403121561389b57600080fd5b60006117278484613423565b6000602082840312156138b957600080fd5b6000611727848461342f565b600080604083850312156138d857600080fd5b60006138e4858561342f565b92505060206138f5858286016133c2565b9150509250929050565b6000806040838503121561391257600080fd5b600061391e858561342f565b92505060206138f58582860161342f565b600080600080600080610140878903121561394957600080fd5b6000613955898961342f565b965050602061396689828a0161342f565b955050604061397789828a0161342f565b945050606061398889828a016133c2565b935050608061399989828a016136b0565b92505060e06139aa89828a016136b0565b9150509295509295509295565b6000806000806000806000806000806101408b8d0312156139d757600080fd5b60006139e38d8d61342f565b9a505060206139f48d828e0161342f565b9950506040613a058d828e0161342f565b9850506060613a168d828e016133c2565b9750506080613a278d828e016136ff565b96505060a0613a388d828e0161342f565b95505060c0613a498d828e0161342f565b94505060e0613a5a8d828e016136ff565b935050610100613a6c8d828e0161342f565b925050610120613a7e8d828e0161342f565b9150509295989b9194979a5092959850565b600080600060408486031215613aa557600080fd5b6000613ab1868661342f565b935050602084013567ffffffffffffffff811115613ace57600080fd5b613ada86828701613447565b92509250509250925092565b600080600080600060608688031215613afe57600080fd5b853567ffffffffffffffff811115613b1557600080fd5b613b2188828901613447565b9550955050602086013567ffffffffffffffff811115613b4057600080fd5b613b4c88828901613447565b93509350506040613b5f8882890161342f565b9150509295509295909350565b600060208284031215613b7e57600080fd5b815167ffffffffffffffff811115613b9557600080fd5b611727848285016134dd565b613baa816141c0565b82525050565b613baa81614186565b6000613bc482614182565b808452602084019350613bd68361417c565b60005b82811015613c0657613bec868351613bb0565b613bf58261417c565b602096909601959150600101613bd9565b5093949350505050565b6000613c1b82614182565b808452602084019350613c2d8361417c565b60005b82811015613c0657613c43868351613bb0565b613c4c8261417c565b602096909601959150600101613c30565b613baa81614191565b613baa81611cce565b6000828452602084019350613c858385846141e8565b613c8e83614220565b9093019392505050565b6000613ca382614182565b808452613cb78160208601602086016141f4565b613cc081614220565b9093016020019392505050565b613baa816141c7565b613baa816141d2565b613baa816141dd565b8051606080845260009190840190613d008282613c98565b91505060208301518482036020860152613d1a8282613c98565b9150506040830151613d2f6040860182613c66565b509392505050565b80516080830190613d488482613cd6565b506020820151613d5b6020850182613c66565b506040820151613d6e6040850182613c66565b506060820151613d816060850182613bb0565b50505050565b8051600090610180840190613d9c8582613cdf565b506020830151613daf6020860182613c66565b506040830151613dc26040860182613c66565b506060830151613dd56060860182613c66565b506080830151613de86080860182613c66565b5060a0830151613dfb60a0860182613c66565b5060c0830151613e0e60c0860182613c66565b5060e0830151613e2160e0860182613c66565b50610100830151613e36610100860182613c66565b50610120830151613e4b610120860182613c66565b50610140830151848203610140860152613e658282613c10565b91505061016083015184820361016086015261104e8282613c98565b602081016114f88284613bb0565b60408101613e9d8285613bb0565b6107ce6020830184613bb0565b602081016114f88284613c5d565b602081016114f88284613c66565b60408101613e9d8285613c66565b60408101613ee28285613c66565b6107ce6020830184613ba1565b60608101613efd8286613c66565b613f0a6020830185613bb0565b6117276040830184613c66565b60408101613f258286613c66565b818103602083015261104e818486613c6f565b60408101613f468285613c66565b6107ce6020830184613c66565b60208082528101611727818486613c6f565b602080825281016107ce8184613c98565b602081016114f88284613ccd565b60808101613f928287613cd6565b613f9f6020830186613c66565b613fac6040830185613c66565b61104e6060830184613bb0565b6101808101613fc8828f613cdf565b613fd5602083018e613c66565b613fe2604083018d613c66565b613fef606083018c613c66565b613ffc608083018b613c66565b61400960a083018a613c66565b61401660c0830189613c66565b61402360e0830188613c66565b614031610100830187613c66565b61403f610120830186613c66565b8181036101408301526140528185613bb9565b90508181036101608301526140678184613c98565b9e9d5050505050505050505050505050565b6060808252810161408a8186613c98565b9050818103602083015261409e8185613c98565b90506117276040830184613c66565b602080825281016107ce8184613ce8565b608081016114f88284613d37565b602080825281016107ce8184613d87565b608081016140eb8289613c66565b81810360208301526140fe818789613c6f565b90508181036040830152614113818587613c6f565b90506141226060830184613c66565b979650505050505050565b60405181810167ffffffffffffffff8111828210171561414c57600080fd5b604052919050565b600067ffffffffffffffff82111561416b57600080fd5b506020601f91909101601f19160190565b60200190565b5190565b60006114f8826141ae565b151590565b6000600482106132f457fe5b6000600582106132f457fe5b600160a060020a031690565b60ff1690565b60006114f8825b60006114f882614186565b60006114f882614196565b60006114f8826141a2565b82818337506000910152565b60005b8381101561420f5781810151838201526020016141f7565b83811115613d815750506000910152565b601f01601f19169056fea265627a7a72305820bc0a77c294858faa2f6d1102170ee436160fb082fb4c69bc6798dbafd4c284bf6c6578706572696d656e74616cf50037",
  "source": "pragma solidity ^0.5.0;\npragma experimental ABIEncoderV2;\n\nimport \"../node_modules/iexec-solidity/contracts/ERC725_IdentityProxy/IERC725.sol\";\nimport \"../node_modules/iexec-solidity/contracts/ERC1154_OracleInterface/IERC1154.sol\";\nimport \"../node_modules/iexec-solidity/contracts/Libs/SafeMath.sol\";\nimport \"../node_modules/iexec-solidity/contracts/Libs/ECDSA.sol\";\n\nimport \"./libs/IexecODBLibCore.sol\";\nimport \"./libs/IexecODBLibOrders.sol\";\nimport \"./registries/RegistryBase.sol\";\nimport \"./CategoryManager.sol\";\nimport \"./IexecClerk.sol\";\n\n/**\n * /!\\ TEMPORARY LEGACY /!\\\n */\nimport \"./IexecHubABILegacy.sol\";\n\ncontract IexecHub is CategoryManager, IOracle, ECDSA, IexecHubABILegacy\n{\n\tusing SafeMath          for uint256;\n\tusing IexecODBLibOrders for *;\n\n\t/***************************************************************************\n\t *                                Constants                                *\n\t ***************************************************************************/\n\tuint256 public constant CONTRIBUTION_DEADLINE_RATIO = 7;\n\tuint256 public constant       REVEAL_DEADLINE_RATIO = 2;\n\tuint256 public constant        FINAL_DEADLINE_RATIO = 10;\n\n\t/***************************************************************************\n\t *                             Other contracts                             *\n\t ***************************************************************************/\n\tIexecClerk   public iexecclerk;\n\tRegistryBase public appregistry;\n\tRegistryBase public datasetregistry;\n\tRegistryBase public workerpoolregistry;\n\n\t/***************************************************************************\n\t *                          Consensuses & Workers                          *\n\t ***************************************************************************/\n\tmapping(bytes32 =>                    IexecODBLibCore.Task         ) m_tasks;\n\tmapping(bytes32 => mapping(address => IexecODBLibCore.Contribution)) m_contributions;\n\tmapping(address =>                    uint256                      ) m_workerScores;\n\n\tmapping(bytes32 => mapping(address => uint256                     )) m_logweight;\n\tmapping(bytes32 => mapping(bytes32 => uint256                     )) m_groupweight;\n\tmapping(bytes32 =>                    uint256                      ) m_totalweight;\n\n\t/***************************************************************************\n\t *                                 Events                                  *\n\t ***************************************************************************/\n\tevent TaskInitialize(bytes32 indexed taskid, address indexed workerpool               );\n\tevent TaskContribute(bytes32 indexed taskid, address indexed worker, bytes32 hash     );\n\tevent TaskConsensus (bytes32 indexed taskid,                         bytes32 consensus);\n\tevent TaskReveal    (bytes32 indexed taskid, address indexed worker, bytes32 digest   );\n\tevent TaskReopen    (bytes32 indexed taskid                                           );\n\tevent TaskFinalize  (bytes32 indexed taskid,                         bytes results    );\n\tevent TaskClaimed   (bytes32 indexed taskid                                           );\n\n\tevent AccurateContribution(address indexed worker, bytes32 indexed taskid);\n\tevent FaultyContribution  (address indexed worker, bytes32 indexed taskid);\n\n\t/***************************************************************************\n\t *                                Modifiers                                *\n\t ***************************************************************************/\n\tmodifier onlyScheduler(bytes32 _taskid)\n\t{\n\t\trequire(msg.sender == iexecclerk.viewDeal(m_tasks[_taskid].dealid).workerpool.owner);\n\t\t_;\n\t}\n\n\t/***************************************************************************\n\t *                               Constructor                               *\n\t ***************************************************************************/\n\tconstructor()\n\tpublic\n\t{\n\t}\n\n\tfunction attachContracts(\n\t\taddress _iexecclerkAddress,\n\t\taddress _appregistryAddress,\n\t\taddress _datasetregistryAddress,\n\t\taddress _workerpoolregistryAddress)\n\texternal onlyOwner\n\t{\n\t\trequire(address(iexecclerk) == address(0));\n\t\tiexecclerk         = IexecClerk  (_iexecclerkAddress  );\n\t\tappregistry        = RegistryBase(_appregistryAddress);\n\t\tdatasetregistry    = RegistryBase(_datasetregistryAddress);\n\t\tworkerpoolregistry = RegistryBase(_workerpoolregistryAddress);\n\t}\n\n\t/***************************************************************************\n\t *                                Accessors                                *\n\t ***************************************************************************/\n\tfunction viewTask(bytes32 _taskid)\n\texternal view returns (IexecODBLibCore.Task memory)\n\t{\n\t\treturn m_tasks[_taskid];\n\t}\n\n\tfunction viewContribution(bytes32 _taskid, address _worker)\n\texternal view returns (IexecODBLibCore.Contribution memory)\n\t{\n\t\treturn m_contributions[_taskid][_worker];\n\t}\n\n\tfunction viewScore(address _worker)\n\texternal view returns (uint256)\n\t{\n\t\treturn m_workerScores[_worker];\n\t}\n\n\tfunction checkResources(address app, address dataset, address workerpool)\n\texternal view returns (bool)\n\t{\n\t\trequire(                         appregistry.isRegistered(app));\n\t\trequire(dataset == address(0) || datasetregistry.isRegistered(dataset));\n\t\trequire(                         workerpoolregistry.isRegistered(workerpool));\n\t\treturn true;\n\t}\n\n\t/***************************************************************************\n\t *                         EIP 1154 PULL INTERFACE                         *\n\t ***************************************************************************/\n\tfunction resultFor(bytes32 id)\n\texternal view returns (bytes memory)\n\t{\n\t\tIexecODBLibCore.Task storage task = m_tasks[id];\n\t\trequire(task.status == IexecODBLibCore.TaskStatusEnum.COMPLETED);\n\t\treturn task.results;\n\t}\n\n\t/***************************************************************************\n\t *                       Hashing and signature tools                       *\n\t ***************************************************************************/\n\tfunction checkIdentity(address _identity, address _candidate, uint256 _purpose)\n\tinternal view returns (bool valid)\n\t{\n\t\treturn _identity == _candidate || IERC725(_identity).keyHasPurpose(keccak256(abi.encode(_candidate)), _purpose); // Simple address || Identity contract\n\t}\n\n\t/***************************************************************************\n\t *                            Consensus methods                            *\n\t ***************************************************************************/\n\tfunction initialize(bytes32 _dealid, uint256 idx)\n\tpublic returns (bytes32)\n\t{\n\t\tIexecODBLibCore.Deal memory deal = iexecclerk.viewDeal(_dealid);\n\n\t\trequire(idx >= deal.botFirst                  );\n\t\trequire(idx <  deal.botFirst.add(deal.botSize));\n\n\t\tbytes32 taskid  = keccak256(abi.encodePacked(_dealid, idx));\n\t\tIexecODBLibCore.Task storage task = m_tasks[taskid];\n\t\trequire(task.status == IexecODBLibCore.TaskStatusEnum.UNSET);\n\n\t\ttask.status               = IexecODBLibCore.TaskStatusEnum.ACTIVE;\n\t\ttask.dealid               = _dealid;\n\t\ttask.idx                  = idx;\n\t\ttask.timeref              = m_categories[deal.category].workClockTimeRef;\n\t\ttask.contributionDeadline = task.timeref.mul(CONTRIBUTION_DEADLINE_RATIO).add(deal.startTime);\n\t\ttask.finalDeadline        = task.timeref.mul(       FINAL_DEADLINE_RATIO).add(deal.startTime);\n\n\t\t// setup denominator\n\t\tm_totalweight[taskid] = 1;\n\n\t\temit TaskInitialize(taskid, iexecclerk.viewDeal(_dealid).workerpool.pointer);\n\n\t\treturn taskid;\n\t}\n\n\t// TODO: make external w/ calldata\n\tfunction contribute(\n\t\tbytes32                _taskid,\n\t\tbytes32                _resultHash,\n\t\tbytes32                _resultSeal,\n\t\taddress                _enclaveChallenge,\n\t\tECDSA.signature memory _enclaveSign,\n\t\tECDSA.signature memory _workerpoolSign)\n\tpublic\n\t{\n\t\tIexecODBLibCore.Task         storage task         = m_tasks[_taskid];\n\t\tIexecODBLibCore.Contribution storage contribution = m_contributions[_taskid][msg.sender];\n\t\tIexecODBLibCore.Deal         memory  deal         = iexecclerk.viewDeal(task.dealid);\n\n\t\trequire(task.status               == IexecODBLibCore.TaskStatusEnum.ACTIVE       );\n\t\trequire(task.contributionDeadline >  now                                         );\n\t\trequire(contribution.status       == IexecODBLibCore.ContributionStatusEnum.UNSET);\n\n\t\t// Check that the worker + taskid + enclave combo is authorized to contribute (scheduler signature)\n\t\trequire(checkIdentity(\n\t\t\tdeal.workerpool.owner,\n\t\t\trecover(\n\t\t\t\ttoEthSignedMessageHash(\n\t\t\t\t\tkeccak256(abi.encodePacked(\n\t\t\t\t\t\tmsg.sender,\n\t\t\t\t\t\t_taskid,\n\t\t\t\t\t\t_enclaveChallenge\n\t\t\t\t\t))\n\t\t\t\t),\n\t\t\t\t_workerpoolSign\n\t\t\t),\n\t\t\t4\n\t\t));\n\n\t\t// need enclave challenge if tag is set\n\t\trequire(_enclaveChallenge != address(0) || (deal.tag[31] & 0x01 == 0));\n\n\t\t// Check enclave signature\n\t\trequire(_enclaveChallenge == address(0) || checkIdentity(\n\t\t\t_enclaveChallenge,\n\t\t\trecover(\n\t\t\t\ttoEthSignedMessageHash(\n\t\t\t\t\tkeccak256(abi.encodePacked(\n\t\t\t\t\t\t_resultHash,\n\t\t\t\t\t\t_resultSeal\n\t\t\t\t\t))\n\t\t\t\t),\n\t\t\t\t_enclaveSign\n\t\t\t),\n\t\t\t4\n\t\t));\n\n\t\t// Update contribution entry\n\t\tcontribution.status           = IexecODBLibCore.ContributionStatusEnum.CONTRIBUTED;\n\t\tcontribution.resultHash       = _resultHash;\n\t\tcontribution.resultSeal       = _resultSeal;\n\t\tcontribution.enclaveChallenge = _enclaveChallenge;\n\t\ttask.contributors.push(msg.sender);\n\n\t\tiexecclerk.lockContribution(task.dealid, msg.sender);\n\n\t\temit TaskContribute(_taskid, msg.sender, _resultHash);\n\n\t\t// Contribution done  updating and checking concensus\n\n\t\t/*************************************************************************\n\t\t *                           SCORE POLICY 1/3                            *\n\t\t *                                                                       *\n\t\t *                          see documentation!                           *\n\t\t *************************************************************************/\n\t\t// k = 3\n\t\tuint256 weight = m_workerScores[msg.sender].div(3).max(3).sub(1);\n\t\tuint256 group  = m_groupweight[_taskid][_resultHash];\n\t\tuint256 delta  = group.max(1).mul(weight).sub(group);\n\n\t\tm_logweight  [_taskid][msg.sender ] = weight.log();\n\t\tm_groupweight[_taskid][_resultHash] = m_groupweight[_taskid][_resultHash].add(delta);\n\t\tm_totalweight[_taskid]              = m_totalweight[_taskid].add(delta);\n\n\t\t// Check consensus\n\t\tcheckConsensus(_taskid, _resultHash);\n\t}\n\tfunction checkConsensus(\n\t\tbytes32 _taskid,\n\t\tbytes32 _consensus)\n\tprivate\n\t{\n\t\tuint256 trust = iexecclerk.viewDeal(m_tasks[_taskid].dealid).trust;\n\t\tif (m_groupweight[_taskid][_consensus].mul(trust) > m_totalweight[_taskid].mul(trust.sub(1)))\n\t\t{\n\t\t\t// Preliminary checks done in \"contribute()\"\n\n\t\t\tIexecODBLibCore.Task storage task = m_tasks[_taskid];\n\t\t\tuint256 winnerCounter = 0;\n\t\t\tfor (uint256 i = 0; i < task.contributors.length; ++i)\n\t\t\t{\n\t\t\t\taddress w = task.contributors[i];\n\t\t\t\tif\n\t\t\t\t(\n\t\t\t\t\tm_contributions[_taskid][w].resultHash == _consensus\n\t\t\t\t\t&&\n\t\t\t\t\tm_contributions[_taskid][w].status == IexecODBLibCore.ContributionStatusEnum.CONTRIBUTED // REJECTED contribution must not be count\n\t\t\t\t)\n\t\t\t\t{\n\t\t\t\t\twinnerCounter = winnerCounter.add(1);\n\t\t\t\t}\n\t\t\t}\n\t\t\t// msg.sender is a contributor: no need to check\n\t\t\t// require(winnerCounter > 0);\n\t\t\ttask.status         = IexecODBLibCore.TaskStatusEnum.REVEALING;\n\t\t\ttask.consensusValue = _consensus;\n\t\t\ttask.revealDeadline = task.timeref.mul(REVEAL_DEADLINE_RATIO).add(now);\n\t\t\ttask.revealCounter  = 0;\n\t\t\ttask.winnerCounter  = winnerCounter;\n\n\t\t\temit TaskConsensus(_taskid, _consensus);\n\t\t}\n\t}\n\n\tfunction reveal(\n\t\tbytes32 _taskid,\n\t\tbytes32 _resultDigest)\n\texternal // worker\n\t{\n\t\tIexecODBLibCore.Task         storage task         = m_tasks[_taskid];\n\t\tIexecODBLibCore.Contribution storage contribution = m_contributions[_taskid][msg.sender];\n\t\trequire(task.status             == IexecODBLibCore.TaskStatusEnum.REVEALING                       );\n\t\trequire(task.revealDeadline     >  now                                                            );\n\t\trequire(contribution.status     == IexecODBLibCore.ContributionStatusEnum.CONTRIBUTED             );\n\t\trequire(contribution.resultHash == task.consensusValue                                            );\n\t\trequire(contribution.resultHash == keccak256(abi.encodePacked(            _taskid, _resultDigest)));\n\t\trequire(contribution.resultSeal == keccak256(abi.encodePacked(msg.sender, _taskid, _resultDigest)));\n\n\t\tcontribution.status = IexecODBLibCore.ContributionStatusEnum.PROVED;\n\t\ttask.revealCounter  = task.revealCounter.add(1);\n\n\t\temit TaskReveal(_taskid, msg.sender, _resultDigest);\n\t}\n\n\tfunction reopen(\n\t\tbytes32 _taskid)\n\texternal onlyScheduler(_taskid)\n\t{\n\t\tIexecODBLibCore.Task storage task = m_tasks[_taskid];\n\t\trequire(task.status         == IexecODBLibCore.TaskStatusEnum.REVEALING);\n\t\trequire(task.finalDeadline  >  now                                     );\n\t\trequire(task.revealDeadline <= now\n\t\t     && task.revealCounter  == 0                                       );\n\n\t\tfor (uint256 i = 0; i < task.contributors.length; ++i)\n\t\t{\n\t\t\taddress worker = task.contributors[i];\n\t\t\tif (m_contributions[_taskid][worker].resultHash == task.consensusValue)\n\t\t\t{\n\t\t\t\tm_contributions[_taskid][worker].status = IexecODBLibCore.ContributionStatusEnum.REJECTED;\n\t\t\t}\n\t\t}\n\n\t\tm_totalweight[_taskid]                      = m_totalweight[_taskid].sub(m_groupweight[_taskid][task.consensusValue]);\n\t\tm_groupweight[_taskid][task.consensusValue] = 0;\n\n\t\ttask.status         = IexecODBLibCore.TaskStatusEnum.ACTIVE;\n\t\ttask.consensusValue = 0x0;\n\t\ttask.revealDeadline = 0;\n\t\ttask.winnerCounter  = 0;\n\n\t\temit TaskReopen(_taskid);\n\t}\n\n\tfunction finalize(\n\t\tbytes32          _taskid,\n\t\tbytes   calldata _results)\n\texternal onlyScheduler(_taskid)\n\t{\n\t\tIexecODBLibCore.Task storage task = m_tasks[_taskid];\n\t\trequire(task.status        == IexecODBLibCore.TaskStatusEnum.REVEALING);\n\t\trequire(task.finalDeadline >  now                                     );\n\t\trequire(task.revealCounter == task.winnerCounter\n\t\t    || (task.revealCounter >  0  && task.revealDeadline <= now)       );\n\n\t\ttask.status  = IexecODBLibCore.TaskStatusEnum.COMPLETED;\n\t\ttask.results = _results;\n\n\t\t/**\n\t\t * Stake and reward management\n\t\t */\n\t\tiexecclerk.successWork(task.dealid);\n\t\tdistributeRewards(_taskid);\n\n\t\t/**\n\t\t * Event\n\t\t */\n\t\temit TaskFinalize(_taskid, _results);\n\n\t\t/**\n\t\t * Callback for smartcontracts using EIP1154\n\t\t */\n\t\taddress callbackTarget = iexecclerk.viewDeal(task.dealid).callback;\n\t\tif (callbackTarget != address(0))\n\t\t{\n\t\t\t/**\n\t\t\t * Call does not revert if the target smart contract is incompatible or reverts\n\t\t\t *\n\t\t\t * ATTENTION!\n\t\t\t * This call is dangerous and target smart contract can charge the stack.\n\t\t\t * Assume invalid state after the call.\n\t\t\t * See: https://solidity.readthedocs.io/en/develop/types.html#members-of-addresses\n\t\t\t *\n\t\t\t * TODO: gas provided?\n\t\t\t */\n\t\t\trequire(gasleft() > 100000);\n\t\t\tcallbackTarget.call.gas(100000)(abi.encodeWithSignature(\n\t\t\t\t\"receiveResult(bytes32,bytes)\",\n\t\t\t\t_taskid,\n\t\t\t\t_results\n\t\t\t));\n\t\t}\n\t}\n\n\tfunction distributeRewards(bytes32 _taskid)\n\tprivate\n\t{\n\t\tIexecODBLibCore.Task storage task = m_tasks[_taskid];\n\t\tIexecODBLibCore.Deal memory  deal = iexecclerk.viewDeal(task.dealid);\n\n\t\tuint256 i;\n\t\taddress worker;\n\n\t\tuint256 totalLogWeight = 0;\n\t\tuint256 totalReward = iexecclerk.viewDeal(task.dealid).workerpool.price;\n\n\t\tfor (i = 0; i < task.contributors.length; ++i)\n\t\t{\n\t\t\tworker = task.contributors[i];\n\t\t\tif (m_contributions[_taskid][worker].status == IexecODBLibCore.ContributionStatusEnum.PROVED)\n\t\t\t{\n\t\t\t\ttotalLogWeight = totalLogWeight.add(m_logweight[_taskid][worker]);\n\t\t\t}\n\t\t\telse // ContributionStatusEnum.REJECT or ContributionStatusEnum.CONTRIBUTED (not revealed)\n\t\t\t{\n\t\t\t\ttotalReward = totalReward.add(deal.workerStake);\n\t\t\t}\n\t\t}\n\t\trequire(totalLogWeight > 0);\n\n\t\t// compute how much is going to the workers\n\t\tuint256 workersReward = totalReward.percentage(uint256(100).sub(deal.schedulerRewardRatio));\n\n\t\tfor (i = 0; i < task.contributors.length; ++i)\n\t\t{\n\t\t\tworker = task.contributors[i];\n\t\t\tif (m_contributions[_taskid][worker].status == IexecODBLibCore.ContributionStatusEnum.PROVED)\n\t\t\t{\n\t\t\t\tuint256 workerReward = workersReward.mulByFraction(m_logweight[_taskid][worker], totalLogWeight);\n\t\t\t\ttotalReward          = totalReward.sub(workerReward);\n\n\t\t\t\tiexecclerk.unlockAndRewardForContribution(task.dealid, worker, workerReward);\n\n\t\t\t\t// Only reward if replication happened\n\t\t\t\tif (task.contributors.length > 1)\n\t\t\t\t{\n\t\t\t\t\t/*******************************************************************\n\t\t\t\t\t *                        SCORE POLICY 2/3                         *\n\t\t\t\t\t *                                                                 *\n\t\t\t\t\t *                       see documentation!                        *\n\t\t\t\t\t *******************************************************************/\n\t\t\t\t\tm_workerScores[worker] = m_workerScores[worker].add(1);\n\t\t\t\t\temit AccurateContribution(worker, _taskid);\n\t\t\t\t}\n\t\t\t}\n\t\t\telse // WorkStatusEnum.POCO_REJECT or ContributionStatusEnum.CONTRIBUTED (not revealed)\n\t\t\t{\n\t\t\t\t// No Reward\n\t\t\t\tiexecclerk.seizeContribution(task.dealid, worker);\n\n\t\t\t\t// Always punish bad contributors\n\t\t\t\t{\n\t\t\t\t\t/*******************************************************************\n\t\t\t\t\t *                        SCORE POLICY 3/3                         *\n\t\t\t\t\t *                                                                 *\n\t\t\t\t\t *                       see documentation!                        *\n\t\t\t\t\t *******************************************************************/\n\t\t\t\t\t// k = 3\n\t\t\t\t\tm_workerScores[worker] = m_workerScores[worker].mulByFraction(2,3);\n\t\t\t\t\temit FaultyContribution(worker, _taskid);\n\t\t\t\t}\n\t\t\t}\n\t\t}\n\t\t// totalReward now contains the scheduler share\n\t\tiexecclerk.rewardForScheduling(task.dealid, totalReward);\n\t}\n\n\tfunction claim(\n\t\tbytes32 _taskid)\n\tpublic\n\t{\n\t\tIexecODBLibCore.Task storage task = m_tasks[_taskid];\n\t\trequire(task.status == IexecODBLibCore.TaskStatusEnum.ACTIVE\n\t\t     || task.status == IexecODBLibCore.TaskStatusEnum.REVEALING);\n\t\trequire(task.finalDeadline <= now);\n\n\t\ttask.status = IexecODBLibCore.TaskStatusEnum.FAILLED;\n\n\t\t/**\n\t\t * Stake management\n\t\t */\n\t\tiexecclerk.failedWork(task.dealid);\n\t\tfor (uint256 i = 0; i < task.contributors.length; ++i)\n\t\t{\n\t\t\taddress worker = task.contributors[i];\n\t\t\tiexecclerk.unlockContribution(task.dealid, worker);\n\t\t}\n\n\t\temit TaskClaimed(_taskid);\n\t}\n\n\t/***************************************************************************\n\t *                            Array operations                             *\n\t ***************************************************************************/\n\tfunction initializeArray(\n\t\tbytes32[] calldata _dealid,\n\t\tuint256[] calldata _idx)\n\texternal returns (bool)\n\t{\n\t\trequire(_dealid.length == _idx.length);\n\t\tfor (uint i = 0; i < _dealid.length; ++i)\n\t\t{\n\t\t\tinitialize(_dealid[i], _idx[i]);\n\t\t}\n\t\treturn true;\n\t}\n\n\tfunction claimArray(\n\t\tbytes32[] calldata _taskid)\n\texternal returns (bool)\n\t{\n\t\tfor (uint i = 0; i < _taskid.length; ++i)\n\t\t{\n\t\t\tclaim(_taskid[i]);\n\t\t}\n\t\treturn true;\n\t}\n\n\tfunction initializeAndClaimArray(\n\t\tbytes32[] calldata _dealid,\n\t\tuint256[] calldata _idx)\n\texternal returns (bool)\n\t{\n\t\trequire(_dealid.length == _idx.length);\n\t\tfor (uint i = 0; i < _dealid.length; ++i)\n\t\t{\n\t\t\tclaim(initialize(_dealid[i], _idx[i]));\n\t\t}\n\t\treturn true;\n\t}\n\n\t/**\n\t * /!\\ TEMPORARY LEGACY /!\\\n\t */\n\n\tfunction viewTaskABILegacy(bytes32 _taskid)\n\texternal view returns\n\t( IexecODBLibCore.TaskStatusEnum\n\t, bytes32\n\t, uint256\n\t, uint256\n\t, uint256\n\t, uint256\n\t, uint256\n\t, bytes32\n\t, uint256\n\t, uint256\n\t, address[] memory\n\t, bytes     memory\n\t)\n\t{\n\t\tIexecODBLibCore.Task memory task = m_tasks[_taskid];\n\t\treturn (\n\t\t\ttask.status,\n\t\t\ttask.dealid,\n\t\t\ttask.idx,\n\t\t\ttask.timeref,\n\t\t\ttask.contributionDeadline,\n\t\t\ttask.revealDeadline,\n\t\t\ttask.finalDeadline,\n\t\t\ttask.consensusValue,\n\t\t\ttask.revealCounter,\n\t\t\ttask.winnerCounter,\n\t\t\ttask.contributors,\n\t\t\ttask.results\n\t\t);\n\t}\n\n\tfunction viewContributionABILegacy(bytes32 _taskid, address _worker)\n\texternal view returns\n\t( IexecODBLibCore.ContributionStatusEnum\n\t, bytes32\n\t, bytes32\n\t, address\n\t)\n\t{\n\t\tIexecODBLibCore.Contribution memory contribution = m_contributions[_taskid][_worker];\n\t\treturn (\n\t\t\tcontribution.status,\n\t\t\tcontribution.resultHash,\n\t\t\tcontribution.resultSeal,\n\t\t\tcontribution.enclaveChallenge\n\t\t);\n\t}\n\n\tfunction contributeABILegacy(\n\t\tbytes32 _taskid,\n\t\tbytes32 _resultHash,\n\t\tbytes32 _resultSeal,\n\t\taddress _enclaveChallenge,\n\t\tuint8   _enclaveSign_v,\n\t\tbytes32 _enclaveSign_r,\n\t\tbytes32 _enclaveSign_s,\n\t\tuint8   _poolSign_v,\n\t\tbytes32 _poolSign_r,\n\t\tbytes32 _poolSign_s)\n\texternal\n\t{\n\t\tcontribute(\n\t\t\t_taskid,\n\t\t\t_resultHash,\n\t\t\t_resultSeal,\n\t\t\t_enclaveChallenge,\n\t\t\tECDSA.signature({ v: _enclaveSign_v, r: _enclaveSign_r, s: _enclaveSign_s }),\n\t\t\tECDSA.signature({ v: _poolSign_v,    r: _poolSign_r,    s: _poolSign_s    })\n\t\t);\n\t}\n\n\tfunction viewCategoryABILegacy(uint256 _catid)\n\texternal view returns (string memory, string memory, uint256)\n\t{\n\t\tIexecODBLibCore.Category memory category = m_categories[_catid];\n\t\treturn ( category.name, category.description, category.workClockTimeRef );\n\t}\n}\n",
  "sourcePath": "/home/amxx/Work/iExec/code/PoCo/contracts/IexecHub.sol",
  "compiler": {
    "name": "solc",
    "version": "0.5.0+commit.1d4f565a.Emscripten.clang"
  },
  "schemaVersion": "3.0.1",
  "updatedAt": "2019-01-25T13:16:50.186Z",
  "devdoc": {
    "methods": {
      "transferOwnership(address)": {
        "details": "Allows the current owner to transfer control of the contract to a newOwner.",
        "params": {
          "_newOwner": "The address to transfer ownership to."
        }
      }
    }
  },
  "userdoc": {
    "methods": {
      "constructor": "*************************************************************************                              Constructor                               ***************************************************************************",
      "createCategory(string,string,uint256)": {
        "notice": "Methods"
      },
      "initialize(bytes32,uint256)": {
        "notice": "*************************************************************************                           Consensus methods                            ***************************************************************************"
      },
      "initializeArray(bytes32[],uint256[])": {
        "notice": "*************************************************************************                           Array operations                             ***************************************************************************"
      },
      "resultFor(bytes32)": {
        "notice": "*************************************************************************                        EIP 1154 PULL INTERFACE                         ***************************************************************************"
      },
      "viewCategory(uint256)": {
        "notice": "Accessors"
      },
      "viewTask(bytes32)": {
        "notice": "*************************************************************************                               Accessors                                ***************************************************************************"
      },
      "viewTaskABILegacy(bytes32)": {
        "notice": "/!\\ TEMPORARY LEGACY /!\\"
      }
    }
  }
}