{
  "contractName": "IexecCategoryManagerDelegate",
  "abi": [
    {
      "constant": true,
      "inputs": [],
      "name": "appregistry",
      "outputs": [
        {
          "name": "",
          "type": "address"
        }
      ],
      "payable": false,
      "stateMutability": "view",
      "type": "function",
      "signature": "0x45b637a9"
    },
    {
      "constant": true,
      "inputs": [],
      "name": "workerpoolregistry",
      "outputs": [
        {
          "name": "",
          "type": "address"
        }
      ],
      "payable": false,
      "stateMutability": "view",
      "type": "function",
      "signature": "0x90a0f546"
    },
    {
      "constant": true,
      "inputs": [],
      "name": "datasetregistry",
      "outputs": [
        {
          "name": "",
          "type": "address"
        }
      ],
      "payable": false,
      "stateMutability": "view",
      "type": "function",
      "signature": "0xb1b11d2c"
    },
    {
      "constant": true,
      "inputs": [],
      "name": "m_owner",
      "outputs": [
        {
          "name": "",
          "type": "address"
        }
      ],
      "payable": false,
      "stateMutability": "view",
      "type": "function",
      "signature": "0xdeff41c1"
    },
    {
      "constant": false,
      "inputs": [
        {
          "name": "_newOwner",
          "type": "address"
        }
      ],
      "name": "transferOwnership",
      "outputs": [],
      "payable": false,
      "stateMutability": "nonpayable",
      "type": "function",
      "signature": "0xf2fde38b"
    },
    {
      "constant": true,
      "inputs": [],
      "name": "token",
      "outputs": [
        {
          "name": "",
          "type": "address"
        }
      ],
      "payable": false,
      "stateMutability": "view",
      "type": "function",
      "signature": "0xfc0c546a"
    },
    {
      "anonymous": false,
      "inputs": [
        {
          "indexed": false,
          "name": "previousOwner",
          "type": "address"
        },
        {
          "indexed": false,
          "name": "newOwner",
          "type": "address"
        }
      ],
      "name": "OwnershipTransferred",
      "type": "event",
      "signature": "0x8be0079c531659141344cd1fd0a4f28419497f9722a3daafe3b4186f6b6457e0"
    },
    {
      "anonymous": false,
      "inputs": [
        {
          "indexed": false,
          "name": "catid",
          "type": "uint256"
        },
        {
          "indexed": false,
          "name": "name",
          "type": "string"
        },
        {
          "indexed": false,
          "name": "description",
          "type": "string"
        },
        {
          "indexed": false,
          "name": "workClockTimeRef",
          "type": "uint256"
        }
      ],
      "name": "CreateCategory",
      "type": "event",
      "signature": "0x62bf08360c9d561749c54eaf4f8bf8cb6c8b6f4f40607bcec39a8172e714d25c"
    },
    {
      "constant": true,
      "inputs": [
        {
          "name": "_catid",
          "type": "uint256"
        }
      ],
      "name": "viewCategory",
      "outputs": [
        {
          "components": [
            {
              "name": "name",
              "type": "string"
            },
            {
              "name": "description",
              "type": "string"
            },
            {
              "name": "workClockTimeRef",
              "type": "uint256"
            }
          ],
          "name": "",
          "type": "tuple"
        }
      ],
      "payable": false,
      "stateMutability": "view",
      "type": "function",
      "signature": "0x4f5f44ec"
    },
    {
      "constant": true,
      "inputs": [],
      "name": "countCategory",
      "outputs": [
        {
          "name": "",
          "type": "uint256"
        }
      ],
      "payable": false,
      "stateMutability": "view",
      "type": "function",
      "signature": "0xc140996f"
    },
    {
      "constant": false,
      "inputs": [
        {
          "name": "name",
          "type": "string"
        },
        {
          "name": "description",
          "type": "string"
        },
        {
          "name": "workClockTimeRef",
          "type": "uint256"
        }
      ],
      "name": "createCategory",
      "outputs": [
        {
          "name": "",
          "type": "uint256"
        }
      ],
      "payable": false,
      "stateMutability": "nonpayable",
      "type": "function",
      "signature": "0x298503d9"
    }
  ],
  "bytecode": "0x608060405260008054600160a060020a03191633179055610a7d806100256000396000f3fe6080604052600436106100985763ffffffff7c0100000000000000000000000000000000000000000000000000000000600035041663298503d9811461009d57806345b637a9146100d35780634f5f44ec146100f557806390a0f54614610122578063b1b11d2c14610137578063c140996f1461014c578063deff41c114610161578063f2fde38b14610183578063fc0c546a146101a5575b600080fd5b3480156100a957600080fd5b506100bd6100b8366004610719565b6101ba565b6040516100ca919061097f565b60405180910390f35b3480156100df57600080fd5b506100e86102f7565b6040516100ca9190610940565b34801561010157600080fd5b5061011561011036600461079f565b610306565b6040516100ca919061096e565b34801561012e57600080fd5b506100e86104bf565b34801561014357600080fd5b506100e86104ce565b34801561015857600080fd5b506100bd6104dd565b34801561016d57600080fd5b506101766104e4565b6040516100ca9190610911565b34801561018f57600080fd5b506101a361019e3660046106f3565b6104f3565b005b3480156101b157600080fd5b506100e86105c2565b60008054600160a060020a031633146101d257600080fd5b6040805160806020601f89018190040282018101909252606081018781526000926009929182918b908b9081908501838280828437600092019190915250505090825250604080516020601f8a0181900481028201810190925288815291810191908990899081908401838280828437600092018290525093855250505060209182018790528354600181018086559482529082902083518051600390930290910192610284928492909101906105d1565b50602082810151805161029d92600185019201906105d1565b5060408201518160020155505090507f62bf08360c9d561749c54eaf4f8bf8cb6c8b6f4f40607bcec39a8172e714d25c8188888888886040516102e59695949392919061098d565b60405180910390a19695505050505050565b600554600160a060020a031681565b61030e61064f565b6009548210610352576040517f08c379a00000000000000000000000000000000000000000000000000000000081526004016103499061095e565b60405180910390fd5b600980548390811061036057fe5b600091825260209182902060408051600393909302909101805460026001821615610100026000190190911604601f81018590049094028301608090810190925260608301848152929390928492909184918401828280156104035780601f106103d857610100808354040283529160200191610403565b820191906000526020600020905b8154815290600101906020018083116103e657829003601f168201915b50505050508152602001600182018054600181600116156101000203166002900480601f0160208091040260200160405190810160405280929190818152602001828054600181600116156101000203166002900480156104a55780601f1061047a576101008083540402835291602001916104a5565b820191906000526020600020905b81548152906001019060200180831161048857829003601f168201915b505050505081526020016002820154815250509050919050565b600754600160a060020a031681565b600654600160a060020a031681565b6009545b90565b600054600160a060020a031681565b600054600160a060020a0316331461050a57600080fd5b600160a060020a038116151561054c576040517f08c379a00000000000000000000000000000000000000000000000000000000081526004016103499061094e565b6000546040517f8be0079c531659141344cd1fd0a4f28419497f9722a3daafe3b4186f6b6457e09161058b91600160a060020a03909116908490610925565b60405180910390a16000805473ffffffffffffffffffffffffffffffffffffffff1916600160a060020a0392909216919091179055565b600454600160a060020a031681565b828054600181600116156101000203166002900490600052602060002090601f016020900481019282601f1061061257805160ff191683800117855561063f565b8280016001018555821561063f579182015b8281111561063f578251825591602001919060010190610624565b5061064b929150610671565b5090565b6060604051908101604052806060815260200160608152602001600081525090565b6104e191905b8082111561064b5760008155600101610677565b600061069782356109e1565b9392505050565b600080601f830184136106b057600080fd5b50813567ffffffffffffffff8111156106c857600080fd5b6020830191508360018202830111156106e057600080fd5b9250929050565b600061069782356104e1565b60006020828403121561070557600080fd5b6000610711848461068b565b949350505050565b60008060008060006060868803121561073157600080fd5b853567ffffffffffffffff81111561074857600080fd5b6107548882890161069e565b9550955050602086013567ffffffffffffffff81111561077357600080fd5b61077f8882890161069e565b93509350506040610792888289016106e7565b9150509295509295909350565b6000602082840312156107b157600080fd5b600061071184846106e7565b6107c6816109e1565b82525050565b6107c6816109f2565b60008284526020840193506107eb8385846109fd565b6107f483610a39565b9093019392505050565b6000610809826109dd565b80845261081d816020860160208601610a09565b61082681610a39565b9093016020019392505050565b602681527f63616e2774207472616e73666572206f776e65727368697020746f206164647260208201527f6573732830290000000000000000000000000000000000000000000000000000604082015260600190565b600d81527f696e76616c696420636174696400000000000000000000000000000000000000602082015260400190565b80516060808452600091908401906108d182826107fe565b915050602083015184820360208601526108eb82826107fe565b91505060408301516109006040860182610908565b509392505050565b6107c6816104e1565b6020810161091f82846107bd565b92915050565b6040810161093382856107bd565b61069760208301846107bd565b6020810161091f82846107cc565b6020808252810161091f81610833565b6020808252810161091f81610889565b6020808252810161069781846108b9565b6020810161091f8284610908565b6080810161099b8289610908565b81810360208301526109ae8187896107d5565b905081810360408301526109c38185876107d5565b90506109d26060830184610908565b979650505050505050565b5190565b6000600160a060020a03821661091f565b600061091f826109e1565b82818337506000910152565b60005b83811015610a24578181015183820152602001610a0c565b83811115610a33576000848401525b50505050565b601f01601f19169056fea265627a7a72305820600c9688e81c04edc6219e20f4b9d8c9f066448872346c5ec9da5e99a735612d6c6578706572696d656e74616cf50037",
  "source": "pragma solidity ^0.5.0;\npragma experimental ABIEncoderV2;\n\nimport \"../libs/IexecODBLibCore.sol\";\n\nimport \"../IexecStore.sol\";\n\ncontract IexecCategoryManager // make interface\n{\n\tevent CreateCategory(\n\t\tuint256 catid,\n\t\tstring  name,\n\t\tstring  description,\n\t\tuint256 workClockTimeRef);\n\n\tfunction viewCategory  (uint256 _catid                                                             ) external view returns (IexecODBLibCore.Category memory);\n\tfunction countCategory (                                                                           ) external view returns (uint256);\n\tfunction createCategory(string calldata name, string calldata description, uint256 workClockTimeRef) external returns (uint256);\n}\n\ncontract IexecCategoryManagerDelegate is IexecCategoryManager, IexecStore\n{\n\t/**\n\t * Accessors\n\t */\n\tfunction viewCategory(uint256 _catid)\n\texternal view returns (IexecODBLibCore.Category memory)\n\t{\n\t\trequire(_catid < m_categories.length, \"invalid catid\");\n\t\treturn m_categories[_catid];\n\t}\n\n\tfunction countCategory()\n\texternal view returns (uint256)\n\t{\n\t\treturn m_categories.length;\n\t}\n\n\t/**\n\t * Methods\n\t */\n\tfunction createCategory(\n\t\tstring  calldata name,\n\t\tstring  calldata description,\n\t\tuint256          workClockTimeRef)\n\texternal onlyOwner returns (uint256)\n\t{\n\t\tuint256 catid = m_categories.push(IexecODBLibCore.Category(\n\t\t\tname,\n\t\t\tdescription,\n\t\t\tworkClockTimeRef\n\t\t));\n\t\temit CreateCategory(\n\t\t\tcatid,\n\t\t\tname,\n\t\t\tdescription,\n\t\t\tworkClockTimeRef\n\t\t);\n\t\treturn catid;\n\t}\n\n}\n",
  "sourcePath": "/home/amxx/Work/iExec/code/PoCo-dev/contracts/delegate/IexecCategoryManager.sol",
  "compiler": {
    "name": "solc",
    "version": "0.5.0+commit.1d4f565a.Emscripten.clang"
  },
  "schemaVersion": "3.0.1",
  "updatedAt": "2019-01-08T09:34:24.422Z",
  "devdoc": {
    "methods": {
      "transferOwnership(address)": {
        "details": "Allows the current owner to transfer control of the contract to a newOwner.",
        "params": {
          "_newOwner": "The address to transfer ownership to."
        }
      }
    }
  },
  "userdoc": {
    "methods": {
      "createCategory(string,string,uint256)": {
        "notice": "Methods"
      },
      "viewCategory(uint256)": {
        "notice": "Accessors"
      }
    }
  }
}