{
  "contractName": "IexecClerk",
  "abi": [
    {
      "constant": true,
      "inputs": [],
      "name": "EIP712DOMAIN_SEPARATOR",
      "outputs": [
        {
          "name": "",
          "type": "bytes32"
        }
      ],
      "payable": false,
      "stateMutability": "view",
      "type": "function"
    },
    {
      "constant": false,
      "inputs": [
        {
          "name": "_amount",
          "type": "uint256"
        }
      ],
      "name": "withdraw",
      "outputs": [
        {
          "name": "",
          "type": "bool"
        }
      ],
      "payable": false,
      "stateMutability": "nonpayable",
      "type": "function"
    },
    {
      "constant": true,
      "inputs": [],
      "name": "KITTY_RATIO",
      "outputs": [
        {
          "name": "",
          "type": "uint256"
        }
      ],
      "payable": false,
      "stateMutability": "view",
      "type": "function"
    },
    {
      "constant": true,
      "inputs": [
        {
          "name": "_user",
          "type": "address"
        }
      ],
      "name": "viewAccount",
      "outputs": [
        {
          "components": [
            {
              "name": "stake",
              "type": "uint256"
            },
            {
              "name": "locked",
              "type": "uint256"
            }
          ],
          "name": "",
          "type": "tuple"
        }
      ],
      "payable": false,
      "stateMutability": "view",
      "type": "function"
    },
    {
      "constant": true,
      "inputs": [],
      "name": "POOL_STAKE_RATIO",
      "outputs": [
        {
          "name": "",
          "type": "uint256"
        }
      ],
      "payable": false,
      "stateMutability": "view",
      "type": "function"
    },
    {
      "constant": true,
      "inputs": [],
      "name": "iexechub",
      "outputs": [
        {
          "name": "",
          "type": "address"
        }
      ],
      "payable": false,
      "stateMutability": "view",
      "type": "function"
    },
    {
      "constant": true,
      "inputs": [],
      "name": "rlc",
      "outputs": [
        {
          "name": "",
          "type": "address"
        }
      ],
      "payable": false,
      "stateMutability": "view",
      "type": "function"
    },
    {
      "constant": false,
      "inputs": [
        {
          "name": "_amount",
          "type": "uint256"
        }
      ],
      "name": "deposit",
      "outputs": [
        {
          "name": "",
          "type": "bool"
        }
      ],
      "payable": false,
      "stateMutability": "nonpayable",
      "type": "function"
    },
    {
      "constant": true,
      "inputs": [],
      "name": "KITTY_MIN",
      "outputs": [
        {
          "name": "",
          "type": "uint256"
        }
      ],
      "payable": false,
      "stateMutability": "view",
      "type": "function"
    },
    {
      "inputs": [
        {
          "name": "_rlctoken",
          "type": "address"
        },
        {
          "name": "_iexechub",
          "type": "address"
        },
        {
          "name": "_chainid",
          "type": "uint256"
        }
      ],
      "payable": false,
      "stateMutability": "nonpayable",
      "type": "constructor"
    },
    {
      "anonymous": false,
      "inputs": [
        {
          "indexed": false,
          "name": "dealid",
          "type": "bytes32"
        },
        {
          "indexed": false,
          "name": "dappHash",
          "type": "bytes32"
        },
        {
          "indexed": false,
          "name": "dataHash",
          "type": "bytes32"
        },
        {
          "indexed": false,
          "name": "poolHash",
          "type": "bytes32"
        },
        {
          "indexed": false,
          "name": "userHash",
          "type": "bytes32"
        },
        {
          "indexed": false,
          "name": "volume",
          "type": "uint256"
        }
      ],
      "name": "OrdersMatched",
      "type": "event"
    },
    {
      "anonymous": false,
      "inputs": [
        {
          "indexed": false,
          "name": "dappHash",
          "type": "bytes32"
        }
      ],
      "name": "ClosedDappOrder",
      "type": "event"
    },
    {
      "anonymous": false,
      "inputs": [
        {
          "indexed": false,
          "name": "dataHash",
          "type": "bytes32"
        }
      ],
      "name": "ClosedDataOrder",
      "type": "event"
    },
    {
      "anonymous": false,
      "inputs": [
        {
          "indexed": false,
          "name": "poolHash",
          "type": "bytes32"
        }
      ],
      "name": "ClosedPoolOrder",
      "type": "event"
    },
    {
      "anonymous": false,
      "inputs": [
        {
          "indexed": false,
          "name": "userHash",
          "type": "bytes32"
        }
      ],
      "name": "ClosedUserOrder",
      "type": "event"
    },
    {
      "anonymous": false,
      "inputs": [
        {
          "indexed": true,
          "name": "pool",
          "type": "address"
        },
        {
          "indexed": false,
          "name": "dealid",
          "type": "bytes32"
        }
      ],
      "name": "SchedulerNotice",
      "type": "event"
    },
    {
      "anonymous": false,
      "inputs": [
        {
          "indexed": false,
          "name": "owner",
          "type": "address"
        },
        {
          "indexed": false,
          "name": "amount",
          "type": "uint256"
        }
      ],
      "name": "Deposit",
      "type": "event"
    },
    {
      "anonymous": false,
      "inputs": [
        {
          "indexed": false,
          "name": "owner",
          "type": "address"
        },
        {
          "indexed": false,
          "name": "amount",
          "type": "uint256"
        }
      ],
      "name": "Withdraw",
      "type": "event"
    },
    {
      "anonymous": false,
      "inputs": [
        {
          "indexed": false,
          "name": "user",
          "type": "address"
        },
        {
          "indexed": false,
          "name": "amount",
          "type": "uint256"
        }
      ],
      "name": "Reward",
      "type": "event"
    },
    {
      "anonymous": false,
      "inputs": [
        {
          "indexed": false,
          "name": "user",
          "type": "address"
        },
        {
          "indexed": false,
          "name": "amount",
          "type": "uint256"
        }
      ],
      "name": "Seize",
      "type": "event"
    },
    {
      "constant": true,
      "inputs": [
        {
          "name": "_id",
          "type": "bytes32"
        }
      ],
      "name": "viewUserDeals",
      "outputs": [
        {
          "name": "",
          "type": "bytes32[]"
        }
      ],
      "payable": false,
      "stateMutability": "view",
      "type": "function"
    },
    {
      "constant": true,
      "inputs": [
        {
          "name": "_id",
          "type": "bytes32"
        }
      ],
      "name": "viewDeal",
      "outputs": [
        {
          "components": [
            {
              "components": [
                {
                  "name": "pointer",
                  "type": "address"
                },
                {
                  "name": "owner",
                  "type": "address"
                },
                {
                  "name": "price",
                  "type": "uint256"
                }
              ],
              "name": "dapp",
              "type": "tuple"
            },
            {
              "components": [
                {
                  "name": "pointer",
                  "type": "address"
                },
                {
                  "name": "owner",
                  "type": "address"
                },
                {
                  "name": "price",
                  "type": "uint256"
                }
              ],
              "name": "data",
              "type": "tuple"
            },
            {
              "components": [
                {
                  "name": "pointer",
                  "type": "address"
                },
                {
                  "name": "owner",
                  "type": "address"
                },
                {
                  "name": "price",
                  "type": "uint256"
                }
              ],
              "name": "pool",
              "type": "tuple"
            },
            {
              "name": "trust",
              "type": "uint256"
            },
            {
              "name": "tag",
              "type": "uint256"
            },
            {
              "name": "requester",
              "type": "address"
            },
            {
              "name": "beneficiary",
              "type": "address"
            },
            {
              "name": "callback",
              "type": "address"
            },
            {
              "name": "params",
              "type": "string"
            }
          ],
          "name": "",
          "type": "tuple"
        }
      ],
      "payable": false,
      "stateMutability": "view",
      "type": "function"
    },
    {
      "constant": true,
      "inputs": [
        {
          "name": "_id",
          "type": "bytes32"
        }
      ],
      "name": "viewConfig",
      "outputs": [
        {
          "components": [
            {
              "name": "category",
              "type": "uint256"
            },
            {
              "name": "startTime",
              "type": "uint256"
            },
            {
              "name": "botFirst",
              "type": "uint256"
            },
            {
              "name": "botSize",
              "type": "uint256"
            },
            {
              "name": "workerStake",
              "type": "uint256"
            },
            {
              "name": "schedulerRewardRatio",
              "type": "uint256"
            }
          ],
          "name": "",
          "type": "tuple"
        }
      ],
      "payable": false,
      "stateMutability": "view",
      "type": "function"
    },
    {
      "constant": true,
      "inputs": [
        {
          "name": "_id",
          "type": "bytes32"
        }
      ],
      "name": "viewConsumed",
      "outputs": [
        {
          "name": "",
          "type": "uint256"
        }
      ],
      "payable": false,
      "stateMutability": "view",
      "type": "function"
    },
    {
      "constant": true,
      "inputs": [
        {
          "name": "_id",
          "type": "bytes32"
        }
      ],
      "name": "viewPresigned",
      "outputs": [
        {
          "name": "",
          "type": "bool"
        }
      ],
      "payable": false,
      "stateMutability": "view",
      "type": "function"
    },
    {
      "constant": true,
      "inputs": [
        {
          "name": "_restriction",
          "type": "address"
        },
        {
          "name": "_candidate",
          "type": "address"
        },
        {
          "name": "_mask",
          "type": "bytes1"
        }
      ],
      "name": "checkRestriction",
      "outputs": [
        {
          "name": "",
          "type": "bool"
        }
      ],
      "payable": false,
      "stateMutability": "view",
      "type": "function"
    },
    {
      "constant": true,
      "inputs": [
        {
          "name": "_signer",
          "type": "address"
        },
        {
          "name": "_hash",
          "type": "bytes32"
        },
        {
          "components": [
            {
              "name": "v",
              "type": "uint8"
            },
            {
              "name": "r",
              "type": "bytes32"
            },
            {
              "name": "s",
              "type": "bytes32"
            }
          ],
          "name": "_signature",
          "type": "tuple"
        }
      ],
      "name": "verify",
      "outputs": [
        {
          "name": "",
          "type": "bool"
        }
      ],
      "payable": false,
      "stateMutability": "view",
      "type": "function"
    },
    {
      "constant": false,
      "inputs": [
        {
          "components": [
            {
              "name": "dapp",
              "type": "address"
            },
            {
              "name": "dappprice",
              "type": "uint256"
            },
            {
              "name": "volume",
              "type": "uint256"
            },
            {
              "name": "tag",
              "type": "uint256"
            },
            {
              "name": "datarestrict",
              "type": "address"
            },
            {
              "name": "poolrestrict",
              "type": "address"
            },
            {
              "name": "userrestrict",
              "type": "address"
            },
            {
              "name": "salt",
              "type": "bytes32"
            },
            {
              "components": [
                {
                  "name": "v",
                  "type": "uint8"
                },
                {
                  "name": "r",
                  "type": "bytes32"
                },
                {
                  "name": "s",
                  "type": "bytes32"
                }
              ],
              "name": "sign",
              "type": "tuple"
            }
          ],
          "name": "_dapporder",
          "type": "tuple"
        }
      ],
      "name": "signDappOrder",
      "outputs": [
        {
          "name": "",
          "type": "bool"
        }
      ],
      "payable": false,
      "stateMutability": "nonpayable",
      "type": "function"
    },
    {
      "constant": false,
      "inputs": [
        {
          "components": [
            {
              "name": "data",
              "type": "address"
            },
            {
              "name": "dataprice",
              "type": "uint256"
            },
            {
              "name": "volume",
              "type": "uint256"
            },
            {
              "name": "tag",
              "type": "uint256"
            },
            {
              "name": "dapprestrict",
              "type": "address"
            },
            {
              "name": "poolrestrict",
              "type": "address"
            },
            {
              "name": "userrestrict",
              "type": "address"
            },
            {
              "name": "salt",
              "type": "bytes32"
            },
            {
              "components": [
                {
                  "name": "v",
                  "type": "uint8"
                },
                {
                  "name": "r",
                  "type": "bytes32"
                },
                {
                  "name": "s",
                  "type": "bytes32"
                }
              ],
              "name": "sign",
              "type": "tuple"
            }
          ],
          "name": "_dataorder",
          "type": "tuple"
        }
      ],
      "name": "signDataOrder",
      "outputs": [
        {
          "name": "",
          "type": "bool"
        }
      ],
      "payable": false,
      "stateMutability": "nonpayable",
      "type": "function"
    },
    {
      "constant": false,
      "inputs": [
        {
          "components": [
            {
              "name": "pool",
              "type": "address"
            },
            {
              "name": "poolprice",
              "type": "uint256"
            },
            {
              "name": "volume",
              "type": "uint256"
            },
            {
              "name": "tag",
              "type": "uint256"
            },
            {
              "name": "category",
              "type": "uint256"
            },
            {
              "name": "trust",
              "type": "uint256"
            },
            {
              "name": "dapprestrict",
              "type": "address"
            },
            {
              "name": "datarestrict",
              "type": "address"
            },
            {
              "name": "userrestrict",
              "type": "address"
            },
            {
              "name": "salt",
              "type": "bytes32"
            },
            {
              "components": [
                {
                  "name": "v",
                  "type": "uint8"
                },
                {
                  "name": "r",
                  "type": "bytes32"
                },
                {
                  "name": "s",
                  "type": "bytes32"
                }
              ],
              "name": "sign",
              "type": "tuple"
            }
          ],
          "name": "_poolorder",
          "type": "tuple"
        }
      ],
      "name": "signPoolOrder",
      "outputs": [
        {
          "name": "",
          "type": "bool"
        }
      ],
      "payable": false,
      "stateMutability": "nonpayable",
      "type": "function"
    },
    {
      "constant": false,
      "inputs": [
        {
          "components": [
            {
              "name": "dapp",
              "type": "address"
            },
            {
              "name": "dappmaxprice",
              "type": "uint256"
            },
            {
              "name": "data",
              "type": "address"
            },
            {
              "name": "datamaxprice",
              "type": "uint256"
            },
            {
              "name": "pool",
              "type": "address"
            },
            {
              "name": "poolmaxprice",
              "type": "uint256"
            },
            {
              "name": "requester",
              "type": "address"
            },
            {
              "name": "volume",
              "type": "uint256"
            },
            {
              "name": "tag",
              "type": "uint256"
            },
            {
              "name": "category",
              "type": "uint256"
            },
            {
              "name": "trust",
              "type": "uint256"
            },
            {
              "name": "beneficiary",
              "type": "address"
            },
            {
              "name": "callback",
              "type": "address"
            },
            {
              "name": "params",
              "type": "string"
            },
            {
              "name": "salt",
              "type": "bytes32"
            },
            {
              "components": [
                {
                  "name": "v",
                  "type": "uint8"
                },
                {
                  "name": "r",
                  "type": "bytes32"
                },
                {
                  "name": "s",
                  "type": "bytes32"
                }
              ],
              "name": "sign",
              "type": "tuple"
            }
          ],
          "name": "_userorder",
          "type": "tuple"
        }
      ],
      "name": "signUserOrder",
      "outputs": [
        {
          "name": "",
          "type": "bool"
        }
      ],
      "payable": false,
      "stateMutability": "nonpayable",
      "type": "function"
    },
    {
      "constant": false,
      "inputs": [
        {
          "components": [
            {
              "name": "dapp",
              "type": "address"
            },
            {
              "name": "dappprice",
              "type": "uint256"
            },
            {
              "name": "volume",
              "type": "uint256"
            },
            {
              "name": "tag",
              "type": "uint256"
            },
            {
              "name": "datarestrict",
              "type": "address"
            },
            {
              "name": "poolrestrict",
              "type": "address"
            },
            {
              "name": "userrestrict",
              "type": "address"
            },
            {
              "name": "salt",
              "type": "bytes32"
            },
            {
              "components": [
                {
                  "name": "v",
                  "type": "uint8"
                },
                {
                  "name": "r",
                  "type": "bytes32"
                },
                {
                  "name": "s",
                  "type": "bytes32"
                }
              ],
              "name": "sign",
              "type": "tuple"
            }
          ],
          "name": "_dapporder",
          "type": "tuple"
        },
        {
          "components": [
            {
              "name": "data",
              "type": "address"
            },
            {
              "name": "dataprice",
              "type": "uint256"
            },
            {
              "name": "volume",
              "type": "uint256"
            },
            {
              "name": "tag",
              "type": "uint256"
            },
            {
              "name": "dapprestrict",
              "type": "address"
            },
            {
              "name": "poolrestrict",
              "type": "address"
            },
            {
              "name": "userrestrict",
              "type": "address"
            },
            {
              "name": "salt",
              "type": "bytes32"
            },
            {
              "components": [
                {
                  "name": "v",
                  "type": "uint8"
                },
                {
                  "name": "r",
                  "type": "bytes32"
                },
                {
                  "name": "s",
                  "type": "bytes32"
                }
              ],
              "name": "sign",
              "type": "tuple"
            }
          ],
          "name": "_dataorder",
          "type": "tuple"
        },
        {
          "components": [
            {
              "name": "pool",
              "type": "address"
            },
            {
              "name": "poolprice",
              "type": "uint256"
            },
            {
              "name": "volume",
              "type": "uint256"
            },
            {
              "name": "tag",
              "type": "uint256"
            },
            {
              "name": "category",
              "type": "uint256"
            },
            {
              "name": "trust",
              "type": "uint256"
            },
            {
              "name": "dapprestrict",
              "type": "address"
            },
            {
              "name": "datarestrict",
              "type": "address"
            },
            {
              "name": "userrestrict",
              "type": "address"
            },
            {
              "name": "salt",
              "type": "bytes32"
            },
            {
              "components": [
                {
                  "name": "v",
                  "type": "uint8"
                },
                {
                  "name": "r",
                  "type": "bytes32"
                },
                {
                  "name": "s",
                  "type": "bytes32"
                }
              ],
              "name": "sign",
              "type": "tuple"
            }
          ],
          "name": "_poolorder",
          "type": "tuple"
        },
        {
          "components": [
            {
              "name": "dapp",
              "type": "address"
            },
            {
              "name": "dappmaxprice",
              "type": "uint256"
            },
            {
              "name": "data",
              "type": "address"
            },
            {
              "name": "datamaxprice",
              "type": "uint256"
            },
            {
              "name": "pool",
              "type": "address"
            },
            {
              "name": "poolmaxprice",
              "type": "uint256"
            },
            {
              "name": "requester",
              "type": "address"
            },
            {
              "name": "volume",
              "type": "uint256"
            },
            {
              "name": "tag",
              "type": "uint256"
            },
            {
              "name": "category",
              "type": "uint256"
            },
            {
              "name": "trust",
              "type": "uint256"
            },
            {
              "name": "beneficiary",
              "type": "address"
            },
            {
              "name": "callback",
              "type": "address"
            },
            {
              "name": "params",
              "type": "string"
            },
            {
              "name": "salt",
              "type": "bytes32"
            },
            {
              "components": [
                {
                  "name": "v",
                  "type": "uint8"
                },
                {
                  "name": "r",
                  "type": "bytes32"
                },
                {
                  "name": "s",
                  "type": "bytes32"
                }
              ],
              "name": "sign",
              "type": "tuple"
            }
          ],
          "name": "_userorder",
          "type": "tuple"
        }
      ],
      "name": "matchOrders",
      "outputs": [
        {
          "name": "",
          "type": "bytes32"
        }
      ],
      "payable": false,
      "stateMutability": "nonpayable",
      "type": "function"
    },
    {
      "constant": false,
      "inputs": [
        {
          "components": [
            {
              "name": "dapp",
              "type": "address"
            },
            {
              "name": "dappprice",
              "type": "uint256"
            },
            {
              "name": "volume",
              "type": "uint256"
            },
            {
              "name": "tag",
              "type": "uint256"
            },
            {
              "name": "datarestrict",
              "type": "address"
            },
            {
              "name": "poolrestrict",
              "type": "address"
            },
            {
              "name": "userrestrict",
              "type": "address"
            },
            {
              "name": "salt",
              "type": "bytes32"
            },
            {
              "components": [
                {
                  "name": "v",
                  "type": "uint8"
                },
                {
                  "name": "r",
                  "type": "bytes32"
                },
                {
                  "name": "s",
                  "type": "bytes32"
                }
              ],
              "name": "sign",
              "type": "tuple"
            }
          ],
          "name": "_dapporder",
          "type": "tuple"
        }
      ],
      "name": "cancelDappOrder",
      "outputs": [
        {
          "name": "",
          "type": "bool"
        }
      ],
      "payable": false,
      "stateMutability": "nonpayable",
      "type": "function"
    },
    {
      "constant": false,
      "inputs": [
        {
          "components": [
            {
              "name": "data",
              "type": "address"
            },
            {
              "name": "dataprice",
              "type": "uint256"
            },
            {
              "name": "volume",
              "type": "uint256"
            },
            {
              "name": "tag",
              "type": "uint256"
            },
            {
              "name": "dapprestrict",
              "type": "address"
            },
            {
              "name": "poolrestrict",
              "type": "address"
            },
            {
              "name": "userrestrict",
              "type": "address"
            },
            {
              "name": "salt",
              "type": "bytes32"
            },
            {
              "components": [
                {
                  "name": "v",
                  "type": "uint8"
                },
                {
                  "name": "r",
                  "type": "bytes32"
                },
                {
                  "name": "s",
                  "type": "bytes32"
                }
              ],
              "name": "sign",
              "type": "tuple"
            }
          ],
          "name": "_dataorder",
          "type": "tuple"
        }
      ],
      "name": "cancelDataOrder",
      "outputs": [
        {
          "name": "",
          "type": "bool"
        }
      ],
      "payable": false,
      "stateMutability": "nonpayable",
      "type": "function"
    },
    {
      "constant": false,
      "inputs": [
        {
          "components": [
            {
              "name": "pool",
              "type": "address"
            },
            {
              "name": "poolprice",
              "type": "uint256"
            },
            {
              "name": "volume",
              "type": "uint256"
            },
            {
              "name": "tag",
              "type": "uint256"
            },
            {
              "name": "category",
              "type": "uint256"
            },
            {
              "name": "trust",
              "type": "uint256"
            },
            {
              "name": "dapprestrict",
              "type": "address"
            },
            {
              "name": "datarestrict",
              "type": "address"
            },
            {
              "name": "userrestrict",
              "type": "address"
            },
            {
              "name": "salt",
              "type": "bytes32"
            },
            {
              "components": [
                {
                  "name": "v",
                  "type": "uint8"
                },
                {
                  "name": "r",
                  "type": "bytes32"
                },
                {
                  "name": "s",
                  "type": "bytes32"
                }
              ],
              "name": "sign",
              "type": "tuple"
            }
          ],
          "name": "_poolorder",
          "type": "tuple"
        }
      ],
      "name": "cancelPoolOrder",
      "outputs": [
        {
          "name": "",
          "type": "bool"
        }
      ],
      "payable": false,
      "stateMutability": "nonpayable",
      "type": "function"
    },
    {
      "constant": false,
      "inputs": [
        {
          "components": [
            {
              "name": "dapp",
              "type": "address"
            },
            {
              "name": "dappmaxprice",
              "type": "uint256"
            },
            {
              "name": "data",
              "type": "address"
            },
            {
              "name": "datamaxprice",
              "type": "uint256"
            },
            {
              "name": "pool",
              "type": "address"
            },
            {
              "name": "poolmaxprice",
              "type": "uint256"
            },
            {
              "name": "requester",
              "type": "address"
            },
            {
              "name": "volume",
              "type": "uint256"
            },
            {
              "name": "tag",
              "type": "uint256"
            },
            {
              "name": "category",
              "type": "uint256"
            },
            {
              "name": "trust",
              "type": "uint256"
            },
            {
              "name": "beneficiary",
              "type": "address"
            },
            {
              "name": "callback",
              "type": "address"
            },
            {
              "name": "params",
              "type": "string"
            },
            {
              "name": "salt",
              "type": "bytes32"
            },
            {
              "components": [
                {
                  "name": "v",
                  "type": "uint8"
                },
                {
                  "name": "r",
                  "type": "bytes32"
                },
                {
                  "name": "s",
                  "type": "bytes32"
                }
              ],
              "name": "sign",
              "type": "tuple"
            }
          ],
          "name": "_userorder",
          "type": "tuple"
        }
      ],
      "name": "cancelUserOrder",
      "outputs": [
        {
          "name": "",
          "type": "bool"
        }
      ],
      "payable": false,
      "stateMutability": "nonpayable",
      "type": "function"
    },
    {
      "constant": false,
      "inputs": [
        {
          "name": "_worker",
          "type": "address"
        },
        {
          "name": "_amount",
          "type": "uint256"
        }
      ],
      "name": "lockSubscription",
      "outputs": [],
      "payable": false,
      "stateMutability": "nonpayable",
      "type": "function"
    },
    {
      "constant": false,
      "inputs": [
        {
          "name": "_worker",
          "type": "address"
        },
        {
          "name": "_amount",
          "type": "uint256"
        }
      ],
      "name": "unlockSubscription",
      "outputs": [],
      "payable": false,
      "stateMutability": "nonpayable",
      "type": "function"
    },
    {
      "constant": false,
      "inputs": [
        {
          "name": "_dealid",
          "type": "bytes32"
        },
        {
          "name": "_worker",
          "type": "address"
        }
      ],
      "name": "lockContribution",
      "outputs": [],
      "payable": false,
      "stateMutability": "nonpayable",
      "type": "function"
    },
    {
      "constant": false,
      "inputs": [
        {
          "name": "_dealid",
          "type": "bytes32"
        },
        {
          "name": "_worker",
          "type": "address"
        }
      ],
      "name": "unlockContribution",
      "outputs": [],
      "payable": false,
      "stateMutability": "nonpayable",
      "type": "function"
    },
    {
      "constant": false,
      "inputs": [
        {
          "name": "_dealid",
          "type": "bytes32"
        },
        {
          "name": "_worker",
          "type": "address"
        },
        {
          "name": "_amount",
          "type": "uint256"
        }
      ],
      "name": "unlockAndRewardForContribution",
      "outputs": [],
      "payable": false,
      "stateMutability": "nonpayable",
      "type": "function"
    },
    {
      "constant": false,
      "inputs": [
        {
          "name": "_dealid",
          "type": "bytes32"
        },
        {
          "name": "_worker",
          "type": "address"
        }
      ],
      "name": "seizeContribution",
      "outputs": [],
      "payable": false,
      "stateMutability": "nonpayable",
      "type": "function"
    },
    {
      "constant": false,
      "inputs": [
        {
          "name": "_dealid",
          "type": "bytes32"
        },
        {
          "name": "_amount",
          "type": "uint256"
        }
      ],
      "name": "rewardForScheduling",
      "outputs": [],
      "payable": false,
      "stateMutability": "nonpayable",
      "type": "function"
    },
    {
      "constant": false,
      "inputs": [
        {
          "name": "_dealid",
          "type": "bytes32"
        }
      ],
      "name": "successWork",
      "outputs": [],
      "payable": false,
      "stateMutability": "nonpayable",
      "type": "function"
    },
    {
      "constant": false,
      "inputs": [
        {
          "name": "_dealid",
          "type": "bytes32"
        }
      ],
      "name": "failedWork",
      "outputs": [],
      "payable": false,
      "stateMutability": "nonpayable",
      "type": "function"
    }
  ],
  "bytecode": "0x60806040523480156200001157600080fd5b50604051606080620043188339810180604052620000339190810190620001e8565b8183600160a060020a03811615156200004b57600080fd5b60008054600160a060020a031916600160a060020a03928316179055811615156200007557600080fd5b60028054600160a060020a031916600160a060020a03929092169190911790556040805160c0810182526008608082019081527f69457865634f444200000000000000000000000000000000000000000000000060a0830152815281518083018352600981527f332e302d616c706861000000000000000000000000000000000000000000000060208083019190915282015280820183905230606082015290517feca34ccf00000000000000000000000000000000000000000000000000000000815273__IexecODBLibOrders_____________________9163eca34ccf9162000164919060040162000326565b60206040518083038186803b1580156200017d57600080fd5b505af415801562000192573d6000803e3d6000fd5b505050506040513d601f19601f82011682018060405250620001b891908101906200023c565b6003555062000389915050565b6000620001d382516200033d565b9392505050565b6000620001d3825162000349565b600080600060608486031215620001fe57600080fd5b60006200020c8686620001c5565b93505060206200021f86828701620001c5565b92505060406200023286828701620001da565b9150509250925092565b6000602082840312156200024f57600080fd5b60006200025d8484620001da565b949350505050565b62000270816200033d565b82525050565b6000620002838262000339565b808452620002998160208601602086016200034c565b620002a4816200037f565b9093016020019392505050565b8051608080845260009190840190620002cb828262000276565b91505060208301518482036020860152620002e7828262000276565b9150506040830151620002fe60408601826200031b565b50606083015162000313606086018262000265565b509392505050565b620002708162000349565b60208082528101620001d38184620002b1565b5190565b600160a060020a031690565b90565b60005b83811015620003695781810151838201526020016200034f565b8381111562000379576000848401525b50505050565b601f01601f191690565b613f7f80620003996000396000f3006080604052600436106101925763ffffffff60e060020a600035041663047411e781146101975780630d0c233c146101c25780630db73bfe146101e45780632e1a7d4d146102115780634a8e362e146102315780634b2bec8c1461025157806351152de1146102715780635d0c812f1461028657806368c31785146102a65780636b55f4a5146102c65780636eb528b5146102f3578063709ce02b146103135780638372925114610328578063858fb57c1461034857806388044a7d1461036857806389d247a2146103885780638d52e413146103b5578063920d662c146103d75780639b9ac243146103f7578063a2f8886214610417578063ad924a2514610437578063b017c03614610457578063b6b55f251461046c578063b74861b21461048c578063c38da096146104b9578063c3ee9d3b146104d9578063c8d96729146104f9578063d286eb1614610526578063dfafe2d714610546578063e2e7a8c114610566578063e798491a1461057b578063f19f5d851461059b578063f7c801ac146105bb578063fb8d274f146105db575b600080fd5b3480156101a357600080fd5b506101ac6105fb565b6040516101b99190613d5c565b60405180910390f35b3480156101ce57600080fd5b506101e26101dd3660046135ff565b610601565b005b3480156101f057600080fd5b506102046101ff36600461350a565b610639565b6040516101b99190613d4e565b34801561021d57600080fd5b5061020461022c3660046135c3565b610771565b34801561023d57600080fd5b506101e261024c366004613672565b610889565b34801561025d57600080fd5b506101ac61026c3660046135c3565b6108c5565b34801561027d57600080fd5b506101ac6108d7565b34801561029257600080fd5b506101e26102a13660046135c3565b6108dc565b3480156102b257600080fd5b506102046102c136600461372d565b610b06565b3480156102d257600080fd5b506102e66102e1366004613479565b610c8e565b6040516101b99190613e07565b3480156102ff57600080fd5b506101e261030e3660046135ff565b610cc9565b34801561031f57600080fd5b506101ac610cfd565b34801561033457600080fd5b506101e261034336600461362f565b610d02565b34801561035457600080fd5b506101e261036336600461354d565b610d45565b34801561037457600080fd5b506101e26103833660046135c3565b610d66565b34801561039457600080fd5b506103a86103a33660046135c3565b611023565b6040516101b99190613d3d565b3480156103c157600080fd5b506103ca611086565b6040516101b99190613df9565b3480156103e357600080fd5b506102046103f236600461372d565b611095565b34801561040357600080fd5b50610204610412366004613691565b6111f5565b34801561042357600080fd5b50610204610432366004613691565b6112de565b34801561044357600080fd5b50610204610452366004613691565b611455565b34801561046357600080fd5b506103ca61153e565b34801561047857600080fd5b506102046104873660046135c3565b61154d565b34801561049857600080fd5b506104ac6104a73660046135c3565b61165c565b6040516101b99190613e32565b3480156104c557600080fd5b506101e26104d436600461354d565b6117da565b3480156104e557600080fd5b506102046104f43660046134bd565b6117fb565b34801561050557600080fd5b506105196105143660046135c3565b611913565b6040516101b99190613e15565b34801561053257600080fd5b506102046105413660046135c3565b611974565b34801561055257600080fd5b5061020461056136600461374c565b611989565b34801561057257600080fd5b506101ac6119fe565b34801561058757600080fd5b506101e26105963660046135ff565b611a06565b3480156105a757600080fd5b506101ac6105b63660046136b0565b611a3a565b3480156105c757600080fd5b506102046105d636600461374c565b61290c565b3480156105e757600080fd5b506102046105f6366004613691565b612a14565b60035481565b600254600160a060020a0316331461061857600080fd5b600082815260066020526040902060040154610635908290612b8b565b5050565b600354604080517f1901000000000000000000000000000000000000000000000000000000000000602080830191909152602282019390935260428082018690528251808303909101815260629091019182905280516000936001939182918401908083835b602083106106be5780518252601f19909201916020918201910161069f565b51815160209384036101000a60001901801990921691161790526040805192909401829003822089518a8301518b87015160008652949093019586905261070c975090955093909250613dc4565b60206040516020810390808403906000865af1158015610730573d6000803e3d6000fd5b50505060206040510351600160a060020a031684600160a060020a03161480610767575060008381526008602052604090205460ff165b90505b9392505050565b33600090815260016020526040812054610791908363ffffffff612c1516565b33600081815260016020526040808220939093555491517fa9059cbb000000000000000000000000000000000000000000000000000000008152600160a060020a039092169163a9059cbb916107eb918690600401613d22565b602060405180830381600087803b15801561080557600080fd5b505af1158015610819573d6000803e3d6000fd5b505050506040513d601f19601f8201168201806040525061083d9190810190613587565b151561084857600080fd5b7f884edad9ce6fa2440d8a54cc123490eb96d2768479d49ff9c7366125a94243643383604051610879929190613d22565b60405180910390a1506001919050565b600254600160a060020a031633146108a057600080fd5b60008281526005602052604090206007015461063590600160a060020a031682612c2c565b60009081526007602052604090205490565b600a81565b6108e4612e40565b6002546000908190600160a060020a0316331461090057600080fd5b6000848152600560208181526040928390208351610180810185528154600160a060020a0390811661012083019081526001808501548316610140850152600280860154610160860152918452875160608181018a52600387015485168252600487015485168289015297860154818a0152848701528751808801895260068601548416815260078601548416818801526008860154818a015284890152600985015496840196909652600a8401546080840152600b840154821660a0840152600c840154821660c0840152600d84015490911660e0830152600e830180548751601f9782161561010090810260001901909216939093049687018690048602830186019097528582529195929492860193909290830182828015610a665780601f10610a3b57610100808354040283529160200191610a66565b820191906000526020600020905b815481529060010190602001808311610a4957829003601f168201915b5050505050815250509250610aac836040015160400151610aa0856020015160400151866000015160400151612ca390919063ffffffff16565b9063ffffffff612ca316565b6040808501510151909250610ac890601e63ffffffff612cbd16565b9050610ad88360a0015183612ccb565b610aea83604001516020015182612b8b565b610af5600082612c2c565b610b00600082612d4b565b50505050565b6040517f9810b354000000000000000000000000000000000000000000000000000000008152600090819073__IexecODBLibOrders_____________________90639810b35490610b5b908690600401613e43565b60206040518083038186803b158015610b7357600080fd5b505af4158015610b87573d6000803e3d6000fd5b505050506040513d601f19601f82011682018060405250610bab91908101906135e1565b90508260000151600160a060020a031663deff41c16040518163ffffffff1660e060020a028152600401602060405180830381600087803b158015610bef57600080fd5b505af1158015610c03573d6000803e3d6000fd5b505050506040513d601f19601f82011682018060405250610c27919081019061349f565b600160a060020a03163314610c3b57600080fd5b6040808401516000838152600760205282902055517f9d8cdb3b6f54ac32537800a67bba0bc91704893c6ebbc14f42f67fef6d5dfad390610c7d908390613d5c565b60405180910390a150600192915050565b610c96612eba565b50600160a060020a0316600090815260016020818152604092839020835180850190945280548452909101549082015290565b600254600160a060020a03163314610ce057600080fd5b600082815260066020526040902060040154610635908290612ccb565b601e81565b600254600160a060020a03163314610d1957600080fd5b600083815260066020526040902060040154610d36908390612ccb565b610d408282612c2c565b505050565b600254600160a060020a03163314610d5c57600080fd5b6106358282612ccb565b610d6e612e40565b60025460009081908190600160a060020a03163314610d8c57600080fd5b6000858152600560208181526040928390208351610180810185528154600160a060020a0390811661012083019081526001808501548316610140850152600280860154610160860152918452875160608181018a52600387015485168252600487015485168289015297860154818a0152848701528751808801895260068601548416815260078601548416818801526008860154818a015284890152600985015496840196909652600a8401546080840152600b840154821660a0840152600c840154821660c0840152600d84015490911660e0830152600e830180548751601f9782161561010090810260001901909216939093049687018690048602830186019097528582529195929492860193909290830182828015610ef25780601f10610ec757610100808354040283529160200191610ef2565b820191906000526020600020905b815481529060010190602001808311610ed557829003601f168201915b5050505050815250509350610f2c846040015160400151610aa0866020015160400151876000015160400151612ca390919063ffffffff16565b6040808601510151909350610f4890601e63ffffffff612cbd16565b9150610f588460a0015184612b8b565b610f6a84604001516020015183612ccb565b83516020810151604090910151610f819190612c2c565b602084015151600160a060020a031615610faf57610faf846020015160200151856020015160400151612c2c565b610fb96000610c8e565b602001519050600081111561101c57610ffd81610ff1633b9aca00610fe583600a63ffffffff612cbd16565b9063ffffffff612dc816565b9063ffffffff612ddf16565b905061100a600082612b8b565b61101c84604001516020015182612c2c565b5050505050565b60008181526004602090815260409182902080548351818402810184019094528084526060939283018282801561107a57602002820191906000526020600020905b81548152600190910190602001808311611065575b50505050509050919050565b600254600160a060020a031681565b60008160000151600160a060020a031663deff41c16040518163ffffffff1660e060020a028152600401602060405180830381600087803b1580156110d957600080fd5b505af11580156110ed573d6000803e3d6000fd5b505050506040513d601f19601f82011682018060405250611111919081019061349f565b600160a060020a0316331461112557600080fd5b6040517f9810b35400000000000000000000000000000000000000000000000000000000815260019060089060009073__IexecODBLibOrders_____________________90639810b3549061117e908890600401613e43565b60206040518083038186803b15801561119657600080fd5b505af41580156111aa573d6000803e3d6000fd5b505050506040513d601f19601f820116820180604052506111ce91908101906135e1565b81526020810191909152604001600020805460ff1916911515919091179055506001919050565b60008160000151600160a060020a031663deff41c16040518163ffffffff1660e060020a028152600401602060405180830381600087803b15801561123957600080fd5b505af115801561124d573d6000803e3d6000fd5b505050506040513d601f19601f82011682018060405250611271919081019061349f565b600160a060020a0316331461128557600080fd5b6040517f6248b21700000000000000000000000000000000000000000000000000000000815260019060089060009073__IexecODBLibOrders_____________________90636248b2179061117e908890600401613e23565b6040517f6f567cf9000000000000000000000000000000000000000000000000000000008152600090819073__IexecODBLibOrders_____________________90636f567cf990611333908690600401613e23565b60206040518083038186803b15801561134b57600080fd5b505af415801561135f573d6000803e3d6000fd5b505050506040513d601f19601f8201168201806040525061138391908101906135e1565b90508260000151600160a060020a031663deff41c16040518163ffffffff1660e060020a028152600401602060405180830381600087803b1580156113c757600080fd5b505af11580156113db573d6000803e3d6000fd5b505050506040513d601f19601f820116820180604052506113ff919081019061349f565b600160a060020a0316331461141357600080fd5b6040808401516000838152600760205282902055517f7b8ebecbefabdf22486f6714c12cbc538644c194689c3a7bd5e98453a35ebdeb90610c7d908390613d5c565b60008160000151600160a060020a031663deff41c16040518163ffffffff1660e060020a028152600401602060405180830381600087803b15801561149957600080fd5b505af11580156114ad573d6000803e3d6000fd5b505050506040513d601f19601f820116820180604052506114d1919081019061349f565b600160a060020a031633146114e557600080fd5b6040517f6f567cf900000000000000000000000000000000000000000000000000000000815260019060089060009073__IexecODBLibOrders_____________________90636f567cf99061117e908890600401613e23565b600054600160a060020a031681565b600080546040517f23b872dd000000000000000000000000000000000000000000000000000000008152600160a060020a03909116906323b872dd9061159b90339030908790600401613cfa565b602060405180830381600087803b1580156115b557600080fd5b505af11580156115c9573d6000803e3d6000fd5b505050506040513d601f19601f820116820180604052506115ed9190810190613587565b15156115f857600080fd5b33600090815260016020526040902054611618908363ffffffff612ca316565b33600081815260016020526040908190209290925590517fe1fffcc4923d04b559f4d29a8bfc6cda04eb5b0d3c460751c2402c5c5cc9109c91610879918590613d22565b611664612e40565b6000828152600560208181526040928390208351610180810185528154600160a060020a0390811661012083019081526001808501548316610140850152600280860154610160860152918452875160608181018a52600387015485168252600487015485168289015297860154818a0152848701528751808801895260068601548416815260078601548416818801526008860154818a015284890152600985015496840196909652600a8401546080840152600b840154821660a0840152600c840154821660c0840152600d84015490911660e0830152600e830180548751601f97821615610100908102600019019092169390930496870186900486028301860190975285825291959294928601939092908301828280156117ca5780601f1061179f576101008083540402835291602001916117ca565b820191906000526020600020905b8154815290600101906020018083116117ad57829003601f168201915b5050505050815250509050919050565b600254600160a060020a031633146117f157600080fd5b6106358282612d4b565b6000600160a060020a0384161580611824575082600160a060020a031684600160a060020a0316145b8061076757506040517f7ad8f72d0000000000000000000000000000000000000000000000000000000081527fff000000000000000000000000000000000000000000000000000000000000008316908390600160a060020a03871690637ad8f72d90611895908890600401613cc4565b602060405180830381600087803b1580156118af57600080fd5b505af11580156118c3573d6000803e3d6000fd5b505050506040513d601f19601f820116820180604052506118e791908101906135a5565b167fff000000000000000000000000000000000000000000000000000000000000001614949350505050565b61191b612ed1565b50600090815260066020908152604091829020825160c08101845281548152600182015492810192909252600281015492820192909252600382015460608201526004820154608082015260059091015460a082015290565b60009081526008602052604090205460ff1690565b60c0810151600090600160a060020a031633146119a557600080fd5b6040517f6dfd20e500000000000000000000000000000000000000000000000000000000815260019060089060009073__IexecODBLibOrders_____________________90636dfd20e59061117e908890600401613e52565b633b9aca0081565b600254600160a060020a03163314611a1d57600080fd5b600082815260066020526040902060040154610635908290612d4b565b6000611a44612f08565b6000806000808760800151876101200151141515611a6157600080fd5b60a08801516101408801511115611a7757600080fd5b6020808b0151908801511015611a8c57600080fd5b602089015160608801511015611aa157600080fd5b602088015160a08801511015611ab657600080fd5b8760600151198761010001518a606001518c606001511717166000141515611add57600080fd5b89518751600160a060020a03908116911614611af857600080fd5b88516040880151600160a060020a03908116911614611b1657600080fd5b60808701518851611b2c919060f860020a6117fb565b1515611b3757600080fd5b60808a01518951611b4d919060f860020a6117fb565b1515611b5857600080fd5b60a08a01518851611b6e919060f860020a6117fb565b1515611b7957600080fd5b611b938a60c001518860c00151600160f860020a026117fb565b1515611b9e57600080fd5b60808901518a51611bb4919060f860020a6117fb565b1515611bbf57600080fd5b60a08901518851611bd5919060f860020a6117fb565b1515611be057600080fd5b611bfa8960c001518860c00151600160f860020a026117fb565b1515611c0557600080fd5b60c08801518a51611c1b919060f860020a6117fb565b1515611c2657600080fd5b60e08801518951611c3c919060f860020a6117fb565b1515611c4757600080fd5b611c628861010001518860c00151600160f860020a026117fb565b1515611c6d57600080fd5b6002548a518a518a516040517f097d630d000000000000000000000000000000000000000000000000000000008152600160a060020a039094169363097d630d93611cbe9390929091600401613cd2565b602060405180830381600087803b158015611cd857600080fd5b505af1158015611cec573d6000803e3d6000fd5b505050506040513d601f19601f82011682018060405250611d109190810190613587565b1515611d1b57600080fd5b8851600160a060020a0316151560e08601526040517f6f567cf900000000000000000000000000000000000000000000000000000000815273__IexecODBLibOrders_____________________90636f567cf990611d7d908d90600401613e23565b60206040518083038186803b158015611d9557600080fd5b505af4158015611da9573d6000803e3d6000fd5b505050506040513d601f19601f82011682018060405250611dcd91908101906135e1565b85528951604080517fdeff41c10000000000000000000000000000000000000000000000000000000081529051600160a060020a039092169163deff41c1916004808201926020929091908290030181600087803b158015611e2e57600080fd5b505af1158015611e42573d6000803e3d6000fd5b505050506040513d601f19601f82011682018060405250611e66919081019061349f565b600160a060020a03166080860181905285516101008c0151611e89929190610639565b1515611e9457600080fd5b8460e0015115612009576040517f6248b21700000000000000000000000000000000000000000000000000000000815273__IexecODBLibOrders_____________________90636248b21790611eee908c90600401613e23565b60206040518083038186803b158015611f0657600080fd5b505af4158015611f1a573d6000803e3d6000fd5b505050506040513d601f19601f82011682018060405250611f3e91908101906135e1565b6020808701919091528951604080517fdeff41c10000000000000000000000000000000000000000000000000000000081529051600160a060020a039092169263deff41c1926004808401938290030181600087803b158015611fa057600080fd5b505af1158015611fb4573d6000803e3d6000fd5b505050506040513d601f19601f82011682018060405250611fd8919081019061349f565b600160a060020a031660a0860181905260208601516101008b0151611ffe929190610639565b151561200957600080fd5b6040517f9810b35400000000000000000000000000000000000000000000000000000000815273__IexecODBLibOrders_____________________90639810b35490612059908b90600401613e43565b60206040518083038186803b15801561207157600080fd5b505af4158015612085573d6000803e3d6000fd5b505050506040513d601f19601f820116820180604052506120a991908101906135e1565b604080870191909152885181517fdeff41c10000000000000000000000000000000000000000000000000000000081529151600160a060020a039091169163deff41c19160048083019260209291908290030181600087803b15801561210e57600080fd5b505af1158015612122573d6000803e3d6000fd5b505050506040513d601f19601f82011682018060405250612146919081019061349f565b600160a060020a031660c0860181905260408601516101408a015161216c929190610639565b151561217757600080fd5b6040517f6dfd20e500000000000000000000000000000000000000000000000000000000815273__IexecODBLibOrders_____________________90636dfd20e5906121c7908a90600401613e52565b60206040518083038186803b1580156121df57600080fd5b505af41580156121f3573d6000803e3d6000fd5b505050506040513d601f19601f8201168201806040525061221791908101906135e1565b6060860181905260c08801516101e08901516122339290610639565b151561223e57600080fd5b84516000908152600760205260409081902054908b01516122649163ffffffff612c1516565b93508460e0015161227557836122b1565b6020808601516000908152600790915260409081902054908a01516122b1916122a4919063ffffffff612c1516565b859063ffffffff612ddf16565b6040808701516000908152600760205281902054908a01519195506122df916122a49163ffffffff612c1516565b606086015160009081526007602052604090205460e089015191955061230e916122a49163ffffffff612c1516565b93506000841161231d57600080fd5b6060808601516000818152600760209081526040918290205482518083019490945283830152815180840383018152929093019081905281519192909182918401908083835b602083106123825780518252601f199092019160209182019101612363565b6001836020036101000a03801982511681845116808217855250505050505090500191505060405180910390209250600560008460001916600019168152602001908152602001600020915089600001518260000160000160006101000a815481600160a060020a030219169083600160a060020a0316021790555084608001518260000160010160006101000a815481600160a060020a030219169083600160a060020a03160217905550896020015182600001600201819055508460a001518260030160010160006101000a815481600160a060020a030219169083600160a060020a0316021790555088600001518260030160000160006101000a815481600160a060020a030219169083600160a060020a031602179055508460e001516124ae5760006124b4565b88602001515b6005830155875160068301805473ffffffffffffffffffffffffffffffffffffffff19908116600160a060020a039384161790915560c08781015160078601805484169185169190911790556020808c0151600887015560a08c0151600987015560608c0151600a870155908a0151600b8601805484169185169190911790556101608a0151600c8601805484169185169190911790556101808a0151600d8601805490931693169290921790556101a0880151805161257a92600e8601920190612f4c565b5050600082815260066020908152604080832060808b015181554260018201556060880151845260078352818420546002820155600381018790558a5182517fb55e75af0000000000000000000000000000000000000000000000000000000081529251919461265e94600160a060020a039092169363b55e75af936004808301949391928390030190829087803b15801561261557600080fd5b505af1158015612629573d6000803e3d6000fd5b505050506040513d601f19601f8201168201806040525061264d91908101906135e1565b60208a01519063ffffffff612cbd16565b81600401819055508760000151600160a060020a03166387639c686040518163ffffffff1660e060020a028152600401602060405180830381600087803b1580156126a857600080fd5b505af11580156126bc573d6000803e3d6000fd5b505050506040513d601f19601f820116820180604052506126e091908101906135e1565b600582015560608501516000908152600460209081526040808320805460018101825590845282842001869055875183526007909152902054612729908563ffffffff612ca316565b855160009081526007602052604090205560e08501516127719061274e576000612750565b845b6020808801516000908152600790915260409020549063ffffffff612ca316565b6020808701516000908152600790915260408082209290925581870151815220546127a2908563ffffffff612ca316565b6040808701516000908152600760205281812092909255606087015182529020546127d3908563ffffffff612ca316565b6060860151600090815260076020526040902055600b82015460088301546005840154600285015461283593600160a060020a0316926128309289926128249291610aa0919063ffffffff612ca316565b9063ffffffff612dee16565b612d4b565b6007820154600883015461286491600160a060020a03169061283090879061282490601e63ffffffff612cbd16565b6006820154604051600160a060020a03909116907f692ad61076dceddd0f1a861f737553dd61fc8501cf4190d29c4e90af6607f765906128a5908690613d5c565b60405180910390a27fd811b592ed0899225773e8933d8df64bd0b62761a9d7aad4ed5b22735f4610a4838660000151876020015188604001518960600151896040516128f696959493929190613d6a565b60405180910390a1509098975050505050505050565b6040517f6dfd20e5000000000000000000000000000000000000000000000000000000008152600090819073__IexecODBLibOrders_____________________90636dfd20e590612961908690600401613e52565b60206040518083038186803b15801561297957600080fd5b505af415801561298d573d6000803e3d6000fd5b505050506040513d601f19601f820116820180604052506129b191908101906135e1565b60c0840151909150600160a060020a031633146129cd57600080fd5b60e08301516000828152600760205260409081902091909155517fbcb414cf94dea645edd01839a2ffb0873b4c5de2edb7b8f4764e9b3921613f1190610c7d908390613d5c565b6040517f6248b217000000000000000000000000000000000000000000000000000000008152600090819073__IexecODBLibOrders_____________________90636248b21790612a69908690600401613e23565b60206040518083038186803b158015612a8157600080fd5b505af4158015612a95573d6000803e3d6000fd5b505050506040513d601f19601f82011682018060405250612ab991908101906135e1565b90508260000151600160a060020a031663deff41c16040518163ffffffff1660e060020a028152600401602060405180830381600087803b158015612afd57600080fd5b505af1158015612b11573d6000803e3d6000fd5b505050506040513d601f19601f82011682018060405250612b35919081019061349f565b600160a060020a03163314612b4957600080fd5b6040808401516000838152600760205282902055517f0a8c558b1b6592c45f2352aca7c63441b623771b2d1fef0c152c39e3d0e57dd690610c7d908390613d5c565b600160a060020a03821660009081526001602081905260409091200154612bb8908263ffffffff612c1516565b600160a060020a0383166000908152600160208190526040918290200191909155517f4051ba94e08bb094159fc38391422b4b8ccfd2b1f8919c0eb37bb042d4b9cd8e90612c099084908490613d22565b60405180910390a15050565b600082821115612c2157fe5b508082035b92915050565b600160a060020a038216600090815260016020526040902054612c55908263ffffffff612ca316565b600160a060020a0383166000908152600160205260409081902091909155517f619caafabdd75649b302ba8419e48cccf64f37f1983ac4727cfb38b57703ffc990612c099084908490613d22565b600082820183811015612cb257fe5b8091505b5092915050565b600061076a83836064612e19565b600160a060020a03821660009081526001602081905260409091200154612cf8908263ffffffff612c1516565b600160a060020a03831660009081526001602081905260409091209081019190915554612d2b908263ffffffff612ca316565b600160a060020a0390921660009081526001602052604090209190915550565b600160a060020a038216600090815260016020526040902054612d74908263ffffffff612c1516565b600160a060020a03831660009081526001602081905260409091209182550154612da4908263ffffffff612ca316565b600160a060020a039092166000908152600160208190526040909120019190915550565b600081831015612dd8578161076a565b5090919050565b6000818310612dd8578161076a565b600080831515612e015760009150612cb6565b50828202828482811515612e1157fe5b0414612cb257fe5b6000610767612e288585612dee565b836000808284811515612e3757fe5b04949350505050565b6101e060405190810160405280612e55612fca565b8152602001612e62612fca565b8152602001612e6f612fca565b815260200160008152602001600081526020016000600160a060020a031681526020016000600160a060020a031681526020016000600160a060020a03168152602001606081525090565b604080518082019091526000808252602082015290565b60c0604051908101604052806000815260200160008152602001600081526020016000815260200160008152602001600081525090565b6040805161010081018252600080825260208201819052918101829052606081018290526080810182905260a0810182905260c0810182905260e081019190915290565b828054600181600116156101000203166002900490600052602060002090601f016020900481019282601f10612f8d57805160ff1916838001178555612fba565b82800160010185558215612fba579182015b82811115612fba578251825591602001919060010190612f9f565b50612fc6929150612fea565b5090565b604080516060810182526000808252602082018190529181019190915290565b61300491905b80821115612fc65760008155600101612ff0565b90565b600061076a8235613ebc565b600061076a8251613ebc565b600061076a8251613ec8565b600061076a8235613ed3565b600061076a8251613ed3565b600061076a8235613004565b600061076a8251613004565b6000601f8201831361306c57600080fd5b813561307f61307a82613e8a565b613e63565b9150808252602083016020830185838301111561309b57600080fd5b6130a6838284613f03565b50505092915050565b600061016082840312156130c257600080fd5b6130cd610120613e63565b905060006130db8484613007565b82525060206130ec84848301613043565b602083015250604061310084828501613043565b604083015250606061311484828501613043565b606083015250608061312884828501613007565b60808301525060a061313c84828501613007565b60a08301525060c061315084828501613007565b60c08301525060e061316484828501613043565b60e08301525061010061317984828501613412565b6101008301525092915050565b60006101a0828403121561319957600080fd5b6131a4610160613e63565b905060006131b28484613007565b82525060206131c384848301613043565b60208301525060406131d784828501613043565b60408301525060606131eb84828501613043565b60608301525060806131ff84828501613043565b60808301525060a061321384828501613043565b60a08301525060c061322784828501613007565b60c08301525060e061323b84828501613007565b60e08301525061010061325084828501613007565b6101008301525061012061326684828501613043565b6101208301525061014061327c84828501613412565b6101408301525092915050565b6000610240828403121561329c57600080fd5b6132a7610200613e63565b905060006132b58484613007565b82525060206132c684848301613043565b60208301525060406132da84828501613007565b60408301525060606132ee84828501613043565b606083015250608061330284828501613007565b60808301525060a061331684828501613043565b60a08301525060c061332a84828501613007565b60c08301525060e061333e84828501613043565b60e08301525061010061335384828501613043565b6101008301525061012061336984828501613043565b6101208301525061014061337f84828501613043565b6101408301525061016061339584828501613007565b610160830152506101806133ab84828501613007565b610180830152506101a082013567ffffffffffffffff8111156133cd57600080fd5b6133d98482850161305b565b6101a0830152506101c06133ef84828501613043565b6101c0830152506101e061340584828501613412565b6101e08301525092915050565b60006060828403121561342457600080fd5b61342e6060613e63565b9050600061343c848461346d565b825250602061344d84848301613043565b602083015250604061346184828501613043565b60408301525092915050565b600061076a8235613ecd565b60006020828403121561348b57600080fd5b60006134978484613007565b949350505050565b6000602082840312156134b157600080fd5b60006134978484613013565b6000806000606084860312156134d257600080fd5b60006134de8686613007565b93505060206134ef86828701613007565b92505060406135008682870161302b565b9150509250925092565b600080600060a0848603121561351f57600080fd5b600061352b8686613007565b935050602061353c86828701613043565b925050604061350086828701613412565b6000806040838503121561356057600080fd5b600061356c8585613007565b925050602061357d85828601613043565b9150509250929050565b60006020828403121561359957600080fd5b6000613497848461301f565b6000602082840312156135b757600080fd5b60006134978484613037565b6000602082840312156135d557600080fd5b60006134978484613043565b6000602082840312156135f357600080fd5b6000613497848461304f565b6000806040838503121561361257600080fd5b600061361e8585613043565b925050602061357d85828601613007565b60008060006060848603121561364457600080fd5b60006136508686613043565b935050602061366186828701613007565b925050604061350086828701613043565b6000806040838503121561368557600080fd5b600061356c8585613043565b600061016082840312156136a457600080fd5b600061349784846130af565b60008060008061048085870312156136c757600080fd5b60006136d387876130af565b9450506101606136e5878288016130af565b9350506102c06136f787828801613186565b92505061046085013567ffffffffffffffff81111561371557600080fd5b61372187828801613289565b91505092959194509250565b60006101a0828403121561374057600080fd5b60006134978484613186565b60006020828403121561375e57600080fd5b813567ffffffffffffffff81111561377557600080fd5b61349784828501613289565b61378a81613ebc565b82525050565b600061379b82613eb8565b8084526020840193506137ad83613eb2565b60005b828110156137dd576137c38683516137f0565b6137cc82613eb2565b6020969096019591506001016137b0565b5093949350505050565b61378a81613ec8565b61378a81613004565b61378a81613ef8565b600061380d82613eb8565b808452613821816020860160208601613f0f565b61382a81613f3b565b9093016020019392505050565b8051604083019061384884826137f0565b506020820151610b0060208501826137f0565b805160c083019061386c84826137f0565b50602082015161387f60208501826137f0565b50604082015161389260408501826137f0565b5060608201516138a560608501826137f0565b5060808201516138b860808501826137f0565b5060a0820151610b0060a08501826137f0565b80516101608301906138dd8482613781565b5060208201516138f060208501826137f0565b50604082015161390360408501826137f0565b50606082015161391660608501826137f0565b5060808201516139296080850182613781565b5060a082015161393c60a0850182613781565b5060c082015161394f60c0850182613781565b5060e082015161396260e08501826137f0565b50610100820151610b00610100850182613c97565b80516000906101e084019061398c8582613b0f565b50602083015161399f6060860182613b0f565b5060408301516139b260c0860182613b0f565b5060608301516139c66101208601826137f0565b5060808301516139da6101408601826137f0565b5060a08301516139ee610160860182613781565b5060c0830151613a02610180860182613781565b5060e0830151613a166101a0860182613781565b506101008301518482036101c0860152613a308282613802565b95945050505050565b80516101a0830190613a4b8482613781565b506020820151613a5e60208501826137f0565b506040820151613a7160408501826137f0565b506060820151613a8460608501826137f0565b506080820151613a9760808501826137f0565b5060a0820151613aaa60a08501826137f0565b5060c0820151613abd60c0850182613781565b5060e0820151613ad060e0850182613781565b50610100820151613ae5610100850182613781565b50610120820151613afa6101208501826137f0565b50610140820151610b00610140850182613c97565b80516060830190613b208482613781565b506020820151613b336020850182613781565b506040820151610b0060408501826137f0565b8051600090610240840190613b5b8582613781565b506020830151613b6e60208601826137f0565b506040830151613b816040860182613781565b506060830151613b9460608601826137f0565b506080830151613ba76080860182613781565b5060a0830151613bba60a08601826137f0565b5060c0830151613bcd60c0860182613781565b5060e0830151613be060e08601826137f0565b50610100830151613bf56101008601826137f0565b50610120830151613c0a6101208601826137f0565b50610140830151613c1f6101408601826137f0565b50610160830151613c34610160860182613781565b50610180830151613c49610180860182613781565b506101a08301518482036101a0860152613c638282613802565b9150506101c0830151613c7a6101c08601826137f0565b506101e0830151613c8f6101e0860182613c97565b509392505050565b80516060830190613ca88482613cbb565b506020820151613b3360208501826137f0565b61378a81613ecd565b60208101612c268284613781565b60608101613ce08286613781565b613ced6020830185613781565b6134976040830184613781565b60608101613d088286613781565b613d156020830185613781565b61349760408301846137f0565b60408101613d308285613781565b61076a60208301846137f0565b6020808252810161076a8184613790565b60208101612c2682846137e7565b60208101612c2682846137f0565b60c08101613d7882896137f0565b613d8560208301886137f0565b613d9260408301876137f0565b613d9f60608301866137f0565b613dac60808301856137f0565b613db960a08301846137f0565b979650505050505050565b60808101613dd282876137f0565b613ddf6020830186613cbb565b613dec60408301856137f0565b613a3060608301846137f0565b60208101612c2682846137f9565b60408101612c268284613837565b60c08101612c26828461385b565b6101608101612c2682846138cb565b6020808252810161076a8184613977565b6101a08101612c268284613a39565b6020808252810161076a8184613b46565b60405181810167ffffffffffffffff81118282101715613e8257600080fd5b604052919050565b600067ffffffffffffffff821115613ea157600080fd5b506020601f91909101601f19160190565b60200190565b5190565b600160a060020a031690565b151590565b60ff1690565b7fff000000000000000000000000000000000000000000000000000000000000001690565b6000612c2682613ebc565b82818337506000910152565b60005b83811015613f2a578181015183820152602001613f12565b83811115610b005750506000910152565b601f01601f1916905600a265627a7a7230582036abe1f9898b706fe51b114b34972e7721e793d284e484fcb6c3e74035e71b746c6578706572696d656e74616cf50037",
  "source": "pragma solidity ^0.4.25;\npragma experimental ABIEncoderV2;\n\nimport \"./libs/IexecODBLibCore.sol\";\nimport \"./libs/IexecODBLibOrders.sol\";\nimport \"./libs/SafeMathOZ.sol\";\nimport \"./registries/Dapp.sol\";\nimport \"./registries/Data.sol\";\nimport \"./registries/Pool.sol\";\nimport \"./permissions/GroupInterface.sol\";\n\nimport \"./Escrow.sol\";\nimport \"./IexecHubAccessor.sol\";\n\ncontract IexecClerk is Escrow, IexecHubAccessor\n{\n\tusing SafeMathOZ for uint256;\n\tusing IexecODBLibOrders for *;\n\n\t/***************************************************************************\n\t *                                Constants                                *\n\t ***************************************************************************/\n\tuint256 public constant POOL_STAKE_RATIO = 30;\n\tuint256 public constant KITTY_RATIO      = 10;\n\tuint256 public constant KITTY_MIN        = 1000000000; // TODO: 1RLC ?\n\n\t/***************************************************************************\n\t *                            EIP712 signature                             *\n\t ***************************************************************************/\n\tbytes32 public /* immutable */ EIP712DOMAIN_SEPARATOR;\n\n\t/***************************************************************************\n\t *                               Clerk data                                *\n\t ***************************************************************************/\n\tmapping(bytes32 => bytes32[]             ) m_userdeals;\n\tmapping(bytes32 => IexecODBLibCore.Deal  ) m_deals;\n\tmapping(bytes32 => IexecODBLibCore.Config) m_configs;\n\tmapping(bytes32 => uint256               ) m_consumed;\n\tmapping(bytes32 => bool                  ) m_presigned;\n\n\t/***************************************************************************\n\t *                                 Events                                  *\n\t ***************************************************************************/\n\tevent OrdersMatched  (bytes32 dealid,\n\t                      bytes32 dappHash,\n\t                      bytes32 dataHash,\n\t                      bytes32 poolHash,\n\t                      bytes32 userHash,\n\t\t\t\t\t\t\t\t\t\t\t\tuint256 volume);\n\tevent ClosedDappOrder(bytes32 dappHash);\n\tevent ClosedDataOrder(bytes32 dataHash);\n\tevent ClosedPoolOrder(bytes32 poolHash);\n\tevent ClosedUserOrder(bytes32 userHash);\n\n\tevent SchedulerNotice(address indexed pool, bytes32 dealid);\n\n\t/***************************************************************************\n\t *                               Constructor                               *\n\t ***************************************************************************/\n\tconstructor(\n\t\taddress _rlctoken,\n\t\taddress _iexechub,\n\t\tuint256 _chainid)\n\tpublic\n\tEscrow(_rlctoken)\n\tIexecHubAccessor(_iexechub)\n\t{\n\t\tEIP712DOMAIN_SEPARATOR = IexecODBLibOrders.EIP712Domain({\n\t\t\tname:              \"iExecODB\"\n\t\t, version:           \"3.0-alpha\"\n\t\t, chainId:           _chainid\n\t\t, verifyingContract: this\n\t\t}).hash();\n\t}\n\n\t/***************************************************************************\n\t *                                Accessor                                 *\n\t ***************************************************************************/\n\tfunction viewUserDeals(bytes32 _id)\n\tpublic view returns (bytes32[])\n\t{\n\t\treturn m_userdeals[_id];\n\t}\n\n\tfunction viewDeal(bytes32 _id)\n\tpublic view returns (IexecODBLibCore.Deal)\n\t{\n\t\treturn m_deals[_id];\n\t}\n\n\tfunction viewConfig(bytes32 _id)\n\tpublic view returns (IexecODBLibCore.Config)\n\t{\n\t\treturn m_configs[_id];\n\t}\n\n\tfunction viewConsumed(bytes32 _id)\n\tpublic view returns (uint256)\n\t{\n\t\treturn m_consumed[_id];\n\t}\n\n\tfunction viewPresigned(bytes32 _id)\n\tpublic view returns (bool)\n\t{\n\t\treturn m_presigned[_id];\n\t}\n\n\t/***************************************************************************\n\t *                         Enterprise restriction                          *\n\t ***************************************************************************/\n\t/*\n\tfunction isContract(address addr)\n\tpublic view returns (bool)\n\t{\n\t\tassert(false);\n\t\tuint size;\n\t\tassembly { size := extcodesize(addr) }\n\t\treturn size > 0;\n\t}\n\t*/\n\n\t// Fails fail for wrong simple addresses\n\tfunction checkRestriction(address _restriction, address _candidate, bytes1 _mask)\n\tpublic view returns (bool)\n\t{\n\t\treturn _restriction == address(0) // No restriction\n\t\t    || _restriction == _candidate // Simple address\n\t\t    || GroupInterface(_restriction).viewPermissions(_candidate) & _mask == _mask;  // Permission group\n\t}\n\n\t/***************************************************************************\n\t *                       Hashing and signature tools                       *\n\t ***************************************************************************/\n\tfunction verify(\n\t\taddress                     _signer,\n\t\tbytes32                     _hash,\n\t\tIexecODBLibOrders.signature _signature)\n\tpublic view returns (bool)\n\t{\n\t\treturn _signer == ecrecover(\n\t\t\tkeccak256(abi.encodePacked(\"\\x19\\x01\", EIP712DOMAIN_SEPARATOR, _hash)),\n\t\t\t_signature.v,\n\t\t\t_signature.r,\n\t\t\t_signature.s\n\t\t) || m_presigned[_hash];\n\t}\n\n\t/***************************************************************************\n\t *                            pre-signing tools                            *\n\t ***************************************************************************/\n\tfunction signDappOrder(IexecODBLibOrders.DappOrder _dapporder)\n\tpublic returns (bool)\n\t{\n\t\trequire(msg.sender == Dapp(_dapporder.dapp).m_owner());\n\t\tm_presigned[_dapporder.hash()] = true;\n\t\treturn true;\n\t}\n\n\tfunction signDataOrder(IexecODBLibOrders.DataOrder _dataorder)\n\tpublic returns (bool)\n\t{\n\t\trequire(msg.sender == Data(_dataorder.data).m_owner());\n\t\tm_presigned[_dataorder.hash()] = true;\n\t\treturn true;\n\t}\n\n\tfunction signPoolOrder(IexecODBLibOrders.PoolOrder _poolorder)\n\tpublic returns (bool)\n\t{\n\t\trequire(msg.sender == Pool(_poolorder.pool).m_owner());\n\t\tm_presigned[_poolorder.hash()] = true;\n\t\treturn true;\n\t}\n\n\tfunction signUserOrder(IexecODBLibOrders.UserOrder _userorder)\n\tpublic returns (bool)\n\t{\n\t\trequire(msg.sender == _userorder.requester);\n\t\tm_presigned[_userorder.hash()] = true;\n\t\treturn true;\n\t}\n\n\t/***************************************************************************\n\t *                              Clerk methods                              *\n\t ***************************************************************************/\n\tstruct Identities\n\t{\n\t\tbytes32 dappHash;\n\t\tbytes32 dataHash;\n\t\tbytes32 poolHash;\n\t\tbytes32 userHash;\n\t\taddress dappOwner;\n\t\taddress dataOwner;\n\t\taddress poolOwner;\n\t\tbool    hasData;\n\t}\n\n\tfunction matchOrders(\n\t\tIexecODBLibOrders.DappOrder _dapporder,\n\t\tIexecODBLibOrders.DataOrder _dataorder,\n\t\tIexecODBLibOrders.PoolOrder _poolorder,\n\t\tIexecODBLibOrders.UserOrder _userorder)\n\tpublic returns (bytes32)\n\t{\n\t\t/**\n\t\t * Check orders compatibility\n\t\t */\n\n\t\t// computation environment & allowed enough funds\n\t\trequire(_userorder.category     == _poolorder.category );\n\t\trequire(_userorder.trust        <= _poolorder.trust    );\n\t\trequire(_userorder.dappmaxprice >= _dapporder.dappprice);\n\t\trequire(_userorder.datamaxprice >= _dataorder.dataprice);\n\t\trequire(_userorder.poolmaxprice >= _poolorder.poolprice);\n\t\trequire((_dapporder.tag | _dataorder.tag | _userorder.tag) & ~_poolorder.tag == 0x0);\n\n\t\t// Check matching and restrictions\n\t\trequire(_userorder.dapp == _dapporder.dapp);\n\t\trequire(_userorder.data == _dataorder.data);\n\t\trequire(checkRestriction(_userorder.pool,         _poolorder.pool,      0x01 /*IexecPermission.SUBMIT*/ )); // userorder.pool is a restriction\n\t\trequire(checkRestriction(_dapporder.datarestrict, _dataorder.data,      0x01 /*IexecPermission.SUBMIT*/ ));\n\t\trequire(checkRestriction(_dapporder.poolrestrict, _poolorder.pool,      0x01 /*IexecPermission.SUBMIT*/ ));\n\t\trequire(checkRestriction(_dapporder.userrestrict, _userorder.requester, 0x01 /*IexecPermission.SUBMIT*/ ));\n\t\trequire(checkRestriction(_dataorder.dapprestrict, _dapporder.dapp,      0x01 /*IexecPermission.SUBMIT*/ ));\n\t\trequire(checkRestriction(_dataorder.poolrestrict, _poolorder.pool,      0x01 /*IexecPermission.SUBMIT*/ ));\n\t\trequire(checkRestriction(_dataorder.userrestrict, _userorder.requester, 0x01 /*IexecPermission.SUBMIT*/ ));\n\t\trequire(checkRestriction(_poolorder.dapprestrict, _dapporder.dapp,      0x01 /*IexecPermission.SUBMIT*/ ));\n\t\trequire(checkRestriction(_poolorder.datarestrict, _dataorder.data,      0x01 /*IexecPermission.SUBMIT*/ ));\n\t\trequire(checkRestriction(_poolorder.userrestrict, _userorder.requester, 0x01 /*IexecPermission.SUBMIT*/ ));\n\n\t\trequire(iexechub.checkResources(_dapporder.dapp, _dataorder.data, _poolorder.pool));\n\n\t\t/**\n\t\t * Check orders authenticity\n\t\t */\n\t\tIdentities memory ids;\n\t\tids.hasData = _dataorder.data != address(0);\n\n\t\t// dapp\n\t\tids.dappHash  = _dapporder.hash();\n\t\tids.dappOwner = Dapp(_dapporder.dapp).m_owner();\n\t\trequire(verify(ids.dappOwner, ids.dappHash, _dapporder.sign));\n\n\t\t// data\n\t\tif (ids.hasData) // only check if dataset is enabled\n\t\t{\n\t\t\tids.dataHash  = _dataorder.hash();\n\t\t\tids.dataOwner = Data(_dataorder.data).m_owner();\n\t\t\trequire(verify(ids.dataOwner, ids.dataHash, _dataorder.sign));\n\t\t}\n\n\t\t// pool\n\t\tids.poolHash  = _poolorder.hash();\n\t\tids.poolOwner = Pool(_poolorder.pool).m_owner();\n\t\trequire(verify(ids.poolOwner, ids.poolHash, _poolorder.sign));\n\n\t\t// user\n\t\tids.userHash = _userorder.hash();\n\t\trequire(verify(_userorder.requester, ids.userHash, _userorder.sign));\n\n\t\t/**\n\t\t * Check availability\n\t\t */\n\t\t// require(m_consumed[hashes[0]] < _dapporder.volume); // checked by volume\n\t\t// require(m_consumed[hashes[1]] < _dataorder.volume); // checked by volume\n\t\t// require(m_consumed[hashes[2]] < _poolorder.volume); // checked by volume\n\t\t// require(m_consumed[hashes[3]] < _userorder.volume); // checked by volume\n\t\tuint256 volume;\n\t\tvolume =                          _dapporder.volume.sub(m_consumed[ids.dappHash]);\n\t\tvolume = ids.hasData ? volume.min(_dataorder.volume.sub(m_consumed[ids.dataHash])) : volume;\n\t\tvolume =               volume.min(_poolorder.volume.sub(m_consumed[ids.poolHash]));\n\t\tvolume =               volume.min(_userorder.volume.sub(m_consumed[ids.userHash]));\n\t\trequire(volume > 0);\n\n\t\t/**\n\t\t * Record\n\t\t */\n\t\tbytes32 dealid = keccak256(abi.encodePacked(\n\t\t\tids.userHash,            // userHash\n\t\t\tm_consumed[ids.userHash] // idx of first subtask\n\t\t));\n\n\t\tIexecODBLibCore.Deal storage deal = m_deals[dealid];\n\t\tdeal.dapp.pointer = _dapporder.dapp;\n\t\tdeal.dapp.owner   = ids.dappOwner;\n\t\tdeal.dapp.price   = _dapporder.dappprice;\n\t\tdeal.data.owner   = ids.dataOwner;\n\t\tdeal.data.pointer = _dataorder.data;\n\t\tdeal.data.price   = ids.hasData ? _dataorder.dataprice : 0;\n\t\tdeal.pool.pointer = _poolorder.pool;\n\t\tdeal.pool.owner   = ids.poolOwner;\n\t\tdeal.pool.price   = _poolorder.poolprice;\n\t\tdeal.trust        = _poolorder.trust;\n\t\tdeal.tag          = _poolorder.tag;\n\t\tdeal.requester    = _userorder.requester;\n\t\tdeal.beneficiary  = _userorder.beneficiary;\n\t\tdeal.callback     = _userorder.callback;\n\t\tdeal.params       = _userorder.params;\n\n\t\tIexecODBLibCore.Config storage config = m_configs[dealid];\n\t\tconfig.category             = _poolorder.category;\n\t\tconfig.startTime            = now;\n\t\tconfig.botFirst             = m_consumed[ids.userHash];\n\t\tconfig.botSize              = volume;\n\t\tconfig.workerStake          = _poolorder.poolprice.percentage(Pool(_poolorder.pool).m_workerStakeRatioPolicy());\n\t\tconfig.schedulerRewardRatio = Pool(_poolorder.pool).m_schedulerRewardRatioPolicy();\n\n\t\tm_userdeals[ids.userHash].push(dealid);\n\n\t\t/**\n\t\t * Update consumed\n\t\t */\n\t\tm_consumed[ids.dappHash] = m_consumed[ids.dappHash].add(              volume    );\n\t\tm_consumed[ids.dataHash] = m_consumed[ids.dataHash].add(ids.hasData ? volume : 0);\n\t\tm_consumed[ids.poolHash] = m_consumed[ids.poolHash].add(              volume    );\n\t\tm_consumed[ids.userHash] = m_consumed[ids.userHash].add(              volume    );\n\n\t\t/**\n\t\t * Lock\n\t\t */\n\t\tlock(\n\t\t\tdeal.requester,\n\t\t\tdeal.dapp.price\n\t\t\t.add(deal.data.price)\n\t\t\t.add(deal.pool.price)\n\t\t\t.mul(volume)\n\t\t);\n\t\tlock(\n\t\t\tdeal.pool.owner,\n\t\t\tdeal.pool.price\n\t\t\t.percentage(POOL_STAKE_RATIO) // ORDER IS IMPORTANT HERE!\n\t\t\t.mul(volume)                  // ORDER IS IMPORTANT HERE!\n\t\t);\n\n\t\t/**\n\t\t * Advertize deal\n\t\t */\n\t\temit SchedulerNotice(deal.pool.pointer, dealid);\n\n\t\t/**\n\t\t * Advertize consumption\n\t\t */\n\t\temit OrdersMatched(\n\t\t\tdealid,\n\t\t\tids.dappHash,\n\t\t\tids.dataHash,\n\t\t\tids.poolHash,\n\t\t\tids.userHash,\n\t\t\tvolume\n\t\t);\n\n\t\treturn dealid;\n\t}\n\n\tfunction cancelDappOrder(IexecODBLibOrders.DappOrder _dapporder)\n\tpublic returns (bool)\n\t{\n\t\tbytes32 dapporderHash = _dapporder.hash();\n\t\trequire(msg.sender == Dapp(_dapporder.dapp).m_owner());\n\t\t// require(verify(msg.sender, dapporderHash, _dapporder.sign));\n\t\tm_consumed[dapporderHash] = _dapporder.volume;\n\t\temit ClosedDappOrder(dapporderHash);\n\t\treturn true;\n\t}\n\n\tfunction cancelDataOrder(IexecODBLibOrders.DataOrder _dataorder)\n\tpublic returns (bool)\n\t{\n\t\tbytes32 dataorderHash = _dataorder.hash();\n\t\trequire(msg.sender == Data(_dataorder.data).m_owner());\n\t\t// require(verify(msg.sender, dataorderHash, _dataorder.sign));\n\t\tm_consumed[dataorderHash] = _dataorder.volume;\n\t\temit ClosedDataOrder(dataorderHash);\n\t\treturn true;\n\t}\n\n\tfunction cancelPoolOrder(IexecODBLibOrders.PoolOrder _poolorder)\n\tpublic returns (bool)\n\t{\n\t\tbytes32 poolorderHash = _poolorder.hash();\n\t\trequire(msg.sender == Pool(_poolorder.pool).m_owner());\n\t\t// require(verify(msg.sender, poolorderHash, _poolorder.sign));\n\t\tm_consumed[poolorderHash] = _poolorder.volume;\n\t\temit ClosedPoolOrder(poolorderHash);\n\t\treturn true;\n\t}\n\n\tfunction cancelUserOrder(IexecODBLibOrders.UserOrder _userorder)\n\tpublic returns (bool)\n\t{\n\t\tbytes32 userorderHash = _userorder.hash();\n\t\trequire(msg.sender == _userorder.requester);\n\t\t// require(verify(msg.sender, userorderHash, _userorder.sign));\n\t\tm_consumed[userorderHash] = _userorder.volume;\n\t\temit ClosedUserOrder(userorderHash);\n\t\treturn true;\n\t}\n\n\t/***************************************************************************\n\t *                     Escrow overhead for affectation                     *\n\t ***************************************************************************/\n\tfunction lockSubscription  (address _worker, uint256 _amount)\n\tpublic onlyIexecHub\n\t{\n\t\tlock(_worker, _amount);\n\t}\n\n\tfunction unlockSubscription(address _worker, uint256 _amount)\n\tpublic onlyIexecHub\n\t{\n\t\tunlock(_worker, _amount);\n\t}\n\n\t/***************************************************************************\n\t *                    Escrow overhead for contribution                     *\n\t ***************************************************************************/\n\tfunction lockContribution(bytes32 _dealid, address _worker)\n\tpublic onlyIexecHub\n\t{\n\t\tlock(_worker, m_configs[_dealid].workerStake);\n\t}\n\n\tfunction unlockContribution(bytes32 _dealid, address _worker)\n\tpublic onlyIexecHub\n\t{\n\t\tunlock(_worker, m_configs[_dealid].workerStake);\n\t}\n\n\tfunction unlockAndRewardForContribution(bytes32 _dealid, address _worker, uint256 _amount)\n\tpublic onlyIexecHub\n\t{\n\t\tunlock(_worker, m_configs[_dealid].workerStake);\n\t\treward(_worker, _amount);\n\t}\n\n\tfunction seizeContribution(bytes32 _dealid, address _worker)\n\tpublic onlyIexecHub\n\t{\n\t\tseize(_worker, m_configs[_dealid].workerStake);\n\t}\n\n\tfunction rewardForScheduling(bytes32 _dealid, uint256 _amount)\n\tpublic onlyIexecHub\n\t{\n\t\treward(m_deals[_dealid].pool.owner, _amount);\n\t}\n\n\tfunction successWork(bytes32 _dealid)\n\tpublic onlyIexecHub\n\t{\n\t\tIexecODBLibCore.Deal memory deal = m_deals[_dealid];\n\n\t\tuint256 userstake = deal.dapp.price\n\t\t                    .add(deal.data.price)\n\t\t                    .add(deal.pool.price);\n\t\tuint256 poolstake = deal.pool.price\n\t\t                    .percentage(POOL_STAKE_RATIO);\n\n\t\t// seize requester funds\n\t\tseize (deal.requester,  userstake);\n\t\t// unlock pool stake\n\t\tunlock(deal.pool.owner, poolstake);\n\t\t// dapp reward\n\t\treward(deal.dapp.owner, deal.dapp.price);\n\t\t// data reward\n\t\tif (deal.data.pointer != address(0))\n\t\t{\n\t\t\treward(deal.data.owner, deal.data.price);\n\t\t}\n\t\t// pool reward performed by consensus manager\n\n\t\t/**\n\t\t * Retrieve part of the kitty\n\t\t * TODO: remove / keep ?\n\t\t */\n\t\tuint256 kitty = viewAccount(address(0)).locked;\n\t\tif (kitty > 0)\n\t\t{\n\t\t\tkitty = kitty\n\t\t\t        .percentage(KITTY_RATIO) // fraction\n\t\t\t        .max(KITTY_MIN)          // at least this\n\t\t\t        .min(kitty);             // but not more than available\n\t\t\tseize (address(0),      kitty);\n\t\t\treward(deal.pool.owner, kitty);\n\t\t}\n\t}\n\n\tfunction failedWork(bytes32 _dealid)\n\tpublic onlyIexecHub\n\t{\n\t\tIexecODBLibCore.Deal memory deal = m_deals[_dealid];\n\n\t\tuint256 userstake = deal.dapp.price\n\t\t                    .add(deal.data.price)\n\t\t                    .add(deal.pool.price);\n\t\tuint256 poolstake = deal.pool.price\n\t\t                    .percentage(POOL_STAKE_RATIO);\n\n\t\tunlock(deal.requester,  userstake);\n\t\tseize (deal.pool.owner, poolstake);\n\t\treward(address(0),      poolstake); //  Kitty / Burn\n\t\tlock  (address(0),      poolstake); //  Kitty / Burn\n\t}\n\n}\n",
  "sourcePath": "/home/amxx/Work/iExec/code/PoCo-dev/contracts/IexecClerk.sol",
  "compiler": {
    "name": "solc",
    "version": "0.4.25+commit.59dbf8f1.Emscripten.clang"
  },
  "schemaVersion": "3.0.0-beta.1",
  "updatedAt": "2018-11-16T10:57:53.975Z"
}