{
  "contractName": "IexecClerk",
  "abi": [
    {
      "constant": true,
      "inputs": [],
      "name": "EIP712DOMAIN_SEPARATOR",
      "outputs": [
        {
          "name": "",
          "type": "bytes32"
        }
      ],
      "payable": false,
      "stateMutability": "view",
      "type": "function"
    },
    {
      "constant": false,
      "inputs": [
        {
          "name": "_amount",
          "type": "uint256"
        }
      ],
      "name": "withdraw",
      "outputs": [
        {
          "name": "",
          "type": "bool"
        }
      ],
      "payable": false,
      "stateMutability": "nonpayable",
      "type": "function"
    },
    {
      "constant": false,
      "inputs": [
        {
          "name": "_amount",
          "type": "uint256"
        },
        {
          "name": "_target",
          "type": "address"
        }
      ],
      "name": "depositFor",
      "outputs": [
        {
          "name": "",
          "type": "bool"
        }
      ],
      "payable": false,
      "stateMutability": "nonpayable",
      "type": "function"
    },
    {
      "constant": true,
      "inputs": [],
      "name": "WORKERPOOL_STAKE_RATIO",
      "outputs": [
        {
          "name": "",
          "type": "uint256"
        }
      ],
      "payable": false,
      "stateMutability": "view",
      "type": "function"
    },
    {
      "constant": true,
      "inputs": [],
      "name": "KITTY_RATIO",
      "outputs": [
        {
          "name": "",
          "type": "uint256"
        }
      ],
      "payable": false,
      "stateMutability": "view",
      "type": "function"
    },
    {
      "constant": true,
      "inputs": [
        {
          "name": "_user",
          "type": "address"
        }
      ],
      "name": "viewAccount",
      "outputs": [
        {
          "components": [
            {
              "name": "stake",
              "type": "uint256"
            },
            {
              "name": "locked",
              "type": "uint256"
            }
          ],
          "name": "account",
          "type": "tuple"
        }
      ],
      "payable": false,
      "stateMutability": "view",
      "type": "function"
    },
    {
      "constant": true,
      "inputs": [],
      "name": "iexechub",
      "outputs": [
        {
          "name": "",
          "type": "address"
        }
      ],
      "payable": false,
      "stateMutability": "view",
      "type": "function"
    },
    {
      "constant": false,
      "inputs": [
        {
          "name": "_amount",
          "type": "uint256"
        }
      ],
      "name": "deposit",
      "outputs": [
        {
          "name": "",
          "type": "bool"
        }
      ],
      "payable": false,
      "stateMutability": "nonpayable",
      "type": "function"
    },
    {
      "constant": true,
      "inputs": [],
      "name": "KITTY_MIN",
      "outputs": [
        {
          "name": "",
          "type": "uint256"
        }
      ],
      "payable": false,
      "stateMutability": "view",
      "type": "function"
    },
    {
      "constant": true,
      "inputs": [],
      "name": "token",
      "outputs": [
        {
          "name": "",
          "type": "address"
        }
      ],
      "payable": false,
      "stateMutability": "view",
      "type": "function"
    },
    {
      "inputs": [
        {
          "name": "_token",
          "type": "address"
        },
        {
          "name": "_iexechub",
          "type": "address"
        },
        {
          "name": "_chainid",
          "type": "uint256"
        }
      ],
      "payable": false,
      "stateMutability": "nonpayable",
      "type": "constructor"
    },
    {
      "anonymous": false,
      "inputs": [
        {
          "indexed": false,
          "name": "dealid",
          "type": "bytes32"
        },
        {
          "indexed": false,
          "name": "appHash",
          "type": "bytes32"
        },
        {
          "indexed": false,
          "name": "datasetHash",
          "type": "bytes32"
        },
        {
          "indexed": false,
          "name": "workerpoolHash",
          "type": "bytes32"
        },
        {
          "indexed": false,
          "name": "requestHash",
          "type": "bytes32"
        },
        {
          "indexed": false,
          "name": "volume",
          "type": "uint256"
        }
      ],
      "name": "OrdersMatched",
      "type": "event"
    },
    {
      "anonymous": false,
      "inputs": [
        {
          "indexed": false,
          "name": "appHash",
          "type": "bytes32"
        }
      ],
      "name": "ClosedAppOrder",
      "type": "event"
    },
    {
      "anonymous": false,
      "inputs": [
        {
          "indexed": false,
          "name": "datasetHash",
          "type": "bytes32"
        }
      ],
      "name": "ClosedDatasetOrder",
      "type": "event"
    },
    {
      "anonymous": false,
      "inputs": [
        {
          "indexed": false,
          "name": "workerpoolHash",
          "type": "bytes32"
        }
      ],
      "name": "ClosedWorkerpoolOrder",
      "type": "event"
    },
    {
      "anonymous": false,
      "inputs": [
        {
          "indexed": false,
          "name": "requestHash",
          "type": "bytes32"
        }
      ],
      "name": "ClosedRequestOrder",
      "type": "event"
    },
    {
      "anonymous": false,
      "inputs": [
        {
          "indexed": true,
          "name": "workerpool",
          "type": "address"
        },
        {
          "indexed": false,
          "name": "dealid",
          "type": "bytes32"
        }
      ],
      "name": "SchedulerNotice",
      "type": "event"
    },
    {
      "anonymous": false,
      "inputs": [
        {
          "indexed": false,
          "name": "owner",
          "type": "address"
        },
        {
          "indexed": false,
          "name": "amount",
          "type": "uint256"
        }
      ],
      "name": "Deposit",
      "type": "event"
    },
    {
      "anonymous": false,
      "inputs": [
        {
          "indexed": false,
          "name": "owner",
          "type": "address"
        },
        {
          "indexed": false,
          "name": "amount",
          "type": "uint256"
        },
        {
          "indexed": false,
          "name": "target",
          "type": "address"
        }
      ],
      "name": "DepositFor",
      "type": "event"
    },
    {
      "anonymous": false,
      "inputs": [
        {
          "indexed": false,
          "name": "owner",
          "type": "address"
        },
        {
          "indexed": false,
          "name": "amount",
          "type": "uint256"
        }
      ],
      "name": "Withdraw",
      "type": "event"
    },
    {
      "anonymous": false,
      "inputs": [
        {
          "indexed": false,
          "name": "user",
          "type": "address"
        },
        {
          "indexed": false,
          "name": "amount",
          "type": "uint256"
        }
      ],
      "name": "Reward",
      "type": "event"
    },
    {
      "anonymous": false,
      "inputs": [
        {
          "indexed": false,
          "name": "user",
          "type": "address"
        },
        {
          "indexed": false,
          "name": "amount",
          "type": "uint256"
        }
      ],
      "name": "Seize",
      "type": "event"
    },
    {
      "constant": true,
      "inputs": [
        {
          "name": "_id",
          "type": "bytes32"
        }
      ],
      "name": "viewRequestDeals",
      "outputs": [
        {
          "name": "requestdeals",
          "type": "bytes32[]"
        }
      ],
      "payable": false,
      "stateMutability": "view",
      "type": "function"
    },
    {
      "constant": true,
      "inputs": [
        {
          "name": "_id",
          "type": "bytes32"
        }
      ],
      "name": "viewDeal",
      "outputs": [
        {
          "components": [
            {
              "components": [
                {
                  "name": "pointer",
                  "type": "address"
                },
                {
                  "name": "owner",
                  "type": "address"
                },
                {
                  "name": "price",
                  "type": "uint256"
                }
              ],
              "name": "app",
              "type": "tuple"
            },
            {
              "components": [
                {
                  "name": "pointer",
                  "type": "address"
                },
                {
                  "name": "owner",
                  "type": "address"
                },
                {
                  "name": "price",
                  "type": "uint256"
                }
              ],
              "name": "dataset",
              "type": "tuple"
            },
            {
              "components": [
                {
                  "name": "pointer",
                  "type": "address"
                },
                {
                  "name": "owner",
                  "type": "address"
                },
                {
                  "name": "price",
                  "type": "uint256"
                }
              ],
              "name": "workerpool",
              "type": "tuple"
            },
            {
              "name": "trust",
              "type": "uint256"
            },
            {
              "name": "tag",
              "type": "uint256"
            },
            {
              "name": "requester",
              "type": "address"
            },
            {
              "name": "beneficiary",
              "type": "address"
            },
            {
              "name": "callback",
              "type": "address"
            },
            {
              "name": "params",
              "type": "string"
            }
          ],
          "name": "deal",
          "type": "tuple"
        }
      ],
      "payable": false,
      "stateMutability": "view",
      "type": "function"
    },
    {
      "constant": true,
      "inputs": [
        {
          "name": "_id",
          "type": "bytes32"
        }
      ],
      "name": "viewConfig",
      "outputs": [
        {
          "components": [
            {
              "name": "category",
              "type": "uint256"
            },
            {
              "name": "startTime",
              "type": "uint256"
            },
            {
              "name": "botFirst",
              "type": "uint256"
            },
            {
              "name": "botSize",
              "type": "uint256"
            },
            {
              "name": "workerStake",
              "type": "uint256"
            },
            {
              "name": "schedulerRewardRatio",
              "type": "uint256"
            }
          ],
          "name": "config",
          "type": "tuple"
        }
      ],
      "payable": false,
      "stateMutability": "view",
      "type": "function"
    },
    {
      "constant": true,
      "inputs": [
        {
          "name": "_id",
          "type": "bytes32"
        }
      ],
      "name": "viewConsumed",
      "outputs": [
        {
          "name": "consumed",
          "type": "uint256"
        }
      ],
      "payable": false,
      "stateMutability": "view",
      "type": "function"
    },
    {
      "constant": true,
      "inputs": [
        {
          "name": "_id",
          "type": "bytes32"
        }
      ],
      "name": "viewPresigned",
      "outputs": [
        {
          "name": "presigned",
          "type": "bool"
        }
      ],
      "payable": false,
      "stateMutability": "view",
      "type": "function"
    },
    {
      "constant": true,
      "inputs": [
        {
          "name": "_restriction",
          "type": "address"
        },
        {
          "name": "_candidate",
          "type": "address"
        },
        {
          "name": "_mask",
          "type": "bytes1"
        }
      ],
      "name": "checkRestriction",
      "outputs": [
        {
          "name": "",
          "type": "bool"
        }
      ],
      "payable": false,
      "stateMutability": "view",
      "type": "function"
    },
    {
      "constant": true,
      "inputs": [
        {
          "name": "_signer",
          "type": "address"
        },
        {
          "name": "_hash",
          "type": "bytes32"
        },
        {
          "components": [
            {
              "name": "v",
              "type": "uint8"
            },
            {
              "name": "r",
              "type": "bytes32"
            },
            {
              "name": "s",
              "type": "bytes32"
            }
          ],
          "name": "_signature",
          "type": "tuple"
        }
      ],
      "name": "verify",
      "outputs": [
        {
          "name": "",
          "type": "bool"
        }
      ],
      "payable": false,
      "stateMutability": "view",
      "type": "function"
    },
    {
      "constant": false,
      "inputs": [
        {
          "components": [
            {
              "name": "app",
              "type": "address"
            },
            {
              "name": "appprice",
              "type": "uint256"
            },
            {
              "name": "volume",
              "type": "uint256"
            },
            {
              "name": "tag",
              "type": "uint256"
            },
            {
              "name": "datasetrestrict",
              "type": "address"
            },
            {
              "name": "workerpoolrestrict",
              "type": "address"
            },
            {
              "name": "requesterrestrict",
              "type": "address"
            },
            {
              "name": "salt",
              "type": "bytes32"
            },
            {
              "components": [
                {
                  "name": "v",
                  "type": "uint8"
                },
                {
                  "name": "r",
                  "type": "bytes32"
                },
                {
                  "name": "s",
                  "type": "bytes32"
                }
              ],
              "name": "sign",
              "type": "tuple"
            }
          ],
          "name": "_apporder",
          "type": "tuple"
        }
      ],
      "name": "signAppOrder",
      "outputs": [
        {
          "name": "",
          "type": "bool"
        }
      ],
      "payable": false,
      "stateMutability": "nonpayable",
      "type": "function"
    },
    {
      "constant": false,
      "inputs": [
        {
          "components": [
            {
              "name": "dataset",
              "type": "address"
            },
            {
              "name": "datasetprice",
              "type": "uint256"
            },
            {
              "name": "volume",
              "type": "uint256"
            },
            {
              "name": "tag",
              "type": "uint256"
            },
            {
              "name": "apprestrict",
              "type": "address"
            },
            {
              "name": "workerpoolrestrict",
              "type": "address"
            },
            {
              "name": "requesterrestrict",
              "type": "address"
            },
            {
              "name": "salt",
              "type": "bytes32"
            },
            {
              "components": [
                {
                  "name": "v",
                  "type": "uint8"
                },
                {
                  "name": "r",
                  "type": "bytes32"
                },
                {
                  "name": "s",
                  "type": "bytes32"
                }
              ],
              "name": "sign",
              "type": "tuple"
            }
          ],
          "name": "_datasetorder",
          "type": "tuple"
        }
      ],
      "name": "signDatasetOrder",
      "outputs": [
        {
          "name": "",
          "type": "bool"
        }
      ],
      "payable": false,
      "stateMutability": "nonpayable",
      "type": "function"
    },
    {
      "constant": false,
      "inputs": [
        {
          "components": [
            {
              "name": "workerpool",
              "type": "address"
            },
            {
              "name": "workerpoolprice",
              "type": "uint256"
            },
            {
              "name": "volume",
              "type": "uint256"
            },
            {
              "name": "tag",
              "type": "uint256"
            },
            {
              "name": "category",
              "type": "uint256"
            },
            {
              "name": "trust",
              "type": "uint256"
            },
            {
              "name": "apprestrict",
              "type": "address"
            },
            {
              "name": "datasetrestrict",
              "type": "address"
            },
            {
              "name": "requesterrestrict",
              "type": "address"
            },
            {
              "name": "salt",
              "type": "bytes32"
            },
            {
              "components": [
                {
                  "name": "v",
                  "type": "uint8"
                },
                {
                  "name": "r",
                  "type": "bytes32"
                },
                {
                  "name": "s",
                  "type": "bytes32"
                }
              ],
              "name": "sign",
              "type": "tuple"
            }
          ],
          "name": "_workerpoolorder",
          "type": "tuple"
        }
      ],
      "name": "signWorkerpoolOrder",
      "outputs": [
        {
          "name": "",
          "type": "bool"
        }
      ],
      "payable": false,
      "stateMutability": "nonpayable",
      "type": "function"
    },
    {
      "constant": false,
      "inputs": [
        {
          "components": [
            {
              "name": "app",
              "type": "address"
            },
            {
              "name": "appmaxprice",
              "type": "uint256"
            },
            {
              "name": "dataset",
              "type": "address"
            },
            {
              "name": "datasetmaxprice",
              "type": "uint256"
            },
            {
              "name": "workerpool",
              "type": "address"
            },
            {
              "name": "workerpoolmaxprice",
              "type": "uint256"
            },
            {
              "name": "requester",
              "type": "address"
            },
            {
              "name": "volume",
              "type": "uint256"
            },
            {
              "name": "tag",
              "type": "uint256"
            },
            {
              "name": "category",
              "type": "uint256"
            },
            {
              "name": "trust",
              "type": "uint256"
            },
            {
              "name": "beneficiary",
              "type": "address"
            },
            {
              "name": "callback",
              "type": "address"
            },
            {
              "name": "params",
              "type": "string"
            },
            {
              "name": "salt",
              "type": "bytes32"
            },
            {
              "components": [
                {
                  "name": "v",
                  "type": "uint8"
                },
                {
                  "name": "r",
                  "type": "bytes32"
                },
                {
                  "name": "s",
                  "type": "bytes32"
                }
              ],
              "name": "sign",
              "type": "tuple"
            }
          ],
          "name": "_requestorder",
          "type": "tuple"
        }
      ],
      "name": "signRequestOrder",
      "outputs": [
        {
          "name": "",
          "type": "bool"
        }
      ],
      "payable": false,
      "stateMutability": "nonpayable",
      "type": "function"
    },
    {
      "constant": false,
      "inputs": [
        {
          "components": [
            {
              "name": "app",
              "type": "address"
            },
            {
              "name": "appprice",
              "type": "uint256"
            },
            {
              "name": "volume",
              "type": "uint256"
            },
            {
              "name": "tag",
              "type": "uint256"
            },
            {
              "name": "datasetrestrict",
              "type": "address"
            },
            {
              "name": "workerpoolrestrict",
              "type": "address"
            },
            {
              "name": "requesterrestrict",
              "type": "address"
            },
            {
              "name": "salt",
              "type": "bytes32"
            },
            {
              "components": [
                {
                  "name": "v",
                  "type": "uint8"
                },
                {
                  "name": "r",
                  "type": "bytes32"
                },
                {
                  "name": "s",
                  "type": "bytes32"
                }
              ],
              "name": "sign",
              "type": "tuple"
            }
          ],
          "name": "_apporder",
          "type": "tuple"
        },
        {
          "components": [
            {
              "name": "dataset",
              "type": "address"
            },
            {
              "name": "datasetprice",
              "type": "uint256"
            },
            {
              "name": "volume",
              "type": "uint256"
            },
            {
              "name": "tag",
              "type": "uint256"
            },
            {
              "name": "apprestrict",
              "type": "address"
            },
            {
              "name": "workerpoolrestrict",
              "type": "address"
            },
            {
              "name": "requesterrestrict",
              "type": "address"
            },
            {
              "name": "salt",
              "type": "bytes32"
            },
            {
              "components": [
                {
                  "name": "v",
                  "type": "uint8"
                },
                {
                  "name": "r",
                  "type": "bytes32"
                },
                {
                  "name": "s",
                  "type": "bytes32"
                }
              ],
              "name": "sign",
              "type": "tuple"
            }
          ],
          "name": "_datasetorder",
          "type": "tuple"
        },
        {
          "components": [
            {
              "name": "workerpool",
              "type": "address"
            },
            {
              "name": "workerpoolprice",
              "type": "uint256"
            },
            {
              "name": "volume",
              "type": "uint256"
            },
            {
              "name": "tag",
              "type": "uint256"
            },
            {
              "name": "category",
              "type": "uint256"
            },
            {
              "name": "trust",
              "type": "uint256"
            },
            {
              "name": "apprestrict",
              "type": "address"
            },
            {
              "name": "datasetrestrict",
              "type": "address"
            },
            {
              "name": "requesterrestrict",
              "type": "address"
            },
            {
              "name": "salt",
              "type": "bytes32"
            },
            {
              "components": [
                {
                  "name": "v",
                  "type": "uint8"
                },
                {
                  "name": "r",
                  "type": "bytes32"
                },
                {
                  "name": "s",
                  "type": "bytes32"
                }
              ],
              "name": "sign",
              "type": "tuple"
            }
          ],
          "name": "_workerpoolorder",
          "type": "tuple"
        },
        {
          "components": [
            {
              "name": "app",
              "type": "address"
            },
            {
              "name": "appmaxprice",
              "type": "uint256"
            },
            {
              "name": "dataset",
              "type": "address"
            },
            {
              "name": "datasetmaxprice",
              "type": "uint256"
            },
            {
              "name": "workerpool",
              "type": "address"
            },
            {
              "name": "workerpoolmaxprice",
              "type": "uint256"
            },
            {
              "name": "requester",
              "type": "address"
            },
            {
              "name": "volume",
              "type": "uint256"
            },
            {
              "name": "tag",
              "type": "uint256"
            },
            {
              "name": "category",
              "type": "uint256"
            },
            {
              "name": "trust",
              "type": "uint256"
            },
            {
              "name": "beneficiary",
              "type": "address"
            },
            {
              "name": "callback",
              "type": "address"
            },
            {
              "name": "params",
              "type": "string"
            },
            {
              "name": "salt",
              "type": "bytes32"
            },
            {
              "components": [
                {
                  "name": "v",
                  "type": "uint8"
                },
                {
                  "name": "r",
                  "type": "bytes32"
                },
                {
                  "name": "s",
                  "type": "bytes32"
                }
              ],
              "name": "sign",
              "type": "tuple"
            }
          ],
          "name": "_requestorder",
          "type": "tuple"
        }
      ],
      "name": "matchOrders",
      "outputs": [
        {
          "name": "",
          "type": "bytes32"
        }
      ],
      "payable": false,
      "stateMutability": "nonpayable",
      "type": "function"
    },
    {
      "constant": false,
      "inputs": [
        {
          "components": [
            {
              "name": "app",
              "type": "address"
            },
            {
              "name": "appprice",
              "type": "uint256"
            },
            {
              "name": "volume",
              "type": "uint256"
            },
            {
              "name": "tag",
              "type": "uint256"
            },
            {
              "name": "datasetrestrict",
              "type": "address"
            },
            {
              "name": "workerpoolrestrict",
              "type": "address"
            },
            {
              "name": "requesterrestrict",
              "type": "address"
            },
            {
              "name": "salt",
              "type": "bytes32"
            },
            {
              "components": [
                {
                  "name": "v",
                  "type": "uint8"
                },
                {
                  "name": "r",
                  "type": "bytes32"
                },
                {
                  "name": "s",
                  "type": "bytes32"
                }
              ],
              "name": "sign",
              "type": "tuple"
            }
          ],
          "name": "_apporder",
          "type": "tuple"
        }
      ],
      "name": "cancelAppOrder",
      "outputs": [
        {
          "name": "",
          "type": "bool"
        }
      ],
      "payable": false,
      "stateMutability": "nonpayable",
      "type": "function"
    },
    {
      "constant": false,
      "inputs": [
        {
          "components": [
            {
              "name": "dataset",
              "type": "address"
            },
            {
              "name": "datasetprice",
              "type": "uint256"
            },
            {
              "name": "volume",
              "type": "uint256"
            },
            {
              "name": "tag",
              "type": "uint256"
            },
            {
              "name": "apprestrict",
              "type": "address"
            },
            {
              "name": "workerpoolrestrict",
              "type": "address"
            },
            {
              "name": "requesterrestrict",
              "type": "address"
            },
            {
              "name": "salt",
              "type": "bytes32"
            },
            {
              "components": [
                {
                  "name": "v",
                  "type": "uint8"
                },
                {
                  "name": "r",
                  "type": "bytes32"
                },
                {
                  "name": "s",
                  "type": "bytes32"
                }
              ],
              "name": "sign",
              "type": "tuple"
            }
          ],
          "name": "_datasetorder",
          "type": "tuple"
        }
      ],
      "name": "cancelDatasetOrder",
      "outputs": [
        {
          "name": "",
          "type": "bool"
        }
      ],
      "payable": false,
      "stateMutability": "nonpayable",
      "type": "function"
    },
    {
      "constant": false,
      "inputs": [
        {
          "components": [
            {
              "name": "workerpool",
              "type": "address"
            },
            {
              "name": "workerpoolprice",
              "type": "uint256"
            },
            {
              "name": "volume",
              "type": "uint256"
            },
            {
              "name": "tag",
              "type": "uint256"
            },
            {
              "name": "category",
              "type": "uint256"
            },
            {
              "name": "trust",
              "type": "uint256"
            },
            {
              "name": "apprestrict",
              "type": "address"
            },
            {
              "name": "datasetrestrict",
              "type": "address"
            },
            {
              "name": "requesterrestrict",
              "type": "address"
            },
            {
              "name": "salt",
              "type": "bytes32"
            },
            {
              "components": [
                {
                  "name": "v",
                  "type": "uint8"
                },
                {
                  "name": "r",
                  "type": "bytes32"
                },
                {
                  "name": "s",
                  "type": "bytes32"
                }
              ],
              "name": "sign",
              "type": "tuple"
            }
          ],
          "name": "_workerpoolorder",
          "type": "tuple"
        }
      ],
      "name": "cancelWorkerpoolOrder",
      "outputs": [
        {
          "name": "",
          "type": "bool"
        }
      ],
      "payable": false,
      "stateMutability": "nonpayable",
      "type": "function"
    },
    {
      "constant": false,
      "inputs": [
        {
          "components": [
            {
              "name": "app",
              "type": "address"
            },
            {
              "name": "appmaxprice",
              "type": "uint256"
            },
            {
              "name": "dataset",
              "type": "address"
            },
            {
              "name": "datasetmaxprice",
              "type": "uint256"
            },
            {
              "name": "workerpool",
              "type": "address"
            },
            {
              "name": "workerpoolmaxprice",
              "type": "uint256"
            },
            {
              "name": "requester",
              "type": "address"
            },
            {
              "name": "volume",
              "type": "uint256"
            },
            {
              "name": "tag",
              "type": "uint256"
            },
            {
              "name": "category",
              "type": "uint256"
            },
            {
              "name": "trust",
              "type": "uint256"
            },
            {
              "name": "beneficiary",
              "type": "address"
            },
            {
              "name": "callback",
              "type": "address"
            },
            {
              "name": "params",
              "type": "string"
            },
            {
              "name": "salt",
              "type": "bytes32"
            },
            {
              "components": [
                {
                  "name": "v",
                  "type": "uint8"
                },
                {
                  "name": "r",
                  "type": "bytes32"
                },
                {
                  "name": "s",
                  "type": "bytes32"
                }
              ],
              "name": "sign",
              "type": "tuple"
            }
          ],
          "name": "_requestorder",
          "type": "tuple"
        }
      ],
      "name": "cancelRequestOrder",
      "outputs": [
        {
          "name": "",
          "type": "bool"
        }
      ],
      "payable": false,
      "stateMutability": "nonpayable",
      "type": "function"
    },
    {
      "constant": false,
      "inputs": [
        {
          "name": "_dealid",
          "type": "bytes32"
        },
        {
          "name": "_worker",
          "type": "address"
        }
      ],
      "name": "lockContribution",
      "outputs": [],
      "payable": false,
      "stateMutability": "nonpayable",
      "type": "function"
    },
    {
      "constant": false,
      "inputs": [
        {
          "name": "_dealid",
          "type": "bytes32"
        },
        {
          "name": "_worker",
          "type": "address"
        }
      ],
      "name": "unlockContribution",
      "outputs": [],
      "payable": false,
      "stateMutability": "nonpayable",
      "type": "function"
    },
    {
      "constant": false,
      "inputs": [
        {
          "name": "_dealid",
          "type": "bytes32"
        },
        {
          "name": "_worker",
          "type": "address"
        },
        {
          "name": "_amount",
          "type": "uint256"
        }
      ],
      "name": "unlockAndRewardForContribution",
      "outputs": [],
      "payable": false,
      "stateMutability": "nonpayable",
      "type": "function"
    },
    {
      "constant": false,
      "inputs": [
        {
          "name": "_dealid",
          "type": "bytes32"
        },
        {
          "name": "_worker",
          "type": "address"
        }
      ],
      "name": "seizeContribution",
      "outputs": [],
      "payable": false,
      "stateMutability": "nonpayable",
      "type": "function"
    },
    {
      "constant": false,
      "inputs": [
        {
          "name": "_dealid",
          "type": "bytes32"
        },
        {
          "name": "_amount",
          "type": "uint256"
        }
      ],
      "name": "rewardForScheduling",
      "outputs": [],
      "payable": false,
      "stateMutability": "nonpayable",
      "type": "function"
    },
    {
      "constant": false,
      "inputs": [
        {
          "name": "_dealid",
          "type": "bytes32"
        }
      ],
      "name": "successWork",
      "outputs": [],
      "payable": false,
      "stateMutability": "nonpayable",
      "type": "function"
    },
    {
      "constant": false,
      "inputs": [
        {
          "name": "_dealid",
          "type": "bytes32"
        }
      ],
      "name": "failedWork",
      "outputs": [],
      "payable": false,
      "stateMutability": "nonpayable",
      "type": "function"
    }
  ],
  "bytecode": "0x60806040523480156200001157600080fd5b5060405160608062003fb68339810180604052620000339190810190620001d6565b60008054600160a060020a031916600160a060020a03858116919091179091558290811615156200006357600080fd5b60028054600160a060020a031916600160a060020a03929092169190911790556040805160c0810182526008608082019081527f69457865634f444200000000000000000000000000000000000000000000000060a0830152815281518083018352600981527f332e302d616c706861000000000000000000000000000000000000000000000060208083019190915282015280820183905230606082015290517feca34ccf00000000000000000000000000000000000000000000000000000000815273__IexecODBLibOrders_____________________9163eca34ccf9162000152919060040162000314565b60206040518083038186803b1580156200016b57600080fd5b505af415801562000180573d6000803e3d6000fd5b505050506040513d601f19601f82011682018060405250620001a691908101906200022a565b600355506200038a915050565b6000620001c182516200032b565b9392505050565b6000620001c182516200034a565b600080600060608486031215620001ec57600080fd5b6000620001fa8686620001b3565b93505060206200020d86828701620001b3565b92505060406200022086828701620001c8565b9150509250925092565b6000602082840312156200023d57600080fd5b60006200024b8484620001c8565b949350505050565b6200025e816200032b565b82525050565b6000620002718262000327565b808452620002878160208601602086016200034d565b620002928162000380565b9093016020019392505050565b8051608080845260009190840190620002b9828262000264565b91505060208301518482036020860152620002d5828262000264565b9150506040830151620002ec604086018262000309565b50606083015162000301606086018262000253565b509392505050565b6200025e816200034a565b60208082528101620001c181846200029f565b5190565b600062000338826200033e565b92915050565b600160a060020a031690565b90565b60005b838110156200036a57818101518382015260200162000350565b838111156200037a576000848401525b50505050565b601f01601f191690565b613c1c806200039a6000396000f3fe6080604052600436106101875763ffffffff60e060020a600035041663047411e7811461018c5780630d0c233c146101b75780630db73bfe146101d95780632e1a7d4d1461020657806336efd16f146102265780633ec18f361461024657806340e72ce5146102665780634764dfad146102865780634a8e362e146102a65780634b2bec8c146102c65780634ec3b9e3146102e657806351152de1146102fb5780635d0c812f146103105780635e166be71461033057806364102615146103505780636603b7f4146103705780636b55f4a5146103905780636dc2df05146103bd5780636eb528b5146103ea578063837292511461040a57806388044a7d1461042a5780638d52e4131461044a578063b01266e41461046c578063b6b55f251461048c578063b74861b2146104ac578063c3ee9d3b146104d9578063c8d96729146104f9578063d286eb1614610526578063dd40ec8914610546578063e2e7a8c114610566578063e798491a1461057b578063f19f5d851461059b578063fc0c546a146105bb575b600080fd5b34801561019857600080fd5b506101a16105d0565b6040516101ae9190613a1c565b60405180910390f35b3480156101c357600080fd5b506101d76101d2366004613276565b6105d6565b005b3480156101e557600080fd5b506101f96101f43660046131bb565b61060e565b6040516101ae9190613a0e565b34801561021257600080fd5b506101f961022136600461323a565b610712565b34801561023257600080fd5b506101f9610241366004613276565b61082a565b34801561025257600080fd5b506101f96102613660046133bf565b610976565b34801561027257600080fd5b506101f9610281366004613323565b610a7e565b34801561029257600080fd5b506101f96102a1366004613323565b610bf3565b3480156102b257600080fd5b506101d76102c13660046132f3565b610d51565b3480156102d257600080fd5b506101a16102e136600461323a565b610d8d565b3480156102f257600080fd5b506101a1610d9f565b34801561030757600080fd5b506101a1610da4565b34801561031c57600080fd5b506101d761032b36600461323a565b610da9565b34801561033c57600080fd5b506101f961034b366004613323565b610e6e565b34801561035c57600080fd5b506101f961036b3660046133bf565b610f55565b34801561037c57600080fd5b506101f961038b366004613323565b610fca565b34801561039c57600080fd5b506103b06103ab366004613132565b61113f565b6040516101ae9190613a92565b3480156103c957600080fd5b506103dd6103d836600461323a565b61117a565b6040516101ae91906139fd565b3480156103f657600080fd5b506101d7610405366004613276565b6111dc565b34801561041657600080fd5b506101d76104253660046132b0565b611210565b34801561043657600080fd5b506101d761044536600461323a565b611253565b34801561045657600080fd5b5061045f6113b9565b6040516101ae9190613a84565b34801561047857600080fd5b506101f96104873660046133f4565b6113c8565b34801561049857600080fd5b506101f96104a736600461323a565b61153d565b3480156104b857600080fd5b506104cc6104c736600461323a565b61164c565b6040516101ae9190613abd565b3480156104e557600080fd5b506101f96104f436600461316e565b6117c9565b34801561050557600080fd5b5061051961051436600461323a565b6118df565b6040516101ae9190613aaf565b34801561053257600080fd5b506101f961054136600461323a565b611940565b34801561055257600080fd5b506101f96105613660046133f4565b611955565b34801561057257600080fd5b506101a1611a3c565b34801561058757600080fd5b506101d7610596366004613276565b611a44565b3480156105a757600080fd5b506101a16105b6366004613342565b611a78565b3480156105c757600080fd5b5061045f612848565b60035481565b600254600160a060020a031633146105ed57600080fd5b60008281526006602052604090206004015461060a908290612857565b5050565b600060016003548460405160200180807f1901000000000000000000000000000000000000000000000000000000000000815250600201838152602001828152602001925050506040516020818303038152906040528051906020012083600001518460200151856040015160405160008152602001604052604051808581526020018460ff1660ff1681526020018381526020018281526020019450505050506020604051602081039080840390855afa1580156106d1573d6000803e3d6000fd5b50505060206040510351600160a060020a031684600160a060020a03161480610708575060008381526008602052604090205460ff165b90505b9392505050565b33600090815260016020526040812054610732908363ffffffff6128e116565b33600081815260016020526040808220939093555491517fa9059cbb000000000000000000000000000000000000000000000000000000008152600160a060020a039092169163a9059cbb9161078c918690600401613991565b602060405180830381600087803b1580156107a657600080fd5b505af11580156107ba573d6000803e3d6000fd5b505050506040513d601f19601f820116820180604052506107de91908101906131fe565b15156107e957600080fd5b7f884edad9ce6fa2440d8a54cc123490eb96d2768479d49ff9c7366125a9424364338360405161081a929190613991565b60405180910390a1506001919050565b6000600160a060020a038216151561084157600080fd5b6000546040517f23b872dd000000000000000000000000000000000000000000000000000000008152600160a060020a03909116906323b872dd9061088e90339030908890600401613969565b602060405180830381600087803b1580156108a857600080fd5b505af11580156108bc573d6000803e3d6000fd5b505050506040513d601f19601f820116820180604052506108e091908101906131fe565b15156108eb57600080fd5b600160a060020a038216600090815260016020526040902054610914908463ffffffff6128f316565b600160a060020a0383166000908152600160205260409081902091909155517fcce62bfcdb09eddbe4e5ff5ec3bafdbabc25a52e1cf34f014a0a7a0864f9634c90610964903390869086906139ac565b60405180910390a15060015b92915050565b6040517f0813424e000000000000000000000000000000000000000000000000000000008152600090819073__IexecODBLibOrders_____________________90630813424e906109cb908690600401613ace565b60206040518083038186803b1580156109e357600080fd5b505af41580156109f7573d6000803e3d6000fd5b505050506040513d601f19601f82011682018060405250610a1b9190810190613258565b60c0840151909150600160a060020a03163314610a3757600080fd5b60e08301516000828152600760205260409081902091909155517f582f43f2a741cbe708aae3b8d38a4efc3d09d7e81919697b3ca693f4c444cc0590610964908390613a1c565b6040517f2bd4c734000000000000000000000000000000000000000000000000000000008152600090819073__IexecODBLibOrders_____________________90632bd4c73490610ad3908690600401613aa0565b60206040518083038186803b158015610aeb57600080fd5b505af4158015610aff573d6000803e3d6000fd5b505050506040513d601f19601f82011682018060405250610b239190810190613258565b90508260000151600160a060020a031663deff41c16040518163ffffffff1660e060020a02815260040160206040518083038186803b158015610b6557600080fd5b505afa158015610b79573d6000803e3d6000fd5b505050506040513d601f19601f82011682018060405250610b9d9190810190613150565b600160a060020a03163314610bb157600080fd5b6040808401516000838152600760205282902055517fcf52e3228bc482a6656d8ab56c09888b1c5bf6aaadba0185e96a34836f2bb1d490610964908390613a1c565b60008160000151600160a060020a031663deff41c16040518163ffffffff1660e060020a02815260040160206040518083038186803b158015610c3557600080fd5b505afa158015610c49573d6000803e3d6000fd5b505050506040513d601f19601f82011682018060405250610c6d9190810190613150565b600160a060020a03163314610c8157600080fd5b6040517f2bd4c73400000000000000000000000000000000000000000000000000000000815260019060089060009073__IexecODBLibOrders_____________________90632bd4c73490610cda908890600401613aa0565b60206040518083038186803b158015610cf257600080fd5b505af4158015610d06573d6000803e3d6000fd5b505050506040513d601f19601f82011682018060405250610d2a9190810190613258565b81526020810191909152604001600020805460ff1916911515919091179055506001919050565b600254600160a060020a03163314610d6857600080fd5b60008281526005602052604090206007015461060a90600160a060020a031682612902565b60009081526007602052604090205490565b601e81565b600a81565b600254600160a060020a03163314610dc057600080fd5b600081815260056020819052604082206008810154918101546002820154919392610e03929091610df7919063ffffffff6128f316565b9063ffffffff6128f316565b6008830154909150600090610e1f90601e63ffffffff61297916565b600b840154909150610e3a90600160a060020a031683612987565b6007830154610e5290600160a060020a031682612857565b610e5d600082612902565b610e68600082612a07565b50505050565b60008160000151600160a060020a031663deff41c16040518163ffffffff1660e060020a02815260040160206040518083038186803b158015610eb057600080fd5b505afa158015610ec4573d6000803e3d6000fd5b505050506040513d601f19601f82011682018060405250610ee89190810190613150565b600160a060020a03163314610efc57600080fd5b6040517f0495132900000000000000000000000000000000000000000000000000000000815260019060089060009073__IexecODBLibOrders_____________________90630495132990610cda908890600401613aa0565b60c0810151600090600160a060020a03163314610f7157600080fd5b6040517f0813424e00000000000000000000000000000000000000000000000000000000815260019060089060009073__IexecODBLibOrders_____________________90630813424e90610cda908890600401613ace565b6040517f04951329000000000000000000000000000000000000000000000000000000008152600090819073__IexecODBLibOrders_____________________9063049513299061101f908690600401613aa0565b60206040518083038186803b15801561103757600080fd5b505af415801561104b573d6000803e3d6000fd5b505050506040513d601f19601f8201168201806040525061106f9190810190613258565b90508260000151600160a060020a031663deff41c16040518163ffffffff1660e060020a02815260040160206040518083038186803b1580156110b157600080fd5b505afa1580156110c5573d6000803e3d6000fd5b505050506040513d601f19601f820116820180604052506110e99190810190613150565b600160a060020a031633146110fd57600080fd5b6040808401516000838152600760205282902055517f7343f75be43aba524f85326508cd975d016ef7884676377366c69a7c32e3066890610964908390613a1c565b611147612af9565b50600160a060020a0316600090815260016020818152604092839020835180850190945280548452909101549082015290565b6000818152600460209081526040918290208054835181840281018401909452808452606093928301828280156111d057602002820191906000526020600020905b8154815260200190600101908083116111bc575b50505050509050919050565b600254600160a060020a031633146111f357600080fd5b60008281526006602052604090206004015461060a908290612987565b600254600160a060020a0316331461122757600080fd5b600083815260066020526040902060040154611244908390612987565b61124e8282612902565b505050565b600254600160a060020a0316331461126a57600080fd5b6000818152600560208190526040822060088101549181015460028201549193926112a1929091610df7919063ffffffff6128f316565b60088301549091506000906112bd90601e63ffffffff61297916565b600b8401549091506112d890600160a060020a031683612857565b60078301546112f090600160a060020a031682612987565b6001830154600284015461130d91600160a060020a031690612902565b6003830154600160a060020a03161561133d576004830154600584015461133d91600160a060020a031690612902565b6000611349600061113f565b60200151905060008111156113b25761138d81611381633b9aca0061137583600a63ffffffff61297916565b9063ffffffff612a8416565b9063ffffffff612a9b16565b905061139a600082612857565b60078401546113b290600160a060020a031682612902565b5050505050565b600254600160a060020a031681565b6040517f58b50586000000000000000000000000000000000000000000000000000000008152600090819073__IexecODBLibOrders_____________________906358b505869061141d908690600401613adf565b60206040518083038186803b15801561143557600080fd5b505af4158015611449573d6000803e3d6000fd5b505050506040513d601f19601f8201168201806040525061146d9190810190613258565b90508260000151600160a060020a031663deff41c16040518163ffffffff1660e060020a02815260040160206040518083038186803b1580156114af57600080fd5b505afa1580156114c3573d6000803e3d6000fd5b505050506040513d601f19601f820116820180604052506114e79190810190613150565b600160a060020a031633146114fb57600080fd5b6040808401516000838152600760205282902055517f145ad51e4496173bca15e24e7eb46f9ab3a10eea0497e2801a3a6806c06113a390610964908390613a1c565b600080546040517f23b872dd000000000000000000000000000000000000000000000000000000008152600160a060020a03909116906323b872dd9061158b90339030908790600401613969565b602060405180830381600087803b1580156115a557600080fd5b505af11580156115b9573d6000803e3d6000fd5b505050506040513d601f19601f820116820180604052506115dd91908101906131fe565b15156115e857600080fd5b33600090815260016020526040902054611608908363ffffffff6128f316565b33600081815260016020526040908190209290925590517fe1fffcc4923d04b559f4d29a8bfc6cda04eb5b0d3c460751c2402c5c5cc9109c9161081a918590613991565b611654612b10565b6000828152600560208181526040928390208351610180810185528154600160a060020a0390811661012083019081526001808501548316610140850152600280860154610160860152918452875160608082018a52600387015485168252600487015485168289015297860154818a0152848701528751808801895260068601548416815260078601548416818801526008860154818a015284890152600985015496840196909652600a8401546080840152600b840154821660a0840152600c840154821660c0840152600d84015490911660e0830152600e830180548751968116156101009081026000190190911692909204601f810186900486028701860190975286865291959294908601939092908301828280156117b95780601f1061178e576101008083540402835291602001916117b9565b820191906000526020600020905b81548152906001019060200180831161179c57829003601f168201915b5050505050815250509050919050565b6000600160a060020a03841615806117f2575082600160a060020a031684600160a060020a0316145b8061070857506040517f7ad8f72d0000000000000000000000000000000000000000000000000000000081527fff000000000000000000000000000000000000000000000000000000000000008316908390600160a060020a03871690637ad8f72d9061186390889060040161395b565b60206040518083038186803b15801561187b57600080fd5b505afa15801561188f573d6000803e3d6000fd5b505050506040513d601f19601f820116820180604052506118b3919081019061321c565b167fff000000000000000000000000000000000000000000000000000000000000001614949350505050565b6118e7612b8a565b50600090815260066020908152604091829020825160c08101845281548152600182015492810192909252600281015492820192909252600382015460608201526004820154608082015260059091015460a082015290565b60009081526008602052604090205460ff1690565b60008160000151600160a060020a031663deff41c16040518163ffffffff1660e060020a02815260040160206040518083038186803b15801561199757600080fd5b505afa1580156119ab573d6000803e3d6000fd5b505050506040513d601f19601f820116820180604052506119cf9190810190613150565b600160a060020a031633146119e357600080fd5b6040517f58b5058600000000000000000000000000000000000000000000000000000000815260019060089060009073__IexecODBLibOrders_____________________906358b5058690610cda908890600401613adf565b633b9aca0081565b600254600160a060020a03163314611a5b57600080fd5b60008281526006602052604090206004015461060a908290612a07565b608082015161012082015160009114611a9057600080fd5b60a08301516101408301511115611aa657600080fd5b602080860151908301511015611abb57600080fd5b602084015160608301511015611ad057600080fd5b602083015160a08301511015611ae557600080fd5b826060015119826101000151856060015187606001511717166000141515611b0c57600080fd5b84518251600160a060020a03908116911614611b2757600080fd5b83516040830151600160a060020a03908116911614611b4557600080fd5b60808201518351611b5b919060f860020a6117c9565b1515611b6657600080fd5b60808501518451611b7c919060f860020a6117c9565b1515611b8757600080fd5b60a08501518351611b9d919060f860020a6117c9565b1515611ba857600080fd5b611bc28560c001518360c00151600160f860020a026117c9565b1515611bcd57600080fd5b60808401518551611be3919060f860020a6117c9565b1515611bee57600080fd5b60a08401518351611c04919060f860020a6117c9565b1515611c0f57600080fd5b611c298460c001518360c00151600160f860020a026117c9565b1515611c3457600080fd5b60c08301518551611c4a919060f860020a6117c9565b1515611c5557600080fd5b60e08301518451611c6b919060f860020a6117c9565b1515611c7657600080fd5b611c918361010001518360c00151600160f860020a026117c9565b1515611c9c57600080fd5b6002548551855185516040517f097d630d000000000000000000000000000000000000000000000000000000008152600160a060020a039094169363097d630d93611ced93909290916004016139d4565b60206040518083038186803b158015611d0557600080fd5b505afa158015611d19573d6000803e3d6000fd5b505050506040513d601f19601f82011682018060405250611d3d91908101906131fe565b1515611d4857600080fd5b611d50612bc1565b8451600160a060020a0316151560e08201526040517f0495132900000000000000000000000000000000000000000000000000000000815273__IexecODBLibOrders_____________________90630495132990611db2908990600401613aa0565b60206040518083038186803b158015611dca57600080fd5b505af4158015611dde573d6000803e3d6000fd5b505050506040513d601f19601f82011682018060405250611e029190810190613258565b8160000181815250508560000151600160a060020a031663deff41c16040518163ffffffff1660e060020a02815260040160206040518083038186803b158015611e4b57600080fd5b505afa158015611e5f573d6000803e3d6000fd5b505050506040513d601f19601f82011682018060405250611e839190810190613150565b600160a060020a0316602082018190528151610100880151611ea692919061060e565b1515611eb157600080fd5b8060e001511561200d576040517f2bd4c73400000000000000000000000000000000000000000000000000000000815273__IexecODBLibOrders_____________________90632bd4c73490611f0b908890600401613aa0565b60206040518083038186803b158015611f2357600080fd5b505af4158015611f37573d6000803e3d6000fd5b505050506040513d601f19601f82011682018060405250611f5b9190810190613258565b8160400181815250508460000151600160a060020a031663deff41c16040518163ffffffff1660e060020a02815260040160206040518083038186803b158015611fa457600080fd5b505afa158015611fb8573d6000803e3d6000fd5b505050506040513d601f19601f82011682018060405250611fdc9190810190613150565b600160a060020a031660608201819052604082015161010087015161200292919061060e565b151561200d57600080fd5b6040517f58b5058600000000000000000000000000000000000000000000000000000000815273__IexecODBLibOrders_____________________906358b505869061205d908790600401613adf565b60206040518083038186803b15801561207557600080fd5b505af4158015612089573d6000803e3d6000fd5b505050506040513d601f19601f820116820180604052506120ad9190810190613258565b8160800181815250508360000151600160a060020a031663deff41c16040518163ffffffff1660e060020a02815260040160206040518083038186803b1580156120f657600080fd5b505afa15801561210a573d6000803e3d6000fd5b505050506040513d601f19601f8201168201806040525061212e9190810190613150565b600160a060020a031660a08201819052608082015161014086015161215492919061060e565b151561215f57600080fd5b6040517f0813424e00000000000000000000000000000000000000000000000000000000815273__IexecODBLibOrders_____________________90630813424e906121af908690600401613ace565b60206040518083038186803b1580156121c757600080fd5b505af41580156121db573d6000803e3d6000fd5b505050506040513d601f19601f820116820180604052506121ff9190810190613258565b60c08083018290528401516101e085015161221a929061060e565b151561222557600080fd5b8051600090815260076020526040808220549088015161224a9163ffffffff6128e116565b90508160e0015161225b5780612294565b60408083015160009081526007602052819020549087015161229491612287919063ffffffff6128e116565b829063ffffffff612a9b16565b60808301516000908152600760205260409081902054908701519192506122c4916122879163ffffffff6128e116565b60c083015160009081526007602052604090205460e08601519192506122f3916122879163ffffffff6128e116565b90506000811161230257600080fd5b60c082015160008181526007602090815260408083205481518084019590955284820152805180850382018152606094850182528051908301208084526005835292208a51815473ffffffffffffffffffffffffffffffffffffffff19908116600160a060020a03928316178355838801516001840180548316918416919091179055928c015160028301559386015160048201805484169186169190911790558951600382018054909316941693909317905560e08401519091906123c95760006123cf565b87602001515b6005820155865160068201805473ffffffffffffffffffffffffffffffffffffffff19908116600160a060020a039384161790915560a086810151600785018054909316931692909217905560208801516008830155870151612433906001612a84565b60098201556060870151600a82015560c0860151600b82018054600160a060020a0392831673ffffffffffffffffffffffffffffffffffffffff1991821617909155610160880151600c84018054918416918316919091179055610180880151600d840180549190931691161790556101a086015180516124be91600e840191602090910190612c05565b50600082815260066020908152604080832060808b0151815542600182015560c08801518452600783529281902054600284015560038301869055895181517fb55e75af000000000000000000000000000000000000000000000000000000008152915161259d93600160a060020a039092169263b55e75af926004808301939192829003018186803b15801561255457600080fd5b505afa158015612568573d6000803e3d6000fd5b505050506040513d601f19601f8201168201806040525061258c9190810190613258565b60208a01519063ffffffff61297916565b81600401819055508760000151600160a060020a03166387639c686040518163ffffffff1660e060020a02815260040160206040518083038186803b1580156125e557600080fd5b505afa1580156125f9573d6000803e3d6000fd5b505050506040513d601f19601f8201168201806040525061261d9190810190613258565b600582015560c08501516000908152600460209081526040808320805460018101825590845282842001869055875183526007909152902054612666908563ffffffff6128f316565b855160009081526007602052604090205560e08501516126ab9061268b57600061268d565b845b6040808801516000908152600760205220549063ffffffff6128f316565b6040808701516000908152600760205281812092909255608087015182529020546126dc908563ffffffff6128f316565b60808601516000908152600760205260408082209290925560c08701518152205461270d908563ffffffff6128f316565b60c0860151600090815260076020526040902055600b82015460088301546005840154600285015461276f93600160a060020a03169261276a92899261275e9291610df7919063ffffffff6128f316565b9063ffffffff612aaa16565b612a07565b6007820154600883015461279e91600160a060020a03169061276a90879061275e90601e63ffffffff61297916565b6006820154604051600160a060020a03909116907f692ad61076dceddd0f1a861f737553dd61fc8501cf4190d29c4e90af6607f765906127df908690613a1c565b60405180910390a27fd811b592ed0899225773e8933d8df64bd0b62761a9d7aad4ed5b22735f4610a4838660000151876040015188608001518960c001518960405161283096959493929190613a2a565b60405180910390a1509093505050505b949350505050565b600054600160a060020a031681565b600160a060020a03821660009081526001602081905260409091200154612884908263ffffffff6128e116565b600160a060020a0383166000908152600160208190526040918290200191909155517f4051ba94e08bb094159fc38391422b4b8ccfd2b1f8919c0eb37bb042d4b9cd8e906128d590849084906139ef565b60405180910390a15050565b6000828211156128ed57fe5b50900390565b60008282018381101561070b57fe5b600160a060020a03821660009081526001602052604090205461292b908263ffffffff6128f316565b600160a060020a0383166000908152600160205260409081902091909155517f619caafabdd75649b302ba8419e48cccf64f37f1983ac4727cfb38b57703ffc9906128d590849084906139ef565b600061070b83836064612ad2565b600160a060020a038216600090815260016020819052604090912001546129b4908263ffffffff6128e116565b600160a060020a038316600090815260016020819052604090912090810191909155546129e7908263ffffffff6128f316565b600160a060020a0390921660009081526001602052604090209190915550565b600160a060020a038216600090815260016020526040902054612a30908263ffffffff6128e116565b600160a060020a03831660009081526001602081905260409091209182550154612a60908263ffffffff6128f316565b600160a060020a039092166000908152600160208190526040909120019190915550565b600081831015612a94578161070b565b5090919050565b6000818310612a94578161070b565b6000821515612abb57506000610970565b828202828482811515612aca57fe5b041461070b57fe5b6000610708612ae18585612aaa565b836000808284811515612af057fe5b04949350505050565b604080518082019091526000808252602082015290565b6101e060405190810160405280612b25612c83565b8152602001612b32612c83565b8152602001612b3f612c83565b815260200160008152602001600081526020016000600160a060020a031681526020016000600160a060020a031681526020016000600160a060020a03168152602001606081525090565b60c0604051908101604052806000815260200160008152602001600081526020016000815260200160008152602001600081525090565b6040805161010081018252600080825260208201819052918101829052606081018290526080810182905260a0810182905260c0810182905260e081019190915290565b828054600181600116156101000203166002900490600052602060002090601f016020900481019282601f10612c4657805160ff1916838001178555612c73565b82800160010185558215612c73579182015b82811115612c73578251825591602001919060010190612c58565b50612c7f929150612ca3565b5090565b604080516060810182526000808252602082018190529181019190915290565b612cbd91905b80821115612c7f5760008155600101612ca9565b90565b600061070b8235613b47565b600061070b8251613b47565b600061070b8251613b52565b600061070b8235613b69565b600061070b8251613b69565b600061070b8235612cbd565b600061070b8251612cbd565b6000601f82018313612d2557600080fd5b8135612d38612d3382613b15565b613aee565b91508082526020830160208301858383011115612d5457600080fd5b612d5f838284613ba0565b50505092915050565b60006101608284031215612d7b57600080fd5b612d86610120613aee565b90506000612d948484612cc0565b8252506020612da584848301612cfc565b6020830152506040612db984828501612cfc565b6040830152506060612dcd84828501612cfc565b6060830152506080612de184828501612cc0565b60808301525060a0612df584828501612cc0565b60a08301525060c0612e0984828501612cc0565b60c08301525060e0612e1d84828501612cfc565b60e083015250610100612e32848285016130cb565b6101008301525092915050565b60006102408284031215612e5257600080fd5b612e5d610200613aee565b90506000612e6b8484612cc0565b8252506020612e7c84848301612cfc565b6020830152506040612e9084828501612cc0565b6040830152506060612ea484828501612cfc565b6060830152506080612eb884828501612cc0565b60808301525060a0612ecc84828501612cfc565b60a08301525060c0612ee084828501612cc0565b60c08301525060e0612ef484828501612cfc565b60e083015250610100612f0984828501612cfc565b61010083015250610120612f1f84828501612cfc565b61012083015250610140612f3584828501612cfc565b61014083015250610160612f4b84828501612cc0565b61016083015250610180612f6184828501612cc0565b610180830152506101a082013567ffffffffffffffff811115612f8357600080fd5b612f8f84828501612d14565b6101a0830152506101c0612fa584828501612cfc565b6101c0830152506101e0612fbb848285016130cb565b6101e08301525092915050565b60006101a08284031215612fdb57600080fd5b612fe6610160613aee565b90506000612ff48484612cc0565b825250602061300584848301612cfc565b602083015250604061301984828501612cfc565b604083015250606061302d84828501612cfc565b606083015250608061304184828501612cfc565b60808301525060a061305584828501612cfc565b60a08301525060c061306984828501612cc0565b60c08301525060e061307d84828501612cc0565b60e08301525061010061309284828501612cc0565b610100830152506101206130a884828501612cfc565b610120830152506101406130be848285016130cb565b6101408301525092915050565b6000606082840312156130dd57600080fd5b6130e76060613aee565b905060006130f58484613126565b825250602061310684848301612cfc565b602083015250604061311a84828501612cfc565b60408301525092915050565b600061070b8235613b63565b60006020828403121561314457600080fd5b60006128408484612cc0565b60006020828403121561316257600080fd5b60006128408484612ccc565b60008060006060848603121561318357600080fd5b600061318f8686612cc0565b93505060206131a086828701612cc0565b92505060406131b186828701612ce4565b9150509250925092565b600080600060a084860312156131d057600080fd5b60006131dc8686612cc0565b93505060206131ed86828701612cfc565b92505060406131b1868287016130cb565b60006020828403121561321057600080fd5b60006128408484612cd8565b60006020828403121561322e57600080fd5b60006128408484612cf0565b60006020828403121561324c57600080fd5b60006128408484612cfc565b60006020828403121561326a57600080fd5b60006128408484612d08565b6000806040838503121561328957600080fd5b60006132958585612cfc565b92505060206132a685828601612cc0565b9150509250929050565b6000806000606084860312156132c557600080fd5b60006132d18686612cfc565b93505060206132e286828701612cc0565b92505060406131b186828701612cfc565b6000806040838503121561330657600080fd5b60006133128585612cfc565b92505060206132a685828601612cfc565b6000610160828403121561333657600080fd5b60006128408484612d68565b600080600080610480858703121561335957600080fd5b60006133658787612d68565b94505061016061337787828801612d68565b9350506102c061338987828801612fc8565b92505061046085013567ffffffffffffffff8111156133a757600080fd5b6133b387828801612e3f565b91505092959194509250565b6000602082840312156133d157600080fd5b813567ffffffffffffffff8111156133e857600080fd5b61284084828501612e3f565b60006101a0828403121561340757600080fd5b60006128408484612fc8565b61341c81613b8e565b82525050565b61341c81613b47565b600061343682613b43565b80845260208401935061344883613b3d565b60005b828110156134785761345e86835161348b565b61346782613b3d565b60209690960195915060010161344b565b5093949350505050565b61341c81613b52565b61341c81612cbd565b61341c81613b95565b60006134a882613b43565b8084526134bc816020860160208601613bac565b6134c581613bd8565b9093016020019392505050565b805160408301906134e3848261348b565b506020820151610e68602085018261348b565b80516101608301906135088482613422565b50602082015161351b602085018261348b565b50604082015161352e604085018261348b565b506060820151613541606085018261348b565b5060808201516135546080850182613422565b5060a082015161356760a0850182613422565b5060c082015161357a60c0850182613422565b5060e082015161358d60e085018261348b565b50610100820151610e6861010085018261392e565b805160c08301906135b3848261348b565b5060208201516135c6602085018261348b565b5060408201516135d9604085018261348b565b5060608201516135ec606085018261348b565b5060808201516135ff608085018261348b565b5060a0820151610e6860a085018261348b565b80516000906101e08401906136278582613825565b50602083015161363a6060860182613825565b50604083015161364d60c0860182613825565b50606083015161366161012086018261348b565b50608083015161367561014086018261348b565b5060a0830151613689610160860182613422565b5060c083015161369d610180860182613422565b5060e08301516136b16101a0860182613422565b506101008301518482036101c08601526136cb828261349d565b95945050505050565b80516000906102408401906136e98582613422565b5060208301516136fc602086018261348b565b50604083015161370f6040860182613422565b506060830151613722606086018261348b565b5060808301516137356080860182613422565b5060a083015161374860a086018261348b565b5060c083015161375b60c0860182613422565b5060e083015161376e60e086018261348b565b5061010083015161378361010086018261348b565b5061012083015161379861012086018261348b565b506101408301516137ad61014086018261348b565b506101608301516137c2610160860182613422565b506101808301516137d7610180860182613422565b506101a08301518482036101a08601526137f1828261349d565b9150506101c08301516138086101c086018261348b565b506101e083015161381d6101e086018261392e565b509392505050565b805160608301906138368482613422565b5060208201516138496020850182613422565b506040820151610e68604085018261348b565b80516101a083019061386e8482613422565b506020820151613881602085018261348b565b506040820151613894604085018261348b565b5060608201516138a7606085018261348b565b5060808201516138ba608085018261348b565b5060a08201516138cd60a085018261348b565b5060c08201516138e060c0850182613422565b5060e08201516138f360e0850182613422565b50610100820151613908610100850182613422565b5061012082015161391d61012085018261348b565b50610140820151610e686101408501825b8051606083019061393f8482613952565b506020820151613849602085018261348b565b61341c81613b63565b602081016109708284613422565b606081016139778286613413565b6139846020830185613422565b612840604083018461348b565b6040810161399f8285613413565b61070b602083018461348b565b606081016139ba8286613413565b6139c7602083018561348b565b6128406040830184613422565b606081016139e28286613422565b6139c76020830185613422565b6040810161399f8285613422565b6020808252810161070b818461342b565b602081016109708284613482565b60208101610970828461348b565b60c08101613a38828961348b565b613a45602083018861348b565b613a52604083018761348b565b613a5f606083018661348b565b613a6c608083018561348b565b613a7960a083018461348b565b979650505050505050565b602081016109708284613494565b6040810161097082846134d2565b610160810161097082846134f6565b60c0810161097082846135a2565b6020808252810161070b8184613612565b6020808252810161070b81846136d4565b6101a08101610970828461385c565b60405181810167ffffffffffffffff81118282101715613b0d57600080fd5b604052919050565b600067ffffffffffffffff821115613b2c57600080fd5b506020601f91909101601f19160190565b60200190565b5190565b600061097082613b57565b151590565b600160a060020a031690565b60ff1690565b7fff000000000000000000000000000000000000000000000000000000000000001690565b6000610970825b600061097082613b47565b82818337506000910152565b60005b83811015613bc7578181015183820152602001613baf565b83811115610e685750506000910152565b601f01601f19169056fea265627a7a72305820a4b3c35ba556ee92cbe330793d2c300bb694d3f87dc38874294a0678b74fc5e56c6578706572696d656e74616cf50037",
  "source": "pragma solidity ^0.5.0;\npragma experimental ABIEncoderV2;\n\nimport \"./libs/IexecODBLibCore.sol\";\nimport \"./libs/IexecODBLibOrders.sol\";\nimport \"./libs/SafeMathOZ.sol\";\nimport \"./registries/App.sol\";\nimport \"./registries/Dataset.sol\";\nimport \"./registries/Workerpool.sol\";\nimport \"./permissions/GroupInterface.sol\";\n\nimport \"./Escrow.sol\";\nimport \"./IexecHubAccessor.sol\";\n\ncontract IexecClerk is Escrow, IexecHubAccessor\n{\n\tusing SafeMathOZ for uint256;\n\tusing IexecODBLibOrders for *;\n\n\t/***************************************************************************\n\t *                                Constants                                *\n\t ***************************************************************************/\n\tuint256 public constant WORKERPOOL_STAKE_RATIO = 30;\n\tuint256 public constant KITTY_RATIO            = 10;\n\tuint256 public constant KITTY_MIN              = 1000000000; // TODO: 1RLC ?\n\n\t/***************************************************************************\n\t *                            EIP712 signature                             *\n\t ***************************************************************************/\n\tbytes32 public /* immutable */ EIP712DOMAIN_SEPARATOR;\n\n\t/***************************************************************************\n\t *                               Clerk data                                *\n\t ***************************************************************************/\n\tmapping(bytes32 => bytes32[]             ) m_requestdeals;\n\tmapping(bytes32 => IexecODBLibCore.Deal  ) m_deals;\n\tmapping(bytes32 => IexecODBLibCore.Config) m_configs;\n\tmapping(bytes32 => uint256               ) m_consumed;\n\tmapping(bytes32 => bool                  ) m_presigned;\n\n\t/***************************************************************************\n\t *                                 Events                                  *\n\t ***************************************************************************/\n\tevent OrdersMatched        (bytes32 dealid, bytes32 appHash, bytes32 datasetHash, bytes32 workerpoolHash, bytes32 requestHash, uint256 volume);\n\tevent ClosedAppOrder       (bytes32 appHash);\n\tevent ClosedDatasetOrder   (bytes32 datasetHash);\n\tevent ClosedWorkerpoolOrder(bytes32 workerpoolHash);\n\tevent ClosedRequestOrder   (bytes32 requestHash);\n\tevent SchedulerNotice      (address indexed workerpool, bytes32 dealid);\n\n\t/***************************************************************************\n\t *                               Constructor                               *\n\t ***************************************************************************/\n\tconstructor(\n\t\taddress _token,\n\t\taddress _iexechub,\n\t\tuint256 _chainid)\n\tpublic\n\tEscrow(_token)\n\tIexecHubAccessor(_iexechub)\n\t{\n\t\tEIP712DOMAIN_SEPARATOR = IexecODBLibOrders.EIP712Domain({\n\t\t\tname:              \"iExecODB\"\n\t\t, version:           \"3.0-alpha\"\n\t\t, chainId:           _chainid\n\t\t, verifyingContract: address(this)\n\t\t}).hash();\n\t}\n\n\t/***************************************************************************\n\t *                                Accessor                                 *\n\t ***************************************************************************/\n\tfunction viewRequestDeals(bytes32 _id)\n\tpublic view returns (bytes32[] memory requestdeals)\n\t{\n\t\treturn m_requestdeals[_id];\n\t}\n\n\tfunction viewDeal(bytes32 _id)\n\tpublic view returns (IexecODBLibCore.Deal memory deal)\n\t{\n\t\treturn m_deals[_id];\n\t}\n\n\tfunction viewConfig(bytes32 _id)\n\tpublic view returns (IexecODBLibCore.Config memory config)\n\t{\n\t\treturn m_configs[_id];\n\t}\n\n\tfunction viewConsumed(bytes32 _id)\n\tpublic view returns (uint256 consumed)\n\t{\n\t\treturn m_consumed[_id];\n\t}\n\n\tfunction viewPresigned(bytes32 _id)\n\tpublic view returns (bool presigned)\n\t{\n\t\treturn m_presigned[_id];\n\t}\n\n\t/***************************************************************************\n\t *                         Enterprise restriction                          *\n\t ***************************************************************************/\n\t/*\n\tfunction isContract(address addr)\n\tpublic view returns (bool)\n\t{\n\t\tassert(false);\n\t\tuint size;\n\t\tassembly { size := extcodesize(addr) }\n\t\treturn size > 0;\n\t}\n\t*/\n\n\t// Fails fail for wrong simple addresses\n\tfunction checkRestriction(address _restriction, address _candidate, bytes1 _mask)\n\tpublic view returns (bool)\n\t{\n\t\treturn _restriction == address(0) // No restriction\n\t\t    || _restriction == _candidate // Simple address\n\t\t    || GroupInterface(_restriction).viewPermissions(_candidate) & _mask == _mask;  // Permission group\n\t}\n\n\t/***************************************************************************\n\t *                       Hashing and signature tools                       *\n\t ***************************************************************************/\n\tfunction verify(\n\t\taddress                            _signer,\n\t\tbytes32                            _hash,\n\t\tIexecODBLibOrders.signature memory _signature)\n\tpublic view returns (bool)\n\t{\n\t\treturn _signer == ecrecover(\n\t\t\tkeccak256(abi.encodePacked(\"\\x19\\x01\", EIP712DOMAIN_SEPARATOR, _hash)),\n\t\t\t_signature.v,\n\t\t\t_signature.r,\n\t\t\t_signature.s\n\t\t) || m_presigned[_hash];\n\t}\n\n\t/***************************************************************************\n\t *                            pre-signing tools                            *\n\t ***************************************************************************/\n\tfunction signAppOrder(IexecODBLibOrders.AppOrder memory _apporder)\n\tpublic returns (bool)\n\t{\n\t\trequire(msg.sender == App(_apporder.app).m_owner());\n\t\tm_presigned[_apporder.hash()] = true;\n\t\treturn true;\n\t}\n\n\tfunction signDatasetOrder(IexecODBLibOrders.DatasetOrder memory _datasetorder)\n\tpublic returns (bool)\n\t{\n\t\trequire(msg.sender == Dataset(_datasetorder.dataset).m_owner());\n\t\tm_presigned[_datasetorder.hash()] = true;\n\t\treturn true;\n\t}\n\n\tfunction signWorkerpoolOrder(IexecODBLibOrders.WorkerpoolOrder memory _workerpoolorder)\n\tpublic returns (bool)\n\t{\n\t\trequire(msg.sender == Workerpool(_workerpoolorder.workerpool).m_owner());\n\t\tm_presigned[_workerpoolorder.hash()] = true;\n\t\treturn true;\n\t}\n\n\tfunction signRequestOrder(IexecODBLibOrders.RequestOrder memory _requestorder)\n\tpublic returns (bool)\n\t{\n\t\trequire(msg.sender == _requestorder.requester);\n\t\tm_presigned[_requestorder.hash()] = true;\n\t\treturn true;\n\t}\n\n\t/***************************************************************************\n\t *                              Clerk methods                              *\n\t ***************************************************************************/\n\tstruct Identities\n\t{\n\t\tbytes32 appHash;\n\t\taddress appOwner;\n\t\tbytes32 datasetHash;\n\t\taddress datasetOwner;\n\t\tbytes32 workerpoolHash;\n\t\taddress workerpoolOwner;\n\t\tbytes32 requestHash;\n\t\tbool    hasDataset;\n\t}\n\n\tfunction matchOrders(\n\t\tIexecODBLibOrders.AppOrder        memory _apporder,\n\t\tIexecODBLibOrders.DatasetOrder    memory _datasetorder,\n\t\tIexecODBLibOrders.WorkerpoolOrder memory _workerpoolorder,\n\t\tIexecODBLibOrders.RequestOrder    memory _requestorder)\n\tpublic returns (bytes32)\n\t{\n\t\t/**\n\t\t * Check orders compatibility\n\t\t */\n\n\t\t// computation environment & allowed enough funds\n\t\trequire(_requestorder.category           == _workerpoolorder.category       );\n\t\trequire(_requestorder.trust              <= _workerpoolorder.trust          );\n\t\trequire(_requestorder.appmaxprice        >= _apporder.appprice              );\n\t\trequire(_requestorder.datasetmaxprice    >= _datasetorder.datasetprice      );\n\t\trequire(_requestorder.workerpoolmaxprice >= _workerpoolorder.workerpoolprice);\n\t\trequire((_apporder.tag | _datasetorder.tag | _requestorder.tag) & ~_workerpoolorder.tag == 0x0);\n\n\t\t// Check matching and restrictions\n\t\trequire(_requestorder.app     == _apporder.app        );\n\t\trequire(_requestorder.dataset == _datasetorder.dataset);\n\t\trequire(checkRestriction(_requestorder.workerpool,           _workerpoolorder.workerpool, 0x01 /*IexecPermission.SUBMIT*/ )); // requestorder.workerpool is a restriction\n\t\trequire(checkRestriction(_apporder.datasetrestrict,          _datasetorder.dataset,       0x01 /*IexecPermission.SUBMIT*/ ));\n\t\trequire(checkRestriction(_apporder.workerpoolrestrict,       _workerpoolorder.workerpool, 0x01 /*IexecPermission.SUBMIT*/ ));\n\t\trequire(checkRestriction(_apporder.requesterrestrict,        _requestorder.requester,     0x01 /*IexecPermission.SUBMIT*/ ));\n\t\trequire(checkRestriction(_datasetorder.apprestrict,          _apporder.app,               0x01 /*IexecPermission.SUBMIT*/ ));\n\t\trequire(checkRestriction(_datasetorder.workerpoolrestrict,   _workerpoolorder.workerpool, 0x01 /*IexecPermission.SUBMIT*/ ));\n\t\trequire(checkRestriction(_datasetorder.requesterrestrict,    _requestorder.requester,     0x01 /*IexecPermission.SUBMIT*/ ));\n\t\trequire(checkRestriction(_workerpoolorder.apprestrict,       _apporder.app,               0x01 /*IexecPermission.SUBMIT*/ ));\n\t\trequire(checkRestriction(_workerpoolorder.datasetrestrict,   _datasetorder.dataset,       0x01 /*IexecPermission.SUBMIT*/ ));\n\t\trequire(checkRestriction(_workerpoolorder.requesterrestrict, _requestorder.requester,     0x01 /*IexecPermission.SUBMIT*/ ));\n\n\t\trequire(iexechub.checkResources(_apporder.app, _datasetorder.dataset, _workerpoolorder.workerpool));\n\n\t\t/**\n\t\t * Check orders authenticity\n\t\t */\n\t\tIdentities memory ids;\n\t\tids.hasDataset = _datasetorder.dataset != address(0);\n\n\t\t// app\n\t\tids.appHash  = _apporder.hash();\n\t\tids.appOwner = App(_apporder.app).m_owner();\n\t\trequire(verify(ids.appOwner, ids.appHash, _apporder.sign));\n\n\t\t// dataset\n\t\tif (ids.hasDataset) // only check if dataset is enabled\n\t\t{\n\t\t\tids.datasetHash  = _datasetorder.hash();\n\t\t\tids.datasetOwner = Dataset(_datasetorder.dataset).m_owner();\n\t\t\trequire(verify(ids.datasetOwner, ids.datasetHash, _datasetorder.sign));\n\t\t}\n\n\t\t// workerpool\n\t\tids.workerpoolHash  = _workerpoolorder.hash();\n\t\tids.workerpoolOwner = Workerpool(_workerpoolorder.workerpool).m_owner();\n\t\trequire(verify(ids.workerpoolOwner, ids.workerpoolHash, _workerpoolorder.sign));\n\n\t\t// request\n\t\tids.requestHash = _requestorder.hash();\n\t\trequire(verify(_requestorder.requester, ids.requestHash, _requestorder.sign));\n\n\t\t/**\n\t\t * Check availability\n\t\t */\n\t\tuint256 volume;\n\t\tvolume =                             _apporder.volume.sub       (m_consumed[ids.appHash       ]);\n\t\tvolume = ids.hasDataset ? volume.min(_datasetorder.volume.sub   (m_consumed[ids.datasetHash   ])) : volume;\n\t\tvolume =                  volume.min(_workerpoolorder.volume.sub(m_consumed[ids.workerpoolHash]));\n\t\tvolume =                  volume.min(_requestorder.volume.sub   (m_consumed[ids.requestHash   ]));\n\t\trequire(volume > 0);\n\n\t\t/**\n\t\t * Record\n\t\t */\n\t\tbytes32 dealid = keccak256(abi.encodePacked(\n\t\t\tids.requestHash,            // requestHash\n\t\t\tm_consumed[ids.requestHash] // idx of first subtask\n\t\t));\n\n\t\tIexecODBLibCore.Deal storage deal = m_deals[dealid];\n\t\tdeal.app.pointer        = _apporder.app;\n\t\tdeal.app.owner          = ids.appOwner;\n\t\tdeal.app.price          = _apporder.appprice;\n\t\tdeal.dataset.owner      = ids.datasetOwner;\n\t\tdeal.dataset.pointer    = _datasetorder.dataset;\n\t\tdeal.dataset.price      = ids.hasDataset ? _datasetorder.datasetprice : 0;\n\t\tdeal.workerpool.pointer = _workerpoolorder.workerpool;\n\t\tdeal.workerpool.owner   = ids.workerpoolOwner;\n\t\tdeal.workerpool.price   = _workerpoolorder.workerpoolprice;\n\t\tdeal.trust              = _workerpoolorder.trust.max(1);\n\t\tdeal.tag                = _workerpoolorder.tag;\n\t\tdeal.requester          = _requestorder.requester;\n\t\tdeal.beneficiary        = _requestorder.beneficiary;\n\t\tdeal.callback           = _requestorder.callback;\n\t\tdeal.params             = _requestorder.params;\n\n\t\tIexecODBLibCore.Config storage config = m_configs[dealid];\n\t\tconfig.category             = _workerpoolorder.category;\n\t\tconfig.startTime            = now;\n\t\tconfig.botFirst             = m_consumed[ids.requestHash];\n\t\tconfig.botSize              = volume;\n\t\tconfig.workerStake          = _workerpoolorder.workerpoolprice.percentage(Workerpool(_workerpoolorder.workerpool).m_workerStakeRatioPolicy());\n\t\tconfig.schedulerRewardRatio = Workerpool(_workerpoolorder.workerpool).m_schedulerRewardRatioPolicy();\n\n\t\tm_requestdeals[ids.requestHash].push(dealid);\n\n\t\t/**\n\t\t * Update consumed\n\t\t */\n\t\tm_consumed[ids.appHash       ] = m_consumed[ids.appHash       ].add(                 volume    );\n\t\tm_consumed[ids.datasetHash   ] = m_consumed[ids.datasetHash   ].add(ids.hasDataset ? volume : 0);\n\t\tm_consumed[ids.workerpoolHash] = m_consumed[ids.workerpoolHash].add(                 volume    );\n\t\tm_consumed[ids.requestHash   ] = m_consumed[ids.requestHash   ].add(                 volume    );\n\n\t\t/**\n\t\t * Lock\n\t\t */\n\t\tlock(\n\t\t\tdeal.requester,\n\t\t\tdeal.app.price\n\t\t\t.add(deal.dataset.price)\n\t\t\t.add(deal.workerpool.price)\n\t\t\t.mul(volume)\n\t\t);\n\t\tlock(\n\t\t\tdeal.workerpool.owner,\n\t\t\tdeal.workerpool.price\n\t\t\t.percentage(WORKERPOOL_STAKE_RATIO) // ORDER IS IMPORTANT HERE!\n\t\t\t.mul(volume)                        // ORDER IS IMPORTANT HERE!\n\t\t);\n\n\t\t/**\n\t\t * Advertize deal\n\t\t */\n\t\temit SchedulerNotice(deal.workerpool.pointer, dealid);\n\n\t\t/**\n\t\t * Advertize consumption\n\t\t */\n\t\temit OrdersMatched(\n\t\t\tdealid,\n\t\t\tids.appHash,\n\t\t\tids.datasetHash,\n\t\t\tids.workerpoolHash,\n\t\t\tids.requestHash,\n\t\t\tvolume\n\t\t);\n\n\t\treturn dealid;\n\t}\n\n\tfunction cancelAppOrder(IexecODBLibOrders.AppOrder memory _apporder)\n\tpublic returns (bool)\n\t{\n\t\tbytes32 dapporderHash = _apporder.hash();\n\t\trequire(msg.sender == App(_apporder.app).m_owner());\n\t\t// require(verify(msg.sender, dapporderHash, _apporder.sign));\n\t\tm_consumed[dapporderHash] = _apporder.volume;\n\t\temit ClosedAppOrder(dapporderHash);\n\t\treturn true;\n\t}\n\n\tfunction cancelDatasetOrder(IexecODBLibOrders.DatasetOrder memory _datasetorder)\n\tpublic returns (bool)\n\t{\n\t\tbytes32 dataorderHash = _datasetorder.hash();\n\t\trequire(msg.sender == Dataset(_datasetorder.dataset).m_owner());\n\t\t// require(verify(msg.sender, dataorderHash, _datasetorder.sign));\n\t\tm_consumed[dataorderHash] = _datasetorder.volume;\n\t\temit ClosedDatasetOrder(dataorderHash);\n\t\treturn true;\n\t}\n\n\tfunction cancelWorkerpoolOrder(IexecODBLibOrders.WorkerpoolOrder memory _workerpoolorder)\n\tpublic returns (bool)\n\t{\n\t\tbytes32 poolorderHash = _workerpoolorder.hash();\n\t\trequire(msg.sender == Workerpool(_workerpoolorder.workerpool).m_owner());\n\t\t// require(verify(msg.sender, poolorderHash, _workerpoolorder.sign));\n\t\tm_consumed[poolorderHash] = _workerpoolorder.volume;\n\t\temit ClosedWorkerpoolOrder(poolorderHash);\n\t\treturn true;\n\t}\n\n\tfunction cancelRequestOrder(IexecODBLibOrders.RequestOrder memory _requestorder)\n\tpublic returns (bool)\n\t{\n\t\tbytes32 requestorderHash = _requestorder.hash();\n\t\trequire(msg.sender == _requestorder.requester);\n\t\t// require(verify(msg.sender, requestorderHash, _requestorder.sign));\n\t\tm_consumed[requestorderHash] = _requestorder.volume;\n\t\temit ClosedRequestOrder(requestorderHash);\n\t\treturn true;\n\t}\n\n\t/***************************************************************************\n\t *                    Escrow overhead for contribution                     *\n\t ***************************************************************************/\n\tfunction lockContribution(bytes32 _dealid, address _worker)\n\tpublic onlyIexecHub\n\t{\n\t\tlock(_worker, m_configs[_dealid].workerStake);\n\t}\n\n\tfunction unlockContribution(bytes32 _dealid, address _worker)\n\tpublic onlyIexecHub\n\t{\n\t\tunlock(_worker, m_configs[_dealid].workerStake);\n\t}\n\n\tfunction unlockAndRewardForContribution(bytes32 _dealid, address _worker, uint256 _amount)\n\tpublic onlyIexecHub\n\t{\n\t\tunlock(_worker, m_configs[_dealid].workerStake);\n\t\treward(_worker, _amount);\n\t}\n\n\tfunction seizeContribution(bytes32 _dealid, address _worker)\n\tpublic onlyIexecHub\n\t{\n\t\tseize(_worker, m_configs[_dealid].workerStake);\n\t}\n\n\tfunction rewardForScheduling(bytes32 _dealid, uint256 _amount)\n\tpublic onlyIexecHub\n\t{\n\t\treward(m_deals[_dealid].workerpool.owner, _amount);\n\t}\n\n\tfunction successWork(bytes32 _dealid)\n\tpublic onlyIexecHub\n\t{\n\t\tIexecODBLibCore.Deal storage deal = m_deals[_dealid];\n\n\t\tuint256 requesterstake = deal.app.price\n\t\t                         .add(deal.dataset.price)\n\t\t                         .add(deal.workerpool.price);\n\t\tuint256 poolstake = deal.workerpool.price\n\t\t                    .percentage(WORKERPOOL_STAKE_RATIO);\n\n\t\t// seize requester funds\n\t\tseize (deal.requester, requesterstake);\n\t\t// unlock pool stake\n\t\tunlock(deal.workerpool.owner, poolstake);\n\t\t// dapp reward\n\t\treward(deal.app.owner, deal.app.price);\n\t\t// data reward\n\t\tif (deal.dataset.pointer != address(0))\n\t\t{\n\t\t\treward(deal.dataset.owner, deal.dataset.price);\n\t\t}\n\t\t// pool reward performed by consensus manager\n\n\t\t/**\n\t\t * Retrieve part of the kitty\n\t\t * TODO: remove / keep ?\n\t\t */\n\t\tuint256 kitty = viewAccount(address(0)).locked;\n\t\tif (kitty > 0)\n\t\t{\n\t\t\tkitty = kitty\n\t\t\t        .percentage(KITTY_RATIO) // fraction\n\t\t\t        .max(KITTY_MIN)          // at least this\n\t\t\t        .min(kitty);             // but not more than available\n\t\t\tseize (address(0),            kitty);\n\t\t\treward(deal.workerpool.owner, kitty);\n\t\t}\n\t}\n\n\tfunction failedWork(bytes32 _dealid)\n\tpublic onlyIexecHub\n\t{\n\t\tIexecODBLibCore.Deal storage deal = m_deals[_dealid];\n\n\t\tuint256 requesterstake = deal.app.price\n\t\t                         .add(deal.dataset.price)\n\t\t                         .add(deal.workerpool.price);\n\t\tuint256 poolstake = deal.workerpool.price\n\t\t                    .percentage(WORKERPOOL_STAKE_RATIO);\n\n\t\tunlock(deal.requester,        requesterstake);\n\t\tseize (deal.workerpool.owner, poolstake     );\n\t\treward(address(0),            poolstake     ); //  Kitty / Burn\n\t\tlock  (address(0),            poolstake     ); //  Kitty / Burn\n\t}\n\n}\n",
  "sourcePath": "/home/amxx/Work/iExec/code/PoCo-dev/contracts/IexecClerk.sol",
  "compiler": {
    "name": "solc",
    "version": "0.5.0+commit.1d4f565a.Emscripten.clang"
  },
  "schemaVersion": "3.0.0-beta.2",
  "updatedAt": "2018-12-03T12:55:32.458Z",
  "devdoc": {
    "methods": {}
  },
  "userdoc": {
    "methods": {
      "checkRestriction(address,address,bytes1)": {
        "notice": "*************************************************************************                        Enterprise restriction                          ***************************************************************************"
      },
      "constructor": "*************************************************************************                              Constructor                               ***************************************************************************",
      "deposit(uint256)": {
        "notice": "Wallet methods: public"
      },
      "lockContribution(bytes32,address)": {
        "notice": "*************************************************************************                   Escrow overhead for contribution                     ***************************************************************************"
      },
      "signAppOrder((address,uint256,uint256,uint256,address,address,address,bytes32,(uint8,bytes32,bytes32)))": {
        "notice": "*************************************************************************                           pre-signing tools                            ***************************************************************************"
      },
      "verify(address,bytes32,(uint8,bytes32,bytes32))": {
        "notice": "*************************************************************************                      Hashing and signature tools                       ***************************************************************************"
      },
      "viewAccount(address)": {
        "notice": "Accessor"
      },
      "viewRequestDeals(bytes32)": {
        "notice": "*************************************************************************                               Accessor                                 ***************************************************************************"
      }
    }
  }
}