{
  "contractName": "IexecProxy",
  "abi": [
    {
      "constant": true,
      "inputs": [],
      "name": "appregistry",
      "outputs": [
        {
          "name": "",
          "type": "address"
        }
      ],
      "payable": false,
      "stateMutability": "view",
      "type": "function",
      "signature": "0x45b637a9"
    },
    {
      "constant": true,
      "inputs": [],
      "name": "workerpoolregistry",
      "outputs": [
        {
          "name": "",
          "type": "address"
        }
      ],
      "payable": false,
      "stateMutability": "view",
      "type": "function",
      "signature": "0x90a0f546"
    },
    {
      "constant": true,
      "inputs": [],
      "name": "datasetregistry",
      "outputs": [
        {
          "name": "",
          "type": "address"
        }
      ],
      "payable": false,
      "stateMutability": "view",
      "type": "function",
      "signature": "0xb1b11d2c"
    },
    {
      "constant": true,
      "inputs": [],
      "name": "m_owner",
      "outputs": [
        {
          "name": "",
          "type": "address"
        }
      ],
      "payable": false,
      "stateMutability": "view",
      "type": "function",
      "signature": "0xdeff41c1"
    },
    {
      "constant": false,
      "inputs": [
        {
          "name": "_newOwner",
          "type": "address"
        }
      ],
      "name": "transferOwnership",
      "outputs": [],
      "payable": false,
      "stateMutability": "nonpayable",
      "type": "function",
      "signature": "0xf2fde38b"
    },
    {
      "constant": true,
      "inputs": [],
      "name": "token",
      "outputs": [
        {
          "name": "",
          "type": "address"
        }
      ],
      "payable": false,
      "stateMutability": "view",
      "type": "function",
      "signature": "0xfc0c546a"
    },
    {
      "inputs": [
        {
          "name": "_erc1538Delegate",
          "type": "address"
        }
      ],
      "payable": false,
      "stateMutability": "nonpayable",
      "type": "constructor",
      "signature": "constructor"
    },
    {
      "payable": true,
      "stateMutability": "payable",
      "type": "fallback"
    },
    {
      "anonymous": false,
      "inputs": [
        {
          "indexed": false,
          "name": "message",
          "type": "string"
        }
      ],
      "name": "CommitMessage",
      "type": "event",
      "signature": "0xaa1c0a0a78cec2470f9652e5d29540752e7a64d70f926933cebf13afaeda45de"
    },
    {
      "anonymous": false,
      "inputs": [
        {
          "indexed": true,
          "name": "functionId",
          "type": "bytes4"
        },
        {
          "indexed": true,
          "name": "oldDelegate",
          "type": "address"
        },
        {
          "indexed": true,
          "name": "newDelegate",
          "type": "address"
        },
        {
          "indexed": false,
          "name": "functionSignature",
          "type": "string"
        }
      ],
      "name": "FunctionUpdate",
      "type": "event",
      "signature": "0x3234040ce3bd4564874e44810f198910133a1b24c4e84aac87edbf6b458f5353"
    },
    {
      "anonymous": false,
      "inputs": [
        {
          "indexed": false,
          "name": "previousOwner",
          "type": "address"
        },
        {
          "indexed": false,
          "name": "newOwner",
          "type": "address"
        }
      ],
      "name": "OwnershipTransferred",
      "type": "event",
      "signature": "0x8be0079c531659141344cd1fd0a4f28419497f9722a3daafe3b4186f6b6457e0"
    }
  ],
  "bytecode": "0x608060405234801561001057600080fd5b506040516020806108a5833981018060405261002f91908101906102fe565b6000805433600160a060020a03199182168117821617825560408051606081018252602581527f757064617465436f6e747261637428616464726573732c737472696e672c737460208083019182527f72696e6729000000000000000000000000000000000000000000000000000000938301939093526001928390527ff50a09e6a85ec28d2a326f305a787cf8f40af9fd4e03108e9eace75a899deb058054909416600160a060020a03871617909355600280549283018082559452805190937f6145556710ea545cbd23b05426d1c42aa5025511b47f500956dfd3af0ab263ee939092610143927f405787fa12a823e0f2b7631cc41b3ba8828b3321ca811111fa75cd3aa3bb5ace9091019190610250565b505060025460405183516003918591819060208401908083835b6020831061017c5780518252601f19909201916020918201910161015d565b51815160209384036101000a6000190180199092169116179052920194855250604051938490030183209390935550600160a060020a03851691506000907fffffffff000000000000000000000000000000000000000000000000000000008416907f3234040ce3bd4564874e44810f198910133a1b24c4e84aac87edbf6b458f53539061020b9087906103af565b60405180910390a47faa1c0a0a78cec2470f9652e5d29540752e7a64d70f926933cebf13afaeda45de604051610240906103c0565b60405180910390a150505061042b565b828054600181600116156101000203166002900490600052602060002090601f016020900481019282601f1061029157805160ff19168380011785556102be565b828001600101855582156102be579182015b828111156102be5782518255916020019190600101906102a3565b506102ca9291506102ce565b5090565b6102e891905b808211156102ca57600081556001016102d4565b90565b60006102f782516103e6565b9392505050565b60006020828403121561031057600080fd5b600061031c84846102eb565b949350505050565b600061032f826103d6565b8084526103438160208601602086016103f1565b61034c81610421565b9093016020019392505050565b603a81527f4164646564204552433135333820757064617465436f6e74726163742066756e60208201527f6374696f6e20617420636f6e7472616374206372656174696f6e000000000000604082015260600190565b602080825281016102f78184610324565b602080825281016103d081610359565b92915050565b5190565b600160a060020a031690565b60006103d0826103da565b60005b8381101561040c5781810151838201526020016103f4565b8381111561041b576000848401525b50505050565b601f01601f191690565b61046b8061043a6000396000f3fe6080604052600436106100775763ffffffff7c010000000000000000000000000000000000000000000000000000000060003504166345b637a9811461011957806390a0f54614610144578063b1b11d2c14610159578063deff41c11461016e578063f2fde38b14610190578063fc0c546a146101b2575b600080357fffffffff0000000000000000000000000000000000000000000000000000000016815260016020526040902054600160a060020a03168015156100f4576040517f08c379a00000000000000000000000000000000000000000000000000000000081526004016100eb906103f5565b60405180910390fd5b60405136600082376000803683855af43d806000843e818015610115578184f35b8184fd5b34801561012557600080fd5b5061012e6101c7565b60405161013b91906103e7565b60405180910390f35b34801561015057600080fd5b5061012e6101d6565b34801561016557600080fd5b5061012e6101e5565b34801561017a57600080fd5b506101836101f4565b60405161013b91906103b8565b34801561019c57600080fd5b506101b06101ab3660046102f4565b610203565b005b3480156101be57600080fd5b5061012e6102d2565b600554600160a060020a031681565b600754600160a060020a031681565b600654600160a060020a031681565b600054600160a060020a031681565b600054600160a060020a0316331461021a57600080fd5b600160a060020a038116151561025c576040517f08c379a00000000000000000000000000000000000000000000000000000000081526004016100eb90610405565b6000546040517f8be0079c531659141344cd1fd0a4f28419497f9722a3daafe3b4186f6b6457e09161029b91600160a060020a039091169084906103cc565b60405180910390a16000805473ffffffffffffffffffffffffffffffffffffffff1916600160a060020a0392909216919091179055565b600454600160a060020a031681565b60006102ed8235610415565b9392505050565b60006020828403121561030657600080fd5b600061031284846102e1565b949350505050565b61032381610415565b82525050565b61032381610426565b601881527f46756e6374696f6e20646f6573206e6f742065786973742e0000000000000000602082015260400190565b602681527f63616e2774207472616e73666572206f776e65727368697020746f206164647260208201527f6573732830290000000000000000000000000000000000000000000000000000604082015260600190565b602081016103c6828461031a565b92915050565b604081016103da828561031a565b6102ed602083018461031a565b602081016103c68284610329565b602080825281016103c681610332565b602080825281016103c681610362565b6000600160a060020a0382166103c6565b60006103c68261041556fea265627a7a723058200dfb544b313b56efeb6b6b77df8975c7450ade27d658b197cc122c05bfef85c96c6578706572696d656e74616cf50037",
  "source": "pragma solidity ^0.5.0;\npragma experimental ABIEncoderV2;\n\nimport \"./IexecStore.sol\";\n\ncontract IexecProxy is IexecStore // IexecStore is ERC1538UpgradeableStorage\n{\n\tevent CommitMessage(string message);\n\tevent FunctionUpdate(bytes4 indexed functionId, address indexed oldDelegate, address indexed newDelegate, string functionSignature);\n\n\tconstructor(address _erc1538Delegate)\n\tpublic\n\t{\n\t\tm_owner = msg.sender;\n\n\t\t//Adding ERC1538 updateContract function\n\t\tbytes memory signature = \"updateContract(address,string,string)\";\n\t\tbytes4 funcId = bytes4(keccak256(signature));\n\t\tm_delegates[funcId] = _erc1538Delegate;\n\t\tm_funcSignatures.push(signature);\n\t\tm_funcSignatureToIndex[signature] = m_funcSignatures.length;\n\t\temit FunctionUpdate(funcId, address(0), _erc1538Delegate, string(signature));\n\t\temit CommitMessage(\"Added ERC1538 updateContract function at contract creation\");\n\t}\n\n\tfunction()\n\texternal\n\tpayable\n\t{\n\t\taddress delegate = m_delegates[msg.sig];\n\t\trequire(delegate != address(0), \"Function does not exist.\");\n\t\tassembly {\n\t\t\tlet ptr := mload(0x40)\n\t\t\tcalldatacopy(ptr, 0, calldatasize)\n\t\t\tlet result := delegatecall(gas, delegate, ptr, calldatasize, 0, 0)\n\t\t\tlet size := returndatasize\n\t\t\treturndatacopy(ptr, 0, size)\n\t\t\tswitch result\n\t\t\tcase 0  { revert (ptr, size) }\n\t\t\tdefault { return (ptr, size) }\n\t\t}\n\t}\n}\n",
  "sourcePath": "/home/amxx/Work/iExec/code/PoCo-dev/contracts/IexecProxy.sol",
  "compiler": {
    "name": "solc",
    "version": "0.5.0+commit.1d4f565a.Emscripten.clang"
  },
  "schemaVersion": "3.0.1",
  "updatedAt": "2019-01-08T09:34:24.421Z",
  "devdoc": {
    "methods": {
      "transferOwnership(address)": {
        "details": "Allows the current owner to transfer control of the contract to a newOwner.",
        "params": {
          "_newOwner": "The address to transfer ownership to."
        }
      }
    }
  },
  "userdoc": {
    "methods": {}
  }
}