{
  "contractName": "IexecClerk",
  "abi": [
    {
      "constant": true,
      "inputs": [],
      "name": "EIP712DOMAIN_SEPARATOR",
      "outputs": [
        {
          "name": "",
          "type": "bytes32"
        }
      ],
      "payable": false,
      "stateMutability": "view",
      "type": "function",
      "signature": "0x047411e7"
    },
    {
      "constant": false,
      "inputs": [
        {
          "name": "_amount",
          "type": "uint256"
        }
      ],
      "name": "withdraw",
      "outputs": [
        {
          "name": "",
          "type": "bool"
        }
      ],
      "payable": false,
      "stateMutability": "nonpayable",
      "type": "function",
      "signature": "0x2e1a7d4d"
    },
    {
      "constant": false,
      "inputs": [
        {
          "name": "_amount",
          "type": "uint256"
        },
        {
          "name": "_target",
          "type": "address"
        }
      ],
      "name": "depositFor",
      "outputs": [
        {
          "name": "",
          "type": "bool"
        }
      ],
      "payable": false,
      "stateMutability": "nonpayable",
      "type": "function",
      "signature": "0x36efd16f"
    },
    {
      "constant": true,
      "inputs": [],
      "name": "WORKERPOOL_STAKE_RATIO",
      "outputs": [
        {
          "name": "",
          "type": "uint256"
        }
      ],
      "payable": false,
      "stateMutability": "view",
      "type": "function",
      "signature": "0x4ec3b9e3"
    },
    {
      "constant": true,
      "inputs": [],
      "name": "KITTY_RATIO",
      "outputs": [
        {
          "name": "",
          "type": "uint256"
        }
      ],
      "payable": false,
      "stateMutability": "view",
      "type": "function",
      "signature": "0x51152de1"
    },
    {
      "constant": true,
      "inputs": [
        {
          "name": "_user",
          "type": "address"
        }
      ],
      "name": "viewAccount",
      "outputs": [
        {
          "components": [
            {
              "name": "stake",
              "type": "uint256"
            },
            {
              "name": "locked",
              "type": "uint256"
            }
          ],
          "name": "account",
          "type": "tuple"
        }
      ],
      "payable": false,
      "stateMutability": "view",
      "type": "function",
      "signature": "0x6b55f4a5"
    },
    {
      "constant": true,
      "inputs": [],
      "name": "iexechub",
      "outputs": [
        {
          "name": "",
          "type": "address"
        }
      ],
      "payable": false,
      "stateMutability": "view",
      "type": "function",
      "signature": "0x8d52e413"
    },
    {
      "constant": false,
      "inputs": [
        {
          "name": "_amount",
          "type": "uint256"
        }
      ],
      "name": "deposit",
      "outputs": [
        {
          "name": "",
          "type": "bool"
        }
      ],
      "payable": false,
      "stateMutability": "nonpayable",
      "type": "function",
      "signature": "0xb6b55f25"
    },
    {
      "constant": true,
      "inputs": [],
      "name": "KITTY_MIN",
      "outputs": [
        {
          "name": "",
          "type": "uint256"
        }
      ],
      "payable": false,
      "stateMutability": "view",
      "type": "function",
      "signature": "0xe2e7a8c1"
    },
    {
      "constant": true,
      "inputs": [],
      "name": "token",
      "outputs": [
        {
          "name": "",
          "type": "address"
        }
      ],
      "payable": false,
      "stateMutability": "view",
      "type": "function",
      "signature": "0xfc0c546a"
    },
    {
      "inputs": [
        {
          "name": "_token",
          "type": "address"
        },
        {
          "name": "_iexechub",
          "type": "address"
        },
        {
          "name": "_chainid",
          "type": "uint256"
        }
      ],
      "payable": false,
      "stateMutability": "nonpayable",
      "type": "constructor",
      "signature": "constructor"
    },
    {
      "anonymous": false,
      "inputs": [
        {
          "indexed": false,
          "name": "dealid",
          "type": "bytes32"
        },
        {
          "indexed": false,
          "name": "appHash",
          "type": "bytes32"
        },
        {
          "indexed": false,
          "name": "datasetHash",
          "type": "bytes32"
        },
        {
          "indexed": false,
          "name": "workerpoolHash",
          "type": "bytes32"
        },
        {
          "indexed": false,
          "name": "requestHash",
          "type": "bytes32"
        },
        {
          "indexed": false,
          "name": "volume",
          "type": "uint256"
        }
      ],
      "name": "OrdersMatched",
      "type": "event",
      "signature": "0xd811b592ed0899225773e8933d8df64bd0b62761a9d7aad4ed5b22735f4610a4"
    },
    {
      "anonymous": false,
      "inputs": [
        {
          "indexed": false,
          "name": "appHash",
          "type": "bytes32"
        }
      ],
      "name": "ClosedAppOrder",
      "type": "event",
      "signature": "0x7343f75be43aba524f85326508cd975d016ef7884676377366c69a7c32e30668"
    },
    {
      "anonymous": false,
      "inputs": [
        {
          "indexed": false,
          "name": "datasetHash",
          "type": "bytes32"
        }
      ],
      "name": "ClosedDatasetOrder",
      "type": "event",
      "signature": "0xcf52e3228bc482a6656d8ab56c09888b1c5bf6aaadba0185e96a34836f2bb1d4"
    },
    {
      "anonymous": false,
      "inputs": [
        {
          "indexed": false,
          "name": "workerpoolHash",
          "type": "bytes32"
        }
      ],
      "name": "ClosedWorkerpoolOrder",
      "type": "event",
      "signature": "0x145ad51e4496173bca15e24e7eb46f9ab3a10eea0497e2801a3a6806c06113a3"
    },
    {
      "anonymous": false,
      "inputs": [
        {
          "indexed": false,
          "name": "requestHash",
          "type": "bytes32"
        }
      ],
      "name": "ClosedRequestOrder",
      "type": "event",
      "signature": "0x582f43f2a741cbe708aae3b8d38a4efc3d09d7e81919697b3ca693f4c444cc05"
    },
    {
      "anonymous": false,
      "inputs": [
        {
          "indexed": true,
          "name": "workerpool",
          "type": "address"
        },
        {
          "indexed": false,
          "name": "dealid",
          "type": "bytes32"
        }
      ],
      "name": "SchedulerNotice",
      "type": "event",
      "signature": "0x692ad61076dceddd0f1a861f737553dd61fc8501cf4190d29c4e90af6607f765"
    },
    {
      "anonymous": false,
      "inputs": [
        {
          "indexed": false,
          "name": "owner",
          "type": "address"
        },
        {
          "indexed": false,
          "name": "amount",
          "type": "uint256"
        }
      ],
      "name": "Deposit",
      "type": "event",
      "signature": "0xe1fffcc4923d04b559f4d29a8bfc6cda04eb5b0d3c460751c2402c5c5cc9109c"
    },
    {
      "anonymous": false,
      "inputs": [
        {
          "indexed": false,
          "name": "owner",
          "type": "address"
        },
        {
          "indexed": false,
          "name": "amount",
          "type": "uint256"
        },
        {
          "indexed": false,
          "name": "target",
          "type": "address"
        }
      ],
      "name": "DepositFor",
      "type": "event",
      "signature": "0xcce62bfcdb09eddbe4e5ff5ec3bafdbabc25a52e1cf34f014a0a7a0864f9634c"
    },
    {
      "anonymous": false,
      "inputs": [
        {
          "indexed": false,
          "name": "owner",
          "type": "address"
        },
        {
          "indexed": false,
          "name": "amount",
          "type": "uint256"
        }
      ],
      "name": "Withdraw",
      "type": "event",
      "signature": "0x884edad9ce6fa2440d8a54cc123490eb96d2768479d49ff9c7366125a9424364"
    },
    {
      "anonymous": false,
      "inputs": [
        {
          "indexed": false,
          "name": "user",
          "type": "address"
        },
        {
          "indexed": false,
          "name": "amount",
          "type": "uint256"
        }
      ],
      "name": "Reward",
      "type": "event",
      "signature": "0x619caafabdd75649b302ba8419e48cccf64f37f1983ac4727cfb38b57703ffc9"
    },
    {
      "anonymous": false,
      "inputs": [
        {
          "indexed": false,
          "name": "user",
          "type": "address"
        },
        {
          "indexed": false,
          "name": "amount",
          "type": "uint256"
        }
      ],
      "name": "Seize",
      "type": "event",
      "signature": "0x4051ba94e08bb094159fc38391422b4b8ccfd2b1f8919c0eb37bb042d4b9cd8e"
    },
    {
      "constant": true,
      "inputs": [
        {
          "name": "_id",
          "type": "bytes32"
        }
      ],
      "name": "viewRequestDeals",
      "outputs": [
        {
          "name": "requestdeals",
          "type": "bytes32[]"
        }
      ],
      "payable": false,
      "stateMutability": "view",
      "type": "function",
      "signature": "0x6dc2df05"
    },
    {
      "constant": true,
      "inputs": [
        {
          "name": "_id",
          "type": "bytes32"
        }
      ],
      "name": "viewDeal",
      "outputs": [
        {
          "components": [
            {
              "components": [
                {
                  "name": "pointer",
                  "type": "address"
                },
                {
                  "name": "owner",
                  "type": "address"
                },
                {
                  "name": "price",
                  "type": "uint256"
                }
              ],
              "name": "app",
              "type": "tuple"
            },
            {
              "components": [
                {
                  "name": "pointer",
                  "type": "address"
                },
                {
                  "name": "owner",
                  "type": "address"
                },
                {
                  "name": "price",
                  "type": "uint256"
                }
              ],
              "name": "dataset",
              "type": "tuple"
            },
            {
              "components": [
                {
                  "name": "pointer",
                  "type": "address"
                },
                {
                  "name": "owner",
                  "type": "address"
                },
                {
                  "name": "price",
                  "type": "uint256"
                }
              ],
              "name": "workerpool",
              "type": "tuple"
            },
            {
              "name": "trust",
              "type": "uint256"
            },
            {
              "name": "category",
              "type": "uint256"
            },
            {
              "name": "tag",
              "type": "bytes32"
            },
            {
              "name": "requester",
              "type": "address"
            },
            {
              "name": "beneficiary",
              "type": "address"
            },
            {
              "name": "callback",
              "type": "address"
            },
            {
              "name": "params",
              "type": "string"
            },
            {
              "name": "startTime",
              "type": "uint256"
            },
            {
              "name": "botFirst",
              "type": "uint256"
            },
            {
              "name": "botSize",
              "type": "uint256"
            },
            {
              "name": "workerStake",
              "type": "uint256"
            },
            {
              "name": "schedulerRewardRatio",
              "type": "uint256"
            }
          ],
          "name": "deal",
          "type": "tuple"
        }
      ],
      "payable": false,
      "stateMutability": "view",
      "type": "function",
      "signature": "0xb74861b2"
    },
    {
      "constant": true,
      "inputs": [
        {
          "name": "_id",
          "type": "bytes32"
        }
      ],
      "name": "viewConsumed",
      "outputs": [
        {
          "name": "consumed",
          "type": "uint256"
        }
      ],
      "payable": false,
      "stateMutability": "view",
      "type": "function",
      "signature": "0x4b2bec8c"
    },
    {
      "constant": true,
      "inputs": [
        {
          "name": "_id",
          "type": "bytes32"
        }
      ],
      "name": "viewPresigned",
      "outputs": [
        {
          "name": "presigned",
          "type": "bool"
        }
      ],
      "payable": false,
      "stateMutability": "view",
      "type": "function",
      "signature": "0xd286eb16"
    },
    {
      "constant": true,
      "inputs": [
        {
          "name": "_restriction",
          "type": "address"
        },
        {
          "name": "_candidate",
          "type": "address"
        },
        {
          "name": "_mask",
          "type": "bytes1"
        }
      ],
      "name": "checkRestriction",
      "outputs": [
        {
          "name": "",
          "type": "bool"
        }
      ],
      "payable": false,
      "stateMutability": "view",
      "type": "function",
      "signature": "0xc3ee9d3b"
    },
    {
      "constant": true,
      "inputs": [
        {
          "name": "_signer",
          "type": "address"
        },
        {
          "name": "_hash",
          "type": "bytes32"
        },
        {
          "components": [
            {
              "name": "v",
              "type": "uint8"
            },
            {
              "name": "r",
              "type": "bytes32"
            },
            {
              "name": "s",
              "type": "bytes32"
            }
          ],
          "name": "_signature",
          "type": "tuple"
        }
      ],
      "name": "verify",
      "outputs": [
        {
          "name": "",
          "type": "bool"
        }
      ],
      "payable": false,
      "stateMutability": "view",
      "type": "function",
      "signature": "0x0db73bfe"
    },
    {
      "constant": false,
      "inputs": [
        {
          "components": [
            {
              "name": "app",
              "type": "address"
            },
            {
              "name": "appprice",
              "type": "uint256"
            },
            {
              "name": "volume",
              "type": "uint256"
            },
            {
              "name": "tag",
              "type": "bytes32"
            },
            {
              "name": "datasetrestrict",
              "type": "address"
            },
            {
              "name": "workerpoolrestrict",
              "type": "address"
            },
            {
              "name": "requesterrestrict",
              "type": "address"
            },
            {
              "name": "salt",
              "type": "bytes32"
            },
            {
              "components": [
                {
                  "name": "v",
                  "type": "uint8"
                },
                {
                  "name": "r",
                  "type": "bytes32"
                },
                {
                  "name": "s",
                  "type": "bytes32"
                }
              ],
              "name": "sign",
              "type": "tuple"
            }
          ],
          "name": "_apporder",
          "type": "tuple"
        }
      ],
      "name": "signAppOrder",
      "outputs": [
        {
          "name": "",
          "type": "bool"
        }
      ],
      "payable": false,
      "stateMutability": "nonpayable",
      "type": "function",
      "signature": "0x8209ff3f"
    },
    {
      "constant": false,
      "inputs": [
        {
          "components": [
            {
              "name": "dataset",
              "type": "address"
            },
            {
              "name": "datasetprice",
              "type": "uint256"
            },
            {
              "name": "volume",
              "type": "uint256"
            },
            {
              "name": "tag",
              "type": "bytes32"
            },
            {
              "name": "apprestrict",
              "type": "address"
            },
            {
              "name": "workerpoolrestrict",
              "type": "address"
            },
            {
              "name": "requesterrestrict",
              "type": "address"
            },
            {
              "name": "salt",
              "type": "bytes32"
            },
            {
              "components": [
                {
                  "name": "v",
                  "type": "uint8"
                },
                {
                  "name": "r",
                  "type": "bytes32"
                },
                {
                  "name": "s",
                  "type": "bytes32"
                }
              ],
              "name": "sign",
              "type": "tuple"
            }
          ],
          "name": "_datasetorder",
          "type": "tuple"
        }
      ],
      "name": "signDatasetOrder",
      "outputs": [
        {
          "name": "",
          "type": "bool"
        }
      ],
      "payable": false,
      "stateMutability": "nonpayable",
      "type": "function",
      "signature": "0x79ea83aa"
    },
    {
      "constant": false,
      "inputs": [
        {
          "components": [
            {
              "name": "workerpool",
              "type": "address"
            },
            {
              "name": "workerpoolprice",
              "type": "uint256"
            },
            {
              "name": "volume",
              "type": "uint256"
            },
            {
              "name": "tag",
              "type": "bytes32"
            },
            {
              "name": "category",
              "type": "uint256"
            },
            {
              "name": "trust",
              "type": "uint256"
            },
            {
              "name": "apprestrict",
              "type": "address"
            },
            {
              "name": "datasetrestrict",
              "type": "address"
            },
            {
              "name": "requesterrestrict",
              "type": "address"
            },
            {
              "name": "salt",
              "type": "bytes32"
            },
            {
              "components": [
                {
                  "name": "v",
                  "type": "uint8"
                },
                {
                  "name": "r",
                  "type": "bytes32"
                },
                {
                  "name": "s",
                  "type": "bytes32"
                }
              ],
              "name": "sign",
              "type": "tuple"
            }
          ],
          "name": "_workerpoolorder",
          "type": "tuple"
        }
      ],
      "name": "signWorkerpoolOrder",
      "outputs": [
        {
          "name": "",
          "type": "bool"
        }
      ],
      "payable": false,
      "stateMutability": "nonpayable",
      "type": "function",
      "signature": "0xd8091e81"
    },
    {
      "constant": false,
      "inputs": [
        {
          "components": [
            {
              "name": "app",
              "type": "address"
            },
            {
              "name": "appmaxprice",
              "type": "uint256"
            },
            {
              "name": "dataset",
              "type": "address"
            },
            {
              "name": "datasetmaxprice",
              "type": "uint256"
            },
            {
              "name": "workerpool",
              "type": "address"
            },
            {
              "name": "workerpoolmaxprice",
              "type": "uint256"
            },
            {
              "name": "requester",
              "type": "address"
            },
            {
              "name": "volume",
              "type": "uint256"
            },
            {
              "name": "tag",
              "type": "bytes32"
            },
            {
              "name": "category",
              "type": "uint256"
            },
            {
              "name": "trust",
              "type": "uint256"
            },
            {
              "name": "beneficiary",
              "type": "address"
            },
            {
              "name": "callback",
              "type": "address"
            },
            {
              "name": "params",
              "type": "string"
            },
            {
              "name": "salt",
              "type": "bytes32"
            },
            {
              "components": [
                {
                  "name": "v",
                  "type": "uint8"
                },
                {
                  "name": "r",
                  "type": "bytes32"
                },
                {
                  "name": "s",
                  "type": "bytes32"
                }
              ],
              "name": "sign",
              "type": "tuple"
            }
          ],
          "name": "_requestorder",
          "type": "tuple"
        }
      ],
      "name": "signRequestOrder",
      "outputs": [
        {
          "name": "",
          "type": "bool"
        }
      ],
      "payable": false,
      "stateMutability": "nonpayable",
      "type": "function",
      "signature": "0xa3648c37"
    },
    {
      "constant": false,
      "inputs": [
        {
          "components": [
            {
              "name": "app",
              "type": "address"
            },
            {
              "name": "appprice",
              "type": "uint256"
            },
            {
              "name": "volume",
              "type": "uint256"
            },
            {
              "name": "tag",
              "type": "bytes32"
            },
            {
              "name": "datasetrestrict",
              "type": "address"
            },
            {
              "name": "workerpoolrestrict",
              "type": "address"
            },
            {
              "name": "requesterrestrict",
              "type": "address"
            },
            {
              "name": "salt",
              "type": "bytes32"
            },
            {
              "components": [
                {
                  "name": "v",
                  "type": "uint8"
                },
                {
                  "name": "r",
                  "type": "bytes32"
                },
                {
                  "name": "s",
                  "type": "bytes32"
                }
              ],
              "name": "sign",
              "type": "tuple"
            }
          ],
          "name": "_apporder",
          "type": "tuple"
        },
        {
          "components": [
            {
              "name": "dataset",
              "type": "address"
            },
            {
              "name": "datasetprice",
              "type": "uint256"
            },
            {
              "name": "volume",
              "type": "uint256"
            },
            {
              "name": "tag",
              "type": "bytes32"
            },
            {
              "name": "apprestrict",
              "type": "address"
            },
            {
              "name": "workerpoolrestrict",
              "type": "address"
            },
            {
              "name": "requesterrestrict",
              "type": "address"
            },
            {
              "name": "salt",
              "type": "bytes32"
            },
            {
              "components": [
                {
                  "name": "v",
                  "type": "uint8"
                },
                {
                  "name": "r",
                  "type": "bytes32"
                },
                {
                  "name": "s",
                  "type": "bytes32"
                }
              ],
              "name": "sign",
              "type": "tuple"
            }
          ],
          "name": "_datasetorder",
          "type": "tuple"
        },
        {
          "components": [
            {
              "name": "workerpool",
              "type": "address"
            },
            {
              "name": "workerpoolprice",
              "type": "uint256"
            },
            {
              "name": "volume",
              "type": "uint256"
            },
            {
              "name": "tag",
              "type": "bytes32"
            },
            {
              "name": "category",
              "type": "uint256"
            },
            {
              "name": "trust",
              "type": "uint256"
            },
            {
              "name": "apprestrict",
              "type": "address"
            },
            {
              "name": "datasetrestrict",
              "type": "address"
            },
            {
              "name": "requesterrestrict",
              "type": "address"
            },
            {
              "name": "salt",
              "type": "bytes32"
            },
            {
              "components": [
                {
                  "name": "v",
                  "type": "uint8"
                },
                {
                  "name": "r",
                  "type": "bytes32"
                },
                {
                  "name": "s",
                  "type": "bytes32"
                }
              ],
              "name": "sign",
              "type": "tuple"
            }
          ],
          "name": "_workerpoolorder",
          "type": "tuple"
        },
        {
          "components": [
            {
              "name": "app",
              "type": "address"
            },
            {
              "name": "appmaxprice",
              "type": "uint256"
            },
            {
              "name": "dataset",
              "type": "address"
            },
            {
              "name": "datasetmaxprice",
              "type": "uint256"
            },
            {
              "name": "workerpool",
              "type": "address"
            },
            {
              "name": "workerpoolmaxprice",
              "type": "uint256"
            },
            {
              "name": "requester",
              "type": "address"
            },
            {
              "name": "volume",
              "type": "uint256"
            },
            {
              "name": "tag",
              "type": "bytes32"
            },
            {
              "name": "category",
              "type": "uint256"
            },
            {
              "name": "trust",
              "type": "uint256"
            },
            {
              "name": "beneficiary",
              "type": "address"
            },
            {
              "name": "callback",
              "type": "address"
            },
            {
              "name": "params",
              "type": "string"
            },
            {
              "name": "salt",
              "type": "bytes32"
            },
            {
              "components": [
                {
                  "name": "v",
                  "type": "uint8"
                },
                {
                  "name": "r",
                  "type": "bytes32"
                },
                {
                  "name": "s",
                  "type": "bytes32"
                }
              ],
              "name": "sign",
              "type": "tuple"
            }
          ],
          "name": "_requestorder",
          "type": "tuple"
        }
      ],
      "name": "matchOrders",
      "outputs": [
        {
          "name": "",
          "type": "bytes32"
        }
      ],
      "payable": false,
      "stateMutability": "nonpayable",
      "type": "function",
      "signature": "0xbafbf19c"
    },
    {
      "constant": false,
      "inputs": [
        {
          "components": [
            {
              "name": "app",
              "type": "address"
            },
            {
              "name": "appprice",
              "type": "uint256"
            },
            {
              "name": "volume",
              "type": "uint256"
            },
            {
              "name": "tag",
              "type": "bytes32"
            },
            {
              "name": "datasetrestrict",
              "type": "address"
            },
            {
              "name": "workerpoolrestrict",
              "type": "address"
            },
            {
              "name": "requesterrestrict",
              "type": "address"
            },
            {
              "name": "salt",
              "type": "bytes32"
            },
            {
              "components": [
                {
                  "name": "v",
                  "type": "uint8"
                },
                {
                  "name": "r",
                  "type": "bytes32"
                },
                {
                  "name": "s",
                  "type": "bytes32"
                }
              ],
              "name": "sign",
              "type": "tuple"
            }
          ],
          "name": "_apporder",
          "type": "tuple"
        }
      ],
      "name": "cancelAppOrder",
      "outputs": [
        {
          "name": "",
          "type": "bool"
        }
      ],
      "payable": false,
      "stateMutability": "nonpayable",
      "type": "function",
      "signature": "0x22c8c04a"
    },
    {
      "constant": false,
      "inputs": [
        {
          "components": [
            {
              "name": "dataset",
              "type": "address"
            },
            {
              "name": "datasetprice",
              "type": "uint256"
            },
            {
              "name": "volume",
              "type": "uint256"
            },
            {
              "name": "tag",
              "type": "bytes32"
            },
            {
              "name": "apprestrict",
              "type": "address"
            },
            {
              "name": "workerpoolrestrict",
              "type": "address"
            },
            {
              "name": "requesterrestrict",
              "type": "address"
            },
            {
              "name": "salt",
              "type": "bytes32"
            },
            {
              "components": [
                {
                  "name": "v",
                  "type": "uint8"
                },
                {
                  "name": "r",
                  "type": "bytes32"
                },
                {
                  "name": "s",
                  "type": "bytes32"
                }
              ],
              "name": "sign",
              "type": "tuple"
            }
          ],
          "name": "_datasetorder",
          "type": "tuple"
        }
      ],
      "name": "cancelDatasetOrder",
      "outputs": [
        {
          "name": "",
          "type": "bool"
        }
      ],
      "payable": false,
      "stateMutability": "nonpayable",
      "type": "function",
      "signature": "0x86d94546"
    },
    {
      "constant": false,
      "inputs": [
        {
          "components": [
            {
              "name": "workerpool",
              "type": "address"
            },
            {
              "name": "workerpoolprice",
              "type": "uint256"
            },
            {
              "name": "volume",
              "type": "uint256"
            },
            {
              "name": "tag",
              "type": "bytes32"
            },
            {
              "name": "category",
              "type": "uint256"
            },
            {
              "name": "trust",
              "type": "uint256"
            },
            {
              "name": "apprestrict",
              "type": "address"
            },
            {
              "name": "datasetrestrict",
              "type": "address"
            },
            {
              "name": "requesterrestrict",
              "type": "address"
            },
            {
              "name": "salt",
              "type": "bytes32"
            },
            {
              "components": [
                {
                  "name": "v",
                  "type": "uint8"
                },
                {
                  "name": "r",
                  "type": "bytes32"
                },
                {
                  "name": "s",
                  "type": "bytes32"
                }
              ],
              "name": "sign",
              "type": "tuple"
            }
          ],
          "name": "_workerpoolorder",
          "type": "tuple"
        }
      ],
      "name": "cancelWorkerpoolOrder",
      "outputs": [
        {
          "name": "",
          "type": "bool"
        }
      ],
      "payable": false,
      "stateMutability": "nonpayable",
      "type": "function",
      "signature": "0xcd3d80a1"
    },
    {
      "constant": false,
      "inputs": [
        {
          "components": [
            {
              "name": "app",
              "type": "address"
            },
            {
              "name": "appmaxprice",
              "type": "uint256"
            },
            {
              "name": "dataset",
              "type": "address"
            },
            {
              "name": "datasetmaxprice",
              "type": "uint256"
            },
            {
              "name": "workerpool",
              "type": "address"
            },
            {
              "name": "workerpoolmaxprice",
              "type": "uint256"
            },
            {
              "name": "requester",
              "type": "address"
            },
            {
              "name": "volume",
              "type": "uint256"
            },
            {
              "name": "tag",
              "type": "bytes32"
            },
            {
              "name": "category",
              "type": "uint256"
            },
            {
              "name": "trust",
              "type": "uint256"
            },
            {
              "name": "beneficiary",
              "type": "address"
            },
            {
              "name": "callback",
              "type": "address"
            },
            {
              "name": "params",
              "type": "string"
            },
            {
              "name": "salt",
              "type": "bytes32"
            },
            {
              "components": [
                {
                  "name": "v",
                  "type": "uint8"
                },
                {
                  "name": "r",
                  "type": "bytes32"
                },
                {
                  "name": "s",
                  "type": "bytes32"
                }
              ],
              "name": "sign",
              "type": "tuple"
            }
          ],
          "name": "_requestorder",
          "type": "tuple"
        }
      ],
      "name": "cancelRequestOrder",
      "outputs": [
        {
          "name": "",
          "type": "bool"
        }
      ],
      "payable": false,
      "stateMutability": "nonpayable",
      "type": "function",
      "signature": "0x83d6aa85"
    },
    {
      "constant": false,
      "inputs": [
        {
          "name": "_dealid",
          "type": "bytes32"
        },
        {
          "name": "_worker",
          "type": "address"
        }
      ],
      "name": "lockContribution",
      "outputs": [],
      "payable": false,
      "stateMutability": "nonpayable",
      "type": "function",
      "signature": "0xe798491a"
    },
    {
      "constant": false,
      "inputs": [
        {
          "name": "_dealid",
          "type": "bytes32"
        },
        {
          "name": "_worker",
          "type": "address"
        }
      ],
      "name": "unlockContribution",
      "outputs": [],
      "payable": false,
      "stateMutability": "nonpayable",
      "type": "function",
      "signature": "0x6eb528b5"
    },
    {
      "constant": false,
      "inputs": [
        {
          "name": "_dealid",
          "type": "bytes32"
        },
        {
          "name": "_worker",
          "type": "address"
        },
        {
          "name": "_amount",
          "type": "uint256"
        }
      ],
      "name": "unlockAndRewardForContribution",
      "outputs": [],
      "payable": false,
      "stateMutability": "nonpayable",
      "type": "function",
      "signature": "0x83729251"
    },
    {
      "constant": false,
      "inputs": [
        {
          "name": "_dealid",
          "type": "bytes32"
        },
        {
          "name": "_worker",
          "type": "address"
        }
      ],
      "name": "seizeContribution",
      "outputs": [],
      "payable": false,
      "stateMutability": "nonpayable",
      "type": "function",
      "signature": "0x0d0c233c"
    },
    {
      "constant": false,
      "inputs": [
        {
          "name": "_dealid",
          "type": "bytes32"
        },
        {
          "name": "_amount",
          "type": "uint256"
        }
      ],
      "name": "rewardForScheduling",
      "outputs": [],
      "payable": false,
      "stateMutability": "nonpayable",
      "type": "function",
      "signature": "0x4a8e362e"
    },
    {
      "constant": false,
      "inputs": [
        {
          "name": "_dealid",
          "type": "bytes32"
        }
      ],
      "name": "successWork",
      "outputs": [],
      "payable": false,
      "stateMutability": "nonpayable",
      "type": "function",
      "signature": "0x88044a7d"
    },
    {
      "constant": false,
      "inputs": [
        {
          "name": "_dealid",
          "type": "bytes32"
        }
      ],
      "name": "failedWork",
      "outputs": [],
      "payable": false,
      "stateMutability": "nonpayable",
      "type": "function",
      "signature": "0x5d0c812f"
    }
  ],
  "bytecode": "0x60806040523480156200001157600080fd5b5060405160608062003f5f8339810180604052620000339190810190620001d6565b60008054600160a060020a031916600160a060020a03858116919091179091558290811615156200006357600080fd5b60028054600160a060020a031916600160a060020a03929092169190911790556040805160c0810182526008608082019081527f69457865634f444200000000000000000000000000000000000000000000000060a0830152815281518083018352600981527f332e302d616c706861000000000000000000000000000000000000000000000060208083019190915282015280820183905230606082015290517feca34ccf00000000000000000000000000000000000000000000000000000000815273__IexecODBLibOrders_____________________9163eca34ccf9162000152919060040162000314565b60206040518083038186803b1580156200016b57600080fd5b505af415801562000180573d6000803e3d6000fd5b505050506040513d601f19601f82011682018060405250620001a691908101906200022a565b600355506200038a915050565b6000620001c182516200032b565b9392505050565b6000620001c182516200034a565b600080600060608486031215620001ec57600080fd5b6000620001fa8686620001b3565b93505060206200020d86828701620001b3565b92505060406200022086828701620001c8565b9150509250925092565b6000602082840312156200023d57600080fd5b60006200024b8484620001c8565b949350505050565b6200025e816200032b565b82525050565b6000620002718262000327565b808452620002878160208601602086016200034d565b620002928162000380565b9093016020019392505050565b8051608080845260009190840190620002b9828262000264565b91505060208301518482036020860152620002d5828262000264565b9150506040830151620002ec604086018262000309565b50606083015162000301606086018262000253565b509392505050565b6200025e816200034a565b60208082528101620001c181846200029f565b5190565b600062000338826200033e565b92915050565b600160a060020a031690565b90565b60005b838110156200036a57818101518382015260200162000350565b838111156200037a576000848401525b50505050565b601f01601f191690565b613bc5806200039a6000396000f3fe60806040526004361061017c5763ffffffff60e060020a600035041663047411e781146101815780630d0c233c146101ac5780630db73bfe146101ce57806322c8c04a146101fb5780632e1a7d4d1461021b57806336efd16f1461023b5780634a8e362e1461025b5780634b2bec8c1461027b5780634ec3b9e31461029b57806351152de1146102b05780635d0c812f146102c55780636b55f4a5146102e55780636dc2df05146103125780636eb528b51461033f57806379ea83aa1461035f5780638209ff3f1461037f578063837292511461039f57806383d6aa85146103bf57806386d94546146103df57806388044a7d146103ff5780638d52e4131461041f578063a3648c3714610441578063b6b55f2514610461578063b74861b214610481578063bafbf19c146104ae578063c3ee9d3b146104ce578063cd3d80a1146104ee578063d286eb161461050e578063d8091e811461052e578063e2e7a8c11461054e578063e798491a14610563578063fc0c546a14610583575b600080fd5b34801561018d57600080fd5b50610196610598565b6040516101a391906139d3565b60405180910390f35b3480156101b857600080fd5b506101cc6101c7366004613226565b61059e565b005b3480156101da57600080fd5b506101ee6101e936600461316b565b6105d6565b6040516101a391906139c5565b34801561020757600080fd5b506101ee6102163660046132d3565b6106da565b34801561022757600080fd5b506101ee6102363660046131ea565b610860565b34801561024757600080fd5b506101ee610256366004613226565b610978565b34801561026757600080fd5b506101cc6102763660046132a3565b610ab8565b34801561028757600080fd5b506101966102963660046131ea565b610af4565b3480156102a757600080fd5b50610196610b06565b3480156102bc57600080fd5b50610196610b0b565b3480156102d157600080fd5b506101cc6102e03660046131ea565b610b10565b3480156102f157600080fd5b506103056103003660046130e2565b610bd5565b6040516101a39190613a49565b34801561031e57600080fd5b5061033261032d3660046131ea565b610c10565b6040516101a391906139b4565b34801561034b57600080fd5b506101cc61035a366004613226565b610c72565b34801561036b57600080fd5b506101ee61037a3660046132d3565b610ca6565b34801561038b57600080fd5b506101ee61039a3660046132d3565b610e04565b3480156103ab57600080fd5b506101cc6103ba366004613260565b610eeb565b3480156103cb57600080fd5b506101ee6103da36600461336f565b610f2e565b3480156103eb57600080fd5b506101ee6103fa3660046132d3565b611036565b34801561040b57600080fd5b506101cc61041a3660046131ea565b6111ab565b34801561042b57600080fd5b50610434611311565b6040516101a39190613a3b565b34801561044d57600080fd5b506101ee61045c36600461336f565b611320565b34801561046d57600080fd5b506101ee61047c3660046131ea565b611395565b34801561048d57600080fd5b506104a161049c3660046131ea565b6114a4565b6040516101a39190613a66565b3480156104ba57600080fd5b506101966104c93660046132f2565b611661565b3480156104da57600080fd5b506101ee6104e936600461311e565b61243f565b3480156104fa57600080fd5b506101ee6105093660046133a4565b612555565b34801561051a57600080fd5b506101ee6105293660046131ea565b6126ca565b34801561053a57600080fd5b506101ee6105493660046133a4565b6126df565b34801561055a57600080fd5b506101966127c6565b34801561056f57600080fd5b506101cc61057e366004613226565b6127ce565b34801561058f57600080fd5b50610434612802565b60035481565b600254600160a060020a031633146105b557600080fd5b6000828152600560205260409020601301546105d2908290612811565b5050565b600060016003548460405160200180807f1901000000000000000000000000000000000000000000000000000000000000815250600201838152602001828152602001925050506040516020818303038152906040528051906020012083600001518460200151856040015160405160008152602001604052604051808581526020018460ff1660ff1681526020018381526020018281526020019450505050506020604051602081039080840390855afa158015610699573d6000803e3d6000fd5b50505060206040510351600160a060020a031684600160a060020a031614806106d0575060008381526007602052604090205460ff165b90505b9392505050565b6040517f04951329000000000000000000000000000000000000000000000000000000008152600090819073__IexecODBLibOrders_____________________9063049513299061072f908690600401613a57565b60206040518083038186803b15801561074757600080fd5b505af415801561075b573d6000803e3d6000fd5b505050506040513d601f19601f8201168201806040525061077f9190810190613208565b90508260000151600160a060020a031663deff41c16040518163ffffffff1660e060020a02815260040160206040518083038186803b1580156107c157600080fd5b505afa1580156107d5573d6000803e3d6000fd5b505050506040513d601f19601f820116820180604052506107f99190810190613100565b600160a060020a0316331461080d57600080fd5b6040808401516000838152600660205282902055517f7343f75be43aba524f85326508cd975d016ef7884676377366c69a7c32e306689061084f9083906139d3565b60405180910390a150600192915050565b33600090815260016020526040812054610880908363ffffffff61289b16565b33600081815260016020526040808220939093555491517fa9059cbb000000000000000000000000000000000000000000000000000000008152600160a060020a039092169163a9059cbb916108da918690600401613948565b602060405180830381600087803b1580156108f457600080fd5b505af1158015610908573d6000803e3d6000fd5b505050506040513d601f19601f8201168201806040525061092c91908101906131ae565b151561093757600080fd5b7f884edad9ce6fa2440d8a54cc123490eb96d2768479d49ff9c7366125a94243643383604051610968929190613948565b60405180910390a1506001919050565b6000600160a060020a038216151561098f57600080fd5b6000546040517f23b872dd000000000000000000000000000000000000000000000000000000008152600160a060020a03909116906323b872dd906109dc90339030908890600401613920565b602060405180830381600087803b1580156109f657600080fd5b505af1158015610a0a573d6000803e3d6000fd5b505050506040513d601f19601f82011682018060405250610a2e91908101906131ae565b1515610a3957600080fd5b600160a060020a038216600090815260016020526040902054610a62908463ffffffff6128ad16565b600160a060020a0383166000908152600160205260409081902091909155517fcce62bfcdb09eddbe4e5ff5ec3bafdbabc25a52e1cf34f014a0a7a0864f9634c9061084f90339086908690613963565b92915050565b600254600160a060020a03163314610acf57600080fd5b6000828152600560205260409020600701546105d290600160a060020a0316826128bc565b60009081526006602052604090205490565b601e81565b600a81565b600254600160a060020a03163314610b2757600080fd5b600081815260056020819052604082206008810154918101546002820154919392610b6a929091610b5e919063ffffffff6128ad16565b9063ffffffff6128ad16565b6008830154909150600090610b8690601e63ffffffff61293316565b600c840154909150610ba190600160a060020a031683612941565b6007830154610bb990600160a060020a031682612811565b610bc46000826128bc565b610bcf6000826129c1565b50505050565b610bdd612ab3565b50600160a060020a0316600090815260016020818152604092839020835180850190945280548452909101549082015290565b600081815260046020908152604091829020805483518184028101840190945280845260609392830182828015610c6657602002820191906000526020600020905b815481526020019060010190808311610c52575b50505050509050919050565b600254600160a060020a03163314610c8957600080fd5b6000828152600560205260409020601301546105d2908290612941565b60008160000151600160a060020a031663deff41c16040518163ffffffff1660e060020a02815260040160206040518083038186803b158015610ce857600080fd5b505afa158015610cfc573d6000803e3d6000fd5b505050506040513d601f19601f82011682018060405250610d209190810190613100565b600160a060020a03163314610d3457600080fd5b6040517f2bd4c73400000000000000000000000000000000000000000000000000000000815260019060079060009073__IexecODBLibOrders_____________________90632bd4c73490610d8d908890600401613a57565b60206040518083038186803b158015610da557600080fd5b505af4158015610db9573d6000803e3d6000fd5b505050506040513d601f19601f82011682018060405250610ddd9190810190613208565b81526020810191909152604001600020805460ff1916911515919091179055506001919050565b60008160000151600160a060020a031663deff41c16040518163ffffffff1660e060020a02815260040160206040518083038186803b158015610e4657600080fd5b505afa158015610e5a573d6000803e3d6000fd5b505050506040513d601f19601f82011682018060405250610e7e9190810190613100565b600160a060020a03163314610e9257600080fd5b6040517f0495132900000000000000000000000000000000000000000000000000000000815260019060079060009073__IexecODBLibOrders_____________________90630495132990610d8d908890600401613a57565b600254600160a060020a03163314610f0257600080fd5b600083815260056020526040902060130154610f1f908390612941565b610f2982826128bc565b505050565b6040517f0813424e000000000000000000000000000000000000000000000000000000008152600090819073__IexecODBLibOrders_____________________90630813424e90610f83908690600401613a77565b60206040518083038186803b158015610f9b57600080fd5b505af4158015610faf573d6000803e3d6000fd5b505050506040513d601f19601f82011682018060405250610fd39190810190613208565b60c0840151909150600160a060020a03163314610fef57600080fd5b60e08301516000828152600660205260409081902091909155517f582f43f2a741cbe708aae3b8d38a4efc3d09d7e81919697b3ca693f4c444cc059061084f9083906139d3565b6040517f2bd4c734000000000000000000000000000000000000000000000000000000008152600090819073__IexecODBLibOrders_____________________90632bd4c7349061108b908690600401613a57565b60206040518083038186803b1580156110a357600080fd5b505af41580156110b7573d6000803e3d6000fd5b505050506040513d601f19601f820116820180604052506110db9190810190613208565b90508260000151600160a060020a031663deff41c16040518163ffffffff1660e060020a02815260040160206040518083038186803b15801561111d57600080fd5b505afa158015611131573d6000803e3d6000fd5b505050506040513d601f19601f820116820180604052506111559190810190613100565b600160a060020a0316331461116957600080fd5b6040808401516000838152600660205282902055517fcf52e3228bc482a6656d8ab56c09888b1c5bf6aaadba0185e96a34836f2bb1d49061084f9083906139d3565b600254600160a060020a031633146111c257600080fd5b6000818152600560208190526040822060088101549181015460028201549193926111f9929091610b5e919063ffffffff6128ad16565b600883015490915060009061121590601e63ffffffff61293316565b600c84015490915061123090600160a060020a031683612811565b600783015461124890600160a060020a031682612941565b6001830154600284015461126591600160a060020a0316906128bc565b6003830154600160a060020a031615611295576004830154600584015461129591600160a060020a0316906128bc565b60006112a16000610bd5565b602001519050600081111561130a576112e5816112d9633b9aca006112cd83600a63ffffffff61293316565b9063ffffffff612a3e16565b9063ffffffff612a5516565b90506112f2600082612811565b600784015461130a90600160a060020a0316826128bc565b5050505050565b600254600160a060020a031681565b60c0810151600090600160a060020a0316331461133c57600080fd5b6040517f0813424e00000000000000000000000000000000000000000000000000000000815260019060079060009073__IexecODBLibOrders_____________________90630813424e90610d8d908890600401613a77565b600080546040517f23b872dd000000000000000000000000000000000000000000000000000000008152600160a060020a03909116906323b872dd906113e390339030908790600401613920565b602060405180830381600087803b1580156113fd57600080fd5b505af1158015611411573d6000803e3d6000fd5b505050506040513d601f19601f8201168201806040525061143591908101906131ae565b151561144057600080fd5b33600090815260016020526040902054611460908363ffffffff6128ad16565b33600081815260016020526040908190209290925590517fe1fffcc4923d04b559f4d29a8bfc6cda04eb5b0d3c460751c2402c5c5cc9109c91610968918590613948565b6114ac612aca565b6000828152600560208181526040928390208351610240810185528154600160a060020a039081166101e083019081526001808501548316610200850152600280860154610220860152918452875160608082018a52600387015485168252600487015485168289015297860154818a0152848701528751808801895260068601548416815260078601548416818801526008860154818a015284890152600985015496840196909652600a8401546080840152600b84015460a0840152600c840154821660c0840152600d840154821660e0840152600e84015490911661010080840191909152600f840180548851978116159092026000190190911691909104601f81018590048502860185019096528585529094919361012086019390929083018282801561161f5780601f106115f45761010080835404028352916020019161161f565b820191906000526020600020905b81548152906001019060200180831161160257829003601f168201915b50505050508152602001601082015481526020016011820154815260200160128201548152602001601382015481526020016014820154815250509050919050565b60808201516101208201516000911461167957600080fd5b60a0830151610140830151111561168f57600080fd5b6020808601519083015110156116a457600080fd5b6020840151606083015110156116b957600080fd5b602083015160a083015110156116ce57600080fd5b8260600151198261010001518560600151876060015117171660006001021415156116f857600080fd5b84518251600160a060020a0390811691161461171357600080fd5b83516040830151600160a060020a0390811691161461173157600080fd5b60808201518351611747919060f860020a61243f565b151561175257600080fd5b60808501518451611768919060f860020a61243f565b151561177357600080fd5b60a08501518351611789919060f860020a61243f565b151561179457600080fd5b6117ae8560c001518360c00151600160f860020a0261243f565b15156117b957600080fd5b608084015185516117cf919060f860020a61243f565b15156117da57600080fd5b60a084015183516117f0919060f860020a61243f565b15156117fb57600080fd5b6118158460c001518360c00151600160f860020a0261243f565b151561182057600080fd5b60c08301518551611836919060f860020a61243f565b151561184157600080fd5b60e08301518451611857919060f860020a61243f565b151561186257600080fd5b61187d8361010001518360c00151600160f860020a0261243f565b151561188857600080fd5b6002548551855185516040517f097d630d000000000000000000000000000000000000000000000000000000008152600160a060020a039094169363097d630d936118d9939092909160040161398b565b60206040518083038186803b1580156118f157600080fd5b505afa158015611905573d6000803e3d6000fd5b505050506040513d601f19601f8201168201806040525061192991908101906131ae565b151561193457600080fd5b61193c612b71565b8451600160a060020a0316151560e08201526040517f0495132900000000000000000000000000000000000000000000000000000000815273__IexecODBLibOrders_____________________9063049513299061199e908990600401613a57565b60206040518083038186803b1580156119b657600080fd5b505af41580156119ca573d6000803e3d6000fd5b505050506040513d601f19601f820116820180604052506119ee9190810190613208565b8160000181815250508560000151600160a060020a031663deff41c16040518163ffffffff1660e060020a02815260040160206040518083038186803b158015611a3757600080fd5b505afa158015611a4b573d6000803e3d6000fd5b505050506040513d601f19601f82011682018060405250611a6f9190810190613100565b600160a060020a0316602082018190528151610100880151611a929291906105d6565b1515611a9d57600080fd5b8060e0015115611bf9576040517f2bd4c73400000000000000000000000000000000000000000000000000000000815273__IexecODBLibOrders_____________________90632bd4c73490611af7908890600401613a57565b60206040518083038186803b158015611b0f57600080fd5b505af4158015611b23573d6000803e3d6000fd5b505050506040513d601f19601f82011682018060405250611b479190810190613208565b8160400181815250508460000151600160a060020a031663deff41c16040518163ffffffff1660e060020a02815260040160206040518083038186803b158015611b9057600080fd5b505afa158015611ba4573d6000803e3d6000fd5b505050506040513d601f19601f82011682018060405250611bc89190810190613100565b600160a060020a0316606082018190526040820151610100870151611bee9291906105d6565b1515611bf957600080fd5b6040517f58b5058600000000000000000000000000000000000000000000000000000000815273__IexecODBLibOrders_____________________906358b5058690611c49908790600401613a88565b60206040518083038186803b158015611c6157600080fd5b505af4158015611c75573d6000803e3d6000fd5b505050506040513d601f19601f82011682018060405250611c999190810190613208565b8160800181815250508360000151600160a060020a031663deff41c16040518163ffffffff1660e060020a02815260040160206040518083038186803b158015611ce257600080fd5b505afa158015611cf6573d6000803e3d6000fd5b505050506040513d601f19601f82011682018060405250611d1a9190810190613100565b600160a060020a031660a082018190526080820151610140860151611d409291906105d6565b1515611d4b57600080fd5b6040517f0813424e00000000000000000000000000000000000000000000000000000000815273__IexecODBLibOrders_____________________90630813424e90611d9b908690600401613a77565b60206040518083038186803b158015611db357600080fd5b505af4158015611dc7573d6000803e3d6000fd5b505050506040513d601f19601f82011682018060405250611deb9190810190613208565b60c08083018290528401516101e0850151611e0692906105d6565b1515611e1157600080fd5b80516000908152600660205260408082205490880151611e369163ffffffff61289b16565b90508160e00151611e475780611e80565b604080830151600090815260066020528190205490870151611e8091611e73919063ffffffff61289b16565b829063ffffffff612a5516565b6080830151600090815260066020526040908190205490870151919250611eb091611e739163ffffffff61289b16565b60c083015160009081526006602052604090205460e0860151919250611edf91611e739163ffffffff61289b16565b905060008111611eee57600080fd5b60c082015160008181526006602090815260408083205481518084019590955284820152805180850382018152606094850182528051908301208084526005835292208a51815473ffffffffffffffffffffffffffffffffffffffff19908116600160a060020a03928316178355838801516001840180548316918416919091179055928c015160028301559386015160048201805484169186169190911790558951600382018054909316941693909317905560e0840151909190611fb5576000611fbb565b87602001515b60058201558651600682018054600160a060020a0392831673ffffffffffffffffffffffffffffffffffffffff199182161790915560a08601516007840180549190931691161790556020870151600882015561014086015161202590600163ffffffff612a3e16565b6009820155610120860151600a8201556101008601516060808a0151908b01511717600b82015560c0860151600c82018054600160a060020a0392831673ffffffffffffffffffffffffffffffffffffffff1991821617909155610160880151600d84018054918416918316919091179055610180880151600e840180549190931691161790556101a086015180516120c891600f840191602090910190612bb5565b5042601082015560c084015160009081526006602090815260409182902054601184015560128301859055885182517fb55e75af000000000000000000000000000000000000000000000000000000008152925161219693600160a060020a039092169263b55e75af9260048082019391829003018186803b15801561214d57600080fd5b505afa158015612161573d6000803e3d6000fd5b505050506040513d601f19601f820116820180604052506121859190810190613208565b60208901519063ffffffff61293316565b81601301819055508660000151600160a060020a03166387639c686040518163ffffffff1660e060020a02815260040160206040518083038186803b1580156121de57600080fd5b505afa1580156121f2573d6000803e3d6000fd5b505050506040513d601f19601f820116820180604052506122169190810190613208565b601482015560c0840151600090815260046020908152604080832080546001810182559084528284200185905586518352600690915290205461225f908463ffffffff6128ad16565b845160009081526006602052604090205560e08401516122a490612284576000612286565b835b6040808701516000908152600660205220549063ffffffff6128ad16565b6040808601516000908152600660205281812092909255608086015182529020546122d5908463ffffffff6128ad16565b60808501516000908152600660205260408082209290925560c086015181522054612306908463ffffffff6128ad16565b60c0850151600090815260066020526040902055600c81015460088201546005830154600284015461236893600160a060020a0316926123639288926123579291610b5e919063ffffffff6128ad16565b9063ffffffff612a6416565b6129c1565b6007810154600882015461239791600160a060020a03169061236390869061235790601e63ffffffff61293316565b6006810154604051600160a060020a03909116907f692ad61076dceddd0f1a861f737553dd61fc8501cf4190d29c4e90af6607f765906123d89085906139d3565b60405180910390a27fd811b592ed0899225773e8933d8df64bd0b62761a9d7aad4ed5b22735f4610a4828560000151866040015187608001518860c0015188604051612429969594939291906139e1565b60405180910390a150925050505b949350505050565b6000600160a060020a0384161580612468575082600160a060020a031684600160a060020a0316145b806106d057506040517f7ad8f72d0000000000000000000000000000000000000000000000000000000081527fff000000000000000000000000000000000000000000000000000000000000008316908390600160a060020a03871690637ad8f72d906124d9908890600401613912565b60206040518083038186803b1580156124f157600080fd5b505afa158015612505573d6000803e3d6000fd5b505050506040513d601f19601f8201168201806040525061252991908101906131cc565b167fff000000000000000000000000000000000000000000000000000000000000001614949350505050565b6040517f58b50586000000000000000000000000000000000000000000000000000000008152600090819073__IexecODBLibOrders_____________________906358b50586906125aa908690600401613a88565b60206040518083038186803b1580156125c257600080fd5b505af41580156125d6573d6000803e3d6000fd5b505050506040513d601f19601f820116820180604052506125fa9190810190613208565b90508260000151600160a060020a031663deff41c16040518163ffffffff1660e060020a02815260040160206040518083038186803b15801561263c57600080fd5b505afa158015612650573d6000803e3d6000fd5b505050506040513d601f19601f820116820180604052506126749190810190613100565b600160a060020a0316331461268857600080fd5b6040808401516000838152600660205282902055517f145ad51e4496173bca15e24e7eb46f9ab3a10eea0497e2801a3a6806c06113a39061084f9083906139d3565b60009081526007602052604090205460ff1690565b60008160000151600160a060020a031663deff41c16040518163ffffffff1660e060020a02815260040160206040518083038186803b15801561272157600080fd5b505afa158015612735573d6000803e3d6000fd5b505050506040513d601f19601f820116820180604052506127599190810190613100565b600160a060020a0316331461276d57600080fd5b6040517f58b5058600000000000000000000000000000000000000000000000000000000815260019060079060009073__IexecODBLibOrders_____________________906358b5058690610d8d908890600401613a88565b633b9aca0081565b600254600160a060020a031633146127e557600080fd5b6000828152600560205260409020601301546105d29082906129c1565b600054600160a060020a031681565b600160a060020a0382166000908152600160208190526040909120015461283e908263ffffffff61289b16565b600160a060020a0383166000908152600160208190526040918290200191909155517f4051ba94e08bb094159fc38391422b4b8ccfd2b1f8919c0eb37bb042d4b9cd8e9061288f90849084906139a6565b60405180910390a15050565b6000828211156128a757fe5b50900390565b6000828201838110156106d357fe5b600160a060020a0382166000908152600160205260409020546128e5908263ffffffff6128ad16565b600160a060020a0383166000908152600160205260409081902091909155517f619caafabdd75649b302ba8419e48cccf64f37f1983ac4727cfb38b57703ffc99061288f90849084906139a6565b60006106d383836064612a8c565b600160a060020a0382166000908152600160208190526040909120015461296e908263ffffffff61289b16565b600160a060020a038316600090815260016020819052604090912090810191909155546129a1908263ffffffff6128ad16565b600160a060020a0390921660009081526001602052604090209190915550565b600160a060020a0382166000908152600160205260409020546129ea908263ffffffff61289b16565b600160a060020a03831660009081526001602081905260409091209182550154612a1a908263ffffffff6128ad16565b600160a060020a039092166000908152600160208190526040909120019190915550565b600081831015612a4e57816106d3565b5090919050565b6000818310612a4e57816106d3565b6000821515612a7557506000610ab2565b828202828482811515612a8457fe5b04146106d357fe5b60006106d0612a9b8585612a64565b836000808284811515612aaa57fe5b04949350505050565b604080518082019091526000808252602082015290565b6102a060405190810160405280612adf612c33565b8152602001612aec612c33565b8152602001612af9612c33565b81526020016000815260200160008152602001600080191681526020016000600160a060020a031681526020016000600160a060020a031681526020016000600160a060020a031681526020016060815260200160008152602001600081526020016000815260200160008152602001600081525090565b6040805161010081018252600080825260208201819052918101829052606081018290526080810182905260a0810182905260c0810182905260e081019190915290565b828054600181600116156101000203166002900490600052602060002090601f016020900481019282601f10612bf657805160ff1916838001178555612c23565b82800160010185558215612c23579182015b82811115612c23578251825591602001919060010190612c08565b50612c2f929150612c53565b5090565b604080516060810182526000808252602082018190529181019190915290565b612c6d91905b80821115612c2f5760008155600101612c59565b90565b60006106d38235613af0565b60006106d38251613af0565b60006106d38251613afb565b60006106d38235613b12565b60006106d38251613b12565b60006106d38235612c6d565b60006106d38251612c6d565b6000601f82018313612cd557600080fd5b8135612ce8612ce382613abe565b613a97565b91508082526020830160208301858383011115612d0457600080fd5b612d0f838284613b49565b50505092915050565b60006101608284031215612d2b57600080fd5b612d36610120613a97565b90506000612d448484612c70565b8252506020612d5584848301612cac565b6020830152506040612d6984828501612cac565b6040830152506060612d7d84828501612cac565b6060830152506080612d9184828501612c70565b60808301525060a0612da584828501612c70565b60a08301525060c0612db984828501612c70565b60c08301525060e0612dcd84828501612cac565b60e083015250610100612de28482850161307b565b6101008301525092915050565b60006102408284031215612e0257600080fd5b612e0d610200613a97565b90506000612e1b8484612c70565b8252506020612e2c84848301612cac565b6020830152506040612e4084828501612c70565b6040830152506060612e5484828501612cac565b6060830152506080612e6884828501612c70565b60808301525060a0612e7c84828501612cac565b60a08301525060c0612e9084828501612c70565b60c08301525060e0612ea484828501612cac565b60e083015250610100612eb984828501612cac565b61010083015250610120612ecf84828501612cac565b61012083015250610140612ee584828501612cac565b61014083015250610160612efb84828501612c70565b61016083015250610180612f1184828501612c70565b610180830152506101a082013567ffffffffffffffff811115612f3357600080fd5b612f3f84828501612cc4565b6101a0830152506101c0612f5584828501612cac565b6101c0830152506101e0612f6b8482850161307b565b6101e08301525092915050565b60006101a08284031215612f8b57600080fd5b612f96610160613a97565b90506000612fa48484612c70565b8252506020612fb584848301612cac565b6020830152506040612fc984828501612cac565b6040830152506060612fdd84828501612cac565b6060830152506080612ff184828501612cac565b60808301525060a061300584828501612cac565b60a08301525060c061301984828501612c70565b60c08301525060e061302d84828501612c70565b60e08301525061010061304284828501612c70565b6101008301525061012061305884828501612cac565b6101208301525061014061306e8482850161307b565b6101408301525092915050565b60006060828403121561308d57600080fd5b6130976060613a97565b905060006130a584846130d6565b82525060206130b684848301612cac565b60208301525060406130ca84828501612cac565b60408301525092915050565b60006106d38235613b0c565b6000602082840312156130f457600080fd5b60006124378484612c70565b60006020828403121561311257600080fd5b60006124378484612c7c565b60008060006060848603121561313357600080fd5b600061313f8686612c70565b935050602061315086828701612c70565b925050604061316186828701612c94565b9150509250925092565b600080600060a0848603121561318057600080fd5b600061318c8686612c70565b935050602061319d86828701612cac565b92505060406131618682870161307b565b6000602082840312156131c057600080fd5b60006124378484612c88565b6000602082840312156131de57600080fd5b60006124378484612ca0565b6000602082840312156131fc57600080fd5b60006124378484612cac565b60006020828403121561321a57600080fd5b60006124378484612cb8565b6000806040838503121561323957600080fd5b60006132458585612cac565b925050602061325685828601612c70565b9150509250929050565b60008060006060848603121561327557600080fd5b60006132818686612cac565b935050602061329286828701612c70565b925050604061316186828701612cac565b600080604083850312156132b657600080fd5b60006132c28585612cac565b925050602061325685828601612cac565b600061016082840312156132e657600080fd5b60006124378484612d18565b600080600080610480858703121561330957600080fd5b60006133158787612d18565b94505061016061332787828801612d18565b9350506102c061333987828801612f78565b92505061046085013567ffffffffffffffff81111561335757600080fd5b61336387828801612def565b91505092959194509250565b60006020828403121561338157600080fd5b813567ffffffffffffffff81111561339857600080fd5b61243784828501612def565b60006101a082840312156133b757600080fd5b60006124378484612f78565b6133cc81613b37565b82525050565b6133cc81613af0565b60006133e682613aec565b8084526020840193506133f883613ae6565b60005b828110156134285761340e86835161343b565b61341782613ae6565b6020969096019591506001016133fb565b5093949350505050565b6133cc81613afb565b6133cc81612c6d565b6133cc81613b3e565b600061345882613aec565b80845261346c816020860160208601613b55565b61347581613b81565b9093016020019392505050565b80516040830190613493848261343b565b506020820151610bcf602085018261343b565b80516101608301906134b884826133d2565b5060208201516134cb602085018261343b565b5060408201516134de604085018261343b565b5060608201516134f1606085018261343b565b50608082015161350460808501826133d2565b5060a082015161351760a08501826133d2565b5060c082015161352a60c08501826133d2565b5060e082015161353d60e085018261343b565b50610100820151610bcf6101008501826138e5565b80516000906102a084019061356785826137dc565b50602083015161357a60608601826137dc565b50604083015161358d60c08601826137dc565b5060608301516135a161012086018261343b565b5060808301516135b561014086018261343b565b5060a08301516135c961016086018261343b565b5060c08301516135dd6101808601826133d2565b5060e08301516135f16101a08601826133d2565b506101008301516136066101c08601826133d2565b506101208301518482036101e0860152613620828261344d565b91505061014083015161363761020086018261343b565b5061016083015161364c61022086018261343b565b5061018083015161366161024086018261343b565b506101a083015161367661026086018261343b565b506101c083015161368b61028086018261343b565b509392505050565b80516000906102408401906136a885826133d2565b5060208301516136bb602086018261343b565b5060408301516136ce60408601826133d2565b5060608301516136e1606086018261343b565b5060808301516136f460808601826133d2565b5060a083015161370760a086018261343b565b5060c083015161371a60c08601826133d2565b5060e083015161372d60e086018261343b565b5061010083015161374261010086018261343b565b5061012083015161375761012086018261343b565b5061014083015161376c61014086018261343b565b506101608301516137816101608601826133d2565b506101808301516137966101808601826133d2565b506101a08301518482036101a08601526137b0828261344d565b9150506101c08301516137c76101c086018261343b565b506101e083015161368b6101e08601826138e5565b805160608301906137ed84826133d2565b50602082015161380060208501826133d2565b506040820151610bcf604085018261343b565b80516101a083019061382584826133d2565b506020820151613838602085018261343b565b50604082015161384b604085018261343b565b50606082015161385e606085018261343b565b506080820151613871608085018261343b565b5060a082015161388460a085018261343b565b5060c082015161389760c08501826133d2565b5060e08201516138aa60e08501826133d2565b506101008201516138bf6101008501826133d2565b506101208201516138d461012085018261343b565b50610140820151610bcf6101408501825b805160608301906138f68482613909565b506020820151613800602085018261343b565b6133cc81613b0c565b60208101610ab282846133d2565b6060810161392e82866133c3565b61393b60208301856133d2565b612437604083018461343b565b6040810161395682856133c3565b6106d3602083018461343b565b6060810161397182866133c3565b61397e602083018561343b565b61243760408301846133d2565b6060810161399982866133d2565b61397e60208301856133d2565b6040810161395682856133d2565b602080825281016106d381846133db565b60208101610ab28284613432565b60208101610ab2828461343b565b60c081016139ef828961343b565b6139fc602083018861343b565b613a09604083018761343b565b613a16606083018661343b565b613a23608083018561343b565b613a3060a083018461343b565b979650505050505050565b60208101610ab28284613444565b60408101610ab28284613482565b6101608101610ab282846134a6565b602080825281016106d38184613552565b602080825281016106d38184613693565b6101a08101610ab28284613813565b60405181810167ffffffffffffffff81118282101715613ab657600080fd5b604052919050565b600067ffffffffffffffff821115613ad557600080fd5b506020601f91909101601f19160190565b60200190565b5190565b6000610ab282613b00565b151590565b600160a060020a031690565b60ff1690565b7fff000000000000000000000000000000000000000000000000000000000000001690565b6000610ab2825b6000610ab282613af0565b82818337506000910152565b60005b83811015613b70578181015183820152602001613b58565b83811115610bcf5750506000910152565b601f01601f19169056fea265627a7a72305820d19f2acbd36e5205d92db0305f3b08c8e4238eb6ee99d53fc50e4c04be4414566c6578706572696d656e74616cf50037",
  "source": "pragma solidity ^0.5.0;\npragma experimental ABIEncoderV2;\n\nimport \"./libs/IexecODBLibCore.sol\";\nimport \"./libs/IexecODBLibOrders.sol\";\nimport \"./libs/SafeMathOZ.sol\";\nimport \"./registries/App.sol\";\nimport \"./registries/Dataset.sol\";\nimport \"./registries/Workerpool.sol\";\nimport \"./permissions/GroupInterface.sol\";\n\nimport \"./Escrow.sol\";\nimport \"./IexecHubAccessor.sol\";\n\ncontract IexecClerk is Escrow, IexecHubAccessor\n{\n\tusing SafeMathOZ for uint256;\n\tusing IexecODBLibOrders for *;\n\n\t/***************************************************************************\n\t *                                Constants                                *\n\t ***************************************************************************/\n\tuint256 public constant WORKERPOOL_STAKE_RATIO = 30;\n\tuint256 public constant KITTY_RATIO            = 10;\n\tuint256 public constant KITTY_MIN              = 1000000000; // TODO: 1RLC ?\n\n\t/***************************************************************************\n\t *                            EIP712 signature                             *\n\t ***************************************************************************/\n\tbytes32 public /* immutable */ EIP712DOMAIN_SEPARATOR;\n\n\t/***************************************************************************\n\t *                               Clerk data                                *\n\t ***************************************************************************/\n\tmapping(bytes32 => bytes32[]           ) m_requestdeals;\n\tmapping(bytes32 => IexecODBLibCore.Deal) m_deals;\n\tmapping(bytes32 => uint256             ) m_consumed;\n\tmapping(bytes32 => bool                ) m_presigned;\n\n\t/***************************************************************************\n\t *                                 Events                                  *\n\t ***************************************************************************/\n\tevent OrdersMatched        (bytes32 dealid, bytes32 appHash, bytes32 datasetHash, bytes32 workerpoolHash, bytes32 requestHash, uint256 volume);\n\tevent ClosedAppOrder       (bytes32 appHash);\n\tevent ClosedDatasetOrder   (bytes32 datasetHash);\n\tevent ClosedWorkerpoolOrder(bytes32 workerpoolHash);\n\tevent ClosedRequestOrder   (bytes32 requestHash);\n\tevent SchedulerNotice      (address indexed workerpool, bytes32 dealid);\n\n\t/***************************************************************************\n\t *                               Constructor                               *\n\t ***************************************************************************/\n\tconstructor(\n\t\taddress _token,\n\t\taddress _iexechub,\n\t\tuint256 _chainid)\n\tpublic\n\tEscrow(_token)\n\tIexecHubAccessor(_iexechub)\n\t{\n\t\tEIP712DOMAIN_SEPARATOR = IexecODBLibOrders.EIP712Domain({\n\t\t\tname:              \"iExecODB\"\n\t\t, version:           \"3.0-alpha\"\n\t\t, chainId:           _chainid\n\t\t, verifyingContract: address(this)\n\t\t}).hash();\n\t}\n\n\t/***************************************************************************\n\t *                                Accessor                                 *\n\t ***************************************************************************/\n\tfunction viewRequestDeals(bytes32 _id)\n\tpublic view returns (bytes32[] memory requestdeals)\n\t{\n\t\treturn m_requestdeals[_id];\n\t}\n\n\tfunction viewDeal(bytes32 _id)\n\tpublic view returns (IexecODBLibCore.Deal memory deal)\n\t{\n\t\treturn m_deals[_id];\n\t}\n\n\tfunction viewConsumed(bytes32 _id)\n\tpublic view returns (uint256 consumed)\n\t{\n\t\treturn m_consumed[_id];\n\t}\n\n\tfunction viewPresigned(bytes32 _id)\n\tpublic view returns (bool presigned)\n\t{\n\t\treturn m_presigned[_id];\n\t}\n\n\t/***************************************************************************\n\t *                         Enterprise restriction                          *\n\t ***************************************************************************/\n\t/*\n\tfunction isContract(address addr)\n\tpublic view returns (bool)\n\t{\n\t\tuint size;\n\t\tassembly { size := extcodesize(addr) }\n\t\treturn size > 0;\n\t}\n\t*/\n\n\t// Fails fail for wrong simple addresses\n\tfunction checkRestriction(address _restriction, address _candidate, bytes1 _mask)\n\tpublic view returns (bool)\n\t{\n\t\treturn _restriction == address(0) // No restriction\n\t\t    || _restriction == _candidate // Simple address\n\t\t    || GroupInterface(_restriction).viewPermissions(_candidate) & _mask == _mask;  // Permission group\n\t}\n\n\t/***************************************************************************\n\t *                       Hashing and signature tools                       *\n\t ***************************************************************************/\n\tfunction verify(\n\t\taddress                            _signer,\n\t\tbytes32                            _hash,\n\t\tIexecODBLibOrders.signature memory _signature)\n\tpublic view returns (bool)\n\t{\n\t\treturn _signer == ecrecover(\n\t\t\tkeccak256(abi.encodePacked(\"\\x19\\x01\", EIP712DOMAIN_SEPARATOR, _hash)),\n\t\t\t_signature.v,\n\t\t\t_signature.r,\n\t\t\t_signature.s\n\t\t) || m_presigned[_hash];\n\t}\n\n\t/***************************************************************************\n\t *                            pre-signing tools                            *\n\t ***************************************************************************/\n\tfunction signAppOrder(IexecODBLibOrders.AppOrder memory _apporder)\n\tpublic returns (bool)\n\t{\n\t\trequire(msg.sender == App(_apporder.app).m_owner());\n\t\tm_presigned[_apporder.hash()] = true;\n\t\treturn true;\n\t}\n\n\tfunction signDatasetOrder(IexecODBLibOrders.DatasetOrder memory _datasetorder)\n\tpublic returns (bool)\n\t{\n\t\trequire(msg.sender == Dataset(_datasetorder.dataset).m_owner());\n\t\tm_presigned[_datasetorder.hash()] = true;\n\t\treturn true;\n\t}\n\n\tfunction signWorkerpoolOrder(IexecODBLibOrders.WorkerpoolOrder memory _workerpoolorder)\n\tpublic returns (bool)\n\t{\n\t\trequire(msg.sender == Workerpool(_workerpoolorder.workerpool).m_owner());\n\t\tm_presigned[_workerpoolorder.hash()] = true;\n\t\treturn true;\n\t}\n\n\tfunction signRequestOrder(IexecODBLibOrders.RequestOrder memory _requestorder)\n\tpublic returns (bool)\n\t{\n\t\trequire(msg.sender == _requestorder.requester);\n\t\tm_presigned[_requestorder.hash()] = true;\n\t\treturn true;\n\t}\n\n\t/***************************************************************************\n\t *                              Clerk methods                              *\n\t ***************************************************************************/\n\tstruct Identities\n\t{\n\t\tbytes32 appHash;\n\t\taddress appOwner;\n\t\tbytes32 datasetHash;\n\t\taddress datasetOwner;\n\t\tbytes32 workerpoolHash;\n\t\taddress workerpoolOwner;\n\t\tbytes32 requestHash;\n\t\tbool    hasDataset;\n\t}\n\n\tfunction matchOrders(\n\t\tIexecODBLibOrders.AppOrder        memory _apporder,\n\t\tIexecODBLibOrders.DatasetOrder    memory _datasetorder,\n\t\tIexecODBLibOrders.WorkerpoolOrder memory _workerpoolorder,\n\t\tIexecODBLibOrders.RequestOrder    memory _requestorder)\n\tpublic returns (bytes32)\n\t{\n\t\t/**\n\t\t * Check orders compatibility\n\t\t */\n\n\t\t// computation environment & allowed enough funds\n\t\trequire(_requestorder.category           == _workerpoolorder.category       );\n\t\trequire(_requestorder.trust              <= _workerpoolorder.trust          );\n\t\trequire(_requestorder.appmaxprice        >= _apporder.appprice              );\n\t\trequire(_requestorder.datasetmaxprice    >= _datasetorder.datasetprice      );\n\t\trequire(_requestorder.workerpoolmaxprice >= _workerpoolorder.workerpoolprice);\n\t\trequire((_apporder.tag | _datasetorder.tag | _requestorder.tag) & ~_workerpoolorder.tag == 0x0);\n\n\t\t// Check matching and restrictions\n\t\trequire(_requestorder.app     == _apporder.app        );\n\t\trequire(_requestorder.dataset == _datasetorder.dataset);\n\t\trequire(checkRestriction(_requestorder.workerpool,           _workerpoolorder.workerpool, 0x01 /*IexecPermission.SUBMIT*/ )); // requestorder.workerpool is a restriction\n\t\trequire(checkRestriction(_apporder.datasetrestrict,          _datasetorder.dataset,       0x01 /*IexecPermission.SUBMIT*/ ));\n\t\trequire(checkRestriction(_apporder.workerpoolrestrict,       _workerpoolorder.workerpool, 0x01 /*IexecPermission.SUBMIT*/ ));\n\t\trequire(checkRestriction(_apporder.requesterrestrict,        _requestorder.requester,     0x01 /*IexecPermission.SUBMIT*/ ));\n\t\trequire(checkRestriction(_datasetorder.apprestrict,          _apporder.app,               0x01 /*IexecPermission.SUBMIT*/ ));\n\t\trequire(checkRestriction(_datasetorder.workerpoolrestrict,   _workerpoolorder.workerpool, 0x01 /*IexecPermission.SUBMIT*/ ));\n\t\trequire(checkRestriction(_datasetorder.requesterrestrict,    _requestorder.requester,     0x01 /*IexecPermission.SUBMIT*/ ));\n\t\trequire(checkRestriction(_workerpoolorder.apprestrict,       _apporder.app,               0x01 /*IexecPermission.SUBMIT*/ ));\n\t\trequire(checkRestriction(_workerpoolorder.datasetrestrict,   _datasetorder.dataset,       0x01 /*IexecPermission.SUBMIT*/ ));\n\t\trequire(checkRestriction(_workerpoolorder.requesterrestrict, _requestorder.requester,     0x01 /*IexecPermission.SUBMIT*/ ));\n\n\t\trequire(iexechub.checkResources(_apporder.app, _datasetorder.dataset, _workerpoolorder.workerpool));\n\n\t\t/**\n\t\t * Check orders authenticity\n\t\t */\n\t\tIdentities memory ids;\n\t\tids.hasDataset = _datasetorder.dataset != address(0);\n\n\t\t// app\n\t\tids.appHash  = _apporder.hash();\n\t\tids.appOwner = App(_apporder.app).m_owner();\n\t\trequire(verify(ids.appOwner, ids.appHash, _apporder.sign));\n\n\t\t// dataset\n\t\tif (ids.hasDataset) // only check if dataset is enabled\n\t\t{\n\t\t\tids.datasetHash  = _datasetorder.hash();\n\t\t\tids.datasetOwner = Dataset(_datasetorder.dataset).m_owner();\n\t\t\trequire(verify(ids.datasetOwner, ids.datasetHash, _datasetorder.sign));\n\t\t}\n\n\t\t// workerpool\n\t\tids.workerpoolHash  = _workerpoolorder.hash();\n\t\tids.workerpoolOwner = Workerpool(_workerpoolorder.workerpool).m_owner();\n\t\trequire(verify(ids.workerpoolOwner, ids.workerpoolHash, _workerpoolorder.sign));\n\n\t\t// request\n\t\tids.requestHash = _requestorder.hash();\n\t\trequire(verify(_requestorder.requester, ids.requestHash, _requestorder.sign));\n\n\t\t/**\n\t\t * Check availability\n\t\t */\n\t\tuint256 volume;\n\t\tvolume =                             _apporder.volume.sub       (m_consumed[ids.appHash       ]);\n\t\tvolume = ids.hasDataset ? volume.min(_datasetorder.volume.sub   (m_consumed[ids.datasetHash   ])) : volume;\n\t\tvolume =                  volume.min(_workerpoolorder.volume.sub(m_consumed[ids.workerpoolHash]));\n\t\tvolume =                  volume.min(_requestorder.volume.sub   (m_consumed[ids.requestHash   ]));\n\t\trequire(volume > 0);\n\n\t\t/**\n\t\t * Record\n\t\t */\n\t\tbytes32 dealid = keccak256(abi.encodePacked(\n\t\t\tids.requestHash,            // requestHash\n\t\t\tm_consumed[ids.requestHash] // idx of first subtask\n\t\t));\n\n\t\tIexecODBLibCore.Deal storage deal = m_deals[dealid];\n\t\tdeal.app.pointer          = _apporder.app;\n\t\tdeal.app.owner            = ids.appOwner;\n\t\tdeal.app.price            = _apporder.appprice;\n\t\tdeal.dataset.owner        = ids.datasetOwner;\n\t\tdeal.dataset.pointer      = _datasetorder.dataset;\n\t\tdeal.dataset.price        = ids.hasDataset ? _datasetorder.datasetprice : 0;\n\t\tdeal.workerpool.pointer   = _workerpoolorder.workerpool;\n\t\tdeal.workerpool.owner     = ids.workerpoolOwner;\n\t\tdeal.workerpool.price     = _workerpoolorder.workerpoolprice;\n\t\tdeal.trust                = _requestorder.trust.max(1);\n\t\tdeal.category             = _requestorder.category;\n\t\tdeal.tag                  = _apporder.tag | _datasetorder.tag | _requestorder.tag;\n\t\tdeal.requester            = _requestorder.requester;\n\t\tdeal.beneficiary          = _requestorder.beneficiary;\n\t\tdeal.callback             = _requestorder.callback;\n\t\tdeal.params               = _requestorder.params;\n\t\tdeal.startTime            = now;\n\t\tdeal.botFirst             = m_consumed[ids.requestHash];\n\t\tdeal.botSize              = volume;\n\t\tdeal.workerStake          = _workerpoolorder.workerpoolprice.percentage(Workerpool(_workerpoolorder.workerpool).m_workerStakeRatioPolicy());\n\t\tdeal.schedulerRewardRatio = Workerpool(_workerpoolorder.workerpool).m_schedulerRewardRatioPolicy();\n\n\t\tm_requestdeals[ids.requestHash].push(dealid);\n\n\t\t/**\n\t\t * Update consumed\n\t\t */\n\t\tm_consumed[ids.appHash       ] = m_consumed[ids.appHash       ].add(                 volume    );\n\t\tm_consumed[ids.datasetHash   ] = m_consumed[ids.datasetHash   ].add(ids.hasDataset ? volume : 0);\n\t\tm_consumed[ids.workerpoolHash] = m_consumed[ids.workerpoolHash].add(                 volume    );\n\t\tm_consumed[ids.requestHash   ] = m_consumed[ids.requestHash   ].add(                 volume    );\n\n\t\t/**\n\t\t * Lock\n\t\t */\n\t\tlock(\n\t\t\tdeal.requester,\n\t\t\tdeal.app.price\n\t\t\t.add(deal.dataset.price)\n\t\t\t.add(deal.workerpool.price)\n\t\t\t.mul(volume)\n\t\t);\n\t\tlock(\n\t\t\tdeal.workerpool.owner,\n\t\t\tdeal.workerpool.price\n\t\t\t.percentage(WORKERPOOL_STAKE_RATIO) // ORDER IS IMPORTANT HERE!\n\t\t\t.mul(volume)                        // ORDER IS IMPORTANT HERE!\n\t\t);\n\n\t\t/**\n\t\t * Advertize deal\n\t\t */\n\t\temit SchedulerNotice(deal.workerpool.pointer, dealid);\n\n\t\t/**\n\t\t * Advertize consumption\n\t\t */\n\t\temit OrdersMatched(\n\t\t\tdealid,\n\t\t\tids.appHash,\n\t\t\tids.datasetHash,\n\t\t\tids.workerpoolHash,\n\t\t\tids.requestHash,\n\t\t\tvolume\n\t\t);\n\n\t\treturn dealid;\n\t}\n\n\tfunction cancelAppOrder(IexecODBLibOrders.AppOrder memory _apporder)\n\tpublic returns (bool)\n\t{\n\t\tbytes32 dapporderHash = _apporder.hash();\n\t\trequire(msg.sender == App(_apporder.app).m_owner());\n\t\t// require(verify(msg.sender, dapporderHash, _apporder.sign));\n\t\tm_consumed[dapporderHash] = _apporder.volume;\n\t\temit ClosedAppOrder(dapporderHash);\n\t\treturn true;\n\t}\n\n\tfunction cancelDatasetOrder(IexecODBLibOrders.DatasetOrder memory _datasetorder)\n\tpublic returns (bool)\n\t{\n\t\tbytes32 dataorderHash = _datasetorder.hash();\n\t\trequire(msg.sender == Dataset(_datasetorder.dataset).m_owner());\n\t\t// require(verify(msg.sender, dataorderHash, _datasetorder.sign));\n\t\tm_consumed[dataorderHash] = _datasetorder.volume;\n\t\temit ClosedDatasetOrder(dataorderHash);\n\t\treturn true;\n\t}\n\n\tfunction cancelWorkerpoolOrder(IexecODBLibOrders.WorkerpoolOrder memory _workerpoolorder)\n\tpublic returns (bool)\n\t{\n\t\tbytes32 poolorderHash = _workerpoolorder.hash();\n\t\trequire(msg.sender == Workerpool(_workerpoolorder.workerpool).m_owner());\n\t\t// require(verify(msg.sender, poolorderHash, _workerpoolorder.sign));\n\t\tm_consumed[poolorderHash] = _workerpoolorder.volume;\n\t\temit ClosedWorkerpoolOrder(poolorderHash);\n\t\treturn true;\n\t}\n\n\tfunction cancelRequestOrder(IexecODBLibOrders.RequestOrder memory _requestorder)\n\tpublic returns (bool)\n\t{\n\t\tbytes32 requestorderHash = _requestorder.hash();\n\t\trequire(msg.sender == _requestorder.requester);\n\t\t// require(verify(msg.sender, requestorderHash, _requestorder.sign));\n\t\tm_consumed[requestorderHash] = _requestorder.volume;\n\t\temit ClosedRequestOrder(requestorderHash);\n\t\treturn true;\n\t}\n\n\t/***************************************************************************\n\t *                    Escrow overhead for contribution                     *\n\t ***************************************************************************/\n\tfunction lockContribution(bytes32 _dealid, address _worker)\n\tpublic onlyIexecHub\n\t{\n\t\tlock(_worker, m_deals[_dealid].workerStake);\n\t}\n\n\tfunction unlockContribution(bytes32 _dealid, address _worker)\n\tpublic onlyIexecHub\n\t{\n\t\tunlock(_worker, m_deals[_dealid].workerStake);\n\t}\n\n\tfunction unlockAndRewardForContribution(bytes32 _dealid, address _worker, uint256 _amount)\n\tpublic onlyIexecHub\n\t{\n\t\tunlock(_worker, m_deals[_dealid].workerStake);\n\t\treward(_worker, _amount);\n\t}\n\n\tfunction seizeContribution(bytes32 _dealid, address _worker)\n\tpublic onlyIexecHub\n\t{\n\t\tseize(_worker, m_deals[_dealid].workerStake);\n\t}\n\n\tfunction rewardForScheduling(bytes32 _dealid, uint256 _amount)\n\tpublic onlyIexecHub\n\t{\n\t\treward(m_deals[_dealid].workerpool.owner, _amount);\n\t}\n\n\tfunction successWork(bytes32 _dealid)\n\tpublic onlyIexecHub\n\t{\n\t\tIexecODBLibCore.Deal storage deal = m_deals[_dealid];\n\n\t\tuint256 requesterstake = deal.app.price\n\t\t                         .add(deal.dataset.price)\n\t\t                         .add(deal.workerpool.price);\n\t\tuint256 poolstake = deal.workerpool.price\n\t\t                    .percentage(WORKERPOOL_STAKE_RATIO);\n\n\t\t// seize requester funds\n\t\tseize (deal.requester, requesterstake);\n\t\t// unlock pool stake\n\t\tunlock(deal.workerpool.owner, poolstake);\n\t\t// dapp reward\n\t\treward(deal.app.owner, deal.app.price);\n\t\t// data reward\n\t\tif (deal.dataset.pointer != address(0))\n\t\t{\n\t\t\treward(deal.dataset.owner, deal.dataset.price);\n\t\t}\n\t\t// pool reward performed by consensus manager\n\n\t\t/**\n\t\t * Retrieve part of the kitty\n\t\t * TODO: remove / keep ?\n\t\t */\n\t\tuint256 kitty = viewAccount(address(0)).locked;\n\t\tif (kitty > 0)\n\t\t{\n\t\t\tkitty = kitty\n\t\t\t        .percentage(KITTY_RATIO) // fraction\n\t\t\t        .max(KITTY_MIN)          // at least this\n\t\t\t        .min(kitty);             // but not more than available\n\t\t\tseize (address(0),            kitty);\n\t\t\treward(deal.workerpool.owner, kitty);\n\t\t}\n\t}\n\n\tfunction failedWork(bytes32 _dealid)\n\tpublic onlyIexecHub\n\t{\n\t\tIexecODBLibCore.Deal storage deal = m_deals[_dealid];\n\n\t\tuint256 requesterstake = deal.app.price\n\t\t                         .add(deal.dataset.price)\n\t\t                         .add(deal.workerpool.price);\n\t\tuint256 poolstake = deal.workerpool.price\n\t\t                    .percentage(WORKERPOOL_STAKE_RATIO);\n\n\t\tunlock(deal.requester,        requesterstake);\n\t\tseize (deal.workerpool.owner, poolstake     );\n\t\treward(address(0),            poolstake     ); //  Kitty / Burn\n\t\tlock  (address(0),            poolstake     ); //  Kitty / Burn\n\t}\n\n}\n",
  "sourcePath": "/home/amxx/Work/iExec/code/PoCo-dev/contracts/IexecClerk.sol",
  "compiler": {
    "name": "solc",
    "version": "0.5.0+commit.1d4f565a.Emscripten.clang"
  },
  "schemaVersion": "3.0.0",
  "updatedAt": "2019-01-04T10:58:29.730Z",
  "devdoc": {
    "methods": {}
  },
  "userdoc": {
    "methods": {
      "checkRestriction(address,address,bytes1)": {
        "notice": "*************************************************************************                        Enterprise restriction                          ***************************************************************************"
      },
      "constructor": "*************************************************************************                              Constructor                               ***************************************************************************",
      "deposit(uint256)": {
        "notice": "Wallet methods: public"
      },
      "lockContribution(bytes32,address)": {
        "notice": "*************************************************************************                   Escrow overhead for contribution                     ***************************************************************************"
      },
      "signAppOrder((address,uint256,uint256,bytes32,address,address,address,bytes32,(uint8,bytes32,bytes32)))": {
        "notice": "*************************************************************************                           pre-signing tools                            ***************************************************************************"
      },
      "verify(address,bytes32,(uint8,bytes32,bytes32))": {
        "notice": "*************************************************************************                      Hashing and signature tools                       ***************************************************************************"
      },
      "viewAccount(address)": {
        "notice": "Accessor"
      },
      "viewRequestDeals(bytes32)": {
        "notice": "*************************************************************************                               Accessor                                 ***************************************************************************"
      }
    }
  }
}