{
  "contractName": "IexecPermission",
  "abi": [
    {
      "constant": true,
      "inputs": [],
      "name": "ADMIN",
      "outputs": [
        {
          "name": "",
          "type": "bytes1"
        }
      ],
      "payable": false,
      "stateMutability": "view",
      "type": "function"
    },
    {
      "constant": true,
      "inputs": [],
      "name": "SUBMIT",
      "outputs": [
        {
          "name": "",
          "type": "bytes1"
        }
      ],
      "payable": false,
      "stateMutability": "view",
      "type": "function"
    },
    {
      "constant": true,
      "inputs": [],
      "name": "ACCESS",
      "outputs": [
        {
          "name": "",
          "type": "bytes1"
        }
      ],
      "payable": false,
      "stateMutability": "view",
      "type": "function"
    }
  ],
  "bytecode": "0x61018e610030600b82828239805160001a6073146000811461002057610022565bfe5b5030600052607381538281f3fe730000000000000000000000000000000000000000301460806040526004361061006d5763ffffffff7c01000000000000000000000000000000000000000000000000000000006000350416632a0acc6a811461007257806342fa44e014610090578063c3d75b7c14610098575b600080fd5b61007a6100a0565b604051610087919061011b565b60405180910390f35b61007a6100c4565b61007a6100e8565b7f040000000000000000000000000000000000000000000000000000000000000081565b7f010000000000000000000000000000000000000000000000000000000000000081565b7f020000000000000000000000000000000000000000000000000000000000000081565b6101158161012f565b82525050565b60208101610129828461010c565b92915050565b7fff00000000000000000000000000000000000000000000000000000000000000169056fea265627a7a723058207d92547162e37c842e0433097e3cc7ec3ab9ef02493522ecbd0cd29b03170ec26c6578706572696d656e74616cf50037",
  "source": "pragma solidity ^0.5.0;\npragma experimental ABIEncoderV2;\n\nlibrary IexecPermission\n{\n\tbytes1 public constant SUBMIT = 0x01;\n\tbytes1 public constant ACCESS = 0x02;\n\tbytes1 public constant ADMIN  = 0x04;\n}\ninterface GroupInterface\n{\n\tfunction viewPermissions(address) external view returns (bytes1);\n}\n",
  "sourcePath": "/home/amxx/Work/iExec/code/PoCo-dev/contracts/permissions/GroupInterface.sol",
  "compiler": {
    "name": "solc",
    "version": "0.5.0+commit.1d4f565a.Emscripten.clang"
  },
  "schemaVersion": "3.0.1",
  "updatedAt": "2019-01-08T08:44:21.783Z",
  "devdoc": {
    "methods": {}
  },
  "userdoc": {
    "methods": {}
  }
}