{
  "contractName": "IexecODBLibOrders",
  "abi": [
    {
      "constant": true,
      "inputs": [],
      "name": "APPORDER_TYPEHASH",
      "outputs": [
        {
          "name": "",
          "type": "bytes32"
        }
      ],
      "payable": false,
      "stateMutability": "view",
      "type": "function",
      "signature": "0x207dbbfe"
    },
    {
      "constant": true,
      "inputs": [],
      "name": "WORKERPOOLORDER_TYPEHASH",
      "outputs": [
        {
          "name": "",
          "type": "bytes32"
        }
      ],
      "payable": false,
      "stateMutability": "view",
      "type": "function",
      "signature": "0x65db1dbb"
    },
    {
      "constant": true,
      "inputs": [],
      "name": "DATASETORDER_TYPEHASH",
      "outputs": [
        {
          "name": "",
          "type": "bytes32"
        }
      ],
      "payable": false,
      "stateMutability": "view",
      "type": "function",
      "signature": "0x6f84d2da"
    },
    {
      "constant": true,
      "inputs": [],
      "name": "REQUESTORDER_TYPEHASH",
      "outputs": [
        {
          "name": "",
          "type": "bytes32"
        }
      ],
      "payable": false,
      "stateMutability": "view",
      "type": "function",
      "signature": "0x9a6f72ee"
    },
    {
      "constant": true,
      "inputs": [],
      "name": "EIP712DOMAIN_TYPEHASH",
      "outputs": [
        {
          "name": "",
          "type": "bytes32"
        }
      ],
      "payable": false,
      "stateMutability": "view",
      "type": "function",
      "signature": "0xc49f91d3"
    },
    {
      "constant": true,
      "inputs": [
        {
          "components": [
            {
              "name": "app",
              "type": "address"
            },
            {
              "name": "appprice",
              "type": "uint256"
            },
            {
              "name": "volume",
              "type": "uint256"
            },
            {
              "name": "tag",
              "type": "bytes32"
            },
            {
              "name": "datasetrestrict",
              "type": "address"
            },
            {
              "name": "workerpoolrestrict",
              "type": "address"
            },
            {
              "name": "requesterrestrict",
              "type": "address"
            },
            {
              "name": "salt",
              "type": "bytes32"
            },
            {
              "components": [
                {
                  "name": "v",
                  "type": "uint8"
                },
                {
                  "name": "r",
                  "type": "bytes32"
                },
                {
                  "name": "s",
                  "type": "bytes32"
                }
              ],
              "name": "sign",
              "type": "tuple"
            }
          ],
          "name": "_apporder",
          "type": "tuple"
        }
      ],
      "name": "hash",
      "outputs": [
        {
          "name": "apphash",
          "type": "bytes32"
        }
      ],
      "payable": false,
      "stateMutability": "pure",
      "type": "function",
      "signature": "0x7b920911"
    },
    {
      "constant": true,
      "inputs": [
        {
          "components": [
            {
              "name": "app",
              "type": "address"
            },
            {
              "name": "appmaxprice",
              "type": "uint256"
            },
            {
              "name": "dataset",
              "type": "address"
            },
            {
              "name": "datasetmaxprice",
              "type": "uint256"
            },
            {
              "name": "workerpool",
              "type": "address"
            },
            {
              "name": "workerpoolmaxprice",
              "type": "uint256"
            },
            {
              "name": "requester",
              "type": "address"
            },
            {
              "name": "volume",
              "type": "uint256"
            },
            {
              "name": "tag",
              "type": "bytes32"
            },
            {
              "name": "category",
              "type": "uint256"
            },
            {
              "name": "trust",
              "type": "uint256"
            },
            {
              "name": "beneficiary",
              "type": "address"
            },
            {
              "name": "callback",
              "type": "address"
            },
            {
              "name": "params",
              "type": "string"
            },
            {
              "name": "salt",
              "type": "bytes32"
            },
            {
              "components": [
                {
                  "name": "v",
                  "type": "uint8"
                },
                {
                  "name": "r",
                  "type": "bytes32"
                },
                {
                  "name": "s",
                  "type": "bytes32"
                }
              ],
              "name": "sign",
              "type": "tuple"
            }
          ],
          "name": "_requestorder",
          "type": "tuple"
        }
      ],
      "name": "hash",
      "outputs": [
        {
          "name": "requesthash",
          "type": "bytes32"
        }
      ],
      "payable": false,
      "stateMutability": "pure",
      "type": "function",
      "signature": "0x6ea28ba6"
    },
    {
      "constant": true,
      "inputs": [
        {
          "components": [
            {
              "name": "dataset",
              "type": "address"
            },
            {
              "name": "datasetprice",
              "type": "uint256"
            },
            {
              "name": "volume",
              "type": "uint256"
            },
            {
              "name": "tag",
              "type": "bytes32"
            },
            {
              "name": "apprestrict",
              "type": "address"
            },
            {
              "name": "workerpoolrestrict",
              "type": "address"
            },
            {
              "name": "requesterrestrict",
              "type": "address"
            },
            {
              "name": "salt",
              "type": "bytes32"
            },
            {
              "components": [
                {
                  "name": "v",
                  "type": "uint8"
                },
                {
                  "name": "r",
                  "type": "bytes32"
                },
                {
                  "name": "s",
                  "type": "bytes32"
                }
              ],
              "name": "sign",
              "type": "tuple"
            }
          ],
          "name": "_datasetorder",
          "type": "tuple"
        }
      ],
      "name": "hash",
      "outputs": [
        {
          "name": "datasethash",
          "type": "bytes32"
        }
      ],
      "payable": false,
      "stateMutability": "pure",
      "type": "function",
      "signature": "0x7b920911"
    },
    {
      "constant": true,
      "inputs": [
        {
          "components": [
            {
              "name": "workerpool",
              "type": "address"
            },
            {
              "name": "workerpoolprice",
              "type": "uint256"
            },
            {
              "name": "volume",
              "type": "uint256"
            },
            {
              "name": "tag",
              "type": "bytes32"
            },
            {
              "name": "category",
              "type": "uint256"
            },
            {
              "name": "trust",
              "type": "uint256"
            },
            {
              "name": "apprestrict",
              "type": "address"
            },
            {
              "name": "datasetrestrict",
              "type": "address"
            },
            {
              "name": "requesterrestrict",
              "type": "address"
            },
            {
              "name": "salt",
              "type": "bytes32"
            },
            {
              "components": [
                {
                  "name": "v",
                  "type": "uint8"
                },
                {
                  "name": "r",
                  "type": "bytes32"
                },
                {
                  "name": "s",
                  "type": "bytes32"
                }
              ],
              "name": "sign",
              "type": "tuple"
            }
          ],
          "name": "_workerpoolorder",
          "type": "tuple"
        }
      ],
      "name": "hash",
      "outputs": [
        {
          "name": "workerpoolhash",
          "type": "bytes32"
        }
      ],
      "payable": false,
      "stateMutability": "pure",
      "type": "function",
      "signature": "0xf63417bd"
    },
    {
      "constant": true,
      "inputs": [
        {
          "components": [
            {
              "name": "name",
              "type": "string"
            },
            {
              "name": "version",
              "type": "string"
            },
            {
              "name": "chainId",
              "type": "uint256"
            },
            {
              "name": "verifyingContract",
              "type": "address"
            }
          ],
          "name": "_domain",
          "type": "tuple"
        }
      ],
      "name": "hash",
      "outputs": [
        {
          "name": "domainhash",
          "type": "bytes32"
        }
      ],
      "payable": false,
      "stateMutability": "pure",
      "type": "function",
      "signature": "0x4f4a2819"
    }
  ],
  "bytecode": "0x6109bd610030600b82828239805160001a6073146000811461002057610022565bfe5b5030600052607381538281f3fe73000000000000000000000000000000000000000030146080604052600436106100ba5763ffffffff7c01000000000000000000000000000000000000000000000000000000006000350416630495132981146100bf5780630813424e146100e8578063207dbbfe146100fb5780632bd4c7341461010357806358b505861461011657806365db1dbb146101295780636f84d2da146101315780639a6f72ee14610139578063c49f91d314610141578063eca34ccf14610149575b600080fd5b6100d26100cd366004610828565b61015c565b6040516100df91906108e7565b60405180910390f35b6100d26100f6366004610884565b61018f565b6100d26101d8565b6100d2610111366004610828565b6101fc565b6100d26101243660046108b9565b61022f565b6100d2610262565b6100d2610286565b6100d26102aa565b6100d26102ce565b6100d261015736600461084f565b6102f2565b601f190180517f60815a0eeec47dddf1615fe53b31d016c31444e01b9d796db365443a6445d00882526101208220915290565b6101a08101805180516020820120601f1990930180517ff24e853034a3a450aba845a82914fbb564ad85accca6cf62be112a154520fae082529383526102008120939052905290565b7f60815a0eeec47dddf1615fe53b31d016c31444e01b9d796db365443a6445d00881565b601f190180517f6cfc932a5a3d22c4359295b9f433edff52b60703fa47690a04a83e40933dd47c82526101208220915290565b601f190180517faa3429fb281b34691803133d3d978a75bb77c617ed6bc9aa162b9b30920022bb82526101608220915290565b7faa3429fb281b34691803133d3d978a75bb77c617ed6bc9aa162b9b30920022bb81565b7f6cfc932a5a3d22c4359295b9f433edff52b60703fa47690a04a83e40933dd47c81565b7ff24e853034a3a450aba845a82914fbb564ad85accca6cf62be112a154520fae081565b7f8b73c3c69bb8fe3d512ecc4cf759cc79239f7b179b0ffacaa9a75d522b39400f81565b805180516020808301919091208184018051805193810193909320601f19860180517f8b73c3c69bb8fe3d512ecc4cf759cc79239f7b179b0ffacaa9a75d522b39400f825293875290825260a0812092905292909352905290565b60006103598235610966565b9392505050565b6000610359823561094a565b6000601f8201831361037d57600080fd5b813561039061038b82610922565b6108fb565b915080825260208301602083018583830111156103ac57600080fd5b6103b7838284610977565b50505092915050565b600061016082840312156103d357600080fd5b6103de6101206108fb565b905060006103ec848461034d565b82525060206103fd84848301610360565b602083015250604061041184828501610360565b604083015250606061042584828501610360565b60608301525060806104398482850161034d565b60808301525060a061044d8482850161034d565b60a08301525060c06104618482850161034d565b60c08301525060e061047584828501610360565b60e08301525061010061048a848285016107c1565b6101008301525092915050565b6000608082840312156104a957600080fd5b6104b360806108fb565b9050813567ffffffffffffffff8111156104cc57600080fd5b6104d88482850161036c565b825250602082013567ffffffffffffffff8111156104f557600080fd5b6105018482850161036c565b602083015250604061051584828501610360565b60408301525060606105298482850161034d565b60608301525092915050565b6000610240828403121561054857600080fd5b6105536102006108fb565b90506000610561848461034d565b825250602061057284848301610360565b60208301525060406105868482850161034d565b604083015250606061059a84828501610360565b60608301525060806105ae8482850161034d565b60808301525060a06105c284828501610360565b60a08301525060c06105d68482850161034d565b60c08301525060e06105ea84828501610360565b60e0830152506101006105ff84828501610360565b6101008301525061012061061584828501610360565b6101208301525061014061062b84828501610360565b610140830152506101606106418482850161034d565b610160830152506101806106578482850161034d565b610180830152506101a082013567ffffffffffffffff81111561067957600080fd5b6106858482850161036c565b6101a0830152506101c061069b84828501610360565b6101c0830152506101e06106b1848285016107c1565b6101e08301525092915050565b60006101a082840312156106d157600080fd5b6106dc6101606108fb565b905060006106ea848461034d565b82525060206106fb84848301610360565b602083015250604061070f84828501610360565b604083015250606061072384828501610360565b606083015250608061073784828501610360565b60808301525060a061074b84828501610360565b60a08301525060c061075f8482850161034d565b60c08301525060e06107738482850161034d565b60e0830152506101006107888482850161034d565b6101008301525061012061079e84828501610360565b610120830152506101406107b4848285016107c1565b6101408301525092915050565b6000606082840312156107d357600080fd5b6107dd60606108fb565b905060006107eb848461081c565b82525060206107fc84848301610360565b602083015250604061081084828501610360565b60408301525092915050565b60006103598235610971565b6000610160828403121561083b57600080fd5b600061084784846103c0565b949350505050565b60006020828403121561086157600080fd5b813567ffffffffffffffff81111561087857600080fd5b61084784828501610497565b60006020828403121561089657600080fd5b813567ffffffffffffffff8111156108ad57600080fd5b61084784828501610535565b60006101a082840312156108cc57600080fd5b600061084784846106be565b6108e18161094a565b82525050565b602081016108f582846108d8565b92915050565b60405181810167ffffffffffffffff8111828210171561091a57600080fd5b604052919050565b600067ffffffffffffffff82111561093957600080fd5b506020601f91909101601f19160190565b90565b73ffffffffffffffffffffffffffffffffffffffff1690565b60006108f58261094d565b60ff1690565b8281833750600091015256fea265627a7a72305820d8d85135225e74bd4a900348ba091d817f064dc058e2e0937b4560c4be1f61e46c6578706572696d656e74616cf50037",
  "source": "pragma solidity ^0.5.0;\npragma experimental ABIEncoderV2;\n\nimport \"../../node_modules/iexec-solidity/contracts/Libs/ECDSA.sol\";\n\nlibrary IexecODBLibOrders\n{\n\t// bytes32 public constant    EIP712DOMAIN_TYPEHASH = keccak256(\"EIP712Domain(string name,string version,uint256 chainId,address verifyingContract)\");\n\t// bytes32 public constant        APPORDER_TYPEHASH = keccak256(\"AppOrder(address app,uint256 appprice,uint256 volume,bytes32 tag,address datasetrestrict,address workerpoolrestrict,address requesterrestrict,bytes32 salt)\");\n\t// bytes32 public constant    DATASETORDER_TYPEHASH = keccak256(\"DatasetOrder(address dataset,uint256 datasetprice,uint256 volume,bytes32 tag,address apprestrict,address workerpoolrestrict,address requesterrestrict,bytes32 salt)\");\n\t// bytes32 public constant WORKERPOOLORDER_TYPEHASH = keccak256(\"WorkerpoolOrder(address workerpool,uint256 workerpoolprice,uint256 volume,bytes32 tag,uint256 category,uint256 trust,address apprestrict,address datasetrestrict,address requesterrestrict,bytes32 salt)\");\n\t// bytes32 public constant    REQUESTORDER_TYPEHASH = keccak256(\"RequestOrder(address app,uint256 appmaxprice,address dataset,uint256 datasetmaxprice,address workerpool,uint256 workerpoolmaxprice,address requester,uint256 volume,bytes32 tag,uint256 category,uint256 trust,address beneficiary,address callback,string params,bytes32 salt)\");\n\tbytes32 public constant    EIP712DOMAIN_TYPEHASH = 0x8b73c3c69bb8fe3d512ecc4cf759cc79239f7b179b0ffacaa9a75d522b39400f;\n\tbytes32 public constant        APPORDER_TYPEHASH = 0x60815a0eeec47dddf1615fe53b31d016c31444e01b9d796db365443a6445d008;\n\tbytes32 public constant    DATASETORDER_TYPEHASH = 0x6cfc932a5a3d22c4359295b9f433edff52b60703fa47690a04a83e40933dd47c;\n\tbytes32 public constant WORKERPOOLORDER_TYPEHASH = 0xaa3429fb281b34691803133d3d978a75bb77c617ed6bc9aa162b9b30920022bb;\n\tbytes32 public constant    REQUESTORDER_TYPEHASH = 0xf24e853034a3a450aba845a82914fbb564ad85accca6cf62be112a154520fae0;\n\n\tstruct EIP712Domain\n\t{\n\t\tstring  name;\n\t\tstring  version;\n\t\tuint256 chainId;\n\t\taddress verifyingContract;\n\t}\n\tstruct AppOrder\n\t{\n\t\taddress app;\n\t\tuint256 appprice;\n\t\tuint256 volume;\n\t\tbytes32 tag;\n\t\taddress datasetrestrict;\n\t\taddress workerpoolrestrict;\n\t\taddress requesterrestrict;\n\t\tbytes32 salt;\n\t\tECDSA.signature sign;\n\t}\n\tstruct DatasetOrder\n\t{\n\t\taddress dataset;\n\t\tuint256 datasetprice;\n\t\tuint256 volume;\n\t\tbytes32 tag;\n\t\taddress apprestrict;\n\t\taddress workerpoolrestrict;\n\t\taddress requesterrestrict;\n\t\tbytes32 salt;\n\t\tECDSA.signature sign;\n\t}\n\tstruct WorkerpoolOrder\n\t{\n\t\taddress workerpool;\n\t\tuint256 workerpoolprice;\n\t\tuint256 volume;\n\t\tbytes32 tag;\n\t\tuint256 category;\n\t\tuint256 trust;\n\t\taddress apprestrict;\n\t\taddress datasetrestrict;\n\t\taddress requesterrestrict;\n\t\tbytes32 salt;\n\t\tECDSA.signature sign;\n\t}\n\tstruct RequestOrder\n\t{\n\t\taddress app;\n\t\tuint256 appmaxprice;\n\t\taddress dataset;\n\t\tuint256 datasetmaxprice;\n\t\taddress workerpool;\n\t\tuint256 workerpoolmaxprice;\n\t\taddress requester;\n\t\tuint256 volume;\n\t\tbytes32 tag;\n\t\tuint256 category;\n\t\tuint256 trust;\n\t\taddress beneficiary;\n\t\taddress callback;\n\t\tstring  params;\n\t\tbytes32 salt;\n\t\tECDSA.signature sign;\n\t}\n\n\tfunction hash(EIP712Domain memory _domain)\n\tpublic pure returns (bytes32 domainhash)\n\t{\n\t\t/**\n\t\t * Readeable but expensive\n\t\t */\n\t\t// return keccak256(abi.encode(\n\t\t// \tEIP712DOMAIN_TYPEHASH\n\t\t// , keccak256(bytes(_domain.name))\n\t\t// , keccak256(bytes(_domain.version))\n\t\t// , _domain.chainId\n\t\t// , _domain.verifyingContract\n\t\t// ));\n\n\t\t// Compute sub-hashes\n\t\tbytes32 typeHash    = EIP712DOMAIN_TYPEHASH;\n\t\tbytes32 nameHash    = keccak256(bytes(_domain.name));\n\t\tbytes32 versionHash = keccak256(bytes(_domain.version));\n\t\tassembly {\n\t\t\t// Back up select memory\n\t\t\tlet temp1 := mload(sub(_domain, 32))\n\t\t\tlet temp2 := mload(add(_domain,  0))\n\t\t\tlet temp3 := mload(add(_domain, 32))\n\t\t\t// Write typeHash and sub-hashes\n\t\t\tmstore(sub(_domain, 32),    typeHash)\n\t\t\tmstore(add(_domain,  0),    nameHash)\n\t\t\tmstore(add(_domain, 32), versionHash)\n\t\t\t// Compute hash\n\t\t\tdomainhash := keccak256(sub(_domain, 32), 160) // 160 = 32 + 128\n\t\t\t// Restore memory\n\t\t\tmstore(sub(_domain, 32), temp1)\n\t\t\tmstore(add(_domain,  0), temp2)\n\t\t\tmstore(add(_domain, 32), temp3)\n\t\t}\n\t}\n\tfunction hash(AppOrder memory _apporder)\n\tpublic pure returns (bytes32 apphash)\n\t{\n\t\t/**\n\t\t * Readeable but expensive\n\t\t */\n\t\t// return keccak256(abi.encode(\n\t\t// \tAPPORDER_TYPEHASH\n\t\t// , _apporder.app\n\t\t// , _apporder.appprice\n\t\t// , _apporder.volume\n\t\t// , _apporder.tag\n\t\t// , _apporder.datasetrestrict\n\t\t// , _apporder.workerpoolrestrict\n\t\t// , _apporder.requesterrestrict\n\t\t// , _apporder.salt\n\t\t// ));\n\n\t\t// Compute sub-hashes\n\t\tbytes32 typeHash = APPORDER_TYPEHASH;\n\t\tassembly {\n\t\t\t// Back up select memory\n\t\t\tlet temp1 := mload(sub(_apporder, 32))\n\t\t\t// Write typeHash and sub-hashes\n\t\t\tmstore(sub(_apporder, 32), typeHash)\n\t\t\t// Compute hash\n\t\t\tapphash := keccak256(sub(_apporder, 32), 288) // 288 = 32 + 256\n\t\t\t// Restore memory\n\t\t\tmstore(sub(_apporder, 32), temp1)\n\t\t}\n\t}\n\tfunction hash(DatasetOrder memory _datasetorder)\n\tpublic pure returns (bytes32 datasethash)\n\t{\n\t\t/**\n\t\t * Readeable but expensive\n\t\t */\n\t\t// return keccak256(abi.encode(\n\t\t// \tDATASETORDER_TYPEHASH\n\t\t// , _datasetorder.dataset\n\t\t// , _datasetorder.datasetprice\n\t\t// , _datasetorder.volume\n\t\t// , _datasetorder.tag\n\t\t// , _datasetorder.apprestrict\n\t\t// , _datasetorder.workerpoolrestrict\n\t\t// , _datasetorder.requesterrestrict\n\t\t// , _datasetorder.salt\n\t\t// ));\n\n\t\t// Compute sub-hashes\n\t\tbytes32 typeHash = DATASETORDER_TYPEHASH;\n\t\tassembly {\n\t\t\t// Back up select memory\n\t\t\tlet temp1 := mload(sub(_datasetorder, 32))\n\t\t\t// Write typeHash and sub-hashes\n\t\t\tmstore(sub(_datasetorder, 32), typeHash)\n\t\t\t// Compute hash\n\t\t\tdatasethash := keccak256(sub(_datasetorder, 32), 288) // 288 = 32 + 256\n\t\t\t// Restore memory\n\t\t\tmstore(sub(_datasetorder, 32), temp1)\n\t\t}\n\t}\n\tfunction hash(WorkerpoolOrder memory _workerpoolorder)\n\tpublic pure returns (bytes32 workerpoolhash)\n\t{\n\t\t/**\n\t\t * Readeable but expensive\n\t\t */\n\t\t// return keccak256(abi.encode(\n\t\t// \tWORKERPOOLORDER_TYPEHASH\n\t\t// , _workerpoolorder.workerpool\n\t\t// , _workerpoolorder.workerpoolprice\n\t\t// , _workerpoolorder.volume\n\t\t// , _workerpoolorder.tag\n\t\t// , _workerpoolorder.category\n\t\t// , _workerpoolorder.trust\n\t\t// , _workerpoolorder.apprestrict\n\t\t// , _workerpoolorder.datasetrestrict\n\t\t// , _workerpoolorder.requesterrestrict\n\t\t// , _workerpoolorder.salt\n\t\t// ));\n\n\t\t// Compute sub-hashes\n\t\tbytes32 typeHash = WORKERPOOLORDER_TYPEHASH;\n\t\tassembly {\n\t\t\t// Back up select memory\n\t\t\tlet temp1 := mload(sub(_workerpoolorder, 32))\n\t\t\t// Write typeHash and sub-hashes\n\t\t\tmstore(sub(_workerpoolorder, 32), typeHash)\n\t\t\t// Compute hash\n\t\t\tworkerpoolhash := keccak256(sub(_workerpoolorder, 32), 352) // 352 = 32 + 320\n\t\t\t// Restore memory\n\t\t\tmstore(sub(_workerpoolorder, 32), temp1)\n\t\t}\n\t}\n\tfunction hash(RequestOrder memory _requestorder)\n\tpublic pure returns (bytes32 requesthash)\n\t{\n\t\t/**\n\t\t * Readeable but expensive\n\t\t */\n\t\t//return keccak256(abi.encodePacked(\n\t\t//\tabi.encode(\n\t\t//\t\tREQUESTORDER_TYPEHASH\n\t\t//\t, _requestorder.app\n\t\t//\t, _requestorder.appmaxprice\n\t\t//\t, _requestorder.dataset\n\t\t//\t, _requestorder.datasetmaxprice\n\t\t//\t, _requestorder.workerpool\n\t\t//\t, _requestorder.workerpoolmaxprice\n\t\t//\t, _requestorder.requester\n\t\t//\t, _requestorder.volume\n\t\t//\t, _requestorder.tag\n\t\t//\t, _requestorder.category\n\t\t//\t, _requestorder.trust\n\t\t//\t, _requestorder.beneficiary\n\t\t//\t, _requestorder.callback\n\t\t//\t, keccak256(bytes(_requestorder.params))\n\t\t//\t, _requestorder.salt\n\t\t//\t)\n\t\t//));\n\n\t\t// Compute sub-hashes\n\t\tbytes32 typeHash = REQUESTORDER_TYPEHASH;\n\t\tbytes32 paramsHash = keccak256(bytes(_requestorder.params));\n\t\tassembly {\n\t\t\t// Back up select memory\n\t\t\tlet temp1 := mload(sub(_requestorder,  32))\n\t\t\tlet temp2 := mload(add(_requestorder, 416))\n\t\t\t// Write typeHash and sub-hashes\n\t\t\tmstore(sub(_requestorder,  32), typeHash)\n\t\t\tmstore(add(_requestorder, 416), paramsHash)\n\t\t\t// Compute hash\n\t\t\trequesthash := keccak256(sub(_requestorder, 32), 512) // 512 = 32 + 480\n\t\t\t// Restore memory\n\t\t\tmstore(sub(_requestorder,  32), temp1)\n\t\t\tmstore(add(_requestorder, 416), temp2)\n\t\t}\n\t}\n\n}\n",
  "sourcePath": "/home/amxx/Work/iExec/code/PoCo/contracts/libs/IexecODBLibOrders.sol",
  "compiler": {
    "name": "solc",
    "version": "0.5.0+commit.1d4f565a.Emscripten.clang"
  },
  "schemaVersion": "3.0.1",
  "updatedAt": "2019-01-25T13:16:50.111Z",
  "devdoc": {
    "methods": {}
  },
  "userdoc": {
    "methods": {}
  }
}