{
  "contractName": "IexecAccessorsDelegate",
  "abi": [
    {
      "constant": true,
      "inputs": [],
      "name": "appregistry",
      "outputs": [
        {
          "name": "",
          "type": "address"
        }
      ],
      "payable": false,
      "stateMutability": "view",
      "type": "function",
      "signature": "0x45b637a9"
    },
    {
      "constant": true,
      "inputs": [],
      "name": "workerpoolregistry",
      "outputs": [
        {
          "name": "",
          "type": "address"
        }
      ],
      "payable": false,
      "stateMutability": "view",
      "type": "function",
      "signature": "0x90a0f546"
    },
    {
      "constant": true,
      "inputs": [],
      "name": "datasetregistry",
      "outputs": [
        {
          "name": "",
          "type": "address"
        }
      ],
      "payable": false,
      "stateMutability": "view",
      "type": "function",
      "signature": "0xb1b11d2c"
    },
    {
      "constant": true,
      "inputs": [],
      "name": "m_owner",
      "outputs": [
        {
          "name": "",
          "type": "address"
        }
      ],
      "payable": false,
      "stateMutability": "view",
      "type": "function",
      "signature": "0xdeff41c1"
    },
    {
      "constant": false,
      "inputs": [
        {
          "name": "_newOwner",
          "type": "address"
        }
      ],
      "name": "transferOwnership",
      "outputs": [],
      "payable": false,
      "stateMutability": "nonpayable",
      "type": "function",
      "signature": "0xf2fde38b"
    },
    {
      "constant": true,
      "inputs": [],
      "name": "token",
      "outputs": [
        {
          "name": "",
          "type": "address"
        }
      ],
      "payable": false,
      "stateMutability": "view",
      "type": "function",
      "signature": "0xfc0c546a"
    },
    {
      "anonymous": false,
      "inputs": [
        {
          "indexed": false,
          "name": "previousOwner",
          "type": "address"
        },
        {
          "indexed": false,
          "name": "newOwner",
          "type": "address"
        }
      ],
      "name": "OwnershipTransferred",
      "type": "event",
      "signature": "0x8be0079c531659141344cd1fd0a4f28419497f9722a3daafe3b4186f6b6457e0"
    },
    {
      "constant": true,
      "inputs": [
        {
          "name": "_user",
          "type": "address"
        }
      ],
      "name": "viewAccount",
      "outputs": [
        {
          "components": [
            {
              "name": "stake",
              "type": "uint256"
            },
            {
              "name": "locked",
              "type": "uint256"
            }
          ],
          "name": "",
          "type": "tuple"
        }
      ],
      "payable": false,
      "stateMutability": "view",
      "type": "function",
      "signature": "0x6b55f4a5"
    },
    {
      "constant": true,
      "inputs": [
        {
          "name": "_id",
          "type": "bytes32"
        }
      ],
      "name": "viewPresigned",
      "outputs": [
        {
          "name": "",
          "type": "bool"
        }
      ],
      "payable": false,
      "stateMutability": "view",
      "type": "function",
      "signature": "0xd286eb16"
    },
    {
      "constant": true,
      "inputs": [
        {
          "name": "_id",
          "type": "bytes32"
        }
      ],
      "name": "viewConsumed",
      "outputs": [
        {
          "name": "",
          "type": "uint256"
        }
      ],
      "payable": false,
      "stateMutability": "view",
      "type": "function",
      "signature": "0x4b2bec8c"
    },
    {
      "constant": true,
      "inputs": [
        {
          "name": "_id",
          "type": "bytes32"
        }
      ],
      "name": "viewRequestDeals",
      "outputs": [
        {
          "name": "",
          "type": "bytes32[]"
        }
      ],
      "payable": false,
      "stateMutability": "view",
      "type": "function",
      "signature": "0x6dc2df05"
    },
    {
      "constant": true,
      "inputs": [
        {
          "name": "_id",
          "type": "bytes32"
        }
      ],
      "name": "viewDeal",
      "outputs": [
        {
          "components": [
            {
              "components": [
                {
                  "name": "pointer",
                  "type": "address"
                },
                {
                  "name": "owner",
                  "type": "address"
                },
                {
                  "name": "price",
                  "type": "uint256"
                }
              ],
              "name": "app",
              "type": "tuple"
            },
            {
              "components": [
                {
                  "name": "pointer",
                  "type": "address"
                },
                {
                  "name": "owner",
                  "type": "address"
                },
                {
                  "name": "price",
                  "type": "uint256"
                }
              ],
              "name": "dataset",
              "type": "tuple"
            },
            {
              "components": [
                {
                  "name": "pointer",
                  "type": "address"
                },
                {
                  "name": "owner",
                  "type": "address"
                },
                {
                  "name": "price",
                  "type": "uint256"
                }
              ],
              "name": "workerpool",
              "type": "tuple"
            },
            {
              "name": "trust",
              "type": "uint256"
            },
            {
              "name": "category",
              "type": "uint256"
            },
            {
              "name": "tag",
              "type": "bytes32"
            },
            {
              "name": "requester",
              "type": "address"
            },
            {
              "name": "beneficiary",
              "type": "address"
            },
            {
              "name": "callback",
              "type": "address"
            },
            {
              "name": "params",
              "type": "string"
            },
            {
              "name": "startTime",
              "type": "uint256"
            },
            {
              "name": "botFirst",
              "type": "uint256"
            },
            {
              "name": "botSize",
              "type": "uint256"
            },
            {
              "name": "workerStake",
              "type": "uint256"
            },
            {
              "name": "schedulerRewardRatio",
              "type": "uint256"
            }
          ],
          "name": "",
          "type": "tuple"
        }
      ],
      "payable": false,
      "stateMutability": "view",
      "type": "function",
      "signature": "0xb74861b2"
    },
    {
      "constant": true,
      "inputs": [
        {
          "name": "_taskid",
          "type": "bytes32"
        }
      ],
      "name": "viewTask",
      "outputs": [
        {
          "components": [
            {
              "name": "status",
              "type": "uint8"
            },
            {
              "name": "dealid",
              "type": "bytes32"
            },
            {
              "name": "idx",
              "type": "uint256"
            },
            {
              "name": "timeref",
              "type": "uint256"
            },
            {
              "name": "contributionDeadline",
              "type": "uint256"
            },
            {
              "name": "revealDeadline",
              "type": "uint256"
            },
            {
              "name": "finalDeadline",
              "type": "uint256"
            },
            {
              "name": "consensusValue",
              "type": "bytes32"
            },
            {
              "name": "revealCounter",
              "type": "uint256"
            },
            {
              "name": "winnerCounter",
              "type": "uint256"
            },
            {
              "name": "contributors",
              "type": "address[]"
            },
            {
              "name": "results",
              "type": "bytes"
            }
          ],
          "name": "",
          "type": "tuple"
        }
      ],
      "payable": false,
      "stateMutability": "view",
      "type": "function",
      "signature": "0xadccf0d5"
    },
    {
      "constant": true,
      "inputs": [
        {
          "name": "_taskid",
          "type": "bytes32"
        },
        {
          "name": "_worker",
          "type": "address"
        }
      ],
      "name": "viewContribution",
      "outputs": [
        {
          "components": [
            {
              "name": "status",
              "type": "uint8"
            },
            {
              "name": "resultHash",
              "type": "bytes32"
            },
            {
              "name": "resultSeal",
              "type": "bytes32"
            },
            {
              "name": "enclaveChallenge",
              "type": "address"
            }
          ],
          "name": "",
          "type": "tuple"
        }
      ],
      "payable": false,
      "stateMutability": "view",
      "type": "function",
      "signature": "0xe741363b"
    },
    {
      "constant": true,
      "inputs": [
        {
          "name": "_worker",
          "type": "address"
        }
      ],
      "name": "viewScore",
      "outputs": [
        {
          "name": "",
          "type": "uint256"
        }
      ],
      "payable": false,
      "stateMutability": "view",
      "type": "function",
      "signature": "0xdb230b52"
    },
    {
      "constant": true,
      "inputs": [
        {
          "name": "id",
          "type": "bytes32"
        }
      ],
      "name": "resultFor",
      "outputs": [
        {
          "name": "",
          "type": "bytes"
        }
      ],
      "payable": false,
      "stateMutability": "view",
      "type": "function",
      "signature": "0xd09cc57e"
    }
  ],
  "bytecode": "0x608060405260008054600160a060020a031916331790556111b7806100256000396000f3fe6080604052600436106100da5763ffffffff7c010000000000000000000000000000000000000000000000000000000060003504166345b637a981146100df5780634b2bec8c1461010a5780636b55f4a5146101375780636dc2df051461016457806390a0f54614610191578063adccf0d5146101a6578063b1b11d2c146101d3578063b74861b2146101e8578063d09cc57e14610215578063d286eb1614610242578063db230b521461026f578063deff41c11461028f578063e741363b146102b1578063f2fde38b146102de578063fc0c546a14610300575b600080fd5b3480156100eb57600080fd5b506100f4610315565b6040516101019190611077565b60405180910390f35b34801561011657600080fd5b5061012a610125366004610b6c565b610324565b60405161010191906110d3565b34801561014357600080fd5b50610157610152366004610b46565b610336565b6040516101019190611095565b34801561017057600080fd5b5061018461017f366004610b6c565b610371565b6040516101019190611047565b34801561019d57600080fd5b506100f46103d3565b3480156101b257600080fd5b506101c66101c1366004610b6c565b6103e2565b60405161010191906110c2565b3480156101df57600080fd5b506100f461057c565b3480156101f457600080fd5b50610208610203366004610b6c565b61058b565b60405161010191906110b1565b34801561022157600080fd5b50610235610230366004610b6c565b61074a565b6040516101019190611066565b34801561024e57600080fd5b5061026261025d366004610b6c565b61080c565b6040516101019190611058565b34801561027b57600080fd5b5061012a61028a366004610b46565b610821565b34801561029b57600080fd5b506102a461083c565b604051610101919061101e565b3480156102bd57600080fd5b506102d16102cc366004610b8a565b61084b565b60405161010191906110a3565b3480156102ea57600080fd5b506102fe6102f9366004610b46565b6108d1565b005b34801561030c57600080fd5b506100f46109a9565b600554600160a060020a031681565b60009081526013602052604090205490565b61033e6109b8565b50600160a060020a0316600090815260086020908152604091829020825180840190935280548352600101549082015290565b6000818152601160209081526040918290208054835181840281018401909452808452606093928301828280156103c757602002820191906000526020600020905b8154815260200190600101908083116103b3575b50505050509050919050565b600754600160a060020a031681565b6103ea6109cf565b6000828152600b602052604090819020815161018081019092528054829060ff16600481111561041657fe5b600481111561042157fe5b8152602001600182015481526020016002820154815260200160038201548152602001600482015481526020016005820154815260200160068201548152602001600782015481526020016008820154815260200160098201548152602001600a82018054806020026020016040519081016040528092919081815260200182805480156104d857602002820191906000526020600020905b8154600160a060020a031681526001909101906020018083116104ba575b5050509183525050600b8201805460408051602060026001851615610100026000190190941693909304601f810184900484028201840190925281815293820193929183018282801561056c5780601f106105415761010080835404028352916020019161056c565b820191906000526020600020905b81548152906001019060200180831161054f57829003601f168201915b5050505050815250509050919050565b600654600160a060020a031681565b610593610a37565b6000828152601260209081526040918290208251610240810184528154600160a060020a039081166101e08301908152600180850154831661020085015260028086015461022086015291845286516060808201895260038701548516825260048701548516828901526005870154828a0152858801919091528751808201895260068701548516815260078701548516818901526008870154818a015285890152600986015490850152600a8501546080850152600b85015460a0850152600c850154831660c0850152600d850154831660e0850152600e85015490921661010080850191909152600f850180548851948116159092026000190190911691909104601f810186900486028301860190965285825291949293610120860193919291908301828280156107085780601f106106dd57610100808354040283529160200191610708565b820191906000526020600020905b8154815290600101906020018083116106eb57829003601f168201915b50505050508152602001601082015481526020016011820154815260200160128201548152602001601382015481526020016014820154815250509050919050565b6000818152600b602052604090206060906003815460ff16600481111561076d57fe5b1461077757600080fd5b600b8101805460408051602060026001851615610100026000190190941693909304601f810184900484028201840190925281815292918301828280156107ff5780601f106107d4576101008083540402835291602001916107ff565b820191906000526020600020905b8154815290600101906020018083116107e257829003601f168201915b5050505050915050919050565b60009081526014602052604090205460ff1690565b600160a060020a03166000908152600d602052604090205490565b600054600160a060020a031681565b610853610ade565b6000838152600c60209081526040808320600160a060020a0386168452909152908190208151608081019092528054829060ff16600381111561089257fe5b600381111561089d57fe5b81526001820154602082015260028201546040820152600390910154600160a060020a031660609091015290505b92915050565b600054600160a060020a031633146108e857600080fd5b600160a060020a0381161515610933576040517f08c379a000000000000000000000000000000000000000000000000000000000815260040161092a90611085565b60405180910390fd5b6000546040517f8be0079c531659141344cd1fd0a4f28419497f9722a3daafe3b4186f6b6457e09161097291600160a060020a0390911690849061102c565b60405180910390a16000805473ffffffffffffffffffffffffffffffffffffffff1916600160a060020a0392909216919091179055565b600454600160a060020a031681565b604080518082019091526000808252602082015290565b604080516101808101909152806000815260200160008019168152602001600081526020016000815260200160008152602001600081526020016000815260200160008019168152602001600081526020016000815260200160608152602001606081525090565b6102a060405190810160405280610a4c610b07565b8152602001610a59610b07565b8152602001610a66610b07565b81526020016000815260200160008152602001600080191681526020016000600160a060020a031681526020016000600160a060020a031681526020016000600160a060020a031681526020016060815260200160008152602001600081526020016000815260200160008152602001600081525090565b604080516080810190915280600081526000602082018190526040820181905260609091015290565b604080516060810182526000808252602082018190529181019190915290565b6000610b3382356110eb565b9392505050565b6000610b3382356110fb565b600060208284031215610b5857600080fd5b6000610b648484610b27565b949350505050565b600060208284031215610b7e57600080fd5b6000610b648484610b3a565b60008060408385031215610b9d57600080fd5b6000610ba98585610b3a565b9250506020610bba85828601610b27565b9150509250929050565b610bcd816110eb565b82525050565b6000610bde826110e7565b808452602084019350610bf0836110e1565b60005b82811015610c2057610c06868351610bc4565b610c0f826110e1565b602096909601959150600101610bf3565b5093949350505050565b6000610c35826110e7565b808452602084019350610c47836110e1565b60005b82811015610c2057610c5d868351610c80565b610c66826110e1565b602096909601959150600101610c4a565b610bcd816110f6565b610bcd816110fb565b6000610c94826110e7565b808452610ca8816020860160208601611147565b610cb181611173565b9093016020019392505050565b610bcd81611126565b610bcd81611131565b610bcd8161113c565b602681527f63616e2774207472616e73666572206f776e65727368697020746f206164647260208201527f6573732830290000000000000000000000000000000000000000000000000000604082015260600190565b80516040830190610d408482610c80565b506020820151610d536020850182610c80565b50505050565b80516080830190610d6a8482610cc7565b506020820151610d7d6020850182610c80565b506040820151610d906040850182610c80565b506060820151610d536060850182610bc4565b80516000906102a0840190610db88582610ee4565b506020830151610dcb6060860182610ee4565b506040830151610dde60c0860182610ee4565b506060830151610df2610120860182610c80565b506080830151610e06610140860182610c80565b5060a0830151610e1a610160860182610c80565b5060c0830151610e2e610180860182610bc4565b5060e0830151610e426101a0860182610bc4565b50610100830151610e576101c0860182610bc4565b506101208301518482036101e0860152610e718282610c89565b915050610140830151610e88610200860182610c80565b50610160830151610e9d610220860182610c80565b50610180830151610eb2610240860182610c80565b506101a0830151610ec7610260860182610c80565b506101c0830151610edc610280860182610c80565b509392505050565b80516060830190610ef58482610bc4565b506020820151610f086020850182610bc4565b506040820151610d536040850182610c80565b8051600090610180840190610f308582610cd0565b506020830151610f436020860182610c80565b506040830151610f566040860182610c80565b506060830151610f696060860182610c80565b506080830151610f7c6080860182610c80565b5060a0830151610f8f60a0860182610c80565b5060c0830151610fa260c0860182610c80565b5060e0830151610fb560e0860182610c80565b50610100830151610fca610100860182610c80565b50610120830151610fdf610120860182610c80565b50610140830151848203610140860152610ff98282610bd3565b9150506101608301518482036101608601526110158282610c89565b95945050505050565b602081016108cb8284610bc4565b6040810161103a8285610bc4565b610b336020830184610bc4565b60208082528101610b338184610c2a565b602081016108cb8284610c77565b60208082528101610b338184610c89565b602081016108cb8284610cbe565b602080825281016108cb81610cd9565b604081016108cb8284610d2f565b608081016108cb8284610d59565b60208082528101610b338184610da3565b60208082528101610b338184610f1b565b602081016108cb8284610c80565b60200190565b5190565b60006108cb8261111a565b151590565b90565b60006004821061110a57fe5b5090565b60006005821061110a57fe5b600160a060020a031690565b60006108cb826110eb565b60006108cb826110fe565b60006108cb8261110e565b60005b8381101561116257818101518382015260200161114a565b83811115610d535750506000910152565b601f01601f19169056fea265627a7a72305820e0ac531ce24944412433b4a8022cf70cf29b2c07eb9027c1618afd3c4c2ad1a86c6578706572696d656e74616cf50037",
  "source": "pragma solidity ^0.5.0;\npragma experimental ABIEncoderV2;\n\nimport \"../interfaces/EIP1154.sol\";\nimport \"../libs/IexecODBLibCore.sol\";\n\nimport \"../IexecStore.sol\";\n\ncontract IexecAccessors is IOracle // make interface\n{\n\tfunction viewAccount     (address _user                   ) external view returns (IexecODBLibCore.Account memory);\n\tfunction viewPresigned   (bytes32 _id                     ) external view returns (bool);\n\tfunction viewConsumed    (bytes32 _id                     ) external view returns (uint256);\n\tfunction viewRequestDeals(bytes32 _id                     ) external view returns (bytes32[] memory);\n\tfunction viewDeal        (bytes32 _id                     ) external view returns (IexecODBLibCore.Deal memory);\n\tfunction viewTask        (bytes32 _taskid                 ) external view returns (IexecODBLibCore.Task memory);\n\tfunction viewContribution(bytes32 _taskid, address _worker) external view returns (IexecODBLibCore.Contribution memory);\n\tfunction viewScore       (address _worker                 ) external view returns (uint256);\n}\n\ncontract IexecAccessorsDelegate is IexecAccessors, IexecStore\n{\n\tfunction viewAccount(address _user)\n\texternal view returns (IexecODBLibCore.Account memory)\n\t{\n\t\treturn m_accounts[_user];\n\t}\n\n\tfunction viewPresigned(bytes32 _id)\n\texternal view returns (bool)\n\t{\n\t\treturn m_presigned[_id];\n\t}\n\n\tfunction viewConsumed(bytes32 _id)\n\texternal view returns (uint256)\n\t{\n\t\treturn m_consumed[_id];\n\t}\n\n\tfunction viewRequestDeals(bytes32 _id)\n\texternal view returns (bytes32[] memory)\n\t{\n\t\treturn m_requestdeals[_id];\n\t}\n\n\tfunction viewDeal(bytes32 _id)\n\texternal view returns (IexecODBLibCore.Deal memory)\n\t{\n\t\treturn m_deals[_id];\n\t}\n\n\tfunction viewTask(bytes32 _taskid)\n\texternal view returns (IexecODBLibCore.Task memory)\n\t{\n\t\treturn m_tasks[_taskid];\n\t}\n\n\tfunction viewContribution(bytes32 _taskid, address _worker)\n\texternal view returns (IexecODBLibCore.Contribution memory)\n\t{\n\t\treturn m_contributions[_taskid][_worker];\n\t}\n\n\tfunction viewScore(address _worker)\n\texternal view returns (uint256)\n\t{\n\t\treturn m_workerScores[_worker];\n\t}\n\n\tfunction resultFor(bytes32 id)\n\texternal view returns (bytes memory)\n\t{\n\t\tIexecODBLibCore.Task storage task = m_tasks[id];\n\t\trequire(task.status == IexecODBLibCore.TaskStatusEnum.COMPLETED);\n\t\treturn task.results;\n\t}\n}\n",
  "sourcePath": "/home/amxx/Work/iExec/code/PoCo-dev/contracts/delegate/IexecAccessors.sol",
  "compiler": {
    "name": "solc",
    "version": "0.5.0+commit.1d4f565a.Emscripten.clang"
  },
  "schemaVersion": "3.0.1",
  "updatedAt": "2019-01-08T09:34:24.426Z",
  "devdoc": {
    "methods": {
      "transferOwnership(address)": {
        "details": "Allows the current owner to transfer control of the contract to a newOwner.",
        "params": {
          "_newOwner": "The address to transfer ownership to."
        }
      }
    }
  },
  "userdoc": {
    "methods": {}
  }
}