{
  "contractName": "IexecClerk",
  "abi": [
    {
      "constant": true,
      "inputs": [],
      "name": "EIP712DOMAIN_SEPARATOR",
      "outputs": [
        {
          "name": "",
          "type": "bytes32"
        }
      ],
      "payable": false,
      "stateMutability": "view",
      "type": "function",
      "signature": "0x047411e7"
    },
    {
      "constant": false,
      "inputs": [
        {
          "name": "_amount",
          "type": "uint256"
        }
      ],
      "name": "withdraw",
      "outputs": [
        {
          "name": "",
          "type": "bool"
        }
      ],
      "payable": false,
      "stateMutability": "nonpayable",
      "type": "function",
      "signature": "0x2e1a7d4d"
    },
    {
      "constant": false,
      "inputs": [
        {
          "name": "_amount",
          "type": "uint256"
        },
        {
          "name": "_target",
          "type": "address"
        }
      ],
      "name": "depositFor",
      "outputs": [
        {
          "name": "",
          "type": "bool"
        }
      ],
      "payable": false,
      "stateMutability": "nonpayable",
      "type": "function",
      "signature": "0x36efd16f"
    },
    {
      "constant": true,
      "inputs": [
        {
          "name": "",
          "type": "bytes32"
        }
      ],
      "name": "m_presigned",
      "outputs": [
        {
          "name": "",
          "type": "bool"
        }
      ],
      "payable": false,
      "stateMutability": "view",
      "type": "function",
      "signature": "0x43f2c970"
    },
    {
      "constant": true,
      "inputs": [],
      "name": "WORKERPOOL_STAKE_RATIO",
      "outputs": [
        {
          "name": "",
          "type": "uint256"
        }
      ],
      "payable": false,
      "stateMutability": "view",
      "type": "function",
      "signature": "0x4ec3b9e3"
    },
    {
      "constant": true,
      "inputs": [],
      "name": "KITTY_RATIO",
      "outputs": [
        {
          "name": "",
          "type": "uint256"
        }
      ],
      "payable": false,
      "stateMutability": "view",
      "type": "function",
      "signature": "0x51152de1"
    },
    {
      "constant": true,
      "inputs": [
        {
          "name": "_user",
          "type": "address"
        }
      ],
      "name": "viewAccount",
      "outputs": [
        {
          "components": [
            {
              "name": "stake",
              "type": "uint256"
            },
            {
              "name": "locked",
              "type": "uint256"
            }
          ],
          "name": "account",
          "type": "tuple"
        }
      ],
      "payable": false,
      "stateMutability": "view",
      "type": "function",
      "signature": "0x6b55f4a5"
    },
    {
      "constant": true,
      "inputs": [],
      "name": "POOL_STAKE_RATIO",
      "outputs": [
        {
          "name": "",
          "type": "uint256"
        }
      ],
      "payable": false,
      "stateMutability": "view",
      "type": "function",
      "signature": "0x709ce02b"
    },
    {
      "constant": true,
      "inputs": [],
      "name": "iexechub",
      "outputs": [
        {
          "name": "",
          "type": "address"
        }
      ],
      "payable": false,
      "stateMutability": "view",
      "type": "function",
      "signature": "0x8d52e413"
    },
    {
      "constant": true,
      "inputs": [
        {
          "name": "",
          "type": "bytes32"
        },
        {
          "name": "",
          "type": "uint256"
        }
      ],
      "name": "m_requestdeals",
      "outputs": [
        {
          "name": "",
          "type": "bytes32"
        }
      ],
      "payable": false,
      "stateMutability": "view",
      "type": "function",
      "signature": "0xb31231de"
    },
    {
      "constant": false,
      "inputs": [
        {
          "name": "_amount",
          "type": "uint256"
        }
      ],
      "name": "deposit",
      "outputs": [
        {
          "name": "",
          "type": "bool"
        }
      ],
      "payable": false,
      "stateMutability": "nonpayable",
      "type": "function",
      "signature": "0xb6b55f25"
    },
    {
      "constant": true,
      "inputs": [],
      "name": "KITTY_MIN",
      "outputs": [
        {
          "name": "",
          "type": "uint256"
        }
      ],
      "payable": false,
      "stateMutability": "view",
      "type": "function",
      "signature": "0xe2e7a8c1"
    },
    {
      "constant": true,
      "inputs": [
        {
          "name": "",
          "type": "bytes32"
        }
      ],
      "name": "m_consumed",
      "outputs": [
        {
          "name": "",
          "type": "uint256"
        }
      ],
      "payable": false,
      "stateMutability": "view",
      "type": "function",
      "signature": "0xe3035ace"
    },
    {
      "constant": true,
      "inputs": [],
      "name": "token",
      "outputs": [
        {
          "name": "",
          "type": "address"
        }
      ],
      "payable": false,
      "stateMutability": "view",
      "type": "function",
      "signature": "0xfc0c546a"
    },
    {
      "inputs": [
        {
          "name": "_token",
          "type": "address"
        },
        {
          "name": "_iexechub",
          "type": "address"
        },
        {
          "name": "_chainid",
          "type": "uint256"
        }
      ],
      "payable": false,
      "stateMutability": "nonpayable",
      "type": "constructor",
      "signature": "constructor"
    },
    {
      "anonymous": false,
      "inputs": [
        {
          "indexed": false,
          "name": "dealid",
          "type": "bytes32"
        },
        {
          "indexed": false,
          "name": "appHash",
          "type": "bytes32"
        },
        {
          "indexed": false,
          "name": "datasetHash",
          "type": "bytes32"
        },
        {
          "indexed": false,
          "name": "workerpoolHash",
          "type": "bytes32"
        },
        {
          "indexed": false,
          "name": "requestHash",
          "type": "bytes32"
        },
        {
          "indexed": false,
          "name": "volume",
          "type": "uint256"
        }
      ],
      "name": "OrdersMatched",
      "type": "event",
      "signature": "0xd811b592ed0899225773e8933d8df64bd0b62761a9d7aad4ed5b22735f4610a4"
    },
    {
      "anonymous": false,
      "inputs": [
        {
          "indexed": false,
          "name": "appHash",
          "type": "bytes32"
        }
      ],
      "name": "ClosedAppOrder",
      "type": "event",
      "signature": "0x7343f75be43aba524f85326508cd975d016ef7884676377366c69a7c32e30668"
    },
    {
      "anonymous": false,
      "inputs": [
        {
          "indexed": false,
          "name": "datasetHash",
          "type": "bytes32"
        }
      ],
      "name": "ClosedDatasetOrder",
      "type": "event",
      "signature": "0xcf52e3228bc482a6656d8ab56c09888b1c5bf6aaadba0185e96a34836f2bb1d4"
    },
    {
      "anonymous": false,
      "inputs": [
        {
          "indexed": false,
          "name": "workerpoolHash",
          "type": "bytes32"
        }
      ],
      "name": "ClosedWorkerpoolOrder",
      "type": "event",
      "signature": "0x145ad51e4496173bca15e24e7eb46f9ab3a10eea0497e2801a3a6806c06113a3"
    },
    {
      "anonymous": false,
      "inputs": [
        {
          "indexed": false,
          "name": "requestHash",
          "type": "bytes32"
        }
      ],
      "name": "ClosedRequestOrder",
      "type": "event",
      "signature": "0x582f43f2a741cbe708aae3b8d38a4efc3d09d7e81919697b3ca693f4c444cc05"
    },
    {
      "anonymous": false,
      "inputs": [
        {
          "indexed": true,
          "name": "workerpool",
          "type": "address"
        },
        {
          "indexed": false,
          "name": "dealid",
          "type": "bytes32"
        }
      ],
      "name": "SchedulerNotice",
      "type": "event",
      "signature": "0x692ad61076dceddd0f1a861f737553dd61fc8501cf4190d29c4e90af6607f765"
    },
    {
      "anonymous": false,
      "inputs": [
        {
          "indexed": false,
          "name": "owner",
          "type": "address"
        },
        {
          "indexed": false,
          "name": "amount",
          "type": "uint256"
        }
      ],
      "name": "Deposit",
      "type": "event",
      "signature": "0xe1fffcc4923d04b559f4d29a8bfc6cda04eb5b0d3c460751c2402c5c5cc9109c"
    },
    {
      "anonymous": false,
      "inputs": [
        {
          "indexed": false,
          "name": "owner",
          "type": "address"
        },
        {
          "indexed": false,
          "name": "amount",
          "type": "uint256"
        },
        {
          "indexed": false,
          "name": "target",
          "type": "address"
        }
      ],
      "name": "DepositFor",
      "type": "event",
      "signature": "0xcce62bfcdb09eddbe4e5ff5ec3bafdbabc25a52e1cf34f014a0a7a0864f9634c"
    },
    {
      "anonymous": false,
      "inputs": [
        {
          "indexed": false,
          "name": "owner",
          "type": "address"
        },
        {
          "indexed": false,
          "name": "amount",
          "type": "uint256"
        }
      ],
      "name": "Withdraw",
      "type": "event",
      "signature": "0x884edad9ce6fa2440d8a54cc123490eb96d2768479d49ff9c7366125a9424364"
    },
    {
      "anonymous": false,
      "inputs": [
        {
          "indexed": false,
          "name": "user",
          "type": "address"
        },
        {
          "indexed": false,
          "name": "amount",
          "type": "uint256"
        }
      ],
      "name": "Reward",
      "type": "event",
      "signature": "0x619caafabdd75649b302ba8419e48cccf64f37f1983ac4727cfb38b57703ffc9"
    },
    {
      "anonymous": false,
      "inputs": [
        {
          "indexed": false,
          "name": "user",
          "type": "address"
        },
        {
          "indexed": false,
          "name": "amount",
          "type": "uint256"
        }
      ],
      "name": "Seize",
      "type": "event",
      "signature": "0x4051ba94e08bb094159fc38391422b4b8ccfd2b1f8919c0eb37bb042d4b9cd8e"
    },
    {
      "anonymous": false,
      "inputs": [
        {
          "indexed": false,
          "name": "user",
          "type": "address"
        },
        {
          "indexed": false,
          "name": "amount",
          "type": "uint256"
        }
      ],
      "name": "Lock",
      "type": "event",
      "signature": "0x625fed9875dada8643f2418b838ae0bc78d9a148a18eee4ee1979ff0f3f5d427"
    },
    {
      "anonymous": false,
      "inputs": [
        {
          "indexed": false,
          "name": "user",
          "type": "address"
        },
        {
          "indexed": false,
          "name": "amount",
          "type": "uint256"
        }
      ],
      "name": "Unlock",
      "type": "event",
      "signature": "0x6381d9813cabeb57471b5a7e05078e64845ccdb563146a6911d536f24ce960f1"
    },
    {
      "constant": true,
      "inputs": [
        {
          "name": "_id",
          "type": "bytes32"
        }
      ],
      "name": "viewRequestDeals",
      "outputs": [
        {
          "name": "requestdeals",
          "type": "bytes32[]"
        }
      ],
      "payable": false,
      "stateMutability": "view",
      "type": "function",
      "signature": "0x6dc2df05"
    },
    {
      "constant": true,
      "inputs": [
        {
          "name": "_id",
          "type": "bytes32"
        }
      ],
      "name": "viewDeal",
      "outputs": [
        {
          "components": [
            {
              "components": [
                {
                  "name": "pointer",
                  "type": "address"
                },
                {
                  "name": "owner",
                  "type": "address"
                },
                {
                  "name": "price",
                  "type": "uint256"
                }
              ],
              "name": "app",
              "type": "tuple"
            },
            {
              "components": [
                {
                  "name": "pointer",
                  "type": "address"
                },
                {
                  "name": "owner",
                  "type": "address"
                },
                {
                  "name": "price",
                  "type": "uint256"
                }
              ],
              "name": "dataset",
              "type": "tuple"
            },
            {
              "components": [
                {
                  "name": "pointer",
                  "type": "address"
                },
                {
                  "name": "owner",
                  "type": "address"
                },
                {
                  "name": "price",
                  "type": "uint256"
                }
              ],
              "name": "workerpool",
              "type": "tuple"
            },
            {
              "name": "trust",
              "type": "uint256"
            },
            {
              "name": "category",
              "type": "uint256"
            },
            {
              "name": "tag",
              "type": "bytes32"
            },
            {
              "name": "requester",
              "type": "address"
            },
            {
              "name": "beneficiary",
              "type": "address"
            },
            {
              "name": "callback",
              "type": "address"
            },
            {
              "name": "params",
              "type": "string"
            },
            {
              "name": "startTime",
              "type": "uint256"
            },
            {
              "name": "botFirst",
              "type": "uint256"
            },
            {
              "name": "botSize",
              "type": "uint256"
            },
            {
              "name": "workerStake",
              "type": "uint256"
            },
            {
              "name": "schedulerRewardRatio",
              "type": "uint256"
            }
          ],
          "name": "deal",
          "type": "tuple"
        }
      ],
      "payable": false,
      "stateMutability": "view",
      "type": "function",
      "signature": "0xb74861b2"
    },
    {
      "constant": true,
      "inputs": [
        {
          "name": "_id",
          "type": "bytes32"
        }
      ],
      "name": "viewConsumed",
      "outputs": [
        {
          "name": "consumed",
          "type": "uint256"
        }
      ],
      "payable": false,
      "stateMutability": "view",
      "type": "function",
      "signature": "0x4b2bec8c"
    },
    {
      "constant": true,
      "inputs": [
        {
          "name": "_id",
          "type": "bytes32"
        }
      ],
      "name": "viewPresigned",
      "outputs": [
        {
          "name": "presigned",
          "type": "bool"
        }
      ],
      "payable": false,
      "stateMutability": "view",
      "type": "function",
      "signature": "0xd286eb16"
    },
    {
      "constant": true,
      "inputs": [
        {
          "name": "_identity",
          "type": "address"
        },
        {
          "name": "_hash",
          "type": "bytes32"
        },
        {
          "components": [
            {
              "name": "v",
              "type": "uint8"
            },
            {
              "name": "r",
              "type": "bytes32"
            },
            {
              "name": "s",
              "type": "bytes32"
            }
          ],
          "name": "_signature",
          "type": "tuple"
        }
      ],
      "name": "verifySignature",
      "outputs": [
        {
          "name": "",
          "type": "bool"
        }
      ],
      "payable": false,
      "stateMutability": "view",
      "type": "function",
      "signature": "0xfd8bd39a"
    },
    {
      "constant": false,
      "inputs": [
        {
          "components": [
            {
              "name": "app",
              "type": "address"
            },
            {
              "name": "appprice",
              "type": "uint256"
            },
            {
              "name": "volume",
              "type": "uint256"
            },
            {
              "name": "tag",
              "type": "bytes32"
            },
            {
              "name": "datasetrestrict",
              "type": "address"
            },
            {
              "name": "workerpoolrestrict",
              "type": "address"
            },
            {
              "name": "requesterrestrict",
              "type": "address"
            },
            {
              "name": "salt",
              "type": "bytes32"
            },
            {
              "components": [
                {
                  "name": "v",
                  "type": "uint8"
                },
                {
                  "name": "r",
                  "type": "bytes32"
                },
                {
                  "name": "s",
                  "type": "bytes32"
                }
              ],
              "name": "sign",
              "type": "tuple"
            }
          ],
          "name": "_apporder",
          "type": "tuple"
        }
      ],
      "name": "signAppOrder",
      "outputs": [
        {
          "name": "",
          "type": "bool"
        }
      ],
      "payable": false,
      "stateMutability": "nonpayable",
      "type": "function",
      "signature": "0x8209ff3f"
    },
    {
      "constant": false,
      "inputs": [
        {
          "components": [
            {
              "name": "dataset",
              "type": "address"
            },
            {
              "name": "datasetprice",
              "type": "uint256"
            },
            {
              "name": "volume",
              "type": "uint256"
            },
            {
              "name": "tag",
              "type": "bytes32"
            },
            {
              "name": "apprestrict",
              "type": "address"
            },
            {
              "name": "workerpoolrestrict",
              "type": "address"
            },
            {
              "name": "requesterrestrict",
              "type": "address"
            },
            {
              "name": "salt",
              "type": "bytes32"
            },
            {
              "components": [
                {
                  "name": "v",
                  "type": "uint8"
                },
                {
                  "name": "r",
                  "type": "bytes32"
                },
                {
                  "name": "s",
                  "type": "bytes32"
                }
              ],
              "name": "sign",
              "type": "tuple"
            }
          ],
          "name": "_datasetorder",
          "type": "tuple"
        }
      ],
      "name": "signDatasetOrder",
      "outputs": [
        {
          "name": "",
          "type": "bool"
        }
      ],
      "payable": false,
      "stateMutability": "nonpayable",
      "type": "function",
      "signature": "0x79ea83aa"
    },
    {
      "constant": false,
      "inputs": [
        {
          "components": [
            {
              "name": "workerpool",
              "type": "address"
            },
            {
              "name": "workerpoolprice",
              "type": "uint256"
            },
            {
              "name": "volume",
              "type": "uint256"
            },
            {
              "name": "tag",
              "type": "bytes32"
            },
            {
              "name": "category",
              "type": "uint256"
            },
            {
              "name": "trust",
              "type": "uint256"
            },
            {
              "name": "apprestrict",
              "type": "address"
            },
            {
              "name": "datasetrestrict",
              "type": "address"
            },
            {
              "name": "requesterrestrict",
              "type": "address"
            },
            {
              "name": "salt",
              "type": "bytes32"
            },
            {
              "components": [
                {
                  "name": "v",
                  "type": "uint8"
                },
                {
                  "name": "r",
                  "type": "bytes32"
                },
                {
                  "name": "s",
                  "type": "bytes32"
                }
              ],
              "name": "sign",
              "type": "tuple"
            }
          ],
          "name": "_workerpoolorder",
          "type": "tuple"
        }
      ],
      "name": "signWorkerpoolOrder",
      "outputs": [
        {
          "name": "",
          "type": "bool"
        }
      ],
      "payable": false,
      "stateMutability": "nonpayable",
      "type": "function",
      "signature": "0xd8091e81"
    },
    {
      "constant": false,
      "inputs": [
        {
          "components": [
            {
              "name": "app",
              "type": "address"
            },
            {
              "name": "appmaxprice",
              "type": "uint256"
            },
            {
              "name": "dataset",
              "type": "address"
            },
            {
              "name": "datasetmaxprice",
              "type": "uint256"
            },
            {
              "name": "workerpool",
              "type": "address"
            },
            {
              "name": "workerpoolmaxprice",
              "type": "uint256"
            },
            {
              "name": "requester",
              "type": "address"
            },
            {
              "name": "volume",
              "type": "uint256"
            },
            {
              "name": "tag",
              "type": "bytes32"
            },
            {
              "name": "category",
              "type": "uint256"
            },
            {
              "name": "trust",
              "type": "uint256"
            },
            {
              "name": "beneficiary",
              "type": "address"
            },
            {
              "name": "callback",
              "type": "address"
            },
            {
              "name": "params",
              "type": "string"
            },
            {
              "name": "salt",
              "type": "bytes32"
            },
            {
              "components": [
                {
                  "name": "v",
                  "type": "uint8"
                },
                {
                  "name": "r",
                  "type": "bytes32"
                },
                {
                  "name": "s",
                  "type": "bytes32"
                }
              ],
              "name": "sign",
              "type": "tuple"
            }
          ],
          "name": "_requestorder",
          "type": "tuple"
        }
      ],
      "name": "signRequestOrder",
      "outputs": [
        {
          "name": "",
          "type": "bool"
        }
      ],
      "payable": false,
      "stateMutability": "nonpayable",
      "type": "function",
      "signature": "0xa3648c37"
    },
    {
      "constant": false,
      "inputs": [
        {
          "components": [
            {
              "name": "app",
              "type": "address"
            },
            {
              "name": "appprice",
              "type": "uint256"
            },
            {
              "name": "volume",
              "type": "uint256"
            },
            {
              "name": "tag",
              "type": "bytes32"
            },
            {
              "name": "datasetrestrict",
              "type": "address"
            },
            {
              "name": "workerpoolrestrict",
              "type": "address"
            },
            {
              "name": "requesterrestrict",
              "type": "address"
            },
            {
              "name": "salt",
              "type": "bytes32"
            },
            {
              "components": [
                {
                  "name": "v",
                  "type": "uint8"
                },
                {
                  "name": "r",
                  "type": "bytes32"
                },
                {
                  "name": "s",
                  "type": "bytes32"
                }
              ],
              "name": "sign",
              "type": "tuple"
            }
          ],
          "name": "_apporder",
          "type": "tuple"
        },
        {
          "components": [
            {
              "name": "dataset",
              "type": "address"
            },
            {
              "name": "datasetprice",
              "type": "uint256"
            },
            {
              "name": "volume",
              "type": "uint256"
            },
            {
              "name": "tag",
              "type": "bytes32"
            },
            {
              "name": "apprestrict",
              "type": "address"
            },
            {
              "name": "workerpoolrestrict",
              "type": "address"
            },
            {
              "name": "requesterrestrict",
              "type": "address"
            },
            {
              "name": "salt",
              "type": "bytes32"
            },
            {
              "components": [
                {
                  "name": "v",
                  "type": "uint8"
                },
                {
                  "name": "r",
                  "type": "bytes32"
                },
                {
                  "name": "s",
                  "type": "bytes32"
                }
              ],
              "name": "sign",
              "type": "tuple"
            }
          ],
          "name": "_datasetorder",
          "type": "tuple"
        },
        {
          "components": [
            {
              "name": "workerpool",
              "type": "address"
            },
            {
              "name": "workerpoolprice",
              "type": "uint256"
            },
            {
              "name": "volume",
              "type": "uint256"
            },
            {
              "name": "tag",
              "type": "bytes32"
            },
            {
              "name": "category",
              "type": "uint256"
            },
            {
              "name": "trust",
              "type": "uint256"
            },
            {
              "name": "apprestrict",
              "type": "address"
            },
            {
              "name": "datasetrestrict",
              "type": "address"
            },
            {
              "name": "requesterrestrict",
              "type": "address"
            },
            {
              "name": "salt",
              "type": "bytes32"
            },
            {
              "components": [
                {
                  "name": "v",
                  "type": "uint8"
                },
                {
                  "name": "r",
                  "type": "bytes32"
                },
                {
                  "name": "s",
                  "type": "bytes32"
                }
              ],
              "name": "sign",
              "type": "tuple"
            }
          ],
          "name": "_workerpoolorder",
          "type": "tuple"
        },
        {
          "components": [
            {
              "name": "app",
              "type": "address"
            },
            {
              "name": "appmaxprice",
              "type": "uint256"
            },
            {
              "name": "dataset",
              "type": "address"
            },
            {
              "name": "datasetmaxprice",
              "type": "uint256"
            },
            {
              "name": "workerpool",
              "type": "address"
            },
            {
              "name": "workerpoolmaxprice",
              "type": "uint256"
            },
            {
              "name": "requester",
              "type": "address"
            },
            {
              "name": "volume",
              "type": "uint256"
            },
            {
              "name": "tag",
              "type": "bytes32"
            },
            {
              "name": "category",
              "type": "uint256"
            },
            {
              "name": "trust",
              "type": "uint256"
            },
            {
              "name": "beneficiary",
              "type": "address"
            },
            {
              "name": "callback",
              "type": "address"
            },
            {
              "name": "params",
              "type": "string"
            },
            {
              "name": "salt",
              "type": "bytes32"
            },
            {
              "components": [
                {
                  "name": "v",
                  "type": "uint8"
                },
                {
                  "name": "r",
                  "type": "bytes32"
                },
                {
                  "name": "s",
                  "type": "bytes32"
                }
              ],
              "name": "sign",
              "type": "tuple"
            }
          ],
          "name": "_requestorder",
          "type": "tuple"
        }
      ],
      "name": "matchOrders",
      "outputs": [
        {
          "name": "",
          "type": "bytes32"
        }
      ],
      "payable": false,
      "stateMutability": "nonpayable",
      "type": "function",
      "signature": "0xbafbf19c"
    },
    {
      "constant": false,
      "inputs": [
        {
          "components": [
            {
              "name": "app",
              "type": "address"
            },
            {
              "name": "appprice",
              "type": "uint256"
            },
            {
              "name": "volume",
              "type": "uint256"
            },
            {
              "name": "tag",
              "type": "bytes32"
            },
            {
              "name": "datasetrestrict",
              "type": "address"
            },
            {
              "name": "workerpoolrestrict",
              "type": "address"
            },
            {
              "name": "requesterrestrict",
              "type": "address"
            },
            {
              "name": "salt",
              "type": "bytes32"
            },
            {
              "components": [
                {
                  "name": "v",
                  "type": "uint8"
                },
                {
                  "name": "r",
                  "type": "bytes32"
                },
                {
                  "name": "s",
                  "type": "bytes32"
                }
              ],
              "name": "sign",
              "type": "tuple"
            }
          ],
          "name": "_apporder",
          "type": "tuple"
        }
      ],
      "name": "cancelAppOrder",
      "outputs": [
        {
          "name": "",
          "type": "bool"
        }
      ],
      "payable": false,
      "stateMutability": "nonpayable",
      "type": "function",
      "signature": "0x22c8c04a"
    },
    {
      "constant": false,
      "inputs": [
        {
          "components": [
            {
              "name": "dataset",
              "type": "address"
            },
            {
              "name": "datasetprice",
              "type": "uint256"
            },
            {
              "name": "volume",
              "type": "uint256"
            },
            {
              "name": "tag",
              "type": "bytes32"
            },
            {
              "name": "apprestrict",
              "type": "address"
            },
            {
              "name": "workerpoolrestrict",
              "type": "address"
            },
            {
              "name": "requesterrestrict",
              "type": "address"
            },
            {
              "name": "salt",
              "type": "bytes32"
            },
            {
              "components": [
                {
                  "name": "v",
                  "type": "uint8"
                },
                {
                  "name": "r",
                  "type": "bytes32"
                },
                {
                  "name": "s",
                  "type": "bytes32"
                }
              ],
              "name": "sign",
              "type": "tuple"
            }
          ],
          "name": "_datasetorder",
          "type": "tuple"
        }
      ],
      "name": "cancelDatasetOrder",
      "outputs": [
        {
          "name": "",
          "type": "bool"
        }
      ],
      "payable": false,
      "stateMutability": "nonpayable",
      "type": "function",
      "signature": "0x86d94546"
    },
    {
      "constant": false,
      "inputs": [
        {
          "components": [
            {
              "name": "workerpool",
              "type": "address"
            },
            {
              "name": "workerpoolprice",
              "type": "uint256"
            },
            {
              "name": "volume",
              "type": "uint256"
            },
            {
              "name": "tag",
              "type": "bytes32"
            },
            {
              "name": "category",
              "type": "uint256"
            },
            {
              "name": "trust",
              "type": "uint256"
            },
            {
              "name": "apprestrict",
              "type": "address"
            },
            {
              "name": "datasetrestrict",
              "type": "address"
            },
            {
              "name": "requesterrestrict",
              "type": "address"
            },
            {
              "name": "salt",
              "type": "bytes32"
            },
            {
              "components": [
                {
                  "name": "v",
                  "type": "uint8"
                },
                {
                  "name": "r",
                  "type": "bytes32"
                },
                {
                  "name": "s",
                  "type": "bytes32"
                }
              ],
              "name": "sign",
              "type": "tuple"
            }
          ],
          "name": "_workerpoolorder",
          "type": "tuple"
        }
      ],
      "name": "cancelWorkerpoolOrder",
      "outputs": [
        {
          "name": "",
          "type": "bool"
        }
      ],
      "payable": false,
      "stateMutability": "nonpayable",
      "type": "function",
      "signature": "0xcd3d80a1"
    },
    {
      "constant": false,
      "inputs": [
        {
          "components": [
            {
              "name": "app",
              "type": "address"
            },
            {
              "name": "appmaxprice",
              "type": "uint256"
            },
            {
              "name": "dataset",
              "type": "address"
            },
            {
              "name": "datasetmaxprice",
              "type": "uint256"
            },
            {
              "name": "workerpool",
              "type": "address"
            },
            {
              "name": "workerpoolmaxprice",
              "type": "uint256"
            },
            {
              "name": "requester",
              "type": "address"
            },
            {
              "name": "volume",
              "type": "uint256"
            },
            {
              "name": "tag",
              "type": "bytes32"
            },
            {
              "name": "category",
              "type": "uint256"
            },
            {
              "name": "trust",
              "type": "uint256"
            },
            {
              "name": "beneficiary",
              "type": "address"
            },
            {
              "name": "callback",
              "type": "address"
            },
            {
              "name": "params",
              "type": "string"
            },
            {
              "name": "salt",
              "type": "bytes32"
            },
            {
              "components": [
                {
                  "name": "v",
                  "type": "uint8"
                },
                {
                  "name": "r",
                  "type": "bytes32"
                },
                {
                  "name": "s",
                  "type": "bytes32"
                }
              ],
              "name": "sign",
              "type": "tuple"
            }
          ],
          "name": "_requestorder",
          "type": "tuple"
        }
      ],
      "name": "cancelRequestOrder",
      "outputs": [
        {
          "name": "",
          "type": "bool"
        }
      ],
      "payable": false,
      "stateMutability": "nonpayable",
      "type": "function",
      "signature": "0x83d6aa85"
    },
    {
      "constant": false,
      "inputs": [
        {
          "name": "_dealid",
          "type": "bytes32"
        },
        {
          "name": "_worker",
          "type": "address"
        }
      ],
      "name": "lockContribution",
      "outputs": [],
      "payable": false,
      "stateMutability": "nonpayable",
      "type": "function",
      "signature": "0xe798491a"
    },
    {
      "constant": false,
      "inputs": [
        {
          "name": "_dealid",
          "type": "bytes32"
        },
        {
          "name": "_worker",
          "type": "address"
        }
      ],
      "name": "unlockContribution",
      "outputs": [],
      "payable": false,
      "stateMutability": "nonpayable",
      "type": "function",
      "signature": "0x6eb528b5"
    },
    {
      "constant": false,
      "inputs": [
        {
          "name": "_dealid",
          "type": "bytes32"
        },
        {
          "name": "_worker",
          "type": "address"
        },
        {
          "name": "_amount",
          "type": "uint256"
        }
      ],
      "name": "unlockAndRewardForContribution",
      "outputs": [],
      "payable": false,
      "stateMutability": "nonpayable",
      "type": "function",
      "signature": "0x83729251"
    },
    {
      "constant": false,
      "inputs": [
        {
          "name": "_dealid",
          "type": "bytes32"
        },
        {
          "name": "_worker",
          "type": "address"
        }
      ],
      "name": "seizeContribution",
      "outputs": [],
      "payable": false,
      "stateMutability": "nonpayable",
      "type": "function",
      "signature": "0x0d0c233c"
    },
    {
      "constant": false,
      "inputs": [
        {
          "name": "_dealid",
          "type": "bytes32"
        },
        {
          "name": "_amount",
          "type": "uint256"
        }
      ],
      "name": "rewardForScheduling",
      "outputs": [],
      "payable": false,
      "stateMutability": "nonpayable",
      "type": "function",
      "signature": "0x4a8e362e"
    },
    {
      "constant": false,
      "inputs": [
        {
          "name": "_dealid",
          "type": "bytes32"
        }
      ],
      "name": "successWork",
      "outputs": [],
      "payable": false,
      "stateMutability": "nonpayable",
      "type": "function",
      "signature": "0x88044a7d"
    },
    {
      "constant": false,
      "inputs": [
        {
          "name": "_dealid",
          "type": "bytes32"
        }
      ],
      "name": "failedWork",
      "outputs": [],
      "payable": false,
      "stateMutability": "nonpayable",
      "type": "function",
      "signature": "0x5d0c812f"
    },
    {
      "constant": true,
      "inputs": [
        {
          "name": "_id",
          "type": "bytes32"
        }
      ],
      "name": "viewDealABILegacy_pt1",
      "outputs": [
        {
          "name": "",
          "type": "address"
        },
        {
          "name": "",
          "type": "address"
        },
        {
          "name": "",
          "type": "uint256"
        },
        {
          "name": "",
          "type": "address"
        },
        {
          "name": "",
          "type": "address"
        },
        {
          "name": "",
          "type": "uint256"
        },
        {
          "name": "",
          "type": "address"
        },
        {
          "name": "",
          "type": "address"
        },
        {
          "name": "",
          "type": "uint256"
        }
      ],
      "payable": false,
      "stateMutability": "view",
      "type": "function",
      "signature": "0xbd19a4f3"
    },
    {
      "constant": true,
      "inputs": [
        {
          "name": "_id",
          "type": "bytes32"
        }
      ],
      "name": "viewDealABILegacy_pt2",
      "outputs": [
        {
          "name": "",
          "type": "uint256"
        },
        {
          "name": "",
          "type": "bytes32"
        },
        {
          "name": "",
          "type": "address"
        },
        {
          "name": "",
          "type": "address"
        },
        {
          "name": "",
          "type": "address"
        },
        {
          "name": "",
          "type": "string"
        }
      ],
      "payable": false,
      "stateMutability": "view",
      "type": "function",
      "signature": "0xce5f7895"
    },
    {
      "constant": true,
      "inputs": [
        {
          "name": "_id",
          "type": "bytes32"
        }
      ],
      "name": "viewConfigABILegacy",
      "outputs": [
        {
          "name": "",
          "type": "uint256"
        },
        {
          "name": "",
          "type": "uint256"
        },
        {
          "name": "",
          "type": "uint256"
        },
        {
          "name": "",
          "type": "uint256"
        },
        {
          "name": "",
          "type": "uint256"
        },
        {
          "name": "",
          "type": "uint256"
        }
      ],
      "payable": false,
      "stateMutability": "view",
      "type": "function",
      "signature": "0xd5922f50"
    },
    {
      "constant": true,
      "inputs": [
        {
          "name": "_user",
          "type": "address"
        }
      ],
      "name": "viewAccountABILegacy",
      "outputs": [
        {
          "name": "",
          "type": "uint256"
        },
        {
          "name": "",
          "type": "uint256"
        }
      ],
      "payable": false,
      "stateMutability": "view",
      "type": "function",
      "signature": "0x5b3ae3e4"
    }
  ],
  "bytecode": "0x60806040523480156200001157600080fd5b50604051606080620049588339810180604052620000339190810190620001d6565b60008054600160a060020a031916600160a060020a03858116919091179091558290811615156200006357600080fd5b60028054600160a060020a031916600160a060020a03929092169190911790556040805160c0810182526008608082019081527f69457865634f444200000000000000000000000000000000000000000000000060a0830152815281518083018352600981527f332e302d616c706861000000000000000000000000000000000000000000000060208083019190915282015280820183905230606082015290517feca34ccf00000000000000000000000000000000000000000000000000000000815273__IexecODBLibOrders_____________________9163eca34ccf9162000152919060040162000314565b60206040518083038186803b1580156200016b57600080fd5b505af415801562000180573d6000803e3d6000fd5b505050506040513d601f19601f82011682018060405250620001a691908101906200022a565b600755506200038a915050565b6000620001c182516200032b565b9392505050565b6000620001c182516200034a565b600080600060608486031215620001ec57600080fd5b6000620001fa8686620001b3565b93505060206200020d86828701620001b3565b92505060406200022086828701620001c8565b9150509250925092565b6000602082840312156200023d57600080fd5b60006200024b8484620001c8565b949350505050565b6200025e816200032b565b82525050565b6000620002718262000327565b808452620002878160208601602086016200034d565b620002928162000380565b9093016020019392505050565b8051608080845260009190840190620002b9828262000264565b91505060208301518482036020860152620002d5828262000264565b9150506040830151620002ec604086018262000309565b50606083015162000301606086018262000253565b509392505050565b6200025e816200034a565b60208082528101620001c181846200029f565b5190565b600062000338826200033e565b92915050565b600160a060020a031690565b90565b60005b838110156200036a57818101518382015260200162000350565b838111156200037a576000848401525b50505050565b601f01601f191690565b6145be806200039a6000396000f3fe6080604052600436106101c95763ffffffff60e060020a600035041663047411e781146101ce5780630d0c233c146101f957806322c8c04a1461021b5780632e1a7d4d1461024857806336efd16f1461026857806343f2c970146102885780634a8e362e146102a85780634b2bec8c146102c85780634ec3b9e3146102e857806351152de1146102fd5780635b3ae3e4146103125780635d0c812f146103405780636b55f4a5146103605780636dc2df051461038d5780636eb528b5146103ba578063709ce02b146102e857806379ea83aa146103da5780638209ff3f146103fa578063837292511461041a57806383d6aa851461043a57806386d945461461045a57806388044a7d1461047a5780638d52e4131461049a578063a3648c37146104bc578063b31231de146104dc578063b6b55f25146104fc578063b74861b21461051c578063bafbf19c14610549578063bd19a4f314610569578063cd3d80a11461059e578063ce5f7895146105be578063d286eb16146105f0578063d5922f5014610610578063d8091e8114610642578063e2e7a8c114610662578063e3035ace14610677578063e798491a14610697578063fc0c546a146106b7578063fd8bd39a146106cc575b600080fd5b3480156101da57600080fd5b506101e36106ec565b6040516101f09190614383565b60405180910390f35b34801561020557600080fd5b50610219610214366004613b50565b6106f2565b005b34801561022757600080fd5b5061023b610236366004613bfd565b61072a565b6040516101f09190614375565b34801561025457600080fd5b5061023b610263366004613b14565b6108b0565b34801561027457600080fd5b5061023b610283366004613b50565b6109c8565b34801561029457600080fd5b5061023b6102a3366004613b14565b610b08565b3480156102b457600080fd5b506102196102c3366004613bcd565b610b1d565b3480156102d457600080fd5b506101e36102e3366004613b14565b610b59565b3480156102f457600080fd5b506101e3610b6b565b34801561030957600080fd5b506101e3610b70565b34801561031e57600080fd5b5061033261032d366004613a6d565b610b75565b6040516101f09291906143eb565b34801561034c57600080fd5b5061021961035b366004613b14565b610bb6565b34801561036c57600080fd5b5061038061037b366004613a6d565b610c79565b6040516101f09190614407565b34801561039957600080fd5b506103ad6103a8366004613b14565b610cb4565b6040516101f09190614364565b3480156103c657600080fd5b506102196103d5366004613b50565b610d16565b3480156103e657600080fd5b5061023b6103f5366004613bfd565b610d4a565b34801561040657600080fd5b5061023b610415366004613bfd565b610ea8565b34801561042657600080fd5b50610219610435366004613b8a565b610f8f565b34801561044657600080fd5b5061023b610455366004613c99565b610fd2565b34801561046657600080fd5b5061023b610475366004613bfd565b6110da565b34801561048657600080fd5b50610219610495366004613b14565b61124f565b3480156104a657600080fd5b506104af6113cc565b6040516101f091906143f9565b3480156104c857600080fd5b5061023b6104d7366004613c99565b6113db565b3480156104e857600080fd5b506101e36104f7366004613bcd565b611450565b34801561050857600080fd5b5061023b610517366004613b14565b611480565b34801561052857600080fd5b5061053c610537366004613b14565b61158f565b6040516101f09190614424565b34801561055557600080fd5b506101e3610564366004613c1c565b61174f565b34801561057557600080fd5b50610589610584366004613b14565b612655565b6040516101f0999897969594939291906142d0565b3480156105aa57600080fd5b5061023b6105b9366004613cce565b61288f565b3480156105ca57600080fd5b506105de6105d9366004613b14565b612a04565b6040516101f096959493929190614455565b3480156105fc57600080fd5b5061023b61060b366004613b14565b612c02565b34801561061c57600080fd5b5061063061062b366004613b14565b612c17565b6040516101f096959493929190614391565b34801561064e57600080fd5b5061023b61065d366004613cce565b612e14565b34801561066e57600080fd5b506101e3612efb565b34801561068357600080fd5b506101e3610692366004613b14565b612f03565b3480156106a357600080fd5b506102196106b2366004613b50565b612f15565b3480156106c357600080fd5b506104af612f49565b3480156106d857600080fd5b5061023b6106e7366004613aa9565b612f58565b60075481565b600254600160a060020a0316331461070957600080fd5b600082815260096020526040902060130154610726908290612f84565b5050565b6040517f04951329000000000000000000000000000000000000000000000000000000008152600090819073__IexecODBLibOrders_____________________9063049513299061077f908690600401614415565b60206040518083038186803b15801561079757600080fd5b505af41580156107ab573d6000803e3d6000fd5b505050506040513d601f19601f820116820180604052506107cf9190810190613b32565b90508260000151600160a060020a031663deff41c16040518163ffffffff1660e060020a02815260040160206040518083038186803b15801561081157600080fd5b505afa158015610825573d6000803e3d6000fd5b505050506040513d601f19601f820116820180604052506108499190810190613a8b565b600160a060020a0316331461085d57600080fd5b6040808401516000838152600a60205282902055517f7343f75be43aba524f85326508cd975d016ef7884676377366c69a7c32e306689061089f908390614383565b60405180910390a150600192915050565b336000908152600160205260408120546108d0908363ffffffff61300e16565b33600081815260016020526040808220939093555491517fa9059cbb000000000000000000000000000000000000000000000000000000008152600160a060020a039092169163a9059cbb9161092a918690600401614272565b602060405180830381600087803b15801561094457600080fd5b505af1158015610958573d6000803e3d6000fd5b505050506040513d601f19601f8201168201806040525061097c9190810190613af6565b151561098757600080fd5b7f884edad9ce6fa2440d8a54cc123490eb96d2768479d49ff9c7366125a942436433836040516109b8929190614272565b60405180910390a1506001919050565b6000600160a060020a03821615156109df57600080fd5b6000546040517f23b872dd000000000000000000000000000000000000000000000000000000008152600160a060020a03909116906323b872dd90610a2c9033903090889060040161424a565b602060405180830381600087803b158015610a4657600080fd5b505af1158015610a5a573d6000803e3d6000fd5b505050506040513d601f19601f82011682018060405250610a7e9190810190613af6565b1515610a8957600080fd5b600160a060020a038216600090815260016020526040902054610ab2908463ffffffff61302316565b600160a060020a0383166000908152600160205260409081902091909155517fcce62bfcdb09eddbe4e5ff5ec3bafdbabc25a52e1cf34f014a0a7a0864f9634c9061089f9033908690869061428d565b92915050565b60066020526000908152604090205460ff1681565b600254600160a060020a03163314610b3457600080fd5b60008281526009602052604090206007015461072690600160a060020a031682613035565b6000908152600a602052604090205490565b601e81565b600a81565b600080610b80613456565b505050600160a060020a031660009081526001602081815260409283902083518085019094528054808552920154920182905291565b600254600160a060020a03163314610bcd57600080fd5b6000818152600960205260408120600881015460058201546002830154929392610c0e9291610c02919063ffffffff61302316565b9063ffffffff61302316565b6008830154909150600090610c2a90601e63ffffffff6130ac16565b600c840154909150610c4590600160a060020a0316836130ba565b6007830154610c5d90600160a060020a031682612f84565b610c68600082613035565b610c73600082613168565b50505050565b610c81613456565b50600160a060020a0316600090815260016020818152604092839020835180850190945280548452909101549082015290565b600081815260086020908152604091829020805483518184028101840190945280845260609392830182828015610d0a57602002820191906000526020600020905b815481526020019060010190808311610cf6575b50505050509050919050565b600254600160a060020a03163314610d2d57600080fd5b6000828152600960205260409020601301546107269082906130ba565b60008160000151600160a060020a031663deff41c16040518163ffffffff1660e060020a02815260040160206040518083038186803b158015610d8c57600080fd5b505afa158015610da0573d6000803e3d6000fd5b505050506040513d601f19601f82011682018060405250610dc49190810190613a8b565b600160a060020a03163314610dd857600080fd5b6040517f2bd4c734000000000000000000000000000000000000000000000000000000008152600190600b9060009073__IexecODBLibOrders_____________________90632bd4c73490610e31908890600401614415565b60206040518083038186803b158015610e4957600080fd5b505af4158015610e5d573d6000803e3d6000fd5b505050506040513d601f19601f82011682018060405250610e819190810190613b32565b81526020810191909152604001600020805460ff1916911515919091179055506001919050565b60008160000151600160a060020a031663deff41c16040518163ffffffff1660e060020a02815260040160206040518083038186803b158015610eea57600080fd5b505afa158015610efe573d6000803e3d6000fd5b505050506040513d601f19601f82011682018060405250610f229190810190613a8b565b600160a060020a03163314610f3657600080fd5b6040517f04951329000000000000000000000000000000000000000000000000000000008152600190600b9060009073__IexecODBLibOrders_____________________90630495132990610e31908890600401614415565b600254600160a060020a03163314610fa657600080fd5b600083815260096020526040902060130154610fc39083906130ba565b610fcd8282613035565b505050565b6040517f0813424e000000000000000000000000000000000000000000000000000000008152600090819073__IexecODBLibOrders_____________________90630813424e90611027908690600401614435565b60206040518083038186803b15801561103f57600080fd5b505af4158015611053573d6000803e3d6000fd5b505050506040513d601f19601f820116820180604052506110779190810190613b32565b60c0840151909150600160a060020a0316331461109357600080fd5b60e08301516000828152600a60205260409081902091909155517f582f43f2a741cbe708aae3b8d38a4efc3d09d7e81919697b3ca693f4c444cc059061089f908390614383565b6040517f2bd4c734000000000000000000000000000000000000000000000000000000008152600090819073__IexecODBLibOrders_____________________90632bd4c7349061112f908690600401614415565b60206040518083038186803b15801561114757600080fd5b505af415801561115b573d6000803e3d6000fd5b505050506040513d601f19601f8201168201806040525061117f9190810190613b32565b90508260000151600160a060020a031663deff41c16040518163ffffffff1660e060020a02815260040160206040518083038186803b1580156111c157600080fd5b505afa1580156111d5573d6000803e3d6000fd5b505050506040513d601f19601f820116820180604052506111f99190810190613a8b565b600160a060020a0316331461120d57600080fd5b6040808401516000838152600a60205282902055517fcf52e3228bc482a6656d8ab56c09888b1c5bf6aaadba0185e96a34836f2bb1d49061089f908390614383565b600254600160a060020a0316331461126657600080fd5b600081815260096020526040812060088101546005820154600283015492939261129b9291610c02919063ffffffff61302316565b60088301549091506000906112b790601e63ffffffff6130ac16565b600c8401549091506112d290600160a060020a031683612f84565b60078301546112ea90600160a060020a0316826130ba565b6001830154600284015461130791600160a060020a031690613035565b6003830154600160a060020a031615611337576004830154600584015461133791600160a060020a031690613035565b600080805260016020527fa6eef7e35abe7026729641147f7915573c7e97b47efa546f5f6e3230263bcb4a54908111156113c5576113a081611394633b9aca0061138883600a63ffffffff6130ac16565b9063ffffffff61321216565b9063ffffffff61322916565b90506113ad600082612f84565b60078401546113c590600160a060020a031682613035565b5050505050565b600254600160a060020a031681565b60c0810151600090600160a060020a031633146113f757600080fd5b6040517f0813424e000000000000000000000000000000000000000000000000000000008152600190600b9060009073__IexecODBLibOrders_____________________90630813424e90610e31908890600401614435565b60046020528160005260406000208181548110151561146b57fe5b90600052602060002001600091509150505481565b600080546040517f23b872dd000000000000000000000000000000000000000000000000000000008152600160a060020a03909116906323b872dd906114ce9033903090879060040161424a565b602060405180830381600087803b1580156114e857600080fd5b505af11580156114fc573d6000803e3d6000fd5b505050506040513d601f19601f820116820180604052506115209190810190613af6565b151561152b57600080fd5b3360009081526001602052604090205461154b908363ffffffff61302316565b33600081815260016020526040908190209290925590517fe1fffcc4923d04b559f4d29a8bfc6cda04eb5b0d3c460751c2402c5c5cc9109c916109b8918590614272565b61159761346d565b6000828152600960208181526040928390208351610240810185528154600160a060020a039081166101e083019081526001808501548316610200850152600280860154610220860152918452875160608082018a5260038701548516825260048701548516828901526005870154828b01528588019190915288518082018a5260068701548516815260078701548516818901526008870154818b0152858a01529685015496840196909652600a8401546080840152600b84015460a0840152600c840154821660c0840152600d840154821660e0840152600e84015490911661010080840191909152600f840180548851978116159092026000190190911691909104601f81018590048502860185019096528585529094919361012086019390929083018282801561170d5780601f106116e25761010080835404028352916020019161170d565b820191906000526020600020905b8154815290600101906020018083116116f057829003601f168201915b50505050508152602001601082015481526020016011820154815260200160128201548152602001601382015481526020016014820154815250509050919050565b60808201516101208201516000911461176757600080fd5b60a0830151610140830151111561177d57600080fd5b60208086015190830151101561179257600080fd5b6020840151606083015110156117a757600080fd5b602083015160a083015110156117bc57600080fd5b8260600151198261010001518560600151876060015117171660006001021415156117e657600080fd5b84518251600160a060020a0390811691161461180157600080fd5b83516040830151600160a060020a0390811691161461181f57600080fd5b6080820151600160a060020a031615806118485750611848826080015184600001516004613238565b151561185357600080fd5b6080850151600160a060020a0316158061187c575061187c856080015185600001516004613238565b151561188757600080fd5b60a0850151600160a060020a031615806118b057506118b08560a0015184600001516004613238565b15156118bb57600080fd5b60c0850151600160a060020a031615806118e457506118e48560c001518360c001516004613238565b15156118ef57600080fd5b6080840151600160a060020a031615806119185750611918846080015186600001516004613238565b151561192357600080fd5b60a0840151600160a060020a0316158061194c575061194c8460a0015184600001516004613238565b151561195757600080fd5b60c0840151600160a060020a0316158061198057506119808460c001518360c001516004613238565b151561198b57600080fd5b60c0830151600160a060020a031615806119b457506119b48360c0015186600001516004613238565b15156119bf57600080fd5b60e0830151600160a060020a031615806119e857506119e88360e0015185600001516004613238565b15156119f357600080fd5b610100830151600160a060020a03161580611a1e5750611a1e8361010001518360c001516004613238565b1515611a2957600080fd5b6002548551855185516040517f097d630d000000000000000000000000000000000000000000000000000000008152600160a060020a039094169363097d630d93611a7a93909290916004016142b5565b60206040518083038186803b158015611a9257600080fd5b505afa158015611aa6573d6000803e3d6000fd5b505050506040513d601f19601f82011682018060405250611aca9190810190613af6565b1515611ad557600080fd5b611add613514565b8451600160a060020a0316151560e08201526040517f0495132900000000000000000000000000000000000000000000000000000000815273__IexecODBLibOrders_____________________90630495132990611b3f908990600401614415565b60206040518083038186803b158015611b5757600080fd5b505af4158015611b6b573d6000803e3d6000fd5b505050506040513d601f19601f82011682018060405250611b8f9190810190613b32565b8160000181815250508560000151600160a060020a031663deff41c16040518163ffffffff1660e060020a02815260040160206040518083038186803b158015611bd857600080fd5b505afa158015611bec573d6000803e3d6000fd5b505050506040513d601f19601f82011682018060405250611c109190810190613a8b565b600160a060020a031660208083019190915281516000908152600b909152604090205460ff1680611c545750611c5481602001518260000151886101000151612f58565b1515611c5f57600080fd5b8060e0015115611dd6576040517f2bd4c73400000000000000000000000000000000000000000000000000000000815273__IexecODBLibOrders_____________________90632bd4c73490611cb9908890600401614415565b60206040518083038186803b158015611cd157600080fd5b505af4158015611ce5573d6000803e3d6000fd5b505050506040513d601f19601f82011682018060405250611d099190810190613b32565b8160400181815250508460000151600160a060020a031663deff41c16040518163ffffffff1660e060020a02815260040160206040518083038186803b158015611d5257600080fd5b505afa158015611d66573d6000803e3d6000fd5b505050506040513d601f19601f82011682018060405250611d8a9190810190613a8b565b600160a060020a031660608201526040808201516000908152600b602052205460ff1680611dcb5750611dcb81606001518260400151876101000151612f58565b1515611dd657600080fd5b6040517f58b5058600000000000000000000000000000000000000000000000000000000815273__IexecODBLibOrders_____________________906358b5058690611e26908790600401614446565b60206040518083038186803b158015611e3e57600080fd5b505af4158015611e52573d6000803e3d6000fd5b505050506040513d601f19601f82011682018060405250611e769190810190613b32565b8160800181815250508360000151600160a060020a031663deff41c16040518163ffffffff1660e060020a02815260040160206040518083038186803b158015611ebf57600080fd5b505afa158015611ed3573d6000803e3d6000fd5b505050506040513d601f19601f82011682018060405250611ef79190810190613a8b565b600160a060020a031660a082015260808101516000908152600b602052604090205460ff1680611f3a5750611f3a8160a001518260800151866101400151612f58565b1515611f4557600080fd5b6040517f0813424e00000000000000000000000000000000000000000000000000000000815273__IexecODBLibOrders_____________________90630813424e90611f95908690600401614435565b60206040518083038186803b158015611fad57600080fd5b505af4158015611fc1573d6000803e3d6000fd5b505050506040513d601f19601f82011682018060405250611fe59190810190613b32565b60c082018190526000908152600b602052604090205460ff168061201c575061201c8360c001518260c00151856101e00151612f58565b151561202757600080fd5b80516000908152600a6020526040808220549088015161204c9163ffffffff61300e16565b90508160e0015161205d5780612096565b6040808301516000908152600a602052819020549087015161209691612089919063ffffffff61300e16565b829063ffffffff61322916565b60808301516000908152600a60205260409081902054908701519192506120c6916120899163ffffffff61300e16565b60c08301516000908152600a602052604090205460e08601519192506120f5916120899163ffffffff61300e16565b90506000811161210457600080fd5b60c08201516000818152600a602090815260408083205481518084019590955284820152805180850382018152606094850182528051908301208084526009835292208a51815473ffffffffffffffffffffffffffffffffffffffff19908116600160a060020a03928316178355838801516001840180548316918416919091179055928c015160028301559386015160048201805484169186169190911790558951600382018054909316941693909317905560e08401519091906121cb5760006121d1565b87602001515b60058201558651600682018054600160a060020a0392831673ffffffffffffffffffffffffffffffffffffffff199182161790915560a08601516007840180549190931691161790556020870151600882015561014086015161223b90600163ffffffff61321216565b6009820155610120860151600a8201556101008601516060808a0151908b01511717600b82015560c0860151600c82018054600160a060020a0392831673ffffffffffffffffffffffffffffffffffffffff1991821617909155610160880151600d84018054918416918316919091179055610180880151600e840180549190931691161790556101a086015180516122de91600f840191602090910190613558565b5042601082015560c08401516000908152600a602090815260409182902054601184015560128301859055885182517fb55e75af00000000000000000000000000000000000000000000000000000000815292516123ac93600160a060020a039092169263b55e75af9260048082019391829003018186803b15801561236357600080fd5b505afa158015612377573d6000803e3d6000fd5b505050506040513d601f19601f8201168201806040525061239b9190810190613b32565b60208901519063ffffffff6130ac16565b81601301819055508660000151600160a060020a03166387639c686040518163ffffffff1660e060020a02815260040160206040518083038186803b1580156123f457600080fd5b505afa158015612408573d6000803e3d6000fd5b505050506040513d601f19601f8201168201806040525061242c9190810190613b32565b601482015560c0840151600090815260086020908152604080832080546001810182559084528284200185905586518352600a909152902054612475908463ffffffff61302316565b84516000908152600a602052604090205560e08401516124ba9061249a57600061249c565b835b6040808701516000908152600a60205220549063ffffffff61302316565b6040808601516000908152600a60205281812092909255608086015182529020546124eb908463ffffffff61302316565b60808501516000908152600a60205260408082209290925560c08601518152205461251c908463ffffffff61302316565b60c08501516000908152600a6020526040902055600c81015460088201546005830154600284015461257e93600160a060020a03169261257992889261256d9291610c02919063ffffffff61302316565b9063ffffffff6132fc16565b613168565b600781015460088201546125ad91600160a060020a03169061257990869061256d90601e63ffffffff6130ac16565b6006810154604051600160a060020a03909116907f692ad61076dceddd0f1a861f737553dd61fc8501cf4190d29c4e90af6607f765906125ee908590614383565b60405180910390a27fd811b592ed0899225773e8933d8df64bd0b62761a9d7aad4ed5b22735f4610a4828560000151866040015187608001518860c001518860405161263f96959493929190614391565b60405180910390a150925050505b949350505050565b600080600080600080600080600061266b61346d565b60008b8152600960208181526040928390208351610240810185528154600160a060020a039081166101e083019081526001808501548316610200850152600280860154610220860152918452875160608082018a5260038701548516825260048701548516828901526005870154828b01528588019190915288518082018a5260068701548516815260078701548516818901526008870154818b0152858a01529685015496840196909652600a8401546080840152600b84015460a0840152600c840154821660c0840152600d840154821660e0840152600e84015490911661010080840191909152600f840180548851978116159092026000190190911691909104601f8101859004850286018501909652858552909491936101208601939092908301828280156127e15780601f106127b6576101008083540402835291602001916127e1565b820191906000526020600020905b8154815290600101906020018083116127c457829003601f168201915b50505050508152602001601082015481526020016011820154815260200160128201548152602001601382015481526020016014820154815250509050806000015160000151816000015160200151826000015160400151836020015160000151846020015160200151856020015160400151866040015160000151876040015160200151886040015160400151995099509950995099509950995099509950509193959799909294969850565b6040517f58b50586000000000000000000000000000000000000000000000000000000008152600090819073__IexecODBLibOrders_____________________906358b50586906128e4908690600401614446565b60206040518083038186803b1580156128fc57600080fd5b505af4158015612910573d6000803e3d6000fd5b505050506040513d601f19601f820116820180604052506129349190810190613b32565b90508260000151600160a060020a031663deff41c16040518163ffffffff1660e060020a02815260040160206040518083038186803b15801561297657600080fd5b505afa15801561298a573d6000803e3d6000fd5b505050506040513d601f19601f820116820180604052506129ae9190810190613a8b565b600160a060020a031633146129c257600080fd5b6040808401516000838152600a60205282902055517f145ad51e4496173bca15e24e7eb46f9ab3a10eea0497e2801a3a6806c06113a39061089f908390614383565b60008060008060006060612a1661346d565b6000888152600960208181526040928390208351610240810185528154600160a060020a039081166101e083019081526001808501548316610200850152600280860154610220860152918452875160608082018a5260038701548516825260048701548516828901526005870154828b01528588019190915288518082018a5260068701548516815260078701548516818901526008870154818b0152858a01529685015496840196909652600a8401546080840152600b84015460a0840152600c840154821660c0840152600d840154821660e0840152600e84015490911661010080840191909152600f840180548851978116159092026000190190911691909104601f810185900485028601850190965285855290949193610120860193909290830182828015612b8c5780601f10612b6157610100808354040283529160200191612b8c565b820191906000526020600020905b815481529060010190602001808311612b6f57829003601f168201915b5050505050815260200160108201548152602001601182015481526020016012820154815260200160138201548152602001601482015481525050905080606001518160a001518260c001518360e001518461010001518561012001518090509650965096509650965096505091939550919395565b6000908152600b602052604090205460ff1690565b600080600080600080612c2861346d565b6000888152600960208181526040928390208351610240810185528154600160a060020a039081166101e083019081526001808501548316610200850152600280860154610220860152918452875160608082018a5260038701548516825260048701548516828901526005870154828b01528588019190915288518082018a5260068701548516815260078701548516818901526008870154818b0152858a01529685015496840196909652600a8401546080840152600b84015460a0840152600c840154821660c0840152600d840154821660e0840152600e84015490911661010080840191909152600f840180548851978116159092026000190190911691909104601f810185900485028601850190965285855290949193610120860193909290830182828015612d9e5780601f10612d7357610100808354040283529160200191612d9e565b820191906000526020600020905b815481529060010190602001808311612d8157829003601f168201915b505050505081526020016010820154815260200160118201548152602001601282015481526020016013820154815260200160148201548152505090508060800151816101400151826101600151836101800151846101a00151856101c001519650965096509650965096505091939550919395565b60008160000151600160a060020a031663deff41c16040518163ffffffff1660e060020a02815260040160206040518083038186803b158015612e5657600080fd5b505afa158015612e6a573d6000803e3d6000fd5b505050506040513d601f19601f82011682018060405250612e8e9190810190613a8b565b600160a060020a03163314612ea257600080fd5b6040517f58b50586000000000000000000000000000000000000000000000000000000008152600190600b9060009073__IexecODBLibOrders_____________________906358b5058690610e31908890600401614446565b633b9aca0081565b60056020526000908152604090205481565b600254600160a060020a03163314612f2c57600080fd5b600082815260096020526040902060130154610726908290613168565b600054600160a060020a031681565b6000612f7a84612f73612f6d86600754613327565b8561337d565b6002613238565b90505b9392505050565b600160a060020a03821660009081526001602081905260409091200154612fb1908263ffffffff61300e16565b600160a060020a0383166000908152600160208190526040918290200191909155517f4051ba94e08bb094159fc38391422b4b8ccfd2b1f8919c0eb37bb042d4b9cd8e906130029084908490614356565b60405180910390a15050565b60008282111561301d57600080fd5b50900390565b600082820183811015612f7d57600080fd5b600160a060020a03821660009081526001602052604090205461305e908263ffffffff61302316565b600160a060020a0383166000908152600160205260409081902091909155517f619caafabdd75649b302ba8419e48cccf64f37f1983ac4727cfb38b57703ffc9906130029084908490614356565b6000612f7d83836064613422565b600160a060020a038216600090815260016020819052604090912001546130e7908263ffffffff61300e16565b600160a060020a0383166000908152600160208190526040909120908101919091555461311a908263ffffffff61302316565b600160a060020a0383166000908152600160205260409081902091909155517f6381d9813cabeb57471b5a7e05078e64845ccdb563146a6911d536f24ce960f1906130029084908490614356565b600160a060020a038216600090815260016020526040902054613191908263ffffffff61300e16565b600160a060020a038316600090815260016020819052604090912091825501546131c1908263ffffffff61302316565b600160a060020a0383166000908152600160208190526040918290200191909155517f625fed9875dada8643f2418b838ae0bc78d9a148a18eee4ee1979ff0f3f5d427906130029084908490614356565b6000818310156132225781612f7d565b5090919050565b60008183106132225781612f7d565b600082600160a060020a031684600160a060020a03161480612f7a575083600160a060020a031663d202158d84604051602001613275919061423c565b60405160208183030381529060405280519060200120846040518363ffffffff1660e060020a0281526004016132ac9291906143eb565b60206040518083038186803b1580156132c457600080fd5b505afa1580156132d8573d6000803e3d6000fd5b505050506040513d601f19601f82011682018060405250612f7a9190810190613af6565b600082151561330d57506000610b02565b82820282848281151561331c57fe5b0414612f7d57600080fd5b604080517f19010000000000000000000000000000000000000000000000000000000000006020808301919091526022820193909352604280820194909452815180820390940184526062019052815191012090565b6000816000015160ff16601b148061339c5750816000015160ff16601c145b15156133a757600080fd5b60018383600001518460200151856040015160405160008152602001604052604051808581526020018460ff1660ff1681526020018381526020018281526020019450505050506020604051602081039080840390855afa158015613410573d6000803e3d6000fd5b5050604051601f190151949350505050565b6000612f7a61343185856132fc565b83600080821161344057600080fd5b6000828481151561344d57fe5b04949350505050565b604080518082019091526000808252602082015290565b6102a0604051908101604052806134826135d6565b815260200161348f6135d6565b815260200161349c6135d6565b81526020016000815260200160008152602001600080191681526020016000600160a060020a031681526020016000600160a060020a031681526020016000600160a060020a031681526020016060815260200160008152602001600081526020016000815260200160008152602001600081525090565b6040805161010081018252600080825260208201819052918101829052606081018290526080810182905260a0810182905260c0810182905260e081019190915290565b828054600181600116156101000203166002900490600052602060002090601f016020900481019282601f1061359957805160ff19168380011785556135c6565b828001600101855582156135c6579182015b828111156135c65782518255916020019190600101906135ab565b506135d29291506135f6565b5090565b604080516060810182526000808252602082018190529181019190915290565b61361091905b808211156135d257600081556001016135fc565b90565b6000612f7d823561450e565b6000612f7d825161450e565b6000612f7d8251614519565b6000612f7d8235613610565b6000612f7d8251613610565b6000601f8201831361366057600080fd5b813561367361366e826144dc565b6144b5565b9150808252602083016020830185838301111561368f57600080fd5b61369a838284614542565b50505092915050565b600061016082840312156136b657600080fd5b6136c16101206144b5565b905060006136cf8484613613565b82525060206136e084848301613637565b60208301525060406136f484828501613637565b604083015250606061370884828501613637565b606083015250608061371c84828501613613565b60808301525060a061373084828501613613565b60a08301525060c061374484828501613613565b60c08301525060e061375884828501613637565b60e08301525061010061376d84828501613a06565b6101008301525092915050565b6000610240828403121561378d57600080fd5b6137986102006144b5565b905060006137a68484613613565b82525060206137b784848301613637565b60208301525060406137cb84828501613613565b60408301525060606137df84828501613637565b60608301525060806137f384828501613613565b60808301525060a061380784828501613637565b60a08301525060c061381b84828501613613565b60c08301525060e061382f84828501613637565b60e08301525061010061384484828501613637565b6101008301525061012061385a84828501613637565b6101208301525061014061387084828501613637565b6101408301525061016061388684828501613613565b6101608301525061018061389c84828501613613565b610180830152506101a082013567ffffffffffffffff8111156138be57600080fd5b6138ca8482850161364f565b6101a0830152506101c06138e084828501613637565b6101c0830152506101e06138f684828501613a06565b6101e08301525092915050565b60006101a0828403121561391657600080fd5b6139216101606144b5565b9050600061392f8484613613565b825250602061394084848301613637565b602083015250604061395484828501613637565b604083015250606061396884828501613637565b606083015250608061397c84828501613637565b60808301525060a061399084828501613637565b60a08301525060c06139a484828501613613565b60c08301525060e06139b884828501613613565b60e0830152506101006139cd84828501613613565b610100830152506101206139e384828501613637565b610120830152506101406139f984828501613a06565b6101408301525092915050565b600060608284031215613a1857600080fd5b613a2260606144b5565b90506000613a308484613a61565b8252506020613a4184848301613637565b6020830152506040613a5584828501613637565b60408301525092915050565b6000612f7d823561452a565b600060208284031215613a7f57600080fd5b600061264d8484613613565b600060208284031215613a9d57600080fd5b600061264d848461361f565b600080600060a08486031215613abe57600080fd5b6000613aca8686613613565b9350506020613adb86828701613637565b9250506040613aec86828701613a06565b9150509250925092565b600060208284031215613b0857600080fd5b600061264d848461362b565b600060208284031215613b2657600080fd5b600061264d8484613637565b600060208284031215613b4457600080fd5b600061264d8484613643565b60008060408385031215613b6357600080fd5b6000613b6f8585613637565b9250506020613b8085828601613613565b9150509250929050565b600080600060608486031215613b9f57600080fd5b6000613bab8686613637565b9350506020613bbc86828701613613565b9250506040613aec86828701613637565b60008060408385031215613be057600080fd5b6000613bec8585613637565b9250506020613b8085828601613637565b60006101608284031215613c1057600080fd5b600061264d84846136a3565b6000806000806104808587031215613c3357600080fd5b6000613c3f87876136a3565b945050610160613c51878288016136a3565b9350506102c0613c6387828801613903565b92505061046085013567ffffffffffffffff811115613c8157600080fd5b613c8d8782880161377a565b91505092959194509250565b600060208284031215613cab57600080fd5b813567ffffffffffffffff811115613cc257600080fd5b61264d8482850161377a565b60006101a08284031215613ce157600080fd5b600061264d8484613903565b613cf681614530565b82525050565b613cf68161450e565b6000613d108261450a565b808452602084019350613d2283614504565b60005b82811015613d5257613d38868351613d65565b613d4182614504565b602096909601959150600101613d25565b5093949350505050565b613cf681614519565b613cf681613610565b613cf681614537565b6000613d828261450a565b808452613d9681602086016020860161454e565b613d9f8161457a565b9093016020019392505050565b80516040830190613dbd8482613d65565b506020820151610c736020850182613d65565b8051610160830190613de28482613cfc565b506020820151613df56020850182613d65565b506040820151613e086040850182613d65565b506060820151613e1b6060850182613d65565b506080820151613e2e6080850182613cfc565b5060a0820151613e4160a0850182613cfc565b5060c0820151613e5460c0850182613cfc565b5060e0820151613e6760e0850182613d65565b50610100820151610c7361010085018261420f565b80516000906102a0840190613e918582614106565b506020830151613ea46060860182614106565b506040830151613eb760c0860182614106565b506060830151613ecb610120860182613d65565b506080830151613edf610140860182613d65565b5060a0830151613ef3610160860182613d65565b5060c0830151613f07610180860182613cfc565b5060e0830151613f1b6101a0860182613cfc565b50610100830151613f306101c0860182613cfc565b506101208301518482036101e0860152613f4a8282613d77565b915050610140830151613f61610200860182613d65565b50610160830151613f76610220860182613d65565b50610180830151613f8b610240860182613d65565b506101a0830151613fa0610260860182613d65565b506101c0830151613fb5610280860182613d65565b509392505050565b8051600090610240840190613fd28582613cfc565b506020830151613fe56020860182613d65565b506040830151613ff86040860182613cfc565b50606083015161400b6060860182613d65565b50608083015161401e6080860182613cfc565b5060a083015161403160a0860182613d65565b5060c083015161404460c0860182613cfc565b5060e083015161405760e0860182613d65565b5061010083015161406c610100860182613d65565b50610120830151614081610120860182613d65565b50610140830151614096610140860182613d65565b506101608301516140ab610160860182613cfc565b506101808301516140c0610180860182613cfc565b506101a08301518482036101a08601526140da8282613d77565b9150506101c08301516140f16101c0860182613d65565b506101e0830151613fb56101e086018261420f565b805160608301906141178482613cfc565b50602082015161412a6020850182613cfc565b506040820151610c736040850182613d65565b80516101a083019061414f8482613cfc565b5060208201516141626020850182613d65565b5060408201516141756040850182613d65565b5060608201516141886060850182613d65565b50608082015161419b6080850182613d65565b5060a08201516141ae60a0850182613d65565b5060c08201516141c160c0850182613cfc565b5060e08201516141d460e0850182613cfc565b506101008201516141e9610100850182613cfc565b506101208201516141fe610120850182613d65565b50610140820151610c736101408501825b805160608301906142208482614233565b50602082015161412a6020850182613d65565b613cf68161452a565b60208101610b028284613cfc565b606081016142588286613ced565b6142656020830185613cfc565b61264d6040830184613d65565b604081016142808285613ced565b612f7d6020830184613d65565b6060810161429b8286613ced565b6142a86020830185613d65565b61264d6040830184613cfc565b606081016142c38286613cfc565b6142a86020830185613cfc565b61012081016142df828c613cfc565b6142ec602083018b613cfc565b6142f9604083018a613d65565b6143066060830189613cfc565b6143136080830188613cfc565b61432060a0830187613d65565b61432d60c0830186613cfc565b61433a60e0830185613cfc565b614348610100830184613d65565b9a9950505050505050505050565b604081016142808285613cfc565b60208082528101612f7d8184613d05565b60208101610b028284613d5c565b60208101610b028284613d65565b60c0810161439f8289613d65565b6143ac6020830188613d65565b6143b96040830187613d65565b6143c66060830186613d65565b6143d36080830185613d65565b6143e060a0830184613d65565b979650505050505050565b604081016142808285613d65565b60208101610b028284613d6e565b60408101610b028284613dac565b6101608101610b028284613dd0565b60208082528101612f7d8184613e7c565b60208082528101612f7d8184613fbd565b6101a08101610b02828461413d565b60c081016144638289613d65565b6144706020830188613d65565b61447d6040830187613cfc565b61448a6060830186613cfc565b6144976080830185613cfc565b81810360a08301526144a98184613d77565b98975050505050505050565b60405181810167ffffffffffffffff811182821017156144d457600080fd5b604052919050565b600067ffffffffffffffff8211156144f357600080fd5b506020601f91909101601f19160190565b60200190565b5190565b6000610b028261451e565b151590565b600160a060020a031690565b60ff1690565b6000610b02825b6000610b028261450e565b82818337506000910152565b60005b83811015614569578181015183820152602001614551565b83811115610c735750506000910152565b601f01601f19169056fea265627a7a72305820348e5acbe7ed8535ade2cf9f2ca584e845280c5ea1c3e11b9a896ce2aba0f9ee6c6578706572696d656e74616cf50037",
  "source": "pragma solidity ^0.5.0;\npragma experimental ABIEncoderV2;\n\nimport \"../node_modules/iexec-solidity/contracts/ERC725_IdentityProxy/IERC725.sol\";\nimport \"../node_modules/iexec-solidity/contracts/Libs/SafeMath.sol\";\nimport \"../node_modules/iexec-solidity/contracts/Libs/ECDSA.sol\";\n\nimport \"./libs/IexecODBLibCore.sol\";\nimport \"./libs/IexecODBLibOrders.sol\";\nimport \"./registries/App.sol\";\nimport \"./registries/Dataset.sol\";\nimport \"./registries/Workerpool.sol\";\nimport \"./Escrow.sol\";\nimport \"./IexecHubAccessor.sol\";\n\n/**\n * /!\\ TEMPORARY LEGACY /!\\\n */\nimport \"./IexecClerkABILegacy.sol\";\n\ncontract IexecClerk is Escrow, IexecHubAccessor, ECDSA, IexecClerkABILegacy\n{\n\tusing SafeMath          for uint256;\n\tusing IexecODBLibOrders for IexecODBLibOrders.EIP712Domain;\n\tusing IexecODBLibOrders for IexecODBLibOrders.AppOrder;\n\tusing IexecODBLibOrders for IexecODBLibOrders.DatasetOrder;\n\tusing IexecODBLibOrders for IexecODBLibOrders.WorkerpoolOrder;\n\tusing IexecODBLibOrders for IexecODBLibOrders.RequestOrder;\n\n\t/***************************************************************************\n\t *                                Constants                                *\n\t ***************************************************************************/\n\tuint256 public constant WORKERPOOL_STAKE_RATIO = 30;\n\tuint256 public constant KITTY_RATIO            = 10;\n\tuint256 public constant KITTY_MIN              = 1000000000; // TODO: 1RLC ?\n\n\t/***************************************************************************\n\t *                            EIP712 signature                             *\n\t ***************************************************************************/\n\tbytes32 public /* immutable */ EIP712DOMAIN_SEPARATOR;\n\n\t/***************************************************************************\n\t *                               Clerk data                                *\n\t ***************************************************************************/\n\tmapping(bytes32 => bytes32[]           ) m_requestdeals;\n\tmapping(bytes32 => IexecODBLibCore.Deal) m_deals;\n\tmapping(bytes32 => uint256             ) m_consumed;\n\tmapping(bytes32 => bool                ) m_presigned;\n\n\t/***************************************************************************\n\t *                                 Events                                  *\n\t ***************************************************************************/\n\tevent OrdersMatched        (bytes32 dealid, bytes32 appHash, bytes32 datasetHash, bytes32 workerpoolHash, bytes32 requestHash, uint256 volume);\n\tevent ClosedAppOrder       (bytes32 appHash);\n\tevent ClosedDatasetOrder   (bytes32 datasetHash);\n\tevent ClosedWorkerpoolOrder(bytes32 workerpoolHash);\n\tevent ClosedRequestOrder   (bytes32 requestHash);\n\tevent SchedulerNotice      (address indexed workerpool, bytes32 dealid);\n\n\t/***************************************************************************\n\t *                               Constructor                               *\n\t ***************************************************************************/\n\tconstructor(\n\t\taddress _token,\n\t\taddress _iexechub,\n\t\tuint256 _chainid)\n\tpublic\n\tEscrow(_token)\n\tIexecHubAccessor(_iexechub)\n\t{\n\t\tEIP712DOMAIN_SEPARATOR = IexecODBLibOrders.EIP712Domain({\n\t\t\tname:              \"iExecODB\"\n\t\t, version:           \"3.0-alpha\"\n\t\t, chainId:           _chainid\n\t\t, verifyingContract: address(this)\n\t\t}).hash();\n\t}\n\n\t/***************************************************************************\n\t *                                Accessor                                 *\n\t ***************************************************************************/\n\tfunction viewRequestDeals(bytes32 _id)\n\texternal view returns (bytes32[] memory requestdeals)\n\t{\n\t\treturn m_requestdeals[_id];\n\t}\n\n\tfunction viewDeal(bytes32 _id)\n\texternal view returns (IexecODBLibCore.Deal memory deal)\n\t{\n\t\treturn m_deals[_id];\n\t}\n\n\tfunction viewConsumed(bytes32 _id)\n\texternal view returns (uint256 consumed)\n\t{\n\t\treturn m_consumed[_id];\n\t}\n\n\tfunction viewPresigned(bytes32 _id)\n\texternal view returns (bool presigned)\n\t{\n\t\treturn m_presigned[_id];\n\t}\n\n\t/***************************************************************************\n\t *                       Hashing and signature tools                       *\n\t ***************************************************************************/\n\tfunction checkIdentity(address _identity, address _candidate, uint256 _purpose)\n\tinternal view returns (bool valid)\n\t{\n\t\treturn _identity == _candidate || IERC725(_identity).keyHasPurpose(keccak256(abi.encode(_candidate)), _purpose); // Simple address || Identity contract\n\t}\n\n\t// internal ?\n\tfunction verifySignature(\n\t\taddress                _identity,\n\t\tbytes32                _hash,\n\t\tECDSA.signature memory _signature)\n\tpublic view returns (bool)\n\t{\n\t\treturn checkIdentity(\n\t\t\t_identity,\n\t\t\trecover(toEthTypedStructHash(_hash, EIP712DOMAIN_SEPARATOR), _signature),\n\t\t\t2 // canceling an order requires ACTION (2) from the owning identity, signature with 2 or 4?\n\t\t);\n\t}\n\n\t/***************************************************************************\n\t *                            pre-signing tools                            *\n\t ***************************************************************************/\n\t// should be external\n\tfunction signAppOrder(IexecODBLibOrders.AppOrder memory _apporder)\n\tpublic returns (bool)\n\t{\n\t\trequire(msg.sender == App(_apporder.app).m_owner());\n\t\tm_presigned[_apporder.hash()] = true;\n\t\treturn true;\n\t}\n\n\t// should be external\n\tfunction signDatasetOrder(IexecODBLibOrders.DatasetOrder memory _datasetorder)\n\tpublic returns (bool)\n\t{\n\t\trequire(msg.sender == Dataset(_datasetorder.dataset).m_owner());\n\t\tm_presigned[_datasetorder.hash()] = true;\n\t\treturn true;\n\t}\n\n\t// should be external\n\tfunction signWorkerpoolOrder(IexecODBLibOrders.WorkerpoolOrder memory _workerpoolorder)\n\tpublic returns (bool)\n\t{\n\t\trequire(msg.sender == Workerpool(_workerpoolorder.workerpool).m_owner());\n\t\tm_presigned[_workerpoolorder.hash()] = true;\n\t\treturn true;\n\t}\n\n\t// should be external\n\tfunction signRequestOrder(IexecODBLibOrders.RequestOrder memory _requestorder)\n\tpublic returns (bool)\n\t{\n\t\trequire(msg.sender == _requestorder.requester);\n\t\tm_presigned[_requestorder.hash()] = true;\n\t\treturn true;\n\t}\n\n\t/***************************************************************************\n\t *                              Clerk methods                              *\n\t ***************************************************************************/\n\tstruct Identities\n\t{\n\t\tbytes32 appHash;\n\t\taddress appOwner;\n\t\tbytes32 datasetHash;\n\t\taddress datasetOwner;\n\t\tbytes32 workerpoolHash;\n\t\taddress workerpoolOwner;\n\t\tbytes32 requestHash;\n\t\tbool    hasDataset;\n\t}\n\n\t// should be external\n\tfunction matchOrders(\n\t\tIexecODBLibOrders.AppOrder        memory _apporder,\n\t\tIexecODBLibOrders.DatasetOrder    memory _datasetorder,\n\t\tIexecODBLibOrders.WorkerpoolOrder memory _workerpoolorder,\n\t\tIexecODBLibOrders.RequestOrder    memory _requestorder)\n\tpublic returns (bytes32)\n\t{\n\t\t/**\n\t\t * Check orders compatibility\n\t\t */\n\n\t\t// computation environment & allowed enough funds\n\t\trequire(_requestorder.category           == _workerpoolorder.category       );\n\t\trequire(_requestorder.trust              <= _workerpoolorder.trust          );\n\t\trequire(_requestorder.appmaxprice        >= _apporder.appprice              );\n\t\trequire(_requestorder.datasetmaxprice    >= _datasetorder.datasetprice      );\n\t\trequire(_requestorder.workerpoolmaxprice >= _workerpoolorder.workerpoolprice);\n\t\trequire((_apporder.tag | _datasetorder.tag | _requestorder.tag) & ~_workerpoolorder.tag == 0x0);\n\n\t\t// Check matching and restrictions\n\t\trequire(_requestorder.app     == _apporder.app        );\n\t\trequire(_requestorder.dataset == _datasetorder.dataset);\n\t\trequire(_requestorder.workerpool           == address(0) || checkIdentity(_requestorder.workerpool,           _workerpoolorder.workerpool, 4)); // requestorder.workerpool is a restriction\n\t\trequire(_apporder.datasetrestrict          == address(0) || checkIdentity(_apporder.datasetrestrict,          _datasetorder.dataset,       4));\n\t\trequire(_apporder.workerpoolrestrict       == address(0) || checkIdentity(_apporder.workerpoolrestrict,       _workerpoolorder.workerpool, 4));\n\t\trequire(_apporder.requesterrestrict        == address(0) || checkIdentity(_apporder.requesterrestrict,        _requestorder.requester,     4));\n\t\trequire(_datasetorder.apprestrict          == address(0) || checkIdentity(_datasetorder.apprestrict,          _apporder.app,               4));\n\t\trequire(_datasetorder.workerpoolrestrict   == address(0) || checkIdentity(_datasetorder.workerpoolrestrict,   _workerpoolorder.workerpool, 4));\n\t\trequire(_datasetorder.requesterrestrict    == address(0) || checkIdentity(_datasetorder.requesterrestrict,    _requestorder.requester,     4));\n\t\trequire(_workerpoolorder.apprestrict       == address(0) || checkIdentity(_workerpoolorder.apprestrict,       _apporder.app,               4));\n\t\trequire(_workerpoolorder.datasetrestrict   == address(0) || checkIdentity(_workerpoolorder.datasetrestrict,   _datasetorder.dataset,       4));\n\t\trequire(_workerpoolorder.requesterrestrict == address(0) || checkIdentity(_workerpoolorder.requesterrestrict, _requestorder.requester,     4));\n\n\t\trequire(iexechub.checkResources(_apporder.app, _datasetorder.dataset, _workerpoolorder.workerpool));\n\n\t\t/**\n\t\t * Check orders authenticity\n\t\t */\n\t\tIdentities memory ids;\n\t\tids.hasDataset = _datasetorder.dataset != address(0);\n\n\t\t// app\n\t\tids.appHash  = _apporder.hash();\n\t\tids.appOwner = App(_apporder.app).m_owner();\n\t\trequire(m_presigned[ids.appHash] || verifySignature(ids.appOwner, ids.appHash, _apporder.sign));\n\n\t\t// dataset\n\t\tif (ids.hasDataset) // only check if dataset is enabled\n\t\t{\n\t\t\tids.datasetHash  = _datasetorder.hash();\n\t\t\tids.datasetOwner = Dataset(_datasetorder.dataset).m_owner();\n\t\t\trequire(m_presigned[ids.datasetHash] || verifySignature(ids.datasetOwner, ids.datasetHash, _datasetorder.sign));\n\t\t}\n\n\t\t// workerpool\n\t\tids.workerpoolHash  = _workerpoolorder.hash();\n\t\tids.workerpoolOwner = Workerpool(_workerpoolorder.workerpool).m_owner();\n\t\trequire(m_presigned[ids.workerpoolHash] || verifySignature(ids.workerpoolOwner, ids.workerpoolHash, _workerpoolorder.sign));\n\n\t\t// request\n\t\tids.requestHash = _requestorder.hash();\n\t\trequire(m_presigned[ids.requestHash] || verifySignature(_requestorder.requester, ids.requestHash, _requestorder.sign));\n\n\t\t/**\n\t\t * Check availability\n\t\t */\n\t\tuint256 volume;\n\t\tvolume =                             _apporder.volume.sub       (m_consumed[ids.appHash       ]);\n\t\tvolume = ids.hasDataset ? volume.min(_datasetorder.volume.sub   (m_consumed[ids.datasetHash   ])) : volume;\n\t\tvolume =                  volume.min(_workerpoolorder.volume.sub(m_consumed[ids.workerpoolHash]));\n\t\tvolume =                  volume.min(_requestorder.volume.sub   (m_consumed[ids.requestHash   ]));\n\t\trequire(volume > 0);\n\n\t\t/**\n\t\t * Record\n\t\t */\n\t\tbytes32 dealid = keccak256(abi.encodePacked(\n\t\t\tids.requestHash,            // requestHash\n\t\t\tm_consumed[ids.requestHash] // idx of first subtask\n\t\t));\n\n\t\tIexecODBLibCore.Deal storage deal = m_deals[dealid];\n\t\tdeal.app.pointer          = _apporder.app;\n\t\tdeal.app.owner            = ids.appOwner;\n\t\tdeal.app.price            = _apporder.appprice;\n\t\tdeal.dataset.owner        = ids.datasetOwner;\n\t\tdeal.dataset.pointer      = _datasetorder.dataset;\n\t\tdeal.dataset.price        = ids.hasDataset ? _datasetorder.datasetprice : 0;\n\t\tdeal.workerpool.pointer   = _workerpoolorder.workerpool;\n\t\tdeal.workerpool.owner     = ids.workerpoolOwner;\n\t\tdeal.workerpool.price     = _workerpoolorder.workerpoolprice;\n\t\tdeal.trust                = _requestorder.trust.max(1);\n\t\tdeal.category             = _requestorder.category;\n\t\tdeal.tag                  = _apporder.tag | _datasetorder.tag | _requestorder.tag;\n\t\tdeal.requester            = _requestorder.requester;\n\t\tdeal.beneficiary          = _requestorder.beneficiary;\n\t\tdeal.callback             = _requestorder.callback;\n\t\tdeal.params               = _requestorder.params;\n\t\tdeal.startTime            = now;\n\t\tdeal.botFirst             = m_consumed[ids.requestHash];\n\t\tdeal.botSize              = volume;\n\t\tdeal.workerStake          = _workerpoolorder.workerpoolprice.percentage(Workerpool(_workerpoolorder.workerpool).m_workerStakeRatioPolicy());\n\t\tdeal.schedulerRewardRatio = Workerpool(_workerpoolorder.workerpool).m_schedulerRewardRatioPolicy();\n\n\t\tm_requestdeals[ids.requestHash].push(dealid);\n\n\t\t/**\n\t\t * Update consumed\n\t\t */\n\t\tm_consumed[ids.appHash       ] = m_consumed[ids.appHash       ].add(                 volume    );\n\t\tm_consumed[ids.datasetHash   ] = m_consumed[ids.datasetHash   ].add(ids.hasDataset ? volume : 0);\n\t\tm_consumed[ids.workerpoolHash] = m_consumed[ids.workerpoolHash].add(                 volume    );\n\t\tm_consumed[ids.requestHash   ] = m_consumed[ids.requestHash   ].add(                 volume    );\n\n\t\t/**\n\t\t * Lock\n\t\t */\n\t\tlock(\n\t\t\tdeal.requester,\n\t\t\tdeal.app.price\n\t\t\t.add(deal.dataset.price)\n\t\t\t.add(deal.workerpool.price)\n\t\t\t.mul(volume)\n\t\t);\n\t\tlock(\n\t\t\tdeal.workerpool.owner,\n\t\t\tdeal.workerpool.price\n\t\t\t.percentage(WORKERPOOL_STAKE_RATIO) // ORDER IS IMPORTANT HERE!\n\t\t\t.mul(volume)                        // ORDER IS IMPORTANT HERE!\n\t\t);\n\n\t\t/**\n\t\t * Advertize deal\n\t\t */\n\t\temit SchedulerNotice(deal.workerpool.pointer, dealid);\n\n\t\t/**\n\t\t * Advertize consumption\n\t\t */\n\t\temit OrdersMatched(\n\t\t\tdealid,\n\t\t\tids.appHash,\n\t\t\tids.datasetHash,\n\t\t\tids.workerpoolHash,\n\t\t\tids.requestHash,\n\t\t\tvolume\n\t\t);\n\n\t\treturn dealid;\n\t}\n\n\t// should be external\n\tfunction cancelAppOrder(IexecODBLibOrders.AppOrder memory _apporder)\n\tpublic returns (bool)\n\t{\n\t\tbytes32 dapporderHash = _apporder.hash();\n\t\trequire(msg.sender == App(_apporder.app).m_owner());\n\t\t// require(verify(msg.sender, dapporderHash, _apporder.sign));\n\t\tm_consumed[dapporderHash] = _apporder.volume;\n\t\temit ClosedAppOrder(dapporderHash);\n\t\treturn true;\n\t}\n\n\t// should be external\n\tfunction cancelDatasetOrder(IexecODBLibOrders.DatasetOrder memory _datasetorder)\n\tpublic returns (bool)\n\t{\n\t\tbytes32 dataorderHash = _datasetorder.hash();\n\t\trequire(msg.sender == Dataset(_datasetorder.dataset).m_owner());\n\t\t// require(verify(msg.sender, dataorderHash, _datasetorder.sign));\n\t\tm_consumed[dataorderHash] = _datasetorder.volume;\n\t\temit ClosedDatasetOrder(dataorderHash);\n\t\treturn true;\n\t}\n\n\t// should be external\n\tfunction cancelWorkerpoolOrder(IexecODBLibOrders.WorkerpoolOrder memory _workerpoolorder)\n\tpublic returns (bool)\n\t{\n\t\tbytes32 poolorderHash = _workerpoolorder.hash();\n\t\trequire(msg.sender == Workerpool(_workerpoolorder.workerpool).m_owner());\n\t\t// require(verify(msg.sender, poolorderHash, _workerpoolorder.sign));\n\t\tm_consumed[poolorderHash] = _workerpoolorder.volume;\n\t\temit ClosedWorkerpoolOrder(poolorderHash);\n\t\treturn true;\n\t}\n\n\t// should be external\n\tfunction cancelRequestOrder(IexecODBLibOrders.RequestOrder memory _requestorder)\n\tpublic returns (bool)\n\t{\n\t\tbytes32 requestorderHash = _requestorder.hash();\n\t\trequire(msg.sender == _requestorder.requester);\n\t\t// require(verify(msg.sender, requestorderHash, _requestorder.sign));\n\t\tm_consumed[requestorderHash] = _requestorder.volume;\n\t\temit ClosedRequestOrder(requestorderHash);\n\t\treturn true;\n\t}\n\n\t/***************************************************************************\n\t *                    Escrow overhead for contribution                     *\n\t ***************************************************************************/\n\tfunction lockContribution(bytes32 _dealid, address _worker)\n\texternal onlyIexecHub\n\t{\n\t\tlock(_worker, m_deals[_dealid].workerStake);\n\t}\n\n\tfunction unlockContribution(bytes32 _dealid, address _worker)\n\texternal onlyIexecHub\n\t{\n\t\tunlock(_worker, m_deals[_dealid].workerStake);\n\t}\n\n\tfunction unlockAndRewardForContribution(bytes32 _dealid, address _worker, uint256 _amount)\n\texternal onlyIexecHub\n\t{\n\t\tunlock(_worker, m_deals[_dealid].workerStake);\n\t\treward(_worker, _amount);\n\t}\n\n\tfunction seizeContribution(bytes32 _dealid, address _worker)\n\texternal onlyIexecHub\n\t{\n\t\tseize(_worker, m_deals[_dealid].workerStake);\n\t}\n\n\tfunction rewardForScheduling(bytes32 _dealid, uint256 _amount)\n\texternal onlyIexecHub\n\t{\n\t\treward(m_deals[_dealid].workerpool.owner, _amount);\n\t}\n\n\tfunction successWork(bytes32 _dealid)\n\texternal onlyIexecHub\n\t{\n\t\tIexecODBLibCore.Deal storage deal = m_deals[_dealid];\n\n\t\tuint256 requesterstake = deal.app.price\n\t\t                         .add(deal.dataset.price)\n\t\t                         .add(deal.workerpool.price);\n\t\tuint256 poolstake = deal.workerpool.price\n\t\t                    .percentage(WORKERPOOL_STAKE_RATIO);\n\n\t\t// seize requester funds\n\t\tseize (deal.requester, requesterstake);\n\t\t// unlock pool stake\n\t\tunlock(deal.workerpool.owner, poolstake);\n\t\t// dapp reward\n\t\treward(deal.app.owner, deal.app.price);\n\t\t// data reward\n\t\tif (deal.dataset.pointer != address(0))\n\t\t{\n\t\t\treward(deal.dataset.owner, deal.dataset.price);\n\t\t}\n\t\t// pool reward performed by consensus manager\n\n\t\t/**\n\t\t * Retrieve part of the kitty\n\t\t * TODO: remove / keep ?\n\t\t */\n\t\tuint256 kitty = m_accounts[address(0)].locked;\n\t\tif (kitty > 0)\n\t\t{\n\t\t\tkitty = kitty\n\t\t\t        .percentage(KITTY_RATIO) // fraction\n\t\t\t        .max(KITTY_MIN)          // at least this\n\t\t\t        .min(kitty);             // but not more than available\n\t\t\tseize (address(0),            kitty);\n\t\t\treward(deal.workerpool.owner, kitty);\n\t\t}\n\t}\n\n\tfunction failedWork(bytes32 _dealid)\n\texternal onlyIexecHub\n\t{\n\t\tIexecODBLibCore.Deal storage deal = m_deals[_dealid];\n\n\t\tuint256 requesterstake = deal.app.price\n\t\t                         .add(deal.dataset.price)\n\t\t                         .add(deal.workerpool.price);\n\t\tuint256 poolstake = deal.workerpool.price\n\t\t                    .percentage(WORKERPOOL_STAKE_RATIO);\n\n\t\tunlock(deal.requester,        requesterstake);\n\t\tseize (deal.workerpool.owner, poolstake     );\n\t\treward(address(0),            poolstake     ); //  Kitty / Burn\n\t\tlock  (address(0),            poolstake     ); //  Kitty / Burn\n\t}\n\n\n\n\n\n\n\n\n\n\n\n\n\n\n\n\n\n\n\t/**\n\t * /!\\ TEMPORARY LEGACY /!\\\n\t */\n\n\tfunction viewDealABILegacy_pt1(bytes32 _id)\n\texternal view returns\n\t( address\n\t, address\n\t, uint256\n\t, address\n\t, address\n\t, uint256\n\t, address\n\t, address\n\t, uint256\n\t)\n\t{\n\t\tIexecODBLibCore.Deal memory deal = m_deals[_id];\n\t\treturn (\n\t\t\tdeal.app.pointer,\n\t\t\tdeal.app.owner,\n\t\t\tdeal.app.price,\n\t\t\tdeal.dataset.pointer,\n\t\t\tdeal.dataset.owner,\n\t\t\tdeal.dataset.price,\n\t\t\tdeal.workerpool.pointer,\n\t\t\tdeal.workerpool.owner,\n\t\t\tdeal.workerpool.price\n\t\t);\n\t}\n\n\tfunction viewDealABILegacy_pt2(bytes32 _id)\n\texternal view returns\n\t( uint256\n\t, bytes32\n\t, address\n\t, address\n\t, address\n\t, string memory\n\t)\n\t{\n\t\tIexecODBLibCore.Deal memory deal = m_deals[_id];\n\t\treturn (\n\t\t\tdeal.trust,\n\t\t\tdeal.tag,\n\t\t\tdeal.requester,\n\t\t\tdeal.beneficiary,\n\t\t\tdeal.callback,\n\t\t\tdeal.params\n\t\t);\n\t}\n\n\tfunction viewConfigABILegacy(bytes32 _id)\n\texternal view returns\n\t( uint256\n\t, uint256\n\t, uint256\n\t, uint256\n\t, uint256\n\t, uint256\n\t)\n\t{\n\t\tIexecODBLibCore.Deal memory deal = m_deals[_id];\n\t\treturn (\n\t\t\tdeal.category,\n\t\t\tdeal.startTime,\n\t\t\tdeal.botFirst,\n\t\t\tdeal.botSize,\n\t\t\tdeal.workerStake,\n\t\t\tdeal.schedulerRewardRatio\n\t\t);\n\t}\n\n\tfunction viewAccountABILegacy(address _user)\n\texternal view returns (uint256, uint256)\n\t{\n\t\tIexecODBLibCore.Account memory account = m_accounts[_user];\n\t\treturn ( account.stake, account.locked );\n\t}\n}\n",
  "sourcePath": "/home/amxx/Work/iExec/code/PoCo/contracts/IexecClerk.sol",
  "compiler": {
    "name": "solc",
    "version": "0.5.0+commit.1d4f565a.Emscripten.clang"
  },
  "schemaVersion": "3.0.1",
  "updatedAt": "2019-01-25T13:16:50.146Z",
  "devdoc": {
    "methods": {}
  },
  "userdoc": {
    "methods": {
      "constructor": "*************************************************************************                              Constructor                               ***************************************************************************",
      "deposit(uint256)": {
        "notice": "Wallet methods: public"
      },
      "lockContribution(bytes32,address)": {
        "notice": "*************************************************************************                   Escrow overhead for contribution                     ***************************************************************************"
      },
      "signAppOrder((address,uint256,uint256,bytes32,address,address,address,bytes32,(uint8,bytes32,bytes32)))": {
        "notice": "*************************************************************************                           pre-signing tools                            ***************************************************************************"
      },
      "viewAccount(address)": {
        "notice": "Accessor"
      },
      "viewDealABILegacy_pt1(bytes32)": {
        "notice": "/!\\ TEMPORARY LEGACY /!\\"
      },
      "viewRequestDeals(bytes32)": {
        "notice": "*************************************************************************                               Accessor                                 ***************************************************************************"
      }
    }
  }
}