{
  "contractName": "IexecCoreDelegate",
  "abi": [
    {
      "constant": true,
      "inputs": [],
      "name": "appregistry",
      "outputs": [
        {
          "name": "",
          "type": "address"
        }
      ],
      "payable": false,
      "stateMutability": "view",
      "type": "function",
      "signature": "0x45b637a9"
    },
    {
      "constant": true,
      "inputs": [],
      "name": "workerpoolregistry",
      "outputs": [
        {
          "name": "",
          "type": "address"
        }
      ],
      "payable": false,
      "stateMutability": "view",
      "type": "function",
      "signature": "0x90a0f546"
    },
    {
      "constant": true,
      "inputs": [],
      "name": "datasetregistry",
      "outputs": [
        {
          "name": "",
          "type": "address"
        }
      ],
      "payable": false,
      "stateMutability": "view",
      "type": "function",
      "signature": "0xb1b11d2c"
    },
    {
      "constant": true,
      "inputs": [],
      "name": "m_owner",
      "outputs": [
        {
          "name": "",
          "type": "address"
        }
      ],
      "payable": false,
      "stateMutability": "view",
      "type": "function",
      "signature": "0xdeff41c1"
    },
    {
      "constant": false,
      "inputs": [
        {
          "name": "_newOwner",
          "type": "address"
        }
      ],
      "name": "transferOwnership",
      "outputs": [],
      "payable": false,
      "stateMutability": "nonpayable",
      "type": "function",
      "signature": "0xf2fde38b"
    },
    {
      "constant": true,
      "inputs": [],
      "name": "token",
      "outputs": [
        {
          "name": "",
          "type": "address"
        }
      ],
      "payable": false,
      "stateMutability": "view",
      "type": "function",
      "signature": "0xfc0c546a"
    },
    {
      "anonymous": false,
      "inputs": [
        {
          "indexed": false,
          "name": "previousOwner",
          "type": "address"
        },
        {
          "indexed": false,
          "name": "newOwner",
          "type": "address"
        }
      ],
      "name": "OwnershipTransferred",
      "type": "event",
      "signature": "0x8be0079c531659141344cd1fd0a4f28419497f9722a3daafe3b4186f6b6457e0"
    },
    {
      "anonymous": false,
      "inputs": [
        {
          "indexed": false,
          "name": "owner",
          "type": "address"
        },
        {
          "indexed": false,
          "name": "amount",
          "type": "uint256"
        }
      ],
      "name": "Deposit",
      "type": "event",
      "signature": "0xe1fffcc4923d04b559f4d29a8bfc6cda04eb5b0d3c460751c2402c5c5cc9109c"
    },
    {
      "anonymous": false,
      "inputs": [
        {
          "indexed": false,
          "name": "owner",
          "type": "address"
        },
        {
          "indexed": false,
          "name": "amount",
          "type": "uint256"
        },
        {
          "indexed": false,
          "name": "target",
          "type": "address"
        }
      ],
      "name": "DepositFor",
      "type": "event",
      "signature": "0xcce62bfcdb09eddbe4e5ff5ec3bafdbabc25a52e1cf34f014a0a7a0864f9634c"
    },
    {
      "anonymous": false,
      "inputs": [
        {
          "indexed": false,
          "name": "owner",
          "type": "address"
        },
        {
          "indexed": false,
          "name": "amount",
          "type": "uint256"
        }
      ],
      "name": "Withdraw",
      "type": "event",
      "signature": "0x884edad9ce6fa2440d8a54cc123490eb96d2768479d49ff9c7366125a9424364"
    },
    {
      "anonymous": false,
      "inputs": [
        {
          "indexed": false,
          "name": "user",
          "type": "address"
        },
        {
          "indexed": false,
          "name": "amount",
          "type": "uint256"
        }
      ],
      "name": "Reward",
      "type": "event",
      "signature": "0x619caafabdd75649b302ba8419e48cccf64f37f1983ac4727cfb38b57703ffc9"
    },
    {
      "anonymous": false,
      "inputs": [
        {
          "indexed": false,
          "name": "user",
          "type": "address"
        },
        {
          "indexed": false,
          "name": "amount",
          "type": "uint256"
        }
      ],
      "name": "Seize",
      "type": "event",
      "signature": "0x4051ba94e08bb094159fc38391422b4b8ccfd2b1f8919c0eb37bb042d4b9cd8e"
    },
    {
      "anonymous": false,
      "inputs": [
        {
          "indexed": false,
          "name": "dealid",
          "type": "bytes32"
        },
        {
          "indexed": false,
          "name": "appHash",
          "type": "bytes32"
        },
        {
          "indexed": false,
          "name": "datasetHash",
          "type": "bytes32"
        },
        {
          "indexed": false,
          "name": "workerpoolHash",
          "type": "bytes32"
        },
        {
          "indexed": false,
          "name": "requestHash",
          "type": "bytes32"
        },
        {
          "indexed": false,
          "name": "volume",
          "type": "uint256"
        }
      ],
      "name": "OrdersMatched",
      "type": "event",
      "signature": "0xd811b592ed0899225773e8933d8df64bd0b62761a9d7aad4ed5b22735f4610a4"
    },
    {
      "anonymous": false,
      "inputs": [
        {
          "indexed": true,
          "name": "workerpool",
          "type": "address"
        },
        {
          "indexed": false,
          "name": "dealid",
          "type": "bytes32"
        }
      ],
      "name": "SchedulerNotice",
      "type": "event",
      "signature": "0x692ad61076dceddd0f1a861f737553dd61fc8501cf4190d29c4e90af6607f765"
    },
    {
      "anonymous": false,
      "inputs": [
        {
          "indexed": true,
          "name": "taskid",
          "type": "bytes32"
        },
        {
          "indexed": true,
          "name": "workerpool",
          "type": "address"
        }
      ],
      "name": "TaskInitialize",
      "type": "event",
      "signature": "0x252992fb0468d68d6a5784ec03214f0d0a362083f2d7ebd157af43b017a22e06"
    },
    {
      "anonymous": false,
      "inputs": [
        {
          "indexed": true,
          "name": "taskid",
          "type": "bytes32"
        },
        {
          "indexed": true,
          "name": "worker",
          "type": "address"
        },
        {
          "indexed": false,
          "name": "hash",
          "type": "bytes32"
        }
      ],
      "name": "TaskContribute",
      "type": "event",
      "signature": "0x3fdb8d7797562d49a81078dbf7fa1771958ea452f8b13d1148383bd9506aecfb"
    },
    {
      "anonymous": false,
      "inputs": [
        {
          "indexed": true,
          "name": "taskid",
          "type": "bytes32"
        },
        {
          "indexed": false,
          "name": "consensus",
          "type": "bytes32"
        }
      ],
      "name": "TaskConsensus",
      "type": "event",
      "signature": "0xf6d49bf3e05d33a4bc497d3c793fb5756388bb96b947cf51bb60aaecb0e022e3"
    },
    {
      "anonymous": false,
      "inputs": [
        {
          "indexed": true,
          "name": "taskid",
          "type": "bytes32"
        },
        {
          "indexed": true,
          "name": "worker",
          "type": "address"
        },
        {
          "indexed": false,
          "name": "digest",
          "type": "bytes32"
        }
      ],
      "name": "TaskReveal",
      "type": "event",
      "signature": "0x4b1763d473ac8fa80b4432ba90047e1b92444d8fabc55e6a002d9b1a316d7959"
    },
    {
      "anonymous": false,
      "inputs": [
        {
          "indexed": true,
          "name": "taskid",
          "type": "bytes32"
        }
      ],
      "name": "TaskReopen",
      "type": "event",
      "signature": "0x3afe0f24796ce653c6ab1f3e7aba5ce564eece5e82aee724aff28253e829f07b"
    },
    {
      "anonymous": false,
      "inputs": [
        {
          "indexed": true,
          "name": "taskid",
          "type": "bytes32"
        },
        {
          "indexed": false,
          "name": "results",
          "type": "bytes"
        }
      ],
      "name": "TaskFinalize",
      "type": "event",
      "signature": "0x78ce8a8bc0fcb704e8ba3b3dbb36aa88002df8038128b4af2f27ef65db665044"
    },
    {
      "anonymous": false,
      "inputs": [
        {
          "indexed": true,
          "name": "taskid",
          "type": "bytes32"
        }
      ],
      "name": "TaskClaimed",
      "type": "event",
      "signature": "0xcbc308b5f91040d2659a5201858344b0b583cd2f9e18e8470c2fa052c5b21ff8"
    },
    {
      "anonymous": false,
      "inputs": [
        {
          "indexed": true,
          "name": "worker",
          "type": "address"
        },
        {
          "indexed": true,
          "name": "taskid",
          "type": "bytes32"
        }
      ],
      "name": "AccurateContribution",
      "type": "event",
      "signature": "0x9703f4589802246c80b822e63697180da799e363cd1b6fd9465a5e5574d53492"
    },
    {
      "anonymous": false,
      "inputs": [
        {
          "indexed": true,
          "name": "worker",
          "type": "address"
        },
        {
          "indexed": true,
          "name": "taskid",
          "type": "bytes32"
        }
      ],
      "name": "FaultyContribution",
      "type": "event",
      "signature": "0xf868788948d55240774fdbad06555105ef20bbc70d1b7eccda982b65e11e79bb"
    },
    {
      "constant": false,
      "inputs": [
        {
          "name": "_token",
          "type": "address"
        },
        {
          "name": "_chainid",
          "type": "uint256"
        },
        {
          "name": "_appregistryAddress",
          "type": "address"
        },
        {
          "name": "_datasetregistryAddress",
          "type": "address"
        },
        {
          "name": "_workerpoolregistryAddress",
          "type": "address"
        }
      ],
      "name": "configure",
      "outputs": [],
      "payable": false,
      "stateMutability": "nonpayable",
      "type": "function",
      "signature": "0x467e9b73"
    },
    {
      "constant": false,
      "inputs": [
        {
          "name": "_amount",
          "type": "uint256"
        }
      ],
      "name": "deposit",
      "outputs": [
        {
          "name": "",
          "type": "bool"
        }
      ],
      "payable": false,
      "stateMutability": "nonpayable",
      "type": "function",
      "signature": "0xb6b55f25"
    },
    {
      "constant": false,
      "inputs": [
        {
          "name": "_amount",
          "type": "uint256"
        },
        {
          "name": "_target",
          "type": "address"
        }
      ],
      "name": "depositFor",
      "outputs": [
        {
          "name": "",
          "type": "bool"
        }
      ],
      "payable": false,
      "stateMutability": "nonpayable",
      "type": "function",
      "signature": "0x36efd16f"
    },
    {
      "constant": false,
      "inputs": [
        {
          "name": "_amount",
          "type": "uint256"
        }
      ],
      "name": "withdraw",
      "outputs": [
        {
          "name": "",
          "type": "bool"
        }
      ],
      "payable": false,
      "stateMutability": "nonpayable",
      "type": "function",
      "signature": "0x2e1a7d4d"
    },
    {
      "constant": true,
      "inputs": [
        {
          "name": "_restriction",
          "type": "address"
        },
        {
          "name": "_candidate",
          "type": "address"
        },
        {
          "name": "_mask",
          "type": "bytes1"
        }
      ],
      "name": "checkRestriction",
      "outputs": [
        {
          "name": "",
          "type": "bool"
        }
      ],
      "payable": false,
      "stateMutability": "view",
      "type": "function",
      "signature": "0xc3ee9d3b"
    },
    {
      "constant": true,
      "inputs": [
        {
          "name": "_signer",
          "type": "address"
        },
        {
          "name": "_hash",
          "type": "bytes32"
        },
        {
          "components": [
            {
              "name": "v",
              "type": "uint8"
            },
            {
              "name": "r",
              "type": "bytes32"
            },
            {
              "name": "s",
              "type": "bytes32"
            }
          ],
          "name": "_signature",
          "type": "tuple"
        }
      ],
      "name": "verify",
      "outputs": [
        {
          "name": "",
          "type": "bool"
        }
      ],
      "payable": false,
      "stateMutability": "view",
      "type": "function",
      "signature": "0x0db73bfe"
    },
    {
      "constant": false,
      "inputs": [
        {
          "components": [
            {
              "name": "app",
              "type": "address"
            },
            {
              "name": "appprice",
              "type": "uint256"
            },
            {
              "name": "volume",
              "type": "uint256"
            },
            {
              "name": "tag",
              "type": "bytes32"
            },
            {
              "name": "datasetrestrict",
              "type": "address"
            },
            {
              "name": "workerpoolrestrict",
              "type": "address"
            },
            {
              "name": "requesterrestrict",
              "type": "address"
            },
            {
              "name": "salt",
              "type": "bytes32"
            },
            {
              "components": [
                {
                  "name": "v",
                  "type": "uint8"
                },
                {
                  "name": "r",
                  "type": "bytes32"
                },
                {
                  "name": "s",
                  "type": "bytes32"
                }
              ],
              "name": "sign",
              "type": "tuple"
            }
          ],
          "name": "_apporder",
          "type": "tuple"
        },
        {
          "components": [
            {
              "name": "dataset",
              "type": "address"
            },
            {
              "name": "datasetprice",
              "type": "uint256"
            },
            {
              "name": "volume",
              "type": "uint256"
            },
            {
              "name": "tag",
              "type": "bytes32"
            },
            {
              "name": "apprestrict",
              "type": "address"
            },
            {
              "name": "workerpoolrestrict",
              "type": "address"
            },
            {
              "name": "requesterrestrict",
              "type": "address"
            },
            {
              "name": "salt",
              "type": "bytes32"
            },
            {
              "components": [
                {
                  "name": "v",
                  "type": "uint8"
                },
                {
                  "name": "r",
                  "type": "bytes32"
                },
                {
                  "name": "s",
                  "type": "bytes32"
                }
              ],
              "name": "sign",
              "type": "tuple"
            }
          ],
          "name": "_datasetorder",
          "type": "tuple"
        },
        {
          "components": [
            {
              "name": "workerpool",
              "type": "address"
            },
            {
              "name": "workerpoolprice",
              "type": "uint256"
            },
            {
              "name": "volume",
              "type": "uint256"
            },
            {
              "name": "tag",
              "type": "bytes32"
            },
            {
              "name": "category",
              "type": "uint256"
            },
            {
              "name": "trust",
              "type": "uint256"
            },
            {
              "name": "apprestrict",
              "type": "address"
            },
            {
              "name": "datasetrestrict",
              "type": "address"
            },
            {
              "name": "requesterrestrict",
              "type": "address"
            },
            {
              "name": "salt",
              "type": "bytes32"
            },
            {
              "components": [
                {
                  "name": "v",
                  "type": "uint8"
                },
                {
                  "name": "r",
                  "type": "bytes32"
                },
                {
                  "name": "s",
                  "type": "bytes32"
                }
              ],
              "name": "sign",
              "type": "tuple"
            }
          ],
          "name": "_workerpoolorder",
          "type": "tuple"
        },
        {
          "components": [
            {
              "name": "app",
              "type": "address"
            },
            {
              "name": "appmaxprice",
              "type": "uint256"
            },
            {
              "name": "dataset",
              "type": "address"
            },
            {
              "name": "datasetmaxprice",
              "type": "uint256"
            },
            {
              "name": "workerpool",
              "type": "address"
            },
            {
              "name": "workerpoolmaxprice",
              "type": "uint256"
            },
            {
              "name": "requester",
              "type": "address"
            },
            {
              "name": "volume",
              "type": "uint256"
            },
            {
              "name": "tag",
              "type": "bytes32"
            },
            {
              "name": "category",
              "type": "uint256"
            },
            {
              "name": "trust",
              "type": "uint256"
            },
            {
              "name": "beneficiary",
              "type": "address"
            },
            {
              "name": "callback",
              "type": "address"
            },
            {
              "name": "params",
              "type": "string"
            },
            {
              "name": "salt",
              "type": "bytes32"
            },
            {
              "components": [
                {
                  "name": "v",
                  "type": "uint8"
                },
                {
                  "name": "r",
                  "type": "bytes32"
                },
                {
                  "name": "s",
                  "type": "bytes32"
                }
              ],
              "name": "sign",
              "type": "tuple"
            }
          ],
          "name": "_requestorder",
          "type": "tuple"
        }
      ],
      "name": "matchOrders",
      "outputs": [
        {
          "name": "",
          "type": "bytes32"
        }
      ],
      "payable": false,
      "stateMutability": "nonpayable",
      "type": "function",
      "signature": "0xbafbf19c"
    },
    {
      "constant": false,
      "inputs": [
        {
          "name": "_dealid",
          "type": "bytes32"
        },
        {
          "name": "idx",
          "type": "uint256"
        }
      ],
      "name": "initialize",
      "outputs": [
        {
          "name": "",
          "type": "bytes32"
        }
      ],
      "payable": false,
      "stateMutability": "nonpayable",
      "type": "function",
      "signature": "0x5b36c66b"
    },
    {
      "constant": false,
      "inputs": [
        {
          "name": "_taskid",
          "type": "bytes32"
        },
        {
          "name": "_resultHash",
          "type": "bytes32"
        },
        {
          "name": "_resultSeal",
          "type": "bytes32"
        },
        {
          "name": "_enclaveChallenge",
          "type": "address"
        },
        {
          "components": [
            {
              "name": "v",
              "type": "uint8"
            },
            {
              "name": "r",
              "type": "bytes32"
            },
            {
              "name": "s",
              "type": "bytes32"
            }
          ],
          "name": "_enclaveSign",
          "type": "tuple"
        },
        {
          "components": [
            {
              "name": "v",
              "type": "uint8"
            },
            {
              "name": "r",
              "type": "bytes32"
            },
            {
              "name": "s",
              "type": "bytes32"
            }
          ],
          "name": "_workerpoolSign",
          "type": "tuple"
        }
      ],
      "name": "contribute",
      "outputs": [],
      "payable": false,
      "stateMutability": "nonpayable",
      "type": "function",
      "signature": "0x25a57534"
    },
    {
      "constant": false,
      "inputs": [
        {
          "name": "_taskid",
          "type": "bytes32"
        },
        {
          "name": "_resultDigest",
          "type": "bytes32"
        }
      ],
      "name": "reveal",
      "outputs": [],
      "payable": false,
      "stateMutability": "nonpayable",
      "type": "function",
      "signature": "0xfc334e8c"
    },
    {
      "constant": false,
      "inputs": [
        {
          "name": "_taskid",
          "type": "bytes32"
        }
      ],
      "name": "reopen",
      "outputs": [],
      "payable": false,
      "stateMutability": "nonpayable",
      "type": "function",
      "signature": "0xf6c68e10"
    },
    {
      "constant": false,
      "inputs": [
        {
          "name": "_taskid",
          "type": "bytes32"
        },
        {
          "name": "_results",
          "type": "bytes"
        }
      ],
      "name": "finalize",
      "outputs": [],
      "payable": false,
      "stateMutability": "nonpayable",
      "type": "function",
      "signature": "0xc037f13e"
    },
    {
      "constant": false,
      "inputs": [
        {
          "name": "_taskid",
          "type": "bytes32"
        }
      ],
      "name": "claim",
      "outputs": [],
      "payable": false,
      "stateMutability": "nonpayable",
      "type": "function",
      "signature": "0xbd66528a"
    },
    {
      "constant": false,
      "inputs": [
        {
          "name": "_dealid",
          "type": "bytes32[]"
        },
        {
          "name": "_idx",
          "type": "uint256[]"
        }
      ],
      "name": "initializeArray",
      "outputs": [
        {
          "name": "",
          "type": "bool"
        }
      ],
      "payable": false,
      "stateMutability": "nonpayable",
      "type": "function",
      "signature": "0xb504681d"
    },
    {
      "constant": false,
      "inputs": [
        {
          "name": "_taskid",
          "type": "bytes32[]"
        }
      ],
      "name": "claimArray",
      "outputs": [
        {
          "name": "",
          "type": "bool"
        }
      ],
      "payable": false,
      "stateMutability": "nonpayable",
      "type": "function",
      "signature": "0xfa055d7e"
    },
    {
      "constant": false,
      "inputs": [
        {
          "name": "_dealid",
          "type": "bytes32[]"
        },
        {
          "name": "_idx",
          "type": "uint256[]"
        }
      ],
      "name": "initializeAndClaimArray",
      "outputs": [
        {
          "name": "",
          "type": "bool"
        }
      ],
      "payable": false,
      "stateMutability": "nonpayable",
      "type": "function",
      "signature": "0xf722cb32"
    }
  ],
  "bytecode": "0x608060405260008054600160a060020a03191633179055614dee806100256000396000f3fe60806040526004361061010e5763ffffffff60e060020a6000350416630db73bfe811461011357806325a57534146101495780632e1a7d4d1461016b57806336efd16f1461018b57806345b637a9146101ab578063467e9b73146101cd5780635b36c66b146101ed57806390a0f5461461021a578063b1b11d2c1461022f578063b504681d14610244578063b6b55f2514610264578063bafbf19c14610284578063bd66528a146102a4578063c037f13e146102c4578063c3ee9d3b146102e4578063deff41c114610304578063f2fde38b14610326578063f6c68e1014610346578063f722cb3214610366578063fa055d7e14610386578063fc0c546a146103a6578063fc334e8c146103bb575b600080fd5b34801561011f57600080fd5b5061013361012e36600461421d565b6103db565b6040516101409190614b76565b60405180910390f35b34801561015557600080fd5b50610169610164366004614439565b6104df565b005b34801561017757600080fd5b506101336101863660046143c3565b610b41565b34801561019757600080fd5b506101336101a6366004614594565b610c7c565b3480156101b757600080fd5b506101c0610df3565b6040516101409190614c28565b3480156101d957600080fd5b506101696101e8366004614260565b610e02565b3480156101f957600080fd5b5061020d6102083660046143ff565b610f9e565b6040516101409190614b84565b34801561022657600080fd5b506101c06112de565b34801561023b57600080fd5b506101c06112ed565b34801561025057600080fd5b5061013361025f366004614317565b6112fc565b34801561027057600080fd5b5061013361027f3660046143c3565b61135c565b34801561029057600080fd5b5061020d61029f366004614517565b611482565b3480156102b057600080fd5b506101696102bf3660046143c3565b6123a4565b3480156102d057600080fd5b506101696102df3660046144c1565b612497565b3480156102f057600080fd5b506101336102ff3660046141d0565b6126f6565b34801561031057600080fd5b5061031961280c565b6040516101409190614ad4565b34801561033257600080fd5b50610169610341366004614194565b61281b565b34801561035257600080fd5b506101696103613660046143c3565b6128d3565b34801561037257600080fd5b50610133610381366004614317565b612aaf565b34801561039257600080fd5b506101336103a13660046142d5565b612af7565b3480156103b257600080fd5b506101c0612b30565b3480156103c757600080fd5b506101696103d63660046143ff565b612b3f565b60006001600a548460405160200180807f1901000000000000000000000000000000000000000000000000000000000000815250600201838152602001828152602001925050506040516020818303038152906040528051906020012083600001518460200151856040015160405160008152602001604052604051808581526020018460ff1660ff1681526020018381526020018281526020019450505050506020604051602081039080840390855afa15801561049e573d6000803e3d6000fd5b50505060206040510351600160a060020a031684600160a060020a031614806104d5575060008381526014602052604090205460ff165b90505b9392505050565b6000868152600b60209081526040808320600c8352818420338552909252909120610508613a83565b6001838101546000908152601260209081526040918290208251610240810184528154600160a060020a039081166101e0830190815283870154821661020084015260028085015461022085015290835285516060808201885260038601548416825260048601548416828801526005860154828901528487019190915286518082018852600686015484168152600786015484168188015260088601548189015284880152600985015490840152600a8401546080840152600b84015460a0840152600c840154821660c0840152600d840154821660e0840152600e84015490911661010080840191909152600f840180548751988116159092026000190190911691909104601f81018590048502870185019095528486529094919361012086019383018282801561067d5780601f106106525761010080835404028352916020019161067d565b820191906000526020600020905b81548152906001019060200180831161066057829003601f168201915b50505091835250506010820154602082015260118201546040820152601282015460608201526013820154608082015260149091015460a09091015290506001835460ff1660048111156106cd57fe5b146106d757600080fd5b600483015442106106e757600080fd5b6000825460ff1660038111156106f957fe5b1461070357600080fd5b604080516c01000000000000000000000000338102602080840191909152603483018d9052600160a060020a038a169091026054830152825160488184030181526068830184528051908201207f19457468657265756d205369676e6564204d6573736167653a0a333200000000608884015260a4808401919091528351808403909101815260c483018085528151918301919091208851898401518a870151600090945260e486018088529290925260ff166101048501526101248401526101448301529151600192610164808401939192601f1981019281900390910190855afa1580156107f7573d6000803e3d6000fd5b50505060206040510351600160a060020a0316816040015160200151600160a060020a031614151561082857600080fd5b600160a060020a03861615158061084d575060a0810151601f1a60f860020a90810216155b151561085857600080fd5b600160a060020a0386161561095d576040805160208082018b90528183018a90528251808303840181526060830184528051908201207f19457468657265756d205369676e6564204d6573736167653a0a3332000000006080840152609c808401919091528351808403909101815260bc830180855281519183019190912089518a8401518b870151600090945260dc86018088529290925260ff1660fc85015261011c84015261013c830152915160019261015c808401939192601f1981019281900390910190855afa158015610934573d6000803e3d6000fd5b50505060206040510351600160a060020a031686600160a060020a031614151561095d57600080fd5b8154600160ff19909116811783558083018990556002830188905560038301805473ffffffffffffffffffffffffffffffffffffffff19908116600160a060020a038a1617909155600a8501805480840182556000918252602090912001805433921682179055908401546109d191612ca7565b33600160a060020a0316897f3fdb8d7797562d49a81078dbf7fa1771958ea452f8b13d1148383bd9506aecfb8a604051610a0b9190614b84565b60405180910390a3336000908152600d6020526040812054610a5990600190610a4d90600390610a41908263ffffffff612cc816565b9063ffffffff612cdf16565b9063ffffffff612cf616565b60008b8152600f602090815260408083208d8452909152812054919250610a9b82610a4d85610a8f83600163ffffffff612cdf16565b9063ffffffff612d0816565b9050610aa683612d30565b60008d8152600e602090815260408083203384528252808320939093558e8252600f81528282208e835290522054610ae4908263ffffffff612f1716565b60008d8152600f602090815260408083208f84528252808320939093558e8252601090522054610b1a908263ffffffff612f1716565b60008d815260106020526040902055610b338c8c612f26565b505050505050505050505050565b33600090815260086020526040812054610b61908363ffffffff612cf616565b3360008181526008602052604090819020929092556004805492517fa9059cbb000000000000000000000000000000000000000000000000000000008152600160a060020a039093169263a9059cbb92610bbf929091879101614b0a565b602060405180830381600087803b158015610bd957600080fd5b505af1158015610bed573d6000803e3d6000fd5b505050506040513d601f19601f82011682018060405250610c119190810190614387565b1515610c3b5760405160e560020a62461bcd028152600401610c3290614c46565b60405180910390fd5b7f884edad9ce6fa2440d8a54cc123490eb96d2768479d49ff9c7366125a94243643383604051610c6c929190614b0a565b60405180910390a1506001919050565b6000600160a060020a0382161515610ca95760405160e560020a62461bcd028152600401610c3290614c56565b600480546040517f23b872dd000000000000000000000000000000000000000000000000000000008152600160a060020a03909116916323b872dd91610cf59133913091899101614ae2565b602060405180830381600087803b158015610d0f57600080fd5b505af1158015610d23573d6000803e3d6000fd5b505050506040513d601f19601f82011682018060405250610d479190810190614387565b1515610d685760405160e560020a62461bcd028152600401610c3290614c66565b600160a060020a038216600090815260086020526040902054610d91908463ffffffff612f1716565b600160a060020a0383166000908152600860205260409081902091909155517fcce62bfcdb09eddbe4e5ff5ec3bafdbabc25a52e1cf34f014a0a7a0864f9634c90610de190339086908690614b25565b60405180910390a15060015b92915050565b600554600160a060020a031681565b600a5415610e255760405160e560020a62461bcd028152600401610c3290614c76565b60048054600160a060020a0380881673ffffffffffffffffffffffffffffffffffffffff19928316178355600580548783169084161790556006805486831690841617905560078054918516919092161790556040805160c0810182526008608082019081527f69457865634f444200000000000000000000000000000000000000000000000060a0830152815281518083018352600981527f332e302d616c706861000000000000000000000000000000000000000000000060208281019190915282015280820187905230606082015290517feca34ccf00000000000000000000000000000000000000000000000000000000815273__IexecODBLibOrders_____________________9263eca34ccf92610f4492909101614c95565b60206040518083038186803b158015610f5c57600080fd5b505af4158015610f70573d6000803e3d6000fd5b505050506040513d601f19601f82011682018060405250610f9491908101906143e1565b600a555050505050565b6000610fa8613a83565b6000848152601260209081526040918290208251610240810184528154600160a060020a039081166101e08301908152600180850154831661020085015260028086015461022086015291845286516060808201895260038701548516825260048701548516828901526005870154828a0152858801919091528751808201895260068701548516815260078701548516818901526008870154818a015285890152600986015490850152600a8501546080850152600b85015460a0850152600c850154831660c0850152600d850154831660e0850152600e85015490921661010080850191909152600f850180548851948116159092026000190190911691909104601f8101869004860283018601909652858252919492936101208601939192919083018282801561111d5780601f106110f25761010080835404028352916020019161111d565b820191906000526020600020905b81548152906001019060200180831161110057829003601f168201915b50505050508152602001601082015481526020016011820154815260200160128201548152602001601382015481526020016014820154815250509050806101600151831015151561116e57600080fd5b6101808101516101608201516111899163ffffffff612f1716565b831061119457600080fd5b604080516020808201879052818301869052825180830384018152606090920183528151918101919091206000818152600b90925291812090815460ff1660048111156111dd57fe5b146111e757600080fd5b805460ff191660019081178255810186905560028101859055608083015160098054909190811061121457fe5b600091825260209091206003918202016002015490820181905561014084015161124f91611243906007612d08565b9063ffffffff612f1716565b60048201556101408301516003820154611275919061124390600a63ffffffff612d0816565b6006808301919091556000838152601060209081526040808320600190558983526012909152808220909201549151600160a060020a039092169184917f252992fb0468d68d6a5784ec03214f0d0a362083f2d7ebd157af43b017a22e0691a350949350505050565b600754600160a060020a031681565b600654600160a060020a031681565b600083821461130a57600080fd5b60005b8481101561134e5761134586868381811061132457fe5b90506020020135858584818110151561133957fe5b90506020020135610f9e565b5060010161130d565b50600190505b949350505050565b600480546040517f23b872dd000000000000000000000000000000000000000000000000000000008152600092600160a060020a03909216916323b872dd916113ab9133913091889101614ae2565b602060405180830381600087803b1580156113c557600080fd5b505af11580156113d9573d6000803e3d6000fd5b505050506040513d601f19601f820116820180604052506113fd9190810190614387565b151561141e5760405160e560020a62461bcd028152600401610c3290614c66565b3360009081526008602052604090205461143e908363ffffffff612f1716565b33600081815260086020526040908190209290925590517fe1fffcc4923d04b559f4d29a8bfc6cda04eb5b0d3c460751c2402c5c5cc9109c91610c6c918590614b0a565b60808201516101208201516000911461149a57600080fd5b60a083015161014083015111156114b057600080fd5b6020808601519083015110156114c557600080fd5b6020840151606083015110156114da57600080fd5b602083015160a083015110156114ef57600080fd5b82606001511982610100015185606001518760600151171716600060010214151561151957600080fd5b84518251600160a060020a0390811691161461153457600080fd5b83516040830151600160a060020a0390811691161461155257600080fd5b60808201518351611568919060f860020a6126f6565b151561157357600080fd5b60808501518451611589919060f860020a6126f6565b151561159457600080fd5b60a085015183516115aa919060f860020a6126f6565b15156115b557600080fd5b6115cf8560c001518360c00151600160f860020a026126f6565b15156115da57600080fd5b608084015185516115f0919060f860020a6126f6565b15156115fb57600080fd5b60a08401518351611611919060f860020a6126f6565b151561161c57600080fd5b6116368460c001518360c00151600160f860020a026126f6565b151561164157600080fd5b60c08301518551611657919060f860020a6126f6565b151561166257600080fd5b60e08301518451611678919060f860020a6126f6565b151561168357600080fd5b61169e8361010001518360c00151600160f860020a026126f6565b15156116a957600080fd5b60055485516040517fc3c5a547000000000000000000000000000000000000000000000000000000008152600160a060020a039092169163c3c5a547916116f291600401614ad4565b60206040518083038186803b15801561170a57600080fd5b505afa15801561171e573d6000803e3d6000fd5b505050506040513d601f19601f820116820180604052506117429190810190614387565b151561174d57600080fd5b8351600160a060020a031615806117f8575060065484516040517fc3c5a547000000000000000000000000000000000000000000000000000000008152600160a060020a039092169163c3c5a547916117a891600401614ad4565b60206040518083038186803b1580156117c057600080fd5b505afa1580156117d4573d6000803e3d6000fd5b505050506040513d601f19601f820116820180604052506117f89190810190614387565b151561180357600080fd5b60075483516040517fc3c5a547000000000000000000000000000000000000000000000000000000008152600160a060020a039092169163c3c5a5479161184c91600401614ad4565b60206040518083038186803b15801561186457600080fd5b505afa158015611878573d6000803e3d6000fd5b505050506040513d601f19601f8201168201806040525061189c9190810190614387565b15156118a757600080fd5b6118af613b2a565b8451600160a060020a0316151560e08201526040517f0495132900000000000000000000000000000000000000000000000000000000815273__IexecODBLibOrders_____________________90630495132990611911908990600401614c86565b60206040518083038186803b15801561192957600080fd5b505af415801561193d573d6000803e3d6000fd5b505050506040513d601f19601f8201168201806040525061196191908101906143e1565b8160000181815250508560000151600160a060020a031663deff41c16040518163ffffffff1660e060020a02815260040160206040518083038186803b1580156119aa57600080fd5b505afa1580156119be573d6000803e3d6000fd5b505050506040513d601f19601f820116820180604052506119e291908101906141b2565b600160a060020a0316602082018190528151610100880151611a059291906103db565b1515611a1057600080fd5b8060e0015115611b6c576040517f2bd4c73400000000000000000000000000000000000000000000000000000000815273__IexecODBLibOrders_____________________90632bd4c73490611a6a908890600401614c86565b60206040518083038186803b158015611a8257600080fd5b505af4158015611a96573d6000803e3d6000fd5b505050506040513d601f19601f82011682018060405250611aba91908101906143e1565b8160400181815250508460000151600160a060020a031663deff41c16040518163ffffffff1660e060020a02815260040160206040518083038186803b158015611b0357600080fd5b505afa158015611b17573d6000803e3d6000fd5b505050506040513d601f19601f82011682018060405250611b3b91908101906141b2565b600160a060020a0316606082018190526040820151610100870151611b619291906103db565b1515611b6c57600080fd5b6040517f58b5058600000000000000000000000000000000000000000000000000000000815273__IexecODBLibOrders_____________________906358b5058690611bbc908790600401614cb7565b60206040518083038186803b158015611bd457600080fd5b505af4158015611be8573d6000803e3d6000fd5b505050506040513d601f19601f82011682018060405250611c0c91908101906143e1565b8160800181815250508360000151600160a060020a031663deff41c16040518163ffffffff1660e060020a02815260040160206040518083038186803b158015611c5557600080fd5b505afa158015611c69573d6000803e3d6000fd5b505050506040513d601f19601f82011682018060405250611c8d91908101906141b2565b600160a060020a031660a082018190526080820151610140860151611cb39291906103db565b1515611cbe57600080fd5b6040517f0813424e00000000000000000000000000000000000000000000000000000000815273__IexecODBLibOrders_____________________90630813424e90611d0e908690600401614ca6565b60206040518083038186803b158015611d2657600080fd5b505af4158015611d3a573d6000803e3d6000fd5b505050506040513d601f19601f82011682018060405250611d5e91908101906143e1565b60c08083018290528401516101e0850151611d7992906103db565b1515611d8457600080fd5b80516000908152601360205260408082205490880151611da99163ffffffff612cf616565b90508160e00151611dba5780611df3565b604080830151600090815260136020528190205490870151611df391611de6919063ffffffff612cf616565b829063ffffffff6130ef16565b6080830151600090815260136020526040908190205490870151919250611e2391611de69163ffffffff612cf616565b60c083015160009081526013602052604090205460e0860151919250611e5291611de69163ffffffff612cf616565b905060008111611e6157600080fd5b60c082015160008181526013602090815260408083205481518084019590955284820152805180850382018152606094850182528051908301208084526012835292208a51815473ffffffffffffffffffffffffffffffffffffffff19908116600160a060020a03928316178355838801516001840180548316918416919091179055928c015160028301559386015160048201805484169186169190911790558951600382018054909316941693909317905560e0840151909190611f28576000611f2e565b87602001515b60058201558651600682018054600160a060020a0392831673ffffffffffffffffffffffffffffffffffffffff199182161790915560a086015160078401805491909316911617905560208701516008820155610140860151611f9890600163ffffffff612cdf16565b6009820155610120860151600a8201556101008601516060808a0151908b01511717600b82015560c0860151600c82018054600160a060020a0392831673ffffffffffffffffffffffffffffffffffffffff1991821617909155610160880151600d84018054918416918316919091179055610180880151600e840180549190931691161790556101a0860151805161203b91600f840191602090910190613b6e565b5042601082015560c084015160009081526013602090815260409182902054601184015560128301859055885182517fb55e75af000000000000000000000000000000000000000000000000000000008152925161210993600160a060020a039092169263b55e75af9260048082019391829003018186803b1580156120c057600080fd5b505afa1580156120d4573d6000803e3d6000fd5b505050506040513d601f19601f820116820180604052506120f891908101906143e1565b60208901519063ffffffff6130fe16565b81601301819055508660000151600160a060020a03166387639c686040518163ffffffff1660e060020a02815260040160206040518083038186803b15801561215157600080fd5b505afa158015612165573d6000803e3d6000fd5b505050506040513d601f19601f8201168201806040525061218991908101906143e1565b601482015560c084015160009081526011602090815260408083208054600181018255908452828420018590558651835260139091529020546121d2908463ffffffff612f1716565b845160009081526013602052604090205560e0840151612217906121f75760006121f9565b835b6040808701516000908152601360205220549063ffffffff612f1716565b604080860151600090815260136020528181209290925560808601518252902054612248908463ffffffff612f1716565b60808501516000908152601360205260408082209290925560c086015181522054612279908463ffffffff612f1716565b60c0850151600090815260136020526040902055600c8101546008820154600583015460028401546122cf93600160a060020a0316926122ca928892610a8f9291611243919063ffffffff612f1716565b61310c565b600781015460088201546122fe91600160a060020a0316906122ca908690610a8f90601e63ffffffff6130fe16565b6006810154604051600160a060020a03909116907f692ad61076dceddd0f1a861f737553dd61fc8501cf4190d29c4e90af6607f7659061233f908590614b84565b60405180910390a27fd811b592ed0899225773e8933d8df64bd0b62761a9d7aad4ed5b22735f4610a4828560000151866040015187608001518860c001518860405161239096959493929190614b92565b60405180910390a150979650505050505050565b6000818152600b602052604090206001815460ff1660048111156123c457fe5b14806123df57506002815460ff1660048111156123dd57fe5b145b15156123ea57600080fd5b60068101544210156123fb57600080fd5b805460ff19166004178155600181015461241490613187565b60005b600a82015481101561246757600082600a018281548110151561243657fe5b6000918252602090912001546001840154600160a060020a03909116915061245e9082613227565b50600101612417565b5060405182907fcbc308b5f91040d2659a5201858344b0b583cd2f9e18e8470c2fa052c5b21ff890600090a25050565b6000838152600b6020908152604080832060010154835260129091529020600701548390600160a060020a031633146124cf57600080fd5b6000848152600b602052604090206002815460ff1660048111156124ef57fe5b146124f957600080fd5b6006810154421061250957600080fd5b806009015481600801541480612532575060008160080154118015612532575042816005015411155b151561253d57600080fd5b805460ff19166003178155612556600b82018585613bec565b506125648160010154613244565b61256d8561339e565b847f78ce8a8bc0fcb704e8ba3b3dbb36aa88002df8038128b4af2f27ef65db665044858560405161259f929190614c16565b60405180910390a260018101546000908152601260205260409020600e0154600160a060020a031680156126ee57620186a05a116125dc57600080fd5b80600160a060020a0316620186a08787876040516024016125ff93929190614bec565b60408051601f198184030181529181526020820180517bffffffffffffffffffffffffffffffffffffffffffffffffffffffff167f5dd808550000000000000000000000000000000000000000000000000000000017815290518251909182918083835b602083106126825780518252601f199092019160209182019101612663565b6001836020036101000a03801982511681845116808217855250505050505090500191505060006040518083038160008787f1925050503d80600081146126e5576040519150601f19603f3d011682016040523d82523d6000602084013e6126ea565b606091505b5050505b505050505050565b6000600160a060020a038416158061271f575082600160a060020a031684600160a060020a0316145b806104d557506040517f7ad8f72d0000000000000000000000000000000000000000000000000000000081527fff000000000000000000000000000000000000000000000000000000000000008316908390600160a060020a03871690637ad8f72d90612790908890600401614ad4565b60206040518083038186803b1580156127a857600080fd5b505afa1580156127bc573d6000803e3d6000fd5b505050506040513d601f19601f820116820180604052506127e091908101906143a5565b167fff000000000000000000000000000000000000000000000000000000000000001614949350505050565b600054600160a060020a031681565b600054600160a060020a0316331461283257600080fd5b600160a060020a038116151561285d5760405160e560020a62461bcd028152600401610c3290614c36565b6000546040517f8be0079c531659141344cd1fd0a4f28419497f9722a3daafe3b4186f6b6457e09161289c91600160a060020a03909116908490614b4d565b60405180910390a16000805473ffffffffffffffffffffffffffffffffffffffff1916600160a060020a0392909216919091179055565b6000818152600b6020908152604080832060010154835260129091529020600701548190600160a060020a0316331461290b57600080fd5b6000828152600b602052604090206002815460ff16600481111561292b57fe5b1461293557600080fd5b6006810154421061294557600080fd5b4281600501541115801561295b57506008810154155b151561296657600080fd5b60005b600a820154811015612a0157600082600a018281548110151561298857fe5b60009182526020808320909101546007860154888452600c83526040808520600160a060020a0390931680865292909352919092206001015491925014156129f8576000858152600c60209081526040808320600160a060020a03851684529091529020805460ff191660031790555b50600101612969565b506000838152600f6020908152604080832060078501548452825280832054868452601090925290912054612a3b9163ffffffff612cf616565b600084815260106020908152604080832093909355600f815282822060078501805484529152828220829055835460ff191660011784558190556005830181905560098301819055905184917f3afe0f24796ce653c6ab1f3e7aba5ce564eece5e82aee724aff28253e829f07b91a2505050565b6000838214612abd57600080fd5b60005b8481101561134e57612aef6102bf878784818110612ada57fe5b90506020020135868685818110151561133957fe5b600101612ac0565b6000805b82811015612b2657612b1e848483818110612b1257fe5b905060200201356123a4565b600101612afb565b5060019392505050565b600454600160a060020a031681565b6000828152600b60209081526040808320600c83528184203385529092529091206002825460ff166004811115612b7257fe5b14612b7c57600080fd5b60058201544210612b8c57600080fd5b6001815460ff166003811115612b9e57fe5b14612ba857600080fd5b6007820154600182015414612bbc57600080fd5b60408051602080820187905281830186905282518083038401815260609092019092528051910120600182015414612bf357600080fd5b604080516c0100000000000000000000000033026020808301919091526034820187905260548083018790528351808403909101815260749092019092528051910120600282015414612c4557600080fd5b805460ff191660021781556008820154612c60906001612f17565b6008830155604051339085907f4b1763d473ac8fa80b4432ba90047e1b92444d8fabc55e6a002d9b1a316d795990612c99908790614b84565b60405180910390a350505050565b600082815260126020526040902060130154612cc490829061310c565b5050565b6000808284811515612cd657fe5b04949350505050565b600081831015612cef57816104d8565b5090919050565b600082821115612d0257fe5b50900390565b6000821515612d1957506000610ded565b828202828482811515612d2857fe5b04146104d857fe5b604080517ff8f9cbfae6cc78fbefe7cdc3a1793dfcf4f0e8bbd8cec470b6a28a7a5a3e1efd81527ff5ecf1b3e9debc68e1d9cfabc5997135bfb7a7a3938b7b606b5b4b3f2f1f0ffe60208201527ff6e4ed9ff2d6b458eadcdf97bd91692de2d4da8fd2d0ac50c6ae9a8272523616818301527fc8c0b887b0a8a4489c948c7f847c6125746c645c544c444038302820181008ff60608201527ff7cae577eec2a03cf3bad76fb589591debb2dd67e0aa9834bea6925f6a4a2e0e60808201527fe39ed557db96902cd38ed14fad815115c786af479b7e8324736353433727170760a08201527fc976c13bb96e881cb166a933a55e490d9d56952b8d4e801485467d236242260660c08201527f753a6d1b65325d0c552a4d1345224105391a310b29122104190a11030902010060e082015261010080820190925260f860020a600170010000000000000000000000000000000068010000000000000000640100000000620100006010600460026000198c019081041790810417908104178881041790810417908104179081041790810417017e818283848586878898a8b8c8d8e8f929395969799a9b9d9e9faaeb6bedeeff0281900460ff0390910151047f8000000000000000000000000000000000000000000000000000000000000000909211020190565b6000828201838110156104d857fe5b6000828152600b60209081526040808320600190810154845260129092529091206009015490612f7c90612f6190839063ffffffff612cf616565b6000858152601060205260409020549063ffffffff612d0816565b6000848152600f60209081526040808320868452909152902054612fa6908363ffffffff612d0816565b11156130ea576000838152600b6020526040812090805b600a83015481101561307157600083600a0182815481101515612fdc57fe5b6000918252602080832090910154898352600c82526040808420600160a060020a03909216808552919092529120600101549091508614801561304f575060016000888152600c60209081526040808320600160a060020a038616845290915290205460ff16600381111561304d57fe5b145b156130685761306583600163ffffffff612f1716565b92505b50600101612fbd565b50815460ff19166002908117835560078301859055600383015461309a91429161124391612d08565b6005830155600060088301556009820181905560405185907ff6d49bf3e05d33a4bc497d3c793fb5756388bb96b947cf51bb60aaecb0e022e3906130df908790614b84565b60405180910390a250505b505050565b6000818310612cef57816104d8565b60006104d883836064613888565b600160a060020a038216600090815260086020526040902054613135908263ffffffff612cf616565b600160a060020a038316600090815260086020526040902090815560010154613164908263ffffffff612f1716565b600160a060020a0390921660009081526008602052604090206001019190915550565b60008181526012602052604081206008810154600582015460028301549293926131bc9291611243919063ffffffff612f1716565b60088301549091506000906131d890601e63ffffffff6130fe16565b600c8401549091506131f390600160a060020a03168361389d565b600783015461320b90600160a060020a03168261391a565b6132166000826139a3565b61322160008261310c565b50505050565b600082815260126020526040902060130154612cc490829061389d565b60008181526012602052604081206008810154600582015460028301549293926132799291611243919063ffffffff612f1716565b600883015490915060009061329590601e63ffffffff6130fe16565b600c8401549091506132b090600160a060020a03168361391a565b60078301546132c890600160a060020a03168261389d565b600183015460028401546132e591600160a060020a0316906139a3565b6003830154600160a060020a031615613315576004830154600584015461331591600160a060020a0316906139a3565b600080805260086020527f5eff886ea0ce6ca488a3d6e336d6c0f75f46d19b42c06ce5ee98e42c96d256c854908111156133975761337281613366633b9aca00610a4183600a63ffffffff6130fe16565b9063ffffffff6130ef16565b905061337f60008261391a565b600784015461339790600160a060020a0316826139a3565b5050505050565b6000818152600b602052604090206133b4613a83565b6001828101546000908152601260209081526040918290208251610240810184528154600160a060020a039081166101e0830190815283870154821661020084015260028085015461022085015290835285516060808201885260038601548416825260048601548416828801526005860154828901528487019190915286518082018852600686015484168152600786015484168188015260088601548189015284880152600985015490840152600a8401546080840152600b84015460a0840152600c840154821660c0840152600d840154821660e0840152600e84015490911661010080840191909152600f840180548751988116159092026000190190911691909104601f8101859004850287018501909552848652909491936101208601938301828280156135295780601f106134fe57610100808354040283529160200191613529565b820191906000526020600020905b81548152906001019060200180831161350c57829003601f168201915b50505050508152602001601082015481526020016011820154815260200160128201548152602001601382015481526020016014820154815250509050600080600080905060006012600087600101548152602001908152602001600020600601600201549050600093505b600a86015484101561366157600a86018054859081106135b157fe5b600091825260209091200154600160a060020a0316925060026000888152600c60209081526040808320600160a060020a038816845290915290205460ff1660038111156135fb57fe5b141561363c576000878152600e60209081526040808320600160a060020a038716845290915290205461363590839063ffffffff612f1716565b9150613656565b6101a085015161365390829063ffffffff612f1716565b90505b836001019350613595565b6000821161366e57600080fd5b600061369961368c876101c001516064612cf690919063ffffffff16565b839063ffffffff6130fe16565b9050600094505b600a87015485101561387057600a87018054869081106136bc57fe5b600091825260209091200154600160a060020a0316935060026000898152600c60209081526040808320600160a060020a038916845290915290205460ff16600381111561370657fe5b14156137e6576000888152600e60209081526040808320600160a060020a03881684529091528120546137419083908663ffffffff61388816565b9050613753838263ffffffff612cf616565b925061376488600101548683613a1a565b600a880154600110156137e057600160a060020a0385166000908152600d602052604090205461379b90600163ffffffff612f1716565b600160a060020a0386166000818152600d60205260408082209390935591518b927f9703f4589802246c80b822e63697180da799e363cd1b6fd9465a5e5574d5349291a35b50613865565b6137f4876001015485613a41565b600160a060020a0384166000908152600d6020526040902054613820906002600363ffffffff61388816565b600160a060020a0385166000818152600d60205260408082209390935591518a927ff868788948d55240774fdbad06555105ef20bbc70d1b7eccda982b65e11e79bb91a35b8460010194506136a0565b61387e876001015483613a5e565b5050505050505050565b60006104d56138978585612d08565b83612cc8565b600160a060020a0382166000908152600860205260409020600101546138c9908263ffffffff612cf616565b600160a060020a03831660009081526008602052604090206001810191909155546138fa908263ffffffff612f1716565b600160a060020a0390921660009081526008602052604090209190915550565b600160a060020a038216600090815260086020526040902060010154613946908263ffffffff612cf616565b600160a060020a0383166000908152600860205260409081902060010191909155517f4051ba94e08bb094159fc38391422b4b8ccfd2b1f8919c0eb37bb042d4b9cd8e906139979084908490614b68565b60405180910390a15050565b600160a060020a0382166000908152600860205260409020546139cc908263ffffffff612f1716565b600160a060020a0383166000908152600860205260409081902091909155517f619caafabdd75649b302ba8419e48cccf64f37f1983ac4727cfb38b57703ffc9906139979084908490614b68565b600083815260126020526040902060130154613a3790839061389d565b6130ea82826139a3565b600082815260126020526040902060130154612cc490829061391a565b600082815260126020526040902060070154612cc490600160a060020a0316826139a3565b6102a060405190810160405280613a98613c5a565b8152602001613aa5613c5a565b8152602001613ab2613c5a565b81526020016000815260200160008152602001600080191681526020016000600160a060020a031681526020016000600160a060020a031681526020016000600160a060020a031681526020016060815260200160008152602001600081526020016000815260200160008152602001600081525090565b6040805161010081018252600080825260208201819052918101829052606081018290526080810182905260a0810182905260c0810182905260e081019190915290565b828054600181600116156101000203166002900490600052602060002090601f016020900481019282601f10613baf57805160ff1916838001178555613bdc565b82800160010185558215613bdc579182015b82811115613bdc578251825591602001919060010190613bc1565b50613be8929150613c7a565b5090565b828054600181600116156101000203166002900490600052602060002090601f016020900481019282601f10613c2d5782800160ff19823516178555613bdc565b82800160010185558215613bdc579182015b82811115613bdc578235825591602001919060010190613c3f565b604080516060810182526000808252602082018190529181019190915290565b613c9491905b80821115613be85760008155600101613c80565b90565b60006104d88235614d19565b60006104d88251614d19565b600080601f83018413613cc157600080fd5b50813567ffffffffffffffff811115613cd957600080fd5b602083019150836020820283011115613cf157600080fd5b9250929050565b60006104d88251614d24565b60006104d88235614d3b565b60006104d88251614d3b565b60006104d88235613c94565b60006104d88251613c94565b600080601f83018413613d4657600080fd5b50813567ffffffffffffffff811115613d5e57600080fd5b602083019150836001820283011115613cf157600080fd5b6000601f82018313613d8757600080fd5b8135613d9a613d9582614ced565b614cc6565b91508082526020830160208301858383011115613db657600080fd5b613dc1838284614d72565b50505092915050565b60006101608284031215613ddd57600080fd5b613de8610120614cc6565b90506000613df68484613c97565b8252506020613e0784848301613d1c565b6020830152506040613e1b84828501613d1c565b6040830152506060613e2f84828501613d1c565b6060830152506080613e4384828501613c97565b60808301525060a0613e5784828501613c97565b60a08301525060c0613e6b84828501613c97565b60c08301525060e0613e7f84828501613d1c565b60e083015250610100613e948482850161412d565b6101008301525092915050565b60006102408284031215613eb457600080fd5b613ebf610200614cc6565b90506000613ecd8484613c97565b8252506020613ede84848301613d1c565b6020830152506040613ef284828501613c97565b6040830152506060613f0684828501613d1c565b6060830152506080613f1a84828501613c97565b60808301525060a0613f2e84828501613d1c565b60a08301525060c0613f4284828501613c97565b60c08301525060e0613f5684828501613d1c565b60e083015250610100613f6b84828501613d1c565b61010083015250610120613f8184828501613d1c565b61012083015250610140613f9784828501613d1c565b61014083015250610160613fad84828501613c97565b61016083015250610180613fc384828501613c97565b610180830152506101a082013567ffffffffffffffff811115613fe557600080fd5b613ff184828501613d76565b6101a0830152506101c061400784828501613d1c565b6101c0830152506101e061401d8482850161412d565b6101e08301525092915050565b60006101a0828403121561403d57600080fd5b614048610160614cc6565b905060006140568484613c97565b825250602061406784848301613d1c565b602083015250604061407b84828501613d1c565b604083015250606061408f84828501613d1c565b60608301525060806140a384828501613d1c565b60808301525060a06140b784828501613d1c565b60a08301525060c06140cb84828501613c97565b60c08301525060e06140df84828501613c97565b60e0830152506101006140f484828501613c97565b6101008301525061012061410a84828501613d1c565b610120830152506101406141208482850161412d565b6101408301525092915050565b60006060828403121561413f57600080fd5b6141496060614cc6565b905060006141578484614188565b825250602061416884848301613d1c565b602083015250604061417c84828501613d1c565b60408301525092915050565b60006104d88235614d35565b6000602082840312156141a657600080fd5b60006113548484613c97565b6000602082840312156141c457600080fd5b60006113548484613ca3565b6000806000606084860312156141e557600080fd5b60006141f18686613c97565b935050602061420286828701613c97565b925050604061421386828701613d04565b9150509250925092565b600080600060a0848603121561423257600080fd5b600061423e8686613c97565b935050602061424f86828701613d1c565b92505060406142138682870161412d565b600080600080600060a0868803121561427857600080fd5b60006142848888613c97565b955050602061429588828901613d1c565b94505060406142a688828901613c97565b93505060606142b788828901613c97565b92505060806142c888828901613c97565b9150509295509295909350565b600080602083850312156142e857600080fd5b823567ffffffffffffffff8111156142ff57600080fd5b61430b85828601613caf565b92509250509250929050565b6000806000806040858703121561432d57600080fd5b843567ffffffffffffffff81111561434457600080fd5b61435087828801613caf565b9450945050602085013567ffffffffffffffff81111561436f57600080fd5b61437b87828801613caf565b95989497509550505050565b60006020828403121561439957600080fd5b60006113548484613cf8565b6000602082840312156143b757600080fd5b60006113548484613d10565b6000602082840312156143d557600080fd5b60006113548484613d1c565b6000602082840312156143f357600080fd5b60006113548484613d28565b6000806040838503121561441257600080fd5b600061441e8585613d1c565b925050602061442f85828601613d1c565b9150509250929050565b600080600080600080610140878903121561445357600080fd5b600061445f8989613d1c565b965050602061447089828a01613d1c565b955050604061448189828a01613d1c565b945050606061449289828a01613c97565b93505060806144a389828a0161412d565b92505060e06144b489828a0161412d565b9150509295509295509295565b6000806000604084860312156144d657600080fd5b60006144e28686613d1c565b935050602084013567ffffffffffffffff8111156144ff57600080fd5b61450b86828701613d34565b92509250509250925092565b600080600080610480858703121561452e57600080fd5b600061453a8787613dca565b94505061016061454c87828801613dca565b9350506102c061455e8782880161402a565b92505061046085013567ffffffffffffffff81111561457c57600080fd5b61458887828801613ea1565b91505092959194509250565b600080604083850312156145a757600080fd5b60006145b38585613d1c565b925050602061442f85828601613c97565b6145cd81614d60565b82525050565b6145cd81614d19565b6145cd81614d24565b6145cd81613c94565b6000828452602084019350614604838584614d72565b61460d83614daa565b9093019392505050565b6145cd81614d67565b600061462b82614d15565b80845261463f816020860160208601614d7e565b61464881614daa565b9093016020019392505050565b602681527f63616e2774207472616e73666572206f776e65727368697020746f206164647260208201527f6573732830290000000000000000000000000000000000000000000000000000604082015260600190565b601681527f4552433230207472616e73666572206661696c6c656400000000000000000000602082015260400190565b601681527f496e76616c696420746172676574206164647265737300000000000000000000602082015260400190565b601a81527f4552433230207472616e7366657246726f6d206661696c6c6564000000000000602082015260400190565b601281527f416c726561647920636f6e666967757265640000000000000000000000000000602082015260400190565b805161016083019061477d84826145d3565b50602082015161479060208501826145e5565b5060408201516147a360408501826145e5565b5060608201516147b660608501826145e5565b5060808201516147c960808501826145d3565b5060a08201516147dc60a08501826145d3565b5060c08201516147ef60c08501826145d3565b5060e082015161480260e08501826145e5565b50610100820151613221610100850182614a94565b805160808084526000919084019061482f8282614620565b915050602083015184820360208601526148498282614620565b915050604083015161485e60408601826145e5565b50606083015161487160608601826145d3565b509392505050565b805160009061024084019061488e85826145d3565b5060208301516148a160208601826145e5565b5060408301516148b460408601826145d3565b5060608301516148c760608601826145e5565b5060808301516148da60808601826145d3565b5060a08301516148ed60a08601826145e5565b5060c083015161490060c08601826145d3565b5060e083015161491360e08601826145e5565b506101008301516149286101008601826145e5565b5061012083015161493d6101208601826145e5565b506101408301516149526101408601826145e5565b506101608301516149676101608601826145d3565b5061018083015161497c6101808601826145d3565b506101a08301518482036101a08601526149968282614620565b9150506101c08301516149ad6101c08601826145e5565b506101e08301516148716101e0860182614a94565b80516101a08301906149d484826145d3565b5060208201516149e760208501826145e5565b5060408201516149fa60408501826145e5565b506060820151614a0d60608501826145e5565b506080820151614a2060808501826145e5565b5060a0820151614a3360a08501826145e5565b5060c0820151614a4660c08501826145d3565b5060e0820151614a5960e08501826145d3565b50610100820151614a6e6101008501826145d3565b50610120820151614a836101208501826145e5565b506101408201516132216101408501825b80516060830190614aa58482614acb565b506020820151614ab860208501826145e5565b50604082015161322160408501826145e5565b6145cd81614d35565b60208101610ded82846145d3565b60608101614af082866145c4565b614afd60208301856145d3565b61135460408301846145e5565b60408101614b1882856145c4565b6104d860208301846145e5565b60608101614b3382866145c4565b614b4060208301856145e5565b61135460408301846145d3565b60408101614b5b82856145d3565b6104d860208301846145d3565b60408101614b1882856145d3565b60208101610ded82846145dc565b60208101610ded82846145e5565b60c08101614ba082896145e5565b614bad60208301886145e5565b614bba60408301876145e5565b614bc760608301866145e5565b614bd460808301856145e5565b614be160a08301846145e5565b979650505050505050565b60408101614bfa82866145e5565b8181036020830152614c0d8184866145ee565b95945050505050565b602080825281016104d58184866145ee565b60208101610ded8284614617565b60208082528101610ded81614655565b60208082528101610ded816146ab565b60208082528101610ded816146db565b60208082528101610ded8161470b565b60208082528101610ded8161473b565b6101608101610ded828461476b565b602080825281016104d88184614817565b602080825281016104d88184614879565b6101a08101610ded82846149c2565b60405181810167ffffffffffffffff81118282101715614ce557600080fd5b604052919050565b600067ffffffffffffffff821115614d0457600080fd5b506020601f91909101601f19160190565b5190565b6000610ded82614d29565b151590565b600160a060020a031690565b60ff1690565b7fff000000000000000000000000000000000000000000000000000000000000001690565b6000610ded825b6000610ded82614d19565b82818337506000910152565b60005b83811015614d99578181015183820152602001614d81565b838111156132215750506000910152565b601f01601f19169056fea265627a7a7230582090fd63e49bb623acd3ef5e31fbb97fa013eed817aacf67b0328a5a4d1dfec6446c6578706572696d656e74616cf50037",
  "source": "pragma solidity ^0.5.0;\npragma experimental ABIEncoderV2;\n\nimport \"../libs/IexecODBLibCore.sol\";\nimport \"../libs/IexecODBLibOrders.sol\";\nimport \"../libs/SafeMathOZ.sol\";\nimport \"../permissions/GroupInterface.sol\";\nimport \"../registries/App.sol\";\nimport \"../registries/Dataset.sol\";\nimport \"../registries/Workerpool.sol\";\n\nimport \"../IexecStore.sol\";\n\ncontract IexecCore // make interface\n{\n\tevent Deposit   (address owner, uint256 amount);\n\tevent DepositFor(address owner, uint256 amount, address target);\n\tevent Withdraw  (address owner, uint256 amount);\n\tevent Reward    (address user,  uint256 amount);\n\tevent Seize     (address user,  uint256 amount);\n\n\tevent OrdersMatched  (bytes32 dealid, bytes32 appHash, bytes32 datasetHash, bytes32 workerpoolHash, bytes32 requestHash, uint256 volume);\n\tevent SchedulerNotice(address indexed workerpool, bytes32 dealid);\n\n\tevent TaskInitialize(bytes32 indexed taskid, address indexed workerpool);\n\tevent TaskContribute(bytes32 indexed taskid, address indexed worker, bytes32 hash);\n\tevent TaskConsensus (bytes32 indexed taskid, bytes32 consensus);\n\tevent TaskReveal    (bytes32 indexed taskid, address indexed worker, bytes32 digest);\n\tevent TaskReopen    (bytes32 indexed taskid);\n\tevent TaskFinalize  (bytes32 indexed taskid, bytes results);\n\tevent TaskClaimed   (bytes32 indexed taskid);\n\n\tevent AccurateContribution(address indexed worker, bytes32 indexed taskid);\n\tevent FaultyContribution  (address indexed worker, bytes32 indexed taskid);\n\n\tfunction configure(\n\t\taddress _token,\n\t\tuint256 _chainid,\n\t\taddress _appregistryAddress,\n\t\taddress _datasetregistryAddress,\n\t\taddress _workerpoolregistryAddress)\n\texternal;\n\n\tfunction deposit   (uint256 _amount                  ) external returns (bool);\n\tfunction depositFor(uint256 _amount, address _target ) external returns (bool);\n\tfunction withdraw  (uint256 _amount                  ) external returns (bool);\n\n\t// Escrow\n\tfunction checkRestriction(\n\t\taddress _restriction,\n\t\taddress _candidate,\n\t\tbytes1  _mask)\n\tpublic view returns (bool);\n\n\tfunction verify(\n\t\taddress                            _signer,\n\t\tbytes32                            _hash,\n\t\tIexecODBLibOrders.signature memory _signature)\n\tpublic view returns (bool);\n\n\tfunction matchOrders(\n\t\tIexecODBLibOrders.AppOrder        memory _apporder,\n\t\tIexecODBLibOrders.DatasetOrder    memory _datasetorder,\n\t\tIexecODBLibOrders.WorkerpoolOrder memory _workerpoolorder,\n\t\tIexecODBLibOrders.RequestOrder    memory _requestorder)\n\tpublic returns (bytes32);\n\n\t// Hub\n\tfunction initialize(\n\t\tbytes32 _dealid,\n\t\tuint256 idx)\n\tpublic returns (bytes32);\n\n\tfunction contribute(\n\t\tbytes32                            _taskid,\n\t\tbytes32                            _resultHash,\n\t\tbytes32                            _resultSeal,\n\t\taddress                            _enclaveChallenge,\n\t\tIexecODBLibOrders.signature memory _enclaveSign,\n\t\tIexecODBLibOrders.signature memory _workerpoolSign)\n\tpublic;\n\n\tfunction reveal(\n\t\tbytes32 _taskid,\n\t\tbytes32 _resultDigest)\n\texternal;\n\n\tfunction reopen(\n\t\tbytes32 _taskid)\n\texternal;\n\n\tfunction finalize(\n\t\tbytes32          _taskid,\n\t\tbytes   calldata _results)\n\texternal;\n\n\tfunction claim(\n\t\tbytes32 _taskid)\n\tpublic;\n\n\tfunction initializeArray(\n\t\tbytes32[] calldata _dealid,\n\t\tuint256[] calldata _idx)\n\texternal returns (bool);\n\n\tfunction claimArray(\n\t\tbytes32[] calldata _taskid)\n\texternal returns (bool);\n\n\tfunction initializeAndClaimArray(\n\t\tbytes32[] calldata _dealid,\n\t\tuint256[] calldata _idx)\n\texternal returns (bool);\n}\n\ncontract IexecCoreDelegate is IexecCore, IexecStore\n{\n\tusing SafeMathOZ        for uint256;\n\tusing IexecODBLibOrders for IexecODBLibOrders.EIP712Domain;\n\tusing IexecODBLibOrders for IexecODBLibOrders.AppOrder;\n\tusing IexecODBLibOrders for IexecODBLibOrders.DatasetOrder;\n\tusing IexecODBLibOrders for IexecODBLibOrders.WorkerpoolOrder;\n\tusing IexecODBLibOrders for IexecODBLibOrders.RequestOrder;\n\n\tfunction configure(\n\t\taddress _token,\n\t\tuint256 _chainid,\n\t\taddress _appregistryAddress,\n\t\taddress _datasetregistryAddress,\n\t\taddress _workerpoolregistryAddress)\n\texternal\n\t{\n\t\trequire(EIP712DOMAIN_SEPARATOR == bytes32(0), \"Already configured\");\n\n\t\ttoken              = IERC20(_token);\n\t\tappregistry        = RegistryBase(_appregistryAddress);\n\t\tdatasetregistry    = RegistryBase(_datasetregistryAddress);\n\t\tworkerpoolregistry = RegistryBase(_workerpoolregistryAddress);\n\n\t\tEIP712DOMAIN_SEPARATOR = IexecODBLibOrders.EIP712Domain({\n\t\t\tname:              \"iExecODB\"\n\t\t, version:           \"3.0-alpha\"\n\t\t, chainId:           _chainid\n\t\t, verifyingContract: address(this)\n\t\t}).hash();\n\t}\n\n\t/***************************************************************************\n\t *                         Escrow methods: public                          *\n\t ***************************************************************************/\n\tfunction deposit(uint256 _amount)\n\texternal returns (bool)\n\t{\n\t\trequire(token.transferFrom(msg.sender, address(this), _amount), \"ERC20 transferFrom failled\");\n\t\tm_accounts[msg.sender].stake = m_accounts[msg.sender].stake.add(_amount);\n\t\temit Deposit(msg.sender, _amount);\n\t\treturn true;\n\t}\n\tfunction depositFor(uint256 _amount, address _target)\n\texternal returns (bool)\n\t{\n\t\trequire(_target != address(0), \"Invalid target address\");\n\n\t\trequire(token.transferFrom(msg.sender, address(this), _amount), \"ERC20 transferFrom failled\");\n\t\tm_accounts[_target].stake = m_accounts[_target].stake.add(_amount);\n\t\temit DepositFor(msg.sender, _amount, _target);\n\t\treturn true;\n\t}\n\tfunction withdraw(uint256 _amount)\n\texternal returns (bool)\n\t{\n\t\tm_accounts[msg.sender].stake = m_accounts[msg.sender].stake.sub(_amount);\n\t\trequire(token.transfer(msg.sender, _amount), \"ERC20 transfer failled\");\n\t\temit Withdraw(msg.sender, _amount);\n\t\treturn true;\n\t}\n\n\t/***************************************************************************\n\t *                        Escrow methods: internal                         *\n\t ***************************************************************************/\n\tfunction reward(address _user, uint256 _amount)\n\tinternal\n\t{\n\t\tm_accounts[_user].stake = m_accounts[_user].stake.add(_amount);\n\t\temit Reward(_user, _amount);\n\t}\n\tfunction seize(address _user, uint256 _amount)\n\tinternal\n\t{\n\t\tm_accounts[_user].locked = m_accounts[_user].locked.sub(_amount);\n\t\temit Seize(_user, _amount);\n\t}\n\tfunction lock(address _user, uint256 _amount)\n\tinternal\n\t{\n\t\tm_accounts[_user].stake  = m_accounts[_user].stake.sub(_amount);\n\t\tm_accounts[_user].locked = m_accounts[_user].locked.add(_amount);\n\t}\n\tfunction unlock(address _user, uint256 _amount)\n\tinternal\n\t{\n\t\tm_accounts[_user].locked = m_accounts[_user].locked.sub(_amount);\n\t\tm_accounts[_user].stake  = m_accounts[_user].stake.add(_amount);\n\t}\n\n\t/***************************************************************************\n\t *                    Escrow overhead for contribution                     *\n\t ***************************************************************************/\n\tfunction lockContribution(bytes32 _dealid, address _worker)\n\tinternal\n\t{\n\t\tlock(_worker, m_deals[_dealid].workerStake);\n\t}\n\n\tfunction unlockContribution(bytes32 _dealid, address _worker)\n\tinternal\n\t{\n\t\tunlock(_worker, m_deals[_dealid].workerStake);\n\t}\n\n\tfunction unlockAndRewardForContribution(bytes32 _dealid, address _worker, uint256 _amount)\n\tinternal\n\t{\n\t\tunlock(_worker, m_deals[_dealid].workerStake);\n\t\treward(_worker, _amount);\n\t}\n\n\tfunction seizeContribution(bytes32 _dealid, address _worker)\n\tinternal\n\t{\n\t\tseize(_worker, m_deals[_dealid].workerStake);\n\t}\n\n\tfunction rewardForScheduling(bytes32 _dealid, uint256 _amount)\n\tinternal\n\t{\n\t\treward(m_deals[_dealid].workerpool.owner, _amount);\n\t}\n\n\tfunction successWork(bytes32 _dealid)\n\tinternal\n\t{\n\t\tIexecODBLibCore.Deal storage deal = m_deals[_dealid];\n\n\t\tuint256 requesterstake = deal.app.price\n\t\t                         .add(deal.dataset.price)\n\t\t                         .add(deal.workerpool.price);\n\t\tuint256 poolstake = deal.workerpool.price\n\t\t                    .percentage(WORKERPOOL_STAKE_RATIO);\n\n\t\t// seize requester funds\n\t\tseize (deal.requester, requesterstake);\n\t\t// unlock pool stake\n\t\tunlock(deal.workerpool.owner, poolstake);\n\t\t// dapp reward\n\t\treward(deal.app.owner, deal.app.price);\n\t\t// data reward\n\t\tif (deal.dataset.pointer != address(0))\n\t\t{\n\t\t\treward(deal.dataset.owner, deal.dataset.price);\n\t\t}\n\t\t// pool reward performed by consensus manager\n\n\t\t/**\n\t\t * Retrieve part of the kitty\n\t\t * TODO: remove / keep ?\n\t\t */\n\t\tuint256 kitty = m_accounts[address(0)].locked;\n\t\tif (kitty > 0)\n\t\t{\n\t\t\tkitty = kitty\n\t\t\t        .percentage(KITTY_RATIO) // fraction\n\t\t\t        .max(KITTY_MIN)          // at least this\n\t\t\t        .min(kitty);             // but not more than available\n\t\t\tseize (address(0),            kitty);\n\t\t\treward(deal.workerpool.owner, kitty);\n\t\t}\n\t}\n\n\tfunction failedWork(bytes32 _dealid)\n\tinternal\n\t{\n\t\tIexecODBLibCore.Deal storage deal = m_deals[_dealid];\n\n\t\tuint256 requesterstake = deal.app.price\n\t\t                         .add(deal.dataset.price)\n\t\t                         .add(deal.workerpool.price);\n\t\tuint256 poolstake = deal.workerpool.price\n\t\t                    .percentage(WORKERPOOL_STAKE_RATIO);\n\n\t\tunlock(deal.requester,        requesterstake);\n\t\tseize (deal.workerpool.owner, poolstake     );\n\t\treward(address(0),            poolstake     ); //  Kitty / Burn\n\t\tlock  (address(0),            poolstake     ); //  Kitty / Burn\n\t}\n\n\t/***************************************************************************\n\t *                           ODB order matching                            *\n\t ***************************************************************************/\n\tfunction checkRestriction(address _restriction, address _candidate, bytes1 _mask)\n\tpublic view returns (bool)\n\t{\n\t\treturn _restriction == address(0) // No restriction\n\t\t    || _restriction == _candidate // Simple address\n\t\t    || GroupInterface(_restriction).viewPermissions(_candidate) & _mask == _mask;  // Permission group\n\t}\n\n\tfunction verify(\n\t\taddress                            _signer,\n\t\tbytes32                            _hash,\n\t\tIexecODBLibOrders.signature memory _signature)\n\tpublic view returns (bool)\n\t{\n\t\treturn _signer == ecrecover(\n\t\t\tkeccak256(abi.encodePacked(\"\\x19\\x01\", EIP712DOMAIN_SEPARATOR, _hash)),\n\t\t\t_signature.v,\n\t\t\t_signature.r,\n\t\t\t_signature.s\n\t\t) || m_presigned[_hash];\n\t}\n\n\tstruct Identities\n\t{\n\t\tbytes32 appHash;\n\t\taddress appOwner;\n\t\tbytes32 datasetHash;\n\t\taddress datasetOwner;\n\t\tbytes32 workerpoolHash;\n\t\taddress workerpoolOwner;\n\t\tbytes32 requestHash;\n\t\tbool    hasDataset;\n\t}\n\n\tfunction matchOrders(\n\t\tIexecODBLibOrders.AppOrder        memory _apporder,\n\t\tIexecODBLibOrders.DatasetOrder    memory _datasetorder,\n\t\tIexecODBLibOrders.WorkerpoolOrder memory _workerpoolorder,\n\t\tIexecODBLibOrders.RequestOrder    memory _requestorder)\n\tpublic returns (bytes32)\n\t{\n\t\t/**\n\t\t * Check orders compatibility\n\t\t */\n\n\t\t// computation environment & allowed enough funds\n\t\trequire(_requestorder.category           == _workerpoolorder.category       );\n\t\trequire(_requestorder.trust              <= _workerpoolorder.trust          );\n\t\trequire(_requestorder.appmaxprice        >= _apporder.appprice              );\n\t\trequire(_requestorder.datasetmaxprice    >= _datasetorder.datasetprice      );\n\t\trequire(_requestorder.workerpoolmaxprice >= _workerpoolorder.workerpoolprice);\n\t\trequire((_apporder.tag | _datasetorder.tag | _requestorder.tag) & ~_workerpoolorder.tag == 0x0);\n\n\t\t// Check matching and restrictions\n\t\trequire(_requestorder.app     == _apporder.app        );\n\t\trequire(_requestorder.dataset == _datasetorder.dataset);\n\t\trequire(checkRestriction(_requestorder.workerpool,           _workerpoolorder.workerpool, 0x01 /*IexecPermission.SUBMIT*/ )); // requestorder.workerpool is a restriction\n\t\trequire(checkRestriction(_apporder.datasetrestrict,          _datasetorder.dataset,       0x01 /*IexecPermission.SUBMIT*/ ));\n\t\trequire(checkRestriction(_apporder.workerpoolrestrict,       _workerpoolorder.workerpool, 0x01 /*IexecPermission.SUBMIT*/ ));\n\t\trequire(checkRestriction(_apporder.requesterrestrict,        _requestorder.requester,     0x01 /*IexecPermission.SUBMIT*/ ));\n\t\trequire(checkRestriction(_datasetorder.apprestrict,          _apporder.app,               0x01 /*IexecPermission.SUBMIT*/ ));\n\t\trequire(checkRestriction(_datasetorder.workerpoolrestrict,   _workerpoolorder.workerpool, 0x01 /*IexecPermission.SUBMIT*/ ));\n\t\trequire(checkRestriction(_datasetorder.requesterrestrict,    _requestorder.requester,     0x01 /*IexecPermission.SUBMIT*/ ));\n\t\trequire(checkRestriction(_workerpoolorder.apprestrict,       _apporder.app,               0x01 /*IexecPermission.SUBMIT*/ ));\n\t\trequire(checkRestriction(_workerpoolorder.datasetrestrict,   _datasetorder.dataset,       0x01 /*IexecPermission.SUBMIT*/ ));\n\t\trequire(checkRestriction(_workerpoolorder.requesterrestrict, _requestorder.requester,     0x01 /*IexecPermission.SUBMIT*/ ));\n\n\t\trequire(                                       appregistry.isRegistered(_apporder.app));\n\t\trequire(_datasetorder.dataset == address(0) || datasetregistry.isRegistered(_datasetorder.dataset));\n\t\trequire(                                       workerpoolregistry.isRegistered(_workerpoolorder.workerpool));\n\n\t\t/**\n\t\t * Check orders authenticity\n\t\t */\n\t\tIdentities memory ids;\n\t\tids.hasDataset = _datasetorder.dataset != address(0);\n\n\t\t// app\n\t\tids.appHash  = _apporder.hash();\n\t\tids.appOwner = App(_apporder.app).m_owner();\n\t\trequire(verify(ids.appOwner, ids.appHash, _apporder.sign));\n\n\t\t// dataset\n\t\tif (ids.hasDataset) // only check if dataset is enabled\n\t\t{\n\t\t\tids.datasetHash  = _datasetorder.hash();\n\t\t\tids.datasetOwner = Dataset(_datasetorder.dataset).m_owner();\n\t\t\trequire(verify(ids.datasetOwner, ids.datasetHash, _datasetorder.sign));\n\t\t}\n\n\t\t// workerpool\n\t\tids.workerpoolHash  = _workerpoolorder.hash();\n\t\tids.workerpoolOwner = Workerpool(_workerpoolorder.workerpool).m_owner();\n\t\trequire(verify(ids.workerpoolOwner, ids.workerpoolHash, _workerpoolorder.sign));\n\n\t\t// request\n\t\tids.requestHash = _requestorder.hash();\n\t\trequire(verify(_requestorder.requester, ids.requestHash, _requestorder.sign));\n\n\t\t/**\n\t\t * Check availability\n\t\t */\n\t\tuint256 volume;\n\t\tvolume =                             _apporder.volume.sub       (m_consumed[ids.appHash       ]);\n\t\tvolume = ids.hasDataset ? volume.min(_datasetorder.volume.sub   (m_consumed[ids.datasetHash   ])) : volume;\n\t\tvolume =                  volume.min(_workerpoolorder.volume.sub(m_consumed[ids.workerpoolHash]));\n\t\tvolume =                  volume.min(_requestorder.volume.sub   (m_consumed[ids.requestHash   ]));\n\t\trequire(volume > 0);\n\n\t\t/**\n\t\t * Record\n\t\t */\n\t\tbytes32 dealid = keccak256(abi.encodePacked(\n\t\t\tids.requestHash,            // requestHash\n\t\t\tm_consumed[ids.requestHash] // idx of first subtask\n\t\t));\n\n\t\tIexecODBLibCore.Deal storage deal = m_deals[dealid];\n\t\tdeal.app.pointer          = _apporder.app;\n\t\tdeal.app.owner            = ids.appOwner;\n\t\tdeal.app.price            = _apporder.appprice;\n\t\tdeal.dataset.owner        = ids.datasetOwner;\n\t\tdeal.dataset.pointer      = _datasetorder.dataset;\n\t\tdeal.dataset.price        = ids.hasDataset ? _datasetorder.datasetprice : 0;\n\t\tdeal.workerpool.pointer   = _workerpoolorder.workerpool;\n\t\tdeal.workerpool.owner     = ids.workerpoolOwner;\n\t\tdeal.workerpool.price     = _workerpoolorder.workerpoolprice;\n\t\tdeal.trust                = _requestorder.trust.max(1);\n\t\tdeal.category             = _requestorder.category;\n\t\tdeal.tag                  = _apporder.tag | _datasetorder.tag | _requestorder.tag;\n\t\tdeal.requester            = _requestorder.requester;\n\t\tdeal.beneficiary          = _requestorder.beneficiary;\n\t\tdeal.callback             = _requestorder.callback;\n\t\tdeal.params               = _requestorder.params;\n\t\tdeal.startTime            = now;\n\t\tdeal.botFirst             = m_consumed[ids.requestHash];\n\t\tdeal.botSize              = volume;\n\t\tdeal.workerStake          = _workerpoolorder.workerpoolprice.percentage(Workerpool(_workerpoolorder.workerpool).m_workerStakeRatioPolicy());\n\t\tdeal.schedulerRewardRatio = Workerpool(_workerpoolorder.workerpool).m_schedulerRewardRatioPolicy();\n\n\t\tm_requestdeals[ids.requestHash].push(dealid);\n\n\t\t/**\n\t\t * Update consumed\n\t\t */\n\t\tm_consumed[ids.appHash       ] = m_consumed[ids.appHash       ].add(                 volume    );\n\t\tm_consumed[ids.datasetHash   ] = m_consumed[ids.datasetHash   ].add(ids.hasDataset ? volume : 0);\n\t\tm_consumed[ids.workerpoolHash] = m_consumed[ids.workerpoolHash].add(                 volume    );\n\t\tm_consumed[ids.requestHash   ] = m_consumed[ids.requestHash   ].add(                 volume    );\n\n\t\t/**\n\t\t * Lock\n\t\t */\n\t\tlock(\n\t\t\tdeal.requester,\n\t\t\tdeal.app.price\n\t\t\t.add(deal.dataset.price)\n\t\t\t.add(deal.workerpool.price)\n\t\t\t.mul(volume)\n\t\t);\n\t\tlock(\n\t\t\tdeal.workerpool.owner,\n\t\t\tdeal.workerpool.price\n\t\t\t.percentage(WORKERPOOL_STAKE_RATIO) // ORDER IS IMPORTANT HERE!\n\t\t\t.mul(volume)                        // ORDER IS IMPORTANT HERE!\n\t\t);\n\n\t\t/**\n\t\t * Advertize deal\n\t\t */\n\t\temit SchedulerNotice(deal.workerpool.pointer, dealid);\n\n\t\t/**\n\t\t * Advertize consumption\n\t\t */\n\t\temit OrdersMatched(\n\t\t\tdealid,\n\t\t\tids.appHash,\n\t\t\tids.datasetHash,\n\t\t\tids.workerpoolHash,\n\t\t\tids.requestHash,\n\t\t\tvolume\n\t\t);\n\n\t\treturn dealid;\n\t}\n\n\t/***************************************************************************\n\t *                            Consensus methods                            *\n\t ***************************************************************************/\n\tfunction initialize(bytes32 _dealid, uint256 idx)\n\tpublic returns (bytes32)\n\t{\n\t\tIexecODBLibCore.Deal memory deal = m_deals[_dealid];\n\n\t\trequire(idx >= deal.botFirst                  );\n\t\trequire(idx <  deal.botFirst.add(deal.botSize));\n\n\t\tbytes32 taskid  = keccak256(abi.encodePacked(_dealid, idx));\n\t\tIexecODBLibCore.Task storage task = m_tasks[taskid];\n\t\trequire(task.status == IexecODBLibCore.TaskStatusEnum.UNSET);\n\n\t\ttask.status               = IexecODBLibCore.TaskStatusEnum.ACTIVE;\n\t\ttask.dealid               = _dealid;\n\t\ttask.idx                  = idx;\n\t\ttask.timeref              = m_categories[deal.category].workClockTimeRef;\n\t\ttask.contributionDeadline = task.timeref.mul(DEADLINE_RATIO_CONTRIBUTION).add(deal.startTime);\n\t\ttask.finalDeadline        = task.timeref.mul(DEADLINE_RATIO_FINAL       ).add(deal.startTime);\n\n\t\t// setup denominator\n\t\tm_totalweight[taskid] = 1;\n\n\t\temit TaskInitialize(taskid, m_deals[_dealid].workerpool.pointer);\n\n\t\treturn taskid;\n\t}\n\n\t// TODO: make external w/ calldata\n\tfunction contribute(\n\t\tbytes32                            _taskid,\n\t\tbytes32                            _resultHash,\n\t\tbytes32                            _resultSeal,\n\t\taddress                            _enclaveChallenge,\n\t\tIexecODBLibOrders.signature memory _enclaveSign,\n\t\tIexecODBLibOrders.signature memory _workerpoolSign)\n\tpublic\n\t{\n\t\tIexecODBLibCore.Task         storage task         = m_tasks[_taskid];\n\t\tIexecODBLibCore.Contribution storage contribution = m_contributions[_taskid][msg.sender];\n\t\tIexecODBLibCore.Deal         memory  deal         = m_deals[task.dealid];\n\n\t\trequire(task.status               == IexecODBLibCore.TaskStatusEnum.ACTIVE       );\n\t\trequire(task.contributionDeadline >  now                                         );\n\t\trequire(contribution.status       == IexecODBLibCore.ContributionStatusEnum.UNSET);\n\n\t\t// Check that the worker + taskid + enclave combo is authorized to contribute (scheduler signature)\n\t\trequire(deal.workerpool.owner == ecrecover(\n\t\t\tkeccak256(abi.encodePacked(\n\t\t\t\t\"\\x19Ethereum Signed Message:\\n32\",\n\t\t\t\tkeccak256(abi.encodePacked(\n\t\t\t\t\tmsg.sender,\n\t\t\t\t\t_taskid,\n\t\t\t\t\t_enclaveChallenge\n\t\t\t\t))\n\t\t\t)),\n\t\t\t_workerpoolSign.v,\n\t\t\t_workerpoolSign.r,\n\t\t\t_workerpoolSign.s)\n\t\t);\n\n\t\t// need enclave challenge if tag is set\n\t\trequire(_enclaveChallenge != address(0) || (deal.tag[31] & 0x01 == 0));\n\n\t\t// Check enclave signature\n\t\tif (_enclaveChallenge != address(0))\n\t\t{\n\t\t\trequire(_enclaveChallenge == ecrecover(\n\t\t\t\tkeccak256(abi.encodePacked(\n\t\t\t\t\t\"\\x19Ethereum Signed Message:\\n32\",\n\t\t\t\t\tkeccak256(abi.encodePacked(\n\t\t\t\t\t_resultHash,\n\t\t\t\t\t_resultSeal\n\t\t\t\t\t))\n\t\t\t\t)),\n\t\t\t\t_enclaveSign.v,\n\t\t\t\t_enclaveSign.r,\n\t\t\t\t_enclaveSign.s)\n\t\t\t);\n\t\t}\n\n\t\t// Update contribution entry\n\t\tcontribution.status           = IexecODBLibCore.ContributionStatusEnum.CONTRIBUTED;\n\t\tcontribution.resultHash       = _resultHash;\n\t\tcontribution.resultSeal       = _resultSeal;\n\t\tcontribution.enclaveChallenge = _enclaveChallenge;\n\t\ttask.contributors.push(msg.sender);\n\n\t\tlockContribution(task.dealid, msg.sender);\n\n\t\temit TaskContribute(_taskid, msg.sender, _resultHash);\n\n\t\t// Contribution done  updating and checking concensus\n\n\t\t/*************************************************************************\n\t\t *                           SCORE POLICY 1/3                            *\n\t\t *                                                                       *\n\t\t *                          see documentation!                           *\n\t\t *************************************************************************/\n\t\t// k = 3\n\t\tuint256 weight = m_workerScores[msg.sender].div(3).max(3).sub(1);\n\t\tuint256 group  = m_groupweight[_taskid][_resultHash];\n\t\tuint256 delta  = group.max(1).mul(weight).sub(group);\n\n\t\tm_logweight  [_taskid][msg.sender ] = weight.log();\n\t\tm_groupweight[_taskid][_resultHash] = m_groupweight[_taskid][_resultHash].add(delta);\n\t\tm_totalweight[_taskid]              = m_totalweight[_taskid].add(delta);\n\n\t\t// Check consensus\n\t\tcheckConsensus(_taskid, _resultHash);\n\t}\n\tfunction checkConsensus(\n\t\tbytes32 _taskid,\n\t\tbytes32 _consensus)\n\tprivate\n\t{\n\t\tuint256 trust = m_deals[m_tasks[_taskid].dealid].trust;\n\t\tif (m_groupweight[_taskid][_consensus].mul(trust) > m_totalweight[_taskid].mul(trust.sub(1)))\n\t\t{\n\t\t\t// Preliminary checks done in \"contribute()\"\n\n\t\t\tIexecODBLibCore.Task storage task = m_tasks[_taskid];\n\t\t\tuint256 winnerCounter = 0;\n\t\t\tfor (uint256 i = 0; i < task.contributors.length; ++i)\n\t\t\t{\n\t\t\t\taddress w = task.contributors[i];\n\t\t\t\tif\n\t\t\t\t(\n\t\t\t\t\tm_contributions[_taskid][w].resultHash == _consensus\n\t\t\t\t\t&&\n\t\t\t\t\tm_contributions[_taskid][w].status == IexecODBLibCore.ContributionStatusEnum.CONTRIBUTED // REJECTED contribution must not be count\n\t\t\t\t)\n\t\t\t\t{\n\t\t\t\t\twinnerCounter = winnerCounter.add(1);\n\t\t\t\t}\n\t\t\t}\n\t\t\t// msg.sender is a contributor: no need to check\n\t\t\t// require(winnerCounter > 0);\n\t\t\ttask.status         = IexecODBLibCore.TaskStatusEnum.REVEALING;\n\t\t\ttask.consensusValue = _consensus;\n\t\t\ttask.revealDeadline = task.timeref.mul(DEADLINE_RATIO_REVEAL).add(now);\n\t\t\ttask.revealCounter  = 0;\n\t\t\ttask.winnerCounter  = winnerCounter;\n\n\t\t\temit TaskConsensus(_taskid, _consensus);\n\t\t}\n\t}\n\n\tfunction reveal(\n\t\tbytes32 _taskid,\n\t\tbytes32 _resultDigest)\n\texternal // worker\n\t{\n\t\tIexecODBLibCore.Task         storage task         = m_tasks[_taskid];\n\t\tIexecODBLibCore.Contribution storage contribution = m_contributions[_taskid][msg.sender];\n\t\trequire(task.status             == IexecODBLibCore.TaskStatusEnum.REVEALING                       );\n\t\trequire(task.revealDeadline     >  now                                                            );\n\t\trequire(contribution.status     == IexecODBLibCore.ContributionStatusEnum.CONTRIBUTED             );\n\t\trequire(contribution.resultHash == task.consensusValue                                            );\n\t\trequire(contribution.resultHash == keccak256(abi.encodePacked(            _taskid, _resultDigest)));\n\t\trequire(contribution.resultSeal == keccak256(abi.encodePacked(msg.sender, _taskid, _resultDigest)));\n\n\t\tcontribution.status = IexecODBLibCore.ContributionStatusEnum.PROVED;\n\t\ttask.revealCounter  = task.revealCounter.add(1);\n\n\t\temit TaskReveal(_taskid, msg.sender, _resultDigest);\n\t}\n\n\tfunction reopen(\n\t\tbytes32 _taskid)\n\texternal onlyScheduler(_taskid)\n\t{\n\t\tIexecODBLibCore.Task storage task = m_tasks[_taskid];\n\t\trequire(task.status         == IexecODBLibCore.TaskStatusEnum.REVEALING);\n\t\trequire(task.finalDeadline  >  now                                     );\n\t\trequire(task.revealDeadline <= now\n\t\t     && task.revealCounter  == 0                                       );\n\n\t\tfor (uint256 i = 0; i < task.contributors.length; ++i)\n\t\t{\n\t\t\taddress worker = task.contributors[i];\n\t\t\tif (m_contributions[_taskid][worker].resultHash == task.consensusValue)\n\t\t\t{\n\t\t\t\tm_contributions[_taskid][worker].status = IexecODBLibCore.ContributionStatusEnum.REJECTED;\n\t\t\t}\n\t\t}\n\n\t\tm_totalweight[_taskid]                      = m_totalweight[_taskid].sub(m_groupweight[_taskid][task.consensusValue]);\n\t\tm_groupweight[_taskid][task.consensusValue] = 0;\n\n\t\ttask.status         = IexecODBLibCore.TaskStatusEnum.ACTIVE;\n\t\ttask.consensusValue = 0x0;\n\t\ttask.revealDeadline = 0;\n\t\ttask.winnerCounter  = 0;\n\n\t\temit TaskReopen(_taskid);\n\t}\n\n\tfunction finalize(\n\t\tbytes32          _taskid,\n\t\tbytes   calldata _results)\n\texternal onlyScheduler(_taskid)\n\t{\n\t\tIexecODBLibCore.Task storage task = m_tasks[_taskid];\n\t\trequire(task.status        == IexecODBLibCore.TaskStatusEnum.REVEALING);\n\t\trequire(task.finalDeadline >  now                                     );\n\t\trequire(task.revealCounter == task.winnerCounter\n\t\t    || (task.revealCounter >  0  && task.revealDeadline <= now)       );\n\n\t\ttask.status  = IexecODBLibCore.TaskStatusEnum.COMPLETED;\n\t\ttask.results = _results;\n\n\t\t/**\n\t\t * Stake and reward management\n\t\t */\n\t\tsuccessWork(task.dealid);\n\t\tdistributeRewards(_taskid);\n\n\t\t/**\n\t\t * Event\n\t\t */\n\t\temit TaskFinalize(_taskid, _results);\n\n\t\t/**\n\t\t * Callback for smartcontracts using EIP1154\n\t\t */\n\t\taddress callbackTarget = m_deals[task.dealid].callback;\n\t\tif (callbackTarget != address(0))\n\t\t{\n\t\t\t/**\n\t\t\t * Call does not revert if the target smart contract is incompatible or reverts\n\t\t\t *\n\t\t\t * ATTENTION!\n\t\t\t * This call is dangerous and target smart contract can charge the stack.\n\t\t\t * Assume invalid state after the call.\n\t\t\t * See: https://solidity.readthedocs.io/en/develop/types.html#members-of-addresses\n\t\t\t *\n\t\t\t * TODO: gas provided?\n\t\t\t */\n\t\t\trequire(gasleft() > 100000);\n\t\t\tcallbackTarget.call.gas(100000)(abi.encodeWithSignature(\n\t\t\t\t\"receiveResult(bytes32,bytes)\",\n\t\t\t\t_taskid,\n\t\t\t\t_results\n\t\t\t));\n\t\t}\n\t}\n\n\tfunction distributeRewards(bytes32 _taskid)\n\tprivate\n\t{\n\t\tIexecODBLibCore.Task storage task = m_tasks[_taskid];\n\t\tIexecODBLibCore.Deal memory  deal = m_deals[task.dealid];\n\n\t\tuint256 i;\n\t\taddress worker;\n\n\t\tuint256 totalLogWeight = 0;\n\t\tuint256 totalReward = m_deals[task.dealid].workerpool.price;\n\n\t\tfor (i = 0; i < task.contributors.length; ++i)\n\t\t{\n\t\t\tworker = task.contributors[i];\n\t\t\tif (m_contributions[_taskid][worker].status == IexecODBLibCore.ContributionStatusEnum.PROVED)\n\t\t\t{\n\t\t\t\ttotalLogWeight = totalLogWeight.add(m_logweight[_taskid][worker]);\n\t\t\t}\n\t\t\telse // ContributionStatusEnum.REJECT or ContributionStatusEnum.CONTRIBUTED (not revealed)\n\t\t\t{\n\t\t\t\ttotalReward = totalReward.add(deal.workerStake);\n\t\t\t}\n\t\t}\n\t\trequire(totalLogWeight > 0);\n\n\t\t// compute how much is going to the workers\n\t\tuint256 workersReward = totalReward.percentage(uint256(100).sub(deal.schedulerRewardRatio));\n\n\t\tfor (i = 0; i < task.contributors.length; ++i)\n\t\t{\n\t\t\tworker = task.contributors[i];\n\t\t\tif (m_contributions[_taskid][worker].status == IexecODBLibCore.ContributionStatusEnum.PROVED)\n\t\t\t{\n\t\t\t\tuint256 workerReward = workersReward.mulByFraction(m_logweight[_taskid][worker], totalLogWeight);\n\t\t\t\ttotalReward          = totalReward.sub(workerReward);\n\n\t\t\t\tunlockAndRewardForContribution(task.dealid, worker, workerReward);\n\n\t\t\t\t// Only reward if replication happened\n\t\t\t\tif (task.contributors.length > 1)\n\t\t\t\t{\n\t\t\t\t\t/*******************************************************************\n\t\t\t\t\t *                        SCORE POLICY 2/3                         *\n\t\t\t\t\t *                                                                 *\n\t\t\t\t\t *                       see documentation!                        *\n\t\t\t\t\t *******************************************************************/\n\t\t\t\t\tm_workerScores[worker] = m_workerScores[worker].add(1);\n\t\t\t\t\temit AccurateContribution(worker, _taskid);\n\t\t\t\t}\n\t\t\t}\n\t\t\telse // WorkStatusEnum.POCO_REJECT or ContributionStatusEnum.CONTRIBUTED (not revealed)\n\t\t\t{\n\t\t\t\t// No Reward\n\t\t\t\tseizeContribution(task.dealid, worker);\n\n\t\t\t\t// Always punish bad contributors\n\t\t\t\t{\n\t\t\t\t\t/*******************************************************************\n\t\t\t\t\t *                        SCORE POLICY 3/3                         *\n\t\t\t\t\t *                                                                 *\n\t\t\t\t\t *                       see documentation!                        *\n\t\t\t\t\t *******************************************************************/\n\t\t\t\t\t// k = 3\n\t\t\t\t\tm_workerScores[worker] = m_workerScores[worker].mulByFraction(2,3);\n\t\t\t\t\temit FaultyContribution(worker, _taskid);\n\t\t\t\t}\n\t\t\t}\n\t\t}\n\t\t// totalReward now contains the scheduler share\n\t\trewardForScheduling(task.dealid, totalReward);\n\t}\n\n\tfunction claim(\n\t\tbytes32 _taskid)\n\tpublic\n\t{\n\t\tIexecODBLibCore.Task storage task = m_tasks[_taskid];\n\t\trequire(task.status == IexecODBLibCore.TaskStatusEnum.ACTIVE\n\t\t     || task.status == IexecODBLibCore.TaskStatusEnum.REVEALING);\n\t\trequire(task.finalDeadline <= now);\n\n\t\ttask.status = IexecODBLibCore.TaskStatusEnum.FAILLED;\n\n\t\t/**\n\t\t * Stake management\n\t\t */\n\t\tfailedWork(task.dealid);\n\t\tfor (uint256 i = 0; i < task.contributors.length; ++i)\n\t\t{\n\t\t\taddress worker = task.contributors[i];\n\t\t\tunlockContribution(task.dealid, worker);\n\t\t}\n\n\t\temit TaskClaimed(_taskid);\n\t}\n\n\t/***************************************************************************\n\t *                            Array operations                             *\n\t ***************************************************************************/\n\tfunction initializeArray(\n\t\tbytes32[] calldata _dealid,\n\t\tuint256[] calldata _idx)\n\texternal returns (bool)\n\t{\n\t\trequire(_dealid.length == _idx.length);\n\t\tfor (uint i = 0; i < _dealid.length; ++i)\n\t\t{\n\t\t\tinitialize(_dealid[i], _idx[i]);\n\t\t}\n\t\treturn true;\n\t}\n\n\tfunction claimArray(\n\t\tbytes32[] calldata _taskid)\n\texternal returns (bool)\n\t{\n\t\tfor (uint i = 0; i < _taskid.length; ++i)\n\t\t{\n\t\t\tclaim(_taskid[i]);\n\t\t}\n\t\treturn true;\n\t}\n\n\tfunction initializeAndClaimArray(\n\t\tbytes32[] calldata _dealid,\n\t\tuint256[] calldata _idx)\n\texternal returns (bool)\n\t{\n\t\trequire(_dealid.length == _idx.length);\n\t\tfor (uint i = 0; i < _dealid.length; ++i)\n\t\t{\n\t\t\tclaim(initialize(_dealid[i], _idx[i]));\n\t\t}\n\t\treturn true;\n\t}\n\n\n\n}\n",
  "sourcePath": "/home/amxx/Work/iExec/code/PoCo-dev/contracts/delegate/IexecCore.sol",
  "compiler": {
    "name": "solc",
    "version": "0.5.0+commit.1d4f565a.Emscripten.clang"
  },
  "schemaVersion": "3.0.1",
  "updatedAt": "2019-01-08T09:34:24.507Z",
  "devdoc": {
    "methods": {
      "transferOwnership(address)": {
        "details": "Allows the current owner to transfer control of the contract to a newOwner.",
        "params": {
          "_newOwner": "The address to transfer ownership to."
        }
      }
    }
  },
  "userdoc": {
    "methods": {
      "checkRestriction(address,address,bytes1)": {
        "notice": "*************************************************************************                          ODB order matching                            ***************************************************************************"
      },
      "deposit(uint256)": {
        "notice": "*************************************************************************                        Escrow methods: public                          ***************************************************************************"
      },
      "initialize(bytes32,uint256)": {
        "notice": "*************************************************************************                           Consensus methods                            ***************************************************************************"
      },
      "initializeArray(bytes32[],uint256[])": {
        "notice": "*************************************************************************                           Array operations                             ***************************************************************************"
      }
    }
  }
}