{
  "contractName": "IexecHub",
  "abi": [
    {
      "constant": true,
      "inputs": [],
      "name": "dataregistry",
      "outputs": [
        {
          "name": "",
          "type": "address"
        }
      ],
      "payable": false,
      "stateMutability": "view",
      "type": "function"
    },
    {
      "constant": false,
      "inputs": [
        {
          "name": "name",
          "type": "string"
        },
        {
          "name": "description",
          "type": "string"
        },
        {
          "name": "workClockTimeRef",
          "type": "uint256"
        }
      ],
      "name": "createCategory",
      "outputs": [
        {
          "name": "",
          "type": "uint256"
        }
      ],
      "payable": false,
      "stateMutability": "nonpayable",
      "type": "function"
    },
    {
      "constant": true,
      "inputs": [],
      "name": "dappregistry",
      "outputs": [
        {
          "name": "",
          "type": "address"
        }
      ],
      "payable": false,
      "stateMutability": "view",
      "type": "function"
    },
    {
      "constant": true,
      "inputs": [],
      "name": "CONSENSUS_DURATION_RATIO",
      "outputs": [
        {
          "name": "",
          "type": "uint256"
        }
      ],
      "payable": false,
      "stateMutability": "view",
      "type": "function"
    },
    {
      "constant": true,
      "inputs": [],
      "name": "poolregistry",
      "outputs": [
        {
          "name": "",
          "type": "address"
        }
      ],
      "payable": false,
      "stateMutability": "view",
      "type": "function"
    },
    {
      "constant": true,
      "inputs": [
        {
          "name": "_catid",
          "type": "uint256"
        }
      ],
      "name": "viewCategory",
      "outputs": [
        {
          "components": [
            {
              "name": "name",
              "type": "string"
            },
            {
              "name": "description",
              "type": "string"
            },
            {
              "name": "workClockTimeRef",
              "type": "uint256"
            }
          ],
          "name": "",
          "type": "tuple"
        }
      ],
      "payable": false,
      "stateMutability": "view",
      "type": "function"
    },
    {
      "constant": true,
      "inputs": [],
      "name": "SCORE_UNITARY_SLASH",
      "outputs": [
        {
          "name": "",
          "type": "uint256"
        }
      ],
      "payable": false,
      "stateMutability": "view",
      "type": "function"
    },
    {
      "constant": true,
      "inputs": [],
      "name": "iexecclerk",
      "outputs": [
        {
          "name": "",
          "type": "address"
        }
      ],
      "payable": false,
      "stateMutability": "view",
      "type": "function"
    },
    {
      "constant": true,
      "inputs": [],
      "name": "countCategory",
      "outputs": [
        {
          "name": "",
          "type": "uint256"
        }
      ],
      "payable": false,
      "stateMutability": "view",
      "type": "function"
    },
    {
      "constant": true,
      "inputs": [],
      "name": "m_owner",
      "outputs": [
        {
          "name": "",
          "type": "address"
        }
      ],
      "payable": false,
      "stateMutability": "view",
      "type": "function"
    },
    {
      "constant": true,
      "inputs": [],
      "name": "REVEAL_DURATION_RATIO",
      "outputs": [
        {
          "name": "",
          "type": "uint256"
        }
      ],
      "payable": false,
      "stateMutability": "view",
      "type": "function"
    },
    {
      "constant": false,
      "inputs": [
        {
          "name": "_newOwner",
          "type": "address"
        }
      ],
      "name": "transferOwnership",
      "outputs": [],
      "payable": false,
      "stateMutability": "nonpayable",
      "type": "function"
    },
    {
      "inputs": [],
      "payable": false,
      "stateMutability": "nonpayable",
      "type": "constructor"
    },
    {
      "anonymous": false,
      "inputs": [
        {
          "indexed": true,
          "name": "taskid",
          "type": "bytes32"
        },
        {
          "indexed": true,
          "name": "pool",
          "type": "address"
        }
      ],
      "name": "TaskInitialize",
      "type": "event"
    },
    {
      "anonymous": false,
      "inputs": [
        {
          "indexed": true,
          "name": "taskid",
          "type": "bytes32"
        },
        {
          "indexed": true,
          "name": "worker",
          "type": "address"
        },
        {
          "indexed": false,
          "name": "hash",
          "type": "bytes32"
        }
      ],
      "name": "TaskContribute",
      "type": "event"
    },
    {
      "anonymous": false,
      "inputs": [
        {
          "indexed": true,
          "name": "taskid",
          "type": "bytes32"
        },
        {
          "indexed": false,
          "name": "consensus",
          "type": "bytes32"
        }
      ],
      "name": "TaskConsensus",
      "type": "event"
    },
    {
      "anonymous": false,
      "inputs": [
        {
          "indexed": true,
          "name": "taskid",
          "type": "bytes32"
        },
        {
          "indexed": true,
          "name": "worker",
          "type": "address"
        },
        {
          "indexed": false,
          "name": "digest",
          "type": "bytes32"
        }
      ],
      "name": "TaskReveal",
      "type": "event"
    },
    {
      "anonymous": false,
      "inputs": [
        {
          "indexed": true,
          "name": "taskid",
          "type": "bytes32"
        }
      ],
      "name": "TaskReopen",
      "type": "event"
    },
    {
      "anonymous": false,
      "inputs": [
        {
          "indexed": true,
          "name": "taskid",
          "type": "bytes32"
        },
        {
          "indexed": false,
          "name": "results",
          "type": "bytes"
        }
      ],
      "name": "TaskFinalize",
      "type": "event"
    },
    {
      "anonymous": false,
      "inputs": [
        {
          "indexed": true,
          "name": "taskid",
          "type": "bytes32"
        }
      ],
      "name": "TaskClaimed",
      "type": "event"
    },
    {
      "anonymous": false,
      "inputs": [
        {
          "indexed": true,
          "name": "worker",
          "type": "address"
        },
        {
          "indexed": true,
          "name": "taskid",
          "type": "bytes32"
        }
      ],
      "name": "AccurateContribution",
      "type": "event"
    },
    {
      "anonymous": false,
      "inputs": [
        {
          "indexed": true,
          "name": "worker",
          "type": "address"
        },
        {
          "indexed": true,
          "name": "taskid",
          "type": "bytes32"
        }
      ],
      "name": "FaultyContribution",
      "type": "event"
    },
    {
      "anonymous": false,
      "inputs": [
        {
          "indexed": true,
          "name": "pool",
          "type": "address"
        },
        {
          "indexed": true,
          "name": "worker",
          "type": "address"
        }
      ],
      "name": "WorkerSubscription",
      "type": "event"
    },
    {
      "anonymous": false,
      "inputs": [
        {
          "indexed": true,
          "name": "pool",
          "type": "address"
        },
        {
          "indexed": true,
          "name": "worker",
          "type": "address"
        }
      ],
      "name": "WorkerUnsubscription",
      "type": "event"
    },
    {
      "anonymous": false,
      "inputs": [
        {
          "indexed": true,
          "name": "pool",
          "type": "address"
        },
        {
          "indexed": true,
          "name": "worker",
          "type": "address"
        }
      ],
      "name": "WorkerEviction",
      "type": "event"
    },
    {
      "anonymous": false,
      "inputs": [
        {
          "indexed": false,
          "name": "catid",
          "type": "uint256"
        },
        {
          "indexed": false,
          "name": "name",
          "type": "string"
        },
        {
          "indexed": false,
          "name": "description",
          "type": "string"
        },
        {
          "indexed": false,
          "name": "workClockTimeRef",
          "type": "uint256"
        }
      ],
      "name": "CreateCategory",
      "type": "event"
    },
    {
      "anonymous": false,
      "inputs": [
        {
          "indexed": true,
          "name": "previousOwner",
          "type": "address"
        },
        {
          "indexed": true,
          "name": "newOwner",
          "type": "address"
        }
      ],
      "name": "OwnershipTransferred",
      "type": "event"
    },
    {
      "constant": false,
      "inputs": [
        {
          "name": "_iexecclerkAddress",
          "type": "address"
        },
        {
          "name": "_dappRegistryAddress",
          "type": "address"
        },
        {
          "name": "_dataRegistryAddress",
          "type": "address"
        },
        {
          "name": "_poolRegistryAddress",
          "type": "address"
        }
      ],
      "name": "attachContracts",
      "outputs": [],
      "payable": false,
      "stateMutability": "nonpayable",
      "type": "function"
    },
    {
      "constant": true,
      "inputs": [
        {
          "name": "_taskid",
          "type": "bytes32"
        }
      ],
      "name": "viewTask",
      "outputs": [
        {
          "components": [
            {
              "name": "status",
              "type": "uint8"
            },
            {
              "name": "dealid",
              "type": "bytes32"
            },
            {
              "name": "idx",
              "type": "uint256"
            },
            {
              "name": "consensusDeadline",
              "type": "uint256"
            },
            {
              "name": "consensusValue",
              "type": "bytes32"
            },
            {
              "name": "revealDeadline",
              "type": "uint256"
            },
            {
              "name": "revealCounter",
              "type": "uint256"
            },
            {
              "name": "winnerCounter",
              "type": "uint256"
            },
            {
              "name": "contributors",
              "type": "address[]"
            },
            {
              "name": "results",
              "type": "bytes"
            }
          ],
          "name": "",
          "type": "tuple"
        }
      ],
      "payable": false,
      "stateMutability": "view",
      "type": "function"
    },
    {
      "constant": true,
      "inputs": [
        {
          "name": "_taskid",
          "type": "bytes32"
        },
        {
          "name": "_worker",
          "type": "address"
        }
      ],
      "name": "viewContribution",
      "outputs": [
        {
          "components": [
            {
              "name": "status",
              "type": "uint8"
            },
            {
              "name": "resultHash",
              "type": "bytes32"
            },
            {
              "name": "resultSeal",
              "type": "bytes32"
            },
            {
              "name": "enclaveChallenge",
              "type": "address"
            },
            {
              "name": "score",
              "type": "uint256"
            },
            {
              "name": "weight",
              "type": "uint256"
            }
          ],
          "name": "",
          "type": "tuple"
        }
      ],
      "payable": false,
      "stateMutability": "view",
      "type": "function"
    },
    {
      "constant": true,
      "inputs": [
        {
          "name": "_worker",
          "type": "address"
        }
      ],
      "name": "viewScore",
      "outputs": [
        {
          "name": "",
          "type": "uint256"
        }
      ],
      "payable": false,
      "stateMutability": "view",
      "type": "function"
    },
    {
      "constant": true,
      "inputs": [
        {
          "name": "_worker",
          "type": "address"
        }
      ],
      "name": "viewAffectation",
      "outputs": [
        {
          "name": "",
          "type": "address"
        }
      ],
      "payable": false,
      "stateMutability": "view",
      "type": "function"
    },
    {
      "constant": true,
      "inputs": [
        {
          "name": "dapp",
          "type": "address"
        },
        {
          "name": "data",
          "type": "address"
        },
        {
          "name": "pool",
          "type": "address"
        }
      ],
      "name": "checkResources",
      "outputs": [
        {
          "name": "",
          "type": "bool"
        }
      ],
      "payable": false,
      "stateMutability": "view",
      "type": "function"
    },
    {
      "constant": true,
      "inputs": [
        {
          "name": "id",
          "type": "bytes32"
        }
      ],
      "name": "resultFor",
      "outputs": [
        {
          "name": "result",
          "type": "bytes"
        }
      ],
      "payable": false,
      "stateMutability": "view",
      "type": "function"
    },
    {
      "constant": false,
      "inputs": [
        {
          "name": "_dealid",
          "type": "bytes32"
        },
        {
          "name": "idx",
          "type": "uint256"
        }
      ],
      "name": "initialize",
      "outputs": [
        {
          "name": "",
          "type": "bytes32"
        }
      ],
      "payable": false,
      "stateMutability": "nonpayable",
      "type": "function"
    },
    {
      "constant": false,
      "inputs": [
        {
          "name": "_taskid",
          "type": "bytes32"
        },
        {
          "name": "_resultHash",
          "type": "bytes32"
        },
        {
          "name": "_resultSeal",
          "type": "bytes32"
        },
        {
          "name": "_enclaveChallenge",
          "type": "address"
        },
        {
          "components": [
            {
              "name": "v",
              "type": "uint8"
            },
            {
              "name": "r",
              "type": "bytes32"
            },
            {
              "name": "s",
              "type": "bytes32"
            }
          ],
          "name": "_enclaveSign",
          "type": "tuple"
        },
        {
          "components": [
            {
              "name": "v",
              "type": "uint8"
            },
            {
              "name": "r",
              "type": "bytes32"
            },
            {
              "name": "s",
              "type": "bytes32"
            }
          ],
          "name": "_poolSign",
          "type": "tuple"
        }
      ],
      "name": "contribute",
      "outputs": [],
      "payable": false,
      "stateMutability": "nonpayable",
      "type": "function"
    },
    {
      "constant": false,
      "inputs": [
        {
          "name": "_taskid",
          "type": "bytes32"
        },
        {
          "name": "_consensus",
          "type": "bytes32"
        }
      ],
      "name": "consensus",
      "outputs": [],
      "payable": false,
      "stateMutability": "nonpayable",
      "type": "function"
    },
    {
      "constant": false,
      "inputs": [
        {
          "name": "_taskid",
          "type": "bytes32"
        },
        {
          "name": "_resultDigest",
          "type": "bytes32"
        }
      ],
      "name": "reveal",
      "outputs": [],
      "payable": false,
      "stateMutability": "nonpayable",
      "type": "function"
    },
    {
      "constant": false,
      "inputs": [
        {
          "name": "_taskid",
          "type": "bytes32"
        }
      ],
      "name": "reopen",
      "outputs": [],
      "payable": false,
      "stateMutability": "nonpayable",
      "type": "function"
    },
    {
      "constant": false,
      "inputs": [
        {
          "name": "_taskid",
          "type": "bytes32"
        },
        {
          "name": "_results",
          "type": "bytes"
        }
      ],
      "name": "finalize",
      "outputs": [],
      "payable": false,
      "stateMutability": "nonpayable",
      "type": "function"
    },
    {
      "constant": false,
      "inputs": [
        {
          "name": "_taskid",
          "type": "bytes32"
        }
      ],
      "name": "claim",
      "outputs": [],
      "payable": false,
      "stateMutability": "nonpayable",
      "type": "function"
    },
    {
      "constant": false,
      "inputs": [
        {
          "name": "_dealid",
          "type": "bytes32[]"
        },
        {
          "name": "_idx",
          "type": "uint256[]"
        }
      ],
      "name": "initializeArray",
      "outputs": [
        {
          "name": "",
          "type": "bool"
        }
      ],
      "payable": false,
      "stateMutability": "nonpayable",
      "type": "function"
    },
    {
      "constant": false,
      "inputs": [
        {
          "name": "_taskid",
          "type": "bytes32[]"
        }
      ],
      "name": "claimArray",
      "outputs": [
        {
          "name": "",
          "type": "bool"
        }
      ],
      "payable": false,
      "stateMutability": "nonpayable",
      "type": "function"
    },
    {
      "constant": false,
      "inputs": [
        {
          "name": "_pool",
          "type": "address"
        }
      ],
      "name": "subscribe",
      "outputs": [
        {
          "name": "",
          "type": "bool"
        }
      ],
      "payable": false,
      "stateMutability": "nonpayable",
      "type": "function"
    },
    {
      "constant": false,
      "inputs": [],
      "name": "unsubscribe",
      "outputs": [
        {
          "name": "",
          "type": "bool"
        }
      ],
      "payable": false,
      "stateMutability": "nonpayable",
      "type": "function"
    },
    {
      "constant": false,
      "inputs": [
        {
          "name": "_worker",
          "type": "address"
        }
      ],
      "name": "evict",
      "outputs": [
        {
          "name": "",
          "type": "bool"
        }
      ],
      "payable": false,
      "stateMutability": "nonpayable",
      "type": "function"
    }
  ],
  "bytecode": "0x608060405234801561001057600080fd5b5060008054600160a060020a031916331790556144c6806100326000396000f3006080604052600436106101715763ffffffff60e060020a600035041663097d630d81146101765780631e99f54f146101ac57806325a57534146101ce5780632641ad78146101f0578063298503d914610210578063313ecd9d1461023d57806341a7726a1461025257806345b99d28146102725780634704511d146102875780634e156935146102a75780634f5f44ec146102bc5780635b36c66b146102e95780635f688cf714610309578063747bcd7214610329578063adccf0d51461033e578063b01c68461461036b578063b504681d14610380578063bd66528a146103a0578063c037f13e146103c0578063c140996f146103e0578063d09cc57e146103f5578063db230b5214610422578063deff41c114610442578063e741363b14610464578063e9ebbaf814610491578063edd81dec146104a6578063f2fde38b146104c6578063f6c68e10146104e6578063fa055d7e14610506578063fc334e8c14610526578063fcae448414610546575b600080fd5b34801561018257600080fd5b50610196610191366004613bbd565b61055b565b6040516101a3919061422c565b60405180910390f35b3480156101b857600080fd5b506101c1610727565b6040516101a391906142ff565b3480156101da57600080fd5b506101ee6101e9366004613da5565b610736565b005b3480156101fc57600080fd5b5061019661020b366004613b81565b610d58565b34801561021c57600080fd5b5061023061022b366004613e93565b610f5c565b6040516101a3919061423a565b34801561024957600080fd5b506101c1611049565b34801561025e57600080fd5b5061019661026d366004613e75565b611058565b34801561027e57600080fd5b50610230611401565b34801561029357600080fd5b506101ee6102a2366004613c0a565b611406565b3480156102b357600080fd5b506101c1611483565b3480156102c857600080fd5b506102dc6102d7366004613d27565b611492565b6040516101a3919061430d565b3480156102f557600080fd5b50610230610304366004613d75565b611607565b34801561031557600080fd5b506101c1610324366004613b81565b6118c3565b34801561033557600080fd5b506102306118e1565b34801561034a57600080fd5b5061035e610359366004613d27565b6118e6565b6040516101a3919061432c565b34801561037757600080fd5b506101c1611a73565b34801561038c57600080fd5b5061019661039b366004613ca0565b611a82565b3480156103ac57600080fd5b506101ee6103bb366004613d27565b611aef565b3480156103cc57600080fd5b506101ee6103db366004613e2d565b611cc1565b3480156103ec57600080fd5b50610230612069565b34801561040157600080fd5b50610415610410366004613d27565b612070565b6040516101a391906142ee565b34801561042e57600080fd5b5061023061043d366004613b81565b612132565b34801561044e57600080fd5b5061045761214d565b6040516101a39190614203565b34801561047057600080fd5b5061048461047f366004613d45565b61215c565b6040516101a3919061431e565b34801561049d57600080fd5b506102306121f6565b3480156104b257600080fd5b506101ee6104c1366004613d75565b6121fb565b3480156104d257600080fd5b506101ee6104e1366004613b81565b6124dd565b3480156104f257600080fd5b506101ee610501366004613d27565b612564565b34801561051257600080fd5b50610196610521366004613c6b565b612769565b34801561053257600080fd5b506101ee610541366004613d75565b6127a7565b34801561055257600080fd5b506101966129cd565b60035460405160e060020a63c3c5a547028152600091600160a060020a03169063c3c5a5479061058f908790600401614203565b602060405180830381600087803b1580156105a957600080fd5b505af11580156105bd573d6000803e3d6000fd5b505050506040513d601f19601f820116820180604052506105e19190810190613d09565b15156105ec57600080fd5b600160a060020a038316158061068157506004805460405160e060020a63c3c5a547028152600160a060020a039091169163c3c5a5479161062f91879101614203565b602060405180830381600087803b15801561064957600080fd5b505af115801561065d573d6000803e3d6000fd5b505050506040513d601f19601f820116820180604052506106819190810190613d09565b151561068c57600080fd5b60055460405160e060020a63c3c5a547028152600160a060020a039091169063c3c5a547906106bf908590600401614203565b602060405180830381600087803b1580156106d957600080fd5b505af11580156106ed573d6000803e3d6000fd5b505050506040513d601f19601f820116820180604052506107119190810190613d09565b151561071c57600080fd5b5060015b9392505050565b600454600160a060020a031681565b60008061074161351e565b600089815260066020908152604080832060078352818420338552909252918290206002546001830154935160e160020a635ba430d9028152929650909450600160a060020a03169163b74861b29161079d919060040161423a565b600060405180830381600087803b1580156107b757600080fd5b505af11580156107cb573d6000803e3d6000fd5b505050506040513d6000823e601f3d908101601f191682016040526107f39190810190613f41565b90506001835460ff16600481111561080757fe5b1461081157600080fd5b6003830154421061082157600080fd5b6000825460ff16600381111561083357fe5b1461083d57600080fd5b604080516c01000000000000000000000000338102602080840191909152603483018d9052600160a060020a038a169091026054830152825160488184030181526068909201928390528151600193918291908401908083835b602083106108b65780518252601f199092019160209182019101610897565b51815160209384036101000a6000190180199092169116179052604080519290940182900382207f19457468657265756d205369676e6564204d6573736167653a0a33320000000083830152603c8084019190915284518084039091018152605c9092019384905281519195509293508392850191508083835b6020831061094f5780518252601f199092019160209182019101610930565b51815160209384036101000a6000190180199092169116179052604080519290940182900382208b518c8301518d87015160008652949093019586905261099d9750909550939092506142b9565b60206040516020810390808403906000865af11580156109c1573d6000803e3d6000fd5b50505060206040510351600160a060020a0316816040015160200151600160a060020a03161415156109f257600080fd5b6040808201515133600090815260096020529190912054600160a060020a03908116911614610a2057600080fd5b600160a060020a038616151580610a3c57506080810151600116155b1515610a4757600080fd5b600160a060020a03861615610bdd576040805160208082018b90528183018a90528251808303840181526060909201928390528151600193918291908401908083835b60208310610aa95780518252601f199092019160209182019101610a8a565b51815160209384036101000a6000190180199092169116179052604080519290940182900382207f19457468657265756d205369676e6564204d6573736167653a0a33320000000083830152603c8084019190915284518084039091018152605c9092019384905281519195509293508392850191508083835b60208310610b425780518252601f199092019160209182019101610b23565b51815160209384036101000a6000190180199092169116179052604080519290940182900382208c518d8301518e870151600086529490930195869052610b909750909550939092506142b9565b60206040516020810390808403906000865af1158015610bb4573d6000803e3d6000fd5b50505060206040510351600160a060020a031686600160a060020a0316141515610bdd57600080fd5b8154600160ff1990911681178355600383018054600160a060020a031916600160a060020a0389811691909117918290559184018a905560028401899055610c4f91161515610c2d576001610c30565b60035b336000908152600860205260409020549060ff1663ffffffff612b3716565b60048301819055610c5f90612b62565b60019081016005840155600884018054808301825560009182526020909120018054600160a060020a03191633908117909155600254918501546040517fe798491a000000000000000000000000000000000000000000000000000000008152600160a060020a03939093169263e798491a92610cdf9291600401614248565b600060405180830381600087803b158015610cf957600080fd5b505af1158015610d0d573d6000803e3d6000fd5b50506040513392508b91507f3fdb8d7797562d49a81078dbf7fa1771958ea452f8b13d1148383bd9506aecfb90610d45908c9061423a565b60405180910390a3505050505050505050565b600160a060020a03808216600090815260096020526040812054909116801515610d8157600080fd5b33600160a060020a031681600160a060020a031663deff41c16040518163ffffffff1660e060020a028152600401602060405180830381600087803b158015610dc957600080fd5b505af1158015610ddd573d6000803e3d6000fd5b505050506040513d601f19601f82011682018060405250610e019190810190613b9f565b600160a060020a031614610e1457600080fd5b600260009054906101000a9004600160a060020a0316600160a060020a031663858fb57c8483600160a060020a031663e2d36ef56040518163ffffffff1660e060020a028152600401602060405180830381600087803b158015610e7757600080fd5b505af1158015610e8b573d6000803e3d6000fd5b505050506040513d601f19601f82011682018060405250610eaf9190810190613f76565b6040518363ffffffff1660e060020a028152600401610ecf929190614211565b600060405180830381600087803b158015610ee957600080fd5b505af1158015610efd573d6000803e3d6000fd5b505050600160a060020a038085166000818152600960205260408082208054600160a060020a031916905551919350918416917f34a1851ba7e964fceb44d895ae72310f00eaf8fd0d65d6f4994d7558bd123eae91a350600192915050565b600080548190600160a060020a03163314610f7657600080fd5b6040805160608101825286815260208082018790529181018590526001805480820180835560009290925282518051929460039092027fb10e2d527612073b26eecdfd717e6a320cf44b4afac2b0732d9fcbe2b7fa0cf60192610fdc9284920190613598565b506020828101518051610ff59260018501920190613598565b5060408201518160020155505090507f62bf08360c9d561749c54eaf4f8bf8cb6c8b6f4f40607bcec39a8172e714d25c81868686604051611039949392919061433d565b60405180910390a1949350505050565b600354600160a060020a031681565b60055460405160e060020a63c3c5a547028152600091600160a060020a03169063c3c5a5479061108c9085906004016142ff565b602060405180830381600087803b1580156110a657600080fd5b505af11580156110ba573d6000803e3d6000fd5b505050506040513d601f19601f820116820180604052506110de9190810190613d09565b15156110e957600080fd5b33600090815260096020526040902054600160a060020a03161561110c57600080fd5b600260009054906101000a9004600160a060020a0316600160a060020a031663c38da0963384600160a060020a031663e2d36ef56040518163ffffffff1660e060020a028152600401602060405180830381600087803b15801561116f57600080fd5b505af1158015611183573d6000803e3d6000fd5b505050506040513d601f19601f820116820180604052506111a79190810190613f76565b6040518363ffffffff1660e060020a0281526004016111c7929190614211565b600060405180830381600087803b1580156111e157600080fd5b505af11580156111f5573d6000803e3d6000fd5b5050505081600160a060020a0316636ab6936a6040518163ffffffff1660e060020a028152600401602060405180830381600087803b15801561123757600080fd5b505af115801561124b573d6000803e3d6000fd5b505050506040513d601f19601f8201168201806040525061126f9190810190613f76565b6002546040517f6b55f4a5000000000000000000000000000000000000000000000000000000008152600160a060020a0390911690636b55f4a5906112b8903390600401614203565b6040805180830381600087803b1580156112d157600080fd5b505af11580156112e5573d6000803e3d6000fd5b505050506040513d601f19601f820116820180604052506113099190810190613f05565b51101561131557600080fd5b81600160a060020a031663cc6f06a36040518163ffffffff1660e060020a028152600401602060405180830381600087803b15801561135357600080fd5b505af1158015611367573d6000803e3d6000fd5b505050506040513d601f19601f8201168201806040525061138b9190810190613f76565b3360009081526008602052604090205410156113a657600080fd5b336000818152600960205260408082208054600160a060020a031916600160a060020a038716908117909155905190917fa3974a24374c249e652605b8c9507c8e427206e633a0f29fe4cafa025662543791a3506001919050565b600a81565b600054600160a060020a0316331461141d57600080fd5b600254600160a060020a03161561143357600080fd5b60028054600160a060020a03958616600160a060020a0319918216179091556003805494861694821694909417909355600480549285169284169290921790915560058054919093169116179055565b600554600160a060020a031681565b61149a613612565b60018054839081106114a857fe5b600091825260209182902060408051600393909302909101805460026001821615610100026000190190911604601f810185900490940283016080908101909252606083018481529293909284929091849184018282801561154b5780601f106115205761010080835404028352916020019161154b565b820191906000526020600020905b81548152906001019060200180831161152e57829003601f168201915b50505050508152602001600182018054600181600116156101000203166002900480601f0160208091040260200160405190810160405280929190818152602001828054600181600116156101000203166002900480156115ed5780601f106115c2576101008083540402835291602001916115ed565b820191906000526020600020905b8154815290600101906020018083116115d057829003601f168201915b505050505081526020016002820154815250509050919050565b6000611611613634565b6002546040517fc8d967290000000000000000000000000000000000000000000000000000000081526000918291600160a060020a039091169063c8d967299061165f90899060040161423a565b60c060405180830381600087803b15801561167957600080fd5b505af115801561168d573d6000803e3d6000fd5b505050506040513d601f19601f820116820180604052506116b19190810190613f23565b60408101519093508510156116c557600080fd5b606083015160408401516116de9163ffffffff612d6516565b85106116e957600080fd5b604080516020808201899052818301889052825180830384018152606090920192839052815191929182918401908083835b6020831061173a5780518252601f19909201916020918201910161171b565b51815160209384036101000a6000190180199092169116179052604080519290940182900390912060008181526006909252928120929650919450909250611780915050565b815460ff16600481111561179057fe5b1461179a57600080fd5b805460ff191660019081178255810186905560028101859055602083015183516117eb91906117df90600a906117cf90611492565b604001519063ffffffff612b3716565b9063ffffffff612d6516565b600382015560025460405160e160020a635ba430d9028152600160a060020a039091169063b74861b29061182390899060040161423a565b600060405180830381600087803b15801561183d57600080fd5b505af1158015611851573d6000803e3d6000fd5b505050506040513d6000823e601f3d908101601f191682016040526118799190810190613f41565b604090810151519051600160a060020a039091169083907f252992fb0468d68d6a5784ec03214f0d0a362083f2d7ebd157af43b017a22e0690600090a38193505b50505092915050565b600160a060020a039081166000908152600960205260409020541690565b603281565b6118ee61366b565b60008281526006602052604090819020815161014081019092528054829060ff16600481111561191a57fe5b600481111561192557fe5b8152600182015460208083019190915260028301546040808401919091526003840154606084015260048401546080840152600584015460a0840152600684015460c0840152600784015460e08401526008840180548251818502810185019093528083526101009094019391929091908301828280156119cf57602002820191906000526020600020905b8154600160a060020a031681526001909101906020018083116119b1575b505050918352505060098201805460408051602060026001851615610100026000190190941693909304601f8101849004840282018401909252818152938201939291830182828015611a635780601f10611a3857610100808354040283529160200191611a63565b820191906000526020600020905b815481529060010190602001808311611a4657829003601f168201915b5050505050815250509050919050565b600254600160a060020a031681565b60008082518451141515611a9557600080fd5b5060005b8351811015611ae357611ada8482815181101515611ab357fe5b906020019060200201518483815181101515611acb57fe5b90602001906020020151611607565b50600101611a99565b600191505b5092915050565b600081815260066020526040812090806001835460ff166004811115611b1157fe5b1480611b2c57506002835460ff166004811115611b2a57fe5b145b1515611b3757600080fd5b6003830154421015611b4857600080fd5b825460ff19166004908117845560025460018501546040517f5d0c812f000000000000000000000000000000000000000000000000000000008152600160a060020a0390921692635d0c812f92611ba092910161423a565b600060405180830381600087803b158015611bba57600080fd5b505af1158015611bce573d6000803e3d6000fd5b50505050600091505b6008830154821015611c905760088301805483908110611bf357fe5b60009182526020909120015460025460018501546040517f6eb528b5000000000000000000000000000000000000000000000000000000008152600160a060020a0393841694509290911691636eb528b591611c53918590600401614248565b600060405180830381600087803b158015611c6d57600080fd5b505af1158015611c81573d6000803e3d6000fd5b50505050816001019150611bd7565b60405184907fcbc308b5f91040d2659a5201858344b0b583cd2f9e18e8470c2fa052c5b21ff890600090a250505050565b60025460008381526006602052604080822060010154905160e160020a635ba430d9028152919283928692600160a060020a039092169163b74861b291611d0b919060040161423a565b600060405180830381600087803b158015611d2557600080fd5b505af1158015611d39573d6000803e3d6000fd5b505050506040513d6000823e601f3d908101601f19168201604052611d619190810190613f41565b6040015160200151600160a060020a03163314611d7d57600080fd5b600085815260066020526040902092506002835460ff166004811115611d9f57fe5b14611da957600080fd5b60038301544210611db957600080fd5b826007015483600601541480611de2575060008360060154118015611de2575042836005015411155b1515611ded57600080fd5b825460ff191660031783558351611e0d9060098501906020870190613598565b5060025460018401546040517f88044a7d000000000000000000000000000000000000000000000000000000008152600160a060020a03909216916388044a7d91611e5a9160040161423a565b600060405180830381600087803b158015611e7457600080fd5b505af1158015611e88573d6000803e3d6000fd5b50505050611e9585612d74565b60405185907f78ce8a8bc0fcb704e8ba3b3dbb36aa88002df8038128b4af2f27ef65db66504490611ec79087906142ee565b60405180910390a2600254600184015460405160e160020a635ba430d9028152600160a060020a039092169163b74861b291611f059160040161423a565b600060405180830381600087803b158015611f1f57600080fd5b505af1158015611f33573d6000803e3d6000fd5b505050506040513d6000823e601f3d908101601f19168201604052611f5b9190810190613f41565b60e001519150600160a060020a0382161561206257620186a05a11611f7f57600080fd5b81600160a060020a0316620186a08686604051602401611fa092919061428b565b60408051601f198184030181529181526020820180517bffffffffffffffffffffffffffffffffffffffffffffffffffffffff167f5dd8085500000000000000000000000000000000000000000000000000000000178152905182519091829180838360005b8381101561201e578181015183820152602001612006565b50505050905090810190601f16801561204b5780820380516001836020036101000a031916815260200191505b5091505060006040518083038160008787f1505050505b5050505050565b6001545b90565b60008181526006602052604090206060906003815460ff16600481111561209357fe5b1461209d57600080fd5b60098101805460408051602060026001851615610100026000190190941693909304601f810184900484028201840190925281815292918301828280156121255780601f106120fa57610100808354040283529160200191612125565b820191906000526020600020905b81548152906001019060200180831161210857829003601f168201915b5050505050915050919050565b600160a060020a031660009081526008602052604090205490565b600054600160a060020a031681565b6121646136c5565b6000838152600760209081526040808320600160a060020a038616845290915290819020815160c081019092528054829060ff1660038111156121a357fe5b60038111156121ae57fe5b815260018201546020820152600282015460408201526003820154600160a060020a031660608201526004820154608082015260059091015460a09091015290505b92915050565b600281565b60025460008381526006602052604080822060010154905160e160020a635ba430d902815291928392839283928892600160a060020a039091169163b74861b291612249919060040161423a565b600060405180830381600087803b15801561226357600080fd5b505af1158015612277573d6000803e3d6000fd5b505050506040513d6000823e601f3d908101601f1916820160405261229f9190810190613f41565b6040015160200151600160a060020a031633146122bb57600080fd5b600087815260066020526040902094506001855460ff1660048111156122dd57fe5b146122e757600080fd5b600385015442106122f757600080fd5b60009350600092505b60088501548310156123b3576008850180548490811061231c57fe5b6000918252602080832090910154898352600782526040808420600160a060020a03909216808552919092529120600101549092508614801561238f575060016000888152600760209081526040808320600160a060020a038716845290915290205460ff16600381111561238d57fe5b145b156123a8576123a584600163ffffffff612d6516565b93505b826001019250612300565b600084116123c057600080fd5b845460ff1916600290811786556004808701889055815460018801546040517fc8d967290000000000000000000000000000000000000000000000000000000081526124879442946117df9491936117cf93600160a060020a039093169263c8d967299261242f92910161423a565b60c060405180830381600087803b15801561244957600080fd5b505af115801561245d573d6000803e3d6000fd5b505050506040513d601f19601f820116820180604052506124819190810190613f23565b51611492565b6005860155600060068601556007850184905560405187907ff6d49bf3e05d33a4bc497d3c793fb5756388bb96b947cf51bb60aaecb0e022e3906124cc90899061423a565b60405180910390a250505050505050565b600054600160a060020a031633146124f457600080fd5b600160a060020a038116151561250957600080fd5b60008054604051600160a060020a03808516939216917f8be0079c531659141344cd1fd0a4f28419497f9722a3daafe3b4186f6b6457e091a360008054600160a060020a031916600160a060020a0392909216919091179055565b60025460008281526006602052604080822060010154905160e160020a635ba430d90281529192839283928692600160a060020a03169163b74861b2916125ad9160040161423a565b600060405180830381600087803b1580156125c757600080fd5b505af11580156125db573d6000803e3d6000fd5b505050506040513d6000823e601f3d908101601f191682016040526126039190810190613f41565b6040015160200151600160a060020a0316331461261f57600080fd5b600085815260066020526040902093506002845460ff16600481111561264157fe5b1461264b57600080fd5b6003840154421061265b57600080fd5b4284600501541115801561267157506006840154155b151561267c57600080fd5b600092505b6008840154831015612718576008840180548490811061269d57fe5b60009182526020808320909101546004870154888452600783526040808520600160a060020a03909316808652929093529190922060010154919350141561270d576000858152600760209081526040808320600160a060020a03861684529091529020805460ff191660031790555b826001019250612681565b835460ff19166001178455600060048501819055600585018190556007850181905560405186917f3afe0f24796ce653c6ab1f3e7aba5ce564eece5e82aee724aff28253e829f07b91a25050505050565b6000805b825181101561279e57612796838281518110151561278757fe5b90602001906020020151611aef565b60010161276d565b50600192915050565b6000828152600660209081526040808320600783528184203385529092529091206002825460ff1660048111156127da57fe5b146127e457600080fd5b600382015442106127f457600080fd5b6005820154421061280457600080fd5b6001815460ff16600381111561281657fe5b1461282057600080fd5b600482015460018201541461283457600080fd5b604080516020808201879052818301869052825180830384018152606090920192839052815191929182918401908083835b602083106128855780518252601f199092019160209182019101612866565b5181516020939093036101000a6000190180199091169216919091179052604051920182900390912060018501541492506128c291505057600080fd5b604080516c01000000000000000000000000330260208083019190915260348201879052605480830187905283518084039091018152607490920192839052815191929182918401908083835b6020831061292e5780518252601f19909201916020918201910161290f565b5181516020939093036101000a60001901801990911692169190911790526040519201829003909120600285015414925061296b91505057600080fd5b805460ff191660021781556006820154612986906001612d65565b6006830155604051339085907f4b1763d473ac8fa80b4432ba90047e1b92444d8fabc55e6a002d9b1a316d7959906129bf90879061423a565b60405180910390a350505050565b33600090815260096020526040812054600160a060020a03168015156129f257600080fd5b600260009054906101000a9004600160a060020a0316600160a060020a031663858fb57c3383600160a060020a031663e2d36ef56040518163ffffffff1660e060020a028152600401602060405180830381600087803b158015612a5557600080fd5b505af1158015612a69573d6000803e3d6000fd5b505050506040513d601f19601f82011682018060405250612a8d9190810190613f76565b6040518363ffffffff1660e060020a028152600401612aad929190614211565b600060405180830381600087803b158015612ac757600080fd5b505af1158015612adb573d6000803e3d6000fd5b5050336000818152600960205260408082208054600160a060020a031916905551919350600160a060020a03851692507f59c4939508149b103b5e3a2e3f385ff89014721ec611b843a954ba6b87e5fa1a91a3600191505b5090565b600080831515612b4a5760009150611ae8565b50828202828482811515612b5a57fe5b041461072057fe5b604080517ff8f9cbfae6cc78fbefe7cdc3a1793dfcf4f0e8bbd8cec470b6a28a7a5a3e1efd81527ff5ecf1b3e9debc68e1d9cfabc5997135bfb7a7a3938b7b606b5b4b3f2f1f0ffe60208201527ff6e4ed9ff2d6b458eadcdf97bd91692de2d4da8fd2d0ac50c6ae9a8272523616818301527fc8c0b887b0a8a4489c948c7f847c6125746c645c544c444038302820181008ff60608201527ff7cae577eec2a03cf3bad76fb589591debb2dd67e0aa9834bea6925f6a4a2e0e60808201527fe39ed557db96902cd38ed14fad815115c786af479b7e8324736353433727170760a08201527fc976c13bb96e881cb166a933a55e490d9d56952b8d4e801485467d236242260660c08201527f753a6d1b65325d0c552a4d1345224105391a310b29122104190a11030902010060e08201526101008082019092527f0100000000000000000000000000000000000000000000000000000000000000600170010000000000000000000000000000000068010000000000000000640100000000620100006010600460026000198c019081041790810417908104178881041790810417908104179081041790810417017e818283848586878898a8b8c8d8e8f929395969799a9b9d9e9faaeb6bedeeff0281900460ff0390910151047f8000000000000000000000000000000000000000000000000000000000000000909211020190565b60008282018381101561072057fe5b612d7c61366b565b612d84613634565b600083815260066020526040808220815161014081019092528054839283928392839283929091829060ff166004811115612dbb57fe5b6004811115612dc657fe5b8152600182015460208083019190915260028301546040808401919091526003840154606084015260048401546080840152600584015460a0840152600684015460c0840152600784015460e0840152600884018054825181850281018501909352808352610100909401939192909190830182828015612e7057602002820191906000526020600020905b8154600160a060020a03168152600190910190602001808311612e52575b505050918352505060098201805460408051602060026001851615610100026000190190941693909304601f8101849004840282018401909252818152938201939291830182828015612f045780601f10612ed957610100808354040283529160200191612f04565b820191906000526020600020905b815481529060010190602001808311612ee757829003601f168201915b50505091909252505060025460208301516040517fc8d96729000000000000000000000000000000000000000000000000000000008152939b50600160a060020a039091169263c8d967299250612f5e919060040161423a565b60c060405180830381600087803b158015612f7857600080fd5b505af1158015612f8c573d6000803e3d6000fd5b505050506040513d601f19601f82011682018060405250612fb09190810190613f23565b60025460208a015160405160e160020a635ba430d902815292995060009650600160a060020a039091169163b74861b291612fed9160040161423a565b600060405180830381600087803b15801561300757600080fd5b505af115801561301b573d6000803e3d6000fd5b505050506040513d6000823e601f3d908101601f191682016040526130439190810190613f41565b60400151604001519250600095505b876101000151518610156131195761010088015180518790811061307257fe5b602090810290910101519450600260008a8152600760209081526040808320600160a060020a038a16845290915290205460ff1660038111156130b157fe5b14156130f5576000898152600760209081526040808320600160a060020a03891684529091529020600501546130ee90859063ffffffff612d6516565b935061310e565b608087015161310b90849063ffffffff612d6516565b92505b856001019550613052565b6000841161312657600080fd5b61314e6131418860a0015160646134b890919063ffffffff16565b849063ffffffff6134ca16565b9150600095505b8761010001515186101561342d5761010088015180518790811061317557fe5b602090810290910101519450600260008a8152600760209081526040808320600160a060020a038a16845290915290205460ff1660038111156131b457fe5b141561330a576000898152600760209081526040808320600160a060020a03891684529091529020600501546131f29083908663ffffffff6134d416565b9050613204838263ffffffff6134b816565b60025460208a01516040517f83729251000000000000000000000000000000000000000000000000000000008152929550600160a060020a03909116916383729251916132579189908690600401614263565b600060405180830381600087803b15801561327157600080fd5b505af1158015613285573d6000803e3d6000fd5b5050505060018860c00151111561330557600160a060020a0385166000908152600860205260409020546132c090600163ffffffff612d6516565b600160a060020a0386166000818152600860205260408082209390935591518b927f9703f4589802246c80b822e63697180da799e363cd1b6fd9465a5e5574d5349291a35b613422565b60025460208901516040517f0d0c233c000000000000000000000000000000000000000000000000000000008152600160a060020a0390921691630d0c233c91613358918990600401614248565b600060405180830381600087803b15801561337257600080fd5b505af1158015613386573d6000803e3d6000fd5b505050600160a060020a0386166000908152600860205260409020546133dd91506133b890603263ffffffff6134f116565b600160a060020a0387166000908152600860205260409020549063ffffffff6134b816565b600160a060020a0386166000818152600860205260408082209390935591518b927ff868788948d55240774fdbad06555105ef20bbc70d1b7eccda982b65e11e79bb91a35b856001019550613155565b60025460208901516040517f4a8e362e000000000000000000000000000000000000000000000000000000008152600160a060020a0390921691634a8e362e9161347b9187906004016142ab565b600060405180830381600087803b15801561349557600080fd5b505af11580156134a9573d6000803e3d6000fd5b50505050505050505050505050565b6000828211156134c457fe5b50900390565b6000610720838360645b60006134e96134e38585612b37565b83613507565b949350505050565b60008183106135005781610720565b5090919050565b600080828481151561351557fe5b04949350505050565b6101e0604051908101604052806135336136fc565b81526020016135406136fc565b815260200161354d6136fc565b815260200160008152602001600081526020016000600160a060020a031681526020016000600160a060020a031681526020016000600160a060020a03168152602001606081525090565b828054600181600116156101000203166002900490600052602060002090601f016020900481019282601f106135d957805160ff1916838001178555613606565b82800160010185558215613606579182015b828111156136065782518255916020019190600101906135eb565b50612b3392915061371c565b6060604051908101604052806060815260200160608152602001600081525090565b60c0604051908101604052806000815260200160008152602001600081526020016000815260200160008152602001600081525090565b60408051610140810190915280600081526020016000801916815260200160008152602001600081526020016000801916815260200160008152602001600081526020016000815260200160608152602001606081525090565b6040805160c08101909152806000815260006020820181905260408201819052606082018190526080820181905260a09091015290565b604080516060810182526000808252602082018190529181019190915290565b61206d91905b80821115612b335760008155600101613722565b600061072082356143fa565b600061072082516143fa565b6000601f8201831361375f57600080fd5b813561377261376d826143a7565b614380565b9150818183526020840193506020810190508385602084028201111561379757600080fd5b60005b838110156137c357816137ad8882613849565b845250602092830192919091019060010161379a565b5050505092915050565b6000601f820183136137de57600080fd5b81356137ec61376d826143a7565b9150818183526020840193506020810190508385602084028201111561381157600080fd5b60005b838110156137c357816138278882613849565b8452506020928301929190910190600101613814565b60006107208251614406565b6000610720823561206d565b6000601f8201831361386657600080fd5b813561387461376d826143c8565b9150808252602083016020830185838301111561389057600080fd5b6118ba83828461444a565b60006107208235614429565b6000601f820183136138b857600080fd5b81516138c661376d826143c8565b915080825260208301602083018583830111156138e257600080fd5b6118ba838284614456565b6000604082840312156138ff57600080fd5b6139096040614380565b905060006139178484613b69565b825250602061392884848301613b69565b60208301525092915050565b600060c0828403121561394657600080fd5b61395060c0614380565b9050600061395e8484613b69565b825250602061396f84848301613b69565b602083015250604061398384828501613b69565b604083015250606061399784828501613b69565b60608301525060806139ab84828501613b69565b60808301525060a06139bf84828501613b69565b60a08301525092915050565b60006101e082840312156139de57600080fd5b6139e9610120614380565b905060006139f78484613abf565b8252506060613a0884848301613abf565b60208301525060c0613a1c84828501613abf565b604083015250610120613a3184828501613b69565b606083015250610140613a4684828501613b69565b608083015250610160613a5b84828501613742565b60a083015250610180613a7084828501613742565b60c0830152506101a0613a8584828501613742565b60e0830152506101c082015167ffffffffffffffff811115613aa657600080fd5b613ab2848285016138a7565b6101008301525092915050565b600060608284031215613ad157600080fd5b613adb6060614380565b90506000613ae98484613742565b8252506020613afa84848301613742565b6020830152506040613b0e84828501613b69565b60408301525092915050565b600060608284031215613b2c57600080fd5b613b366060614380565b90506000613b448484613b75565b8252506020613b5584848301613849565b6020830152506040613b0e84828501613849565b6000610720825161206d565b60006107208235614423565b600060208284031215613b9357600080fd5b60006134e98484613736565b600060208284031215613bb157600080fd5b60006134e98484613742565b600080600060608486031215613bd257600080fd5b6000613bde8686613736565b9350506020613bef86828701613736565b9250506040613c0086828701613736565b9150509250925092565b60008060008060808587031215613c2057600080fd5b6000613c2c8787613736565b9450506020613c3d87828801613736565b9350506040613c4e87828801613736565b9250506060613c5f87828801613736565b91505092959194509250565b600060208284031215613c7d57600080fd5b813567ffffffffffffffff811115613c9457600080fd5b6134e98482850161374e565b60008060408385031215613cb357600080fd5b823567ffffffffffffffff811115613cca57600080fd5b613cd68582860161374e565b925050602083013567ffffffffffffffff811115613cf357600080fd5b613cff858286016137cd565b9150509250929050565b600060208284031215613d1b57600080fd5b60006134e9848461383d565b600060208284031215613d3957600080fd5b60006134e98484613849565b60008060408385031215613d5857600080fd5b6000613d648585613849565b9250506020613cff85828601613736565b60008060408385031215613d8857600080fd5b6000613d948585613849565b9250506020613cff85828601613849565b6000806000806000806101408789031215613dbf57600080fd5b6000613dcb8989613849565b9650506020613ddc89828a01613849565b9550506040613ded89828a01613849565b9450506060613dfe89828a01613736565b9350506080613e0f89828a01613b1a565b92505060e0613e2089828a01613b1a565b9150509295509295509295565b60008060408385031215613e4057600080fd5b6000613e4c8585613849565b925050602083013567ffffffffffffffff811115613e6957600080fd5b613cff85828601613855565b600060208284031215613e8757600080fd5b60006134e9848461389b565b600080600060608486031215613ea857600080fd5b833567ffffffffffffffff811115613ebf57600080fd5b613ecb86828701613855565b935050602084013567ffffffffffffffff811115613ee857600080fd5b613ef486828701613855565b9250506040613c0086828701613849565b600060408284031215613f1757600080fd5b60006134e984846138ed565b600060c08284031215613f3557600080fd5b60006134e98484613934565b600060208284031215613f5357600080fd5b815167ffffffffffffffff811115613f6a57600080fd5b6134e9848285016139cb565b600060208284031215613f8857600080fd5b60006134e98484613b69565b613f9d816143fa565b82525050565b6000613fae826143f6565b808452602084019350613fc0836143f0565b60005b82811015613ff057613fd6868351613f94565b613fdf826143f0565b602096909601959150600101613fc3565b5093949350505050565b613f9d81614406565b613f9d8161206d565b6000614017826143f6565b80845261402b816020860160208601614456565b61403481614482565b9093016020019392505050565b613f9d81614429565b613f9d81614434565b613f9d8161443f565b8051606080845260009190840190614074828261400c565b9150506020830151848203602086015261408e828261400c565b91505060408301516140a36040860182614003565b509392505050565b805160c08301906140bc848261404a565b5060208201516140cf6020850182614003565b5060408201516140e26040850182614003565b5060608201516140f56060850182613f94565b5060808201516141086080850182614003565b5060a082015161411b60a0850182614003565b50505050565b80516000906101408401906141368582614053565b5060208301516141496020860182614003565b50604083015161415c6040860182614003565b50606083015161416f6060860182614003565b5060808301516141826080860182614003565b5060a083015161419560a0860182614003565b5060c08301516141a860c0860182614003565b5060e08301516141bb60e0860182614003565b506101008301518482036101008601526141d58282613fa3565b9150506101208301518482036101208601526141f1828261400c565b95945050505050565b613f9d81614423565b602081016121f08284613f94565b6040810161421f8285613f94565b6107206020830184614003565b602081016121f08284613ffa565b602081016121f08284614003565b604081016142568285614003565b6107206020830184613f94565b606081016142718286614003565b61427e6020830185613f94565b6134e96040830184614003565b604081016142998285614003565b81810360208301526134e9818461400c565b6040810161421f8285614003565b608081016142c78287614003565b6142d460208301866141fa565b6142e16040830185614003565b6141f16060830184614003565b60208082528101610720818461400c565b602081016121f08284614041565b60208082528101610720818461405c565b60c081016121f082846140ab565b602080825281016107208184614121565b6080810161434b8287614003565b818103602083015261435d818661400c565b90508181036040830152614371818561400c565b90506141f16060830184614003565b60405181810167ffffffffffffffff8111828210171561439f57600080fd5b604052919050565b600067ffffffffffffffff8211156143be57600080fd5b5060209081020190565b600067ffffffffffffffff8211156143df57600080fd5b506020601f91909101601f19160190565b60200190565b5190565b600160a060020a031690565b151590565b600060048210612b3357fe5b600060058210612b3357fe5b60ff1690565b60006121f0826143fa565b60006121f08261440b565b60006121f082614417565b82818337506000910152565b60005b83811015614471578181015183820152602001614459565b8381111561411b5750506000910152565b601f01601f1916905600a265627a7a7230582049ba575719d22113baef6dcc786acabf674c2e76f69711f29c181c06fafdf71b6c6578706572696d656e74616cf50037",
  "source": "pragma solidity ^0.4.25;\npragma experimental ABIEncoderV2;\n\nimport \"./interfaces/EIP1154.sol\";\nimport \"./libs/IexecODBLibCore.sol\";\nimport \"./libs/IexecODBLibOrders.sol\";\nimport \"./libs/SafeMathOZ.sol\";\nimport \"./registries/RegistryBase.sol\";\n\nimport \"./CategoryManager.sol\";\nimport \"./IexecClerk.sol\";\n\ncontract IexecHub is CategoryManager, Oracle\n{\n\tusing SafeMathOZ for uint256;\n\n\t/***************************************************************************\n\t *                                Constants                                *\n\t ***************************************************************************/\n\tuint256 public constant SCORE_UNITARY_SLASH      = 50;\n\tuint256 public constant CONSENSUS_DURATION_RATIO = 10;\n\tuint256 public constant REVEAL_DURATION_RATIO    = 2;\n\n\t/***************************************************************************\n\t *                             Other contracts                             *\n\t ***************************************************************************/\n\tIexecClerk   public iexecclerk;\n\tRegistryBase public dappregistry;\n\tRegistryBase public dataregistry;\n\tRegistryBase public poolregistry;\n\t/* DappRegistry dappregistry; */\n\t/* DataRegistry dataregistry; */\n\t/* PoolRegistry poolregistry; */\n\n\t/***************************************************************************\n\t *                          Consensuses & Workers                          *\n\t ***************************************************************************/\n\tmapping(bytes32 =>                    IexecODBLibCore.Task         ) m_tasks;\n\tmapping(bytes32 => mapping(address => IexecODBLibCore.Contribution)) m_contributions;\n\tmapping(address =>                    uint256                      ) m_workerScores;\n\tmapping(address =>                    address                      ) m_workerAffectations;\n\n\t/***************************************************************************\n\t *                                 Events                                  *\n\t ***************************************************************************/\n\tevent TaskInitialize(bytes32 indexed taskid, address indexed pool                     );\n\tevent TaskContribute(bytes32 indexed taskid, address indexed worker, bytes32 hash     );\n\tevent TaskConsensus (bytes32 indexed taskid,                         bytes32 consensus);\n\tevent TaskReveal    (bytes32 indexed taskid, address indexed worker, bytes32 digest   );\n\tevent TaskReopen    (bytes32 indexed taskid                                           );\n\tevent TaskFinalize  (bytes32 indexed taskid,                         bytes   results  );\n\tevent TaskClaimed   (bytes32 indexed taskid                                           );\n\n\tevent AccurateContribution(address indexed worker, bytes32 indexed taskid);\n\tevent FaultyContribution  (address indexed worker, bytes32 indexed taskid);\n\n\tevent WorkerSubscription  (address indexed pool, address indexed worker);\n\tevent WorkerUnsubscription(address indexed pool, address indexed worker);\n\tevent WorkerEviction      (address indexed pool, address indexed worker);\n\n\t/***************************************************************************\n\t *                                Modifiers                                *\n\t ***************************************************************************/\n\tmodifier onlyScheduler(bytes32 _taskid)\n\t{\n\t\trequire(msg.sender == iexecclerk.viewDeal(m_tasks[_taskid].dealid).pool.owner);\n\t\t_;\n\t}\n\n\t/***************************************************************************\n\t *                               Constructor                               *\n\t ***************************************************************************/\n\tconstructor()\n\tpublic\n\t{\n\t}\n\n\tfunction attachContracts(\n\t\taddress _iexecclerkAddress,\n\t\taddress _dappRegistryAddress,\n\t\taddress _dataRegistryAddress,\n\t\taddress _poolRegistryAddress)\n\tpublic onlyOwner\n\t{\n\t\trequire(address(iexecclerk) == address(0));\n\t\tiexecclerk   = IexecClerk  (_iexecclerkAddress  );\n\t\tdappregistry = RegistryBase(_dappRegistryAddress);\n\t\tdataregistry = RegistryBase(_dataRegistryAddress);\n\t\tpoolregistry = RegistryBase(_poolRegistryAddress);\n\t}\n\n\t/***************************************************************************\n\t *                                Accessors                                *\n\t ***************************************************************************/\n\tfunction viewTask(bytes32 _taskid)\n\tpublic view returns (IexecODBLibCore.Task)\n\t{\n\t\treturn m_tasks[_taskid];\n\t}\n\n\tfunction viewContribution(bytes32 _taskid, address _worker)\n\tpublic view returns (IexecODBLibCore.Contribution)\n\t{\n\t\treturn m_contributions[_taskid][_worker];\n\t}\n\n\tfunction viewScore(address _worker)\n\tpublic view returns (uint256)\n\t{\n\t\treturn m_workerScores[_worker];\n\t}\n\n\tfunction viewAffectation(address _worker)\n\tpublic view returns (Pool)\n\t{\n\t\treturn Pool(m_workerAffectations[_worker]);\n\t}\n\n\tfunction checkResources(address dapp, address data, address pool)\n\tpublic view returns (bool)\n\t{\n\t\trequire(                      dappregistry.isRegistered(dapp));\n\t\trequire(data == address(0) || dataregistry.isRegistered(data));\n\t\trequire(                      poolregistry.isRegistered(pool));\n\t\treturn true;\n\t}\n\n\t/***************************************************************************\n\t *                         EIP 1154 PULL INTERFACE                         *\n\t ***************************************************************************/\n\tfunction resultFor(bytes32 id) external view returns (bytes result)\n\t{\n\t\tIexecODBLibCore.Task storage task = m_tasks[id];\n\t\trequire(task.status == IexecODBLibCore.TaskStatusEnum.COMPLETED);\n\t\treturn task.results;\n\t}\n\n\t/***************************************************************************\n\t *                            Consensus methods                            *\n\t ***************************************************************************/\n\tfunction initialize(bytes32 _dealid, uint256 idx)\n\tpublic returns (bytes32)\n\t{\n\t\tIexecODBLibCore.Config memory config = iexecclerk.viewConfig(_dealid);\n\n\t\trequire(idx >= config.botFirst                    );\n\t\trequire(idx <  config.botFirst.add(config.botSize));\n\n\t\tbytes32 taskid = keccak256(abi.encodePacked(_dealid, idx));\n\n\t\tIexecODBLibCore.Task storage task = m_tasks[taskid];\n\t\trequire(task.status == IexecODBLibCore.TaskStatusEnum.UNSET);\n\t\ttask.status            = IexecODBLibCore.TaskStatusEnum.ACTIVE;\n\t\ttask.dealid            = _dealid;\n\t\ttask.idx               = idx;\n\t\ttask.consensusDeadline = viewCategory(config.category).workClockTimeRef\n\t\t                         .mul(CONSENSUS_DURATION_RATIO)\n\t\t                         .add(config.startTime);\n\n\t\temit TaskInitialize(taskid, iexecclerk.viewDeal(_dealid).pool.pointer);\n\n\t\treturn taskid;\n\t}\n\n\tfunction contribute(\n\t\tbytes32                     _taskid,\n\t\tbytes32                     _resultHash,\n\t\tbytes32                     _resultSeal,\n\t\taddress                     _enclaveChallenge,\n\t\tIexecODBLibOrders.signature _enclaveSign,\n\t\tIexecODBLibOrders.signature _poolSign)\n\tpublic\n\t{\n\t\tIexecODBLibCore.Task         storage task         = m_tasks[_taskid];\n\t\tIexecODBLibCore.Contribution storage contribution = m_contributions[_taskid][msg.sender];\n\t\tIexecODBLibCore.Deal         memory  deal         = iexecclerk.viewDeal(task.dealid);\n\n\t\trequire(task.status            == IexecODBLibCore.TaskStatusEnum.ACTIVE       );\n\t\trequire(task.consensusDeadline >  now                                         );\n\t\trequire(contribution.status    == IexecODBLibCore.ContributionStatusEnum.UNSET);\n\n\t\t// Check that the worker + taskid + enclave combo is authorized to contribute (scheduler signature)\n\t\t// Skip check if authorized?\n\t\trequire(deal.pool.owner == ecrecover(\n\t\t\tkeccak256(abi.encodePacked(\n\t\t\t\t\"\\x19Ethereum Signed Message:\\n32\",\n\t\t\t\tkeccak256(abi.encodePacked(\n\t\t\t\t\tmsg.sender,\n\t\t\t\t\t_taskid,\n\t\t\t\t\t_enclaveChallenge\n\t\t\t\t))\n\t\t\t)),\n\t\t\t_poolSign.v,\n\t\t\t_poolSign.r,\n\t\t\t_poolSign.s)\n\t\t);\n\n\t\t// worker must be subscribed to the pool, keep?\n\t\trequire(m_workerAffectations[msg.sender] == deal.pool.pointer);\n\n\t\t// Not needed\n\t\t/* require(_resultHash != 0x0); */\n\t\t/* require(_resultSeal != 0x0); */\n\n\t\t// need enclave challenge if tag is set\n\t\trequire(_enclaveChallenge != address(0) || deal.tag & 0x1 == 0);\n\n\t\t// Check enclave signature\n\t\tif (_enclaveChallenge != address(0))\n\t\t{\n\t\t\trequire(_enclaveChallenge == ecrecover(\n\t\t\t\tkeccak256(abi.encodePacked(\n\t\t\t\t\t\"\\x19Ethereum Signed Message:\\n32\",\n\t\t\t\t\tkeccak256(abi.encodePacked(\n\t\t\t\t\t_resultHash,\n\t\t\t\t\t_resultSeal\n\t\t\t\t\t))\n\t\t\t\t)),\n\t\t\t\t_enclaveSign.v,\n\t\t\t\t_enclaveSign.r,\n\t\t\t\t_enclaveSign.s)\n\t\t\t);\n\t\t}\n\n\t\t// update contribution entry\n\t\tcontribution.status           = IexecODBLibCore.ContributionStatusEnum.CONTRIBUTED;\n\t\tcontribution.enclaveChallenge = _enclaveChallenge;\n\t\tcontribution.resultHash       = _resultHash;\n\t\tcontribution.resultSeal       = _resultSeal;\n\t\tcontribution.score            = m_workerScores[msg.sender].mul(contribution.enclaveChallenge != address(0) ? 3 : 1);\n\t\tcontribution.weight           = 1 + contribution.score.log();\n\t\ttask.contributors.push(msg.sender);\n\n\t\tiexecclerk.lockContribution(task.dealid, msg.sender);\n\n\t\temit TaskContribute(_taskid, msg.sender, _resultHash);\n\t}\n\n\tfunction consensus(\n\t\tbytes32 _taskid,\n\t\tbytes32 _consensus)\n\tpublic onlyScheduler(_taskid)\n\t{\n\t\tIexecODBLibCore.Task storage task = m_tasks[_taskid];\n\t\trequire(task.status            == IexecODBLibCore.TaskStatusEnum.ACTIVE);\n\t\trequire(task.consensusDeadline >  now                                  );\n\n\t\tuint256 winnerCounter = 0;\n\t\tfor (uint256 i = 0; i < task.contributors.length; ++i)\n\t\t{\n\t\t\taddress w = task.contributors[i];\n\t\t\tif (\n\t\t\t\tm_contributions[_taskid][w].resultHash == _consensus\n\t\t\t\t&&\n\t\t\t\tm_contributions[_taskid][w].status == IexecODBLibCore.ContributionStatusEnum.CONTRIBUTED // REJECTED contribution must not be count\n\t\t\t)\n\t\t\t{\n\t\t\t\twinnerCounter = winnerCounter.add(1);\n\t\t\t}\n\t\t}\n\t\trequire(winnerCounter > 0); // you cannot revealConsensus if no worker has contributed to this hash\n\n\t\ttask.status         = IexecODBLibCore.TaskStatusEnum.REVEALING;\n\t\ttask.consensusValue = _consensus;\n\t\ttask.revealDeadline = viewCategory(iexecclerk.viewConfig(task.dealid).category).workClockTimeRef\n\t\t                           .mul(REVEAL_DURATION_RATIO)\n\t\t                           .add(now);\n\t\ttask.revealCounter  = 0;\n\t\ttask.winnerCounter  = winnerCounter;\n\n\t\temit TaskConsensus(_taskid, _consensus);\n\t}\n\n\tfunction reveal(\n\t\tbytes32 _taskid,\n\t\tbytes32 _resultDigest)\n\tpublic // worker\n\t{\n\t\tIexecODBLibCore.Task         storage task         = m_tasks[_taskid];\n\t\tIexecODBLibCore.Contribution storage contribution = m_contributions[_taskid][msg.sender];\n\t\trequire(task.status             == IexecODBLibCore.TaskStatusEnum.REVEALING                       );\n\t\trequire(task.consensusDeadline  >  now                                                            );\n\t\trequire(task.revealDeadline     >  now                                                            );\n\t\trequire(contribution.status     == IexecODBLibCore.ContributionStatusEnum.CONTRIBUTED             );\n\t\trequire(contribution.resultHash == task.consensusValue                                            );\n\t\trequire(contribution.resultHash == keccak256(abi.encodePacked(            _taskid, _resultDigest)));\n\t\trequire(contribution.resultSeal == keccak256(abi.encodePacked(msg.sender, _taskid, _resultDigest)));\n\n\t\tcontribution.status = IexecODBLibCore.ContributionStatusEnum.PROVED;\n\t\ttask.revealCounter  = task.revealCounter.add(1);\n\n\t\temit TaskReveal(_taskid, msg.sender, _resultDigest);\n\t}\n\n\tfunction reopen(\n\t\tbytes32 _taskid)\n\tpublic onlyScheduler(_taskid)\n\t{\n\t\tIexecODBLibCore.Task storage task = m_tasks[_taskid];\n\t\trequire(task.status            == IexecODBLibCore.TaskStatusEnum.REVEALING);\n\t\trequire(task.consensusDeadline >  now                                     );\n\t\trequire(task.revealDeadline    <= now\n\t\t     && task.revealCounter     == 0                                       );\n\n\t\tfor (uint256 i = 0; i < task.contributors.length; ++i)\n\t\t{\n\t\t\taddress worker = task.contributors[i];\n\t\t\tif (m_contributions[_taskid][worker].resultHash == task.consensusValue)\n\t\t\t{\n\t\t\t\tm_contributions[_taskid][worker].status = IexecODBLibCore.ContributionStatusEnum.REJECTED;\n\t\t\t}\n\t\t}\n\n\t\ttask.status         = IexecODBLibCore.TaskStatusEnum.ACTIVE;\n\t\ttask.consensusValue = 0x0;\n\t\ttask.revealDeadline = 0;\n\t\ttask.winnerCounter  = 0;\n\n\t\temit TaskReopen(_taskid);\n\t}\n\n\tfunction finalize(\n\t\tbytes32 _taskid,\n\t\tbytes   _results)\n\tpublic onlyScheduler(_taskid)\n\t{\n\t\tIexecODBLibCore.Task storage task = m_tasks[_taskid];\n\t\trequire(task.status            == IexecODBLibCore.TaskStatusEnum.REVEALING);\n\t\trequire(task.consensusDeadline >  now                                     );\n\t\trequire(task.revealCounter     == task.winnerCounter\n\t\t    || (task.revealCounter     >  0  && task.revealDeadline <= now)       );\n\n\t\ttask.status  = IexecODBLibCore.TaskStatusEnum.COMPLETED;\n\t\ttask.results = _results;\n\n\t\t/**\n\t\t * Stake and reward management\n\t\t */\n\t\tiexecclerk.successWork(task.dealid);\n\t\t__distributeRewards(_taskid);\n\n\t\t/**\n\t\t * Event\n\t\t */\n\t\temit TaskFinalize(_taskid, _results);\n\n\t\t/**\n\t\t * Callback for smartcontracts using EIP1154\n\t\t */\n\t\taddress callbackTarget = iexecclerk.viewDeal(task.dealid).callback;\n\t\tif (callbackTarget != address(0))\n\t\t{\n\t\t\t/**\n\t\t\t * Call does not revert if the target smart contract is incompatible or reverts\n\t\t\t *\n\t\t\t * ATTENTION!\n\t\t\t * This call is dangerous and target smart contract can charge the stack.\n\t\t\t * Assume invalid state after the call.\n\t\t\t * See: https://solidity.readthedocs.io/en/develop/types.html#members-of-addresses\n\t\t\t *\n\t\t\t * TODO: gas provided?\n\t\t\t */\n\t\t\trequire(gasleft() > 100000);\n\t\t\tcallbackTarget.call.gas(100000)(abi.encodeWithSignature(\n\t\t\t\t\"receiveResult(bytes32,bytes)\",\n\t\t\t\t_taskid,\n\t\t\t\t_results\n\t\t\t));\n\t\t}\n\t}\n\n\tfunction claim(\n\t\tbytes32 _taskid)\n\tpublic\n\t{\n\t\tIexecODBLibCore.Task storage task = m_tasks[_taskid];\n\t\trequire(task.status == IexecODBLibCore.TaskStatusEnum.ACTIVE\n\t\t     || task.status == IexecODBLibCore.TaskStatusEnum.REVEALING);\n\t\trequire(task.consensusDeadline <= now                          );\n\n\t\ttask.status = IexecODBLibCore.TaskStatusEnum.FAILLED;\n\n\t\t/**\n\t\t * Stake management\n\t\t */\n\t\tiexecclerk.failedWork(task.dealid);\n\t\tfor (uint256 i = 0; i < task.contributors.length; ++i)\n\t\t{\n\t\t\taddress worker = task.contributors[i];\n\t\t\tiexecclerk.unlockContribution(task.dealid, worker);\n\t\t}\n\n\t\temit TaskClaimed(_taskid);\n\t}\n\n\tfunction __distributeRewards(bytes32 _taskid)\n\tprivate\n\t{\n\t\tIexecODBLibCore.Task   memory task   = m_tasks[_taskid];\n\t\tIexecODBLibCore.Config memory config = iexecclerk.viewConfig(task.dealid);\n\n\t\tuint256 i;\n\t\taddress worker;\n\n\t\tuint256 totalWeight = 0;\n\t\tuint256 totalReward = iexecclerk.viewDeal(task.dealid).pool.price;\n\n\t\tfor (i = 0; i < task.contributors.length; ++i)\n\t\t{\n\t\t\tworker = task.contributors[i];\n\t\t\tif (m_contributions[_taskid][worker].status == IexecODBLibCore.ContributionStatusEnum.PROVED)\n\t\t\t{\n\t\t\t\ttotalWeight = totalWeight.add(m_contributions[_taskid][worker].weight);\n\t\t\t}\n\t\t\telse // ContributionStatusEnum.REJECT or ContributionStatusEnum.CONTRIBUTED (not revealed)\n\t\t\t{\n\t\t\t\ttotalReward = totalReward.add(config.workerStake);\n\t\t\t}\n\t\t}\n\t\trequire(totalWeight > 0);\n\n\t\t// compute how much is going to the workers\n\t\tuint256 workersReward = totalReward.percentage(uint256(100).sub(config.schedulerRewardRatio));\n\n\t\tfor (i = 0; i < task.contributors.length; ++i)\n\t\t{\n\t\t\tworker = task.contributors[i];\n\t\t\tif (m_contributions[_taskid][worker].status == IexecODBLibCore.ContributionStatusEnum.PROVED)\n\t\t\t{\n\t\t\t\tuint256 workerReward = workersReward.mulByFraction(m_contributions[_taskid][worker].weight, totalWeight);\n\t\t\t\ttotalReward          = totalReward.sub(workerReward);\n\n\t\t\t\tiexecclerk.unlockAndRewardForContribution(task.dealid, worker, workerReward);\n\t\t\t\t// Only reward if replication happened (revealCounter vs winnerCounter vs contributions.length)\n\t\t\t\tif (task.revealCounter > 1)\n\t\t\t\t{\n\t\t\t\t\tm_workerScores[worker] = m_workerScores[worker].add(1);\n\t\t\t\t\temit AccurateContribution(worker, _taskid);\n\t\t\t\t}\n\t\t\t}\n\t\t\telse // WorkStatusEnum.POCO_REJECT or ContributionStatusEnum.CONTRIBUTED (not revealed)\n\t\t\t{\n\t\t\t\t// No Reward\n\t\t\t\tiexecclerk.seizeContribution(task.dealid, worker);\n\t\t\t\t// Always punish bad contributors\n\t\t\t\t{\n\t\t\t\t\tm_workerScores[worker] = m_workerScores[worker].sub(m_workerScores[worker].min(SCORE_UNITARY_SLASH));\n\t\t\t\t\temit FaultyContribution(worker, _taskid);\n\t\t\t\t}\n\t\t\t}\n\t\t}\n\t\t// totalReward now contains the scheduler share\n\t\tiexecclerk.rewardForScheduling(task.dealid, totalReward);\n\t}\n\n\tfunction initializeArray(\n\t\tbytes32[] _dealid,\n\t\tuint256[] _idx)\n\tpublic returns (bool)\n\t{\n\t\trequire(_dealid.length == _idx.length);\n\t\tfor (uint i = 0; i < _dealid.length; ++i)\n\t\t{\n\t\t\tinitialize(_dealid[i], _idx[i]);\n\t\t}\n\t\treturn true;\n\t}\n\n\tfunction claimArray(\n\t\tbytes32[] _taskid)\n\tpublic returns (bool)\n\t{\n\t\tfor (uint i = 0; i < _taskid.length; ++i)\n\t\t{\n\t\t\tclaim(_taskid[i]);\n\t\t}\n\t\treturn true;\n\t}\n\n\t/***************************************************************************\n\t *                       Worker affectation methods                        *\n\t ***************************************************************************/\n\tfunction subscribe(Pool _pool)\n\tpublic returns (bool)\n\t{\n\t\t// check pools validity\n\t\trequire(poolregistry.isRegistered(_pool));\n\n\t\t// check worker is not previously affected: AUTO unsubscribe ???\n\t\trequire(m_workerAffectations[msg.sender] == address(0));\n\n\t\t// Lock stake & check funds/reputation\n\t\tiexecclerk.lockSubscription(msg.sender, _pool.m_subscriptionLockStakePolicy());\n\t\trequire(iexecclerk.viewAccount(msg.sender).stake >= _pool.m_subscriptionMinimumStakePolicy());\n\t\trequire(m_workerScores[msg.sender]               >= _pool.m_subscriptionMinimumScorePolicy());\n\n\t\t// update affectation\n\t\tm_workerAffectations[msg.sender] = address(_pool);\n\n\t\temit WorkerSubscription(address(_pool), msg.sender);\n\t\treturn true;\n\t}\n\n\tfunction unsubscribe()\n\tpublic returns (bool)\n\t{\n\t\t// check affectation\n\t\tPool pool = Pool(m_workerAffectations[msg.sender]);\n\t\trequire(address(pool) != address(0));\n\n\t\t// Unlock stake\n\t\tiexecclerk.unlockSubscription(msg.sender, pool.m_subscriptionLockStakePolicy());\n\n\t\t// update affectation\n\t\tm_workerAffectations[msg.sender] = address(0);\n\n\t\temit WorkerUnsubscription(address(pool), msg.sender);\n\t\treturn true;\n\t}\n\n\tfunction evict(address _worker)\n\tpublic returns (bool)\n\t{\n\t\t// check affectation & authorization\n\t\tPool pool = Pool(m_workerAffectations[_worker]);\n\t\trequire(address(pool)  != address(0));\n\t\trequire(pool.m_owner() == msg.sender);\n\n\t\t// Unlock stake\n\t\tiexecclerk.unlockSubscription(_worker, pool.m_subscriptionLockStakePolicy());\n\n\t\t// update affectation\n\t\tm_workerAffectations[_worker] = address(0);\n\n\t\temit WorkerEviction(address(pool), _worker);\n\t\treturn true;\n\t}\n}\n",
  "sourcePath": "/home/amxx/Work/iExec/code/PoCo-dev/contracts/IexecHub.sol",
  "compiler": {
    "name": "solc",
    "version": "0.4.25+commit.59dbf8f1.Emscripten.clang"
  },
  "schemaVersion": "3.0.0-beta.1",
  "updatedAt": "2018-11-16T10:57:53.996Z"
}