{
  "contractName": "Migrations",
  "abi": [
    {
      "constant": true,
      "inputs": [],
      "name": "owner",
      "outputs": [
        {
          "name": "",
          "type": "address"
        }
      ],
      "payable": false,
      "stateMutability": "view",
      "type": "function"
    },
    {
      "constant": true,
      "inputs": [],
      "name": "lastCompletedMigration",
      "outputs": [
        {
          "name": "",
          "type": "uint256"
        }
      ],
      "payable": false,
      "stateMutability": "view",
      "type": "function"
    },
    {
      "inputs": [],
      "payable": false,
      "stateMutability": "nonpayable",
      "type": "constructor"
    },
    {
      "constant": false,
      "inputs": [
        {
          "name": "completed",
          "type": "uint256"
        }
      ],
      "name": "setCompleted",
      "outputs": [],
      "payable": false,
      "stateMutability": "nonpayable",
      "type": "function"
    },
    {
      "constant": false,
      "inputs": [
        {
          "name": "newAddress",
          "type": "address"
        }
      ],
      "name": "upgrade",
      "outputs": [],
      "payable": false,
      "stateMutability": "nonpayable",
      "type": "function"
    },
    {
      "constant": false,
      "inputs": [
        {
          "name": "newOwner",
          "type": "address"
        }
      ],
      "name": "transferOwnership",
      "outputs": [],
      "payable": false,
      "stateMutability": "nonpayable",
      "type": "function"
    }
  ],
  "bytecode": "0x608060405234801561001057600080fd5b5060008054600160a060020a031916331790556102a6806100326000396000f3fe60806040526004361061006c5763ffffffff7c01000000000000000000000000000000000000000000000000000000006000350416630900f01081146100715780638da5cb5b146100a6578063f2fde38b146100d7578063fbdbad3c1461010a578063fdacd57614610131575b600080fd5b34801561007d57600080fd5b506100a46004803603602081101561009457600080fd5b5035600160a060020a031661015b565b005b3480156100b257600080fd5b506100bb6101f7565b60408051600160a060020a039092168252519081900360200190f35b3480156100e357600080fd5b506100a4600480360360208110156100fa57600080fd5b5035600160a060020a0316610206565b34801561011657600080fd5b5061011f610258565b60408051918252519081900360200190f35b34801561013d57600080fd5b506100a46004803603602081101561015457600080fd5b503561025e565b600054600160a060020a0316331461017257600080fd5b600081905080600160a060020a031663fdacd5766001546040518263ffffffff167c010000000000000000000000000000000000000000000000000000000002815260040180828152602001915050600060405180830381600087803b1580156101db57600080fd5b505af11580156101ef573d6000803e3d6000fd5b505050505050565b600054600160a060020a031681565b600054600160a060020a0316331461021d57600080fd5b600160a060020a03811615610255576000805473ffffffffffffffffffffffffffffffffffffffff1916600160a060020a0383161790555b50565b60015481565b600054600160a060020a0316331461027557600080fd5b60015556fea165627a7a723058206e4bb9a864702882c0f82ac899c31cb8f973a208c29c9a18bc3196d0e724a76a0029",
  "source": "pragma solidity ^0.5.0;\n\nimport \"./Ownable.sol\";\n\ncontract Migrations\n{\n\taddress public owner;\n\tuint256 public lastCompletedMigration;\n\n\tmodifier onlyOwner() {\n\t\trequire (msg.sender == owner);\n\t\t_;\n\t}\n\n\tconstructor() public {\n\t\towner = msg.sender;\n\t}\n\t\n\tfunction setCompleted(uint completed) public onlyOwner\n\t{\n\t\tlastCompletedMigration = completed;\n\t}\n\n\tfunction upgrade(address newAddress) public onlyOwner\n\t{\n\t\tMigrations upgraded = Migrations(newAddress);\n\t\tupgraded.setCompleted(lastCompletedMigration);\n\t}\n\n\tfunction transferOwnership(address newOwner) public onlyOwner {\n\t\tif (newOwner != address(0)) owner = newOwner;\n\t}\n}\n",
  "sourcePath": "/home/amxx/Work/iExec/code/PoCo/contracts/tools/Migrations.sol",
  "compiler": {
    "name": "solc",
    "version": "0.5.0+commit.1d4f565a.Emscripten.clang"
  },
  "schemaVersion": "3.0.1",
  "updatedAt": "2019-01-25T13:16:50.085Z",
  "devdoc": {
    "methods": {}
  },
  "userdoc": {
    "methods": {}
  }
}