{
  "contractName": "OwnableMutable",
  "abi": [
    {
      "constant": true,
      "inputs": [],
      "name": "m_owner",
      "outputs": [
        {
          "name": "",
          "type": "address"
        }
      ],
      "payable": false,
      "stateMutability": "view",
      "type": "function"
    },
    {
      "inputs": [],
      "payable": false,
      "stateMutability": "nonpayable",
      "type": "constructor"
    },
    {
      "anonymous": false,
      "inputs": [
        {
          "indexed": false,
          "name": "previousOwner",
          "type": "address"
        },
        {
          "indexed": false,
          "name": "newOwner",
          "type": "address"
        }
      ],
      "name": "OwnershipTransferred",
      "type": "event"
    },
    {
      "constant": false,
      "inputs": [
        {
          "name": "_newOwner",
          "type": "address"
        }
      ],
      "name": "transferOwnership",
      "outputs": [],
      "payable": false,
      "stateMutability": "nonpayable",
      "type": "function"
    }
  ],
  "bytecode": "0x608060405234801561001057600080fd5b5060008054600160a060020a03191633179055610194806100326000396000f3fe60806040526004361061004b5763ffffffff7c0100000000000000000000000000000000000000000000000000000000600035041663deff41c18114610050578063f2fde38b14610081575b600080fd5b34801561005c57600080fd5b506100656100b6565b60408051600160a060020a039092168252519081900360200190f35b34801561008d57600080fd5b506100b4600480360360208110156100a457600080fd5b5035600160a060020a03166100c5565b005b600054600160a060020a031681565b600054600160a060020a031633146100dc57600080fd5b600160a060020a03811615156100f157600080fd5b60005460408051600160a060020a039283168152918316602083015280517f8be0079c531659141344cd1fd0a4f28419497f9722a3daafe3b4186f6b6457e09281900390910190a16000805473ffffffffffffffffffffffffffffffffffffffff1916600160a060020a039290921691909117905556fea165627a7a723058202bbefbd32136c7d78187ef08ae6abc463ddf2b552feba7f525c897d74f372a730029",
  "source": "pragma solidity ^0.5.0;\n\ncontract OwnableImmutable\n{\n\taddress public m_owner;\n\n\t/**\n\t * @dev Throws if called by any account other than the owner.\n\t */\n\tmodifier onlyOwner()\n\t{\n\t\trequire(msg.sender == m_owner);\n\t\t_;\n\t}\n\n\t/**\n\t * @dev The Ownable constructor sets the original `owner` of the contract to the sender\n\t * account.\n\t */\n\tconstructor(address _owner) public\n\t{\n\t\tm_owner = _owner;\n\t}\n}\n\ncontract OwnableMutable is OwnableImmutable\n{\n\tevent OwnershipTransferred(address previousOwner, address newOwner);\n\n\t/**\n\t * @dev The Ownable constructor sets the original `owner` of the contract to the sender\n\t * account.\n\t */\n\tconstructor() public\n\tOwnableImmutable(msg.sender)\n\t{\n\t}\n\n\t/**\n\t * @dev Allows the current owner to transfer control of the contract to a newOwner.\n\t * @param _newOwner The address to transfer ownership to.\n\t */\n\tfunction transferOwnership(address _newOwner)\n\tpublic onlyOwner\n\t{\n\t\trequire(_newOwner != address(0));\n\t\temit OwnershipTransferred(m_owner, _newOwner);\n\t\tm_owner = _newOwner;\n\t}\n}\n",
  "sourcePath": "/home/amxx/Work/iExec/code/PoCo-dev/contracts/tools/Ownable.sol",
  "compiler": {
    "name": "solc",
    "version": "0.5.0+commit.1d4f565a.Emscripten.clang"
  },
  "schemaVersion": "3.0.0",
  "updatedAt": "2019-01-03T12:57:44.526Z",
  "devdoc": {
    "methods": {
      "constructor": {
        "details": "The Ownable constructor sets the original `owner` of the contract to the sender account."
      },
      "transferOwnership(address)": {
        "details": "Allows the current owner to transfer control of the contract to a newOwner.",
        "params": {
          "_newOwner": "The address to transfer ownership to."
        }
      }
    }
  },
  "userdoc": {
    "methods": {}
  }
}