{
  "contractName": "RegistryBase",
  "abi": [
    {
      "inputs": [],
      "payable": false,
      "stateMutability": "nonpayable",
      "type": "constructor"
    },
    {
      "constant": true,
      "inputs": [
        {
          "name": "_entry",
          "type": "address"
        }
      ],
      "name": "isRegistered",
      "outputs": [
        {
          "name": "",
          "type": "bool"
        }
      ],
      "payable": false,
      "stateMutability": "view",
      "type": "function"
    },
    {
      "constant": true,
      "inputs": [
        {
          "name": "_owner",
          "type": "address"
        },
        {
          "name": "_index",
          "type": "uint256"
        }
      ],
      "name": "viewEntry",
      "outputs": [
        {
          "name": "",
          "type": "address"
        }
      ],
      "payable": false,
      "stateMutability": "view",
      "type": "function"
    },
    {
      "constant": true,
      "inputs": [
        {
          "name": "_owner",
          "type": "address"
        }
      ],
      "name": "viewCount",
      "outputs": [
        {
          "name": "",
          "type": "uint256"
        }
      ],
      "payable": false,
      "stateMutability": "view",
      "type": "function"
    }
  ],
  "bytecode": "0x608060405234801561001057600080fd5b5061029d806100206000396000f3006080604052600436106100565763ffffffff7c010000000000000000000000000000000000000000000000000000000060003504166365a2c104811461005b578063c0a8cae214610091578063c3c5a547146100be575b600080fd5b34801561006757600080fd5b5061007b6100763660046101bd565b6100eb565b6040516100889190610218565b60405180910390f35b34801561009d57600080fd5b506100b16100ac366004610197565b610125565b6040516100889190610234565b3480156100ca57600080fd5b506100de6100d9366004610197565b61014d565b6040516100889190610226565b73ffffffffffffffffffffffffffffffffffffffff8083166000908152600160209081526040808320858452909152902054165b92915050565b73ffffffffffffffffffffffffffffffffffffffff1660009081526002602052604090205490565b73ffffffffffffffffffffffffffffffffffffffff1660009081526020819052604090205460ff1690565b60006101848235610242565b9392505050565b60006101848235610260565b6000602082840312156101a957600080fd5b60006101b58484610178565b949350505050565b600080604083850312156101d057600080fd5b60006101dc8585610178565b92505060206101ed8582860161018b565b9150509250929050565b61020081610242565b82525050565b6102008161025b565b61020081610260565b6020810161011f82846101f7565b6020810161011f8284610206565b6020810161011f828461020f565b73ffffffffffffffffffffffffffffffffffffffff1690565b151590565b905600a265627a7a723058208cf2532ddbb920abe67c903a865c5f3a0cf017f115d6bc5d803961424101771b6c6578706572696d656e74616cf50037",
  "source": "pragma solidity ^0.4.25;\npragma experimental ABIEncoderV2;\n\nimport '../libs/SafeMathOZ.sol';\nimport '../tools/Ownable.sol';\n\ncontract RegistryBase\n{\n\n\tusing SafeMathOZ for uint256;\n\n\t/**\n\t * Members\n\t */\n\tmapping(address => bool                       ) m_registered;\n\tmapping(address => mapping(uint256 => address)) m_byOwnerByIndex;\n\tmapping(address => uint256                    ) m_countByOwner;\n\n\t/**\n\t * Constructor\n\t */\n\tconstructor()\n\tpublic\n\t{\n\t}\n\n\t/**\n\t * Accessors\n\t */\n\tfunction isRegistered(address _entry)\n\tpublic view returns (bool)\n\t{\n\t\treturn m_registered[_entry];\n\t}\n\n\tfunction viewEntry(address _owner, uint256 _index)\n\tpublic view returns (address)\n\t{\n\t\treturn m_byOwnerByIndex[_owner][_index];\n\t}\n\n\tfunction viewCount(address _owner)\n\tpublic view returns (uint256)\n\t{\n\t\treturn m_countByOwner[_owner];\n\t}\n\n\t/**\n\t * Internal\n\t */\n\tfunction insert(\n\t\taddress _entry,\n\t\taddress _owner)\n\tinternal returns (bool)\n\t{\n\t\tuint id = m_countByOwner[_owner].add(1);\n\t\tm_countByOwner  [_owner]     = id;\n\t\tm_byOwnerByIndex[_owner][id] = _entry;\n\t\tm_registered    [_entry]     = true;\n\t\treturn true;\n\t}\n}\n",
  "sourcePath": "/home/amxx/Work/iExec/code/PoCo-dev/contracts/registries/RegistryBase.sol",
  "compiler": {
    "name": "solc",
    "version": "0.4.25+commit.59dbf8f1.Emscripten.clang"
  },
  "schemaVersion": "3.0.0-beta.1",
  "updatedAt": "2018-11-16T10:52:08.657Z"
}