{
  "contractName": "Relay",
  "abi": [
    {
      "inputs": [],
      "payable": false,
      "stateMutability": "nonpayable",
      "type": "constructor",
      "signature": "constructor"
    },
    {
      "anonymous": false,
      "inputs": [
        {
          "components": [
            {
              "name": "dapp",
              "type": "address"
            },
            {
              "name": "dappprice",
              "type": "uint256"
            },
            {
              "name": "volume",
              "type": "uint256"
            },
            {
              "name": "tag",
              "type": "uint256"
            },
            {
              "name": "datarestrict",
              "type": "address"
            },
            {
              "name": "poolrestrict",
              "type": "address"
            },
            {
              "name": "userrestrict",
              "type": "address"
            },
            {
              "name": "salt",
              "type": "bytes32"
            },
            {
              "components": [
                {
                  "name": "v",
                  "type": "uint8"
                },
                {
                  "name": "r",
                  "type": "bytes32"
                },
                {
                  "name": "s",
                  "type": "bytes32"
                }
              ],
              "name": "sign",
              "type": "tuple"
            }
          ],
          "indexed": false,
          "name": "dapporder",
          "type": "tuple"
        }
      ],
      "name": "BroadcastDappOrder",
      "type": "event",
      "signature": "0x8aa8d528c886db1b1559fe3d9144ecacac52cb3b1adb53e9557ee2764d42ada3"
    },
    {
      "anonymous": false,
      "inputs": [
        {
          "components": [
            {
              "name": "data",
              "type": "address"
            },
            {
              "name": "dataprice",
              "type": "uint256"
            },
            {
              "name": "volume",
              "type": "uint256"
            },
            {
              "name": "tag",
              "type": "uint256"
            },
            {
              "name": "dapprestrict",
              "type": "address"
            },
            {
              "name": "poolrestrict",
              "type": "address"
            },
            {
              "name": "userrestrict",
              "type": "address"
            },
            {
              "name": "salt",
              "type": "bytes32"
            },
            {
              "components": [
                {
                  "name": "v",
                  "type": "uint8"
                },
                {
                  "name": "r",
                  "type": "bytes32"
                },
                {
                  "name": "s",
                  "type": "bytes32"
                }
              ],
              "name": "sign",
              "type": "tuple"
            }
          ],
          "indexed": false,
          "name": "dataorder",
          "type": "tuple"
        }
      ],
      "name": "BroadcastDataOrder",
      "type": "event",
      "signature": "0x5da5848aca1408c5fc117d364ade4bd9fef8ab89cf5e1983bbaa32700125b1de"
    },
    {
      "anonymous": false,
      "inputs": [
        {
          "components": [
            {
              "name": "pool",
              "type": "address"
            },
            {
              "name": "poolprice",
              "type": "uint256"
            },
            {
              "name": "volume",
              "type": "uint256"
            },
            {
              "name": "tag",
              "type": "uint256"
            },
            {
              "name": "category",
              "type": "uint256"
            },
            {
              "name": "trust",
              "type": "uint256"
            },
            {
              "name": "dapprestrict",
              "type": "address"
            },
            {
              "name": "datarestrict",
              "type": "address"
            },
            {
              "name": "userrestrict",
              "type": "address"
            },
            {
              "name": "salt",
              "type": "bytes32"
            },
            {
              "components": [
                {
                  "name": "v",
                  "type": "uint8"
                },
                {
                  "name": "r",
                  "type": "bytes32"
                },
                {
                  "name": "s",
                  "type": "bytes32"
                }
              ],
              "name": "sign",
              "type": "tuple"
            }
          ],
          "indexed": false,
          "name": "poolorder",
          "type": "tuple"
        }
      ],
      "name": "BroadcastPoolOrder",
      "type": "event",
      "signature": "0x82cdac1165727776e83afdd32f0d6f2f47aa828ed0d6d0c128c1015d8074a9a7"
    },
    {
      "anonymous": false,
      "inputs": [
        {
          "components": [
            {
              "name": "dapp",
              "type": "address"
            },
            {
              "name": "dappmaxprice",
              "type": "uint256"
            },
            {
              "name": "data",
              "type": "address"
            },
            {
              "name": "datamaxprice",
              "type": "uint256"
            },
            {
              "name": "pool",
              "type": "address"
            },
            {
              "name": "poolmaxprice",
              "type": "uint256"
            },
            {
              "name": "requester",
              "type": "address"
            },
            {
              "name": "volume",
              "type": "uint256"
            },
            {
              "name": "tag",
              "type": "uint256"
            },
            {
              "name": "category",
              "type": "uint256"
            },
            {
              "name": "trust",
              "type": "uint256"
            },
            {
              "name": "beneficiary",
              "type": "address"
            },
            {
              "name": "callback",
              "type": "address"
            },
            {
              "name": "params",
              "type": "string"
            },
            {
              "name": "salt",
              "type": "bytes32"
            },
            {
              "components": [
                {
                  "name": "v",
                  "type": "uint8"
                },
                {
                  "name": "r",
                  "type": "bytes32"
                },
                {
                  "name": "s",
                  "type": "bytes32"
                }
              ],
              "name": "sign",
              "type": "tuple"
            }
          ],
          "indexed": false,
          "name": "userorder",
          "type": "tuple"
        }
      ],
      "name": "BroadcastUserOrder",
      "type": "event",
      "signature": "0xfa6a66c49d41fc195a48ae4c65a4501c003a4408fca539d2066301e89b93284e"
    },
    {
      "constant": false,
      "inputs": [
        {
          "components": [
            {
              "name": "dapp",
              "type": "address"
            },
            {
              "name": "dappprice",
              "type": "uint256"
            },
            {
              "name": "volume",
              "type": "uint256"
            },
            {
              "name": "tag",
              "type": "uint256"
            },
            {
              "name": "datarestrict",
              "type": "address"
            },
            {
              "name": "poolrestrict",
              "type": "address"
            },
            {
              "name": "userrestrict",
              "type": "address"
            },
            {
              "name": "salt",
              "type": "bytes32"
            },
            {
              "components": [
                {
                  "name": "v",
                  "type": "uint8"
                },
                {
                  "name": "r",
                  "type": "bytes32"
                },
                {
                  "name": "s",
                  "type": "bytes32"
                }
              ],
              "name": "sign",
              "type": "tuple"
            }
          ],
          "name": "_dapporder",
          "type": "tuple"
        }
      ],
      "name": "broadcastDappOrder",
      "outputs": [],
      "payable": false,
      "stateMutability": "nonpayable",
      "type": "function",
      "signature": "0xe0a3aed1"
    },
    {
      "constant": false,
      "inputs": [
        {
          "components": [
            {
              "name": "data",
              "type": "address"
            },
            {
              "name": "dataprice",
              "type": "uint256"
            },
            {
              "name": "volume",
              "type": "uint256"
            },
            {
              "name": "tag",
              "type": "uint256"
            },
            {
              "name": "dapprestrict",
              "type": "address"
            },
            {
              "name": "poolrestrict",
              "type": "address"
            },
            {
              "name": "userrestrict",
              "type": "address"
            },
            {
              "name": "salt",
              "type": "bytes32"
            },
            {
              "components": [
                {
                  "name": "v",
                  "type": "uint8"
                },
                {
                  "name": "r",
                  "type": "bytes32"
                },
                {
                  "name": "s",
                  "type": "bytes32"
                }
              ],
              "name": "sign",
              "type": "tuple"
            }
          ],
          "name": "_dataorder",
          "type": "tuple"
        }
      ],
      "name": "broadcastDataOrder",
      "outputs": [],
      "payable": false,
      "stateMutability": "nonpayable",
      "type": "function",
      "signature": "0xa8da3c65"
    },
    {
      "constant": false,
      "inputs": [
        {
          "components": [
            {
              "name": "pool",
              "type": "address"
            },
            {
              "name": "poolprice",
              "type": "uint256"
            },
            {
              "name": "volume",
              "type": "uint256"
            },
            {
              "name": "tag",
              "type": "uint256"
            },
            {
              "name": "category",
              "type": "uint256"
            },
            {
              "name": "trust",
              "type": "uint256"
            },
            {
              "name": "dapprestrict",
              "type": "address"
            },
            {
              "name": "datarestrict",
              "type": "address"
            },
            {
              "name": "userrestrict",
              "type": "address"
            },
            {
              "name": "salt",
              "type": "bytes32"
            },
            {
              "components": [
                {
                  "name": "v",
                  "type": "uint8"
                },
                {
                  "name": "r",
                  "type": "bytes32"
                },
                {
                  "name": "s",
                  "type": "bytes32"
                }
              ],
              "name": "sign",
              "type": "tuple"
            }
          ],
          "name": "_poolorder",
          "type": "tuple"
        }
      ],
      "name": "broadcastPoolOrder",
      "outputs": [],
      "payable": false,
      "stateMutability": "nonpayable",
      "type": "function",
      "signature": "0x73800dd9"
    },
    {
      "constant": false,
      "inputs": [
        {
          "components": [
            {
              "name": "dapp",
              "type": "address"
            },
            {
              "name": "dappmaxprice",
              "type": "uint256"
            },
            {
              "name": "data",
              "type": "address"
            },
            {
              "name": "datamaxprice",
              "type": "uint256"
            },
            {
              "name": "pool",
              "type": "address"
            },
            {
              "name": "poolmaxprice",
              "type": "uint256"
            },
            {
              "name": "requester",
              "type": "address"
            },
            {
              "name": "volume",
              "type": "uint256"
            },
            {
              "name": "tag",
              "type": "uint256"
            },
            {
              "name": "category",
              "type": "uint256"
            },
            {
              "name": "trust",
              "type": "uint256"
            },
            {
              "name": "beneficiary",
              "type": "address"
            },
            {
              "name": "callback",
              "type": "address"
            },
            {
              "name": "params",
              "type": "string"
            },
            {
              "name": "salt",
              "type": "bytes32"
            },
            {
              "components": [
                {
                  "name": "v",
                  "type": "uint8"
                },
                {
                  "name": "r",
                  "type": "bytes32"
                },
                {
                  "name": "s",
                  "type": "bytes32"
                }
              ],
              "name": "sign",
              "type": "tuple"
            }
          ],
          "name": "_userorder",
          "type": "tuple"
        }
      ],
      "name": "broadcastUserOrder",
      "outputs": [],
      "payable": false,
      "stateMutability": "nonpayable",
      "type": "function",
      "signature": "0x09e831fa"
    }
  ],
  "bytecode": "0x608060405234801561001057600080fd5b50610af3806100206000396000f3006080604052600436106100615763ffffffff7c01000000000000000000000000000000000000000000000000000000006000350416634d807b0881146100665780636cbe84fa14610088578063824b0c9b146100a8578063abad16f0146100c8575b600080fd5b34801561007257600080fd5b50610086610081366004610632565b6100e8565b005b34801561009457600080fd5b506100866100a3366004610613565b610122565b3480156100b457600080fd5b506100866100c33660046105ec565b610151565b3480156100d457600080fd5b506100866100e33660046105ec565b610180565b7fe53e7acd5bb99fcb5fbe3eee5b0cecafd22cd8704788cadd41d17d86270089028160405161011791906109f1565b60405180910390a150565b7f9a1a3a6bd66728182f4fb091904ecca5ecf358683d3b44702c064d23d4c7ba848160405161011791906109e2565b7f30b06e4223b8cd415ee0c5d6804df361c2354ee1c8e2eb4db6a857470fce408f8160405161011791906109cd565b7fa1fcb3901b7e3ecfba2bdbe83d88388209f96acf3d7978de2a8e59f4cea572538160405161011791906109cd565b60006101bb8235610a55565b9392505050565b60006101bb8235610a6e565b6000601f820183136101df57600080fd5b81356101f26101ed82610a29565b610a02565b9150808252602083016020830185838301111561020e57600080fd5b610219838284610a77565b50505092915050565b6000610160828403121561023557600080fd5b610240610120610a02565b9050600061024e84846101af565b825250602061025f848483016101c2565b6020830152506040610273848285016101c2565b6040830152506060610287848285016101c2565b606083015250608061029b848285016101af565b60808301525060a06102af848285016101af565b60a08301525060c06102c3848285016101af565b60c08301525060e06102d7848285016101c2565b60e0830152506101006102ec84828501610585565b6101008301525092915050565b60006101a0828403121561030c57600080fd5b610317610160610a02565b9050600061032584846101af565b8252506020610336848483016101c2565b602083015250604061034a848285016101c2565b604083015250606061035e848285016101c2565b6060830152506080610372848285016101c2565b60808301525060a0610386848285016101c2565b60a08301525060c061039a848285016101af565b60c08301525060e06103ae848285016101af565b60e0830152506101006103c3848285016101af565b610100830152506101206103d9848285016101c2565b610120830152506101406103ef84828501610585565b6101408301525092915050565b6000610240828403121561040f57600080fd5b61041a610200610a02565b9050600061042884846101af565b8252506020610439848483016101c2565b602083015250604061044d848285016101af565b6040830152506060610461848285016101c2565b6060830152506080610475848285016101af565b60808301525060a0610489848285016101c2565b60a08301525060c061049d848285016101af565b60c08301525060e06104b1848285016101c2565b60e0830152506101006104c6848285016101c2565b610100830152506101206104dc848285016101c2565b610120830152506101406104f2848285016101c2565b61014083015250610160610508848285016101af565b6101608301525061018061051e848285016101af565b610180830152506101a082013567ffffffffffffffff81111561054057600080fd5b61054c848285016101ce565b6101a0830152506101c0610562848285016101c2565b6101c0830152506101e061057884828501610585565b6101e08301525092915050565b60006060828403121561059757600080fd5b6105a16060610a02565b905060006105af84846105e0565b82525060206105c0848483016101c2565b60208301525060406105d4848285016101c2565b60408301525092915050565b60006101bb8235610a71565b600061016082840312156105ff57600080fd5b600061060b8484610222565b949350505050565b60006101a0828403121561062657600080fd5b600061060b84846102f9565b60006020828403121561064457600080fd5b813567ffffffffffffffff81111561065b57600080fd5b61060b848285016103fc565b61067081610a55565b82525050565b61067081610a6e565b600061068a82610a51565b80845261069e816020860160208601610a83565b6106a781610aaf565b9093016020019392505050565b80516101608301906106c68482610667565b5060208201516106d96020850182610676565b5060408201516106ec6040850182610676565b5060608201516106ff6060850182610676565b5060808201516107126080850182610667565b5060a082015161072560a0850182610667565b5060c082015161073860c0850182610667565b5060e082015161074b60e0850182610676565b5061010082015161076061010085018261098d565b50505050565b80516101a08301906107788482610667565b50602082015161078b6020850182610676565b50604082015161079e6040850182610676565b5060608201516107b16060850182610676565b5060808201516107c46080850182610676565b5060a08201516107d760a0850182610676565b5060c08201516107ea60c0850182610667565b5060e08201516107fd60e0850182610667565b50610100820151610812610100850182610667565b50610120820151610827610120850182610676565b5061014082015161076061014085018261098d565b80516000906102408401906108518582610667565b5060208301516108646020860182610676565b5060408301516108776040860182610667565b50606083015161088a6060860182610676565b50608083015161089d6080860182610667565b5060a08301516108b060a0860182610676565b5060c08301516108c360c0860182610667565b5060e08301516108d660e0860182610676565b506101008301516108eb610100860182610676565b50610120830151610900610120860182610676565b50610140830151610915610140860182610676565b5061016083015161092a610160860182610667565b5061018083015161093f610180860182610667565b506101a08301518482036101a0860152610959828261067f565b9150506101c08301516109706101c0860182610676565b506101e08301516109856101e086018261098d565b509392505050565b8051606083019061099e84826109c4565b5060208201516109b16020850182610676565b5060408201516107606040850182610676565b61067081610a71565b61016081016109dc82846106b4565b92915050565b6101a081016109dc8284610766565b602080825281016101bb818461083c565b60405181810167ffffffffffffffff81118282101715610a2157600080fd5b604052919050565b600067ffffffffffffffff821115610a4057600080fd5b506020601f91909101601f19160190565b5190565b73ffffffffffffffffffffffffffffffffffffffff1690565b90565b60ff1690565b82818337506000910152565b60005b83811015610a9e578181015183820152602001610a86565b838111156107605750506000910152565b601f01601f1916905600a265627a7a723058205b7fbf404a94a4ce9446f98fd821cf719d3b5ef1ad27d7df78e54a4034defdb76c6578706572696d656e74616cf50037",
  "source": "pragma solidity ^0.4.25;\npragma experimental ABIEncoderV2;\n\nimport \"./libs/IexecODBLibOrders.sol\";\n\ncontract Relay\n{\n\tevent BroadcastDappOrder(IexecODBLibOrders.DappOrder dapporder);\n\tevent BroadcastDataOrder(IexecODBLibOrders.DataOrder dataorder);\n\tevent BroadcastPoolOrder(IexecODBLibOrders.PoolOrder poolorder);\n\tevent BroadcastUserOrder(IexecODBLibOrders.UserOrder userorder);\n\n\tconstructor() public {}\n\n\tfunction broadcastDappOrder(IexecODBLibOrders.DappOrder _dapporder) public { emit BroadcastDappOrder(_dapporder); }\n\tfunction broadcastDataOrder(IexecODBLibOrders.DataOrder _dataorder) public { emit BroadcastDataOrder(_dataorder); }\n\tfunction broadcastPoolOrder(IexecODBLibOrders.PoolOrder _poolorder) public { emit BroadcastPoolOrder(_poolorder); }\n\tfunction broadcastUserOrder(IexecODBLibOrders.UserOrder _userorder) public { emit BroadcastUserOrder(_userorder); }\n}\n",
  "sourcePath": "/home/amxx/Work/iExec/code/PoCo-dev/contracts/Relay.sol",
  "compiler": {
    "name": "solc",
    "version": "0.4.25+commit.59dbf8f1.Emscripten.clang"
  },
  "schemaVersion": "3.0.0-beta.1",
  "updatedAt": "2018-11-16T10:55:58.082Z"
}