{
  "contractName": "Relay",
  "abi": [
    {
      "inputs": [],
      "payable": false,
      "stateMutability": "nonpayable",
      "type": "constructor"
    },
    {
      "anonymous": false,
      "inputs": [
        {
          "components": [
            {
              "name": "app",
              "type": "address"
            },
            {
              "name": "appprice",
              "type": "uint256"
            },
            {
              "name": "volume",
              "type": "uint256"
            },
            {
              "name": "tag",
              "type": "uint256"
            },
            {
              "name": "datasetrestrict",
              "type": "address"
            },
            {
              "name": "workerpoolrestrict",
              "type": "address"
            },
            {
              "name": "requesterrestrict",
              "type": "address"
            },
            {
              "name": "salt",
              "type": "bytes32"
            },
            {
              "components": [
                {
                  "name": "v",
                  "type": "uint8"
                },
                {
                  "name": "r",
                  "type": "bytes32"
                },
                {
                  "name": "s",
                  "type": "bytes32"
                }
              ],
              "name": "sign",
              "type": "tuple"
            }
          ],
          "indexed": false,
          "name": "apporder",
          "type": "tuple"
        }
      ],
      "name": "BroadcastAppOrder",
      "type": "event"
    },
    {
      "anonymous": false,
      "inputs": [
        {
          "components": [
            {
              "name": "dataset",
              "type": "address"
            },
            {
              "name": "datasetprice",
              "type": "uint256"
            },
            {
              "name": "volume",
              "type": "uint256"
            },
            {
              "name": "tag",
              "type": "uint256"
            },
            {
              "name": "apprestrict",
              "type": "address"
            },
            {
              "name": "workerpoolrestrict",
              "type": "address"
            },
            {
              "name": "requesterrestrict",
              "type": "address"
            },
            {
              "name": "salt",
              "type": "bytes32"
            },
            {
              "components": [
                {
                  "name": "v",
                  "type": "uint8"
                },
                {
                  "name": "r",
                  "type": "bytes32"
                },
                {
                  "name": "s",
                  "type": "bytes32"
                }
              ],
              "name": "sign",
              "type": "tuple"
            }
          ],
          "indexed": false,
          "name": "datasetorder",
          "type": "tuple"
        }
      ],
      "name": "BroadcastDatasetOrder",
      "type": "event"
    },
    {
      "anonymous": false,
      "inputs": [
        {
          "components": [
            {
              "name": "workerpool",
              "type": "address"
            },
            {
              "name": "workerpoolprice",
              "type": "uint256"
            },
            {
              "name": "volume",
              "type": "uint256"
            },
            {
              "name": "tag",
              "type": "uint256"
            },
            {
              "name": "category",
              "type": "uint256"
            },
            {
              "name": "trust",
              "type": "uint256"
            },
            {
              "name": "apprestrict",
              "type": "address"
            },
            {
              "name": "datasetrestrict",
              "type": "address"
            },
            {
              "name": "requesterrestrict",
              "type": "address"
            },
            {
              "name": "salt",
              "type": "bytes32"
            },
            {
              "components": [
                {
                  "name": "v",
                  "type": "uint8"
                },
                {
                  "name": "r",
                  "type": "bytes32"
                },
                {
                  "name": "s",
                  "type": "bytes32"
                }
              ],
              "name": "sign",
              "type": "tuple"
            }
          ],
          "indexed": false,
          "name": "workerpoolorder",
          "type": "tuple"
        }
      ],
      "name": "BroadcastWorkerpoolOrder",
      "type": "event"
    },
    {
      "anonymous": false,
      "inputs": [
        {
          "components": [
            {
              "name": "app",
              "type": "address"
            },
            {
              "name": "appmaxprice",
              "type": "uint256"
            },
            {
              "name": "dataset",
              "type": "address"
            },
            {
              "name": "datasetmaxprice",
              "type": "uint256"
            },
            {
              "name": "workerpool",
              "type": "address"
            },
            {
              "name": "workerpoolmaxprice",
              "type": "uint256"
            },
            {
              "name": "requester",
              "type": "address"
            },
            {
              "name": "volume",
              "type": "uint256"
            },
            {
              "name": "tag",
              "type": "uint256"
            },
            {
              "name": "category",
              "type": "uint256"
            },
            {
              "name": "trust",
              "type": "uint256"
            },
            {
              "name": "beneficiary",
              "type": "address"
            },
            {
              "name": "callback",
              "type": "address"
            },
            {
              "name": "params",
              "type": "string"
            },
            {
              "name": "salt",
              "type": "bytes32"
            },
            {
              "components": [
                {
                  "name": "v",
                  "type": "uint8"
                },
                {
                  "name": "r",
                  "type": "bytes32"
                },
                {
                  "name": "s",
                  "type": "bytes32"
                }
              ],
              "name": "sign",
              "type": "tuple"
            }
          ],
          "indexed": false,
          "name": "requestorder",
          "type": "tuple"
        }
      ],
      "name": "BroadcastRequestOrder",
      "type": "event"
    },
    {
      "constant": false,
      "inputs": [
        {
          "components": [
            {
              "name": "app",
              "type": "address"
            },
            {
              "name": "appprice",
              "type": "uint256"
            },
            {
              "name": "volume",
              "type": "uint256"
            },
            {
              "name": "tag",
              "type": "uint256"
            },
            {
              "name": "datasetrestrict",
              "type": "address"
            },
            {
              "name": "workerpoolrestrict",
              "type": "address"
            },
            {
              "name": "requesterrestrict",
              "type": "address"
            },
            {
              "name": "salt",
              "type": "bytes32"
            },
            {
              "components": [
                {
                  "name": "v",
                  "type": "uint8"
                },
                {
                  "name": "r",
                  "type": "bytes32"
                },
                {
                  "name": "s",
                  "type": "bytes32"
                }
              ],
              "name": "sign",
              "type": "tuple"
            }
          ],
          "name": "_apporder",
          "type": "tuple"
        }
      ],
      "name": "broadcastAppOrder",
      "outputs": [],
      "payable": false,
      "stateMutability": "nonpayable",
      "type": "function"
    },
    {
      "constant": false,
      "inputs": [
        {
          "components": [
            {
              "name": "dataset",
              "type": "address"
            },
            {
              "name": "datasetprice",
              "type": "uint256"
            },
            {
              "name": "volume",
              "type": "uint256"
            },
            {
              "name": "tag",
              "type": "uint256"
            },
            {
              "name": "apprestrict",
              "type": "address"
            },
            {
              "name": "workerpoolrestrict",
              "type": "address"
            },
            {
              "name": "requesterrestrict",
              "type": "address"
            },
            {
              "name": "salt",
              "type": "bytes32"
            },
            {
              "components": [
                {
                  "name": "v",
                  "type": "uint8"
                },
                {
                  "name": "r",
                  "type": "bytes32"
                },
                {
                  "name": "s",
                  "type": "bytes32"
                }
              ],
              "name": "sign",
              "type": "tuple"
            }
          ],
          "name": "_datasetorder",
          "type": "tuple"
        }
      ],
      "name": "broadcastDatasetOrder",
      "outputs": [],
      "payable": false,
      "stateMutability": "nonpayable",
      "type": "function"
    },
    {
      "constant": false,
      "inputs": [
        {
          "components": [
            {
              "name": "workerpool",
              "type": "address"
            },
            {
              "name": "workerpoolprice",
              "type": "uint256"
            },
            {
              "name": "volume",
              "type": "uint256"
            },
            {
              "name": "tag",
              "type": "uint256"
            },
            {
              "name": "category",
              "type": "uint256"
            },
            {
              "name": "trust",
              "type": "uint256"
            },
            {
              "name": "apprestrict",
              "type": "address"
            },
            {
              "name": "datasetrestrict",
              "type": "address"
            },
            {
              "name": "requesterrestrict",
              "type": "address"
            },
            {
              "name": "salt",
              "type": "bytes32"
            },
            {
              "components": [
                {
                  "name": "v",
                  "type": "uint8"
                },
                {
                  "name": "r",
                  "type": "bytes32"
                },
                {
                  "name": "s",
                  "type": "bytes32"
                }
              ],
              "name": "sign",
              "type": "tuple"
            }
          ],
          "name": "_workerpoolorder",
          "type": "tuple"
        }
      ],
      "name": "broadcastWorkerpoolOrder",
      "outputs": [],
      "payable": false,
      "stateMutability": "nonpayable",
      "type": "function"
    },
    {
      "constant": false,
      "inputs": [
        {
          "components": [
            {
              "name": "app",
              "type": "address"
            },
            {
              "name": "appmaxprice",
              "type": "uint256"
            },
            {
              "name": "dataset",
              "type": "address"
            },
            {
              "name": "datasetmaxprice",
              "type": "uint256"
            },
            {
              "name": "workerpool",
              "type": "address"
            },
            {
              "name": "workerpoolmaxprice",
              "type": "uint256"
            },
            {
              "name": "requester",
              "type": "address"
            },
            {
              "name": "volume",
              "type": "uint256"
            },
            {
              "name": "tag",
              "type": "uint256"
            },
            {
              "name": "category",
              "type": "uint256"
            },
            {
              "name": "trust",
              "type": "uint256"
            },
            {
              "name": "beneficiary",
              "type": "address"
            },
            {
              "name": "callback",
              "type": "address"
            },
            {
              "name": "params",
              "type": "string"
            },
            {
              "name": "salt",
              "type": "bytes32"
            },
            {
              "components": [
                {
                  "name": "v",
                  "type": "uint8"
                },
                {
                  "name": "r",
                  "type": "bytes32"
                },
                {
                  "name": "s",
                  "type": "bytes32"
                }
              ],
              "name": "sign",
              "type": "tuple"
            }
          ],
          "name": "_requestorder",
          "type": "tuple"
        }
      ],
      "name": "broadcastRequestOrder",
      "outputs": [],
      "payable": false,
      "stateMutability": "nonpayable",
      "type": "function"
    }
  ],
  "bytecode": "0x608060405234801561001057600080fd5b50610afa806100206000396000f3fe6080604052600436106100615763ffffffff7c01000000000000000000000000000000000000000000000000000000006000350416632b1e20cb81146100665780638a0d73c21461008857806390ed2843146100a85780639a25d3ad146100c8575b600080fd5b34801561007257600080fd5b506100866100813660046105ec565b6100e8565b005b34801561009457600080fd5b506100866100a33660046105ec565b610122565b3480156100b457600080fd5b506100866100c3366004610648565b610151565b3480156100d457600080fd5b506100866100e3366004610613565b610180565b7f45f1da82252bde9b2c88a273f61879773a46dac3c9b1f9deba410183f5301d8e8160405161011791906109c9565b60405180910390a150565b7fc4a3381d7f4f01ed56552fe085f0155608fa794f86739163e8edfde460209be28160405161011791906109c9565b7fc464f744c907d128c308d47b6400a37891b7461a8dbd10aa1f0de754d08506e28160405161011791906109ef565b7f80a8197ef309eb4de0a13e7cfdce95c905359124c499e8745569f513d39363db8160405161011791906109de565b60006101bb8235610a51565b9392505050565b60006101bb8235610a5c565b6000601f820183136101df57600080fd5b81356101f26101ed82610a25565b6109fe565b9150808252602083016020830185838301111561020e57600080fd5b610219838284610a7e565b50505092915050565b6000610160828403121561023557600080fd5b6102406101206109fe565b9050600061024e84846101af565b825250602061025f848483016101c2565b6020830152506040610273848285016101c2565b6040830152506060610287848285016101c2565b606083015250608061029b848285016101af565b60808301525060a06102af848285016101af565b60a08301525060c06102c3848285016101af565b60c08301525060e06102d7848285016101c2565b60e0830152506101006102ec84828501610585565b6101008301525092915050565b6000610240828403121561030c57600080fd5b6103176102006109fe565b9050600061032584846101af565b8252506020610336848483016101c2565b602083015250604061034a848285016101af565b604083015250606061035e848285016101c2565b6060830152506080610372848285016101af565b60808301525060a0610386848285016101c2565b60a08301525060c061039a848285016101af565b60c08301525060e06103ae848285016101c2565b60e0830152506101006103c3848285016101c2565b610100830152506101206103d9848285016101c2565b610120830152506101406103ef848285016101c2565b61014083015250610160610405848285016101af565b6101608301525061018061041b848285016101af565b610180830152506101a082013567ffffffffffffffff81111561043d57600080fd5b610449848285016101ce565b6101a0830152506101c061045f848285016101c2565b6101c0830152506101e061047584828501610585565b6101e08301525092915050565b60006101a0828403121561049557600080fd5b6104a06101606109fe565b905060006104ae84846101af565b82525060206104bf848483016101c2565b60208301525060406104d3848285016101c2565b60408301525060606104e7848285016101c2565b60608301525060806104fb848285016101c2565b60808301525060a061050f848285016101c2565b60a08301525060c0610523848285016101af565b60c08301525060e0610537848285016101af565b60e08301525061010061054c848285016101af565b61010083015250610120610562848285016101c2565b6101208301525061014061057884828501610585565b6101408301525092915050565b60006060828403121561059757600080fd5b6105a160606109fe565b905060006105af84846105e0565b82525060206105c0848483016101c2565b60208301525060406105d4848285016101c2565b60408301525092915050565b60006101bb8235610a78565b600061016082840312156105ff57600080fd5b600061060b8484610222565b949350505050565b60006020828403121561062557600080fd5b813567ffffffffffffffff81111561063c57600080fd5b61060b848285016102f9565b60006101a0828403121561065b57600080fd5b600061060b8484610482565b61067081610a51565b82525050565b61067081610a5c565b600061068a82610a4d565b80845261069e816020860160208601610a8a565b6106a781610ab6565b9093016020019392505050565b80516101608301906106c68482610667565b5060208201516106d96020850182610676565b5060408201516106ec6040850182610676565b5060608201516106ff6060850182610676565b5060808201516107126080850182610667565b5060a082015161072560a0850182610667565b5060c082015161073860c0850182610667565b5060e082015161074b60e0850182610676565b50610100820151610760610100850182610989565b50505050565b805160009061024084019061077b8582610667565b50602083015161078e6020860182610676565b5060408301516107a16040860182610667565b5060608301516107b46060860182610676565b5060808301516107c76080860182610667565b5060a08301516107da60a0860182610676565b5060c08301516107ed60c0860182610667565b5060e083015161080060e0860182610676565b50610100830151610815610100860182610676565b5061012083015161082a610120860182610676565b5061014083015161083f610140860182610676565b50610160830151610854610160860182610667565b50610180830151610869610180860182610667565b506101a08301518482036101a0860152610883828261067f565b9150506101c083015161089a6101c0860182610676565b506101e08301516108af6101e0860182610989565b509392505050565b80516101a08301906108c98482610667565b5060208201516108dc6020850182610676565b5060408201516108ef6040850182610676565b5060608201516109026060850182610676565b5060808201516109156080850182610676565b5060a082015161092860a0850182610676565b5060c082015161093b60c0850182610667565b5060e082015161094e60e0850182610667565b50610100820151610963610100850182610667565b50610120820151610978610120850182610676565b506101408201516107606101408501825b8051606083019061099a84826109c0565b5060208201516109ad6020850182610676565b5060408201516107606040850182610676565b61067081610a78565b61016081016109d882846106b4565b92915050565b602080825281016101bb8184610766565b6101a081016109d882846108b7565b60405181810167ffffffffffffffff81118282101715610a1d57600080fd5b604052919050565b600067ffffffffffffffff821115610a3c57600080fd5b506020601f91909101601f19160190565b5190565b60006109d882610a5f565b90565b73ffffffffffffffffffffffffffffffffffffffff1690565b60ff1690565b82818337506000910152565b60005b83811015610aa5578181015183820152602001610a8d565b838111156107605750506000910152565b601f01601f19169056fea265627a7a72305820f895f349261851b5eda63ce3a50d1aee09174b26695e4d66dcf460f3e5e972036c6578706572696d656e74616cf50037",
  "source": "pragma solidity ^0.5.0;\npragma experimental ABIEncoderV2;\n\nimport \"./libs/IexecODBLibOrders.sol\";\n\ncontract Relay\n{\n\tevent BroadcastAppOrder       (IexecODBLibOrders.AppOrder        apporder       );\n\tevent BroadcastDatasetOrder   (IexecODBLibOrders.DatasetOrder    datasetorder   );\n\tevent BroadcastWorkerpoolOrder(IexecODBLibOrders.WorkerpoolOrder workerpoolorder);\n\tevent BroadcastRequestOrder   (IexecODBLibOrders.RequestOrder    requestorder   );\n\n\tconstructor() public {}\n\n\tfunction broadcastAppOrder       (IexecODBLibOrders.AppOrder        memory _apporder       ) public { emit BroadcastAppOrder       (_apporder       ); }\n\tfunction broadcastDatasetOrder   (IexecODBLibOrders.DatasetOrder    memory _datasetorder   ) public { emit BroadcastDatasetOrder   (_datasetorder   ); }\n\tfunction broadcastWorkerpoolOrder(IexecODBLibOrders.WorkerpoolOrder memory _workerpoolorder) public { emit BroadcastWorkerpoolOrder(_workerpoolorder); }\n\tfunction broadcastRequestOrder   (IexecODBLibOrders.RequestOrder    memory _requestorder   ) public { emit BroadcastRequestOrder   (_requestorder   ); }\n}\n",
  "sourcePath": "/home/amxx/Work/iExec/code/PoCo-dev/contracts/Relay.sol",
  "compiler": {
    "name": "solc",
    "version": "0.5.0+commit.1d4f565a.Emscripten.clang"
  },
  "schemaVersion": "3.0.0-beta.2",
  "updatedAt": "2018-12-03T12:54:15.752Z",
  "devdoc": {
    "methods": {}
  },
  "userdoc": {
    "methods": {}
  }
}