{
  "contractName": "RLC",
  "abi": [
    {
      "constant": true,
      "inputs": [],
      "name": "name",
      "outputs": [
        {
          "name": "",
          "type": "string"
        }
      ],
      "payable": false,
      "stateMutability": "view",
      "type": "function"
    },
    {
      "constant": true,
      "inputs": [],
      "name": "totalSupply",
      "outputs": [
        {
          "name": "",
          "type": "uint256"
        }
      ],
      "payable": false,
      "stateMutability": "view",
      "type": "function"
    },
    {
      "constant": true,
      "inputs": [],
      "name": "decimals",
      "outputs": [
        {
          "name": "",
          "type": "uint8"
        }
      ],
      "payable": false,
      "stateMutability": "view",
      "type": "function"
    },
    {
      "constant": true,
      "inputs": [],
      "name": "initialSupply",
      "outputs": [
        {
          "name": "",
          "type": "uint256"
        }
      ],
      "payable": false,
      "stateMutability": "view",
      "type": "function"
    },
    {
      "constant": true,
      "inputs": [],
      "name": "version",
      "outputs": [
        {
          "name": "",
          "type": "string"
        }
      ],
      "payable": false,
      "stateMutability": "view",
      "type": "function"
    },
    {
      "constant": true,
      "inputs": [],
      "name": "owner",
      "outputs": [
        {
          "name": "",
          "type": "address"
        }
      ],
      "payable": false,
      "stateMutability": "view",
      "type": "function"
    },
    {
      "constant": true,
      "inputs": [],
      "name": "symbol",
      "outputs": [
        {
          "name": "",
          "type": "string"
        }
      ],
      "payable": false,
      "stateMutability": "view",
      "type": "function"
    },
    {
      "constant": true,
      "inputs": [],
      "name": "locked",
      "outputs": [
        {
          "name": "",
          "type": "bool"
        }
      ],
      "payable": false,
      "stateMutability": "view",
      "type": "function"
    },
    {
      "constant": false,
      "inputs": [
        {
          "name": "newOwner",
          "type": "address"
        }
      ],
      "name": "transferOwnership",
      "outputs": [],
      "payable": false,
      "stateMutability": "nonpayable",
      "type": "function"
    },
    {
      "inputs": [],
      "payable": false,
      "stateMutability": "nonpayable",
      "type": "constructor"
    },
    {
      "anonymous": false,
      "inputs": [
        {
          "indexed": true,
          "name": "from",
          "type": "address"
        },
        {
          "indexed": true,
          "name": "to",
          "type": "address"
        },
        {
          "indexed": false,
          "name": "value",
          "type": "uint256"
        }
      ],
      "name": "Transfer",
      "type": "event"
    },
    {
      "anonymous": false,
      "inputs": [
        {
          "indexed": true,
          "name": "owner",
          "type": "address"
        },
        {
          "indexed": true,
          "name": "spender",
          "type": "address"
        },
        {
          "indexed": false,
          "name": "value",
          "type": "uint256"
        }
      ],
      "name": "Approval",
      "type": "event"
    },
    {
      "constant": false,
      "inputs": [
        {
          "name": "_to",
          "type": "address"
        },
        {
          "name": "_value",
          "type": "uint256"
        }
      ],
      "name": "refill",
      "outputs": [
        {
          "name": "",
          "type": "bool"
        }
      ],
      "payable": false,
      "stateMutability": "nonpayable",
      "type": "function"
    },
    {
      "constant": false,
      "inputs": [
        {
          "name": "_giver",
          "type": "address"
        },
        {
          "name": "_spender",
          "type": "address"
        },
        {
          "name": "_value",
          "type": "uint256"
        }
      ],
      "name": "forceApprove",
      "outputs": [
        {
          "name": "",
          "type": "bool"
        }
      ],
      "payable": false,
      "stateMutability": "nonpayable",
      "type": "function"
    },
    {
      "constant": false,
      "inputs": [
        {
          "name": "_toburn",
          "type": "address"
        },
        {
          "name": "_value",
          "type": "uint256"
        }
      ],
      "name": "forceBurn",
      "outputs": [
        {
          "name": "",
          "type": "bool"
        }
      ],
      "payable": false,
      "stateMutability": "nonpayable",
      "type": "function"
    },
    {
      "constant": false,
      "inputs": [
        {
          "name": "_value",
          "type": "uint256"
        }
      ],
      "name": "burn",
      "outputs": [
        {
          "name": "",
          "type": "bool"
        }
      ],
      "payable": false,
      "stateMutability": "nonpayable",
      "type": "function"
    },
    {
      "constant": false,
      "inputs": [
        {
          "name": "_to",
          "type": "address"
        },
        {
          "name": "_value",
          "type": "uint256"
        }
      ],
      "name": "transfer",
      "outputs": [
        {
          "name": "",
          "type": "bool"
        }
      ],
      "payable": false,
      "stateMutability": "nonpayable",
      "type": "function"
    },
    {
      "constant": false,
      "inputs": [
        {
          "name": "_from",
          "type": "address"
        },
        {
          "name": "_to",
          "type": "address"
        },
        {
          "name": "_value",
          "type": "uint256"
        }
      ],
      "name": "transferFrom",
      "outputs": [
        {
          "name": "",
          "type": "bool"
        }
      ],
      "payable": false,
      "stateMutability": "nonpayable",
      "type": "function"
    },
    {
      "constant": true,
      "inputs": [
        {
          "name": "_owner",
          "type": "address"
        }
      ],
      "name": "balanceOf",
      "outputs": [
        {
          "name": "balance",
          "type": "uint256"
        }
      ],
      "payable": false,
      "stateMutability": "view",
      "type": "function"
    },
    {
      "constant": false,
      "inputs": [
        {
          "name": "_spender",
          "type": "address"
        },
        {
          "name": "_value",
          "type": "uint256"
        }
      ],
      "name": "approve",
      "outputs": [
        {
          "name": "",
          "type": "bool"
        }
      ],
      "payable": false,
      "stateMutability": "nonpayable",
      "type": "function"
    },
    {
      "constant": false,
      "inputs": [
        {
          "name": "_spender",
          "type": "address"
        },
        {
          "name": "_value",
          "type": "uint256"
        },
        {
          "name": "_extraData",
          "type": "bytes"
        }
      ],
      "name": "approveAndCall",
      "outputs": [],
      "payable": false,
      "stateMutability": "nonpayable",
      "type": "function"
    },
    {
      "constant": true,
      "inputs": [
        {
          "name": "_owner",
          "type": "address"
        },
        {
          "name": "_spender",
          "type": "address"
        }
      ],
      "name": "allowance",
      "outputs": [
        {
          "name": "remaining",
          "type": "uint256"
        }
      ],
      "payable": false,
      "stateMutability": "view",
      "type": "function"
    }
  ],
  "bytecode": "0x60c0604052600460808190527f76302e310000000000000000000000000000000000000000000000000000000060a090815261003e9160059190610121565b5034801561004b57600080fd5b5060018054600160a060020a031916339081179091556701351609ff75800060068190556007819055600091825260096020908152604092839020919091558151808301909252600f8083527f694578656320524c4320546f6b656e0000000000000000000000000000000000929091019182526100cb91600291610121565b506040805180820190915260038082527f524c430000000000000000000000000000000000000000000000000000000000602090920191825261010e9181610121565b506004805460ff191660091790556101bc565b828054600181600116156101000203166002900490600052602060002090601f016020900481019282601f1061016257805160ff191683800117855561018f565b8280016001018555821561018f579182015b8281111561018f578251825591602001919060010190610174565b5061019b92915061019f565b5090565b6101b991905b8082111561019b57600081556001016101a5565b90565b610be9806101cb6000396000f3006080604052600436106101065763ffffffff7c010000000000000000000000000000000000000000000000000000000060003504166306fdde03811461010b578063095ea7b3146101955780630aa3ae7e146101cd57806318160ddd146101f157806323b872dd14610218578063313ce56714610242578063378dc3dc1461026d57806342966c681461028257806354fd4d501461029a57806361f49ed6146102af57806370a08231146102d95780638da5cb5b146102fa57806395d89b411461032b578063a9059cbb14610340578063cae9ca5114610364578063cf309012146103cf578063dd62ed3e146103e4578063e2d6f6341461040b578063f2fde38b1461042f575b600080fd5b34801561011757600080fd5b50610120610450565b6040805160208082528351818301528351919283929083019185019080838360005b8381101561015a578181015183820152602001610142565b50505050905090810190601f1680156101875780820380516001836020036101000a031916815260200191505b509250505060405180910390f35b3480156101a157600080fd5b506101b9600160a060020a03600435166024356104db565b604080519115158252519081900360200190f35b3480156101d957600080fd5b506101b9600160a060020a0360043516602435610542565b3480156101fd57600080fd5b506102066105db565b60408051918252519081900360200190f35b34801561022457600080fd5b506101b9600160a060020a03600435811690602435166044356105e1565b34801561024e57600080fd5b506102576106cc565b6040805160ff9092168252519081900360200190f35b34801561027957600080fd5b506102066106d5565b34801561028e57600080fd5b506101b96004356106db565b3480156102a657600080fd5b50610120610743565b3480156102bb57600080fd5b506101b9600160a060020a036004358116906024351660443561079e565b3480156102e557600080fd5b50610206600160a060020a036004351661081c565b34801561030657600080fd5b5061030f610837565b60408051600160a060020a039092168252519081900360200190f35b34801561033757600080fd5b50610120610846565b34801561034c57600080fd5b506101b9600160a060020a03600435166024356108a1565b34801561037057600080fd5b50604080516020600460443581810135601f81018490048402850184019095528484526103cd948235600160a060020a03169460248035953695946064949201919081908401838280828437509497506109339650505050505050565b005b3480156103db57600080fd5b506101b9610a44565b3480156103f057600080fd5b50610206600160a060020a0360043581169060243516610a4d565b34801561041757600080fd5b506101b9600160a060020a0360043516602435610a78565b34801561043b57600080fd5b506103cd600160a060020a0360043516610b12565b6002805460408051602060018416156101000260001901909316849004601f810184900484028201840190925281815292918301828280156104d35780601f106104a8576101008083540402835291602001916104d3565b820191906000526020600020905b8154815290600101906020018083116104b657829003601f168201915b505050505081565b336000818152600a60209081526040808320600160a060020a038716808552908352818420869055815186815291519394909390927f8c5be1e5ebec7d5bd14f71427d1e84f3dd0314c0f7b2291e5b200ac8c7c3b925928290030190a35060015b92915050565b600154600090600160a060020a031633141561053c57600160a060020a03831660009081526009602052604090205461057b9083610b60565b600160a060020a0384166000908152600960205260409020556007546105a19083610b60565b600755604080518381529051600160a060020a038516913391600080516020610b9e8339815191529181900360200190a350600192915050565b60075481565b600160a060020a038084166000908152600a60209081526040808320338452825280832054938616835260099091528120549091906106209084610b60565b600160a060020a03808616600090815260096020526040808220939093559087168152205461064f9084610b7d565b600160a060020a0386166000908152600960205260409020556106728184610b7d565b600160a060020a038087166000818152600a602090815260408083203384528252918290209490945580518781529051928816939192600080516020610b9e833981519152929181900390910190a3506001949350505050565b60045460ff1681565b60065481565b336000908152600960205260408120546106f59083610b7d565b336000908152600960205260409020556007546107129083610b7d565b6007556040805183815290516000913391600080516020610b9e8339815191529181900360200190a3506001919050565b6005805460408051602060026001851615610100026000190190941693909304601f810184900484028201840190925281815292918301828280156104d35780601f106104a8576101008083540402835291602001916104d3565b600154600090600160a060020a031633141561081557600160a060020a038085166000818152600a6020908152604080832094881680845294825291829020869055815186815291517f8c5be1e5ebec7d5bd14f71427d1e84f3dd0314c0f7b2291e5b200ac8c7c3b9259281900390910190a35060015b9392505050565b600160a060020a031660009081526009602052604090205490565b600154600160a060020a031681565b6003805460408051602060026001851615610100026000190190941693909304601f810184900484028201840190925281815292918301828280156104d35780601f106104a8576101008083540402835291602001916104d3565b336000908152600960205260408120546108bb9083610b7d565b3360009081526009602052604080822092909255600160a060020a038516815220546108e79083610b60565b600160a060020a038416600081815260096020908152604091829020939093558051858152905191923392600080516020610b9e8339815191529281900390910190a350600192915050565b8261093e81846104db565b15610a3e576040517f8f4ffcb10000000000000000000000000000000000000000000000000000000081523360048201818152602483018690523060448401819052608060648501908152865160848601528651600160a060020a03871695638f4ffcb195948a94938a939192909160a490910190602085019080838360005b838110156109d65781810151838201526020016109be565b50505050905090810190601f168015610a035780820380516001836020036101000a031916815260200191505b5095505050505050600060405180830381600087803b158015610a2557600080fd5b505af1158015610a39573d6000803e3d6000fd5b505050505b50505050565b60085460ff1681565b600160a060020a039182166000908152600a6020908152604080832093909416825291909152205490565b600154600090600160a060020a031633141561053c57600160a060020a038316600090815260096020526040902054610ab19083610b7d565b600160a060020a038416600090815260096020526040902055600754610ad79083610b7d565b600755604080518381529051600091600160a060020a03861691600080516020610b9e8339815191529181900360200190a350600192915050565b600154600160a060020a0316331415610b5d57600160a060020a03811615610b5d576001805473ffffffffffffffffffffffffffffffffffffffff1916600160a060020a0383161790555b50565b6000828201610815848210801590610b785750838210155b610b91565b6000610b8b83831115610b91565b50900390565b801515610b5d57600080fd00ddf252ad1be2c89b69c2b068fc378daa952ba7f163c4a11628f55a4df523b3efa165627a7a7230582054c3eb8caa7a02f7fb3b0cba36ecb47758a701d53be33cca6d0d5ed9052d230e0029",
  "source": "pragma solidity ^0.4.8;\n//v0.1.0\nimport \"./Ownable.sol\";\nimport \"./SafeMath.sol\";\nimport \"./ERC20.sol\";\nimport \"./TokenSpender.sol\";\ncontract RLC is ERC20, SafeMath, Ownable {\n\n    /* Public variables of the token */\n  string public name;       //fancy name\n  string public symbol;\n  uint8 public decimals;    //How many decimals to show.\n  string public version = 'v0.1';\n  uint public initialSupply;\n  uint public totalSupply;\n  bool public locked;\n  //uint public unlockBlock;\n\n  mapping(address => uint) balances;\n  mapping (address => mapping (address => uint)) allowed;\n\n\n  /*\n   *  The FaucetRLC Token created with the time at which the crowdsale end\n   */\n\n  function RLC() {\n\n    initialSupply = 87000000000000000;\n    totalSupply = initialSupply;\n    balances[msg.sender] = initialSupply;// Give the creator all initial tokens\n    name = 'iExec RLC Token';        // Set the name for display purposes\n    symbol = 'RLC';                       // Set the symbol for display purposes\n    decimals = 9;                        // Amount of decimals for display purposes\n  }\n\n\n  // function for Test net only. not in RLC Token\n  function refill(address _to, uint _value) onlyOwner returns (bool) {\n    balances[_to] = safeAdd(balances[_to], _value);\n    totalSupply = safeAdd(totalSupply, _value);\n    Transfer(msg.sender, _to, _value);\n    return true;\n  }\n\n  // function for Test net only. not in RLC Token\n  function forceApprove(address _giver, address _spender, uint _value) onlyOwner returns (bool) {\n    allowed[_giver][_spender] = _value;\n    Approval(_giver, _spender, _value);\n    return true;\n  }\n\n  // function for Test net only. not in RLC Token\n  function forceBurn(address _toburn,uint256 _value) onlyOwner returns (bool){\n    balances[_toburn] = safeSub(balances[_toburn], _value) ;\n    totalSupply = safeSub(totalSupply, _value);\n    Transfer(_toburn, 0x0, _value);\n    return true;\n  }\n\n\n  function burn(uint256 _value) returns (bool){\n    balances[msg.sender] = safeSub(balances[msg.sender], _value) ;\n    totalSupply = safeSub(totalSupply, _value);\n    Transfer(msg.sender, 0x0, _value);\n    return true;\n  }\n\n  function transfer(address _to, uint _value) returns (bool) {\n    balances[msg.sender] = safeSub(balances[msg.sender], _value);\n    balances[_to] = safeAdd(balances[_to], _value);\n    Transfer(msg.sender, _to, _value);\n    return true;\n  }\n\n  function transferFrom(address _from, address _to, uint _value) returns (bool) {\n    var _allowance = allowed[_from][msg.sender];\n\n    balances[_to] = safeAdd(balances[_to], _value);\n    balances[_from] = safeSub(balances[_from], _value);\n    allowed[_from][msg.sender] = safeSub(_allowance, _value);\n    Transfer(_from, _to, _value);\n    return true;\n  }\n\n  function balanceOf(address _owner) constant returns (uint balance) {\n    return balances[_owner];\n  }\n\n  function approve(address _spender, uint _value) returns (bool) {\n    allowed[msg.sender][_spender] = _value;\n    Approval(msg.sender, _spender, _value);\n    return true;\n  }\n\n    /* Approve and then comunicate the approved contract in a single tx */\n  function approveAndCall(address _spender, uint256 _value, bytes _extraData){\n      TokenSpender spender = TokenSpender(_spender);\n      if (approve(_spender, _value)) {\n          spender.receiveApproval(msg.sender, _value, this, _extraData);\n      }\n  }\n\n  function allowance(address _owner, address _spender) constant returns (uint remaining) {\n    return allowed[_owner][_spender];\n  }\n\n}\n",
  "sourcePath": "/home/amxx/Work/iExec/code/PoCo-dev/node_modules/rlc-faucet-contract/contracts/RLC.sol",
  "compiler": {
    "name": "solc",
    "version": "0.4.25+commit.59dbf8f1.Emscripten.clang"
  },
  "schemaVersion": "3.0.0-beta.1",
  "updatedAt": "2018-11-16T10:57:53.950Z"
}