{
  "contractName": "RLC",
  "abi": [
    {
      "constant": true,
      "inputs": [],
      "name": "name",
      "outputs": [
        {
          "name": "",
          "type": "string"
        }
      ],
      "payable": false,
      "stateMutability": "view",
      "type": "function",
      "signature": "0x06fdde03"
    },
    {
      "constant": true,
      "inputs": [],
      "name": "totalSupply",
      "outputs": [
        {
          "name": "",
          "type": "uint256"
        }
      ],
      "payable": false,
      "stateMutability": "view",
      "type": "function",
      "signature": "0x18160ddd"
    },
    {
      "constant": true,
      "inputs": [],
      "name": "decimals",
      "outputs": [
        {
          "name": "",
          "type": "uint8"
        }
      ],
      "payable": false,
      "stateMutability": "view",
      "type": "function",
      "signature": "0x313ce567"
    },
    {
      "constant": true,
      "inputs": [],
      "name": "initialSupply",
      "outputs": [
        {
          "name": "",
          "type": "uint256"
        }
      ],
      "payable": false,
      "stateMutability": "view",
      "type": "function",
      "signature": "0x378dc3dc"
    },
    {
      "constant": true,
      "inputs": [],
      "name": "version",
      "outputs": [
        {
          "name": "",
          "type": "string"
        }
      ],
      "payable": false,
      "stateMutability": "view",
      "type": "function",
      "signature": "0x54fd4d50"
    },
    {
      "constant": true,
      "inputs": [],
      "name": "owner",
      "outputs": [
        {
          "name": "",
          "type": "address"
        }
      ],
      "payable": false,
      "stateMutability": "view",
      "type": "function",
      "signature": "0x8da5cb5b"
    },
    {
      "constant": true,
      "inputs": [],
      "name": "symbol",
      "outputs": [
        {
          "name": "",
          "type": "string"
        }
      ],
      "payable": false,
      "stateMutability": "view",
      "type": "function",
      "signature": "0x95d89b41"
    },
    {
      "constant": true,
      "inputs": [],
      "name": "locked",
      "outputs": [
        {
          "name": "",
          "type": "bool"
        }
      ],
      "payable": false,
      "stateMutability": "view",
      "type": "function",
      "signature": "0xcf309012"
    },
    {
      "constant": false,
      "inputs": [
        {
          "name": "newOwner",
          "type": "address"
        }
      ],
      "name": "transferOwnership",
      "outputs": [],
      "payable": false,
      "stateMutability": "nonpayable",
      "type": "function",
      "signature": "0xf2fde38b"
    },
    {
      "inputs": [],
      "payable": false,
      "stateMutability": "nonpayable",
      "type": "constructor",
      "signature": "constructor"
    },
    {
      "anonymous": false,
      "inputs": [
        {
          "indexed": true,
          "name": "from",
          "type": "address"
        },
        {
          "indexed": true,
          "name": "to",
          "type": "address"
        },
        {
          "indexed": false,
          "name": "value",
          "type": "uint256"
        }
      ],
      "name": "Transfer",
      "type": "event",
      "signature": "0xddf252ad1be2c89b69c2b068fc378daa952ba7f163c4a11628f55a4df523b3ef"
    },
    {
      "anonymous": false,
      "inputs": [
        {
          "indexed": true,
          "name": "owner",
          "type": "address"
        },
        {
          "indexed": true,
          "name": "spender",
          "type": "address"
        },
        {
          "indexed": false,
          "name": "value",
          "type": "uint256"
        }
      ],
      "name": "Approval",
      "type": "event",
      "signature": "0x8c5be1e5ebec7d5bd14f71427d1e84f3dd0314c0f7b2291e5b200ac8c7c3b925"
    },
    {
      "constant": false,
      "inputs": [
        {
          "name": "_to",
          "type": "address"
        },
        {
          "name": "_value",
          "type": "uint256"
        }
      ],
      "name": "refill",
      "outputs": [
        {
          "name": "",
          "type": "bool"
        }
      ],
      "payable": false,
      "stateMutability": "nonpayable",
      "type": "function",
      "signature": "0x0aa3ae7e"
    },
    {
      "constant": false,
      "inputs": [
        {
          "name": "_giver",
          "type": "address"
        },
        {
          "name": "_spender",
          "type": "address"
        },
        {
          "name": "_value",
          "type": "uint256"
        }
      ],
      "name": "forceApprove",
      "outputs": [
        {
          "name": "",
          "type": "bool"
        }
      ],
      "payable": false,
      "stateMutability": "nonpayable",
      "type": "function",
      "signature": "0x61f49ed6"
    },
    {
      "constant": false,
      "inputs": [
        {
          "name": "_toburn",
          "type": "address"
        },
        {
          "name": "_value",
          "type": "uint256"
        }
      ],
      "name": "forceBurn",
      "outputs": [
        {
          "name": "",
          "type": "bool"
        }
      ],
      "payable": false,
      "stateMutability": "nonpayable",
      "type": "function",
      "signature": "0xe2d6f634"
    },
    {
      "constant": false,
      "inputs": [
        {
          "name": "_value",
          "type": "uint256"
        }
      ],
      "name": "burn",
      "outputs": [
        {
          "name": "",
          "type": "bool"
        }
      ],
      "payable": false,
      "stateMutability": "nonpayable",
      "type": "function",
      "signature": "0x42966c68"
    },
    {
      "constant": false,
      "inputs": [
        {
          "name": "_to",
          "type": "address"
        },
        {
          "name": "_value",
          "type": "uint256"
        }
      ],
      "name": "transfer",
      "outputs": [
        {
          "name": "",
          "type": "bool"
        }
      ],
      "payable": false,
      "stateMutability": "nonpayable",
      "type": "function",
      "signature": "0xa9059cbb"
    },
    {
      "constant": false,
      "inputs": [
        {
          "name": "_from",
          "type": "address"
        },
        {
          "name": "_to",
          "type": "address"
        },
        {
          "name": "_value",
          "type": "uint256"
        }
      ],
      "name": "transferFrom",
      "outputs": [
        {
          "name": "",
          "type": "bool"
        }
      ],
      "payable": false,
      "stateMutability": "nonpayable",
      "type": "function",
      "signature": "0x23b872dd"
    },
    {
      "constant": true,
      "inputs": [
        {
          "name": "_owner",
          "type": "address"
        }
      ],
      "name": "balanceOf",
      "outputs": [
        {
          "name": "balance",
          "type": "uint256"
        }
      ],
      "payable": false,
      "stateMutability": "view",
      "type": "function",
      "signature": "0x70a08231"
    },
    {
      "constant": false,
      "inputs": [
        {
          "name": "_spender",
          "type": "address"
        },
        {
          "name": "_value",
          "type": "uint256"
        }
      ],
      "name": "approve",
      "outputs": [
        {
          "name": "",
          "type": "bool"
        }
      ],
      "payable": false,
      "stateMutability": "nonpayable",
      "type": "function",
      "signature": "0x095ea7b3"
    },
    {
      "constant": false,
      "inputs": [
        {
          "name": "_spender",
          "type": "address"
        },
        {
          "name": "_value",
          "type": "uint256"
        },
        {
          "name": "_extraData",
          "type": "bytes"
        }
      ],
      "name": "approveAndCall",
      "outputs": [],
      "payable": false,
      "stateMutability": "nonpayable",
      "type": "function",
      "signature": "0xcae9ca51"
    },
    {
      "constant": true,
      "inputs": [
        {
          "name": "_owner",
          "type": "address"
        },
        {
          "name": "_spender",
          "type": "address"
        }
      ],
      "name": "allowance",
      "outputs": [
        {
          "name": "remaining",
          "type": "uint256"
        }
      ],
      "payable": false,
      "stateMutability": "view",
      "type": "function",
      "signature": "0xdd62ed3e"
    }
  ],
  "bytecode": "0x60c0604052600460808190527f76302e310000000000000000000000000000000000000000000000000000000060a090815261003e9160059190610121565b5034801561004b57600080fd5b5060018054600160a060020a031916339081179091556701351609ff75800060068190556007819055600091825260096020908152604092839020919091558151808301909252600f8083527f694578656320524c4320546f6b656e0000000000000000000000000000000000929091019182526100cb91600291610121565b506040805180820190915260038082527f524c430000000000000000000000000000000000000000000000000000000000602090920191825261010e9181610121565b506004805460ff191660091790556101bc565b828054600181600116156101000203166002900490600052602060002090601f016020900481019282601f1061016257805160ff191683800117855561018f565b8280016001018555821561018f579182015b8281111561018f578251825591602001919060010190610174565b5061019b92915061019f565b5090565b6101b991905b8082111561019b57600081556001016101a5565b90565b610d2d80620001cc6000396000f3fe6080604052600436106101065763ffffffff7c010000000000000000000000000000000000000000000000000000000060003504166306fdde03811461010b578063095ea7b3146101955780630aa3ae7e146101e257806318160ddd1461021b57806323b872dd14610242578063313ce56714610285578063378dc3dc146102b057806342966c68146102c557806354fd4d50146102ef57806361f49ed61461030457806370a08231146103475780638da5cb5b1461037a57806395d89b41146103ab578063a9059cbb146103c0578063cae9ca51146103f9578063cf309012146104c3578063dd62ed3e146104d8578063e2d6f63414610513578063f2fde38b1461054c575b600080fd5b34801561011757600080fd5b5061012061057f565b6040805160208082528351818301528351919283929083019185019080838360005b8381101561015a578181015183820152602001610142565b50505050905090810190601f1680156101875780820380516001836020036101000a031916815260200191505b509250505060405180910390f35b3480156101a157600080fd5b506101ce600480360360408110156101b857600080fd5b50600160a060020a03813516906020013561060a565b604080519115158252519081900360200190f35b3480156101ee57600080fd5b506101ce6004803603604081101561020557600080fd5b50600160a060020a038135169060200135610670565b34801561022757600080fd5b5061023061070d565b60408051918252519081900360200190f35b34801561024e57600080fd5b506101ce6004803603606081101561026557600080fd5b50600160a060020a03813581169160208101359091169060400135610713565b34801561029157600080fd5b5061029a6107fe565b6040805160ff9092168252519081900360200190f35b3480156102bc57600080fd5b50610230610807565b3480156102d157600080fd5b506101ce600480360360208110156102e857600080fd5b503561080d565b3480156102fb57600080fd5b50610120610875565b34801561031057600080fd5b506101ce6004803603606081101561032757600080fd5b50600160a060020a038135811691602081013590911690604001356108d0565b34801561035357600080fd5b506102306004803603602081101561036a57600080fd5b5035600160a060020a0316610951565b34801561038657600080fd5b5061038f61096c565b60408051600160a060020a039092168252519081900360200190f35b3480156103b757600080fd5b5061012061097b565b3480156103cc57600080fd5b506101ce600480360360408110156103e357600080fd5b50600160a060020a0381351690602001356109d6565b34801561040557600080fd5b506104c16004803603606081101561041c57600080fd5b600160a060020a038235169160208101359181019060608101604082013564010000000081111561044c57600080fd5b82018360208201111561045e57600080fd5b8035906020019184600183028401116401000000008311171561048057600080fd5b91908080601f016020809104026020016040519081016040528093929190818152602001838380828437600092019190915250929550610a68945050505050565b005b3480156104cf57600080fd5b506101ce610b79565b3480156104e457600080fd5b50610230600480360360408110156104fb57600080fd5b50600160a060020a0381358116916020013516610b82565b34801561051f57600080fd5b506101ce6004803603604081101561053657600080fd5b50600160a060020a038135169060200135610bad565b34801561055857600080fd5b506104c16004803603602081101561056f57600080fd5b5035600160a060020a0316610c4b565b6002805460408051602060018416156101000260001901909316849004601f810184900484028201840190925281815292918301828280156106025780601f106105d757610100808354040283529160200191610602565b820191906000526020600020905b8154815290600101906020018083116105e557829003601f168201915b505050505081565b336000818152600a60209081526040808320600160a060020a038716808552908352818420869055815186815291519394909390927f8c5be1e5ebec7d5bd14f71427d1e84f3dd0314c0f7b2291e5b200ac8c7c3b925928290030190a350600192915050565b600154600090600160a060020a0316331461068a57600080fd5b600160a060020a0383166000908152600960205260409020546106ad9083610c9d565b600160a060020a0384166000908152600960205260409020556007546106d39083610c9d565b600755604080518381529051600160a060020a038516913391600080516020610ce28339815191529181900360200190a350600192915050565b60075481565b600160a060020a038084166000908152600a60209081526040808320338452825280832054938616835260099091528120549091906107529084610c9d565b600160a060020a0380861660009081526009602052604080822093909355908716815220546107819084610cc1565b600160a060020a0386166000908152600960205260409020556107a48184610cc1565b600160a060020a038087166000818152600a602090815260408083203384528252918290209490945580518781529051928816939192600080516020610ce2833981519152929181900390910190a3506001949350505050565b60045460ff1681565b60065481565b336000908152600960205260408120546108279083610cc1565b336000908152600960205260409020556007546108449083610cc1565b6007556040805183815290516000913391600080516020610ce28339815191529181900360200190a3506001919050565b6005805460408051602060026001851615610100026000190190941693909304601f810184900484028201840190925281815292918301828280156106025780601f106105d757610100808354040283529160200191610602565b600154600090600160a060020a031633146108ea57600080fd5b600160a060020a038085166000818152600a6020908152604080832094881680845294825291829020869055815186815291517f8c5be1e5ebec7d5bd14f71427d1e84f3dd0314c0f7b2291e5b200ac8c7c3b9259281900390910190a35060019392505050565b600160a060020a031660009081526009602052604090205490565b600154600160a060020a031681565b6003805460408051602060026001851615610100026000190190941693909304601f810184900484028201840190925281815292918301828280156106025780601f106105d757610100808354040283529160200191610602565b336000908152600960205260408120546109f09083610cc1565b3360009081526009602052604080822092909255600160a060020a03851681522054610a1c9083610c9d565b600160a060020a038416600081815260096020908152604091829020939093558051858152905191923392600080516020610ce28339815191529281900390910190a350600192915050565b82610a73818461060a565b15610b73576040517f8f4ffcb10000000000000000000000000000000000000000000000000000000081523360048201818152602483018690523060448401819052608060648501908152865160848601528651600160a060020a03871695638f4ffcb195948a94938a939192909160a490910190602085019080838360005b83811015610b0b578181015183820152602001610af3565b50505050905090810190601f168015610b385780820380516001836020036101000a031916815260200191505b5095505050505050600060405180830381600087803b158015610b5a57600080fd5b505af1158015610b6e573d6000803e3d6000fd5b505050505b50505050565b60085460ff1681565b600160a060020a039182166000908152600a6020908152604080832093909416825291909152205490565b600154600090600160a060020a03163314610bc757600080fd5b600160a060020a038316600090815260096020526040902054610bea9083610cc1565b600160a060020a038416600090815260096020526040902055600754610c109083610cc1565b600755604080518381529051600091600160a060020a03861691600080516020610ce28339815191529181900360200190a350600192915050565b600154600160a060020a03163314610c6257600080fd5b600160a060020a03811615610c9a576001805473ffffffffffffffffffffffffffffffffffffffff1916600160a060020a0383161790555b50565b6000828201610cba848210801590610cb55750838210155b610cd5565b9392505050565b6000610ccf83831115610cd5565b50900390565b801515610c9a57600080fdfeddf252ad1be2c89b69c2b068fc378daa952ba7f163c4a11628f55a4df523b3efa165627a7a7230582013d8a1fc92b8040b19934ef1251ee47bb490cccebf43b05e2c73d49815fc1f0d0029",
  "source": "pragma solidity ^0.5.0;\n//v0.1.0\nimport \"./Ownable.sol\";\nimport \"./SafeMath.sol\";\nimport \"./ERC20.sol\";\nimport \"./TokenSpender.sol\";\ncontract RLC is ERC20, SafeMath, Ownable {\n\n    /* Public variables of the token */\n  string public name;       //fancy name\n  string public symbol;\n  uint8 public decimals;    //How many decimals to show.\n  string public version = 'v0.1';\n  uint public initialSupply;\n  uint public totalSupply;\n  bool public locked;\n  //uint public unlockBlock;\n\n  mapping(address => uint) balances;\n  mapping (address => mapping (address => uint)) allowed;\n\n\n  /*\n   *  The FaucetRLC Token created with the time at which the crowdsale end\n   */\n\n  constructor() public {\n    initialSupply = 87000000000000000;\n    totalSupply = initialSupply;\n    balances[msg.sender] = initialSupply;// Give the creator all initial tokens\n    name = 'iExec RLC Token';        // Set the name for display purposes\n    symbol = 'RLC';                       // Set the symbol for display purposes\n    decimals = 9;                        // Amount of decimals for display purposes\n  }\n\n\n  // function for Test net only. not in RLC Token\n  function refill(address _to, uint _value) public onlyOwner returns (bool) {\n    balances[_to] = safeAdd(balances[_to], _value);\n    totalSupply = safeAdd(totalSupply, _value);\n    emit Transfer(msg.sender, _to, _value);\n    return true;\n  }\n\n  // function for Test net only. not in RLC Token\n  function forceApprove(address _giver, address _spender, uint _value) public onlyOwner returns (bool) {\n    allowed[_giver][_spender] = _value;\n    emit Approval(_giver, _spender, _value);\n    return true;\n  }\n\n  // function for Test net only. not in RLC Token\n  function forceBurn(address _toburn,uint256 _value) public onlyOwner returns (bool) {\n    balances[_toburn] = safeSub(balances[_toburn], _value) ;\n    totalSupply = safeSub(totalSupply, _value);\n    emit Transfer(_toburn, address(0), _value);\n    return true;\n  }\n\n\n  function burn(uint256 _value) public returns (bool) {\n    balances[msg.sender] = safeSub(balances[msg.sender], _value) ;\n    totalSupply = safeSub(totalSupply, _value);\n    emit Transfer(msg.sender, address(0), _value);\n    return true;\n  }\n\n  function transfer(address _to, uint _value) public returns (bool) {\n    balances[msg.sender] = safeSub(balances[msg.sender], _value);\n    balances[_to] = safeAdd(balances[_to], _value);\n    emit Transfer(msg.sender, _to, _value);\n    return true;\n  }\n\n  function transferFrom(address _from, address _to, uint _value) public returns (bool) {\n    uint _allowance = allowed[_from][msg.sender];\n\n    balances[_to] = safeAdd(balances[_to], _value);\n    balances[_from] = safeSub(balances[_from], _value);\n    allowed[_from][msg.sender] = safeSub(_allowance, _value);\n    emit Transfer(_from, _to, _value);\n    return true;\n  }\n\n  function balanceOf(address _owner) public view returns (uint balance) {\n    return balances[_owner];\n  }\n\n  function approve(address _spender, uint _value) public returns (bool) {\n    allowed[msg.sender][_spender] = _value;\n    emit Approval(msg.sender, _spender, _value);\n    return true;\n  }\n\n    /* Approve and then comunicate the approved contract in a single tx */\n  function approveAndCall(address _spender, uint256 _value, bytes memory _extraData) public {\n      TokenSpender spender = TokenSpender(_spender);\n      if (approve(_spender, _value)) {\n          spender.receiveApproval(msg.sender, _value, address(this), _extraData);\n      }\n  }\n\n  function allowance(address _owner, address _spender) public view returns (uint remaining) {\n    return allowed[_owner][_spender];\n  }\n\n}\n",
  "sourcePath": "/home/amxx/Work/iExec/code/PoCo-dev/node_modules/rlc-faucet-contract/contracts/RLC.sol",
  "compiler": {
    "name": "solc",
    "version": "0.5.0+commit.1d4f565a.Emscripten.clang"
  },
  "schemaVersion": "3.0.0",
  "updatedAt": "2019-01-04T10:58:29.706Z",
  "devdoc": {
    "methods": {}
  },
  "userdoc": {
    "methods": {}
  }
}