{
  "contractName": "SimpleGroup",
  "abi": [
    {
      "constant": true,
      "inputs": [
        {
          "name": "",
          "type": "address"
        }
      ],
      "name": "m_permissions",
      "outputs": [
        {
          "name": "",
          "type": "bytes1"
        }
      ],
      "payable": false,
      "stateMutability": "view",
      "type": "function"
    },
    {
      "constant": true,
      "inputs": [],
      "name": "m_owner",
      "outputs": [
        {
          "name": "",
          "type": "address"
        }
      ],
      "payable": false,
      "stateMutability": "view",
      "type": "function"
    },
    {
      "constant": false,
      "inputs": [
        {
          "name": "_newOwner",
          "type": "address"
        }
      ],
      "name": "transferOwnership",
      "outputs": [],
      "payable": false,
      "stateMutability": "nonpayable",
      "type": "function"
    },
    {
      "inputs": [],
      "payable": false,
      "stateMutability": "nonpayable",
      "type": "constructor"
    },
    {
      "anonymous": false,
      "inputs": [
        {
          "indexed": false,
          "name": "previousOwner",
          "type": "address"
        },
        {
          "indexed": false,
          "name": "newOwner",
          "type": "address"
        }
      ],
      "name": "OwnershipTransferred",
      "type": "event"
    },
    {
      "constant": false,
      "inputs": [
        {
          "name": "_user",
          "type": "address"
        },
        {
          "name": "_permissions",
          "type": "bytes1"
        }
      ],
      "name": "setPermissions",
      "outputs": [
        {
          "name": "",
          "type": "bytes1"
        }
      ],
      "payable": false,
      "stateMutability": "nonpayable",
      "type": "function"
    },
    {
      "constant": false,
      "inputs": [
        {
          "name": "_user",
          "type": "address"
        },
        {
          "name": "_permissions",
          "type": "bytes1"
        }
      ],
      "name": "addPermissions",
      "outputs": [
        {
          "name": "",
          "type": "bytes1"
        }
      ],
      "payable": false,
      "stateMutability": "nonpayable",
      "type": "function"
    },
    {
      "constant": false,
      "inputs": [
        {
          "name": "_user",
          "type": "address"
        },
        {
          "name": "_permissions",
          "type": "bytes1"
        }
      ],
      "name": "remPermissions",
      "outputs": [
        {
          "name": "",
          "type": "bytes1"
        }
      ],
      "payable": false,
      "stateMutability": "nonpayable",
      "type": "function"
    },
    {
      "constant": true,
      "inputs": [
        {
          "name": "_user",
          "type": "address"
        }
      ],
      "name": "viewPermissions",
      "outputs": [
        {
          "name": "",
          "type": "bytes1"
        }
      ],
      "payable": false,
      "stateMutability": "view",
      "type": "function"
    }
  ],
  "bytecode": "0x608060405234801561001057600080fd5b5060008054600160a060020a031916331790556104f6806100326000396000f3fe6080604052600436106100825763ffffffff7c01000000000000000000000000000000000000000000000000000000006000350416632c9576fd81146100875780633f7b9c73146100bd5780635390c16e146100dd5780637ad8f72d146100fd578063c18f17631461011d578063deff41c11461013d578063f2fde38b1461015f575b600080fd5b34801561009357600080fd5b506100a76100a23660046103f7565b610181565b6040516100b49190610472565b60405180910390f35b3480156100c957600080fd5b506100a76100d83660046103f7565b6101f2565b3480156100e957600080fd5b506100a76100f83660046103d1565b610262565b34801561010957600080fd5b506100a76101183660046103d1565b61027a565b34801561012957600080fd5b506100a76101383660046103f7565b61029b565b34801561014957600080fd5b50610152610301565b6040516100b49190610449565b34801561016b57600080fd5b5061017f61017a3660046103d1565b610310565b005b60008054600160a060020a03163314806101a9575061019f3361027a565b60fa60020a908116145b15156101b457600080fd5b50600160a060020a0382166000908152600160205260409020805460ff19811660f860020a8419928102929092168290041791829055025b92915050565b60008054600160a060020a031633148061021a57506102103361027a565b60fa60020a908116145b151561022557600080fd5b50600160a060020a0382166000908152600160205260409020805460f860020a808202841781900460ff1990921691909117918290550292915050565b60016020526000908152604090205460f860020a0281565b600160a060020a031660009081526001602052604090205460f860020a0290565b60008054600160a060020a03163314806102c357506102b93361027a565b60fa60020a908116145b15156102ce57600080fd5b50600160a060020a03919091166000908152600160205260409020805460ff191660f860020a9283900417908190550290565b600054600160a060020a031681565b600054600160a060020a0316331461032757600080fd5b600160a060020a038116151561033c57600080fd5b6000546040517f8be0079c531659141344cd1fd0a4f28419497f9722a3daafe3b4186f6b6457e09161037b91600160a060020a03909116908490610457565b60405180910390a16000805473ffffffffffffffffffffffffffffffffffffffff1916600160a060020a0392909216919091179055565b60006103be8235610480565b9392505050565b60006103be823561048b565b6000602082840312156103e357600080fd5b60006103ef84846103b2565b949350505050565b6000806040838503121561040a57600080fd5b600061041685856103b2565b9250506020610427858286016103c5565b9150509250929050565b61043a81610480565b82525050565b61043a8161048b565b602081016101ec8284610431565b604081016104658285610431565b6103be6020830184610431565b602081016101ec8284610440565b60006101ec826104b0565b7fff000000000000000000000000000000000000000000000000000000000000001690565b600160a060020a03169056fea265627a7a723058201ef7ce7cda25cd8da70f834dffefe1ef0e611e87046dff48dd6f6fe0bb67faa86c6578706572696d656e74616cf50037",
  "source": "pragma solidity ^0.5.0;\npragma experimental ABIEncoderV2;\n\nimport './GroupInterface.sol';\nimport '../tools/Ownable.sol';\n\ncontract SimpleGroup is GroupInterface, OwnableMutable\n{\n\t/**\n\t * Content\n\t */\n\tmapping(address => bytes1) public m_permissions;\n\n\tmodifier onlyAdmin()\n\t{\n\t\trequire(msg.sender == m_owner || viewPermissions(msg.sender) & 0x04 == 0x04 /* IexecPermission.ADMIN */);\n\t\t_;\n\t}\n\n\t/**\n\t * Constructor\n\t */\n\tconstructor() public {}\n\n\tfunction setPermissions(address _user, bytes1 _permissions)\n\tpublic onlyAdmin returns (bytes1)\n\t{\n\t\tm_permissions[_user] = _permissions;\n\t\treturn m_permissions[_user];\n\t}\n\tfunction addPermissions(address _user, bytes1 _permissions)\n\tpublic onlyAdmin returns (bytes1)\n\t{\n\t\tm_permissions[_user] = m_permissions[_user] | _permissions;\n\t\treturn m_permissions[_user];\n\t}\n\tfunction remPermissions(address _user, bytes1 _permissions)\n\tpublic onlyAdmin returns (bytes1)\n\t{\n\t\tm_permissions[_user] = m_permissions[_user] & ~_permissions;\n\t\treturn m_permissions[_user];\n\t}\n\tfunction viewPermissions(address _user)\n\tpublic view returns (bytes1)\n\t{\n\t\treturn m_permissions[_user];\n\t}\n}\n",
  "sourcePath": "/home/amxx/Work/iExec/code/PoCo-dev/contracts/permissions/SimpleGroup.sol",
  "compiler": {
    "name": "solc",
    "version": "0.5.0+commit.1d4f565a.Emscripten.clang"
  },
  "schemaVersion": "3.0.0",
  "updatedAt": "2019-01-03T12:57:44.522Z",
  "devdoc": {
    "methods": {
      "transferOwnership(address)": {
        "details": "Allows the current owner to transfer control of the contract to a newOwner.",
        "params": {
          "_newOwner": "The address to transfer ownership to."
        }
      }
    }
  },
  "userdoc": {
    "methods": {
      "constructor": "Constructor"
    }
  }
}