{
  "contractName": "SMSDirectory",
  "abi": [
    {
      "inputs": [],
      "payable": false,
      "stateMutability": "nonpayable",
      "type": "constructor",
      "signature": "constructor"
    },
    {
      "constant": true,
      "inputs": [
        {
          "name": "_ressource",
          "type": "address"
        }
      ],
      "name": "getSMS",
      "outputs": [
        {
          "name": "",
          "type": "bytes"
        }
      ],
      "payable": false,
      "stateMutability": "view",
      "type": "function",
      "signature": "0x307a7a5a"
    },
    {
      "constant": false,
      "inputs": [
        {
          "name": "_ressource",
          "type": "address"
        },
        {
          "name": "_sms",
          "type": "bytes"
        }
      ],
      "name": "setSMS",
      "outputs": [],
      "payable": false,
      "stateMutability": "nonpayable",
      "type": "function",
      "signature": "0x5061e52d"
    }
  ],
  "bytecode": "0x608060405234801561001057600080fd5b506104ad806100206000396000f3fe60806040526004361061004b5763ffffffff7c0100000000000000000000000000000000000000000000000000000000600035041663307a7a5a81146100505780635061e52d14610086575b600080fd5b34801561005c57600080fd5b5061007061006b36600461033c565b6100a8565b60405161007d919061040b565b60405180910390f35b34801561009257600080fd5b506100a66100a1366004610380565b610151565b005b600160a060020a0381166000908152602081815260409182902080548351601f60026000196101006001861615020190931692909204918201849004840281018401909452808452606093928301828280156101455780601f1061011a57610100808354040283529160200191610145565b820191906000526020600020905b81548152906001019060200180831161012857829003601f168201915b50505050509050919050565b600160a060020a038316331480610205575033600160a060020a031683600160a060020a031663deff41c16040518163ffffffff167c010000000000000000000000000000000000000000000000000000000002815260040160206040518083038186803b1580156101c257600080fd5b505afa1580156101d6573d6000803e3d6000fd5b505050506040513d601f19601f820116820180604052506101fa9190810190610362565b600160a060020a0316145b151561021057600080fd5b600160a060020a0383166000908152602081905260409020610233908383610239565b50505050565b828054600181600116156101000203166002900490600052602060002090601f016020900481019282601f1061027a5782800160ff198235161785556102a7565b828001600101855582156102a7579182015b828111156102a757823582559160200191906001019061028c565b506102b39291506102b7565b5090565b6102d191905b808211156102b357600081556001016102bd565b90565b60006102e0823561042c565b9392505050565b60006102e0825161042c565b600080601f8301841361030557600080fd5b50813567ffffffffffffffff81111561031d57600080fd5b60208301915083600182028301111561033557600080fd5b9250929050565b60006020828403121561034e57600080fd5b600061035a84846102d4565b949350505050565b60006020828403121561037457600080fd5b600061035a84846102e7565b60008060006040848603121561039557600080fd5b60006103a186866102d4565b935050602084013567ffffffffffffffff8111156103be57600080fd5b6103ca868287016102f3565b92509250509250925092565b60006103e18261041c565b8084526103f581602086016020860161043d565b6103fe81610469565b9093016020019392505050565b602080825281016102e081846103d6565b5190565b600160a060020a031690565b600061043782610420565b92915050565b60005b83811015610458578181015183820152602001610440565b838111156102335750506000910152565b601f01601f19169056fea265627a7a723058208d78c964f4a1ceed29d07e5e51ab06363f8782677c379bbc1df4a94c7edf27ee6c6578706572696d656e74616cf50037",
  "source": "pragma solidity ^0.5.0;\npragma experimental ABIEncoderV2;\n\nimport '../tools/Ownable.sol';\n\ncontract SMSDirectory\n{\n\tmapping(address => bytes) m_entries;\n\n\t/**\n\t * Constructor\n\t */\n\tconstructor()\n\tpublic\n\t{\n\t}\n\n\tfunction getSMS(address _ressource)\n\texternal view returns (bytes memory)\n\t{\n\t\treturn m_entries[_ressource];\n\t}\n\n\tfunction setSMS(address _ressource, bytes calldata _sms)\n\texternal\n\t{\n\t\trequire(_ressource == msg.sender || OwnableImmutable(_ressource).m_owner() == msg.sender);\n\t\tm_entries[_ressource] = _sms;\n\t}\n\n}\n",
  "sourcePath": "/home/amxx/Work/iExec/code/PoCo-dev/contracts/standalone/SMSDirectory.sol",
  "compiler": {
    "name": "solc",
    "version": "0.5.0+commit.1d4f565a.Emscripten.clang"
  },
  "schemaVersion": "3.0.1",
  "updatedAt": "2019-01-08T09:34:24.415Z",
  "devdoc": {
    "methods": {}
  },
  "userdoc": {
    "methods": {
      "constructor": "Constructor"
    }
  }
}