{
  "contractName": "Workerpool",
  "abi": [
    {
      "constant": true,
      "inputs": [],
      "name": "m_workerpoolDescription",
      "outputs": [
        {
          "name": "",
          "type": "string"
        }
      ],
      "payable": false,
      "stateMutability": "view",
      "type": "function"
    },
    {
      "constant": true,
      "inputs": [],
      "name": "m_schedulerRewardRatioPolicy",
      "outputs": [
        {
          "name": "",
          "type": "uint256"
        }
      ],
      "payable": false,
      "stateMutability": "view",
      "type": "function"
    },
    {
      "constant": true,
      "inputs": [],
      "name": "m_workerStakeRatioPolicy",
      "outputs": [
        {
          "name": "",
          "type": "uint256"
        }
      ],
      "payable": false,
      "stateMutability": "view",
      "type": "function"
    },
    {
      "constant": true,
      "inputs": [],
      "name": "m_owner",
      "outputs": [
        {
          "name": "",
          "type": "address"
        }
      ],
      "payable": false,
      "stateMutability": "view",
      "type": "function"
    },
    {
      "inputs": [
        {
          "name": "_workerpoolOwner",
          "type": "address"
        },
        {
          "name": "_workerpoolDescription",
          "type": "string"
        }
      ],
      "payable": false,
      "stateMutability": "nonpayable",
      "type": "constructor"
    },
    {
      "anonymous": false,
      "inputs": [
        {
          "indexed": false,
          "name": "oldWorkerStakeRatioPolicy",
          "type": "uint256"
        },
        {
          "indexed": false,
          "name": "newWorkerStakeRatioPolicy",
          "type": "uint256"
        },
        {
          "indexed": false,
          "name": "oldSchedulerRewardRatioPolicy",
          "type": "uint256"
        },
        {
          "indexed": false,
          "name": "newSchedulerRewardRatioPolicy",
          "type": "uint256"
        }
      ],
      "name": "PolicyUpdate",
      "type": "event"
    },
    {
      "constant": false,
      "inputs": [
        {
          "name": "_newWorkerStakeRatioPolicy",
          "type": "uint256"
        },
        {
          "name": "_newSchedulerRewardRatioPolicy",
          "type": "uint256"
        }
      ],
      "name": "changePolicy",
      "outputs": [],
      "payable": false,
      "stateMutability": "nonpayable",
      "type": "function"
    }
  ],
  "bytecode": "0x608060405234801561001057600080fd5b5060405161065c38038061065c83398101806040526100329190810190610174565b60008054600160a060020a031916600160a060020a0384161790558051610060906001906020840190610072565b5050601e60025550600160035561025f565b828054600181600116156101000203166002900490600052602060002090601f016020900481019282601f106100b357805160ff19168380011785556100e0565b828001600101855582156100e0579182015b828111156100e05782518255916020019190600101906100c5565b506100ec9291506100f0565b5090565b61010a91905b808211156100ec57600081556001016100f6565b90565b6000610119825161021e565b9392505050565b6000601f8201831361013157600080fd5b815161014461013f826101eb565b6101c5565b9150808252602083016020830185838301111561016057600080fd5b61016b83828461022f565b50505092915050565b6000806040838503121561018757600080fd5b6000610193858561010d565b92505060208301516001604060020a038111156101af57600080fd5b6101bb85828601610120565b9150509250929050565b6040518181016001604060020a03811182821017156101e357600080fd5b604052919050565b60006001604060020a0382111561020157600080fd5b506020601f91909101601f19160190565b600160a060020a031690565b600061022982610212565b92915050565b60005b8381101561024a578181015183820152602001610232565b83811115610259576000848401525b50505050565b6103ee8061026e6000396000f3fe60806040526004361061006c5763ffffffff7c0100000000000000000000000000000000000000000000000000000000600035041663584feb3a811461007157806387639c681461009c578063b55e75af146100be578063deff41c1146100d3578063f199413c146100f5575b600080fd5b34801561007d57600080fd5b50610086610117565b60405161009391906102f8565b60405180910390f35b3480156100a857600080fd5b506100b16101a4565b6040516100939190610309565b3480156100ca57600080fd5b506100b16101aa565b3480156100df57600080fd5b506100e86101b0565b60405161009391906102e4565b34801561010157600080fd5b5061011561011036600461025d565b6101cc565b005b60018054604080516020600284861615610100026000190190941693909304601f8101849004840282018401909252818152929183018282801561019c5780601f106101715761010080835404028352916020019161019c565b820191906000526020600020905b81548152906001019060200180831161017f57829003601f168201915b505050505081565b60035481565b60025481565b60005473ffffffffffffffffffffffffffffffffffffffff1681565b60005473ffffffffffffffffffffffffffffffffffffffff1633146101f057600080fd5b60648111156101fe57600080fd5b7f61f37ef3a6d587ce2d6be79492e1fac570f2745787015db7ed95ad4397b05c1e60025483600354846040516102379493929190610317565b60405180910390a1600291909155600355565b60006102568235610377565b9392505050565b6000806040838503121561027057600080fd5b600061027c858561024a565b925050602061028d8582860161024a565b9150509250929050565b6102a081610359565b82525050565b60006102b182610355565b8084526102c581602086016020860161037a565b6102ce816103aa565b9093016020019392505050565b6102a081610377565b602081016102f28284610297565b92915050565b6020808252810161025681846102a6565b602081016102f282846102db565b6080810161032582876102db565b61033260208301866102db565b61033f60408301856102db565b61034c60608301846102db565b95945050505050565b5190565b600073ffffffffffffffffffffffffffffffffffffffff82166102f2565b90565b60005b8381101561039557818101518382015260200161037d565b838111156103a4576000848401525b50505050565b601f01601f19169056fea265627a7a72305820a7748850ecebdf2400b1f4fa384d134858d4f2f1e674ea1a5cc9c6efe020f3086c6578706572696d656e74616cf50037",
  "source": "pragma solidity ^0.5.0;\npragma experimental ABIEncoderV2;\n\nimport '../tools/Ownable.sol';\n\ncontract Workerpool is OwnableImmutable\n{\n\t/**\n\t * Parameters\n\t */\n\tstring  public m_workerpoolDescription;\n\tuint256 public m_workerStakeRatioPolicy;     // % of reward to stake\n\tuint256 public m_schedulerRewardRatioPolicy; // % of reward given to scheduler\n\n\t/**\n\t * Events\n\t */\n\tevent PolicyUpdate(\n\t\tuint256 oldWorkerStakeRatioPolicy,     uint256 newWorkerStakeRatioPolicy,\n\t\tuint256 oldSchedulerRewardRatioPolicy, uint256 newSchedulerRewardRatioPolicy);\n\n\t/**\n\t * Constructor\n\t */\n\tconstructor(\n\t\taddress        _workerpoolOwner,\n\t\tstring  memory _workerpoolDescription)\n\tpublic\n\tOwnableImmutable(_workerpoolOwner)\n\t{\n\t\tm_workerpoolDescription      = _workerpoolDescription;\n\t\tm_workerStakeRatioPolicy     = 30; // mutable\n\t\tm_schedulerRewardRatioPolicy = 1;  // mutable\n\t}\n\n\tfunction changePolicy(\n\t\tuint256 _newWorkerStakeRatioPolicy,\n\t\tuint256 _newSchedulerRewardRatioPolicy)\n\tpublic onlyOwner\n\t{\n\t\trequire(_newSchedulerRewardRatioPolicy <= 100);\n\n\t\temit PolicyUpdate(\n\t\t\tm_workerStakeRatioPolicy,     _newWorkerStakeRatioPolicy,\n\t\t\tm_schedulerRewardRatioPolicy, _newSchedulerRewardRatioPolicy\n\t\t);\n\n\t\tm_workerStakeRatioPolicy     = _newWorkerStakeRatioPolicy;\n\t\tm_schedulerRewardRatioPolicy = _newSchedulerRewardRatioPolicy;\n\t}\n\n}\n",
  "sourcePath": "/home/amxx/Work/iExec/code/PoCo/contracts/registries/Workerpool.sol",
  "compiler": {
    "name": "solc",
    "version": "0.5.0+commit.1d4f565a.Emscripten.clang"
  },
  "schemaVersion": "3.0.1",
  "updatedAt": "2019-01-25T13:01:12.274Z",
  "devdoc": {
    "methods": {}
  },
  "userdoc": {
    "methods": {
      "constructor": "Constructor"
    }
  }
}